:020000040800F2
:1000000000000220916E0008495E00084F5E000863
:10001000555E00085B5E0008615E0008000000009D
:10002000000000000000000000000000675E000803
:10003000755E000800000000835E0008915E000805
:10004000E16E0008E16E0008E16E0008E16E000854
:10005000E16E0008E16E0008E16E0008E16E000844
:10006000E16E0008E16E0008E16E0008E16E000834
:10007000E16E0008E16E0008E16E0008E16E000824
:10008000E16E0008E16E0008E16E0008E16E000814
:10009000E16E0008E16E0008E16E0008E16E000804
:1000A000E16E0008E16E0008E16E0008E16E0008F4
:1000B0009D5E0008E16E0008E16E0008E16E000838
:1000C000E16E0008E16E0008E16E0008E16E0008D4
:1000D000E16E0008E16E0008B15E0008E16E000804
:1000E000E16E0008E16E0008E16E0008E16E0008B4
:1000F000E16E0008E16E0008E16E0008E16E0008A4
:10010000E16E0008E16E0008E16E0008E16E000893
:10011000E16E0008E16E0008E16E0008E16E000883
:10012000C55E0008E16E0008E16E0008E16E00089F
:10013000E16E0008E16E0008E16E0008E16E000863
:10014000E16E0008E16E0008E16E0008E16E000853
:10015000E16E0008E16E0008E16E0008E16E000843
:10016000E16E0008E16E0008E16E0008E16E000833
:10017000E16E0008E16E0008E16E0008000000007A
:08018000E16E0008E16E0008C9
:1001900010B5054C237833B9044B13B10448AFF3C1
:1001A00000800123237010BD10010020000000001A
:1001B00060C9000808B5034B1BB103490348AFF3FE
:1001C000008008BD000000001401002060C9000884
:1001D000034613F8012B002AFBD1181A0138704787
:1001E00001F0FF01102A2BDB10F0070F08D010F8E8
:1001F000013B013A8B422DD010F0070F42B3F6D1EC
:10020000F0B441EA012141EA014122F007047FF004
:1002100000070023F0E80256083C85EA010586EA5B
:10022000010685FA47F5A3FA87F586FA47F6A5FA97
:1002300087F68EB9EED1F0BC01F0FF0102F00702A3
:1002400032B110F8013B013A83EA010313B1F8D14E
:100250000020704701387047002D06BF354603382F
:10026000073815F0010F07D1013015F4807F02BF68
:10027000013015F4C03F0130F0BC0138704700BFB9
:1002800053B94AB9002908BF00281CBF4FF0FF31FD
:100290004FF0FF3000F06EB9ADF1080C6DE904CEFF
:1002A00000F006F8DDF804E0DDE9022304B0704751
:1002B0002DE9F047089D04468C46002B40F08380D2
:1002C0008A42174647D9B2FA82F242B1C2F12000FF
:1002D00024FA00F09140974040EA010C94404FEA24
:1002E0001748230CBCFBF8F61FFA87FE08FB16C163
:1002F00043EA014306FB0EF1994209D9FB1806F1C6
:10030000FF3080F01981994240F21681023E3B4451
:100310005B1AA4B2B3FBF8F008FB103344EA0344C1
:1003200000FB0EFEA64509D93C1900F1FF3380F011
:100330000581A64540F2028102383C4440EA06406D
:10034000A4EB0E0400261DB1D4400023C5E90043F0
:100350003146BDE8F08702B9FFDEB2FA82F2002A28
:1003600050D1CB1B4FEA174E1FFA87F80126B3FB7B
:10037000FEFC210C0EFB1C3341EA034108FB0CF38D
:100380008B4207D979180CF1FF3002D28B4200F270
:10039000E9808446C91AA3B2B1FBFEF00EFB10112E
:1003A00043EA014408FB00F8A04507D93C1900F1D5
:1003B000FF3302D2A04500F2D9801846A4EB08040E
:1003C00040EA0C40BFE78B4209D9002D00F0B18014
:1003D0000026C5E9000130463146BDE8F087B3FA92
:1003E00083F6002E4AD18B4202D3824200F2B880BB
:1003F000841A61EB030101208C46002DA8D0C5E9C9
:10040000004CA5E7C2F1200320FA03F6974001FA59
:1004100002F04FEA174ED9403043030CB1FBFEF611
:100420001FFA87F80EFB161143EA014306FB08F199
:10043000994204FA02F409D9FB1806F1FF3C80F056
:100440008D80994240F28A80023E3B445B1A81B221
:10045000B3FBFEF00EFB103341EA034100FB08F34F
:100460008B4207D9791800F1FF3C73D28B4271D9C6
:1004700002383944CB1A40EA064678E7C6F1200C28
:1004800003FA06F422FA0CF31C4320FA0CF701FAE3
:1004900006F34FEA144E21FA0CF11F433B0CB1FB5B
:1004A000FEF91FFA84F80EFB191143EA014109FB1A
:1004B00008FA8A4502FA06F200FA06F308D961182A
:1004C00009F1FF3048D28A4546D9A9F102092144F1
:1004D000A1EB0A01BFB2B1FBFEF00EFB101147EA1F
:1004E000014700FB08F8B84507D9E71900F1FF31CB
:1004F0002ED2B8452CD90238274440EA0940A7EB50
:100500000807A0FB02894F45C64649461AD317D0B3
:100510005DB1B3EB0E0267EB010707FA0CFCF2408A
:100520004CEA0202F740C5E9002700263146BDE843
:10053000F0872E4628460BE70646E9E61846FDE614
:100540004345E5D2B8EB020E69EB04010138DFE761
:100550000846D2E760468DE78146B9E7664675E70B
:1005600030464AE7ACF1020C394413E702383C4408
:1005700024E700BF704700BF80B584B000AF3B46A2
:1005800000221A605A609A60DA603D4B3D4A1A6058
:100590003B4B00225A603A4B00229A60384B0122B2
:1005A0001A61374B00221A76354B002283F820203F
:1005B000334B0022DA62324B334A9A62304B0022CC
:1005C000DA602F4B0522DA612D4B002283F83020B0
:1005D0002B4B01225A612A4806F01AFD0346002BD4
:1005E00001D002F0F1FB08233B6001237B60002374
:1005F000BB603B461946224806F07CFE0346002BB2
:1006000001D002F0E1FB09233B6002237B603B4603
:1006100019461B4806F06EFE0346002B01D002F07F
:10062000D3FB0A233B6003237B603B4619461448F7
:1006300006F060FE0346002B01D002F0C5FB0B2341
:100640003B6004237B603B4619460D4806F052FE92
:100650000346002B01D002F0B7FB0C233B600523BF
:100660007B603B461946064806F044FE0346002BD5
:1006700001D002F0A9FB00BF1037BD4680BD00BF0E
:10068000B4010020002001400100000F80B58AB0B5
:1006900000AF786007F1140300221A605A609A6074
:1006A000DA601A617B681B683C4A934271D100236F
:1006B0003B613B4B5B6C3A4A43F480735364384B69
:1006C0005B6C03F480733B613B690023FB60344B3C
:1006D0001B6B334A43F004031363314B1B6B03F072
:1006E0000403FB60FB680023BB602D4B1B6B2C4A93
:1006F00043F0020313632A4B1B6B03F00203BB603E
:10070000BB6807237B610323BB610023FB6107F107
:1007100014031946234807F0A1FD03237B6103233B
:10072000BB610023FB6107F1140319461E4807F063
:1007300095FD1E4B1E4A1A601C4B00225A601B4B33
:1007400000229A60194B0022DA60184B4FF4806245
:100750001A61164B4FF400625A61144B4FF4005269
:100760009A61124B4FF48072DA61104B00221A62C8
:100770000E4B00225A620D4807F06EF90346002B1B
:1007800001D002F021FB7B68084A9A63074A7B6824
:10079000936300BF2837BD4680BD00BF00200140E5
:1007A000003802400008024000040240FC01002022
:1007B0001064024090B595B004AF002001F03AFCFF
:1007C000B04B1B6898B2B04B1B6899B2AF4B1B681B
:1007D0009AB2AF4B1B689BB2AE4C009401F034FE52
:1007E000002302931823019348F2304300934FF6FD
:1007F000FF73A94A37213C2002F000F8A74A3B4684
:1008000092E80300186004331980BB1D2C220021DC
:1008100018460AF059FEA24B1B88184602F02CFB22
:100820000346FB633B46F96B18460AF0F7FE3A466F
:10083000002302931823019348F2304300934FF6AC
:10084000FF736421002002F03DF800230293182377
:10085000019348F2304300934FF6FF73914A96217B
:10086000002002F02FF8002302931823019348F28E
:10087000304300934FF6FF738B4AD721142001F0C9
:10088000BDFF4FF6FF730093F023C822D2219620BC
:1008900001F0D3FC854B1B88184602F0EDFA0346A5
:1008A000BB63824B1B88772B0ED80123029318233E
:1008B000019348F2304300934FF6FF73BA6BD42193
:1008C000A52001F09BFF0DE0012302931823019363
:1008D00048F2304300934FF6FF73BA6BD4219D204A
:1008E00001F08CFF714B1B88772B1AD84FF6FF73E2
:1008F0000093DC23E122DC21CD2001F01AFC4FF62D
:10090000FF730093D223D722DC21CD2001F011FC0C
:100910004FF6FF730093D223D722DC21E12001F0B0
:1009200008FC624B1B881E2B1AD94FF6FF730093ED
:10093000E623E122E621CD2001F0FBFB4FF6FF7319
:100940000093F023D722E621CD2001F0F2FB4FF6F1
:10095000FF730093F023D722E621E12001F0E9FBA9
:10096000002302931823019348F2304300934FF67B
:10097000FF734F4A40F20911142001F03FFF4FF678
:10098000FF7300934FF49173C8224FF48271962045
:1009900001F053FC474B1B88184602F06DFA0346E2
:1009A0007B63444B1B88092B0FD801230293182328
:1009B000019348F2304300934FF6FF737A6B40F295
:1009C0000911AA2001F01AFF0EE001230293182357
:1009D000019348F2304300934FF6FF737A6B40F275
:1009E0000911A52001F00AFF324B1B881D2B20D8CE
:1009F0004FF6FF7300934FF48773E1224FF4877132
:100A0000CD2001F096FB4FF6FF7300934FF48273F5
:100A1000D7224FF48771CD2001F08BFB4FF6FF7387
:100A200000934FF48273D7224FF48771E12001F0D5
:100A300080FB204B1B88002B20D04FF6FF730093C8
:100A40004FF48C73E1224FF48C71CD2001F071FBD7
:100A50004FF6FF7300934FF49173D7224FF48C71CC
:100A6000CD2001F066FB4FF6FF7300934FF49173B6
:100A7000D7224FF48C71E12001F05BFB00BF4437BB
:100A8000BD4690BD74000020780000207C0000204E
:100A90008000002074FE000878C90008A8C900087A
:100AA0003001002088C9000898C900080000002013
:100AB000A0C900083401002080B500AF234BDB88BB
:100AC000012B0ED1224B1B881E339AB2204B1A8069
:100AD0001F4B1B88782B02D91D4B78221A80FFF7F9
:100AE00069FE1A4BDB89012B0ED1194B1B881E3B6B
:100AF0009AB2174B1A80164B1B881D2B02D8144B29
:100B00001E221A80FFF756FE104BDB8A012B0ED1F6
:100B1000104B1B8805339AB20E4B1A800D4B1B8865
:100B20001E2B02D90B4B1E221A80FFF743FE074BE8
:100B3000DB8B012B07D1074B1B88053B9AB2054B7A
:100B40001A80FFF737FE00BF80BD00BF680200209B
:100B5000000000203401002080B483B000AF0023E7
:100B60007B6007E0084A7B68002122F813107B684D
:100B700001337B607B68052BF4DD00BF00BF0C37C1
:100B8000BD465DF8047B70475C02002080B582B0F2
:100B900000AF00237B60B3E17B68032B00F2AC81E4
:100BA00001A252F823F000BFB90B0008710C000835
:100BB000350D0008250E000800222021944807F07A
:100BC00001FD01221021924807F0FCFC01220821BE
:100BD000904807F0F7FC01224FF480418E4807F05F
:100BE000F1FC4FF480518C4807F0D4FC0346002BF5
:100BF00006D18A4B1B8801339AB2884B1A807CE15C
:100C0000864B00221A804FF40051834807F0C2FC43
:100C10000346002B06D1814B5B8801339AB27F4B90
:100C20005A806AE17D4B00225A804021794807F0C2
:100C3000B1FC0346002B06D1784B9B8801339AB256
:100C4000764B9A8059E1754B00229A808021714839
:100C500007F0A0FC0346002B06D1704BDB88013364
:100C60009AB26E4BDA8048E16C4B0022DA8044E1A4
:100C700001222021664807F0A5FC002210216448CB
:100C800007F0A0FC01220821624807F09BFC01222A
:100C90004FF48041604807F095FC4FF480515E4866
:100CA00007F078FC0346002B06D15C4B1B8901330F
:100CB0009AB25A4B1A8120E1584B00221A814FF404
:100CC0000051554807F066FC0346002B0CD1534BEE
:100CD0005B8901339AB2514B5A81514B1B880133C6
:100CE0009AB24F4B1A8008E14C4B00225A814021A6
:100CF000484807F04FFC0346002B06D1474B9B8921
:100D000001339AB2454B9A81F7E0444B00229A8115
:100D10008021404807F03EFC0346002B06D13F4BA4
:100D2000DB8901339AB23D4BDA81E6E03B4B00228E
:100D3000DA81E2E001222021354807F043FC01225C
:100D40001021334807F03EFC00220821314807F00B
:100D500039FC01224FF480412F4807F033FC4FF457
:100D600080512D4807F016FC0346002B0CD12B4B6D
:100D70001B8A01339AB2294B1A82294B5B880133B3
:100D80009AB2274B5A80B8E0244B00221A824FF4C3
:100D90000051214807F0FEFB0346002B0CD11F4BEE
:100DA0005B8A01339AB21D4B5A821D4B9B880133DB
:100DB0009AB21B4B9A80A0E0184B00225A82402125
:100DC000144807F0E7FB0346002B0CD1134B9B8A1A
:100DD00001339AB2114B9A82114BDB8801339AB2DC
:100DE0000F4BDA8089E00D4B00229A82802109485E
:100DF00007F0D0FB0346002B06D1084BDB8A0133FA
:100E00009AB2064BDA8278E0044B0022DA8274E070
:100E10000000024000080240001802406802002062
:100E20005C020020012220213A4807F0CBFB01227E
:100E30001021384807F0C6FB01220821364807F088
:100E4000C1FB00224FF48041344807F0BBFB4FF454
:100E50008051324807F09EFB0346002B0CD1304BEB
:100E60001B8B01339AB22E4B1A832E4B1B890133F5
:100E70009AB22C4B1A8140E0294B00221A834FF47E
:100E80000051264807F086FB0346002B0CD1244B6B
:100E90005B8B01339AB2224B5A83224B5B8901331D
:100EA0009AB2204B5A8128E01D4B00225A834021E0
:100EB000194807F06FFB0346002B08D1184B9B8B9A
:100EC00001339AB2164B9A83FFF746FE15E0144B96
:100ED00000229A838021104807F05CFB0346002B18
:100EE00006D10F4BDB8B01339AB20D4BDA8304E052
:100EF0000B4B0022DA8300E000BF7B6801337B608C
:100F00007B68032B7FF748AE00BF00BF0837BD46A4
:100F100080BD00BF000002400008024000180240EF
:100F2000680200205C02002080B582B000AF002380
:100F30007B600C4B1B6B0B4A43F480031363094B20
:100F40001B6B03F480037B607B6800220021382048
:100F500006F04BFD382006F064FD00BF0837BD46A3
:100F600080BD00BF0038024080B584B004AF2D4B77
:100F70001B689BB2053399B200230293102301939F
:100F8000002300934FF6FF73274A002001F09AFCDC
:100F9000244B1B689BB2143399B200230293102395
:100FA0000193002300934FF6FF73204A002001F0C5
:100FB00089FC1F4B1B689BB2083398B2194B9A6887
:100FC000184B1B681344DA0F13445B109BB2143B9D
:100FD00099B2012302931023019348F23043009306
:100FE0000023144A01F00AFC114B1B689BB2083322
:100FF00098B20C4B9A680B4B1B681344DA0F1344DE
:101000005B109BB2193399B2012302931023019311
:1010100048F2304300930023074A01F0EFFB00BF82
:10102000BD4680BD4C000020DCC90008E8C90008AE
:101030003C000020F4C90008F8C9000890B587B04A
:1010400004AF584B9A68574B1B681344DA0F13448C
:101050005B10083B7B60534B9A68524B1B681344F0
:10106000DA0F13445B101C333B604F4B1B68032BA0
:1010700003D0042B00F0A28035E14C4B1B689AB2E0
:101080004B4B1B689BB2134498B2464B1B689BB2F8
:10109000233399B2454B5B689AB2454B1B689BB2B0
:1010A000D31A9AB23F4BDB689BB2053B9BB248F226
:1010B0003044009400F0F0FF3C4B1B689BB20833B7
:1010C00098B2384B9A68374B1B681344DA0F1344B5
:1010D0005B109BB20F3B99B2012302931023019343
:1010E00048F2304300934FF47843324A01F086FBD4
:1010F0002E4B1B689BB2083398B22A4B9A68294B37
:101100001B681344DA0F13445B109BB2143399B27B
:10111000012302931023019348F2304300930023EC
:10112000254A01F06BFB214B5B689BB20F3B98B2E9
:101130007B6899B21D4B5B689BB20A3B9AB27B6895
:101140009BB2053B9BB20024009400F0F2FF174BCA
:101150005B689BB20F3B98B27B6899B2134B5B689C
:101160009BB20A3B9AB27B689BB205339BB20024C8
:10117000009400F0DEFF0D4B5B689BB20A3B98B217
:101180007B689BB2053B99B2084B5B689BB20A3BFC
:101190009AB27B689BB205339BB20024009400F0A6
:1011A000C8FFA0E04C000020600000203C000020B0
:1011B00038000020F4C90008F8C900084C4B1B682F
:1011C0009AB24C4B1B689BB2134498B24A4B1B68B3
:1011D0009BB2233399B2464B5B689AB2454B1B686E
:1011E0009BB2D31A9AB2444BDB689BB2053B9BB2CD
:1011F00048F23044009400F04FFF3D4B1B689BB217
:10120000083398B23C4B9A683B4B1B681344DA0F87
:1012100013445B109BB20F3B99B20123029310233E
:10122000019348F2304300930023344A01F0E6FA78
:101230002F4B1B689BB2083398B22F4B9A682E4BEA
:101240001B681344DA0F13445B109BB2143399B23A
:10125000012302931023019348F2304300934FF48B
:101260007843274A01F0CAFA214B5B689BB20F3BD7
:1012700098B23B6899B21E4B5B689BB20A3B9AB22C
:101280003B689BB2053B9BB20024009400F051FFE9
:10129000174B5B689BB20F3B98B23B6899B2144BFB
:1012A0005B689BB20A3B9AB23B689BB205339BB228
:1012B0000024009400F03DFF0D4B5B689BB20A3B9D
:1012C00098B23B689BB2053B99B2094B5B689BB2F5
:1012D0000A3B9AB23B689BB205339BB20024009450
:1012E00000F027FF00BF00BF0C37BD4690BD00BF18
:1012F0003C000020380000204C000020F4C9000809
:10130000F8C9000880B500AF00F01EF9FFF72CFE09
:10131000FFF794FE00BF80BD80B500AF1B4B1B687C
:101320000A2B31D11A4BDB88012B0CD1194B01222E
:101330001A60194B1B68032B23D0042B04D1164BC6
:1013400003221A6000E000BF114BDB89012B0DD195
:10135000104B01221A60104B1B68032B02D0042B88
:1013600011D004E00C4B04221A6000E000BF094BCE
:101370001B68012B08D1FFF7C5FF064B00221A603E
:1013800002E000BF00E000BF80BD00BF44010020BC
:1013900068020020540100206000002080B500AFEA
:1013A000FFF7B0FF00BF80BD80B58EB000AF07F182
:1013B0001C0300221A605A609A60DA601A615A614E
:1013C0009A613B4600221A605A609A60DA601A619C
:1013D0005A619A612F4B4FF020421A602D4B2E4AD2
:1013E0005A602C4B00229A602A4B0022DA60294B6B
:1013F00000221A61274B10225A61264B00229A6163
:10140000244B0022DA61234B00221A62214B002276
:101410005A62204B4FF480529A621E4B0022DA62CD
:101420001C4B4FF480421A631A4B00225A63194B2B
:1014300000229A63174B00225A640F23FB610F238B
:101440003B623C237B620023BB621023FB621123BF
:101450003B6300237B6308233B600F237B600923EE
:10146000BB600023FB6010233B6111237B610023E1
:10147000BB613A4607F11C031946064807F0C0FF56
:101480000346002B01D001F09FFC00BF3837BD465A
:1014900080BD00BF88020020040100A080B586B096
:1014A00000AF3B1D00221A605A609A60DA601A6130
:1014B0001C4B1B68002B31D11A4B01221A600023F0
:1014C0003B60194B9B6B184A43F001039363164B27
:1014D0009B6B03F001033B603B684FF688737B60B6
:1014E0000223BB600023FB6003233B610C237B6171
:1014F0003B1D19460D4806F0B1FE4CF2B3737B60FC
:101500000223BB600023FB6003233B610C237B6150
:101510003B1D1946064806F0A1FE00E000BF183743
:10152000BD4680BD2C010020003802400010024062
:10153000000C024080B582B000AF7860FFF7AEFFCC
:1015400000BF0837BD4680BD90B583B002AF384BB1
:101550001B6898B2374B1B6899B2354BDB689CB25D
:10156000344BDB689AB2344B1B689BB2D31A9BB2E4
:1015700048F230420092224600F08EFD2C4B1B6850
:1015800098B22C4B1B6899B2294B5B689CB2294BD3
:101590005B689AB2284B1B689BB213449BB2002233
:1015A0000092224600F078FD214B1B6898B2214B37
:1015B0001B6899B21E4B9B689AB21F4B1B689BB26B
:1015C00013449AB21B4B9B689BB20024009400F01A
:1015D00063FD174B5B689AB2174B1B689BB2D31A1B
:1015E00098B2144B5B6899B2114BDB689AB2114BFD
:1015F000DB689BB20024009400F04EFD0C4B9B680E
:1016000098B20C4B9B689AB20B4B1B689BB2D31AD7
:1016100099B2074BDB689AB2064BDB689BB2002499
:10162000009400F039FD00BF0437BD4690BD00BFF7
:101630003C0000204C0000203800002080B594B011
:1016400004AF0346FB800023BB6007F10C032E228E
:101650000021184609F038FFFB88032B16D801A299
:1016600052F823F0751600087B1600088116000852
:10167000871600082E4BFB6308E02E4BFB6305E04A
:101680002D4BFB6302E02D4BFB6300BF07F108030A
:10169000F96B184609F0C2FF294B1B689BB20A334D
:1016A00099B207F10802002302931023019300234B
:1016B00000934FF6FF73002001F004F9214B1B68E3
:1016C0009BB2083398B21E4B9A681D4B1B6813449B
:1016D000DA0F13445B109BB20F3B99B201230293C4
:1016E0001023019348F2304300930023164A01F07F
:1016F00085F8144B1B689BB2083398B2104B9A685C
:101700000F4B1B681344DA0F13445B109BB2143366
:1017100099B2012302931023019348F230430093BE
:1017200000230A4A01F06AF800BF4037BD4680BD79
:10173000FCC9000808CA000814CA000820CA00082A
:101740004C0000203C00002030CA00083CCA0008C1
:1017500090B583B002AF114B1B689AB2104B1B6857
:101760009BB2134498B20F4B1B689BB2193399B2CA
:101770000A4B5B689AB20A4B1B689BB2D31A9AB2A7
:10178000084BDB689BB2053B9BB248F230440094A7
:1017900000F082FC00BF0437BD4690BD3C00002035
:1017A000380000204C00002090B587B004AF874B74
:1017B0009A68864B1B681344DA0F13445B10083B8E
:1017C0007B60824B9A68814B1B681344DA0F134489
:1017D0005B101C333B607E4B1B68002B02D0012B3F
:1017E00078D0EFE0FFF7B4FF7A4B1B689BB2083369
:1017F00098B2764B9A68754B1B681344DA0F134402
:101800005B109BB20F3B99B201230293102301930B
:1018100048F2304300934FF478436F4A00F0EEFFF4
:101820006C4B1B689BB2083398B2684B9A68674B45
:101830001B681344DA0F13445B109BB2143399B244
:10184000012302931023019348F2304300930023B5
:10185000624A00F0D3FF5F4B5B689BB20F3B98B2CC
:101860007B6899B25B4B5B689BB20A3B9AB27B6820
:101870009BB2053B9BB20024009400F05AFC554BF0
:101880005B689BB20F3B98B27B6899B2514B5B6827
:101890009BB20A3B9AB27B689BB205339BB2002491
:1018A000009400F046FC4B4B5B689BB20A3B98B23D
:1018B0007B689BB2053B99B2464B5B689BB20A3B87
:1018C0009AB27B689BB205339BB20024009400F06F
:1018D00030FC77E0FFF73CFF3E4B1B689BB20833C0
:1018E00098B23A4B9A68394B1B681344DA0F134489
:1018F0005B109BB20F3B99B201230293102301931B
:1019000048F2304300930023334A00F077FF314B15
:101910001B689BB2083398B22C4B9A682B4B1B6800
:101920001344DA0F13445B109BB2143399B20123B2
:1019300002931023019348F2304300934FF478430D
:10194000264A00F05BFF234B5B689BB20F3B98B2CB
:101950003B6899B21F4B5B689BB20A3B9AB23B68EB
:101960009BB2053B9BB20024009400F0E2FB194BB4
:101970005B689BB20F3B98B23B6899B2154B5B68B2
:101980009BB20A3B9AB23B689BB205339BB20024E0
:10199000009400F0CEFB0F4B5B689BB20A3B98B201
:1019A0003B689BB2053B99B20A4B5B689BB20A3B12
:1019B0009AB23B689BB205339BB20024009400F0BE
:1019C000B8FB00BF00BF0C37BD4690BD4C000020E7
:1019D000380100203C00002030CA00083CCA000842
:1019E00080B582B000AF0346FB80FFF7ADFDFB88FA
:1019F0001846FFF723FEFFF7D7FE00BF0837BD46A6
:101A000080BD000080B582B000AF0346FB801B4B59
:101A1000DB88012B0CD11A4B01221A60194B1B6871
:101A2000002B25D0012B04D1164B00221A6000E0B8
:101A300000BF124BDB89012B0DD1114B01221A6023
:101A4000104B1B68002B02D0012B13D004E00D4B70
:101A500001221A6000E000BF094B1B68012B0AD16C
:101A6000FB881846FFF7BCFF054B00221A6002E016
:101A700000BF00E000BF0837BD4680BD68020020FF
:101A80004C01002038010020B0B5A6B000AF0346DD
:101A9000FB806B4B1B881A466A4B1B681344694AD0
:101AA0001360694B1B881A46684B1B681344674ACE
:101AB0001360674B1B680133654A1360654B07F180
:101AC00040040FCB07C4237007F14D0339220021D6
:101AD000184609F0F9FC604B1B88184601F0CCF958
:101AE000C7F8940007F14003D7F89410184609F09E
:101AF00095FD5A4B07F10C041D460FCD0FC40FCDB9
:101B00000FC495E8030020600434218002340B0CDC
:101B1000237007F1330300221A605A60C3F80720CC
:101B2000474B1B88184601F0A7F9C7F8900007F14A
:101B30000C03D7F89010184609F070FD07F10C025D
:101B400007F140031146184609F068FD07F140030C
:101B50001846FEF73DFB03461A4607F140031344BF
:101B60003F491A460B461B881380364B1A68384B80
:101B70001B68B2FBF3F39BB2184601F07DF9C7F87E
:101B80008C0007F14003D7F88C10184609F046FD89
:101B900007F140031846FEF71BFB03461A4607F100
:101BA000400313442E491A460B461B881380274BCB
:101BB0001A68274B1B68B2FBF3F39BB2184601F07F
:101BC0005BF9C7F8880007F14003D7F8881018467A
:101BD00009F024FD07F140031846FEF7F9FA034621
:101BE0001A4607F1400313441D491A460B461B8849
:101BF000138007F140031846FEF7EAFA03469AB24B
:101C000007F140031146184604F010FF154B072258
:101C10001A600B4B00221A800B4B00221A80124BC9
:101C200000221A60114B01221A60FB881846FFF748
:101C3000E9FE0F4AFB88138000BF9837BD46B0BD50
:101C400032010020600100205C01002064010020BE
:101C50006801002048CA00083001002090CA00082E
:101C600044CA000844010020380100204C01002033
:101C70005A01002080B58EB000AF07F12403002286
:101C80001A605A609A60DA601A6100233B62A34BC3
:101C90001B6BA24A43F010031363A04B1B6B03F0B2
:101CA00010033B623B6A0023FB619C4B1B6B9B4A0E
:101CB00043F004031363994B1B6B03F00403FB61B4
:101CC000FB690023BB61954B1B6B944A43F02003D7
:101CD0001363924B1B6B03F02003BB61BB690023B2
:101CE0007B618E4B1B6B8D4A43F0800313638B4BE0
:101CF0001B6B03F080037B617B6900233B61874B97
:101D00001B6B864A43F001031363844B1B6B03F088
:101D100001033B613B690023FB60804B1B6B7F4AE7
:101D200043F0020313637D4B1B6B03F00203FB6064
:101D3000FB680023BB60794B1B6B784A43F00803B8
:101D40001363764B1B6B03F00803BB60BB68002377
:101D50007B60724B1B6B714A43F0400313636F4B04
:101D60001B6B03F040037B607B68002270216C4892
:101D700006F028FC00224FF400516A4806F022FCCD
:101D800000224FF4C061684806F01CFC002240218C
:101D9000664806F017FC00224FF48071644806F094
:101DA00011FC00220821634806F00CFC70237B62C2
:101DB0000123BB620023FB6200233B6307F1240382
:101DC0001946574806F04AFA4FF400537B62012344
:101DD000BB620023FB6200233B6307F12403194627
:101DE000504806F03BFA08237B620123BB620023C4
:101DF000FB6203233B6307F124031946494806F0BD
:101E00002DFA30237B620123BB620023FB62032394
:101E10003B6307F124031946454806F01FFAC02327
:101E20007B620023BB620123FB6207F12403194696
:101E30003C4806F013FA4FF440537B620023BB6228
:101E40000123FB6207F124031946384806F006FA1D
:101E50004FF480437B620123BB620023FB620323B8
:101E60003B6307F124031946304806F0F7F94FF4B5
:101E7000C0637B620123BB620023FB6200233B63E0
:101E800007F124031946284806F0E8F9C0237B62CD
:101E90000023BB620023FB6207F124031946244898
:101EA00006F0DCF930237B620023BB620023FB6277
:101EB00007F1240319461B4806F0D0F940237B6242
:101EC0000123BB620023FB6200233B6307F1240371
:101ED0001946164806F0C2F94FF480737B6201235D
:101EE000BB620023FB6200233B6307F12403194616
:101EF0000F4806F0B3F908237B620123BB6200237D
:101F0000FB6200233B6307F124031946094806F0EE
:101F1000A5F900BF3837BD4680BD00BF003802407C
:101F20000010024000080240001402400018024065
:101F300000000240000C024080B483B000AF0346B2
:101F4000FB80044AFB88138000BF0C37BD465DF858
:101F5000047B7047FEFF0F6080B483B000AF034680
:101F6000FB80044AFB88538000BF0C37BD465DF8F8
:101F7000047B7047FEFF0F6080B483B000AF064B58
:101F80005B889BB2FB80FB889BB218460C37BD4632
:101F90005DF8047B704700BFFEFF0F6090B583B013
:101FA00000AF0446084611461A462346FB80034606
:101FB000BB800B467B8013463B802A20FFF7BCFF8B
:101FC000FB881B0A9BB21846FFF7C6FFFB88DBB2F3
:101FD0009BB21846FFF7C0FF7B881B0A9BB21846CE
:101FE000FFF7BAFF7B88DBB29BB21846FFF7B4FF5E
:101FF0002B20FFF7A1FFBB881B0A9BB21846FFF7F7
:10200000ABFFBB88DBB29BB21846FFF7A5FF3B884E
:102010001B0A9BB21846FFF79FFF3B88DBB29BB2BF
:102020001846FFF799FF2C20FFF786FF00BF0C37FB
:10203000BD4690BD80B584B000AF0346FB80154B14
:102040001B88013B9AB2134B5B88013B9BB200217A
:102050000020FFF7A3FF0023FB8111E00023BB81D9
:1020600006E0FB881846FFF777FFBB890133BB8189
:10207000084B5B88BA899A42F3D3FB890133FB8111
:10208000044B1B88FA899A42E8D300BF00BF10377F
:10209000BD4680BDD802002090B585B000AF044693
:1020A000084611461A462346FB800346BB800B4672
:1020B0007B8013463B807B88013B9AB23B88013B87
:1020C0009BB2B988F888FFF769FFBB88FB8110E0F5
:1020D000FB88BB8106E03B8C1846FFF73DFFBB89C0
:1020E0000133BB81BA897B889A42F4D3FB890133DF
:1020F000FB81FA893B889A42EAD300BF00BF1437BC
:10210000BD4690BD80B582B000AF0346FB800B4654
:10211000BB8013467B80BB88FA88B988F888FFF7B4
:102120003DFF7B881846FFF717FF00BF0837BD4605
:1021300080BD90B58DB000AF0446084611461A46E2
:102140002346FB800346BB800B467B8013463B80C7
:102150000023BB6200237B627A88FB88D31A3B6230
:102160003A88BB88D31AFB61FB88FB60BB88BB60E5
:102170003B6A002B02DD01237B610BE03B6A002BF5
:1021800002D100237B6105E04FF0FF337B613B6AA6
:102190005B423B62FB69002B02DD01233B610BE0EC
:1021A000FB69002B02D100233B6105E04FF0FF33B8
:1021B0003B61FB695B42FB613A6AFB699A4202DD63
:1021C0003B6ABB6101E0FB69BB610023FB852BE03F
:1021D000FB689BB2BA6891B2B7F840201846FFF787
:1021E00091FFBA6A3B6A1344BB627A6AFB69134483
:1021F0007B62BA6ABB699A4207DDBA6ABB69D31AC5
:10220000BB62FA687B691344FB607A6ABB699A42D5
:1022100007DD7A6ABB69D31A7B62BA683B691344EB
:10222000BB60FB8D0133FB85FB8DBA699A42CFDA27
:1022300000BF00BF3437BD4690BD90B585B002AF3A
:102240000446084611461A462346FB800346BB80D7
:102250000B467B8013463B80BC887A88B988F88817
:102260003B8B00932346FFF764FF3C88FA88B988CC
:10227000F8883B8B00932346FFF75BFF3C887A8806
:102280003988F8883B8B00932346FFF752FF3C8840
:102290007A88B98878883B8B00932346FFF749FFFB
:1022A00000BF0C37BD4690BD90B587B000AF044667
:1022B000084611461A462346FB800346BB800B4660
:1022C000FB7013463B8000237B75FB883B8297F8AD
:1022D0002C305B08FB73FB7BDB08DBB21A46FB7B15
:1022E00003F00703DBB2002B14BF01230023DBB292
:1022F00013449AB297F82C309BB212FB03F3BB81C4
:10230000FB78203BFB70FB7B9AB2FB8813449BB2AB
:10231000013B9CB297F82C309AB2BB8813449BB215
:10232000013B9BB2B988F8882246FFF737FE0023AD
:102330007B827AE097F82C300C2B28D097F82C3041
:10234000102B08D1FA787B8A3C4912010A441344C5
:102350001B78FB751BE097F82C30182B0BD1FA7803
:10236000798A374813465B0013441B0103440B442E
:102370001B78FB750BE097F82C30202B5AD1FA789C
:102380007B8A304992010A4413441B78FB75002371
:10239000BB7544E097F83030002B20D1FA7DBB7D2F
:1023A00042FA03F303F00103002B04D03B881846E4
:1023B000FFF7D2FD03E03B8D1846FFF7CDFD7B7D97
:1023C00001337B757B7DFA7BB3FBF2F102FB01F2FB
:1023D0009B1ADBB2002B1FD100237B7522E0FA7D14
:1023E000BB7D42FA03F303F00103002B05D03A88CA
:1023F000B988FB881846FFF785FEFB880133FB8010
:10240000FA883B8AD21AFB7B9A4205D13B8AFB8031
:10241000BB880133BB8005E0BB7D0133BB75BB7D51
:10242000072BB7D97B8A01337B827A8ABB899A4290
:1024300080D300E000BF1C37BD4690BDF4CE00083D
:10244000E4D40008B4E6000890B587B000AF0446B5
:10245000084611461A462346FB800346BB800B46BE
:102460007B8013463B8000233B61FA887B881344C2
:102470009BB2013B9CB2BA883B8813449BB2013BA0
:102480009BB2B988F8882246FFF788FD0023FB82BB
:1024900027E00023BB821DE03B695B00BA6A13445E
:1024A0001B78FB733B695B000133BA6A13441B78EA
:1024B000BB73FB7B1B021AB2BB7B1BB213431BB269
:1024C0009BB21846FFF748FD3B6901333B61BB8A6D
:1024D0000133BB82BA8A3B889A42DDD3FB8A01333F
:1024E000FB82FA8A7B889A42D3D300BF00BF1C3795
:1024F000BD4690BD80B483B000AF0346FB71FB794D
:102500001B09DBB203F00303DBB2002B07D00A4B3D
:102510004FF4A0721A80084BF0225A8006E0064B56
:10252000F0221A80044B4FF4A0725A8000BF0C377F
:10253000BD465DF8047B7047D802002080B500AF2F
:1025400000224FF40051AA4806F03CF84FF4FA700C
:1025500004F03AFD01224FF40051A54806F032F88C
:102560004FF4FA7004F030FD0020FFF7C3FFD320D2
:10257000FFF7E2FCFFF700FD03461A469D4B9A80E9
:10258000FFF7FAFC03461A469A4B9A80FFF7F4FCD1
:1025900003461A46974B9A80964B9B881B029AB229
:1025A000944B9A80FFF7E8FC03461A46914B9B88B0
:1025B00013439AB28F4B9A80CF20FFF7BDFC0020C7
:1025C000FFF7CAFCC120FFF7C7FC3020FFF7C4FCAF
:1025D000ED20FFF7B1FC6420FFF7BEFC0320FFF7FE
:1025E000BBFC1220FFF7B8FC8120FFF7B5FCE82008
:1025F000FFF7A2FC8520FFF7AFFC1020FFF7ACFC33
:102600007A20FFF7A9FCCB20FFF796FC3920FFF7D3
:10261000A3FC2C20FFF7A0FC0020FFF79DFC34203A
:10262000FFF79AFC0220FFF797FCF720FFF784FCE6
:102630002020FFF791FCEA20FFF77EFC0020FFF747
:102640008BFC0020FFF788FCC020FFF775FC1B20E7
:10265000FFF782FCC120FFF76FFC0120FFF77CFC35
:10266000C520FFF769FC3020FFF776FC3020FFF72C
:1026700073FCC720FFF760FCB720FFF76DFC362026
:10268000FFF75AFC0820FFF767FC3A20FFF754FCDD
:102690005520FFF761FCB120FFF74EFC0020FFF74B
:1026A0005BFC1A20FFF758FCB620FFF745FC0A2018
:1026B000FFF752FCA220FFF74FFCF220FFF73CFC93
:1026C0000020FFF749FC2620FFF736FC0120FFF72A
:1026D00043FCE020FFF730FC0F20FFF73DFC2A20F1
:1026E000FFF73AFC2820FFF737FC0820FFF734FCFF
:1026F0000E20FFF731FC0820FFF72EFC5420FFF7D7
:102700002BFCA920FFF728FC4320FFF725FC0A201B
:10271000FFF722FC0F20FFF71FFC0020FFF71CFC37
:102720000020FFF719FC0020FFF716FC0020FFF740
:1027300013FCE120FFF700FC0020FFF70DFC152043
:10274000FFF70AFC1720FFF707FC0720FFF704FC40
:102750001120FFF701FC0620FFF7FEFB2B20FFF7FF
:10276000FBFB5620FFF7F8FB3C20FFF7F5FB0520AD
:10277000FFF7F2FB1020FFF7EFFB0F20FFF7ECFB5A
:102780003F20FFF7E9FB3F20FFF7E6FB0F20FFF7B5
:10279000E3FB2B20FFF7D0FB0020FFF7DDFB002041
:1027A000FFF7DAFB0120FFF7D7FB3F20FFF7D4FB51
:1027B0002A20FFF7C1FB0020FFF7CEFB0020FFF728
:1027C000CBFB0020FFF7C8FBEF20FFF7C5FB112074
:1027D000FFF7B2FB782004F0F7FB2920FFF7ACFBF2
:1027E00001224FF48071044805F0ECFE00BF80BD6B
:1027F00000080240D80200200000024090B58BB0D3
:1028000004AFBA601A460346FB810B46BB811346F0
:10281000FB80FB89BB820023FB7548E0FB7D002B1E
:1028200045D1FA89264B1B88194697F82C305B084E
:10283000DBB2CB1A9A423FDCBA89214B5B8819463E
:1028400097F82C30CB1A9A4236DCBB681B78802B69
:1028500002D90123FB752AE0BB681B780D2B0BD135
:1028600097F82C309AB2BB891344BB81BB8AFB8199
:10287000BB680133BB6017E0BB681A78FC88B98974
:10288000F88997F83030029397F82C3001933B8DFC
:1028900000932346FFF708FD97F82C305B08DBB266
:1028A0009AB2FB891344FB81BB680133BB60BB68F0
:1028B0001B78002BB2D100E000BF1C37BD4690BD95
:1028C000D802002080B58AB004AFBA601A46034629
:1028D000FB810B46BB811346FB80B868FDF778FC93
:1028E0000346FB820F4B1B881A46FB8ADB00D31A78
:1028F000DA0F13445B10BB82FA89BB8A134498B287
:10290000FA88B98997F82830029397F82430019310
:102910003B8C00931346BA68FFF770FF00BF18376F
:10292000BD4680BDD802002080B500AF0122402105
:10293000024805F047FE00BF80BD00BF00180240FE
:1029400080B500AF3F4B1B88DBB29AB23D4B1A807B
:102950003D4B1B881A463D4B9B5C1B021AB2394B00
:102960001B881BB213431BB29AB2364B1A80364BEC
:102970001B88032B46D801A252F823F08D290008AA
:10298000AB290008C9290008E72900082D4B1B883E
:1029900043F0B0039AB22B4B1A802A4B1B8823F0CA
:1029A00040039AB2274B1A802DE0264B1B8843F038
:1029B000D0039AB2234B1A80224B1B8823F02003AA
:1029C0009AB2204B1A801EE01E4B1B8843F0E00396
:1029D0009AB21C4B1A801B4B1B8823F010039AB22F
:1029E000184B1A800FE0174B1B8843F070039AB204
:1029F000144B1A80134B1B8823F080039AB2114B9F
:102A00001A8000E000BF104B1B8801335A4203F0CC
:102A1000030302F0030258BF53429AB20A4B1A80D2
:102A2000002240210A4805F0CDFD0123022205497C
:102A3000084806F0DEFA01224021054805F0C2FDF3
:102A400000BF80BD920000206C01002084000020A7
:102A500000180240682A002080B485B000AFF860FA
:102A6000B9601346FB71FB68002B0EDBFB68092B7A
:102A70000BDC094AFB6813441A78FB79D31AD9B2E4
:102A8000064ABB6813440A461A7000BF1437BD4695
:102A90005DF8047B704700BF8800002084000020A0
:102AA00080B483B000AF0346FB71FB79012B07D1E3
:102AB0000A4B1B8823F008039AB2084B1A8006E0E1
:102AC000064B1B8843F008039AB2044B1A8000BFE0
:102AD0000C37BD465DF8047B704700BF92000020B4
:102AE00080B500AF04F0FEF900F0B6F8FFF7C2F8C9
:102AF000FEF71AFA03F0F2FC02F058FAFEF754FC63
:102B000004F04CF9FDF738FD03F034FD00F00EF948
:102B10004FF6FF70FFF78EFA00F038F9424B1B8832
:102B2000002B06D0404B00221A80FEF72FF802F04F
:102B3000F9FD3E4B1B68032B07D03C4B1B68042B55
:102B400003D03A4B1B68052B26D101F089FC374B8B
:102B50001B68052B08D1364B1B88002B04D001F0D5
:102B6000A3FD334B00221A80324B1B88002B04D06C
:102B7000304B00221A8001F035FB2F4B1B88012BB4
:102B800010D12E4B1B8801339AB22C4B1A804FF474
:102B90007A7002F0F7F805E0002002F0F3F8254B18
:102BA00000221A80214B1B68072B04D1244B1B8861
:102BB0001846FEF727FF1D4B1B68062B01D103F0BB
:102BC00009FB1A4B1B680A2B01D1FEF7A5FB1D4B15
:102BD0001B88012B0BD11B4B00221A80134B0722A1
:102BE0001A600120FEF750FF174B03221A60174BA3
:102BF0001B88012B0BD1164B1B88013B9AB2144B3F
:102C00001A8003F091FE4FF47A7002F083F8114BB2
:102C10001B88012B82D100F0EBF804F013F842F28C
:102C2000107002F0E7F879E77401002044010020F9
:102C3000920100207A010020980100205C01002010
:102C40005A01002080010020140000208C01002087
:102C5000000000209E01002080B594B000AF07F175
:102C6000200330220021184608F02EFC07F10C0347
:102C700000221A605A609A60DA601A610023BB6011
:102C8000284B1B6C274A43F080531364254B1B6C65
:102C900003F08053BB60BB6800237B60224B1B6842
:102CA000214A43F4804313601F4B1B6803F48043A5
:102CB0007B607B6802233B620123FB6210233B6342
:102CC0000223BB630023FB6308233B64A8237B64CC
:102CD0000223BB640423FB6407F12003184605F0BC
:102CE0008BFC0346002B01D000F06EF80F23FB6035
:102CF00002233B6100237B614FF4A053BB614FF47F
:102D0000A053FB6107F10C030521184605F0ECFE0A
:102D10000346002B01D000F057F800BF5037BD46E6
:102D200080BD00BF003802400070004080B500AF99
:102D300000222021144805F045FC002240211248C1
:102D400005F040FC002210210F4805F03BFC01F08B
:102D50009BFFFFF7E9FDFDF7FFFEFFF7EFFB03F039
:102D60004FFE00F037F8322002F028F8FA2001F088
:102D700095FF4FF47A6001F0E9FF42F2107002F023
:102D800039F800BF80BD00BF0010024080B584B09C
:102D900004AF1F2300931D231D2213211320FFF7CF
:102DA0007BF901230293102301931F2300934FF417
:102DB0007843044A64210020FFF784FD00BFBD462C
:102DC00080BD00BFC4CA000880B400AF72B600BFA7
:102DD000FEE7000080B500AF05220349034804F078
:102DE0005BF900BF80BD00BF14030020B4010020C8
:102DF00080B500AF05220349034804F04DF900BF38
:102E000080BD00BF14030020B401002080B400AFD7
:102E1000034B9B881846BD465DF8047B704700BF96
:102E20001403002080B400AF034BDB881846BD4676
:102E30005DF8047B704700BF1403002080B400AF2E
:102E40000A4B1B8907EE903AF8EE677A9FED087AF5
:102E500067EE877A9FED077AC7EE876AF0EE667AAB
:102E6000B0EE670ABD465DF8047B7047140300208E
:102E70000000A54300F07F4580B590B000AF034649
:102E8000FB80FB8807F10C00064A322108F092FB18
:102E900007F10C03184608F0D1FB034618464037EB
:102EA000BD4680BDD4CA000890B583B002AF0D4BBB
:102EB0001B6898B20C4B1B6899B20A4B5B689CB2BA
:102EC000094B5B689AB2094B1B689BB213449BB2D7
:102ED000002200922246FFF7DFF800BF0437BD460C
:102EE00090BD00BF180000202800002038000020FE
:102EF00090B5A3B004AF03460A46FB801346BB80DF
:102F00004FF6FF70FFF796F8454B5B689AB2454B5A
:102F10001B689BB21F21009100210020FFF7BCF825
:102F200001230293102301931F2300934FF478434E
:102F30003D4A05210020FFF761FC3C4A07F13C03B4
:102F400092E8030018600433197007F141032D2241
:102F50000021184608F0B8FA354B1B881846FFF7D1
:102F60008BFF786707F13C03796F184608F056FB32
:102F7000304B1B6898B2304B1B6899B207F13C028A
:102F800001230293102301934FF6FF7300934FF434
:102F90007843FFF733FC294A07F1080392E803005E
:102FA00083E8030007F110032A220021184608F0E5
:102FB0008BFA234B1B881846FFF75EFF386707F133
:102FC0000803396F184608F029FB1E4B1B6898B29E
:102FD0001D4B1B689BB2053399B207F10802002311
:102FE0000293102301931F2300934FF47843FFF7BC
:102FF00005FC164B1B6898B2154B1B6899B2154B14
:103000001B689AB2144B1B689BB2144C0094FFF7D8
:103010001BFAFFF749FF00BF7C37BD4690BD00BFDC
:103020001800002028000020D8CA0008E8CA0008BC
:103030003001002064000020680000201CCB000844
:10304000320100206C00002070000020740000207D
:10305000780000207C0000208000002074FE000822
:1030600090B5A3B004AF03460A46FB801346BB806D
:103070004FF6FF70FEF7DEFF454B5B689AB2454B9B
:103080001B689BB21F21009100210020FFF704F86C
:1030900001230293102301931F2300934FF47843DD
:1030A0003D4A05210020FFF7A9FB3C4A07F13C03FC
:1030B00092E8030018600433197007F141032D22D0
:1030C0000021184608F000FA354B1B881846FFF718
:1030D000D3FE786707F13C03796F184608F09EFA33
:1030E000304B1B6898B2304B1B6899B207F13C0219
:1030F00001230293102301934FF6FF7300934FF4C3
:103100007843FFF77BFB294A07F1080392E80300A5
:1031100083E8030007F110032A220021184608F073
:10312000D3F90020FFF7A8FE386707F10803396FCD
:10313000184608F073FA1E4B1B6898B21D4B1B68AB
:103140009BB2053399B207F10802012302931023C1
:1031500001934FF6FF7300934FF47843FFF74EFB54
:1031600003F0E2FB144B1B6898B2144B1B6899B236
:10317000134B1B689AB2134B1B689BB2124C009402
:10318000FFF762F9FFF790FE00BF7C37BD4690BDA8
:10319000180000202800002050CB0008E8CA0008D2
:1031A0003001002064000020680000201CCB0008D3
:1031B0006C000020700000207400002078000020C7
:1031C0007C0000208000002074FE000890B5A3B0B1
:1031D00004AF03460A46FB801346BB804FF6FF70E0
:1031E000FEF728FF454B5B689AB2454B1B689BB2C4
:1031F0001F21009100210020FEF74EFF01230293C2
:10320000102301931F2300934FF478433D4A052177
:103210000020FFF7F3FA3C4A07F13C0392E8030071
:1032200018600433197007F141032D22002118465C
:1032300008F04AF9354B1B881846FFF71DFE7867E2
:1032400007F13C03796F184608F0E8F9304B1B682A
:1032500098B2304B1B6899B207F13C0201230293EC
:10326000102301934FF6FF7300934FF47843FFF759
:10327000C5FA294A07F1080392E8030083E803002E
:1032800007F110032A220021184608F01DF900203A
:10329000FFF7F2FD386707F10803396F184608F0A9
:1032A000BDF91E4B1B6898B21D4B1B689BB20533C2
:1032B00099B207F1080201230293102301934FF6FC
:1032C000FF7300934FF47843FFF798FA03F02CFB59
:1032D000144B1B6898B2144B1B6899B2134B1B68B4
:1032E0009AB2134B1B689BB2124C0094FFF7ACF8D8
:1032F000FFF7DAFD00BF7C37BD4690BD1800002007
:103300002800002060CB0008E8CA00083001002037
:1033100064000020680000201CCB00086C00002026
:103320007000002074000020780000207C00002045
:103330008000002074FE000880B594B004AF344BC8
:103340001B68032B2AD1334A3B1D92E8030083E814
:10335000030007F10C032A220021184608F0B4F8F4
:103360002D4B1B881846FFF787FDF8633B1DF96B53
:10337000184608F053F9294B1B6898B2284B1B6874
:103380009BB2053399B23A1D002302931023019397
:103390001F2300934FF47843FFF730FA1C4B1B6850
:1033A000042B03D01A4B1B68052B2CD1194A3B1D4B
:1033B00092E8030083E8030007F10C032A220021AE
:1033C000184608F081F8144B1B881846FFF754FD87
:1033D000B8633B1DB96B184608F020F90F4B1B680A
:1033E00098B20F4B1B689BB2053399B23A1D00236C
:1033F0000293102301931F2300934FF47843FFF7A8
:10340000FDF903F091FA00BF4037BD4680BD00BF13
:10341000440100201CCB0008320100206C00002079
:103420007000002090B583B002AF8F4B9B69032BD7
:1034300000F2148101A252F823F000BFD535000834
:1034400055350008CD3400084D340008864BDB6A42
:1034500098B2854B1B6B99B2834BDB6A9BB20933E5
:103460009AB2814B1B6B9BB209339BB24FF47844E9
:103470000094FEF711FE7C4BDB6A98B27A4B1B6B13
:1034800099B2794BDB6A9BB204339AB2764B1B6BD1
:103490009BB204339BB200240094FEF7FDFD724BF7
:1034A000DB6A9BB2053398B26F4B1B6B99B26E4BC4
:1034B000DB6A9BB209339AB26B4B1B6B9BB2043332
:1034C0009BB200240094FEF7E7FDC8E0664BDB6A80
:1034D00098B2654B1B6B99B2634BDB6A9BB20933A5
:1034E0009AB2614B1B6B9BB209339BB24FF4784489
:1034F0000094FEF7D1FD5C4BDB6A98B25A4B1B6B14
:103500009BB2053399B2584BDB6A9BB204339AB233
:10351000554B1B6B9BB209339BB200240094FEF702
:10352000BBFD514BDB6A9BB2053398B24E4B1B6B14
:103530009BB2053399B24C4BDB6A9BB209339AB20A
:10354000494B1B6B9BB209339BB200240094FEF7DE
:10355000A3FD84E0444BDB6A98B2434B1B6B99B2EA
:10356000414BDB6A9BB209339AB23F4B1B6B9BB258
:1035700009339BB24FF478440094FEF78DFD3A4B2B
:10358000DB6A98B2384B1B6B99B2374BDB6A9BB244
:1035900004339AB2344B1B6B9BB204339BB20024AE
:1035A0000094FEF779FD304BDB6A98B22E4B1B6B13
:1035B0009BB2053399B22C4BDB6A9BB204339AB2AF
:1035C000294B1B6B9BB209339BB200240094FEF77E
:1035D00063FD44E0244BDB6A98B2234B1B6B99B22A
:1035E000214BDB6A9BB209339AB21F4B1B6B9BB218
:1035F00009339BB24FF478440094FEF74DFD1A4B0B
:10360000DB6A9BB2053398B2174B1B6B99B2164B12
:10361000DB6A9BB209339AB2134B1B6B9BB2043328
:103620009BB200240094FEF737FD0F4BDB6A9BB280
:10363000053398B20C4B1B6B9BB2053399B20A4B06
:10364000DB6A9BB209339AB2074B1B6B9BB20933FF
:103650009BB200240094FEF71FFD00E000BF00BFF6
:103660000437BD4690BD00BF9C1A002090B589B0BC
:1036700002AF584B9B6A002B40F0A780554B9B69CB
:10368000002B03D1534B5B6898479FE0514B0122BD
:103690009A6100237B6191E07B69002B28D14D4A20
:1036A0007B690533DB00134407F10C02043393E814
:1036B000030082E80300474A7B690533DB001344BB
:1036C0005B68A3F10A0243497B690533DB000B44C5
:1036D0005A60404A7B690533DB0013449A683D49D0
:1036E0007B690533DB000B449A60FFF79BFE62E0C9
:1036F000384A7B690533DB0013443A1D043393E8F1
:10370000030082E80300334A7B690533DB0013447E
:10371000043307F10C0292E8030083E8030007F189
:103720000C033A1D92E8030083E803007B69012B38
:1037300023D1284A7B690533DB0013445B6898B2C8
:10374000244A7B690533DB0013449B6899B2214A04
:103750007B690533DB0013445B689BB209339AB283
:103760001C4C7B690533DB0023449B689BB2093307
:103770009BB200240094FEF78FFC164B5B6A013B62
:103780007A699A4217D1134B1C333A1D92E8030011
:1037900083E803007B6898B2BB6899B27B689BB2F0
:1037A00009339AB2BB689BB209339BB24FF6FF74E0
:1037B0000094FEF771FC7B6901337B61054B5B6A0A
:1037C0007A699A42FFF668AF00E000BF00BF1C377D
:1037D000BD4690BD9C1A002090B589B002AF584BF1
:1037E0009B6A002B40F0A780554B9B69012B03D1AE
:1037F000534B1B6898479FE0514B00229A6100236E
:103800007B6191E07B69002B28D14D4A7B690533B0
:10381000DB00134407F10C02043393E8030082E851
:103820000300474A7B690533DB0013445B6803F1FF
:103830000A0243497B690533DB000B445A60404A66
:103840007B690533DB0013449A683D497B69053386
:10385000DB000B449A60FFF7E5FD62E0384A7B69C4
:103860000533DB0013443A1D043393E8030082E878
:103870000300334A7B690533DB001344043307F14B
:103880000C0292E8030083E8030007F10C033A1DE1
:1038900092E8030083E803007B69012B23D1284AC7
:1038A0007B690533DB0013445B6898B2244A7B696B
:1038B0000533DB0013449B6899B2214A7B690533C9
:1038C000DB0013445B689BB209339AB21C4C7B69E2
:1038D0000533DB0023449B689BB209339BB2002471
:1038E0000094FEF7D9FB164B5B6A013B7A699A425A
:1038F00017D1134B1C333A1D92E8030083E80300F1
:103900007B6898B2BB6899B27B689BB209339AB264
:10391000BB689BB209339BB24FF6FF740094FEF76D
:10392000BBFB7B6901337B61054B5B6A7A699A4219
:10393000FFF668AF00E000BF00BF1C37BD4690BD7A
:103940009C1A002090B589B002AF584B9B6A002B9F
:1039500040F0A780554B9B69022B03D1534BDB688A
:1039600098479FE0514B03229A6100237B6191E0CD
:103970007B69002B28D14D4A7B690533DB0013445A
:1039800007F10C02043393E8030082E80300474A7E
:103990007B690533DB0013445A6844497B6905336E
:1039A000DB000B445A60414A7B690533DB0013445A
:1039B0009B68A3F10A023D497B690533DB000B4498
:1039C0009A60FFF72FFD62E0384A7B690533DB0020
:1039D00013443A1D043393E8030082E80300334A9A
:1039E0007B690533DB001344043307F10C0292E8D2
:1039F000030083E8030007F10C033A1D92E803007B
:103A000083E803007B69012B23D1284A7B690533B6
:103A1000DB0013445B6898B2244A7B690533DB0002
:103A200013449B6899B2214A7B690533DB00134438
:103A30005B689BB209339AB21C4C7B690533DB008F
:103A400023449B689BB209339BB200240094FEF789
:103A500023FB164B5B6A013B7A699A4217D1134BE1
:103A60001C333A1D92E8030083E803007B6898B298
:103A7000BB6899B27B689BB209339AB2BB689BB2B0
:103A800009339BB24FF6FF740094FEF705FB7B6988
:103A900001337B61054B5B6A7A699A42FFF668AF36
:103AA00000E000BF00BF1C37BD4690BD9C1A00203F
:103AB00090B589B002AF584B9B6A002B40F0A780AD
:103AC000554B9B69032B03D1534B9B6898479FE051
:103AD000514B02229A6100237B6191E07B69002BAC
:103AE00028D14D4A7B690533DB00134407F10C02F2
:103AF000043393E8030082E80300474A7B690533F7
:103B0000DB0013445A6844497B690533DB000B44EE
:103B10005A60414A7B690533DB0013449B6803F11B
:103B20000A023D497B690533DB000B449A60FFF7CD
:103B300079FC62E0384A7B690533DB0013443A1DA7
:103B4000043393E8030082E80300334A7B690533BA
:103B5000DB001344043307F10C0292E8030083E80E
:103B6000030007F10C033A1D92E8030083E8030009
:103B70007B69012B23D1284A7B690533DB00134481
:103B80005B6898B2244A7B690533DB0013449B6869
:103B900099B2214A7B690533DB0013445B689BB211
:103BA00009339AB21C4C7B690533DB0023449B68C4
:103BB0009BB209339BB200240094FEF76DFA164BBA
:103BC0005B6A013B7A699A4217D1134B1C333A1D49
:103BD00092E8030083E803007B6898B2BB6899B25F
:103BE0007B689BB209339AB2BB689BB209339BB224
:103BF0004FF6FF740094FEF74FFA7B6901337B6147
:103C0000054B5B6A7A699A42FFF668AF00E000BF35
:103C100000BF1C37BD4690BD9C1A002090B587B0F0
:103C200002AF02F049FF754B1B689AB2744B1B68D8
:103C30009BB2134499B24FF6FF7300934FF4A073F5
:103C4000F0220020FEF728FA0023FB602CE0FB683E
:103C5000002B02D1FFF7E6FB23E06A4AFB6805333D
:103C6000DB0013445B6898B2664AFB680533DB00EF
:103C700013449B6899B2634AFB680533DB00134425
:103C80005B689BB209339AB25E4CFB680533DB007C
:103C900023449B689BB209339BB200240094FEF737
:103CA000FBF9FB680133FB60564B5B6AFA689A428A
:103CB000CDDB0023BB607EE05349BA6813465B004E
:103CC00013449B000B441B687B604F49BA68134642
:103CD0005B0013449B000B4404331B683B607B6810
:103CE00098B23B6899B27B689BB209339AB23B6841
:103CF0009BB209339BB24BF640440094FEF7CCF9DB
:103D00004149BA6813465B0013449B000B440833D7
:103D10001B68012B26D17B6898B23B689BB20A33A3
:103D200099B27B689BB209339AB23B689BB213335A
:103D30009BB24BF640440094FEF7AEF97B6898B214
:103D40003B689BB20A3B99B27B689BB209339AB23B
:103D50003B689BB2013B9BB24BF640440094FEF79C
:103D60009BF925E07B689BB20A3398B23B6899B215
:103D70007B689BB213339AB23B689BB209339BB208
:103D80004BF640440094FEF787F97B689BB20A3BF0
:103D900098B23B6899B27B689BB2013B9AB23B6890
:103DA0009BB209339BB24BF640440094FEF774F982
:103DB000BB680133BB60144B03F5BB5310331B6866
:103DC000BA689A42FFF678AF104B1B6898B2104B56
:103DD0001B6899B20D4B1B689BB209339AB20C4B0E
:103DE0001B689BB209339BB240F2CF140094FEF7DC
:103DF00053F900BF1437BD4690BD00BF2800002016
:103E0000380000209C1A002020030020940000208D
:103E10009800002080B400AF0C4BDB6A002B0CDB59
:103E20000A4BDB6AE62B08DC084B1B6B452B04DDD9
:103E3000064B1B6BB3F59C7F01DD012300E00023E3
:103E40001846BD465DF8047B704700BF9C1A0020F1
:103E500080B483B000AF01237B6018E0124BDA6AB4
:103E600011497B680533DB000B445B689A420BD138
:103E70000D4B1A6B0C497B680533DB000B449B68C8
:103E80009A4201D1012308E07B6801337B60064B35
:103E90005B6A7A689A42E1DB002318460C37BD461C
:103EA0005DF8047B704700BF9C1A002080B400AF0F
:103EB000094BDA6A094B1B689A4207D1064B1A6B09
:103EC000074B1B689A4201D1012300E000231846EA
:103ED000BD465DF8047B70479C1A002094000020CA
:103EE0009800002080B483B000AF00237B6079E0AD
:103EF00044497A6813465B0013449B000B44083323
:103F00001B68012B36D1404B196B3E487A6813462B
:103F10005B0013449B00034404331B680A3B994233
:103F20001AD0394B196B37487A6813465B00134433
:103F30009B00034404331B680A3399420CD0324B74
:103F4000196B30487A6813465B0013449B000344A6
:103F500004331B68994242D12B4BD96A29487A68AD
:103F600013465B0013449B0003441B68994236D1FF
:103F7000012341E0244BD96A22487A6813465B004A
:103F800013449B0003441B680A33994218D01E4B0C
:103F9000D96A1C487A6813465B0013449B000344AB
:103FA0001B680A3B99420BD0174BD96A15487A68AF
:103FB00013465B0013449B0003441B6899420ED1D7
:103FC000114B196B0F487A6813465B0013449B0032
:103FD000034404331B68994201D101230CE07B6840
:103FE00001337B60074B03F5BB5310331B687A68C2
:103FF0009A42FFF67DAF002318460C37BD465DF8A8
:10400000047B7047200300209C1A002090B585B0E7
:1040100002AFFFF7FFFE0346002B03D00320FDF79E
:1040200033FD65E0FFF714FF0346002B03D00220A9
:10403000FDF72AFD5CE0FFF755FF0346002B03D098
:104040000020FDF721FD53E0FFF730FF0346002B72
:104050004ED0294B4FF000421A60284B4FF00042DF
:104060001A60274B5B6A0133254A5362244B5B6A13
:10407000013B234AD26922490533DB000B445A60D5
:104080001F4B5B6A013B1E4A126A1D490533DB0068
:104090000B449A601A4B5B6A013B194A0533DB00FB
:1040A00013445B687B60164B5B6A013B144A053323
:1040B000DB0013449B683B607B6898B23B6899B215
:1040C0007B689BB209339AB23B689BB209339BB2BF
:1040D00000240094FDF7E0FF0A4B01221A600A4B0E
:1040E0001B8801339AB2084B1A80FFF725F900BFED
:1040F0000C37BD4690BD00BF940000209800002002
:104100009C1A00209C0000203201002080B500AFE6
:10411000114B9B69032B1BD801A252F823F000BF5F
:104120004141000849410008314100083941000877
:10413000094BDB6898470CE0074B9B68984708E001
:10414000054B5B68984704E0034B1B68984700E009
:1041500000BF00BF80BD00BF9C1A002080B483B0A8
:1041600000AF00237B601FE01D497A6813465B00A7
:1041700013449B000B4400221A6019497A681346C5
:104180005B0013449B000B44043300221A60144963
:104190007A6813465B0013449B000B4408330022EB
:1041A0001A607B6801337B607B68B3F5FA7FDBDBE9
:1041B0000B4B03F5BB53103300221A60084B03F579
:1041C000BB53143301221A60054B03F5BB5318335C
:1041D00000221A6000BF0C37BD465DF8047B7047B3
:1041E0002003002080B582B002AF474B1B88002B14
:1041F00009D0454B00221A80444B9B689847434B9B
:104200005B6998477DE0404B5B88002B09D03E4BB3
:1042100000225A803D4B1B6898473C4B5B6998478E
:104220006FE0394B9B88002B25D0374B00229A80BA
:10423000364B9B6A002B0CBF01230023DBB21A46CE
:10424000324B9A62324B03F5BB5318331B68002B79
:104250000CBF01230023DBB21A462D4B03F5BB53E1
:1042600018331A60294B9B6A184601F0F7FF034682
:10427000264A936245E0244BDB88002B09D0224B71
:104280000022DA80214B5B689847204B5B69984796
:1042900037E01D4B1B89002B1FD01B4B00221A81BE
:1042A0004FF6FF70FDF7C6FE1A4B4FF000421A6042
:1042B000194B4FF000421A6000F032F8FFF74EFF42
:1042C0004FF4784300934623F02200210020FDF7AD
:1042D000E3FE124B01221A6013E00B4B5B89002BAB
:1042E00009D0094B00225A81084BDB689847074BDD
:1042F0005B69984705E0054B1B699847034B5B6971
:10430000984700BFBD4680BD5C0200209C1A00207B
:104310002003002094000020980000209C00002032
:1043200090B585B002AF454B1B68184607F0D4F82E
:10433000424B1B680133414A1360414B01221A6012
:10434000404B00229A623F4B1422DA623D4B4622D8
:104350001A633C4B0A225A633A4B46229A63394B02
:104360000022DA63374B46221A6403237B6010E095
:10437000344A7B680533DB00134400225A60314A1B
:104380007B680533DB00134400229A607B680133AD
:104390007B607B68B3F5FA7FEADB2A4B2A4ADA6056
:1043A000284B2A4A1A60274B294A9A60254B294AEA
:1043B0005A60244B284A1A61224B284A5A61214BE1
:1043C00003225A621F4B00229A6100233B602CE0BB
:1043D0003B68002B02D1FFF725F823E0194A3B6820
:1043E0000533DB0013445B6898B2164A3B6805331B
:1043F000DB0013449B6899B2124A3B680533DB002B
:1044000013445B689BB209339AB20E4C3B68053388
:10441000DB0023449B689BB209339BB200240094C9
:10442000FDF73AFE3B6801333B603B68022BCFDD72
:1044300000BF00BF0C37BD4690BD00BF700100201B
:104440009C0000209C1A0020B13A00086D3600083C
:1044500045390008D93700080D4100080D40000813
:1044600090B587B002AF894B1B68012B40F00981E2
:104470000023FB6007F05EF80146854B83FB0123B8
:104480009A10CB17D21A13465B001344DB00CA1AEA
:1044900013469B0013445B001A467E4B1A6007F0DC
:1044A00049F801467C4B83FB0123DA10CB17D21A63
:1044B00013469B0013449A001344CA1A073213464A
:1044C0009B0013445B001A46744B1A600023BB60C8
:1044D00021E0734ABB680533DB0013445A686D4B17
:1044E0001B689A4214D16E4ABB680533DB00134443
:1044F0009A686A4B1B689A420AD1664B4FF0004299
:104500001A60664B4FF000421A600123FB6007E01F
:10451000BB680133BB60624B5B6ABA689A42D8DB06
:10452000FB68002B40F0A98000237B607FE05D49A1
:104530007A6813465B0013449B000B4408331B68E6
:10454000012B39D157497A6813465B0013449B000D
:104550000B4404331A68514B1B689A421DD05149D1
:104560007A6813465B0013449B000B4404331B68BA
:1045700003F10A02494B1B689A420ED049497A68F6
:1045800013465B0013449B000B4404331B68A3F1E8
:104590000A02424B1B689A4246D142497A68134646
:1045A0005B0013449B000B441A683A4B1B689A4209
:1045B0003AD10123FB6043E03A497A6813465B0035
:1045C00013449B000B441A68324B1B689A421BD061
:1045D00034497A6813465B0013449B000B441B6804
:1045E00003F10A022B4B1B689A420DD02D497A68C1
:1045F00013465B0013449B000B441B68A3F10A02A3
:10460000244B1B689A420FD126497A6813465B00F7
:1046100013449B000B4404331A68204B1B689A42D6
:1046200002D10123FB600BE07B6801337B601D4BF3
:1046300003F5BB5310331B687A689A42FFF677AFD5
:10464000FB68002B1BD1134B1B6898B2134B1B68E4
:1046500099B2104B1B689BB209339AB20F4B1B687F
:104660009BB209339BB240F2CF140094FDF714FDC6
:10467000064B00221A6000BF03E000BFF8E600BF4F
:10468000F6E600BF1437BD4690BD00BF9C00002079
:10469000ABAAAA2A940000201F85EB5198000020A5
:1046A0009C1A00202003002090B58DB002AF9C4BD7
:1046B00003F5BB5310331B689A4A1288934280F269
:1046C000DD82974B03F5BB5318331B68002B40F07A
:1046D000D68200237B6206F02DFF0246924B83FBBD
:1046E00002139910D317CB1A162101FB03F3D31A27
:1046F0005A1C13469B0013445B00BB6106F01AFF73
:1047000001468A4B83FB01230B441A11CB17D21AA3
:1047100013465B001344DB009B1ACA1A0832134687
:104720009B0013445B007B6100233B62E8E07C4913
:104730003A6A13465B0013449B000B441B683B61C1
:1047400077493A6A13465B0013449B000B440433D9
:104750001B68FB60724B03F5BB5314331B68012BC2
:1047600066D16F493A6A13465B0013449B000B44C1
:1047700008331B68012B20D1FB68143B7A699A42ED
:1047800013D0FB6814337A699A420ED0FB680A3B57
:104790007A699A4209D0FB680A337A699A4204D04E
:1047A000FA687B699A4240F0A8803A69BB699A42EC
:1047B00040F0A38001237B62ABE0FB680A3B7A698F
:1047C0009A4208D0FB680A337A699A4203D0FA68A1
:1047D0007B699A4203D13A69BB699A4225D0FB684A
:1047E0000A3B7A699A4208D0FB680A337A699A428E
:1047F00003D0FA687B699A4204D13B690A3BBA69E3
:104800009A4212D0FB680A3B7A699A4208D0FB6848
:104810000A337A699A4203D0FA687B699A426CD16A
:104820003B690A33BA699A4267D101237B6264E02B
:104830003B493A6A13465B0013449B000B44083320
:104840001B68012B3AD13B690A3BBA699A4208D0EE
:104850003B690A33BA699A4203D03A69BB699A4202
:1048600003D1FA687B699A4225D03B690A3BBA6951
:104870009A4208D03B690A33BA699A4203D03A692E
:10488000BB699A4204D1FB680A3B7A699A4212D00A
:104890003B690A3BBA699A4208D03B690A33BA6954
:1048A0009A4203D03A69BB699A4226D1FB680A331F
:1048B0007A699A4221D101237B622AE03B69143B49
:1048C000BA699A4212D03B691433BA699A420DD040
:1048D0003B690A33BA699A4208D03B690A3BBA6914
:1048E0009A4203D03A69BB699A4206D1FA687B6959
:1048F0009A4202D101237B620BE03B6A01333B62A7
:10490000074B03F5BB5310331B683A6A9A42FFF614
:104910000EAF7B6A002B40F0A7810023FB6149E0CA
:104920002003002034010020E9A28B2EC94216B2D8
:10493000A14AFB690533DB0013445B68BB609E4AF8
:10494000FB690533DB0013449B687B609B4B03F5DD
:10495000BB5314331B68012B14D1BA69BB689A424C
:1049600025D17A697B689A4209D07B690A3B7A68CB
:104970009A4204D07B690A337A689A4217D101239C
:104980007B621CE07A697B689A4210D1BA69BB6885
:104990009A4209D0BB690A3BBA689A4204D0BB6903
:1049A0000A33BA689A4202D101237B6207E0FB69AD
:1049B0000133FB61804B5B6AFA699A42B8DB7B6A20
:1049C000002B40F053817C4B9B69032B42D801A202
:1049D00052F823F0394A00081D4A0008014A00082D
:1049E000E5490008744BDB6ABA699A4234D1724BCC
:1049F0001B6B0A3B7A699A422ED101237B622BE022
:104A00006D4BDB6ABA699A4228D16B4B1B6B0A3338
:104A10007A699A4222D101237B621FE0664BDB6AEE
:104A20000A3BBA699A421BD1634B1B6B7A699A4263
:104A300016D101237B6213E05F4BDB6A0A33BA694C
:104A40009A420FD15C4B1B6B7A699A420AD10123BF
:104A50007B6207E000BF06E000BF04E000BF02E0A9
:104A600000BF00E000BF7B6A002B40F00181534B88
:104A700003F5BB5314331B68012B1AD1504B1B6831
:104A8000BA699A4230D14F4B1B687A699A4200F05A
:104A9000F1807B69A3F10A024A4B1B689A4200F03D
:104AA000E9807B6903F10A02464B1B689A421BD1DD
:104AB000E0E0444B1B687A699A4215D1404B1B6871
:104AC000BA699A4200F0D880BB69A3F10A023C4B54
:104AD0001B689A4200F0D080BB6903F10A02384B90
:104AE0001B689A4200F0C880344B03F5BB53103367
:104AF0001A68324913465B0013449B000B44BA69A1
:104B00001A602E4B03F5BB5310331A682B4913461A
:104B10005B0013449B000B4404337A691A60BB6941
:104B200098B27B6999B2BB699BB209339AB27B692F
:104B30009BB209339BB24BF640440094FDF7ACFAAC
:104B40001E4B03F5BB5314331B68012B3CD1BB69CF
:104B500098B27B699BB20A3399B2BB699BB20933A5
:104B60009AB27B699BB213339BB24BF640440094DC
:104B7000FDF792FABB6998B27B699BB20A3B99B286
:104B8000BB699BB209339AB27B699BB2013B9BB272
:104B90004BF640440094FDF77FFA084B03F5BB53F6
:104BA00010331A68054913465B0013449B000B44FD
:104BB000083301221A603BE09C1A002020030020E9
:104BC0009400002098000020BB699BB20A3398B281
:104BD0007B6999B2BB699BB213339AB27B699BB272
:104BE00009339BB24BF640440094FDF755FABB697C
:104BF0009BB20A3B98B27B6999B2BB699BB2013BFD
:104C00009AB27B699BB209339BB24BF64044009445
:104C1000FDF742FA1B4B03F5BB5310331A681949D1
:104C200013465B0013449B000B44083300221A60B8
:104C3000144B03F5BB5310331B685A1C114B03F57F
:104C4000BB5310331A600F4B03F5BB5314331B686F
:104C5000002B0CBF01230023DBB21A46094B03F5DE
:104C6000BB5314331A600AE000BF32E500BF30E5E1
:104C700000BF2EE500BF2CE500BF2AE500BF2C37A2
:104C8000BD4690BD2003002080B500AF024804F06F
:104C90004FFC00BF80BD00BF082B002080B483B054
:104CA00000AF0346FB80084AFB881380064B1A8836
:104CB000064B1A80064B00221A8000BF0C37BD46F7
:104CC0005DF8047B704700BF7E0100207C0100205E
:104CD0007A01002080B483B000AF0346FB80FB88DC
:104CE0004FF47A7202FB03F3074A1360064B1B680A
:104CF000064A1360064B00221A8000BF0C37BD46DF
:104D00005DF8047B704700BF88010020840100200B
:104D10008001002080B483B000AF0346FB80084AC6
:104D2000FB881380064B1A88064B1A80064B00221C
:104D30001A8000BF0C37BD465DF8047B704700BF8A
:104D4000900100208E0100208C01002080B483B0EF
:104D500000AF0346FB80084AFB881380064B1A8885
:104D6000064B1A80064B00221A8000BF0C37BD4646
:104D70005DF8047B704700BF96010020940100207D
:104D80009201002080B483B000AF0346FB80084A44
:104D9000FB881380064B1A88064B1A80064B0022AC
:104DA0001A8000BF0C37BD465DF8047B704700BF1A
:104DB0009C0100209A0100209801002080B483B05B
:104DC00000AF0346FB80084AFB881380064B1A8815
:104DD000064B1A80064B00221A8000BF0C37BD46D6
:104DE0005DF8047B704700BF780100207601002049
:104DF0007401002080B483B000AF0346FB80084AF2
:104E0000FB881380064B1A88064B1A80064B00223B
:104E10001A8000BF0C37BD465DF8047B704700BFA9
:104E2000A2010020A00100209E01002080B582B0D8
:104E300000AF78607B681B68B3F1804F40F08C80D6
:104E4000474B1B88002B10D0454B1B88013B9AB267
:104E5000434B1A80424B1B88002B06D1414B012249
:104E60001A80414B1A883E4B1A80404B1B88002BFE
:104E700010D03E4B1B88013B9AB23C4B1A803B4BF7
:104E80001B88002B06D13A4B01221A80394B1A8815
:104E9000364B1A80384B1B68002B0BD0364B1B68E7
:104EA000013B354A1360344B1B68002B02D1334B56
:104EB00001221A80324B1B88002B0CD0304B1B88F0
:104EC000013B9AB22E4B1A802D4B1B88002B02D12E
:104ED0002C4B01221A802C4B1B88002B10D02A4B04
:104EE0001B88013B9AB2284B1A80274B1B88002B4A
:104EF00006D1264B01221A80254B1A88224B1A8094
:104F0000244B1B88002B10D0224B1B88013B9AB2EC
:104F1000204B1A801F4B1B88002B06D11E4B0122F1
:104F20001A801E4B1A881B4B1A801D4B1B88002BA6
:104F300010D01B4B1B88013B9AB2194B1A80184B9F
:104F40001B88002B06D1174B01221A80164B1A889A
:104F5000134B1A80FDF7F4FC00BF0837BD4680BD37
:104F60007C0100207A0100207E01002076010020D3
:104F700074010020780100208401002080010020BD
:104F80008E0100208C01002094010020920100205D
:104F9000960100209A010020980100209C01002029
:104FA000A00100209E010020A201002080B500AFDA
:104FB000174B184A1A60164B4FF482725A60144B02
:104FC00000229A60124B0022DA60114B00221A6113
:104FD0000F4B00225A610E4B4FF400729A610C4B3A
:104FE0000022DA610A4B00221A62094B00225A623F
:104FF000074B00229A62064B0A22DA62044803F049
:105000006FFF0346002B01D0FDF7DEFE00BF80BD21
:10501000682A00200030014080B58AB000AF786077
:1050200007F1140300221A605A609A60DA601A616C
:105030007B681B68194A93422BD100233B61184BB4
:105040005B6C174A43F480535364154B5B6C03F459
:1050500080533B613B690023FB60114B1B6B104A83
:1050600043F0020313630E4B1B6B03F00203FB6060
:10507000FB6838237B610223BB610023FB610323B0
:105080003B6205237B6207F114031946054803F0D0
:10509000E5F800BF2837BD4680BD00BF00300140A5
:1050A000003802400004024090B593B004AF0023E2
:1050B0003B603B1D2E220021184606F005FA002019
:1050C000FCF7B8FF324B1B6898B2324B1B6899B2A1
:1050D000314B1B689AB2314B1B689BB2304C009429
:1050E000FDF7B2F9002302931823019348F23043ED
:1050F00000934FF6FF732B4A37213C20FDF77EFBD0
:10510000002302931823019348F2304300934FF693
:10511000FF73254A64212820FDF770FB4FF6FF73CB
:105120000093B423B42296213C20FDF786F81F4B50
:105130001B881846FDF7A0FE78633B46796B18463E
:1051400006F06CFA3A4601230293182301934FF4B8
:10515000784300934FF6FF7398210020FDF7B2FBD0
:10516000002302931823019348F2304300934FF633
:10517000FF730F4AE6215020FDF740FB0023002279
:105180000021002001F0AEFB00BF3C37BD4690BDC2
:1051900074000020780000207C00002080000020A7
:1051A00074FE000870CB000880CB0008300100209E
:1051B00090CB000880B582B002AF0023009340F28C
:1051C0004B13DD22BE21B420FCF766FF00BFBD46B5
:1051D00080BD000090B583B002AFFFF7EBFF234B1B
:1051E0001B6898B2224B1B6899B2224B1B689AB27B
:1051F000214B1B689BB24FF6FF740094FCF799FF9C
:105200001C4B1B6898B21C4B1B6899B2174B1B6850
:105210009CB2194B1B689BB25B009AB2144B1B6883
:105220009BB2D31A9BB24FF6FF7200922246FCF754
:1052300080FF0E4B1B6898B20D4B1B6899B20B4B4D
:105240001B689CB20C4B1B689BB25B009AB2084B6C
:105250001B689BB2D31A9BB24FF6FF720092224694
:10526000FCF767FF00BF0437BD4690BD0800002073
:1052700010000020040000200C00002080B584B045
:1052800004AFC04BDB88012B17D1BF4B01221A6042
:10529000BE4B1B68052B09D0052B11DC032B0ED050
:1052A000042B0DD1B94B03221A6009E0B74B04223D
:1052B0001A60B74B00221A6002E000BF00E000BF96
:1052C000B04BDB89012B18D1AF4B01221A60AF4BD9
:1052D0001B68052B13D0052B12DC032B02D0042BEB
:1052E00007D00DE0A94B04221A60A94B01221A60D5
:1052F00006E0A64B05221A6002E000BF00E000BFF6
:10530000A14B1B68012B40F03A81A04B1B68052B79
:1053100000F0E980052B00F32F81032B02D0042B32
:105320004FD029E19B4BD2221A609B4BBE221A60C0
:10533000002300934FF4A073F022B4210020FCF767
:10534000ABFE002302931823019348F230430093ED
:105350004FF47843914AC8210A20FDF74FFA002301
:1053600002931823019348F2304300934FF6FF73E2
:105370008B4AFA210A20FDF741FA4FF6FF7300939A
:105380004FF4967382224FF496716E20FCF7D1FE93
:105390004FF6FF7300934FF49B7378224FF496718E
:1053A0006E20FCF7C6FE4FF6FF7300934FF4967322
:1053B00082224FF49B717820FCF7BBFEFFF70AFFB7
:1053C000DAE0002300934FF4A073F022B421002010
:1053D000FCF762FE6E4B1B68002B3DD16D4BD22259
:1053E0001A606D4BBE221A600023029318230193AA
:1053F00048F2304300934FF47843694AC8210A20A9
:10540000FDF7FCF9002302931823019348F230437F
:1054100000934FF6FF73634AFA210A20FDF7EEF975
:105420004FF6FF730093BE238222BE216E20FCF74D
:1054300080FE4FF6FF730093B4237822BE216E20C6
:10544000FCF777FE4FF6FF730093BE238222B42150
:105450007820FCF76EFE43E04E4B4FF482721A60E8
:105460004D4BF0221A60002302931823019348F257
:10547000304300934FF6FF73484AC8210A20FDF7D6
:10548000BDF9002302931823019348F2304300939F
:105490004FF47843424AFA210A20FDF7AFF94FF65C
:1054A000FF7300934FF4967382224FF496716E202F
:1054B000FCF73FFE4FF6FF7300934FF49B73782287
:1054C0004FF496716E20FCF734FE4FF6FF73009395
:1054D0004FF4967382224FF49B717820FCF729FEDB
:1054E000FFF778FE48E02B4B4FF482721A602A4B8C
:1054F000F0221A60002300934FF4A073F022B4212D
:105500000020FCF7C9FD002302931823019348F201
:10551000304300934FF6FF73214AC8210A20FDF75C
:105520006DF9002302931823019348F2304300934E
:105530004FF478431B4AFA210A20FDF75FF94FF632
:10554000FF730093BE238222BE216E20FCF7F1FD83
:105550004FF6FF730093B4237822BE216E20FCF730
:10556000E8FD4FF6FF730093BE238222B42178201A
:10557000FCF7DFFDFFF72EFE034B00221A6000BF91
:10558000BD4680BD680200204001002014000020BC
:105590003C0100200C0000201000002098CB0008E7
:1055A000A8CB0008B8CB000890B595B004AF03466F
:1055B000FB800020FCF73EFD4E4B1B6898B24E4B23
:1055C0001B6899B24D4B1B689AB24D4B1B689BB23E
:1055D0004C4C0094FCF738FF0023029318230193EE
:1055E00048F2304300934FF6FF73474A37213C207F
:1055F000FDF704F9454A07F1080392E80300186033
:105600000433198007F10E032C220021184605F0FF
:105610005BFFFB881846FDF72FFCF86307F10803D2
:10562000F96B184605F0FAFF07F108020023029310
:105630001823019348F2304300934FF6FF7364211F
:105640000020FDF73FF9002302931823019348F24D
:10565000304300934FF6FF732D4A96210020FDF74B
:1056600031F9002302931823019348F23043009349
:105670004FF47843274AC8210A20FDF7BFF80023DA
:1056800002931823019348F2304300934FF6FF73BF
:10569000214AFA210A20FDF7B1F8204BD2221A60E4
:1056A0001F4BBE221A60FFF795FD4FF6FF73009364
:1056B0004FF4967382224FF496716E20FCF739FDF9
:1056C0004FF6FF7300934FF49B7378224FF496715B
:1056D0006E20FCF72EFD4FF6FF7300934FF4967388
:1056E00082224FF49B717820FCF723FD00BF4437E2
:1056F000BD4690BD74000020780000207C00002092
:105700008000002074FE000870CB0008D0CB000899
:10571000C8CB000898CB0008A8CB00080C000020DC
:105720001000002080B594B004AF9D4B9B8B012BE3
:1057300040F0BC819B4B1B680A2B00F2B98101A28F
:1057400052F823F07157000897570008AF57000828
:10575000B15A0008B15A0008B15A0008CD590008E2
:10576000B15800082358000861580008415A000841
:105770008C4B01221A608C4B00221A808B4B00222A
:105780001A808B4B03221A608A4B40F2E7321A8050
:10579000FFF78AFC91E1884B00221A80814B02229C
:1057A0001A60814B1B881846FFF7FEFE85E1804B8F
:1057B0001B68052B28D0052B00F37C81032B02D01E
:1057C000042B15D076E17D4B03221A60754B032222
:1057D0001A60754B1B88754A128811461846FDF7EA
:1057E00087FB4FF47A70FFF7CDFAFEF799FD17E0CB
:1057F000724B04221A606F4B1E221A80694B0822DA
:105800001A6000F07BFF0BE06C4B05221A60694BBD
:105810001E221A80634B09221A60FAF7CBFF00BFE1
:1058200048E1644B1B881846FFF754FA4FF47A702E
:10583000FFF770FA5F4B1A88614B1A80594B0422AC
:105840001A60594B1B885B4A128811461846FDF7AF
:1058500007FC4FF47A70FFF795FAFEF761FD2CE133
:10586000544B1B881846FFF735FA4FF47A70FFF750
:1058700051FA4FF4FA60FFF769FA524B00221A808E
:105880004C4B1A884E4B1A80464B05221A60464BE9
:105890001B88484A128811461846FDF797FC4FF4BA
:1058A0007A70FFF76FFAFEF759FCFEF739FD04E155
:1058B000454B1B68002B5FD1404B1B68394A136076
:1058C0003A4B00221A80374B1B68052B30D0052B32
:1058D00000F3F280032B02D0042B0ED0ECE0374B08
:1058E00003221A60304B1B88304A12881146184632
:1058F000FDF7FEFAFEF714FD51E0304B04221A606A
:105900002F4B1A882B4B1A802A4B1B881846FFF7FF
:10591000E1F94FF47A70FFF7FDF9234B1B88254A14
:10592000128811461846FDF79BFBFEF7F9FC36E09E
:10593000224B05221A60224B1A881E4B1A801D4BDF
:105940001B881846FFF7C6F94FF47A70FFF7E2F9A3
:105950004FF4FA60FFF7FAF91A4B00221A80124B43
:105960001B88144A128811461846FDF72FFCFEF7D3
:10597000D7FCFEF7F3FB12E00A4B01221A600A4B38
:1059800000221A80094B00221A80094B03221A6058
:10599000084B40F2E7321A80FFF786FB8CE08BE081
:1059A0006802002044010020300100203201002064
:1059B00014000020000000205C01002048010020AD
:1059C000580100209201002038010020AF4B1B68D5
:1059D000022B22D1AE4B1B68AE4A13604FF47A7093
:1059E000FFF7D0F9AB4B1B68042B03D0A94B1B6806
:1059F000052B0FD1A84B1B881846FFF76BF94FF406
:105A00007A70FFF787F94FF4FA60FFF79FF9A34B1D
:105A100000221A80FEF702F94FE09E4B01221A6025
:105A20009F4B00221A809F4B00221A809E4B03221C
:105A30001A60994B40F2E7321A80FFF735FB3CE0E1
:105A40009A4B1B68032B12D1924B01221A60944B84
:105A500000221A80934B00221A80934B03221A6073
:105A60008D4B40F2E7321A80FFF71EFB20E0884B97
:105A70001B68884A1360874B1B68042B03D0854B37
:105A80001B68052B0FD1844B1B881846FFF722F9A2
:105A90004FF47A70FFF73EF94FF4FA60FFF756F9CA
:105AA0007E4B00221A80FEF7B9F801E000BF04E047
:105AB00000BF02E000BF00E000BF764B1B68012B77
:105AC00040F05F8100237B6007F108032E22002154
:105AD000184605F0F9FC724B1B88FB870023BB8737
