:020000040800F2
:100000000000022095610008E9550008EF5500083E
:10001000F5550008FB5500080156000800000000D7
:10002000000000000000000000000000075600086B
:10003000155600080000000023560008315600083D
:10004000E5610008E5610008E5610008E561000878
:10005000E5610008E5610008E5610008E561000868
:10006000E5610008E5610008E5610008E561000858
:10007000E5610008E5610008E5610008E561000848
:10008000E5610008E5610008E5610008E561000838
:10009000E5610008E5610008E5610008E561000828
:1000A000E5610008E5610008E5610008E561000818
:1000B0003D560008E5610008E5610008E5610008BB
:1000C000E5610008E5610008E5610008E5610008F8
:1000D000E5610008E561000851560008E561000887
:1000E000E5610008E5610008E5610008E5610008D8
:1000F000E5610008E5610008E5610008E5610008C8
:10010000E5610008E5610008E5610008E5610008B7
:10011000E5610008E5610008E5610008E5610008A7
:10012000E5610008E5610008E5610008E561000897
:10013000E5610008E5610008E5610008E561000887
:10014000E5610008E5610008E5610008E561000877
:10015000E5610008E5610008E5610008E561000867
:10016000E5610008E5610008E5610008E561000857
:10017000E5610008E5610008E56100080000000095
:08018000E5610008E5610008DB
:1001900010B5054C237833B9044B13B10448AFF3C1
:1001A00000800123237010BD10010020000000001A
:1001B000C8AD000808B5034B1BB103490348AFF3B2
:1001C000008008BD0000000014010020C8AD000838
:1001D000034613F8012B002AFBD1181A0138704787
:1001E00001F0FF01102A2BDB10F0070F08D010F8E8
:1001F000013B013A8B422DD010F0070F42B3F6D1EC
:10020000F0B441EA012141EA014122F007047FF004
:1002100000070023F0E80256083C85EA010586EA5B
:10022000010685FA47F5A3FA87F586FA47F6A5FA97
:1002300087F68EB9EED1F0BC01F0FF0102F00702A3
:1002400032B110F8013B013A83EA010313B1F8D14E
:100250000020704701387047002D06BF354603382F
:10026000073815F0010F07D1013015F4807F02BF68
:10027000013015F4C03F0130F0BC0138704700BFB9
:1002800053B94AB9002908BF00281CBF4FF0FF31FD
:100290004FF0FF3000F06EB9ADF1080C6DE904CEFF
:1002A00000F006F8DDF804E0DDE9022304B0704751
:1002B0002DE9F047089D04468C46002B40F08380D2
:1002C0008A42174647D9B2FA82F242B1C2F12000FF
:1002D00024FA00F09140974040EA010C94404FEA24
:1002E0001748230CBCFBF8F61FFA87FE08FB16C163
:1002F00043EA014306FB0EF1994209D9FB1806F1C6
:10030000FF3080F01981994240F21681023E3B4451
:100310005B1AA4B2B3FBF8F008FB103344EA0344C1
:1003200000FB0EFEA64509D93C1900F1FF3380F011
:100330000581A64540F2028102383C4440EA06406D
:10034000A4EB0E0400261DB1D4400023C5E90043F0
:100350003146BDE8F08702B9FFDEB2FA82F2002A28
:1003600050D1CB1B4FEA174E1FFA87F80126B3FB7B
:10037000FEFC210C0EFB1C3341EA034108FB0CF38D
:100380008B4207D979180CF1FF3002D28B4200F270
:10039000E9808446C91AA3B2B1FBFEF00EFB10112E
:1003A00043EA014408FB00F8A04507D93C1900F1D5
:1003B000FF3302D2A04500F2D9801846A4EB08040E
:1003C00040EA0C40BFE78B4209D9002D00F0B18014
:1003D0000026C5E9000130463146BDE8F087B3FA92
:1003E00083F6002E4AD18B4202D3824200F2B880BB
:1003F000841A61EB030101208C46002DA8D0C5E9C9
:10040000004CA5E7C2F1200320FA03F6974001FA59
:1004100002F04FEA174ED9403043030CB1FBFEF611
:100420001FFA87F80EFB161143EA014306FB08F199
:10043000994204FA02F409D9FB1806F1FF3C80F056
:100440008D80994240F28A80023E3B445B1A81B221
:10045000B3FBFEF00EFB103341EA034100FB08F34F
:100460008B4207D9791800F1FF3C73D28B4271D9C6
:1004700002383944CB1A40EA064678E7C6F1200C28
:1004800003FA06F422FA0CF31C4320FA0CF701FAE3
:1004900006F34FEA144E21FA0CF11F433B0CB1FB5B
:1004A000FEF91FFA84F80EFB191143EA014109FB1A
:1004B00008FA8A4502FA06F200FA06F308D961182A
:1004C00009F1FF3048D28A4546D9A9F102092144F1
:1004D000A1EB0A01BFB2B1FBFEF00EFB101147EA1F
:1004E000014700FB08F8B84507D9E71900F1FF31CB
:1004F0002ED2B8452CD90238274440EA0940A7EB50
:100500000807A0FB02894F45C64649461AD317D0B3
:100510005DB1B3EB0E0267EB010707FA0CFCF2408A
:100520004CEA0202F740C5E9002700263146BDE843
:10053000F0872E4628460BE70646E9E61846FDE614
:100540004345E5D2B8EB020E69EB04010138DFE761
:100550000846D2E760468DE78146B9E7664675E70B
:1005600030464AE7ACF1020C394413E702383C4408
:1005700024E700BF704700BF90B595B004AF0020DE
:1005800001F0F0F9B04B1B6898B2B04B1B6899B200
:10059000AF4B1B689AB2AF4B1B689BB2AE4C00943A
:1005A00001F0EAFB002302931823019348F2304341
:1005B00000934FF6FF73A94A37213C2001F0B6FDA6
:1005C000A74A3B4692E80300186004331980BB1D1C
:1005D0002C220021184609F0ABF9A24B1B881846C3
:1005E00002F0ACF80346FB633B46F96B184609F092
:1005F00049FA3A46002302931823019348F2304304
:1006000000934FF6FF736421002001F0F3FD0023F7
:1006100002931823019348F2304300934FF6FF737F
:10062000914A9621002001F0E5FD00230293182352
:10063000019348F2304300934FF6FF738B4AD72162
:10064000142001F073FD4FF6FF730093F023C822CE
:10065000D221962001F089FA854B1B88184602F0BA
:100660006DF80346BB63824B1B88772B0ED80123A2
:1006700002931823019348F2304300934FF6FF731F
:10068000BA6BD421A52001F051FD0DE001230293A6
:100690001823019348F2304300934FF6FF73BA6B6F
:1006A000D4219D2001F042FD714B1B88772B1AD875
:1006B0004FF6FF730093DC23E122DC21CD2001F013
:1006C000D0F94FF6FF730093D223D722DC21CD203F
:1006D00001F0C7F94FF6FF730093D223D722DC2134
:1006E000E12001F0BEF9624B1B881E2B1AD94FF690
:1006F000FF730093E623E122E621CD2001F0B1F95A
:100700004FF6FF730093F023D722E621CD2001F0AE
:10071000A8F94FF6FF730093F023D722E621E120DA
:1007200001F09FF9002302931823019348F230430C
:1007300000934FF6FF734F4A40F20911142001F065
:10074000F5FC4FF6FF7300934FF49173C8224FF4FA
:100750008271962001F009FA474B1B88184601F078
:10076000EDFF03467B63444B1B88092B0FD8012305
:1007700002931823019348F2304300934FF6FF731E
:100780007A6B40F20911AA2001F0D0FC0EE001239F
:1007900002931823019348F2304300934FF6FF73FE
:1007A0007A6B40F20911A52001F0C0FC324B1B8886
:1007B0001D2B20D84FF6FF7300934FF48773E1226F
:1007C0004FF48771CD2001F04CF94FF6FF73009381
:1007D0004FF48273D7224FF48771CD2001F041F995
:1007E0004FF6FF7300934FF48273D7224FF4877153
:1007F000E12001F036F9204B1B88002B20D04FF66A
:10080000FF7300934FF48C73E1224FF48C71CD2071
:1008100001F027F94FF6FF7300934FF49173D7223D
:100820004FF48C71CD2001F01CF94FF6FF7300934B
:100830004FF49173D7224FF48C71E12001F011F93C
:1008400000BF4437BD4690BD7400002078000020F2
:100850007C00002080000020F8DF0008E0AD0008E8
:1008600010AE000834010020F0AD000800AE000812
:100870000000002008AE00083801002080B500AF5D
:10088000234BDB88012B0ED1224B1B881E339AB2DF
:10089000204B1A801F4B1B88782B02D91D4B7822C6
:1008A0001A80FFF769FE1A4BDB89012B0ED1194B19
:1008B0001B881E3B9AB2174B1A80164B1B881D2BA8
:1008C00002D8144B1E221A80FFF756FE104BDB8A0B
:1008D000012B0ED1104B1B8805339AB20E4B1A8098
:1008E0000D4B1B881E2B02D90B4B1E221A80FFF7C3
:1008F00043FE074BDB8B012B07D1074B1B88053BC6
:100900009AB2054B1A80FFF737FE00BF80BD00BFCB
:10091000A8010020000000203801002080B582B02E
:1009200000AF012208210B4806F034F800237B6059
:1009300007E0094A7B68002122F813107B68013325
:100940007B607B68052BF4DD00BF00BF0837BD4628
:1009500080BD00BF000C02409C01002080B584B027
:1009600000AF00220821514806F014F801220821A6
:100970004E4806F00FF80A2302224D494D4806F072
:100980005CFE0023FB604FF400437B8100237B600F
:1009900083E07B68002B06DB7B68032B03DC7B6832
:1009A0000433FB6018E07B68032B07DD7B68072BB3
:1009B00004DC7B68C3F10703FB600DE07B68072B59
:1009C00006DD7B680B2B03DC7B680433FB6003E0F4
:1009D0007B68C3F11703FB60354B1A887B89134092
:1009E0009BB2002B05D0344AFB68002122F813107B
:1009F0004DE0314AFB6832F81330013399B22E4A88
:100A0000FB6822F81310FB68053B082B3ED801A2B7
:100A100052F823F0390A00088D0A00088D0A0008F0
:100A2000470A0008550A0008630A00088D0A0008F2
:100A3000710A00087F0A0008204B1B8801339AB214
:100A40001E4B1A8023E01D4B5B8801339AB21B4B6F
:100A50005A801CE0194B9B8801339AB2174B9A803D
:100A600015E0164BDB8801339AB2144BDA800EE0A6
:100A7000124B1B8901339AB2104B1A8107E00F4BBE
:100A80005B8901339AB20D4B5A8100E000BF7B892C
:100A90005B087B817B6801337B607B680F2B7FF772
:100AA00078AF00BF00BF1037BD4680BD000C0240CC
:100AB0002C0100209C290020A80100209C0100207E
:100AC00080B584B004AF2D4B1B689BB2053399B23F
:100AD0000023029310230193002300934FF6FF732A
:100AE000274A002001F086FB244B1B689BB214337D
:100AF00099B20023029310230193002300934FF631
:100B0000FF73204A002001F075FB1F4B1B689BB24E
:100B1000083398B2194B9A68184B1B681344DA0FC4
:100B200013445B109BB2143B99B201230293102330
:100B3000019348F2304300930023144A01F0F6FA7F
:100B4000114B1B689BB2083398B20C4B9A680B4B45
:100B50001B681344DA0F13445B109BB2193399B22C
:100B6000012302931023019348F2304300930023A2
:100B7000074A01F0DBFA00BFBD4680BD4C000020F3
:100B800044AE000850AE00083C0000205CAE0008F7
:100B900060AE000890B587B004AF584B9A68574BC9
:100BA0001B681344DA0F13445B10083B7B60534B04
:100BB0009A68524B1B681344DA0F13445B101C33C2
:100BC0003B604F4B1B68032B03D0042B00F0A2802B
:100BD00035E14C4B1B689AB24B4B1B689BB21344DC
:100BE00098B2464B1B689BB2233399B2454B5B6866
:100BF0009AB2454B1B689BB2D31A9AB23F4BDB6843
:100C00009BB2053B9BB248F23044009400F0DCFEFE
:100C10003C4B1B689BB2083398B2384B9A68374BF1
:100C20001B681344DA0F13445B109BB20F3B99B25D
:100C3000012302931023019348F2304300934FF4B1
:100C40007843324A01F072FA2E4B1B689BB208338C
:100C500098B22A4B9A68294B1B681344DA0F134445
:100C60005B109BB2143399B20123029310230193BA
:100C700048F2304300930023254A01F057FA214BF4
:100C80005B689BB20F3B98B27B6899B21D4B5B6867
:100C90009BB20A3B9AB27B689BB2053B9BB2002495
:100CA000009400F0DEFE174B5B689BB20F3B98B2DE
:100CB0007B6899B2134B5B689BB20A3B9AB27B6824
:100CC0009BB205339BB20024009400F0CAFE0D4B8A
:100CD0005B689BB20A3B98B27B689BB2053B99B2BA
:100CE000084B5B689BB20A3B9AB27B689BB20533A8
:100CF0009BB20024009400F0B4FEA0E04C00002061
:100D0000600000203C000020380000205CAE00089D
:100D100060AE00084C4B1B689AB24C4B1B689BB2F0
:100D2000134498B24A4B1B689BB2233399B2464B8B
:100D30005B689AB2454B1B689BB2D31A9AB2444B7C
:100D4000DB689BB2053B9BB248F23044009400F054
:100D50003BFE3D4B1B689BB2083398B23C4B9A68F4
:100D60003B4B1B681344DA0F13445B109BB20F3BE1
:100D700099B2012302931023019348F23043009368
:100D80000023344A01F0D2F92F4B1B689BB2083381
:100D900098B22F4B9A682E4B1B681344DA0F1344FA
:100DA0005B109BB2143399B2012302931023019379
:100DB00048F2304300934FF47843274A01F0B6F9E4
:100DC000214B5B689BB20F3B98B23B6899B21E4BBC
:100DD0005B689BB20A3B9AB23B689BB2053B9BB2F5
:100DE0000024009400F03DFE174B5B689BB20F3B64
:100DF00098B23B6899B2144B5B689BB20A3B9AB2BB
:100E00003B689BB205339BB20024009400F029FE9E
:100E10000D4B5B689BB20A3B98B23B689BB2053BAB
:100E200099B2094B5B689BB20A3B9AB23B689BB292
:100E300005339BB20024009400F013FE00BF00BFF6
:100E40000C37BD4690BD00BF3C000020380000209C
:100E50004C0000205CAE000860AE000880B500AF1A
:100E600000F01EF9FFF72CFEFFF794FE00BF80BDD7
:100E700080B500AF1B4B1B680A2B31D11A4BDB88A6
:100E8000012B0CD1194B01221A60194B1B68032B43
:100E900023D0042B04D1164B03221A6000E000BFBC
:100EA000114BDB89012B0DD1104B01221A60104B25
:100EB0001B68032B02D0042B11D004E00C4B04223E
:100EC0001A6000E000BF094B1B68012B08D1FFF737
:100ED000C5FF064B00221A6002E000BF00E000BF21
:100EE00080BD00BF48010020A8010020580100205B
:100EF0006000002080B500AFFFF7B0FF00BF80BDED
:100F000080B58EB000AF07F11C0300221A605A6052
:100F10009A60DA601A615A619A613B4600221A604F
:100F20005A609A60DA601A615A619A612F4B4FF0E9
:100F300020421A602D4B2E4A5A602C4B00229A6098
:100F40002A4B0022DA60294B00221A61274B10221B
:100F50005A61264B00229A61244B0022DA61234B0E
:100F600000221A62214B00225A62204B4FF4805219
:100F70009A621E4B0022DA621C4B4FF480421A63C5
:100F80001A4B00225A63194B00229A63174B002216
:100F90005A640F23FB610F233B623C237B620023D7
:100FA000BB621023FB6211233B6300237B63082396
:100FB0003B600F237B600923BB600023FB60102391
:100FC0003B6111237B610023BB613A4607F11C039F
:100FD0001946064806F014FF0346002B01D001F025
:100FE000A7FB00BF3837BD4680BD00BFC801002049
:100FF000040100A080B586B000AF3B1D00221A603E
:101000005A609A60DA601A611C4B1B68002B31D160
:101010001A4B01221A6000233B60194B9B6B184A44
:1010200043F001039363164B9B6B03F001033B609A
:101030003B684FF688737B600223BB600023FB6034
:1010400003233B610C237B613B1D19460D4805F0D2
:1010500005FB4CF2B3737B600223BB600023FB6093
:1010600003233B610C237B613B1D1946064805F0B9
:10107000F5FA00E000BF1837BD4680BD3001002002
:101080000038024000100240000C024080B582B0DF
:1010900000AF7860FFF7AEFF00BF0837BD4680BDE8
:1010A00090B583B002AF384B1B6898B2374B1B68C2
:1010B00099B2354BDB689CB2344BDB689AB2344B47
:1010C0001B689BB2D31A9BB248F230420092224670
:1010D00000F07AFC2C4B1B6898B22C4B1B6899B221
:1010E000294B5B689CB2294B5B689AB2284B1B6802
:1010F0009BB213449BB200220092224600F064FC93
:10110000214B1B6898B2214B1B6899B21E4B9B6800
:101110009AB21F4B1B689BB213449AB21B4B9B683D
:101120009BB20024009400F04FFC174B5B689AB20E
:10113000174B1B689BB2D31A98B2144B5B6899B2D9
:10114000114BDB689AB2114BDB689BB20024009410
:1011500000F03AFC0C4B9B6898B20C4B9B689AB21F
:101160000B4B1B689BB2D31A99B2074BDB689AB240
:10117000064BDB689BB20024009400F025FC00BF06
:101180000437BD4690BD00BF3C0000204C0000204D
:101190003800002080B594B004AF0346FB800023E4
:1011A000BB6007F10C032E220021184608F0C0FB9B
:1011B000FB88032B16D801A252F823F0CD110008AA
:1011C000D3110008D9110008DF1100082E4BFB6372
:1011D00008E02E4BFB6305E02D4BFB6302E02D4B3B
:1011E000FB6300BF07F10803F96B184608F04AFCDF
:1011F000294B1B689BB20A3399B207F108020023FE
:10120000029310230193002300934FF6FF730020F5
:1012100000F0F0FF214B1B689BB2083398B21E4BC5
:101220009A681D4B1B681344DA0F13445B109BB282
:101230000F3B99B2012302931023019348F23043EC
:1012400000930023164A00F071FF144B1B689BB2F9
:10125000083398B2104B9A680F4B1B681344DA0F8F
:1012600013445B109BB2143399B2012302931023F1
:10127000019348F23043009300230A4A00F056FFDE
:1012800000BF4037BD4680BD64AE000870AE0008A8
:101290007CAE000888AE00084C0000203C00002016
:1012A00098AE0008A4AE000890B583B002AF114B11
:1012B0001B689AB2104B1B689BB2134498B20F4B39
:1012C0001B689BB2193399B20A4B5B689AB20A4BFE
:1012D0001B689BB2D31A9AB2084BDB689BB2053BE2
:1012E0009BB248F23044009400F06EFB00BF04371C
:1012F000BD4690BD3C000020380000204C0000207E
:1013000090B587B004AF874B9A68864B1B6813442F
:10131000DA0F13445B10083B7B60824B9A68814B69
:101320001B681344DA0F13445B101C333B607E4B85
:101330001B68002B02D0012B78D0EFE0FFF7B4FF41
:101340007A4B1B689BB2083398B2764B9A68754B00
:101350001B681344DA0F13445B109BB20F3B99B226
:10136000012302931023019348F2304300934FF47A
:1013700078436F4A00F0DAFE6C4B1B689BB208336F
:1013800098B2684B9A68674B1B681344DA0F134492
:101390005B109BB2143399B2012302931023019383
:1013A00048F2304300930023624A00F0BFFE5F4BD7
:1013B0005B689BB20F3B98B27B6899B25B4B5B68F2
:1013C0009BB20A3B9AB27B689BB2053B9BB200245E
:1013D000009400F046FB554B5B689BB20F3B98B204
:1013E0007B6899B2514B5B689BB20A3B9AB27B68AF
:1013F0009BB205339BB20024009400F032FB4B4BB0
:101400005B689BB20A3B98B27B689BB2053B99B282
:10141000464B5B689BB20A3B9AB27B689BB2053332
:101420009BB20024009400F01CFB77E0FFF73CFF28
:101430003E4B1B689BB2083398B23A4B9A68394BC3
:101440001B681344DA0F13445B109BB20F3B99B235
:10145000012302931023019348F2304300930023A9
:10146000334A00F063FE314B1B689BB2083398B2DD
:101470002C4B9A682B4B1B681344DA0F13445B10F8
:101480009BB2143399B2012302931023019348F2C3
:10149000304300934FF47843264A00F047FE234B35
:1014A0005B689BB20F3B98B23B6899B21F4B5B687D
:1014B0009BB20A3B9AB23B689BB2053B9BB20024AD
:1014C000009400F0CEFA194B5B689BB20F3B98B2C8
:1014D0003B6899B2154B5B689BB20A3B9AB23B687A
:1014E0009BB205339BB20024009400F0BAFA0F4B74
:1014F0005B689BB20A3B98B23B689BB2053B99B2D2
:101500000A4B5B689BB20A3B9AB23B689BB20533BD
:101510009BB20024009400F0A4FA00BF00BF0C3777
:10152000BD4690BD4C0000203C0100203C00002046
:1015300098AE0008A4AE000880B582B000AF0346A4
:10154000FB80FFF7ADFDFB881846FFF723FEFFF792
:10155000D7FE00BF0837BD4680BD000080B582B011
:1015600000AF0346FB801B4BDB88012B0CD11A4BD1
:1015700001221A60194B1B68002B25D0012B04D1C6
:10158000164B00221A6000E000BF124BDB89012BD2
:101590000DD1114B01221A60104B1B68002B02D099
:1015A000012B13D004E00D4B01221A6000E000BFB4
:1015B000094B1B68012B0AD1FB881846FFF7BCFFBB
:1015C000054B00221A6002E000BF00E000BF0837B0
:1015D000BD4680BDA8010020500100203C01002034
:1015E00080B582B000AF0346FB800B4B07221A6028
:1015F0000A4B00221A800A4B00221A60094B012272
:101600001A60FB881846FFF7A9FF074AFB8813807A
:1016100000BF0837BD4680BD4801002036010020CC
:101620003C010020500100205E01002080B58EB0FA
:1016300000AF07F1240300221A605A609A60DA6052
:101640001A6100233B62814B1B6B804A43F01003FD
:1016500013637E4B1B6B03F010033B623B6A00235A
:10166000FB617A4B1B6B794A43F004031363774B9E
:101670001B6B03F00403FB61FB690023BB61734B2D
:101680001B6B724A43F020031363704B1B6B03F018
:101690002003BB61BB6900237B616C4B1B6B6B4AF6
:1016A00043F080031363694B1B6B03F080037B6182
:1016B0007B6900233B61654B1B6B644A43F001036C
:1016C0001363624B1B6B03F001033B613B69002317
:1016D000FB605E4B1B6B5D4A43F0080313635B4B7F
:1016E0001B6B03F00803FB60FB680023BB60574BD8
:1016F0001B6B564A43F040031363544B1B6B03F0C0
:101700004003BB60BB6800237B60504B1B6B4F4AA0
:1017100043F0020313634D4B1B6B03F002037B602A
:101720007B68002270214A4805F034F900224FF40A
:101730000051484805F02EF900224FF4C061464898
:1017400005F028F900224021444805F023F9002241
:101750004FF48071424805F01DF9002208214148EC
:1017600005F018F970237B620123BB620023FB6242
:1017700000233B6307F124031946354804F06EFF4C
:101780004FF400537B620123BB620023FB62002302
:101790003B6307F1240319462E4804F05FFF4FF422
:1017A000C0637B620123BB620023FB6200233B63B7
:1017B00007F124031946284804F050FFC0237B6238
:1017C0000023BB620023FB6207F12403194624486F
:1017D00004F044FF30237B620023BB620023FB62E2
:1017E00007F1240319461B4804F038FF40237B62AD
:1017F0000123BB620023FB6200233B6307F1240348
:101800001946164804F02AFF4FF480737B620123C7
:10181000BB620023FB6200233B6307F124031946EC
:101820000F4804F01BFF08237B620123BB620023E7
:10183000FB6200233B6307F124031946094804F0C7
:101840000DFF00BF3837BD4680BD00BF00380240E5
:10185000001002400008024000140240001802403C
:1018600000000240000C024080B483B000AF034689
:10187000FB80044AFB88138000BF0C37BD465DF82F
:10188000047B7047FEFF0F6080B483B000AF034657
:10189000FB80044AFB88538000BF0C37BD465DF8CF
:1018A000047B7047FEFF0F6080B483B000AF064B2F
:1018B0005B889BB2FB80FB889BB218460C37BD4609
:1018C0005DF8047B704700BFFEFF0F6090B583B0EA
:1018D00000AF0446084611461A462346FB800346DD
:1018E000BB800B467B8013463B802A20FFF7BCFF62
:1018F000FB881B0A9BB21846FFF7C6FFFB88DBB2CA
:101900009BB21846FFF7C0FF7B881B0A9BB21846A4
:10191000FFF7BAFF7B88DBB29BB21846FFF7B4FF34
:101920002B20FFF7A1FFBB881B0A9BB21846FFF7CD
:10193000ABFFBB88DBB29BB21846FFF7A5FF3B8825
:101940001B0A9BB21846FFF79FFF3B88DBB29BB296
:101950001846FFF799FF2C20FFF786FF00BF0C37D2
:10196000BD4690BD80B584B000AF0346FB80154BEB
:101970001B88013B9AB2134B5B88013B9BB2002151
:101980000020FFF7A3FF0023FB8111E00023BB81B0
:1019900006E0FB881846FFF777FFBB890133BB8160
:1019A000084B5B88BA899A42F3D3FB890133FB81E8
:1019B000044B1B88FA899A42E8D300BF00BF103756
:1019C000BD4680BD1802002090B585B000AF04462A
:1019D000084611461A462346FB800346BB800B4649
:1019E0007B8013463B807B88013B9AB23B88013B5E
:1019F0009BB2B988F888FFF769FFBB88FB8110E0CC
:101A0000FB88BB8106E03B8C1846FFF73DFFBB8996
:101A10000133BB81BA897B889A42F4D3FB890133B5
:101A2000FB81FA893B889A42EAD300BF00BF143792
:101A3000BD4690BD80B582B000AF0346FB800B462B
:101A4000BB8013467B80BB88FA88B988F888FFF78B
:101A50003DFF7B881846FFF717FF00BF0837BD46DC
:101A600080BD90B58DB000AF0446084611461A46B9
:101A70002346FB800346BB800B467B8013463B809E
:101A80000023BB6200237B627A88FB88D31A3B6207
:101A90003A88BB88D31AFB61FB88FB60BB88BB60BC
:101AA0003B6A002B02DD01237B610BE03B6A002BCC
:101AB00002D100237B6105E04FF0FF337B613B6A7D
:101AC0005B423B62FB69002B02DD01233B610BE0C3
:101AD000FB69002B02D100233B6105E04FF0FF338F
:101AE0003B61FB695B42FB613A6AFB699A4202DD3A
:101AF0003B6ABB6101E0FB69BB610023FB852BE016
:101B0000FB689BB2BA6891B2B7F840201846FFF75D
:101B100091FFBA6A3B6A1344BB627A6AFB69134459
:101B20007B62BA6ABB699A4207DDBA6ABB69D31A9B
:101B3000BB62FA687B691344FB607A6ABB699A42AC
:101B400007DD7A6ABB69D31A7B62BA683B691344C2
:101B5000BB60FB8D0133FB85FB8DBA699A42CFDAFE
:101B600000BF00BF3437BD4690BD90B585B002AF11
:101B70000446084611461A462346FB800346BB80AE
:101B80000B467B8013463B80BC887A88B988F888EE
:101B90003B8B00932346FFF764FF3C88FA88B988A3
:101BA000F8883B8B00932346FFF75BFF3C887A88DD
:101BB0003988F8883B8B00932346FFF752FF3C8817
:101BC0007A88B98878883B8B00932346FFF749FFD2
:101BD00000BF0C37BD4690BD90B587B000AF04463E
:101BE000084611461A462346FB800346BB800B4637
:101BF000FB7013463B8000237B75FB883B8297F884
:101C00002C305B08FB73FB7BDB08DBB21A46FB7BEB
:101C100003F00703DBB2002B14BF01230023DBB268
:101C200013449AB297F82C309BB212FB03F3BB819A
:101C3000FB78203BFB70FB7B9AB2FB8813449BB282
:101C4000013B9CB297F82C309AB2BB8813449BB2EC
:101C5000013B9BB2B988F8882246FFF737FE002384
:101C60007B827AE097F82C300C2B28D097F82C3018
:101C7000102B08D1FA787B8A3C4912010A4413449C
:101C80001B78FB751BE097F82C30182B0BD1FA78DA
:101C9000798A374813465B0013441B0103440B4405
:101CA0001B78FB750BE097F82C30202B5AD1FA7873
:101CB0007B8A304992010A4413441B78FB75002348
:101CC000BB7544E097F83030002B20D1FA7DBB7D06
:101CD00042FA03F303F00103002B04D03B881846BB
:101CE000FFF7D2FD03E03B8D1846FFF7CDFD7B7D6E
:101CF00001337B757B7DFA7BB3FBF2F102FB01F2D2
:101D00009B1ADBB2002B1FD100237B7522E0FA7DEA
:101D1000BB7D42FA03F303F00103002B05D03A88A0
:101D2000B988FB881846FFF785FEFB880133FB80E6
:101D3000FA883B8AD21AFB7B9A4205D13B8AFB8008
:101D4000BB880133BB8005E0BB7D0133BB75BB7D28
:101D5000072BB7D97B8A01337B827A8ABB899A4267
:101D600080D300E000BF1C37BD4690BD78B00008AE
:101D700068B6000838C8000890B587B000AF0446C0
:101D8000084611461A462346FB800346BB800B4695
:101D90007B8013463B8000233B61FA887B88134499
:101DA0009BB2013B9CB2BA883B8813449BB2013B77
:101DB0009BB2B988F8882246FFF788FD0023FB8292
:101DC00027E00023BB821DE03B695B00BA6A134435
:101DD0001B78FB733B695B000133BA6A13441B78C1
:101DE000BB73FB7B1B021AB2BB7B1BB213431BB240
:101DF0009BB21846FFF748FD3B6901333B61BB8A44
:101E00000133BB82BA8A3B889A42DDD3FB8A013315
:101E1000FB82FA8A7B889A42D3D300BF00BF1C376B
:101E2000BD4690BD80B483B000AF0346FB71FB7923
:101E30001B09DBB203F00303DBB2002B07D00A4B14
:101E40004FF4A0721A80084BF0225A8006E0064B2D
:101E5000F0221A80044B4FF4A0725A8000BF0C3756
:101E6000BD465DF8047B70471802002080B500AFC6
:101E700000224FF40051AA4804F08CFD4FF4FA7090
:101E800004F024FA01224FF40051A54804F082FD29
:101E90004FF4FA7004F01AFA0020FFF7C3FFD320C2
:101EA000FFF7E2FCFFF700FD03461A469D4B9A80C0
:101EB000FFF7FAFC03461A469A4B9A80FFF7F4FCA8
:101EC00003461A46974B9A80964B9B881B029AB200
:101ED000944B9A80FFF7E8FC03461A46914B9B8887
:101EE00013439AB28F4B9A80CF20FFF7BDFC00209E
:101EF000FFF7CAFCC120FFF7C7FC3020FFF7C4FC86
:101F0000ED20FFF7B1FC6420FFF7BEFC0320FFF7D4
:101F1000BBFC1220FFF7B8FC8120FFF7B5FCE820DE
:101F2000FFF7A2FC8520FFF7AFFC1020FFF7ACFC09
:101F30007A20FFF7A9FCCB20FFF796FC3920FFF7AA
:101F4000A3FC2C20FFF7A0FC0020FFF79DFC342011
:101F5000FFF79AFC0220FFF797FCF720FFF784FCBD
:101F60002020FFF791FCEA20FFF77EFC0020FFF71E
:101F70008BFC0020FFF788FCC020FFF775FC1B20BE
:101F8000FFF782FCC120FFF76FFC0120FFF77CFC0C
:101F9000C520FFF769FC3020FFF776FC3020FFF703
:101FA00073FCC720FFF760FCB720FFF76DFC3620FD
:101FB000FFF75AFC0820FFF767FC3A20FFF754FCB4
:101FC0005520FFF761FCB120FFF74EFC0020FFF722
:101FD0005BFC1A20FFF758FCB620FFF745FC0A20EF
:101FE000FFF752FCA220FFF74FFCF220FFF73CFC6A
:101FF0000020FFF749FC2620FFF736FC0120FFF701
:1020000043FCE020FFF730FC0F20FFF73DFC2A20C7
:10201000FFF73AFC2820FFF737FC0820FFF734FCD5
:102020000E20FFF731FC0820FFF72EFC5420FFF7AD
:102030002BFCA920FFF728FC4320FFF725FC0A20F2
:10204000FFF722FC0F20FFF71FFC0020FFF71CFC0E
:102050000020FFF719FC0020FFF716FC0020FFF717
:1020600013FCE120FFF700FC0020FFF70DFC15201A
:10207000FFF70AFC1720FFF707FC0720FFF704FC17
:102080001120FFF701FC0620FFF7FEFB2B20FFF7D6
:10209000FBFB5620FFF7F8FB3C20FFF7F5FB052084
:1020A000FFF7F2FB1020FFF7EFFB0F20FFF7ECFB31
:1020B0003F20FFF7E9FB3F20FFF7E6FB0F20FFF78C
:1020C000E3FB2B20FFF7D0FB0020FFF7DDFB002018
:1020D000FFF7DAFB0120FFF7D7FB3F20FFF7D4FB28
:1020E0002A20FFF7C1FB0020FFF7CEFB0020FFF7FF
:1020F000CBFB0020FFF7C8FBEF20FFF7C5FB11204B
:10210000FFF7B2FB782004F0E1F82920FFF7ACFBE1
:1021100001224FF48071044804F03CFC00BF80BDF4
:1021200000080240180200200000024090B58BB069
:1021300004AFBA601A460346FB810B46BB811346C7
:10214000FB80FB89BB820023FB7548E0FB7D002BF5
:1021500045D1FA89264B1B88194697F82C305B0825
:10216000DBB2CB1A9A423FDCBA89214B5B88194615
:1021700097F82C30CB1A9A4236DCBB681B78802B40
:1021800002D90123FB752AE0BB681B780D2B0BD10C
:1021900097F82C309AB2BB891344BB81BB8AFB8170
:1021A000BB680133BB6017E0BB681A78FC88B9894B
:1021B000F88997F83030029397F82C3001933B8DD3
:1021C00000932346FFF708FD97F82C305B08DBB23D
:1021D0009AB2FB891344FB81BB680133BB60BB68C7
:1021E0001B78002BB2D100E000BF1C37BD4690BD6C
:1021F0001802002080B58AB004AFBA601A460346C0
:10220000FB810B46BB811346FB80B868FDF7E0FFFE
:102210000346FB820F4B1B881A46FB8ADB00D31A4E
:10222000DA0F13445B10BB82FA89BB8A134498B25D
:10223000FA88B98997F82830029397F824300193E7
:102240003B8C00931346BA68FFF770FF00BF183746
:10225000BD4680BD1802002080B500AF012240219C
:10226000024804F097FB00BF80BD00BF0018024089
:1022700080B500AF3F4B1B88DBB29AB23D4B1A8052
:102280003D4B1B881A463D4B9B5C1B021AB2394BD7
:102290001B881BB213431BB29AB2364B1A80364BC3
:1022A0001B88032B46D801A252F823F0BD22000858
:1022B000DB220008F9220008172300082D4B1B8899
:1022C00043F0B0039AB22B4B1A802A4B1B8823F0A1
:1022D00040039AB2274B1A802DE0264B1B8843F00F
:1022E000D0039AB2234B1A80224B1B8823F0200381
:1022F0009AB2204B1A801EE01E4B1B8843F0E0036D
:102300009AB21C4B1A801B4B1B8823F010039AB205
:10231000184B1A800FE0174B1B8843F070039AB2DA
:10232000144B1A80134B1B8823F080039AB2114B75
:102330001A8000E000BF104B1B8801335A4203F0A3
:10234000030302F0030258BF53429AB20A4B1A80A9
:10235000002240210A4804F01DFB01230222054906
:10236000084805F02EF801224021054804F012FB30
:1023700000BF80BD9200002060010020840000208A
:10238000001802409C29002080B485B000AFF8609E
:10239000B9601346FB71FB68002B0EDBFB68092B51
:1023A0000BDC094AFB6813441A78FB79D31AD9B2BB
:1023B000064ABB6813440A461A7000BF1437BD466C
:1023C0005DF8047B704700BF880000208400002077
:1023D00080B483B000AF0346FB71FB79012B07D1BA
:1023E0000A4B1B8823F008039AB2084B1A8006E0B8
:1023F000064B1B8843F008039AB2044B1A8000BFB7
:102400000C37BD465DF8047B704700BF920000208A
:1024100080B500AF144B5B8B012B13D1134B1B7892
:10242000C3F10103DAB2114B1A70104B1B78012B68
:1024300004D101210E4803F0DDFD03E001210D4828
:1024400003F0D8FD094B1B78012B05D10122202177
:10245000094804F09FFA04E000222021064804F015
:1024600099FA00BF80BD00BFA801002062010020D2
:10247000ACAE0008B0AE00080010024080B500AF5E
:1024800003F0FEFD0346002B03D10121024803F0B7
:10249000B1FD00BF80BD00BFB4AE000880B500AF85
:1024A00003F0A2FE00F092F8FFF7C0F803F098FBEB
:1024B00002F060F9FEF724FD03F0F2FD00F0F0F801
:1024C0004FF6FF70FFF74EFA00F014F9364B1B88F9
:1024D000002B0AD0344B00221A80FEF73FFAFFF798
:1024E000CDFFFFF795FF02F001FD304B1B68032B7A
:1024F00007D02E4B1B68042B03D02C4B1B68052BDD
:1025000018D101F0FFFB294B1B68052B08D1284B84
:102510001B88002B04D001F019FD254B00221A80E6
:10252000244B1B88002B08D0224B00221A8001F07C
:10253000B3FA02E01F4B00221A801C4B1B68072BCA
:1025400004D11D4B1B881846FFF708F8174B1B6872
:10255000062B01D103F004FA144B1B680A2B01D19E
:10256000FEF786FC154B1B88012B0BD1134B002269
:102570001A800E4B07221A600120FFF731F8104B2A
:1025800003221A600F4B1B88012B9FD10E4B1B8817
:10259000013B9AB20C4B1A8003F0AAFC4FF47A70FC
:1025A00002F00AF892E700BF68010020480100200D
:1025B000860100206E0100205E01002074010020D1
:1025C00014000020800100200000002080B594B09D
:1025D00000AF07F1200330220021184607F0A8F9C8
:1025E00007F10C0300221A605A609A60DA601A61DF
:1025F0000023BB60284B1B6C274A43F080531364B5
:10260000254B1B6C03F08053BB60BB6800237B60D1
:10261000224B1B68214A43F4804313601F4B1B6805
:1026200003F480437B607B6802233B620123FB62EF
:1026300010233B630223BB630023FB6308233B643B
:10264000A8237B640223BB640423FB6407F12003FB
:10265000184604F0B9F90346002B01D000F068F8E1
:102660000F23FB6002233B6100237B614FF4A053E7
:10267000BB614FF4A053FB6107F10C030521184621
:1026800004F01AFC0346002B01D000F051F800BF03
:102690005037BD4680BD00BF00380240007000408A
:1026A00080B500AF00222021114804F073F9002208
:1026B00040210F4804F06EF9002210210C4804F06C
:1026C00069F901F033FFFFF7C7FDFEF727F9FFF7C0
:1026D000CDFB03F079FC322001F0A6FF4FF4967099
:1026E00001F02EFF4FF4FA6001F082FF00BF80BDC1
:1026F0000010024080B584B004AF1F2300931D2357
:102700001D2213211320FFF75FF9012302931023E9
:1027100001931F2300934FF47843044A642100205F
:10272000FFF768FD00BFBD4680BD00BFB8AE000822
:1027300080B400AF72B600BFFEE7000080B590B075
:1027400000AF0346FB80FB8807F10C00064A3221EC
:1027500007F064F907F10C03184607F0A3F90346E4
:1027600018464037BD4680BDC8AE000890B583B05E
:1027700002AF0D4B1B6898B20C4B1B6899B20A4B09
:102780005B689CB2094B5B689AB2094B1B689BB2B1
:1027900013449BB2002200922246FFF715F900BFB6
:1027A0000437BD4690BD00BF18000020280000205F
:1027B0003800002090B5A3B004AF03460A46FB8062
:1027C0001346BB804FF6FF70FFF7CCF8454B5B68B4
:1027D0009AB2454B1B689BB21F210091002100203B
:1027E000FFF7F2F801230293102301931F230093B4
:1027F0004FF478433D4A05210020FFF797FC3C4AFF
:1028000007F13C0392E8030018600433197007F1E4
:1028100041032D220021184607F08AF8354B1B880A
:102820001846FFF78BFF786707F13C03796F18466E
:1028300007F028F9304B1B6898B2304B1B6899B2EF
:1028400007F13C0201230293102301934FF6FF731B
:1028500000934FF47843FFF769FC294A07F1080316
:1028600092E8030083E8030007F110032A22002105
:10287000184607F05DF8234B1B881846FFF75EFFEC
:10288000386707F10803396F184607F0FBF81E4B4D
:102890001B6898B21D4B1B689BB2053399B207F1B8
:1028A000080200230293102301931F2300934FF487
:1028B0007843FFF73BFC164B1B6898B2154B1B681F
:1028C00099B2154B1B689AB2144B1B689BB2144CFF
:1028D0000094FFF751FAFFF749FF00BF7C37BD4670
:1028E00090BD00BF1800002028000020CCAE0008DA
:1028F000DCAE0008340100206400002068000020E5
:1029000010AF0008360100206C000020700000208D
:1029100074000020780000207C000020800000204F
:10292000F8DF000890B5A3B004AF03460A46FB8069
:102930001346BB804FF6FF70FFF714F8444B5B68FB
:102940009AB2444B1B689BB21F21009100210020CA
:10295000FFF73AF801230293102301931F230093FA
:102960004FF478433C4A05210020FFF7DFFB3B4A48
:1029700007F13C0392E8030018600433197007F173
:1029800041032D220021184606F0D2FF344B1B884C
:102990001846FFF7D3FE786707F13C03796F1846B6
:1029A00007F070F82F4B1B6898B22F4B1B6899B239
:1029B00007F13C0201230293102301934FF6FF73AA
:1029C00000934FF47843FFF7B1FB284A07F108035F
:1029D00092E8030083E8030007F110032A22002194
:1029E000184606F0A5FF0020FFF7A8FE386707F19C
:1029F0000803396F184607F045F81D4B1B6898B25D
:102A00001C4B1B6899B207F10802012302931023A3
:102A100001934FF6FF7300934FF47843FFF786FB63
:102A200003F066FA144B1B6898B2144B1B6899B2FA
:102A3000134B1B689AB2134B1B689BB2124C009449
:102A4000FFF79AF9FFF792FE00BF7C37BD4690BDB5
:102A5000180000202800002044AF0008DCAE000869
:102A600034010020640000206800002010AF00083E
:102A70006C0000207000002074000020780000200E
:102A80007C00002080000020F8DF000890B5A3B093
:102A900004AF03460A46FB801346BB804FF6FF7027
:102AA000FEF760FF444B5B689AB2444B1B689BB2D5
:102AB0001F21009100210020FEF786FF01230293D1
:102AC000102301931F2300934FF478433C4A0521C0
:102AD0000020FFF72BFB3B4A07F13C0392E8030081
:102AE00018600433197007F141032D2200211846A4
:102AF00006F01EFF344B1B881846FFF71FFE786751
:102B000007F13C03796F184606F0BCFF2F4B1B689A
:102B100098B22F4B1B6899B207F13C020123029334
:102B2000102301934FF6FF7300934FF47843FFF7A0
:102B3000FDFA284A07F1080392E8030083E803003E
:102B400007F110032A220021184606F0F1FE0020AA
:102B5000FFF7F4FD386707F10803396F184606F0F0
:102B600091FF1D4B1B6898B21C4B1B6899B207F173
:102B7000080201230293102301934FF6FF73009381
:102B80004FF47843FFF7D2FA03F0B2F9144B1B6805
:102B900098B2144B1B6899B2134B1B689AB2134B33
:102BA0001B689BB2124C0094FFF7E6F8FFF7DEFDBE
:102BB00000BF7C37BD4690BD1800002028000020D3
:102BC00054AF0008DCAE000834010020640000208F
:102BD0006800002010AF00086C000020700000208A
:102BE00074000020780000207C000020800000207D
:102BF000F8DF000880B594B004AF334B1B68032B9B
:102C00002AD1324A3B1D92E8030083E8030007F112
:102C10000C032A220021184606F08AFE2C4B1B8842
:102C20001846FFF78BFDF8633B1DF96B184606F05D
:102C300029FF284B1B6898B2274B1B689BB20533B2
:102C400099B23A1D00230293182301931F23009386
:102C50004FF47843FFF76AFA1B4B1B68042B03D031
:102C6000194B1B68052B2AD1184A3B1D92E803001B
:102C700083E8030007F10C032A220021184606F01E
:102C800057FE134B1B881846FFF758FDB8633B1DD2
:102C9000B96B184606F0F6FE0E4B1B6898B20E4B49
:102CA0001B6899B23A1D00230293102301931F233E
:102CB00000934FF47843FFF739FA03F019F900BF96
:102CC0004037BD4680BD00BF4801002010AF00085E
:102CD000360100206C0000207000002090B583B009
:102CE00002AF8F4B9B69032B00F2148101A252F8B3
:102CF00023F000BF8D2E00080D2E0008852D000842
:102D0000052D0008864BDB6A98B2854B1B6B99B288
:102D1000834BDB6A9BB209339AB2814B1B6B9BB22C
:102D200009339BB24FF478440094FEF74DFE7C4B80
:102D3000DB6A98B27A4B1B6B99B2794BDB6A9BB218
:102D400004339AB2764B1B6B9BB204339BB20024C4
:102D50000094FEF739FE724BDB6A9BB2053398B2E2
:102D60006F4B1B6B99B26E4BDB6A9BB209339AB205
:102D70006B4B1B6B9BB204339BB200240094FEF799
:102D800023FEC8E0664BDB6A98B2654B1B6B99B2B9
:102D9000634BDB6A9BB209339AB2614B1B6B9BB2EC
:102DA00009339BB24FF478440094FEF70DFE5C4B60
:102DB000DB6A98B25A4B1B6B9BB2053399B2584BE6
:102DC000DB6A9BB204339AB2554B1B6B9BB209333F
:102DD0009BB200240094FEF7F7FD514BDB6A9BB2D7
:102DE000053398B24E4B1B6B9BB2053399B24C4BDB
:102DF000DB6A9BB209339AB2494B1B6B9BB2093316
:102E00009BB200240094FEF7DFFD84E0444BDB6AB4
:102E100098B2434B1B6B99B2414BDB6A9BB20933AF
:102E20009AB23F4B1B6B9BB209339BB24FF4784471
:102E30000094FEF7C9FD3A4BDB6A98B2384B1B6B26
:102E400099B2374BDB6A9BB204339AB2344B1B6B9B
:102E50009BB204339BB200240094FEF7B5FD304BC7
:102E6000DB6A98B22E4B1B6B9BB2053399B22C4B8D
:102E7000DB6A9BB204339AB2294B1B6B9BB20933BA
:102E80009BB200240094FEF79FFD44E0244BDB6AD4
:102E900098B2234B1B6B99B2214BDB6A9BB209336F
:102EA0009AB21F4B1B6B9BB209339BB24FF4784411
:102EB0000094FEF789FD1A4BDB6A9BB2053398B28A
:102EC000174B1B6B99B2164BDB6A9BB209339AB254
:102ED000134B1B6B9BB204339BB200240094FEF790
:102EE00073FD0F4BDB6A9BB2053398B20C4B1B6B27
:102EF0009BB2053399B20A4BDB6A9BB209339AB293
:102F0000074B1B6B9BB209339BB200240094FEF766
:102F10005BFD00E000BF00BF0437BD4690BD00BFB1
:102F2000D019002090B589B002AF584B9B6A002B96
:102F300040F0A780554B9B69002B03D1534B5B6836
:102F400098479FE0514B01229A6100237B6191E0F9
:102F50007B69002B28D14D4A7B690533DB00134484
:102F600007F10C02043393E8030082E80300474AA8
:102F70007B690533DB0013445B68A3F10A02434914
:102F80007B690533DB000B445A60404A7B6905339B
:102F9000DB0013449A683D497B690533DB000B4431
:102FA0009A60FFF79BFE62E0384A7B690533DB00DD
:102FB00013443A1D043393E8030082E80300334AC4
:102FC0007B690533DB001344043307F10C0292E8FC
:102FD000030083E8030007F10C033A1D92E80300A5
:102FE00083E803007B69012B23D1284A7B690533E1
:102FF000DB0013445B6898B2244A7B690533DB002D
:1030000013449B6899B2214A7B690533DB00134462
:103010005B689BB209339AB21C4C7B690533DB00B9
:1030200023449B689BB209339BB200240094FEF7B3
:10303000CBFC164B5B6A013B7A699A4217D1134B62
:103040001C333A1D92E8030083E803007B6898B2C2
:10305000BB6899B27B689BB209339AB2BB689BB2DA
:1030600009339BB24FF6FF740094FEF7ADFC7B6909
:1030700001337B61054B5B6A7A699A42FFF668AF60
:1030800000E000BF00BF1C37BD4690BDD019002036
:1030900090B589B002AF584B9B6A002B40F0A780D7
:1030A000554B9B69012B03D1534B1B6898479FE0FD
:1030B000514B00229A6100237B6191E07B69002BD8
:1030C00028D14D4A7B690533DB00134407F10C021C
:1030D000043393E8030082E80300474A7B69053321
:1030E000DB0013445B6803F10A0243497B69053343
:1030F000DB000B445A60404A7B690533DB00134414
:103100009A683D497B690533DB000B449A60FFF701
:10311000E5FD62E0384A7B690533DB0013443A1D64
:10312000043393E8030082E80300334A7B690533E4
:10313000DB001344043307F10C0292E8030083E838
:10314000030007F10C033A1D92E8030083E8030033
:103150007B69012B23D1284A7B690533DB001344AB
:103160005B6898B2244A7B690533DB0013449B6893
:1031700099B2214A7B690533DB0013445B689BB23B
:1031800009339AB21C4C7B690533DB0023449B68EE
:103190009BB209339BB200240094FEF715FC164B3A
:1031A0005B6A013B7A699A4217D1134B1C333A1D73
:1031B00092E8030083E803007B6898B2BB6899B289
:1031C0007B689BB209339AB2BB689BB209339BB24E
:1031D0004FF6FF740094FEF7F7FB7B6901337B61C8
:1031E000054B5B6A7A699A42FFF668AF00E000BF60
:1031F00000BF1C37BD4690BDD019002090B589B0E6
:1032000002AF584B9B6A002B40F0A780554B9B693F
:10321000022B03D1534BDB6898479FE0514B0322AD
:103220009A6100237B6191E07B69002B28D14D4A94
:103230007B690533DB00134407F10C02043393E888
:10324000030082E80300474A7B690533DB0013442F
:103250005A6844497B690533DB000B445A60414A94
:103260007B690533DB0013449B68A3F10A023D49E7
:103270007B690533DB000B449A60FFF72FFD62E0AA
:10328000384A7B690533DB0013443A1D043393E865
:10329000030082E80300334A7B690533DB001344F3
:1032A000043307F10C0292E8030083E8030007F1FE
:1032B0000C033A1D92E8030083E803007B69012BAD
:1032C00023D1284A7B690533DB0013445B6898B23D
:1032D000244A7B690533DB0013449B6899B2214A79
:1032E0007B690533DB0013445B689BB209339AB2F8
:1032F0001C4C7B690533DB0023449B689BB209337C
:103300009BB200240094FEF75FFB164B5B6A013B07
:103310007A699A4217D1134B1C333A1D92E8030085
:1033200083E803007B6898B2BB6899B27B689BB264
:1033300009339AB2BB689BB209339BB24FF6FF7454
:103340000094FEF741FB7B6901337B61054B5B6AAF
:103350007A699A42FFF668AF00E000BF00BF1C37F1
:10336000BD4690BDD019002090B589B002AF584B32
:103370009B6A002B40F0A780554B9B69032B03D120
:10338000534B9B6898479FE0514B02229A61002360
:103390007B6191E07B69002B28D14D4A7B69053325
:1033A000DB00134407F10C02043393E8030082E8C6
:1033B0000300474A7B690533DB0013445A684449DC
:1033C0007B690533DB000B445A60414A7B69053356
:1033D000DB0013449B6803F10A023D497B69053316
:1033E000DB000B449A60FFF779FC62E0384A7B69A6
:1033F0000533DB0013443A1D043393E8030082E8ED
:103400000300334A7B690533DB001344043307F1BF
:103410000C0292E8030083E8030007F10C033A1D55
:1034200092E8030083E803007B69012B23D1284A3B
:103430007B690533DB0013445B6898B2244A7B69DF
:103440000533DB0013449B6899B2214A7B6905333D
:10345000DB0013445B689BB209339AB21C4C7B6956
:103460000533DB0023449B689BB209339BB20024E5
:103470000094FEF7A9FA164B5B6A013B7A699A42FF
:1034800017D1134B1C333A1D92E8030083E8030065
:103490007B6898B2BB6899B27B689BB209339AB2D9
:1034A000BB689BB209339BB24FF6FF740094FEF7E2
:1034B0008BFA7B6901337B61054B5B6A7A699A42BF
:1034C000FFF668AF00E000BF00BF1C37BD4690BDEF
:1034D000D019002090B587B002AF754B1B689AB227
:1034E000744B1B689BB2134499B24FF6FF73009361
:1034F0004FF4A073F0220020FEF766FA0023FB6071
:103500002CE0FB68002B02D1FFF7E8FB23E06A4ABE
:10351000FB680533DB0013445B6898B2664AFB68BE
:103520000533DB0013449B6899B2634AFB6805339B
:10353000DB0013445B689BB209339AB25E4CFB68B4
:103540000533DB0023449B689BB209339BB2002404
:103550000094FEF739FAFB680133FB60564B5B6A57
:10356000FA689A42CDDB0023BB607EE05349BA681B
:1035700013465B0013449B000B441B687B604F4960
:10358000BA6813465B0013449B000B4404331B686A
:103590003B607B6898B23B6899B27B689BB2093309
:1035A0009AB23B689BB209339BB24BF640440094FD
:1035B000FEF70AFA4149BA6813465B0013449B00C0
:1035C0000B4408331B68012B26D17B6898B23B68FB
:1035D0009BB20A3399B27B689BB209339AB23B68BB
:1035E0009BB213339BB24BF640440094FEF7ECF9C8
:1035F0007B6898B23B689BB20A3B99B27B689BB2EE
:1036000009339AB23B689BB2013B9BB24BF64044F4
:103610000094FEF7D9F925E07B689BB20A3398B293
:103620003B6899B27B689BB213339AB23B689BB2FA
:1036300009339BB24BF640440094FEF7C5F97B6812
:103640009BB20A3B98B23B6899B27B689BB2013B44
:103650009AB23B689BB209339BB24BF6404400944C
:10366000FEF7B2F9BB680133BB60144B03F5BB53E3
:1036700010331B68BA689A42FFF678AF104B1B688C
:1036800098B2104B1B6899B20D4B1B689BB2093363
:103690009AB20C4B1B689BB209339BB240F2CF1419
:1036A0000094FEF791F900BF1437BD4690BD00BFEE
:1036B0002800002038000020D019002054020020EB
:1036C000940000209800002080B400AF0C4BDB6A0F
:1036D000002B0CDB0A4BDB6AE62B08DC084B1B6B70
:1036E000452B04DD064B1B6BB3F59C7F01DD0123ED
:1036F00000E000231846BD465DF8047B704700BF1C
:10370000D019002080B483B000AF01237B6018E0A3
:10371000124BDA6A11497B680533DB000B445B68A6
:103720009A420BD10D4B1A6B0C497B680533DB00B9
:103730000B449B689A4201D1012308E07B68013366
:103740007B60064B5B6A7A689A42E1DB002318468D
:103750000C37BD465DF8047B704700BFD0190020D0
:1037600080B400AF094BDA6A094B1B689A4207D153
:10377000064B1A6B074B1B689A4201D1012300E0EC
:1037800000231846BD465DF8047B7047D019002021
:10379000940000209800002080B483B000AF002384
:1037A0007B6079E044497A6813465B0013449B00D0
:1037B0000B4408331B68012B36D1404B196B3E4834
:1037C0007A6813465B0013449B00034404331B6870
:1037D0000A3B99421AD0394B196B37487A6813461D
:1037E0005B0013449B00034404331B680A33994273
:1037F0000CD0324B196B30487A6813465B00134487
:103800009B00034404331B68994242D12B4BD96A75
:1038100029487A6813465B0013449B0003441B68E5
:10382000994236D1012341E0244BD96A22487A6873
:1038300013465B0013449B0003441B680A33994200
:1038400018D01E4BD96A1C487A6813465B00134493
:103850009B0003441B680A3B99420BD0174BD96A63
:1038600015487A6813465B0013449B0003441B68A9
:1038700099420ED1114B196B0F487A6813465B00C1
:1038800013449B00034404331B68994201D1012374
:103890000CE07B6801337B60074B03F5BB531033AF
:1038A0001B687A689A42FFF67DAF002318460C37F2
:1038B000BD465DF8047B704754020020D0190020FB
:1038C00090B585B002AFFFF7FFFE0346002B03D093
:1038D0000320FDF785FE65E0FFF714FF0346002B8C
:1038E00003D00220FDF77CFE5CE0FFF755FF0346A6
:1038F000002B03D00020FDF773FE53E0FFF730FFED
:103900000346002B4ED0294B4FF000421A60284B43
:103910004FF000421A60274B5B6A0133254A53621D
:10392000244B5B6A013B234AD26922490533DB0001
:103930000B445A601F4B5B6A013B1E4A126A1D49C9
:103940000533DB000B449A601A4B5B6A013B194A52
:103950000533DB0013445B687B60164B5B6A013BFD
:10396000144A0533DB0013449B683B607B6898B2C4
:103970003B6899B27B689BB209339AB23B689BB2B1
:1039800009339BB200240094FEF71EF80A4B012273
:103990001A600A4B1B8801339AB2084B1A80FFF752
:1039A00029F900BF0C37BD4690BD00BF9400002030
:1039B00098000020D01900209C0000203601002033
:1039C00080B500AF114B9B69032B1BD801A252F8A5
:1039D00023F000BFF5390008FD390008E53900087B
:1039E000ED390008094BDB6898470CE0074B9B68F2
:1039F000984708E0054B5B68984704E0034B1B6859
:103A0000984700E000BF00BF80BD00BFD019002074
:103A100080B483B000AF00237B601FE01D497A684B
:103A200013465B0013449B000B4400221A601949A3
:103A30007A6813465B0013449B000B440433002256
:103A40001A6014497A6813465B0013449B000B44C8
:103A5000083300221A607B6801337B607B68B3F512
:103A6000FA7FDBDB0B4B03F5BB53103300221A60EC
:103A7000084B03F5BB53143301221A60054B03F5C1
:103A8000BB53183300221A6000BF0C37BD465DF8E7
:103A9000047B70475402002080B582B002AF434BD4
:103AA0001B88002B09D0414B00221A80404B9B6899
:103AB00098473F4B5B69984774E03C4B5B88002B11
:103AC00009D03A4B00225A80394B1B689847384B33
:103AD0005B69984766E0354B9B88002B25D0334BBC
:103AE00000229A80324B9B6A002B0CBF01230023DB
:103AF000DBB21A462E4B9A622E4B03F5BB5318339A
:103B00001B68002B0CBF01230023DBB21A46294B94
:103B100003F5BB5318331A60254B9B6A184601F016
:103B200063FF0346224A93623CE0204BDB88002B74
:103B300006D01F4B5B6898471D4B5B69984731E087
:103B40001A4B1B89002B1CD04FF6FF70FDF70AFFA4
:103B5000194B4FF000421A60184B4FF000421A60A8
:103B600000F030F8FFF754FF4FF4784300934623FA
:103B7000F02200210020FDF727FF114B01221A60DF
:103B800010E00A4B5B89002B06D0094BDB68984795
:103B9000074B5B69984705E0054B1B699847044B49
:103BA0005B69984700BFBD4680BD00BF9C010020F7
:103BB000D01900205402002094000020980000201A
:103BC0009C00002090B585B002AF454B1B6818469D
:103BD00005F0B6FE424B1B680133414A1360414B6E
:103BE00001221A60404B00229A623F4B1422DA6293
:103BF0003D4B46221A633C4B0A225A633A4B4622FB
:103C00009A63394B0022DA63374B46221A64032346
:103C10007B6010E0344A7B680533DB0013440022EC
:103C20005A60314A7B680533DB00134400229A60F6
:103C30007B6801337B607B68B3F5FA7FEADB2A4B54
:103C40002A4ADA60284B2A4A1A60274B294A9A6086
:103C5000254B294A5A60244B284A1A61224B284A8C
:103C60005A61214B03225A621F4B00229A610023A2
:103C70003B602CE03B68002B02D1FFF72FF823E0DC
:103C8000194A3B680533DB0013445B6898B2164A57
:103C90003B680533DB0013449B6899B2124A3B68CA
:103CA0000533DB0013445B689BB209339AB20E4CB8
:103CB0003B680533DB0023449B689BB209339BB20E
:103CC00000240094FDF780FE3B6801333B603B68B5
:103CD000022BCFDD00BF00BF0C37BD4690BD00BF3B
:103CE000640100209C000020D019002069330008E6
:103CF000252F0008FD31000891300008C139000867
:103D0000C138000890B587B002AF894B1B68012B02
:103D100040F009810023FB6005F040FE0146854B21
:103D200083FB01239A10CB17D21A13465B0013446E
:103D3000DB00CA1A13469B0013445B001A467E4BF5
:103D40001A6005F02BFE01467C4B83FB0123DA1041
:103D5000CB17D21A13469B0013449A001344CA1A75
:103D6000073213469B0013445B001A46744B1A60DB
:103D70000023BB6021E0734ABB680533DB001344BA
:103D80005A686D4B1B689A4214D16E4ABB68053362
:103D9000DB0013449A686A4B1B689A420AD1664B4F
:103DA0004FF000421A60664B4FF000421A60012348
:103DB000FB6007E0BB680133BB60624B5B6ABA68BB
:103DC0009A42D8DBFB68002B40F0A98000237B607F
:103DD0007FE05D497A6813465B0013449B000B4407
:103DE00008331B68012B39D157497A6813465B00A9
:103DF00013449B000B4404331A68514B1B689A42CE
:103E00001DD051497A6813465B0013449B000B4454
:103E100004331B6803F10A02494B1B689A420ED017
:103E200049497A6813465B0013449B000B440433F2
:103E30001B68A3F10A02424B1B689A4246D14249D1
:103E40007A6813465B0013449B000B441A683A4B94
:103E50001B689A423AD10123FB6043E03A497A68F1
:103E600013465B0013449B000B441A68324B1B68DB
:103E70009A421BD034497A6813465B0013449B0076
:103E80000B441B6803F10A022B4B1B689A420DD0AE
:103E90002D497A6813465B0013449B000B441B6852
:103EA000A3F10A02244B1B689A420FD126497A6873
:103EB00013465B0013449B000B4404331A68204BE9
:103EC0001B689A4202D10123FB600BE07B6801333F
:103ED0007B601D4B03F5BB5310331B687A689A4215
:103EE000FFF677AFFB68002B1BD1134B1B6898B212
:103EF000134B1B6899B2104B1B689BB209339AB2E3
:103F00000F4B1B689BB209339BB240F2CF14009455
:103F1000FDF75AFD064B00221A6000BF03E000BF08
:103F2000F8E600BFF6E600BF1437BD4690BD00BFFF
:103F30009C000020ABAAAA2A940000201F85EB5108
:103F400098000020D01900205402002090B58DB0B8
:103F500002AF9C4B03F5BB5310331B689A4A12887F
:103F6000934280F2DD82974B03F5BB5318331B68F5
:103F7000002B40F0D68200237B6205F00FFD024645
:103F8000924B83FB02139910D317CB1A162101FB16
:103F900003F3D31A5A1C13469B0013445B00BB6106
:103FA00005F0FCFC01468A4B83FB01230B441A11EC
:103FB000CB17D21A13465B001344DB009B1ACA1AB4
:103FC000083213469B0013445B007B6100233B6275
:103FD000E8E07C493A6A13465B0013449B000B44BB
:103FE0001B683B6177493A6A13465B0013449B00A8
:103FF0000B4404331B68FB60724B03F5BB53143353
:104000001B68012B66D16F493A6A13465B00134463
:104010009B000B4408331B68012B20D1FB68143B29
:104020007A699A4213D0FB6814337A699A420ED0A7
:10403000FB680A3B7A699A4209D0FB680A337A69BD
:104040009A4204D0FA687B699A4240F0A8803A69A3
:10405000BB699A4240F0A38001237B62ABE0FB681E
:104060000A3B7A699A4208D0FB680A337A699A4215
:1040700003D0FA687B699A4203D13A69BB699A42D4
:1040800025D0FB680A3B7A699A4208D0FB680A335C
:104090007A699A4203D0FA687B699A4204D13B69F3
:1040A0000A3BBA699A4212D0FB680A3B7A699A4283
:1040B00008D0FB680A337A699A4203D0FA687B69B0
:1040C0009A426CD13B690A33BA699A4267D101239B
:1040D0007B6264E03B493A6A13465B0013449B00F1
:1040E0000B4408331B68012B3AD13B690A3BBA6980
:1040F0009A4208D03B690A33BA699A4203D03A69B6
:10410000BB699A4203D1FA687B699A4225D03B6920
:104110000A3BBA699A4208D03B690A33BA699A42A3
:1041200003D03A69BB699A4204D1FB680A3B7A69B9
:104130009A4212D03B690A3BBA699A4208D03B695D
:104140000A33BA699A4203D03A69BB699A4226D1C6
:10415000FB680A337A699A4221D101237B622AE003
:104160003B69143BBA699A4212D03B691433BA696D
:104170009A420DD03B690A33BA699A4208D03B692A
:104180000A3BBA699A4203D03A69BB699A4206D19E
:10419000FA687B699A4202D101237B620BE03B6A99
:1041A00001333B62074B03F5BB5310331B683A6A7C
:1041B0009A42FFF60EAF7B6A002B40F0A7810023E6
:1041C000FB6149E05402002038010020E9A28B2E57
:1041D000C94216B2A14AFB690533DB0013445B6890
:1041E000BB609E4AFB690533DB0013449B687B6020
:1041F0009B4B03F5BB5314331B68012B14D1BA69D5
:10420000BB689A4225D17A697B689A4209D07B695A
:104210000A3B7A689A4204D07B690A337A689A42E8
:1042200017D101237B621CE07A697B689A4210D126
:10423000BA69BB689A4209D0BB690A3BBA689A421C
:1042400004D0BB690A33BA689A4202D101237B6267
:1042500007E0FB690133FB61804B5B6AFA699A42B4
:10426000B8DB7B6A002B40F053817C4B9B69032BAE
:1042700042D801A252F823F0DD420008C1420008F2
:10428000A542000889420008744BDB6ABA699A4269
:1042900034D1724B1B6B0A3B7A699A422ED10123AF
:1042A0007B622BE06D4BDB6ABA699A4228D16B4B7B
:1042B0001B6B0A337A699A4222D101237B621FE089
:1042C000664BDB6A0A3BBA699A421BD1634B1B6B94
:1042D0007A699A4216D101237B6213E05F4BDB6A55
:1042E0000A33BA699A420FD15C4B1B6B7A699A42C6
:1042F0000AD101237B6207E000BF06E000BF04E0B3
:1043000000BF02E000BF00E000BF7B6A002B40F06E
:104310000181534B03F5BB5314331B68012B1AD196
:10432000504B1B68BA699A4230D14F4B1B687A696F
:104330009A4200F0F1807B69A3F10A024A4B1B68A4
:104340009A4200F0E9807B6903F10A02464B1B6840
:104350009A421BD1E0E0444B1B687A699A4215D11E
:10436000404B1B68BA699A4200F0D880BB69A3F140
:104370000A023C4B1B689A4200F0D080BB6903F1F3
:104380000A02384B1B689A4200F0C880344B03F590
:10439000BB5310331A68324913465B0013449B0029
:1043A0000B44BA691A602E4B03F5BB5310331A68DD
:1043B0002B4913465B0013449B000B4404337A697A
:1043C0001A60BB6998B27B6999B2BB699BB2093329
:1043D0009AB27B699BB209339BB24BF6404400947E
:1043E000FDF7F2FA1E4B03F5BB5314331B68012B88
:1043F0003CD1BB6998B27B699BB20A3399B2BB6965
:104400009BB209339AB27B699BB213339BB24BF6D2
:1044100040440094FDF7D8FABB6998B27B699BB21F
:104420000A3B99B2BB699BB209339AB27B699BB2D2
:10443000013B9BB24BF640440094FDF7C5FA084B94
:1044400003F5BB5310331A68054913465B00134448
:104450009B000B44083301221A603BE0D019002076
:10446000540200209400002098000020BB699BB2F9
:104470000A3398B27B6999B2BB699BB213339AB283
:104480007B699BB209339BB24BF640440094FDF725
:104490009BFABB699BB20A3B98B27B6999B2BB6934
:1044A0009BB2013B9AB27B699BB209339BB24BF63C
:1044B00040440094FDF788FA1B4B03F5BB531033BF
:1044C0001A68194913465B0013449B000B440833D8
:1044D00000221A60144B03F5BB5310331B685A1C9F
:1044E000114B03F5BB5310331A600F4B03F5BB534D
:1044F00014331B68002B0CBF01230023DBB21A46C8
:10450000094B03F5BB5314331A600AE000BF32E5D0
:1045100000BF30E500BF2EE500BF2CE500BF2AE557
:1045200000BF2C37BD4690BD5402002080B500AFBF
:10453000024803F0FDFC00BF80BD00BFF42900204D
:1045400080B483B000AF0346FB80084AFB88138029
:10455000064B1A88064B1A80064B00221A8000BFB1
:104560000C37BD465DF8047B704700BF7201002028
:10457000700100206E01002080B483B000AF0346BC
:10458000FB80FB884FF47A7202FB03F3074A136047
:10459000064B1B68064A1360064B00221A8000BFB8
:1045A0000C37BD465DF8047B704700BF7C010020DE
:1045B000780100207401002080B483B000AF03466E
:1045C000FB80084AFB881380064B1A88064B1A802A
:1045D000064B00221A8000BF0C37BD465DF8047BF5
:1045E000704700BF8401002082010020800100206C
:1045F00080B483B000AF0346FB80084AFB88138079
:10460000064B1A88064B1A80064B00221A8000BF00
:104610000C37BD465DF8047B704700BF8A0100205F
:10462000880100208601002080B483B000AF0346DB
:10463000FB80084AFB881380064B1A88064B1A80B9
:10464000064B00221A8000BF0C37BD465DF8047B84
:10465000704700BF6C0100206A0100206801002043
:1046600080B582B000AF78607B681B68B3F1804F83
:1046700061D1334B1B88002B10D0314B1B88013B81
:104680009AB22F4B1A802E4B1B88002B06D12D4B34
:1046900001221A802C4B1A88294B1A802B4B1B881D
:1046A000002B10D0294B1B88013B9AB2274B1A8054
:1046B000264B1B88002B06D1254B01221A80254B47
:1046C0001A88224B1A80244B1B68002B0BD0224BDC
:1046D0001B68013B204A13601F4B1B68002B02D153
:1046E0001E4B01221A801E4B1B88002B0CD01C4B2A
:1046F0001B88013B9AB21A4B1A80194B1B88002B5E
:1047000002D1184B01221A80174B1B88002B10D0A6
:10471000154B1B88013B9AB2134B1A80124B1B8816
:10472000002B06D1114B01221A80114B1A880E4B17
:104730001A80FDF79DFD00BF0837BD4680BD00BF54
:10474000700100206E010020720100206A0100202B
:10475000680100206C010020780100207401002015
:1047600082010020800100208801002086010020B5
:104770008A01002080B500AF174B184A1A60164B0B
:104780004FF482725A60144B00229A60124B00223E
:10479000DA60114B00221A610F4B00225A610E4B56
:1047A0004FF400729A610C4B0022DA610A4B00222E
:1047B0001A62094B00225A62074B00229A62064B8A
:1047C0000A22DA62044802F073FD0346002B01D08E
:1047D000FDF7AEFF00BF80BD9C29002000300140E6
:1047E00080B58AB000AF786007F1140300221A6028
:1047F0005A609A60DA601A617B681B68194A9342B2
:104800002BD100233B61184B5B6C174A43F4805358
:104810005364154B5B6C03F480533B613B6900238D
:10482000FB60114B1B6B104A43F0020313630E4BEA
:104830001B6B03F00203FB60FB6838237B610223E0
:10484000BB610023FB6103233B6205237B6207F10D
:1048500014031946054801F001FF00BF2837BD4683
:1048600080BD00BF0030014000380240000402401B
:1048700090B593B004AF00233B603B1D2E22002176
:10488000184605F055F80020FDF76CF8324B1B6810
:1048900098B2324B1B6899B2314B1B689AB2314BBC
:1048A0001B689BB2304C0094FDF766FA002302931C
:1048B0001823019348F2304300934FF6FF732B4ABD
:1048C00037213C20FDF732FC00230293182301938B
:1048D00048F2304300934FF6FF73254A64212820A5
:1048E000FDF724FC4FF6FF730093B423B422962106
:1048F0003C20FDF73AF91F4B1B881846FDF71EFFB9
:1049000078633B46796B184605F0BCF83A460123BC
:104910000293182301934FF4784300934FF6FF73EB
:1049200098210020FDF766FC0023029318230193D1
:1049300048F2304300934FF6FF730F4AE6215020B0
:10494000FDF7F4FB002300220021002001F0AEFA65
:1049500000BF3C37BD4690BD7400002078000020A9
:104960007C00002080000020F8DF000864AF000811
:1049700074AF00083401002084AF000880B582B015
:1049800002AF0023009340F24B13DD22BE21B4207E
:10499000FDF71AF800BFBD4680BD000090B583B09A
:1049A00002AFFFF7EBFF234B1B6898B2224B1B684B
:1049B00099B2224B1B689AB2214B1B689BB24FF6EF
:1049C000FF740094FDF74DF81C4B1B6898B21C4B0C
:1049D0001B6899B2174B1B689CB2194B1B689BB2A2
:1049E0005B009AB2144B1B689BB2D31A9BB24FF672
:1049F000FF7200922246FDF734F80E4B1B6898B206
:104A00000D4B1B6899B20B4B1B689CB20C4B1B687F
:104A10009BB25B009AB2084B1B689BB2D31A9BB245
:104A20004FF6FF7200922246FDF71BF800BF0437D5
:104A3000BD4690BD080000201000002004000020AA
:104A40000C00002080B584B004AFC04BDB88012B84
:104A500017D1BF4B01221A60BE4B1B68052B09D032
:104A6000052B11DC032B0ED0042B0DD1B94B0322E7
:104A70001A6009E0B74B04221A60B74B00221A6093
:104A800002E000BF00E000BFB04BDB89012B18D172
:104A9000AF4B01221A60AF4B1B68052B13D0052BBF
:104AA00012DC032B02D0042B07D00DE0A94B04220B
:104AB0001A60A94B01221A6006E0A64B05221A6073
:104AC00002E000BF00E000BFA14B1B68012B40F0DB
:104AD0003A81A04B1B68052B00F0E980052B00F301
:104AE0002F81032B02D0042B4FD029E19B4BD222E4
:104AF0001A609B4BBE221A60002300934FF4A073F0
:104B0000F022B4210020FCF75FFF0023029318235A
:104B1000019348F2304300934FF47843914AC821FF
:104B20000A20FDF703FB002302931823019348F2A8
:104B3000304300934FF6FF738B4AFA210A20FDF7AA
:104B4000F5FA4FF6FF7300934FF4967382224FF4F9
:104B500096716E20FCF785FF4FF6FF7300934FF4BC
:104B60009B7378224FF496716E20FCF77AFF4FF614
:104B7000FF7300934FF4967382224FF49B71782059
:104B8000FCF76FFFFFF70AFFDAE0002300934FF412
:104B9000A073F022B4210020FCF716FF6E4B1B68B7
:104BA000002B3DD16D4BD2221A606D4BBE221A6094
:104BB000002302931823019348F2304300934FF4EB
:104BC0007843694AC8210A20FDF7B0FA002302930E
:104BD0001823019348F2304300934FF6FF73634A62
:104BE000FA210A20FDF7A2FA4FF6FF730093BE23C5
:104BF0008222BE216E20FCF734FF4FF6FF73009334
:104C0000B4237822BE216E20FCF72BFF4FF6FF73F2
:104C10000093BE238222B4217820FCF722FF43E0D8
:104C20004E4B4FF482721A604D4BF0221A600023F3
:104C300002931823019348F2304300934FF6FF7319
:104C4000484AC8210A20FDF771FA0023029318236D
:104C5000019348F2304300934FF47843424AFA21DB
:104C60000A20FDF763FA4FF6FF7300934FF4967333
:104C700082224FF496716E20FCF7F3FE4FF6FF731D
:104C800000934FF49B7378224FF496716E20FCF7DB
:104C9000E8FE4FF6FF7300934FF4967382224FF4B1
:104CA0009B717820FCF7DDFEFFF778FE48E02B4B88
:104CB0004FF482721A602A4BF0221A60002300938C
:104CC0004FF4A073F022B4210020FCF77DFE0023F6
:104CD00002931823019348F2304300934FF6FF7379
:104CE000214AC8210A20FDF721FA00230293182344
:104CF000019348F2304300934FF478431B4AFA2162
:104D00000A20FDF713FA4FF6FF730093BE238222A9
:104D1000BE216E20FCF7A5FE4FF6FF730093B4236F
:104D20007822BE216E20FCF79CFE4FF6FF730093A5
:104D3000BE238222B4217820FCF793FEFFF72EFEDB
:104D4000034B00221A6000BFBD4680BDA8010020B1
:104D50004401002014000020400100200C0000202D
:104D6000100000208CAF00089CAF0008ACAF00081A
:104D700090B595B004AF0346FB800020FCF7F2FD30
:104D80004E4B1B6898B24E4B1B6899B24D4B1B683B
:104D90009AB24D4B1B689BB24C4C0094FCF7ECFF55
:104DA000002302931823019348F2304300934FF6F7
:104DB000FF73474A37213C20FDF7B8F9454A07F110
:104DC000080392E8030018600433198007F10E030A
:104DD0002C220021184604F0ABFDFB881846FDF795
:104DE000ADFCF86307F10803F96B184604F04AFEBE
:104DF00007F10802002302931823019348F230437D
:104E000000934FF6FF7364210020FDF7F3F90023B0
:104E100002931823019348F2304300934FF6FF7337
:104E20002D4A96210020FDF7E5F90023029318236F
:104E3000019348F2304300934FF47843274AC82146
:104E40000A20FDF773F9002302931823019348F217
:104E5000304300934FF6FF73214AFA210A20FDF7F1
:104E600065F9204BD2221A601F4BBE221A60FFF751
:104E700095FD4FF6FF7300934FF4967382224FF423
:104E800096716E20FCF7EDFD4FF6FF7300934FF423
:104E90009B7378224FF496716E20FCF7E2FD4FF67B
:104EA000FF7300934FF4967382224FF49B71782026
:104EB000FCF7D7FD00BF4437BD4690BD740000200D
:104EC000780000207C00002080000020F8DF00082F
:104ED00064AF0008C4AF0008BCAF00088CAF000886
:104EE0009CAF00080C0000201000002080B594B09A
:104EF00004AFA74B9B8B012B40F0A981A54B1B68EE
:104F00000A2B00F2A68101A252F823F0394F0008C3
:104F10005F4F0008714F00085352000853520008B9
:104F2000535200084B5100085B500008DD4F000849
:104F300013500008E3510008964B01221A60964B6B
:104F400000221A80954B00221A80954B03221A608A
:104F5000944B40F2E7321A80FFF78AFC7EE18D4BDA
:104F600002221A608C4B1B881846FFF701FF75E17F
:104F70008B4B1B68052B24D0052B00F36C81032B76
:104F800002D0042B11D066E1874B03221A60814BBB
:104F900003221A60804B1B88804A128811461846EB
:104FA000FDF708FCFEF70EFE17E07F4B04221A60A7
:104FB0007C4B1E221A80774B08221A6000F082FE7A
:104FC0000BE0794B05221A60764B1E221A80714B3A
:104FD00009221A60FBF7D0FA00BF3CE1714B1B8835
:104FE0001846FFF7C9FA4FF47A70FFF7E5FA6D4BF0
:104FF0001A886E4B1A80674B04221A60664B1B8816
:10500000684A128811461846FDF78CFCFEF7DAFD57
:1050100024E1644B1B881846FFF7AEFA4FF47A7010
:10502000FFF7CAFA4FF4FA60FFF7E2FA604B00228A
:105030001A805C4B1A885D4B1A80564B05221A6009
:10504000554B1B88574A128811461846FDF71EFD1E
:10505000FEF7DEFCFEF7B6FD00E1564B1B68002BA9
:105060005FD1514B1B684B4A13604C4B00221A8096
:10507000484B1B68052B30D0052B00F3EE80032B2B
:1050800002D0042B0ED0E8E0474B03221A60424BBB
:105090001B88424A128811461846FDF78BFBFEF723
:1050A00091FD51E0404B04221A60404B1A883D4B61
:1050B0001A803C4B1B881846FFF75EFA4FF47A7053
:1050C000FFF77AFA344B1B88364A12881146184685
:1050D000FDF728FCFEF776FD36E0334B05221A601B
:1050E000324B1A882F4B1A802E4B1B881846FFF71D
:1050F00043FA4FF47A70FFF75FFA4FF4FA60FFF764
:1051000077FA2B4B00221A80234B1B88254A1288E2
:1051100011461846FDF7BAFCFEF754FDFEF778FC81
:1051200012E01C4B01221A601B4B00221A801B4B01
:1051300000221A801A4B03221A601A4B40F2E732FF
:105140001A80FFF795FB88E087E01B4B1B68022B5A
:1051500034D1154B1B680F4A13600E4B1B68042B90
:1051600003D00C4B1B68052B0FD10E4B1B88184628
:10517000FFF702FA4FF47A70FFF71EFA4FF4FA6065
:10518000FFF736FA0A4B00221A80FEF7A3F965E012
:10519000A801002048010020340100203601002031
:1051A00014000020000000204C0100205C010020C1
:1051B000860100203C0100205C000020B14B012250
:1051C0001A60B14B00221A80B04B00221A80B04BFB
:1051D00003221A60AF4B40F2E7321A80FFF748FB18
:1051E0003CE0AD4B1B68032B12D1A64B01221A6089
:1051F000A54B00221A80A54B00221A80A44B032243
:105200001A60A44B40F2E7321A80FFF731FB20E02E
:10521000A24B1B689B4A13609A4B1B68042B03D05C
:10522000984B1B68052B0FD19A4B1B881846FFF72C
:10523000A3F94FF47A70FFF7BFF94FF4FA60FFF764
:10524000D7F9974B00221A80FEF744F901E000BF1E
:1052500004E000BF02E000BF00E000BF894B1B6814
:10526000012B40F0618100237B6007F108032E22AF
:105270000021184604F05CFB834B1B88FB8700234E
:10528000BB874DE1BB8F874A32F81330012B40F0CA
:105290004481BB8F0D2B00F21C8101A252F823F038
:1052A000D952000805530008315300081955000869
:1052B0005D53000885530008AD53000819550008D8
:1052C000D5530008015400082D5400081955000852
:1052D00059540008B1540008FB8F1A469200134439
:1052E0005B009AB2BB8F13449BB20133FB87FB8FE9
:1052F0001846FDF723FAB8633B1DB96B184604F056
:10530000C1FBE6E0FB8F1A46920013445B009AB2A1
:10531000BB8F13449BB20133FB87FB8F1846FDF70D
:105320000DFAB8633B1DB96B184604F0ABFBD0E037
:10533000FB8F1A46920013445B009AB2BB8F134452
:105340009BB20133FB87FB8F1846FDF7F7F9B86373
:105350003B1DB96B184604F095FBBAE0FB8F1A466B
:10536000920013445B009AB2BB8F1344FB87FB8F00
:105370001846FDF7E3F9B8633B1DB96B184604F016
:1053800081FBA6E0FB8F1A46920013445B009AB2A1
:10539000BB8F1344FB87FB8F1846FDF7CFF9B8632B
:1053A0003B1DB96B184604F06DFB92E0FB8F1A466B
:1053B000920013445B009AB2BB8F1344FB87FB8FB0
:1053C0001846FDF7BBF9B8633B1DB96B184604F0EE
:1053D00059FB7EE0FB8F1A46920013445B009AB2A1
:1053E000BB8F13449BB2013BFB87FB8F1846FDF735
:1053F000A5F9B8633B1DB96B184604F043FB68E0A0
:10540000FB8F1A46920013445B009AB2BB8F134481
:105410009BB2013BFB87FB8F1846FDF78FF9B86302
:105420003B1DB96B184604F02DFB52E0FB8F1A466A
:10543000920013445B009AB2BB8F13449BB2013BB2
:10544000FB87FB8F1846FDF779F9B8633B1DB96BF5
:10545000184604F017FB3CE0134BDBB287F83630FC
:10546000FB8F124AA2FB0323DB08FB87FB8F184646
:10547000FDF764F9B8633B1DB96B184604F002FBF5
:1054800027E000BF48010020340100203601002041
:105490001400002000000020600000204C010020CB
:1054A00086010020A8010020F8AF0008CDCCCCCCAC
:1054B000FB8F1A46920013445B00FB87FB8F184654
:1054C000FDF73CF9B8633B1DB96B184604F0DAFAF6
:1054D00000BF00230093B423B42296213C20FCF7A4
:1054E00073FA4FF6FF730093B423B42296213C2045
:1054F000FCF73BFB3A1D01230293182301934FF461
:10550000784300934FF6FF7398210020FCF772FE5A
:105510001E4AFB8F138000E000BFBB8F0133BB87A7
:10552000BB8F0D2B7FF6AEAE194B1B68082B01D13C
:1055300000F01CFD164B1B68092B01D1FBF79EF9EF
:10554000134B1B68012B0ED0114B1B68022B01D192
:10555000FFF778FA0F4B1B8B012B04D10C4B0A225F
:105560001A60FBF7C7FC0A4B1B68042B09D0084BD9
:105570001B68052B05D00020FFF71EF80020FFF761
:1055800037F800BF4037BD4680BD00BF3401002062
:1055900048010020A801002080B483B000AF0023A0
:1055A0007B60104B5B6C0F4A43F4804353640D4B9C
:1055B0005B6C03F480437B607B6800233B60094B9A
:1055C0001B6C084A43F080531364064B1B6C03F0BA
:1055D00080533B603B6800BF0C37BD465DF8047BE1
:1055E000704700BF0038024080B400AFFEE780B4CF
:1055F00000AFFEE780B400AFFEE780B400AFFEE787
:1056000080B400AFFEE780B400AF00BFBD465DF8D8
:10561000047B704780B400AF00BFBD465DF8047BDB
:10562000704780B400AF00BFBD465DF8047B704793
:1056300080B500AF00F02AFE00BF80BD80B500AF8E
:10564000024802F0E5FC00BF80BD00BFF429002045
:1056500080B500AF024803F0ADF900BF80BD00BFC8
:105660003C2A002080B584B004AF254B1B689BB258
:105670000A3399B20023029310230193002300936D
:105680004FF6FF731F4A0020FCF7B4FD1E4B1B684A
:105690009BB2083398B21A4B9A68194B1B68134493
:1056A000DA0F13445B109BB2143B99B201230293AF
:1056B0001023019348F2304300930023134AFCF770
:1056C00035FD114B1B689BB2083398B20C4B9A689E
:1056D0000B4B1B681344DA0F13445B109BB20F3360
:1056E00099B2012302931023019348F230430093AF
:1056F0000023074AFCF71AFD00BFBD4680BD00BF6E
:105700004C000020FCAF00083C0000200CB000085A
:1057100014B0000890B587B004AF874B9A68864BE9
:105720001B681344DA0F13445B10083B7B60824B09
:105730009A68814B1B681344DA0F13445B101C33C7
:105740003B607E4B1B68012B7AD0022B40F0F0802F
:10575000FBF7AAFD7A4B1B689BB2083398B2764BD5
:105760009A68754B1B681344DA0F13445B109BB2A5
:10577000143B99B2012302931023019348F2304362
:1057800000934FF478436F4AFCF7D0FC6C4B1B68D6
:105790009BB2083398B2684B9A68674B1B681344F6
:1057A000DA0F13445B109BB20F3399B201230293BB
:1057B0001023019348F2304300930023624AFCF720
:1057C000B5FC5F4B5B689BB20F3B98B27B6899B2AC
:1057D0005B4B5B689BB20A3B9AB27B689BB2053B12
:1057E0009BB200240094FCF73CF9554B5B689BB2DC
:1057F0000F3B98B27B6899B2514B5B689BB20A3BF6
:105800009AB27B689BB205339BB200240094FCF7EC
:1058100028F94B4B5B689BB20A3B98B27B689BB202
:10582000053B99B2464B5B689BB20A3B9AB27B68D8
:105830009BB205339BB200240094FCF712F977E089
:10584000FBF732FD3E4B1B689BB2083398B23A4BD4
:105850009A68394B1B681344DA0F13445B109BB2F0
:10586000143B99B2012302931023019348F2304371
:1058700000930023334AFCF759FC314B1B689BB261
:10588000083398B22C4B9A682B4B1B681344DA0FE1
:1058900013445B109BB20F3399B201230293102380
:1058A000019348F2304300934FF47843264AFCF7C3
:1058B0003DFC234B5B689BB20F3B98B23B6899B2AF
:1058C0001F4B5B689BB20A3B9AB23B689BB2053B9D
:1058D0009BB200240094FCF7C4F8194B5B689BB2A0
:1058E0000F3B98B23B6899B2154B5B689BB20A3B81
:1058F0009AB23B689BB205339BB200240094FCF73C
:10590000B0F80F4B5B689BB20A3B98B23B689BB206
:10591000053B99B20A4B5B689BB20A3B9AB23B6863
:105920009BB205339BB200240094FCF79AF800BFA9
:1059300000BF0C37BD4690BD4C0000205C0000202D
:105940003C0000200CB0000814B0000880B500AF87
:10595000FBF7A6FBFFF786FEFFF7DCFE00BF80BD6E
:1059600080B500AF1C4B1B68062B33D11B4BDB886B
:10597000012B0FD11A4B01221A601A4B1B68012B05
:1059800002D0022B07D125E0164B02221A60FFF746
:10599000DDFF00E000BF114BDB89012B0ED1104B66
:1059A00001221A600F4B1B68012B12D0022B06D16B
:1059B0000C4B01221A60FFF7C9FF00E000BF084B43
:1059C0001B68012B06D1FFF7C1FF054B00221A60AF
:1059D00000E000BF80BD00BF48010020A8010020FA
:1059E000540100205C00002080B582B000AF034667
:1059F000FB71FB79012B10D10A4B06221A600A4B6E
:105A000002221A600020FEF7B7FD0020FEF7F0FD2D
:105A1000064B01221A60FFF7A3FF00231846083740
:105A2000BD4680BD480100205C00002054010020DC
:105A300080B400AF01231846BD465DF8047B704773
:105A400080B582B000AF7860396003F047FF03464D
:105A500016221A604FF0FF3318460837BD4680BD46
:105A600080B582B000AF78604FF0FF317868FFF703
:105A7000E7FFFEE780B586B000AFF860B9607A60F6
:105A800000237B610AE0AFF300800146BB685A1C2B
:105A9000BA60CAB21A707B6901337B617A697B682C
:105AA0009A42F0DB7B6818461837BD4680BD80B54A
:105AB00086B000AFF860B9607A6000237B6109E0CE
:105AC000BB685A1CBA601B781846AFF300807B692C
:105AD00001337B617A697B689A42F1DB7B68184607
