:020000040800F2
:10000000000002208D2F0008912C0008972C00087A
:100010009D2C0008A32C0008A92C0008000000005B
:10002000000000000000000000000000AF2C0008ED
:10003000BD2C000800000000CB2C0008D92C0008C3
:10004000DD2F0008DD2F0008DD2F0008DD2F000860
:10005000DD2F0008DD2F0008DD2F0008DD2F000850
:10006000DD2F0008DD2F0008DD2F0008DD2F000840
:10007000DD2F0008DD2F0008DD2F0008DD2F000830
:10008000DD2F0008DD2F0008DD2F0008DD2F000820
:10009000DD2F0008DD2F0008DD2F0008DD2F000810
:1000A000DD2F0008DD2F0008DD2F0008DD2F000800
:1000B000E52C0008DD2F0008DD2F0008DD2F0008EB
:1000C000DD2F0008DD2F0008DD2F0008DD2F0008E0
:1000D000DD2F0008DD2F0008DD2F0008DD2F0008D0
:1000E000DD2F0008DD2F0008DD2F0008DD2F0008C0
:1000F000DD2F0008DD2F0008DD2F0008DD2F0008B0
:10010000DD2F0008DD2F0008DD2F0008DD2F00089F
:10011000DD2F0008DD2F0008DD2F0008DD2F00088F
:10012000DD2F0008DD2F0008DD2F0008DD2F00087F
:10013000DD2F0008DD2F0008DD2F0008DD2F00086F
:10014000DD2F0008DD2F0008DD2F0008DD2F00085F
:10015000DD2F0008DD2F0008DD2F0008DD2F00084F
:10016000DD2F0008DD2F0008DD2F0008DD2F00083F
:10017000DD2F0008DD2F0008DD2F00080000000043
:08018000DD2F0008DD2F00084F
:1001900010B5054C237833B9044B13B10448AFF3C1
:1001A00000800123237010BD7C00002000000000AF
:1001B000E463000808B5034B1BB103490348AFF3E0
:1001C000008008BD0000000080000020E4630008FB
:1001D00001F0FF01102A2BDB10F0070F08D010F8F8
:1001E000013B013A8B422DD010F0070F42B3F6D1FC
:1001F000F0B441EA012141EA014122F007047FF015
:1002000000070023F0E80256083C85EA010586EA6B
:10021000010685FA47F5A3FA87F586FA47F6A5FAA7
:1002200087F68EB9EED1F0BC01F0FF0102F00702B3
:1002300032B110F8013B013A83EA010313B1F8D15E
:100240000020704701387047002D06BF354603383F
:10025000073815F0010F07D1013015F4807F02BF78
:10026000013015F4C03F0130F0BC0138704700BFC9
:1002700053B94AB9002908BF00281CBF4FF0FF310D
:100280004FF0FF3000F06EB9ADF1080C6DE904CE0F
:1002900000F006F8DDF804E0DDE9022304B0704761
:1002A0002DE9F047089D04468C46002B40F08380E2
:1002B0008A42174647D9B2FA82F242B1C2F120000F
:1002C00024FA00F09140974040EA010C94404FEA34
:1002D0001748230CBCFBF8F61FFA87FE08FB16C173
:1002E00043EA014306FB0EF1994209D9FB1806F1D6
:1002F000FF3080F01981994240F21681023E3B4462
:100300005B1AA4B2B3FBF8F008FB103344EA0344D1
:1003100000FB0EFEA64509D93C1900F1FF3380F021
:100320000581A64540F2028102383C4440EA06407D
:10033000A4EB0E0400261DB1D4400023C5E9004300
:100340003146BDE8F08702B9FFDEB2FA82F2002A38
:1003500050D1CB1B4FEA174E1FFA87F80126B3FB8B
:10036000FEFC210C0EFB1C3341EA034108FB0CF39D
:100370008B4207D979180CF1FF3002D28B4200F280
:10038000E9808446C91AA3B2B1FBFEF00EFB10113E
:1003900043EA014408FB00F8A04507D93C1900F1E5
:1003A000FF3302D2A04500F2D9801846A4EB08041E
:1003B00040EA0C40BFE78B4209D9002D00F0B18024
:1003C0000026C5E9000130463146BDE8F087B3FAA2
:1003D00083F6002E4AD18B4202D3824200F2B880CB
:1003E000841A61EB030101208C46002DA8D0C5E9D9
:1003F000004CA5E7C2F1200320FA03F6974001FA6A
:1004000002F04FEA174ED9403043030CB1FBFEF621
:100410001FFA87F80EFB161143EA014306FB08F1A9
:10042000994204FA02F409D9FB1806F1FF3C80F066
:100430008D80994240F28A80023E3B445B1A81B231
:10044000B3FBFEF00EFB103341EA034100FB08F35F
:100450008B4207D9791800F1FF3C73D28B4271D9D6
:1004600002383944CB1A40EA064678E7C6F1200C38
:1004700003FA06F422FA0CF31C4320FA0CF701FAF3
:1004800006F34FEA144E21FA0CF11F433B0CB1FB6B
:10049000FEF91FFA84F80EFB191143EA014109FB2A
:1004A00008FA8A4502FA06F200FA06F308D961183A
:1004B00009F1FF3048D28A4546D9A9F10209214401
:1004C000A1EB0A01BFB2B1FBFEF00EFB101147EA2F
:1004D000014700FB08F8B84507D9E71900F1FF31DB
:1004E0002ED2B8452CD90238274440EA0940A7EB60
:1004F0000807A0FB02894F45C64649461AD317D0C4
:100500005DB1B3EB0E0267EB010707FA0CFCF2409A
:100510004CEA0202F740C5E9002700263146BDE853
:10052000F0872E4628460BE70646E9E61846FDE624
:100530004345E5D2B8EB020E69EB04010138DFE771
:100540000846D2E760468DE78146B9E7664675E71B
:1005500030464AE7ACF1020C394413E702383C4418
:1005600024E700BF704700BF80B500AF012208211B
:10057000024803F079F800BF80BD00BF000C0240C4
:1005800080B584B000AF002208212F4803F06CF83A
:10059000012208212C4803F067F80A2302222B4984
:1005A0002B4803F044FD0023FB604FF400437B81A4
:1005B00000237B603FE07B68002B06DB7B68032B1E
:1005C00003DC7B680433FB6018E07B68032B07DDEA
:1005D0007B68072B04DC7B68C3F10703FB600DE03D
:1005E0007B68072B06DD7B680B2B03DC7B68043301
:1005F000FB6003E07B68C3F11703FB60134B1A88B1
:100600007B8913409BB2002B05D0124AFB68002166
:1006100022F8131009E00F4AFB6832F81330013357
:1006200099B20C4AFB6822F813107B895B087B8126
:100630007B6801337B607B680F2BBCDD00BF00BF94
:100640001037BD4680BD00BF000C0240980000205E
:10065000B8280020C400002080B58EB000AF07F19C
:100660001C0300221A605A609A60DA601A615A61AB
:100670009A613B4600221A605A609A60DA601A61F9
:100680005A619A612F4B4FF020421A602D4B2E4A2F
:100690005A602C4B00229A602A4B0022DA60294BC8
:1006A00000221A61274B10225A61264B00229A61C0
:1006B000244B0022DA61234B00221A62214B0022D4
:1006C0005A62204B4FF480529A621E4B0022DA622B
:1006D0001C4B4FF480421A631A4B00225A63194B89
:1006E00000229A63174B00225A640F23FB610F23E9
:1006F0003B623C237B620023BB621023FB6211231D
:100700003B6300237B6308233B600F237B6009234B
:10071000BB600023FB6010233B6111237B6100233E
:10072000BB613A4607F11C031946064804F062F81B
:100730000346002B01D000F0F1FD00BF3837BD4665
:1007400080BD00BFE4000020040100A080B586B099
:1007500000AF3B1D00221A605A609A60DA601A618D
:100760001C4B1B68002B31D11A4B01221A6000234D
:100770003B60194B9B6B184A43F001039363164B84
:100780009B6B03F001033B603B684FF688737B6013
:100790000223BB600023FB6003233B610C237B61CE
:1007A0003B1D19460D4802F0C3FD4CF2B3737B604C
:1007B0000223BB600023FB6003233B610C237B61AE
:1007C0003B1D1946064802F0B3FD00E000BF183794
:1007D000BD4680BD9C000020003802400010024051
:1007E000000C024080B582B000AF7860FFF7AEFF2A
:1007F00000BF0837BD4680BD80B58CB000AF07F1A3
:100800001C0300221A605A609A60DA601A610023A1
:10081000BB616F4B1B6B6E4A43F0100313636C4B51
:100820001B6B03F01003BB61BB6900237B61684B4A
:100830001B6B674A43F004031363654B1B6B03F0A8
:1008400004037B617B6900233B61614B1B6B604A46
:1008500043F0800313635E4B1B6B03F080033B612B
:100860003B690023FB605A4B1B6B594A43F0010361
:100870001363574B1B6B03F00103FB60FB68002302
:10088000BB60534B1B6B524A43F008031363504B3E
:100890001B6B03F00803BB60BB6800237B604C4B01
:1008A0001B6B4B4A43F040031363494B1B6B03F034
:1008B00040037B607B6800233B60454B1B6B444AD5
:1008C00043F002031363424B1B6B03F002033B60D4
:1008D0003B68002270213F4802F0C6FE00224FF420
:1008E00000513D4802F0C0FE002240213B4802F08A
:1008F000BBFE00224FF48071394802F0B5FE0022A1
:100900000821384802F0B0FE7023FB6101233B62EE
:1009100000237B620023BB6207F11C0319462D48AC
:1009200002F006FD4FF40053FB6101233B620023FC
:100930007B620023BB6207F11C031946264802F0C4
:10094000F7FCC023FB6100233B6200237B6207F1BD
:100950001C031946224802F0EBFC3023FB61002304
:100960003B6200237B6207F11C0319461A4802F020
:10097000DFFC4023FB6101233B6200237B620023F9
:10098000BB6207F11C031946144802F0D1FC4FF476
:100990008073FB6101233B6200237B620023BB6207
:1009A00007F11C0319460E4802F0C2FC0823FB6144
:1009B00001233B6200237B620023BB6207F11C031F
:1009C0001946084802F0B4FC00BF3037BD4680BD70
:1009D00000380240001002400008024000180240A7
:1009E00000000240000C024080B483B000AF034618
:1009F000FB80044AFB88138000BF0C37BD465DF8BE
:100A0000047B7047FEFF0F6080B483B000AF0346E5
:100A1000FB80044AFB88538000BF0C37BD465DF85D
:100A2000047B7047FEFF0F6080B483B000AF064BBD
:100A30005B889BB2FB80FB889BB218460C37BD4697
:100A40005DF8047B704700BFFEFF0F6090B583B078
:100A500000AF0446084611461A462346FB8003466B
:100A6000BB800B467B8013463B802A20FFF7BCFFF0
:100A7000FB881B0A9BB21846FFF7C6FFFB88DBB258
:100A80009BB21846FFF7C0FF7B881B0A9BB2184633
:100A9000FFF7BAFF7B88DBB29BB21846FFF7B4FFC3
:100AA0002B20FFF7A1FFBB881B0A9BB21846FFF75C
:100AB000ABFFBB88DBB29BB21846FFF7A5FF3B88B4
:100AC0001B0A9BB21846FFF79FFF3B88DBB29BB225
:100AD0001846FFF799FF2C20FFF786FF00BF0C3761
:100AE000BD4690BD80B584B000AF0346FB80154B7A
:100AF0001B88013B9AB2134B5B88013B9BB20021E0
:100B00000020FFF7A3FF0023FB8111E00023BB813E
:100B100006E0FB881846FFF777FFBB890133BB81EE
:100B2000084B5B88BA899A42F3D3FB890133FB8176
:100B3000044B1B88FA899A42E8D300BF00BF1037E4
:100B4000BD4680BD3401002090B585B000AF04469D
:100B5000084611461A462346FB800346BB800B46D7
:100B60007B8013463B807B88013B9AB23B88013BEC
:100B70009BB2B988F888FFF769FFBB88FB8110E05A
:100B8000FB88BB8106E03B8C1846FFF73DFFBB8925
:100B90000133BB81BA897B889A42F4D3FB89013344
:100BA000FB81FA893B889A42EAD300BF00BF143721
:100BB000BD4690BD80B582B000AF0346FB800B46BA
:100BC000BB8013467B80BB88FA88B988F888FFF71A
:100BD0003DFF7B881846FFF717FF00BF0837BD466B
:100BE00080BD000090B587B000AF044608461146AE
:100BF0001A462346FB800346BB800B46FB70134618
:100C00003B8000237B75FB883B8297F82C305B0888
:100C1000FB73FB7BDB08DBB21A46FB7B03F00703AD
:100C2000DBB2002B14BF01230023DBB213449AB2C2
:100C300097F82C309BB212FB03F3BB81FB78203B6F
:100C4000FB70FB7B9AB2FB8813449BB2013B9CB2C6
:100C500097F82C309AB2BB8813449BB2013B9BB2ED
:100C6000B988F8882246FFF7F1FE00237B827AE0FC
:100C700097F82C300C2B28D097F82C30102B08D15B
:100C8000FA787B8A3C4912010A4413441B78FB75AD
:100C90001BE097F82C30182B0BD1FA78798A37485B
:100CA00013465B0013441B0103440B441B78FB7584
:100CB0000BE097F82C30202B5AD1FA787B8A3049F8
:100CC00092010A4413441B78FB750023BB7544E072
:100CD00097F83030002B20D1FA7DBB7D42FA03F328
:100CE00003F00103002B04D03B881846FFF78CFE6D
:100CF00003E03B8D1846FFF787FE7B7D01337B7554
:100D00007B7DFA7BB3FBF2F102FB01F29B1ADBB2B3
:100D1000002B1FD100237B7522E0FA7DBB7D42FAB8
:100D200003F303F00103002B05D03A88B988FB8850
:100D30001846FFF73FFFFB880133FB80FA883B8AA8
:100D4000D21AFB7B9A4205D13B8AFB80BB880133D8
:100D5000BB8005E0BB7D0133BB75BB7D072BB7D9DD
:100D60007B8A01337B827A8ABB899A4280D300E0F6
:100D700000BF1C37BD4690BD14640008046A00081B
:100D8000D47B000880B483B000AF0346FB71FB79CD
:100D90001B09DBB203F00303DBB2002B07D00A4BC5
:100DA0004FF4A0721A80084BF0225A8006E0064BDE
:100DB000F0221A80044B4FF4A0725A8000BF0C3707
:100DC000BD465DF8047B70473401002080B500AF5C
:100DD00000224FF40051AA4802F046FC4FF4FA708A
:100DE00002F070F901224FF40051A54802F03CFCDA
:100DF0004FF4FA7002F066F90020FFF7C3FFD3202A
:100E0000FFF7F2FDFFF710FE03461A469D4B9A804E
:100E1000FFF70AFE03461A469A4B9A80FFF704FE34
:100E200003461A46974B9A80964B9B881B029AB2B0
:100E3000944B9A80FFF7F8FD03461A46914B9B8826
:100E400013439AB28F4B9A80CF20FFF7CDFD00203D
:100E5000FFF7DAFDC120FFF7D7FD3020FFF7D4FD03
:100E6000ED20FFF7C1FD6420FFF7CEFD0320FFF763
:100E7000CBFD1220FFF7C8FD8120FFF7C5FDE8205C
:100E8000FFF7B2FD8520FFF7BFFD1020FFF7BCFD87
:100E90007A20FFF7B9FDCB20FFF7A6FD3920FFF739
:100EA000B3FD2C20FFF7B0FD0020FFF7ADFD34208F
:100EB000FFF7AAFD0220FFF7A7FDF720FFF794FD3B
:100EC0002020FFF7A1FDEA20FFF78EFD0020FFF7AD
:100ED0009BFD0020FFF798FDC020FFF785FD1B203C
:100EE000FFF792FDC120FFF77FFD0120FFF78CFD8A
:100EF000C520FFF779FD3020FFF786FD3020FFF792
:100F000083FDC720FFF770FDB720FFF77DFD36207A
:100F1000FFF76AFD0820FFF777FD3A20FFF764FD31
:100F20005520FFF771FDB120FFF75EFD0020FFF7B0
:100F30006BFD1A20FFF768FDB620FFF755FD0A206C
:100F4000FFF762FDA220FFF75FFDF220FFF74CFDE7
:100F50000020FFF759FD2620FFF746FD0120FFF78F
:100F600053FDE020FFF740FD0F20FFF74DFD2A2045
:100F7000FFF74AFD2820FFF747FD0820FFF744FD53
:100F80000E20FFF741FD0820FFF73EFD5420FFF73C
:100F90003BFDA920FFF738FD4320FFF735FD0A2070
:100FA000FFF732FD0F20FFF72FFD0020FFF72CFD8C
:100FB0000020FFF729FD0020FFF726FD0020FFF7A6
:100FC00023FDE120FFF710FD0020FFF71DFD152098
:100FD000FFF71AFD1720FFF717FD0720FFF714FD95
:100FE0001120FFF711FD0620FFF70EFD2B20FFF764
:100FF0000BFD5620FFF708FD3C20FFF705FD0520FF
:10100000FFF702FD1020FFF7FFFC0F20FFF7FCFCAD
:101010003F20FFF7F9FC3F20FFF7F6FC0F20FFF71A
:10102000F3FC2B20FFF7E0FC0020FFF7EDFC002095
:10103000FFF7EAFC0120FFF7E7FC3F20FFF7E4FCA5
:101040002A20FFF7D1FC0020FFF7DEFC0020FFF78D
:10105000DBFC0020FFF7D8FCEF20FFF7D5FC1120C8
:10106000FFF7C2FC782002F02DF82920FFF7BCFC26
:1010700001224FF48071044802F0F6FA00BF80BDEF
:1010800000080240340100200000024090B58BB0FF
:1010900004AFBA601A460346FB810B46BB81134678
:1010A000FB80FB89BB820023FB7548E0FB7D002BA6
:1010B00045D1FA89264B1B88194697F82C305B08D6
:1010C000DBB2CB1A9A423FDCBA89214B5B881946C6
:1010D00097F82C30CB1A9A4236DCBB681B78802BF1
:1010E00002D90123FB752AE0BB681B780D2B0BD1BD
:1010F00097F82C309AB2BB891344BB81BB8AFB8121
:10110000BB680133BB6017E0BB681A78FC88B989FB
:10111000F88997F83030029397F82C3001933B8D83
:1011200000932346FFF75EFD97F82C305B08DBB297
:101130009AB2FB891344FB81BB680133BB60BB6877
:101140001B78002BB2D100E000BF1C37BD4690BD1C
:101150003401002080B500AF01224021024802F096
:1011600083FA00BF80BD00BF0018024080B582B086
:1011700002AF01F035FF00F03FF8FFF73DFB01F053
:1011800093FE01F0DFFCFFF767FA00F09FF84FF6DF
:10119000FF70FFF7A7FC00F065FF00F09BFE4FF427
:1011A000784300934623F02200210020FFF7CCFC77
:1011B00000F0F0FF0D4B1B88002B04D00B4B0022DE
:1011C0001A80FFF7DDF90A4B1B88002B04D0084B6F
:1011D00000221A8000F0C2FE064B1B88002BE7D0CD
:1011E000044B00221A8001F00DF9E1E7A400002071
:1011F000AA000020B000002080B594B000AF07F135
:10120000200330220021184604F0B4F807F10C0343
:1012100000221A605A609A60DA601A610023BB608B
:10122000284B1B6C274A43F080531364254B1B6CDF
:1012300003F08053BB60BB6800237B60224B1B68BC
:10124000214A43F4804313601F4B1B6803F480431F
:101250007B607B6802233B620123FB6210233B63BC
:101260000223BB630023FB6308233B64A8237B6446
:101270000223BB640423FB6407F12003184602F039
:101280000DFA0346002B01D000F048F80F23FB6055
:1012900002233B6100237B614FF4A053BB614FF4F9
:1012A000A053FB6107F10C030521184602F06EFC08
:1012B0000346002B01D000F031F800BF5037BD4687
:1012C00080BD00BF003802400070004080B500AF14
:1012D00000222021104802F0C7F9002240210E48C8
:1012E00002F0C2F9002210210B4802F0BDF901F012
:1012F0006BFBFFF72FFFFFF737F9FFF767FD322092
:1013000001F088FB4FF4967001F068FB4FF4FA602F
:1013100001F09CFB00BF80BD0010024080B400AF14
:1013200072B600BFFEE7000090B583B002AF8F4BEE
:101330009B69032B00F2148101A252F823F000BF35
:10134000D914000859140008D113000851130008DB
:10135000864BDB6A98B2854B1B6B99B2834BDB6A79
:101360009BB209339AB2814B1B6B9BB209339BB280
:101370004FF478440094FFF7E7FB7C4BDB6A98B2AC
:101380007A4B1B6B99B2794BDB6A9BB204339AB2EE
:10139000764B1B6B9BB204339BB200240094FFF787
:1013A000D3FB724BDB6A9BB2053398B26F4B1B6B5E
:1013B00099B26E4BDB6A9BB209339AB26B4B1B6BD3
:1013C0009BB204339BB200240094FFF7BDFBC8E03E
:1013D000664BDB6A98B2654B1B6B99B2634BDB6A59
:1013E0009BB209339AB2614B1B6B9BB209339BB220
:1013F0004FF478440094FFF7A7FB5C4BDB6A98B28C
:101400005A4B1B6B9BB2053399B2584BDB6A9BB2AC
:1014100004339AB2554B1B6B9BB209339BB2002429
:101420000094FFF791FB514BDB6A9BB2053398B2F6
:101430004E4B1B6B9BB2053399B24C4BDB6A9BB294
:1014400009339AB2494B1B6B9BB209339BB2002400
:101450000094FFF779FB84E0444BDB6A98B2434B7E
:101460001B6B99B2414BDB6A9BB209339AB23F4B7B
:101470001B6B9BB209339BB24FF478440094FFF787
:1014800063FB3A4BDB6A98B2384B1B6B99B2374B14
:10149000DB6A9BB204339AB2344B1B6B9BB20433AE
:1014A0009BB200240094FFF74FFB304BDB6A98B2ED
:1014B0002E4B1B6B9BB2053399B22C4BDB6A9BB254
:1014C00004339AB2294B1B6B9BB209339BB20024A5
:1014D0000094FFF739FB44E0244BDB6A98B2234BBE
:1014E0001B6B99B2214BDB6A9BB209339AB21F4B3B
:1014F0001B6B9BB209339BB24FF478440094FFF707
:1015000023FB1A4BDB6A9BB2053398B2174B1B6B5C
:1015100099B2164BDB6A9BB209339AB2134B1B6B21
:101520009BB204339BB200240094FFF70DFB0F4BDA
:10153000DB6A9BB2053398B20C4B1B6B9BB2053335
:1015400099B20A4BDB6A9BB209339AB2074B1B6B09
:101550009BB209339BB200240094FFF7F5FA00E038
:1015600000BF00BF0437BD4690BD00BFEC1800208F
:1015700090B589B002AF584B9B6A002B40F0A78012
:10158000554B9B69002B03D1534B5B6898479FE0F9
:10159000514B01229A6100237B6191E07B69002B12
:1015A00028D14D4A7B690533DB00134407F10C0257
:1015B000043393E8030082E80300474A7B6905335C
:1015C000DB0013445B68A3F10A0243497B690533DE
:1015D000DB000B445A60404A7B690533DB0013444F
:1015E0009A683D497B690533DB000B449A60FFF73D
:1015F0009BFE62E0384A7B690533DB0013443A1DE9
:10160000043393E8030082E80300334A7B6905331F
:10161000DB001344043307F10C0292E8030083E873
:10162000030007F10C033A1D92E8030083E803006E
:101630007B69012B23D1284A7B690533DB001344E6
:101640005B6898B2244A7B690533DB0013449B68CE
:1016500099B2214A7B690533DB0013445B689BB276
:1016600009339AB21C4C7B690533DB0023449B6829
:101670009BB209339BB200240094FFF765FA164B26
:101680005B6A013B7A699A4217D1134B1C333A1DAE
:1016900092E8030083E803007B6898B2BB6899B2C4
:1016A0007B689BB209339AB2BB689BB209339BB289
:1016B0004FF6FF740094FFF747FA7B6901337B61B3
:1016C000054B5B6A7A699A42FFF668AF00E000BF9B
:1016D00000BF1C37BD4690BDEC18002090B589B006
:1016E00002AF584B9B6A002B40F0A780554B9B697B
:1016F000012B03D1534B1B6898479FE0514B0022AD
:101700009A6100237B6191E07B69002B28D14D4ACF
:101710007B690533DB00134407F10C02043393E8C3
:10172000030082E80300474A7B690533DB0013446A
:101730005B6803F10A0243497B690533DB000B4414
:101740005A60404A7B690533DB0013449A683D497F
:101750007B690533DB000B449A60FFF7E5FD62E02F
:10176000384A7B690533DB0013443A1D043393E8A0
:10177000030082E80300334A7B690533DB0013442E
:10178000043307F10C0292E8030083E8030007F139
:101790000C033A1D92E8030083E803007B69012BE8
:1017A00023D1284A7B690533DB0013445B6898B278
:1017B000244A7B690533DB0013449B6899B2214AB4
:1017C0007B690533DB0013445B689BB209339AB233
:1017D0001C4C7B690533DB0023449B689BB20933B7
:1017E0009BB200240094FFF7AFF9164B5B6A013BF4
:1017F0007A699A4217D1134B1C333A1D92E80300C1
:1018000083E803007B6898B2BB6899B27B689BB29F
:1018100009339AB2BB689BB209339BB24FF6FF748F
:101820000094FFF791F97B6901337B61054B5B6A9B
:101830007A699A42FFF668AF00E000BF00BF1C372C
:10184000BD4690BDEC18002090B589B002AF584B52
:101850009B6A002B40F0A780554B9B69022B03D15C
:10186000534BDB6898479FE0514B03229A6100235A
:101870007B6191E07B69002B28D14D4A7B69053360
:10188000DB00134407F10C02043393E8030082E801
:101890000300474A7B690533DB0013445A68444917
:1018A0007B690533DB000B445A60414A7B69053391
:1018B000DB0013449B68A3F10A023D497B690533B1
:1018C000DB000B449A60FFF72FFD62E0384A7B692A
:1018D0000533DB0013443A1D043393E8030082E828
:1018E0000300334A7B690533DB001344043307F1FB
:1018F0000C0292E8030083E8030007F10C033A1D91
:1019000092E8030083E803007B69012B23D1284A76
:101910007B690533DB0013445B6898B2244A7B691A
:101920000533DB0013449B6899B2214A7B69053378
:10193000DB0013445B689BB209339AB21C4C7B6991
:101940000533DB0023449B689BB209339BB2002420
:101950000094FFF7F9F8164B5B6A013B7A699A42EB
:1019600017D1134B1C333A1D92E8030083E80300A0
:101970007B6898B2BB6899B27B689BB209339AB214
:10198000BB689BB209339BB24FF6FF740094FFF71C
:10199000DBF87B6901337B61054B5B6A7A699A42AC
:1019A000FFF668AF00E000BF00BF1C37BD4690BD2A
:1019B000EC18002090B589B002AF584B9B6A002B01
:1019C00040F0A780554B9B69032B03D1534B9B6879
:1019D00098479FE0514B02229A6100237B6191E07E
:1019E0007B69002B28D14D4A7B690533DB0013440A
:1019F00007F10C02043393E8030082E80300474A2E
:101A00007B690533DB0013445A6844497B6905331D
:101A1000DB000B445A60414A7B690533DB00134409
:101A20009B6803F10A023D497B690533DB000B44E7
:101A30009A60FFF779FC62E0384A7B690533DB0086
:101A400013443A1D043393E8030082E80300334A49
:101A50007B690533DB001344043307F10C0292E881
:101A6000030083E8030007F10C033A1D92E803002A
:101A700083E803007B69012B23D1284A7B69053366
:101A8000DB0013445B6898B2244A7B690533DB00B2
:101A900013449B6899B2214A7B690533DB001344E8
:101AA0005B689BB209339AB21C4C7B690533DB003F
:101AB00023449B689BB209339BB200240094FFF738
:101AC00043F8164B5B6A013B7A699A4217D1134B74
:101AD0001C333A1D92E8030083E803007B6898B248
:101AE000BB6899B27B689BB209339AB2BB689BB260
:101AF00009339BB24FF6FF740094FFF725F87B691A
:101B000001337B61054B5B6A7A699A42FFF668AFE5
:101B100000E000BF00BF1C37BD4690BDEC180020A0
:101B200080B400AF0C4BDB6A002B0CDB0A4BDB6A8A
:101B3000E62B08DC084B1B6B452B04DD064B1B6BAF
:101B4000B3F59C7F01DD012300E000231846BD466C
:101B50005DF8047B704700BFEC18002080B483B0B0
:101B600000AF01237B6018E0124BDA6A11497B68F1
:101B70000533DB000B445B689A420BD10D4B1A6BAB
:101B80000C497B680533DB000B449B689A4201D10A
:101B9000012308E07B6801337B60064B5B6A7A684F
:101BA0009A42E1DB002318460C37BD465DF8047B02
:101BB000704700BFEC18002080B400AF094BDA6A10
:101BC000094B1B689A4207D1064B1A6B074B1B68DF
:101BD0009A4201D1012300E000231846BD465DF87A
:101BE000047B7047EC180020000000200400002057
:101BF00080B483B000AF00237B6079E044497A6809
:101C000013465B0013449B000B4408331B68012BF5
:101C100036D1404B196B3E487A6813465B0013443B
:101C20009B00034404331B680A3B99421AD0394B8A
:101C3000196B37487A6813465B0013449B000344D2
:101C400004331B680A3399420CD0324B196B30486D
:101C50007A6813465B0013449B00034404331B68FB
:101C6000994242D12B4BD96A29487A6813465B00C6
:101C700013449B0003441B68994236D1012341E081
:101C8000244BD96A22487A6813465B0013449B00B0
:101C900003441B680A33994218D01E4BD96A1C486A
:101CA0007A6813465B0013449B0003441B680A3B9D
:101CB00099420BD0174BD96A15487A6813465B00D6
:101CC00013449B0003441B6899420ED1114B196BBE
:101CD0000F487A6813465B0013449B0003440433A7
:101CE0001B68994201D101230CE07B6801337B60C2
:101CF000074B03F5BB5310331B687A689A42FFF613
:101D00007DAF002318460C37BD465DF8047B704755
:101D100070010020EC18002090B587B004AFFFF7E9
:101D2000FFFE0346002B1CD00023029328230193BF
:101D30004FF4784300934FF6FF734C4A14210A2066
:101D4000FFF7A4F900230293182301934FF478437B
:101D500000934FF6FF73464A1E211420FFF796F9B1
:101D600081E0FFF7FBFE0346002B1CD0002302930B
:101D7000282301934FF4784300934FF6FF733B4AB7
:101D800014210A20FFF782F90023029318230193FC
:101D90004FF4784300934FF6FF73354A1E21142009
:101DA000FFF774F95FE0FFF723FF0346002B0ED027
:101DB00000230293182301934FF4784300934FF6C6
:101DC000FF732B4A1E211420FFF760F94BE0FFF749
:101DD000F3FE0346002B46D0264B4FF000421A601C
:101DE000254B4FF000421A60244B5B6A0133234AB3
:101DF0005362224B5B6A013B204AD2691F4905337B
:101E0000DB000B445A601D4B5B6A013B1B4A126AA4
:101E10001A490533DB000B449A60184B5B6A013B9F
:101E2000164A0533DB0013445B687B60134B5B6A27
:101E3000013B124A0533DB0013449B683B607B681F
:101E400098B23B6899B27B689BB209339AB23B68FF
:101E50009BB209339BB200240094FEF775FE084B39
:101E600001221A6000BF0C37BD4690BDFC6300081C
:101E7000006400080000002004000020EC1800208E
:101E80000800002080B500AF114B9B69032B1BD8C5
:101E900001A252F823F000BFB91E0008C11E0008BD
:101EA000A91E0008B11E0008094BDB6898470CE02A
:101EB000074B9B68984708E0054B5B68984704E030
:101EC000034B1B68984700E000BF00BF80BD00BF08
:101ED000EC18002080B483B000AF00237B601FE0CB
:101EE0001D497A6813465B0013449B000B44002293
:101EF0001A6019497A6813465B0013449B000B442F
:101F0000043300221A6014497A6813465B001344B4
:101F10009B000B44083300221A607B6801337B600E
:101F20007B68B3F5FA7FDBDB0B4B03F5BB53103358
:101F300000221A60084B03F5BB53143301221A60C8
:101F4000054B03F5BB53183300221A6000BF0C3752
:101F5000BD465DF8047B70477001002080B582B0FB
:101F600002AF3A4B5B89002B06D0394B9B689847F0
:101F7000374B5B69984766E0344B5B8B002B06D090
:101F8000334BDB689847324B5B6998475BE02F4BDC
:101F90009B8A002B06D02E4B5B6898472C4B5B69C5
:101FA000984750E0294B1B8A002B06D0284B1B6812
:101FB0009847274B5B69984745E0244B5B8A002B89
:101FC0001AD0234B9B6A002B0CBF01230023DBB2EA
:101FD0001A461F4B9A621F4B03F5BB5318331B68FD
:101FE000002B0CBF01230023DBB21A46194B03F56B
:101FF000BB5318331A6026E0144B1B8B002B1CD0EC
:102000004FF6FF70FEF76EFD134B4FF000421A6063
:10201000124B4FF000421A6000F024F8FFF75AFF0D
:102020004FF4784300934623F02200210020FEF76E
:102030008BFD0B4B01221A6005E0054B1B6998478D
:10204000034B5B69984700BFBD4680BDC4000020BC
:10205000EC18002070010020000000200400002087
:102060000800002090B585B002AF424B1B681846AF
:1020700003F088F93F4B1B6801333E4A13603E4B27
:102080001422DA623C4B46221A633B4B0A225A6303
:10209000394B46229A63384B0022DA63364B46228C
:1020A0001A6403237B6010E0334A7B680533DB004E
:1020B000134400225A60304A7B680533DB00134426
:1020C00000229A607B6801337B607B68B3F5FA7FFE
:1020D000EADB294B294ADA60274B294A1A60264B4A
:1020E000284A9A60244B284A5A60234B274A1A618F
:1020F000214B274A5A61204B03225A621E4B002271
:102100009A6100233B602CE03B68002B02D1FFF773
:102110000BF923E0184A3B680533DB0013445B6886
:1021200098B2154A3B680533DB0013449B6899B2AB
:10213000114A3B680533DB0013445B689BB20933EB
:102140009AB20D4C3B680533DB0023449B689BB27D
:1021500009339BB200240094FEF7F6FC3B68013380
:102160003B603B68022BCFDD00BF00BF0C37BD4694
:1021700090BD00BFA0000020EC180020B519000899
:102180007115000849180008DD160008851E0008B2
:10219000191D000890B587B002AF934B1B68012B47
:1021A00040F01E810023FB6003F01AF901468F4BBB
:1021B00083FB01239A10CB17D21A13465B001344FA
:1021C000DB00CA1A13469B0013445B001A46884B77
:1021D0001A6003F005F90146864B83FB0123DA10F0
:1021E000CB17D21A13469B0013449A001344CA1A01
:1021F000073213469B0013445B001A467E4B1A605D
:102200000023BB6021E07D4ABB680533DB0013443B
:102210005A68774B1B689A4214D1784ABB680533D9
:10222000DB0013449A68744B1B689A420AD1704BC6
:102230004FF000421A60704B4FF000421A600123C9
:10224000FB6007E0BB680133BB606C4B5B6ABA683C
:102250009A42D8DBFB68002B40F0BE8000237B60F5
:1022600094E067497A6813465B0013449B000B4473
:1022700008331B68012B41D161497A6813465B0022
:1022800013449B000B4404331A685B4B1B689A424F
:102290001DD05B497A6813465B0013449B000B44D6
:1022A00004331B6803F10A02534B1B689A420ED099
:1022B00053497A6813465B0013449B000B44043374
:1022C0001B6803F10A024C4B1B689A425BD1484BD6
:1022D00019684B487A6813465B0013449B0003441B
:1022E000196047497A6813465B0013449B000B440E
:1022F0001B68002B47D00123FB6050E03C4B1B6860
:10230000002B1BD13E497A6813465B0013449B00A7
:102310000B441B6803F10A02354B1B689A420DD02F
:1023200037497A6813465B0013449B000B441B68D3
:10233000A3F10A022E4B1B689A4201D1012100E051
:1023400000212F487A6813465B0013449B00034426
:1023500019602B497A6813465B0013449B000B44B9
:102360001B68002B0FD026497A6813465B00134484
:102370009B000B4404331A681F4B1B689A4202D11E
:102380000123FB600BE07B6801337B601C4B03F592
:10239000BB5310331B687A689A42FFF662AFFB6842
:1023A000002B1BD1124B1B6898B2134B1B6899B2C0
:1023B0000F4B1B689BB209339AB20F4B1B689BB241
:1023C00009339BB240F2CF140094FEF7BDFB064BDD
:1023D00000221A6000BF03E000BFE3E600BFE1E6B1
:1023E00000BF1437BD4690BD08000020ABAAAA2A42
:1023F000000000201F85EB5104000020EC18002095
:102400007001002090B58DB002AF974B03F5BB5320
:1024100018331B68002B40F0D08200237B6202F04F
:10242000DFFF0246914B83FB02139910D317CB1A9F
:10243000162101FB03F3D31A5A1C13469B001344C5
:102440005B00BB6102F0CCFF0146894B83FB01239B
:102450000B441A11CB17D21A13465B001344DB004E
:102460009B1ACA1A083213469B0013445B007B6117
:1024700000233B62E8E07C493A6A13465B00134460
:102480009B000B441B683B6177493A6A13465B002B
:1024900013449B000B4404331B68FB60724B03F531
:1024A000BB5314331B68012B66D16F493A6A13463C
:1024B0005B0013449B000B4408331B68012B20D1A5
:1024C000FB68143B7A699A4213D0FB6814337A692B
:1024D0009A420ED0FB680A3B7A699A4209D0FB689F
:1024E0000A337A699A4204D0FA687B699A4240F0CA
:1024F000A8803A69BB699A4240F0A38001237B62BD
:10250000ABE0FB680A3B7A699A4208D0FB680A3361
:102510007A699A4203D0FA687B699A4203D13A6990
:10252000BB699A4225D0FB680A3B7A699A4208D077
:10253000FB680A337A699A4203D0FA687B699A4247
:1025400004D13B690A3BBA699A4212D0FB680A3B44
:102550007A699A4208D0FB680A337A699A4203D0B2
:10256000FA687B699A426CD13B690A33BA699A422C
:1025700067D101237B6264E03B493A6A13465B0002
:1025800013449B000B4408331B68012B3AD13B6971
:102590000A3BBA699A4208D03B690A33BA699A423F
:1025A00003D03A69BB699A4203D1FA687B699A42BF
:1025B00025D03B690A3BBA699A4208D03B690A3385
:1025C000BA699A4203D03A69BB699A4204D1FB685E
:1025D0000A3B7A699A4212D03B690A3BBA699A422D
:1025E00008D03B690A33BA699A4203D03A69BB6999
:1025F0009A4226D1FB680A337A699A4221D1012393
:102600007B622AE03B69143BBA699A4212D03B696B
:102610001433BA699A420DD03B690A33BA699A42B7
:1026200008D03B690A3BBA699A4203D03A69BB6950
:102630009A4206D1FA687B699A4202D101237B62F1
:102640000BE03B6A01333B62074B03F5BB5310338E
:102650001B683A6A9A42FFF60EAF7B6A002B40F085
:10266000A2810023FB6147E070010020E9A28B2ECC
:10267000C94216B29F4AFB690533DB0013445B680D
:10268000BB609C4AFB690533DB0013449B687B609D
:10269000994B03F5BB5314331B68012B14D1BA6952
:1026A000BB689A4225D17A697B689A4209D07B69D6
:1026B0000A3B7A689A4204D07B690A337A689A4264
:1026C00017D101237B621CE07A697B689A4210D1A2
:1026D000BA69BB689A4209D0BB690A3BBA689A4298
:1026E00004D0BB690A33BA689A4202D101237B62E3
:1026F00007E0FB690133FB617E4B5B6AFA699A4232
:10270000B8DB7B6A002B40F050817A4B9B69032B2E
:102710003FD801A252F823F07D2700086127000866
:102720004527000829270008724BDB6ABA699A42DC
:1027300031D1704B1B6B0A3B7A699A422BD1012332
:102740007B6228E06B4BDB6ABA699A4225D1694B00
:102750001B6B0A337A699A421FD101237B621CE00A
:10276000644BDB6A0A3BBA699A4218D1614B1B6B16
:102770007A699A4213D101237B6210E05D4BDB6AD8
:102780000A33BA699A420BD15A4B1B6B7A699A4247
:1027900006E000BF04E000BF02E000BF00E000BFB1
:1027A0007B6A002B40F00381534B03F5BB5314337A
:1027B0001B68012B1AD1514B1B68BA699A4230D160
:1027C0004F4B1B687A699A4200F0F3807B69A3F152
:1027D0000A024B4B1B689A4200F0EB807B6903F1C5
:1027E0000A02474B1B689A421BD1E2E0444B1B682C
:1027F0007A699A4215D1414B1B68BA699A4200F036
:10280000DA80BB69A3F10A023C4B1B689A4200F0D4
:10281000D280BB6903F10A02384B1B689A4200F070
:10282000CA80354B03F5BB5310331A68324913463F
:102830005B0013449B000B44BA691A602E4B03F5EE
:10284000BB5310331A682C4913465B0013449B009A
:102850000B4404337A691A60BB6998B27B6999B2F8
:10286000BB699BB209339AB27B699BB209339BB2B5
:102870004BF640440094FEF767F91F4B03F5BB533A
:1028800014331B68012B3DD1BB6998B27B699BB2A5
:102890000A3399B2BB699BB209339AB27B699BB286
:1028A00013339BB24BF640440094FEF74DF9BB69DD
:1028B00098B27B699BB20A3B99B2BB699BB2093360
:1028C0009AB27B699BB2013B9BB24BF640440094A9
:1028D000FEF73AF9084B03F5BB5310331A68064963
:1028E00013465B0013449B000B44083301221A601B
:1028F0003CE000BFEC180020700100200000002028
:1029000004000020BB699BB20A3398B27B6999B27C
:10291000BB699BB213339AB27B699BB209339BB2FA
:102920004BF640440094FEF70FF9BB699BB20A3B9B
:1029300098B27B6999B2BB699BB2013B9AB27B6941
:102940009BB209339BB24BF640440094FEF7FCF86F
:102950001C4B03F5BB5310331A681A4913465B002E
:1029600013449B000B44083300221A60154B03F5F7
:10297000BB5310331B685A1C124B03F5BB53103367
:102980001A60104B03F5BB5314331B68002B0CBFAC
:1029900001230023DBB21A460A4B03F5BB53143361
:1029A0001A6000BF09E000BF37E500BF35E500BF92
:1029B00033E500BF31E500BF2FE500BF2C37BD4632
:1029C00090BD00BF7001002080B500AF024801F04B
:1029D000A5FF00BF80BD00BF1029002080B483B0D8
:1029E00000AF0346FB80084AFB881380064B1A8819
:1029F000064B1A80064B00221A8000BF0C37BD46DA
:102A00005DF8047B704700BFAE000020AC000020E2
:102A1000AA00002080B483B000AF0346FB80084AC0
:102A2000FB881380064B1A88064B1A80064B00223F
:102A30001A8000BF0C37BD465DF8047B704700BFAD
:102A4000A8000020A6000020A400002080B483B0CD
:102A500000AF0346FB80084AFB881380064B1A88A8
:102A6000064B1A80064B00221A8000BF0C37BD4669
:102A70005DF8047B704700BFB4000020B200002066
:102A8000B000002080B483B000AF78607B681B6822
:102A9000B3F1804F3ED1224B1B88002B10D0204B2E
:102AA0001B88013B9AB21E4B1A801D4B1B88002BC2
:102AB00006D11C4B01221A801B4B1A88184B1A8016
:102AC0001A4B1B88002B10D0184B1B88013B9AB265
:102AD000164B1A80154B1B88002B06D1144B012274
:102AE0001A80144B1A88114B1A80134B1B88002B29
:102AF00010D0114B1B88013B9AB20F4B1A800E4B22
:102B00001B88002B06D10D4B01221A800C4B1A8812
:102B1000094B1A8000BF0C37BD465DF8047B704737
:102B2000AC000020AA000020AE000020A60000207B
:102B3000A4000020A8000020B2000020B000002067
:102B4000B400002080B500AF174B184A1A60164B2E
:102B50004FF482725A60144B00229A60124B00228A
:102B6000DA60114B00221A610F4B00225A610E4BA2
:102B70004FF400729A610C4B0022DA610A4B00227A
:102B80001A62094B00225A62074B00229A62064BD6
:102B90000A22DA62044801F0C1F90346002B01D091
:102BA000FEF7BCFB00BF80BDB8280020003001400C
:102BB00080B58AB000AF786007F1140300221A6074
:102BC0005A609A60DA601A617B681B68194A9342FE
:102BD0002BD100233B61184B5B6C174A43F48053A5
:102BE0005364154B5B6C03F480533B613B690023DA
:102BF000FB60114B1B6B104A43F0020313630E4B37
:102C00001B6B03F00203FB60FB6838237B6102232C
:102C1000BB610023FB6103233B6205237B6207F159
:102C200014031946054800F083FB00BF2837BD4652
:102C300080BD00BF00300140003802400004024067
:102C400080B483B000AF00237B60104B5B6C0F4AF5
:102C500043F4804353640D4B5B6C03F480437B600F
:102C60007B6800233B60094B1B6C084A43F0805390
:102C70001364064B1B6C03F080533B603B6800BF42
:102C80000C37BD465DF8047B704700BF003802403A
:102C900080B400AFFEE780B400AFFEE780B400AFC1
:102CA000FEE780B400AFFEE780B400AFFEE780B47B
:102CB00000AF00BFBD465DF8047B704780B400AF35
:102CC00000BFBD465DF8047B704780B400AF00BF15
:102CD000BD465DF8047B704780B500AF00F0D2F9C7
:102CE00000BF80BD80B500AF024801F087FE00BF85
:102CF00080BD00BF1029002080B400AF012318461A
:102D0000BD465DF8047B704780B582B000AF786047
:102D1000396002F005FB034616221A604FF0FF33BC
:102D200018460837BD4680BD80B582B000AF7860D8
:102D30004FF0FF317868FFF7E7FFFEE780B586B018
:102D400000AFF860B9607A6000237B610AE0AFF3FE
:102D500000800146BB685A1CBA60CAB21A707B690F
:102D600001337B617A697B689A42F0DB7B681846A5
:102D70001837BD4680BD80B586B000AFF860B96039
:102D80007A6000237B6109E0BB685A1CBA601B783B
:102D90001846AFF300807B6901337B617A697B68F9
:102DA0009A42F1DB7B6818461837BD4680BD80B477
:102DB00083B000AF78604FF0FF3318460C37BD4644
:102DC0005DF8047B704780B483B000AF78603960F1
:102DD0003B684FF400525A60002318460C37BD463A
:102DE0005DF8047B704780B483B000AF7860012346
:102DF00018460C37BD465DF8047B704780B485B03B
:102E000000AFF860B9607A60002318461437BD46F9
:102E10005DF8047B7047000080B586B000AF786035
:102E2000144A154BD31A7B617B693B61134B1B68BA
:102E3000002B02D1114B124A1A60104B1A687B68A2
:102E400013443A699A4207D202F06AFA03460C2206
:102E50001A604FF0FF3309E0084B1B68FB60074B1B
:102E60001A687B681344054A1360FB6818461837D4
:102E7000BD4680BD0000022000040000B800002014
:102E80007029002080B400AF064BD3F88830054A83
:102E900043F47003C2F8883000BFBD465DF8047B80
:102EA000704700BF00ED00E080B586B000AF07F1CD
:102EB000080300221A605A609A60DA603B460022DA
:102EC0001A605A601D4B4FF080421A601B4B40F253
:102ED00047325A60194B00229A60184B6322DA601D
:102EE000164B00221A61154B00229A61134801F01B
:102EF000C5FC0346002B01D0FEF710FA4FF48053B7
:102F0000BB6007F1080319460C4801F07FFE034639
:102F1000002B01D0FEF702FA00233B6000237B6008
:102F20003B461946054802F09BF80346002B01D0AA
:102F3000FEF7F4F900BF1837BD4680BD1029002008
:102F400080B584B000AF78607B681B68B3F1804FB8
:102F500015D10023FB600C4B1B6C0B4A43F00103A3
:102F60001364094B1B6C03F00103FB60FB68002238
:102F700000211C2000F0A5F91C2000F0BEF900BFC4
:102F80001037BD4680BD00BF00380240DFF834D0A6
:102F90000D480E490E4A002302E0D458C4500433B1
:102FA000C4188C42F9D30B4A0B4C002301E0136088
:102FB0000432A242FBD3FFF765FF02F0B7F9FEF738
:102FC000D5F8704700000220000000207C0000209F
:102FD000009500087C0000206C290020FEE700001E
:102FE00080B500AF0E4B1B680D4A43F400731360AD
:102FF0000B4B1B680A4A43F480631360084B1B6841
:10300000074A43F480731360032000F04FF90F2048
:1030100000F008F8FFF714FE0023184680BD00BF3B
:10302000003C024080B582B000AF7860124B1A6855
:10303000124B1B7819464FF47A73B3FBF1F3B2FBD2
:10304000F3F3184600F067F90346002B01D0012383
:103050000EE07B680F2B0AD8002279684FF0FF3012
:1030600000F02FF9064A7B681360002300E001237B
:1030700018460837BD4680BD0C0000201400002013
:103080001000002080B400AF064B1B781A46064B98
:103090001B681344044A136000BFBD465DF8047BFF
:1030A000704700BF140000205829002080B400AFF2
:1030B000034B1B681846BD465DF8047B704700BF94
:1030C0005829002080B584B000AF7860FFF7EEFF8C
:1030D000B8607B68FB60FB68B3F1FF3F05D00A4B2B
:1030E0001B781A46FB681344FB6000BFFFF7DEFF46
:1030F0000246BB68D31AFA689A42F7D800BF00BFED
:103100001037BD4680BD00BF1400002080B485B0DC
:1031100000AF78607B6803F00703FB600C4BDB6853
:10312000BB60BA684FF6FF031340BB60FB681A022E
:10313000BB68134343F0BF6343F40033BB60044AEE
:10314000BB68D36000BF1437BD465DF8047B704791
:1031500000ED00E080B400AF044BDB681B0A03F015
:1031600007031846BD465DF8047B704700ED00E09C
:1031700080B483B000AF0346FB7197F90730002B92
:103180000BDBFB7903F01F02074997F907305B0956
:10319000012000FA02F241F8232000BF0C37BD469F
:1031A0005DF8047B704700BF00E100E080B483B0AD
:1031B00000AF03463960FB7197F90730002B0ADB3B
:1031C0003B68DAB20C4997F907301201D2B20B44CE
:1031D00083F800230AE03B68DAB20849FB7903F080
:1031E0000F03043B1201D2B20B441A7600BF0C3716
:1031F000BD465DF8047B704700E100E000ED00E0B3
:1032000080B489B000AFF860B9607A60FB6803F001
:103210000703FB61FB69C3F10703042B28BF0423E9
:10322000BB61FB690433062B02D9FB69033B00E059
:1032300000237B614FF0FF32BB6902FA03F3DA43EC
:10324000BB681A407B699A404FF0FF317B6901FAF5
:1032500003F3D9437B680B40134318462437BD461C
:103260005DF8047B7047000080B582B000AF7860E5
:103270007B68013BB3F1807F01D301230FE00A4A51
:103280007B68013B53600F214FF0FF30FFF78EFF4B
:10329000054B00229A60044B07221A60002318464F
:1032A0000837BD4680BD00BF10E000E080B582B0A9
:1032B00000AF78607868FFF729FF00BF0837BD4688
:1032C00080BD80B586B000AF0346B9607A60FB73FD
:1032D00000237B61FFF73EFF78617A68B9687869FF
:1032E000FFF78EFF024697F90F3011461846FFF799
:1032F0005DFF00BF1837BD4680BD80B582B000AF0E
:103300000346FB7197F907301846FFF731FF00BFFE
:103310000837BD4680BD80B582B000AF7860786860
:10332000FFF7A2FF034618460837BD4680BD0000E0
:1033300080B489B000AF7860396000237B610023DE
:103340003B610023BB610023FB616BE10122FB6950
:1033500002FA03F37B613B681B687A6913403B61A7
:103360003A697B699A4240F05A813B685B6803F096
:103370000303012B05D03B685B6803F00303022BBA
:1033800030D17B689B68BB61FB695B00032202FA5A
:1033900003F3DB43BA691340BB613B68DA68FB693E
:1033A0005B0002FA03F3BA691343BB617B68BA6935
:1033B0009A607B685B68BB610122FB6902FA03F3D8
:1033C000DB43BA691340BB613B685B681B0903F0D0
:1033D0000102FB6902FA03F3BA691343BB617B681C
:1033E000BA695A603B685B6803F00303032B17D08C
:1033F0007B68DB68BB61FB695B00032202FA03F3B5
:10340000DB43BA691340BB613B689A68FB695B00A8
:1034100002FA03F3BA691343BB617B68BA69DA60E5
:103420003B685B6803F00303022B23D1FB69DA08D6
:103430007B68083253F82230BB61FB6903F0070355
:103440009B000F2202FA03F3DB43BA691340BB610E
:103450003B681A69FB6903F007039B0002FA03F358
:10346000BA691343BB61FB69DA087B680832B96942
:1034700043F822107B681B68BB61FB695B00032279
:1034800002FA03F3DB43BA691340BB613B685B6834
:1034900003F00302FB695B0002FA03F3BA6913430A
:1034A000BB617B68BA691A603B685B6803F44033B0
:1034B000002B00F0B4800023FB60604B5B6C5F4A24
:1034C00043F4804353645D4B5B6C03F48043FB60C7
:1034D000FB685B4AFB699B08023352F82330BB61EF
:1034E000FB6903F003039B000F2202FA03F3DB43A3
:1034F000BA691340BB617B68524A93422BD07B6808
:10350000514A934225D07B68504A93421FD07B6832
:103510004F4A934219D07B684E4A934213D07B683E
:103520004D4A93420DD07B684C4A934207D07B684A
:103530004B4A934201D107230EE008230CE00623F7
:103540000AE0052308E0042306E0032304E0022345
:1035500002E0012300E00023FA6902F00302920076
:103560009340BA691343BB613549FB699B08023339
:10357000BA6941F823203B4B1B68BB613B69DB43C5
:10358000BA691340BB613B685B6803F48033002B6E
:1035900003D0BA693B691343BB61324ABB6913600C
:1035A000304B5B68BB613B69DB43BA691340BB616D
:1035B0003B685B6803F40033002B03D0BA693B69B6
:1035C0001343BB61274ABB695360264B9B68BB61B1
:1035D0003B69DB43BA691340BB613B685B6803F43A
:1035E0008013002B03D0BA693B691343BB611D4AAA
:1035F000BB6993601B4BDB68BB613B69DB43BA690A
:103600001340BB613B685B6803F40013002B03D0DD
:10361000BA693B691343BB61124ABB69D360FB695A
:103620000133FB61FB690F2B7FF690AE00BF00BF3B
:103630002437BD465DF8047B704700BF0038024068
:10364000003801400000024000040240000802402F
:10365000000C02400010024000140240001802401A
:10366000001C0240003C014080B483B000AF786091
:103670000B467B8013467B707B78002B03D07A88C7
:103680007B689A6103E07B881A047B689A6100BFBB
:103690000C37BD465DF8047B7047000080B586B0EE
:1036A00000AF78607B68002B01D1012364E27B6866
:1036B0001B6803F00103002B75D0A34B9B6803F03C
:1036C0000C03042B0CD0A04B9B6803F00C03082BBD
:1036D00012D19D4B5B6803F48003B3F5800F0BD1CF
:1036E000994B1B6803F40033002B5BD07B685B684D
:1036F000002B57D101233FE27B685B68B3F5803F25
:1037000006D1914B1B68904A43F4803313601DE04F
:103710007B685B68B3F5A02F0CD18B4B1B688A4A82
:1037200043F480231360884B1B68874A43F480333B
:1037300013600BE0844B1B68834A23F480331360CF
:10374000814B1B68804A23F4802313607B685B688D
:10375000002B13D0FFF7AAFC386108E0FFF7A6FCA6
:1037600002463B69D31A642B01D9032304E2764B4A
:103770001B6803F40033002BF0D014E0FFF796FC35
:10378000386108E0FFF792FC02463B69D31A642BCC
:1037900001D90323F0E16C4B1B6803F40033002BC9
:1037A000F0D100E000BF7B681B6803F00203002B30
:1037B00063D0654B9B6803F00C03002B0BD0624B6E
:1037C0009B6803F00C03082B1CD15F4B5B6803F470
:1037D0008003002B16D15C4B1B6803F00203002B07
:1037E00005D07B68DB68012B01D00123C4E1564B77
:1037F0001B6823F0F8027B681B69DB005249134306
:103800000B603AE07B68DB68002B20D04F4B012235
:103810001A60FFF74BFC386108E0FFF747FC0246EF
:103820003B69D31A022B01D90323A5E1464B1B6840
:1038300003F00203002BF0D0434B1B6823F0F80287
:103840007B681B69DB00404913430B6015E03F4B6D
:1038500000221A60FFF72AFC386108E0FFF726FC17
:1038600002463B69D31A022B01D9032384E1364B6C
:103870001B6803F00203002BF0D17B681B6803F088
:103880000803002B30D07B685B69002B16D0304BCF
:1038900001221A60FFF70AFC386108E0FFF706FC16
:1038A00002463B69D31A022B01D9032364E1264B5C
:1038B0005B6F03F00203002BF0D015E0244B0022D5
:1038C0001A60FFF7F3FB386108E0FFF7EFFB0246F1
:1038D0003B69D31A022B01D903234DE11A4B5B6FCD
:1038E00003F00203002BF0D17B681B6803F0040394
:1038F000002B00F0A0800023FB75134B1B6C03F022
:103900008053002B0FD10023BB600F4B1B6C0E4A62
:1039100043F0805313640C4B1B6C03F08053BB606B
:10392000BB680123FB750B4B1B6803F48073002BF2
:1039300021D1084B1B68074A43F480731360FFF7DB
:10394000B5FB386111E000BF00380240000047427B
:10395000800E474200700040FFF7A8FB02463B691B
:10396000D31A022B01D9032306E1854B1B6803F40C
:103970008073002BF0D07B689B68012B06D1814BB4
:103980001B6F804A43F0010313671CE07B689B6850
:10399000052B0CD17B4B1B6F7A4A43F00403136752
:1039A000784B1B6F774A43F0010313670BE0754BAD
:1039B0001B6F744A23F001031367724B1B6F714A2C
:1039C00023F0040313677B689B68002B15D0FFF777
:1039D0006DFB38610AE0FFF769FB02463B69D31AC9
:1039E00041F28832934201D90323C5E0654B1B6F36
:1039F00003F00203002BEED014E0FFF757FB386111
:103A00000AE0FFF753FB02463B69D31A41F28832C2
:103A1000934201D90323AFE05A4B1B6F03F002031B
:103A2000002BEED1FB7D012B05D1564B1B6C554A6B
:103A300023F0805313647B689B69002B00F09B800C
:103A4000504B9B6803F00C03082B5CD07B689B6990
:103A5000022B41D14C4B00221A60FFF727FB386143
:103A600008E0FFF723FB02463B69D31A022B01D97A
:103A7000032381E0434B1B6803F00073002BF0D15C
:103A80007B68DA697B681B6A1A437B685B6A9B0107
:103A90001A437B689B6A5B08013B1B041A437B68E3
:103AA000DB6A1B06374913434B60374B01221A6010
:103AB000FFF7FCFA386108E0FFF7F8FA02463B69C5
:103AC000D31A022B01D9032356E02E4B1B6803F0B7
:103AD0000073002BF0D04EE02B4B00221A60FFF752
:103AE000E5FA386108E0FFF7E1FA02463B69D31ACC
:103AF000022B01D903233FE0224B1B6803F0007324
:103B0000002BF0D137E07B689B69012B01D10123A9
:103B100032E01C4B5B68FB607B689B69012B28D003
:103B2000FB6803F480027B68DB699A4221D1FB6861
:103B300003F03F027B681B6A9A421AD1FA6847F683
:103B4000C07313407A68526A9201934211D1FB68A4
:103B500003F440327B689B6A5B08013B1B049A427A
:103B600007D1FB6803F070627B68DB6A1B069A4230
:103B700001D0012300E0002318461837BD4680BD60
:103B800000700040003802406000474280B584B0B9
:103B900000AF786039607B68002B01D10123CCE055
:103BA000684B1B6803F007033A689A420CD9654BCF
:103BB0003A68D2B21A70634B1B6803F007033A6885
:103BC0009A4201D00123B8E07B681B6803F002032E
:103BD000002B20D07B681B6803F00403002B05D06A
:103BE000594B9B68584A43F4E05393607B681B68C9
:103BF00003F00803002B05D0534B9B68524A43F453
:103C000060439360504B9B6823F0F0027B689B6895
:103C10004D4913438B607B681B6803F00103002B45
:103C200044D07B685B68012B07D1474B1B6803F4CA
:103C30000033002B19D101237FE07B685B68022BE6
:103C400003D07B685B68032B07D13F4B1B6803F0F5
:103C50000073002B09D101236FE03B4B1B6803F07D
:103C60000203002B01D1012367E0374B9B6823F04F
:103C700003027B685B68344913438B60FFF716FAD5
:103C8000F8600AE0FFF712FA0246FB68D31A41F225
:103C90008832934201D903234FE02B4B9B6803F0FA
:103CA0000C027B685B689B009A42EBD1254B1B683A
:103CB00003F007033A689A420CD2224B3A68D2B218
:103CC0001A70204B1B6803F007033A689A4201D030
:103CD000012332E07B681B6803F00403002B08D04B
:103CE000194B9B6823F4E0527B68DB681649134349
:103CF0008B607B681B6803F00803002B09D0124B14
:103D00009B6823F460427B681B69DB000E49134308
:103D10008B6000F021F802460B4B9B681B0903F0F7
:103D20000F030A49CB5C22FA03F3094A1360094BDB
:103D30001B681846FFF776F9002318461037BD4672
:103D400080BD00BF003C0240003802409493000850
:103D50000C000020100000202DE9B04384B000AF1B
:103D600000237B600023FB6000233B600023BB60DB
:103D7000674B9B6803F00C03082B0DD0082B00F257
:103D8000BD80002B02D0042B03D0B7E0614BBB6099
:103D9000B7E0614BBB60B4E05D4B5B6803F03F0391
:103DA0007B605B4B5B6803F48003002B4DD0584B6A
:103DB0005B689B091A464FF0000340F2FF104FF07A
:103DC000000102EA000803EA0109404649464FF0B3
:103DD00000024FF000034B0143EAD063420110465A
:103DE0001946B0EB080061EB09014FF000024FF0FB
:103DF00000038B0143EA90638201121A63EB010313
:103E00004FF000004FF00001D90041EA5271D0009C
:103E100002460B4612EB080243EB09034FF0000089
:103E20004FF00001590241EAD251500202460B46BE
:103E3000104619467B681A464FF00003FCF718FA43
:103E400002460B461346FB604AE0314B5B689B0918
:103E50001A464FF0000340F2FF104FF0000102EA53
:103E6000000403EA0105204629464FF000024FF006
:103E700000034B0143EAD063420110461946001B80
:103E800061EB05014FF000024FF000038B0143EAA4
:103E900090638201121A63EB01034FF000004FF0B0
:103EA0000001D90041EA5271D00002460B461219B6
:103EB00045EB03034FF000004FF00001990241EA87
:103EC0009251900202460B46104619467B681A46EC
:103ED0004FF00003FCF7CCF902460B461346FB609B
:103EE0000B4B5B681B0C03F0030301335B003B606F
:103EF000FA683B68B2FBF3F3BB6002E0054BBB60C2
:103F000000BFBB6818461037BD46BDE8B08300BF90
:103F1000003802400024F40000127A0080B582B01C
:103F200000AF78607B68002B01D101237BE07B68C8
:103F30005B6A002B08D17B685B68B3F5827F09D090
:103F40007B680022DA6105E07B6800221A617B68E9
:103F500000225A617B6800229A627B6893F8513094
:103F6000DBB2002B06D17B68002283F850207868F2
:103F7000FEF71EFE7B68022283F851207B681B68D7
:103F80001A687B681B6822F040021A607B685B68D5
:103F900003F482727B689B6803F404431A437B68D2
:103FA000DB6803F400631A437B681B6903F00203B8
:103FB0001A437B685B6903F001031A437B689B69C2
:103FC00003F400731A437B68DB6903F038031A4378
:103FD0007B681B6A03F0800342EA03017B689B6AEB
:103FE00003F400527B681B680A431A607B689B6974
:103FF0001B0C03F004017B685B6A03F010027B6812
:104000001B680A435A607B681B68DA697B681B6817
:1040100022F40062DA617B6800225A657B68012223
:1040200083F85120002318460837BD4680BD80B56F
:1040300088B002AFF860B9603B601346FB80002394
:10404000FB75FB685B68B3F5827F12D1FB689B68E8
:10405000002B0ED1FB68042283F85120FA883B68BC
:1040600000931346BA68B968F86800F0F1F803469F
:10407000EAE0FB6893F85030012B01D10223E3E022
:10408000FB68012283F85020FFF710F83861FB68C5
:1040900093F85130DBB2012B02D00223FB75CAE04A
:1040A000BB68002B02D0FB88002B02D10123FB75DB
:1040B000C1E0FB68042283F85120FB6800225A65A6
:1040C000FB68BA689A63FB68FA889A87FB68FA8883
:1040D000DA87FB6800221A63FB6800229A86FB6875
:1040E0000022DA86FB6800221A64FB6800225A6408
:1040F000FB689B68B3F5004F0FD1FB681B681A681B
:10410000FB681B6822F040021A60FB681B681A6893
:10411000FB681B6822F480421A60FB681B681B68FE
:1041200003F04003402B07D0FB681B681A68FB684C
:104130001B6842F040021A60FB68DB68002B62D10A
:104140002EE0FB681B689B6803F00103012B15D16F
:10415000FB681B6803F10C02FB689B6B1278D2B200
:104160001A70FB689B6B5A1CFB689A63FB68DB8FB9
:104170009BB2013B9AB2FB68DA8711E0FEF796FF2B
:1041800002463B69D31A3A689A4203D83B68B3F1B6
:10419000FF3F02D13B68002B02D10323FB754AE0AD
:1041A000FB68DB8F9BB2002BCBD131E0FB681B6837
:1041B0009B6803F00103012B13D1FB681B68DA68CD
:1041C000FB689B6B92B21A80FB689B6B9A1CFB6826
:1041D0009A63FB68DB8F9BB2013B9AB2FB68DA877C
:1041E00011E0FEF763FF02463B69D31A3A689A4230
:1041F00003D83B68B3F1FF3F02D13B68002B02D1EB
:104200000323FB7517E0FB68DB8F9BB2002BCDD13E
:104210003A693968F86800F045FA0346002B02D085
:10422000FB6820225A65FB685B6D002B02D00123DE
:10423000FB7500E000BFFB68012283F85120FB689A
:10424000002283F85020FB7D18461837BD4680BDFC
:1042500080B58CB000AFF860B9607A607B800123D4
:10426000FB62002387F82B30FB6893F85030012B5A
:1042700001D102238AE1FB68012283F85020FEF776
:1042800015FF7862FB6893F8513087F82330FB689C
:104290005B68FB617B887B8397F82330012B0FD011
:1042A000FB69B3F5827F07D1FB689B68002B03D1C4
:1042B00097F82330042B03D0022387F82B305BE1DF
:1042C000BB68002B05D07B68002B02D07B88002BBD
:1042D00003D1012387F82B304EE1FB6893F851306E
:1042E000DBB2042B03D0FB68052283F85120FB6866
:1042F00000225A65FB687A689A63FB687A88DA87D5
:10430000FB687A889A87FB68BA681A63FB687A88C0
:10431000DA86FB687A889A86FB6800221A64FB6852
:1043200000225A64FB681B681B6803F04003402BA3
:1043300007D0FB681B681A68FB681B6842F04002E4
:104340001A60FB68DB68B3F5006F78D1FB685B68C7
:10435000002B02D07B8B012B66D1FB681B6B1A886C
:10436000FB681B68DA60FB681B6B9A1CFB681A63AE
:10437000FB68DB8E9BB2013B9AB2FB68DA8653E0A6
:10438000FB681B689B6803F00203022B1BD1FB68D0
:10439000DB8E9BB2002B16D0FB6A012B13D1FB687E
:1043A0001B6B1A88FB681B68DA60FB681B6B9A1C26
:1043B000FB681A63FB68DB8E9BB2013B9AB2FB6819
:1043C000DA860023FB62FB681B689B6803F001032D
:1043D000012B19D1FB68DB8F9BB2002B14D0FB683B
:1043E0001B68DA68FB689B6B92B21A80FB689B6B58
:1043F0009A1CFB689A63FB68DB8F9BB2013B9AB205
:10440000FB68DA870123FB62FEF750FE02467B6AF7
:10441000D31ABA6B9A4207D8BB6BB3F1FF3F03D0F4
:10442000032387F82B30A7E0FB68DB8E9BB2002BC1
:10443000A6D1FB68DB8F9BB2002BA1D17CE0FB688F
:104440005B68002B02D07B8B012B6BD1FB681A6B56
:10445000FB681B680C3312781A70FB681B6B5A1CC4
:10446000FB681A63FB68DB8E9BB2013B9AB2FB6868
:10447000DA8657E0FB681B689B6803F00203022B97
:104480001CD1FB68DB8E9BB2002B17D0FB6A012B83
:1044900014D1FB681A6BFB681B680C3312781A7016
:1044A000FB681B6B5A1CFB681A63FB68DB8E9BB2B4
:1044B000013B9AB2FB68DA860023FB62FB681B684B
:1044C0009B6803F00103012B19D1FB68DB8F9BB2C2
:1044D000002B14D0FB681B68DA68FB689B6BD2B2B8
:1044E0001A70FB689B6B5A1CFB689A63FB68DB8F36
:1044F0009BB2013B9AB2FB68DA870123FB62FEF7AD
:10450000D5FD02467B6AD31ABA6B9A4203D8BB6BBD
:10451000B3F1FF3F02D1BB6B002B03D1032387F81C
:104520002B3029E0FB68DB8E9BB2002BA2D1FB680D
:10453000DB8F9BB2002B9DD17A6AB96BF86800F0D3
:1045400017F90346002B06D0012387F82B30FB68B0
:1045500020225A6510E0FB689B68002B0BD10023DA
:104560007B61FB681B68DB687B61FB681B689B6881
:104570007B617B6900E000BFFB68012283F851206A
:10458000FB68002283F8502097F82B30184630370C
:10459000BD4680BD80B588B000AFF860B9603B60B3
:1045A0001346FB71FEF782FD0246BB6A9B1A3A680E
:1045B0001344FB61FEF77AFDB861394B1B685B0160
:1045C0001B0DFA6902FB03F37B6154E03B68B3F116
:1045D000FF3F50D0FEF76AFD0246BB69D31AFA6965
:1045E0009A4202D9FB69002B3DD1FB681B685A68CF
:1045F000FB681B6822F0E0025A60FB685B68B3F559
:10460000827F11D1FB689B68B3F5004F04D0FB6833
:104610009B68B3F5806F07D1FB681B681A68FB685D
:104620001B6822F040021A60FB689B6AB3F5005FCA
:104630000FD1FB681B681A68FB681B6822F40052E4
:104640001A60FB681B681A68FB681B6842F400521A
:104650001A60FB68012283F85120FB68002283F86E
:104660005020032317E07B69002B01D10023FB615D
:104670007B69013B7B61FB681B689A68BB681340E0
:10468000BA689A420CBF01230023DBB21A46FB79B9
:104690009A429BD1002318462037BD4680BD00BFFB
:1046A0000C00002080B586B002AFF860B9607A6077
:1046B000FB685B68B3F5827F11D1FB689B68B3F53B
:1046C000004F04D0FB689B68B3F5806F07D1FB688F
:1046D0001B681A68FB681B6822F040021A60FB68BE
:1046E0005B68B3F5827F2AD1FB689B68B3F5806F66
:1046F00012D07B680093BB6800228021F868FFF726
:1047000049FF0346002B2DD0FB685B6D43F0200270
:10471000FB685A65032326E07B680093BB68002290
:104720000121F868FFF736FF0346002B1AD0FB681B
:104730005B6D43F02002FB685A65032313E07B683E
:104740000093BB6800220121F868FFF723FF0346AE
:10475000002B07D0FB685B6D43F02002FB685A65B5
:10476000032300E0002318461037BD4680BD00003B
:1047700080B588B002AFF860B9607A601B4B1B68E7
:104780001B4AA2FB03235B0D4FF47A7202FB03F377
:104790007B61FB685B68B3F5827F12D17B68009315
:1047A000BB6800228021F868FFF7F4FE0346002B67
:1047B00016D0FB685B6D43F02002FB685A6503234B
:1047C0000FE07B69002B0AD07B69013B7B61FB68B2
:1047D0001B689B6803F08003802BF2D000E000BFD1
:1047E000002318461837BD4680BD00BF0C000020CE
:1047F000819F5E1680B584B000AFF860B9607A60C2
:10480000FB68002B01D1012334E0FB6893F84930A9
:10481000DBB2002B06D1FB68002283F84820F86841
:10482000FBF7E0FFFB681A68FB680833194610467F
:1048300000F0A6FCFB681868FB689B681A46B9681C
:1048400000F0F0FCFB685868FB689A68FB681B6B1B
:10485000796800F025FDFB681B68FA68926853F8D8
:104860002210FB681B68FA68926841F0010143F866
:104870002210002318461037BD4680BD80B582B097
:1048800000AF78607B68002B01D1012341E07B6899
:1048900093F83D30DBB2002B06D17B68002283F811
:1048A0003C207868FEF74CFB7B68022283F83D20B1
:1048B0007B681A687B6804331946104600F096FA44
:1048C0007B68012283F846207B68012283F83E2022
:1048D0007B68012283F83F207B68012283F8402017
:1048E0007B68012283F841207B68012283F8422003
:1048F0007B68012283F843207B68012283F84420EF
:104900007B68012283F845207B68012283F83D20E3
:10491000002318460837BD4680BD000080B485B02E
:1049200000AF78607B6893F83D30DBB2012B01D09B
:1049300001234EE07B68022283F83D207B681B68E0
:10494000DA687B681B6842F00102DA607B681B68EA
:10495000234A934222D07B681B68B3F1804F1DD05D
:104960007B681B681F4A934218D07B681B681E4AED
:10497000934213D07B681B681C4A93420ED07B681D
:104980001B681B4A934209D07B681B68194A9342F3
:1049900004D07B681B68184A934211D17B681B685E
:1049A0009B6803F00703FB60FB68062B10D07B6855
:1049B0001B681A687B681B6842F001021A6007E0F6
:1049C0007B681B681A687B681B6842F001021A60EA
:1049D000002318461437BD465DF8047B704700BFBE
:1049E000000001400004004000080040000C0040AE
:1049F00000040140004001400018004080B582B032
:104A000000AF78607B681B681B6903F00203022B10
:104A100022D17B681B68DB6803F00203022B1BD1E9
:104A20007B681B686FF002021A617B6801221A77AB
:104A30007B681B689B6903F00303002B03D0786835
:104A400000F0B5F905E0786800F0A7F9786800F0A3
:104A5000B8F97B6800221A777B681B681B6903F032
:104A60000403042B22D17B681B68DB6803F004037A
:104A7000042B1BD17B681B686FF004021A617B68F2
:104A800002221A777B681B689B6903F44073002B32
:104A900003D0786800F08BF905E0786800F07DF9C4
:104AA000786800F08EF97B6800221A777B681B68B3
:104AB0001B6903F00803082B22D17B681B68DB68A5
:104AC00003F00803082B1BD17B681B686FF00802FA
:104AD0001A617B6804221A777B681B68DB6903F024
:104AE0000303002B03D0786800F061F905E07868D3
:104AF00000F053F9786800F064F97B6800221A77B7
:104B00007B681B681B6903F01003102B22D17B68A4
:104B10001B68DB6803F01003102B1BD17B681B683C
:104B20006FF010021A617B6808221A777B681B6895
:104B3000DB6903F44073002B03D0786800F037F989
:104B400005E0786800F029F9786800F03AF97B68A8
:104B500000221A777B681B681B6903F00103012B95
:104B60000ED17B681B68DB6803F00103012B07D1C2
:104B70007B681B686FF001021A617868FDF782FF9D
:104B80007B681B681B6903F08003802B0ED17B6858
:104B90001B68DB6803F08003802B07D17B681B68F0
:104BA0006FF080021A61786800F0E0FA7B681B6899
:104BB0001B6903F04003402B0ED17B681B68DB6848
:104BC00003F04003402B07D17B681B686FF0400265
:104BD0001A61786800F0FFF87B681B681B6903F0B6
:104BE0002003202B0ED17B681B68DB6803F02003B9
:104BF000202B07D17B681B686FF020021A61786850
:104C000000F0AAFA00BF0837BD4680BD80B584B069
:104C100000AF786039600023FB737B6893F83C3009
:104C2000012B01D10223B4E07B68012283F83C20F0
:104C30007B68022283F83D207B681B689B68BB6011
:104C4000BB6823F07703BB60BB6823F47F43BB6082
:104C50007B681B68BA689A603B681B68B3F5005FA5
:104C60003ED0B3F5005F00F28780B3F5805F00F0BF
:104C70008680B3F5805F7FD8702B1AD0702B7BD8DD
:104C8000602B50D0602B77D8502B3CD0502B73D852
:104C9000402B58D0402B6FD8302B64D0302B6BD8A2
:104CA000202B60D0202B67D8002B5CD0102B5AD043
:104CB00062E07B6818683B6899683B685A683B68A3
:104CC000DB6800F0ADF97B681B689B68BB60BB6864
:104CD00043F07703BB607B681B68BA689A604FE05B
:104CE0007B6818683B6899683B685A683B68DB6872
:104CF00000F096F97B681B689A687B681B6842F431
:104D000080429A603CE07B6818683B6859683B6861
:104D1000DB681A4600F00AF97B681B6850211846C8
:104D200000F063F92CE07B6818683B6859683B68C1
:104D3000DB681A4600F029F97B681B686021184679
:104D400000F053F91CE07B6818683B6859683B68C1
:104D5000DB681A4600F0EAF87B681B6840211846B9
:104D600000F043F90CE07B681A683B681B68194641
:104D7000104600F03AF903E00123FB7300E000BFA6
:104D80007B68012283F83D207B68002283F83C2069
:104D9000FB7B18461037BD4680BD80B483B000AFA2
:104DA000786000BF0C37BD465DF8047B704780B467
:104DB00083B000AF786000BF0C37BD465DF8047B60
:104DC000704780B483B000AF786000BF0C37BD4639
:104DD0005DF8047B704780B483B000AF786000BF9B
:104DE0000C37BD465DF8047B7047000080B485B089
:104DF00000AF786039607B681B68FB607B68404A65
:104E0000934213D07B68B3F1804F0FD07B683D4A4B
:104E100093420BD07B683C4A934207D07B683B4A65
:104E2000934203D07B683A4A934208D1FB6823F04F
:104E30007003FB603B685B68FA681343FB607B6848
:104E40002F4A93422BD07B68B3F1804F27D07B68E9
:104E50002C4A934223D07B682B4A93421FD07B6815
:104E60002A4A93421BD07B68294A934217D07B6819
:104E7000284A934213D07B68274A93420FD07B681D
:104E8000264A93420BD07B68254A934207D07B6821
:104E9000244A934203D07B68234A934208D1FB689B
:104EA00023F44073FB603B68DB68FA681343FB60E4
:104EB000FB6823F080023B685B691343FB607B68FF
:104EC000FA681A603B689A687B68DA623B681A681D
:104ED0007B689A627B680A4A934203D07B680C4ADB
:104EE000934203D13B681A697B681A637B6801228D
:104EF0005A6100BF1437BD465DF8047B704700BFA0
:104F0000000001400004004000080040000C004088
:104F100000040140004001400044014000480140BD
:104F200000180040001C00400020004080B487B002
:104F300000AFF860B9607A60FB681B6A7B61FB6850
:104F40001B6A23F00102FB681A62FB689B693B61E4
:104F50003B6923F0F0033B617B681B013A69134313
:104F60003B617B6923F00A037B617A69BB68134369
:104F70007B61FB683A699A61FB687A691A6200BFD3
:104F80001C37BD465DF8047B704780B487B000AF26
:104F9000F860B9607A60FB681B6A23F01002FB6856
:104FA0001A62FB689B697B61FB681B6A3B617B69DA
:104FB00023F470437B617B681B037A6913437B6135
:104FC0003B6923F0A0033B61BB681B013A691343B3
:104FD0003B61FB687A699A61FB683A691A6200BFB3
:104FE0001C37BD465DF8047B704780B485B000AFC8
:104FF000786039607B689B68FB60FB6823F0700316
:10500000FB603A68FB68134343F00703FB607B686F
:10501000FA689A6000BF1437BD465DF8047B70479C
:1050200080B487B000AFF860B9607A603B60FB681D
:105030009B687B617B6923F47F437B613B681A0239
:105040007B681A43BB6813437A6913437B61FB682F
:105050007A699A6000BF1C37BD465DF8047B7047D3
:1050600080B485B000AF786039607B6893F83C30DD
:10507000012B01D102235AE07B68012283F83C20F6
:105080007B68022283F83D207B681B685B68FB60BD
:105090007B681B689B68BB60FB6823F07003FB6048
:1050A0003B681B68FA681343FB607B681B68FA68FF
:1050B0005A607B681B68214A934222D07B681B6838
:1050C000B3F1804F1DD07B681B681D4A934218D0F6
:1050D0007B681B681B4A934213D07B681B681A4A83
:1050E00093420ED07B681B68184A934209D07B68B4
:1050F0001B68174A934204D07B681B68154A934289
:105100000CD1BB6823F08003BB603B685B68BA6866
:105110001343BB607B681B68BA689A607B68012296
:1051200083F83D207B68002283F83C20002318464A
:105130001437BD465DF8047B704700BF0000014096
:105140000004004000080040000C00400004014042
:10515000004001400018004080B483B000AF786088
:1051600000BF0C37BD465DF8047B704780B483B048
:1051700000AF786000BF0C37BD465DF8047B704718
:1051800080B485B000AF786039600023FB603B6875
:105190001A687B6853F82230FB60FA68204B134092
:1051A000FB603B685A683B689B681A433B68DB6856
:1051B0001A433B681B691A433B685B691A433B68A7
:1051C0009B691A433B68DB691A433B681B6A1A43B5
:1051D0003B685B6A1A433B689B6A1A433B68DB6A1D
:1051E0001A433B68DB6B1A433B681B6B1343FA683B
:1051F0001343FB603B689B68082B03D1FB6843F0BB
:105200004003FB603B681A687B68F96843F822102A
:10521000002318461437BD465DF8047B704700BF75
:105220008000F0FF80B487B000AFF860B9607A60AA
:1052300000237B617B685A1CFB6853F822307B613A
:105240007B6903F040437B61BB681A68BB685B689D
:105250001B011A43BB689B681B021A43BB68DB68CF
:105260001B041A43BB681B69013B1B051A43BB683F
:105270005B69023B1B061A43BB689B6913437A694F
:1052800013437B617B685A1CFB68796943F82210E1
:10529000002318461C37BD465DF8047B70470000AC
:1052A00080B487B000AFF860B9607A603B600023DB
:1052B0007B613B68B3F5804F22D1FB687A6853F875
:1052C00022307B617A69154B13407B61BB681A6899
:1052D000BB685B681B011A43BB689B681B021A43CF
:1052E000BB68DB681B041A43BB689B6913437A697C
:1052F00013437B61FB687A68796943F8221005E003
:10530000FB687A686FF0704143F82210002318465A
:105310001C37BD465DF8047B704700BF0000F0CF2E
:10532000014B1868704700BF1800002070B50D4D84
:105330000D4C641BA4100026A64209D10B4D0C4C49
:1053400001F050F8641BA4100026A64205D170BDE0
:1053500055F8043B98470136EEE755F8043B98476B
:105360000136F2E7F8940008F8940008F894000871
:10537000FC94000802440346934200D1704703F8AE
:10538000011BF9E738B5104B1D68AB6B0446B3B988
:10539000182000F095F80246A86320B90B4B0C4882
:1053A000422100F05DF80B490B4BC0E900130B4B99
:1053B00083600B23838100210120C2E90401AB6BD0
:1053C00000221C615A6138BD18000020A893000813
:1053D000BF9300080E33CDAB34126DE6ECDE050052
:1053E000174B10B51C68A36BB3B9182000F068F810
:1053F000A06328B90246134B13484E2100F030F841
:10540000124A134BC0E90023124B83600B238381A4
:1054100001220023C0E90423A16B0F480A694B69EC
:105420000E4C504304FB0300A2FB04345A1C0444FA
:1054300044F10000C1E9042020F0004010BD00BF8D
:1054400018000020A8930008BF9300080E33CDABCE
:1054500034126DE6ECDE05002DF451582D7F954C8D
:105460001FB514461A46094B1B680546D8684CB14F
:10547000074B0091CDE9013406492B4600F00EF8A8
:1054800000F08EFC044B1C46F3E700BF1800002020
:105490001E9400082B940008599400080EB403B51C
:1054A000014603AB054853F8042B0068019300F054
:1054B000E3F802B05DF804EB03B070471800002079
:1054C000024B0146186800F053B800BF18000020D6
:1054D00037B5002948D051F8043C0190002BA1F1C8
:1054E0000404B8BFE41800F081FE204A0198136854
:1054F000154633B96360146003B0BDE8304000F076
:105500007BBEA3420BD921686218934204BF1A687C
:105510005B68636004BF521822602C60ECE71A4697
:105520005B680BB1A342FAD911685518A5420BD19B
:10553000246821445418A3421160DDD11C685B68C3
:10554000536021441160D7E702D90C230360D3E7ED
:10555000256861198B4204BF19685B68636004BFEA
:10556000491921605460C7E703B030BDBC0000207A
:10557000F8B5CD1C25F0030508350C2D38BF0C25DA
:10558000002D064601DBA94203D90C23336000201D
:10559000F8BD00F02BFE21490A6814469CB9204F43
:1055A0003B6823B92146304600F02AFB3860294683
:1055B000304600F025FB431C23D10C2333603046DA
:1055C00000F01AFEE3E723685B1B17D40B2B03D90B
:1055D00023601C44256004E06368A2420CBF0B609A
:1055E0005360304600F008FE04F10B00231D20F04C
:1055F0000700C21ACCD01B1AA350C9E72246646820
:10560000CCE7C41C24F00304A042E3D0211A3046A6
:1056100000F0F6FA0130DDD1CFE700BFBC0000207A
:10562000C00000209368013B002B10B4936008DA9F
:105630009469A34201DB0A2903D15DF8044B00F011
:10564000EFBA1368581C1060197008465DF8044BD7
:105650007047F8B506460F461446D518AC4201D13E
:10566000002007E014F8011B3A463046FFF7DAFF46
:10567000431CF3D1F8BD00002DE9F04F0D469DB05D
:1056800014469846064618B183690BB900F0AAFC87
:10569000894B9D421BD175686B6ED90705D4AB89C8
:1056A0009A0502D4A86D00F03BFDAB891B0701D51C
:1056B0002B69EBB92946304600F004FBC0B16B6E94
:1056C000DC070ED54FF0FF301DB0BDE8F08F7B4BEF
:1056D0009D4201D1B568DFE7794B9D4208BFF5686F
:1056E000DAE7AB899805EDD4A86D00F01AFDE9E77B
:1056F0000023099320238DF82930CDF80C80302326
:10570000DFF8C0818DF82A304FF0010923469A4610
:1057100013F8012B0AB1252AF9D1BAEB040B0BD0EF
:105720005B46224629463046FFF793FF013000F0E2
:10573000AA80099A5A4409929AF80030002B00F086
:10574000A28000234FF0FF32CDE905230AF1010AC0
:10575000049307938DF853301A935446052214F896
:10576000011B5848FAF734FD049AD8B9D10644BF52
:1057700020238DF85330130744BF2B238DF853306B
:105780009AF800302A2B15D0079A544600204FF083
:105790000A0C214611F8013B303B092B4ED9B0B120
:1057A000079214E0A0EB080309FA03F313430493F0
:1057B000A246D2E7039B191D1B680391002BBBBFB8
:1057C0005B4242F0020207930793B8BF049223782A
:1057D0002E2B0CD163782A2B35D1039B1A1D1B6805
:1057E0000392002BB8BF4FF0FF3302340593DFF86C
:1057F000E4A0217803225046FAF7EAFC40B14023A6
:10580000A0EB0A0003FA00F0049B03430134049365
:1058100014F8011B2C488DF828100622FAF7D8FC42
:1058200000283FD0294B1BBB039B073323F0070302
:1058300008330393099B3B44099367E70CFB02324F
:105840000C460120A5E700230134059319464FF0CB
:105850000A0C204610F8012B303A092A03D9002BF4
:10586000C5D00591C3E70CFB012104460123F0E7F5
:1058700003AB00932A46164B04A93046AFF30080D1
:105880000746781CD6D16B6ED90705D4AB899A052B
:1058900002D4A86D00F045FCAB895B063FF512AF62
:1058A000099811E703AB00932A46094B04A9304637
:1058B00000F080F8E4E700BFB0940008D09400083E
:1058C000909400085A9400086494000800000000B6
:1058D00053560008609400082DE9F0471646994693
:1058E0008A680B69DDF820809342B8BF13463360A5
:1058F00091F8432007460C460AB101333360236810
:10590000990642BF336802333360256815F00605F7
:1059100006D104F1190AE36832689B1AAB4226DC0F
:1059200094F84320131E226818BF012392062BD43B
:1059300004F1430249463846C04701301ED023686F
:10594000E568326803F00603042B08BFAD1AA368AC
:1059500022690CBF25EAE57500259342C4BF9B1A56
:10596000ED1800261A34B5421AD1002008E00123B0
:10597000524649463846C047013003D14FF0FF3008
:10598000BDE8F0870135C6E7E1185A1C302081F8E0
:105990004300224494F8451082F843100233C7E7CD
:1059A0000123224649463846C0470130E6D0013639
:1059B000D9E700002DE9FF470C469146277E0C9958
:1059C000782F80469A4604F1430207D8622F0AD8FE
:1059D000002F00F0D880582F00F0A38004F1420679
:1059E00084F842703AE0A7F16303152BF6D801A0C2
:1059F00050F823F04D5A0008615A0008DD5900089C
:105A0000DD590008DD590008DD590008615A000819
:105A1000DD590008DD590008DD590008DD5900088E
:105A20006D5B0008915A00084F5B0008DD590008C3
:105A3000DD5900088F5B0008DD590008915A000805
:105A4000DD590008DD590008575B00080B681A1D76
:105A50001B680A6004F1420684F842300123A3E087
:105A6000256808682E0600F104030AD505680B6056
:105A7000002D03DA2D236D4284F843305E480A235B
:105A800019E015F0400F05680B6018BF2DB2EFE765
:105A90000B682568181D0860280601D51D6802E0FE
:105AA0006906FBD51D8854486F2F0CBF08230A23B5
:105AB000002184F843106668A660002EA2BF21680A
:105AC00021F0040121600DB9002E4DD01646B5FB22
:105AD000F3F103FB1157C75D06F8017D2F46BB426A
