:020000040800F2
:1000000000000220DD270008E1240008E7240008A2
:10001000ED240008F3240008F92400080000000083
:10002000000000000000000000000000FF240008A5
:100030000D250008000000001B25000829250008E8
:100040002D2800082D2800082D2800082D2800083C
:100050002D2800082D2800082D2800082D2800082C
:100060002D2800082D2800082D2800082D2800081C
:100070002D2800082D2800082D2800082D2800080C
:100080002D2800082D2800082D2800082D280008FC
:100090002D2800082D2800082D2800082D280008EC
:1000A0002D2800082D2800082D2800082D280008DC
:1000B000352500082D2800082D2800082D280008C7
:1000C0002D2800082D2800082D2800082D280008BC
:1000D0002D2800082D2800082D2800082D280008AC
:1000E0002D2800082D2800082D2800082D2800089C
:1000F0002D2800082D2800082D2800082D2800088C
:100100002D2800082D2800082D2800082D2800087B
:100110002D2800082D2800082D2800082D2800086B
:100120002D2800082D2800082D2800082D2800085B
:100130002D2800082D2800082D2800082D2800084B
:100140002D2800082D2800082D2800082D2800083B
:100150002D2800082D2800082D2800082D2800082B
:100160002D2800082D2800082D2800082D2800081B
:100170002D2800082D2800082D2800080000000068
:080180002D2800082D280008BD
:1001900010B5054C237833B9044B13B10448AFF3C1
:1001A00000800123237010BD8800002000000000A3
:1001B000145F000808B5034B1BB103490348AFF3B4
:1001C000008008BD000000008C000020145F0008C3
:1001D00001F0FF01102A2BDB10F0070F08D010F8F8
:1001E000013B013A8B422DD010F0070F42B3F6D1FC
:1001F000F0B441EA012141EA014122F007047FF015
:1002000000070023F0E80256083C85EA010586EA6B
:10021000010685FA47F5A3FA87F586FA47F6A5FAA7
:1002200087F68EB9EED1F0BC01F0FF0102F00702B3
:1002300032B110F8013B013A83EA010313B1F8D15E
:100240000020704701387047002D06BF354603383F
:10025000073815F0010F07D1013015F4807F02BF78
:10026000013015F4C03F0130F0BC0138704700BFC9
:1002700053B94AB9002908BF00281CBF4FF0FF310D
:100280004FF0FF3000F06EB9ADF1080C6DE904CE0F
:1002900000F006F8DDF804E0DDE9022304B0704761
:1002A0002DE9F047089D04468C46002B40F08380E2
:1002B0008A42174647D9B2FA82F242B1C2F120000F
:1002C00024FA00F09140974040EA010C94404FEA34
:1002D0001748230CBCFBF8F61FFA87FE08FB16C173
:1002E00043EA014306FB0EF1994209D9FB1806F1D6
:1002F000FF3080F01981994240F21681023E3B4462
:100300005B1AA4B2B3FBF8F008FB103344EA0344D1
:1003100000FB0EFEA64509D93C1900F1FF3380F021
:100320000581A64540F2028102383C4440EA06407D
:10033000A4EB0E0400261DB1D4400023C5E9004300
:100340003146BDE8F08702B9FFDEB2FA82F2002A38
:1003500050D1CB1B4FEA174E1FFA87F80126B3FB8B
:10036000FEFC210C0EFB1C3341EA034108FB0CF39D
:100370008B4207D979180CF1FF3002D28B4200F280
:10038000E9808446C91AA3B2B1FBFEF00EFB10113E
:1003900043EA014408FB00F8A04507D93C1900F1E5
:1003A000FF3302D2A04500F2D9801846A4EB08041E
:1003B00040EA0C40BFE78B4209D9002D00F0B18024
:1003C0000026C5E9000130463146BDE8F087B3FAA2
:1003D00083F6002E4AD18B4202D3824200F2B880CB
:1003E000841A61EB030101208C46002DA8D0C5E9D9
:1003F000004CA5E7C2F1200320FA03F6974001FA6A
:1004000002F04FEA174ED9403043030CB1FBFEF621
:100410001FFA87F80EFB161143EA014306FB08F1A9
:10042000994204FA02F409D9FB1806F1FF3C80F066
:100430008D80994240F28A80023E3B445B1A81B231
:10044000B3FBFEF00EFB103341EA034100FB08F35F
:100450008B4207D9791800F1FF3C73D28B4271D9D6
:1004600002383944CB1A40EA064678E7C6F1200C38
:1004700003FA06F422FA0CF31C4320FA0CF701FAF3
:1004800006F34FEA144E21FA0CF11F433B0CB1FB6B
:10049000FEF91FFA84F80EFB191143EA014109FB2A
:1004A00008FA8A4502FA06F200FA06F308D961183A
:1004B00009F1FF3048D28A4546D9A9F10209214401
:1004C000A1EB0A01BFB2B1FBFEF00EFB101147EA2F
:1004D000014700FB08F8B84507D9E71900F1FF31DB
:1004E0002ED2B8452CD90238274440EA0940A7EB60
:1004F0000807A0FB02894F45C64649461AD317D0C4
:100500005DB1B3EB0E0267EB010707FA0CFCF2409A
:100510004CEA0202F740C5E9002700263146BDE853
:10052000F0872E4628460BE70646E9E61846FDE624
:100530004345E5D2B8EB020E69EB04010138DFE771
:100540000846D2E760468DE78146B9E7664675E71B
:1005500030464AE7ACF1020C394413E702383C4418
:1005600024E700BF704700BF80B500AF012208211B
:10057000024802F0A1FC00BF80BD00BF000C024099
:1005800080B584B000AF002208212F4802F094FC0F
:10059000012208212C4802F08FFC0A2302222B4959
:1005A0002B4803F0A8FA0023FB604FF400437B8143
:1005B00000237B603FE07B68002B06DB7B68032B1E
:1005C00003DC7B680433FB6018E07B68032B07DDEA
:1005D0007B68072B04DC7B68C3F10703FB600DE03D
:1005E0007B68072B06DD7B680B2B03DC7B68043301
:1005F000FB6003E07B68C3F11703FB60134B1A88B1
:100600007B8913409BB2002B05D0124AFB68002166
:1006100022F8131009E00F4AFB6832F81330013357
:1006200099B20C4AFB6822F813107B895B087B8126
:100630007B6801337B607B680F2BBCDD00BF00BF94
:100640001037BD4680BD00BF000C0240A400002052
:1006500040110020C800002080B58EB000AF07F127
:100660001C0300221A605A609A60DA601A615A61AB
:100670009A613B4600221A605A609A60DA601A61F9
:100680005A619A612F4B4FF020421A602D4B2E4A2F
:100690005A602C4B00229A602A4B0022DA60294BC8
:1006A00000221A61274B10225A61264B00229A61C0
:1006B000244B0022DA61234B00221A62214B0022D4
:1006C0005A62204B4FF480529A621E4B0022DA622B
:1006D0001C4B4FF480421A631A4B00225A63194B89
:1006E00000229A63174B00225A640F23FB610F23E9
:1006F0003B623C237B620023BB621023FB6211231D
:100700003B6300237B6308233B600F237B6009234B
:10071000BB600023FB6010233B6111237B6100233E
:10072000BB613A4607F11C031946064803F0C6FDB3
:100730000346002B01D000F09DFE00BF3837BD46B8
:1007400080BD00BFE8000020040100A080B586B095
:1007500000AF3B1D00221A605A609A60DA601A618D
:100760001C4B1B68002B31D11A4B01221A6000234D
:100770003B60194B9B6B184A43F001039363164B84
:100780009B6B03F001033B603B684FF688737B6013
:100790000223BB600023FB6003233B610C237B61CE
:1007A0003B1D19460D4802F0EBF94CF2B3737B6028
:1007B0000223BB600023FB6003233B610C237B61AE
:1007C0003B1D1946064802F0DBF900E000BF183770
:1007D000BD4680BDA8000020003802400010024045
:1007E000000C024080B582B000AF7860FFF7AEFF2A
:1007F00000BF0837BD4680BD80B58CB000AF07F1A3
:100800001C0300221A605A609A60DA601A610023A1
:10081000BB616F4B1B6B6E4A43F0100313636C4B51
:100820001B6B03F01003BB61BB6900237B61684B4A
:100830001B6B674A43F004031363654B1B6B03F0A8
:1008400004037B617B6900233B61614B1B6B604A46
:1008500043F0800313635E4B1B6B03F080033B612B
:100860003B690023FB605A4B1B6B594A43F0010361
:100870001363574B1B6B03F00103FB60FB68002302
:10088000BB60534B1B6B524A43F008031363504B3E
:100890001B6B03F00803BB60BB6800237B604C4B01
:1008A0001B6B4B4A43F040031363494B1B6B03F034
:1008B00040037B607B6800233B60454B1B6B444AD5
:1008C00043F002031363424B1B6B03F002033B60D4
:1008D0003B68002270213F4802F0EEFA00224FF4FC
:1008E00000513D4802F0E8FA002240213B4802F066
:1008F000E3FA00224FF48071394802F0DDFA002259
:100900000821384802F0D8FA7023FB6101233B62CA
:1009100000237B620023BB6207F11C0319462D48AC
:1009200002F02EF94FF40053FB6101233B620023D8
:100930007B620023BB6207F11C031946264802F0C4
:100940001FF9C023FB6100233B6200237B6207F198
:100950001C031946224802F013F93023FB610023DF
:100960003B6200237B6207F11C0319461A4802F020
:1009700007F94023FB6101233B6200237B620023D4
:10098000BB6207F11C031946144802F0F9F84FF452
:100990008073FB6101233B6200237B620023BB6207
:1009A00007F11C0319460E4802F0EAF80823FB6120
:1009B00001233B6200237B620023BB6207F11C031F
:1009C0001946084802F0DCF800BF3037BD4680BD4C
:1009D00000380240001002400008024000180240A7
:1009E00000000240000C024080B483B000AF034618
:1009F000FB80044AFB88138000BF0C37BD465DF8BE
:100A0000047B7047FEFF0F6080B483B000AF0346E5
:100A1000FB80044AFB88538000BF0C37BD465DF85D
:100A2000047B7047FEFF0F6080B483B000AF064BBD
:100A30005B889BB2FB80FB889BB218460C37BD4697
:100A40005DF8047B704700BFFEFF0F6090B583B078
:100A500000AF0446084611461A462346FB8003466B
:100A6000BB800B467B8013463B802A20FFF7BCFFF0
:100A7000FB881B0A9BB21846FFF7C6FFFB88DBB258
:100A80009BB21846FFF7C0FF7B881B0A9BB2184633
:100A9000FFF7BAFF7B88DBB29BB21846FFF7B4FFC3
:100AA0002B20FFF7A1FFBB881B0A9BB21846FFF75C
:100AB000ABFFBB88DBB29BB21846FFF7A5FF3B88B4
:100AC0001B0A9BB21846FFF79FFF3B88DBB29BB225
:100AD0001846FFF799FF2C20FFF786FF00BF0C3761
:100AE000BD4690BD80B584B000AF0346FB80154B7A
:100AF0001B88013B9AB2134B5B88013B9BB20021E0
:100B00000020FFF7A3FF0023FB8111E00023BB813E
:100B100006E0FB881846FFF777FFBB890133BB81EE
:100B2000084B5B88BA899A42F3D3FB890133FB8176
:100B3000044B1B88FA899A42E8D300BF00BF1037E4
:100B4000BD4680BD3801002090B585B000AF044699
:100B5000084611461A462346FB800346BB800B46D7
:100B60007B8013463B807B88013B9AB23B88013BEC
:100B70009BB2B988F888FFF769FFBB88FB8110E05A
:100B8000FB88BB8106E03B8C1846FFF73DFFBB8925
:100B90000133BB81BA897B889A42F4D3FB89013344
:100BA000FB81FA893B889A42EAD300BF00BF143721
:100BB000BD4690BD80B582B000AF0346FB800B46BA
:100BC000BB8013467B80BB88FA88B988F888FFF71A
:100BD0003DFF7B881846FFF717FF00BF0837BD466B
:100BE00080BD000090B587B000AF044608461146AE
:100BF0001A462346FB800346BB800B46FB70134618
:100C00003B8000237B75FB883B8297F82C305B0888
:100C1000FB73FB7BDB08DBB21A46FB7B03F00703AD
:100C2000DBB2002B14BF01230023DBB213449AB2C2
:100C300097F82C309BB212FB03F3BB81FB78203B6F
:100C4000FB70FB7B9AB2FB8813449BB2013B9CB2C6
:100C500097F82C309AB2BB8813449BB2013B9BB2ED
:100C6000B988F8882246FFF7F1FE00237B827AE0FC
:100C700097F82C300C2B28D097F82C30102B08D15B
:100C8000FA787B8A3C4912010A4413441B78FB75AD
:100C90001BE097F82C30182B0BD1FA78798A37485B
:100CA00013465B0013441B0103440B441B78FB7584
:100CB0000BE097F82C30202B5AD1FA787B8A3049F8
:100CC00092010A4413441B78FB750023BB7544E072
:100CD00097F83030002B20D1FA7DBB7D42FA03F328
:100CE00003F00103002B04D03B881846FFF78CFE6D
:100CF00003E03B8D1846FFF787FE7B7D01337B7554
:100D00007B7DFA7BB3FBF2F102FB01F29B1ADBB2B3
:100D1000002B1FD100237B7522E0FA7DBB7D42FAB8
:100D200003F303F00103002B05D03A88B988FB8850
:100D30001846FFF73FFFFB880133FB80FA883B8AA8
:100D4000D21AFB7B9A4205D13B8AFB80BB880133D8
:100D5000BB8005E0BB7D0133BB75BB7D072BB7D9DD
:100D60007B8A01337B827A8ABB899A4280D300E0F6
:100D700000BF1C37BD4690BD2C5F00081C650008F5
:100D8000EC76000880B485B000AF03460A46FB71DC
:100D90001346BB710123FB6004E0FA79FB6802FB98
:100DA00003F3FB60BB795A1EBA71002BF5D1FB68C7
:100DB00018461437BD465DF8047B704790B589B07E
:100DC00004AF0446084611461A462346FB800346F4
:100DD000BB800B467B8013467B700023BB7397F868
:100DE00028305B087B730023FB7359E07C887A789A
:100DF000FB7BD31ADBB2013BDBB219460A20FFF7BB
:100E0000C1FF0346B4FBF3F12A4BA3FB0123DA082D
:100E100013469B0013445B00CA1A13463B73BB7B0B
:100E2000002B21D1FA7B7B78013B9A421CDA3B7B79
:100E3000002B17D1FB7B9AB27B7B9BB212FB03F397
:100E40009AB2FB88134498B23A8CB9880023029373
:100E500097F828300193BB8C009313462022FFF7AC
:100E6000C1FE1AE00123BB73FB7B9AB27B7B9BB272
:100E700012FB03F39AB2FB88134498B23B7B3033E6
:100E8000DAB23C8CB9880023029397F8283001939A
:100E9000BB8C00932346FFF7A5FEFB7B0133FB735E
:100EA000FA7B7B789A42A1D300BF00BF1437BD46BE
:100EB00090BD00BFCDCCCCCC80B483B000AF034696
:100EC000FB71FB791B09DBB203F00303DBB2002BE0
:100ED00007D00A4B4FF4A0721A80084BF0225A80B8
:100EE00006E0064BF0221A80044B4FF4A0725A80A1
:100EF00000BF0C37BD465DF8047B70473801002009
:100F000080B500AF00224FF40051AA4801F0D4FF91
:100F10004FF4FA7001F0FEFC01224FF40051A54895
:100F200001F0CAFF4FF4FA7001F0F4FC0020FFF763
:100F3000C3FFD320FFF758FDFFF776FD03461A469F
:100F40009D4B9A80FFF770FD03461A469A4B9A8094
:100F5000FFF76AFD03461A46974B9A80964B9B888B
:100F60001B029AB2944B9A80FFF75EFD03461A4625
:100F7000914B9B8813439AB28F4B9A80CF20FFF7F7
:100F800033FD0020FFF740FDC120FFF73DFD30207D
:100F9000FFF73AFDED20FFF727FD6420FFF734FD52
:100FA0000320FFF731FD1220FFF72EFD8120FFF710
:100FB0002BFDE820FFF718FD8520FFF725FD102009
:100FC000FFF722FD7A20FFF71FFDCB20FFF70CFD76
:100FD0003920FFF719FD2C20FFF716FD0020FFF741
:100FE00013FD3420FFF710FD0220FFF70DFDF72061
:100FF000FFF7FAFC2020FFF707FDEA20FFF7F4FCDB
:101000000020FFF701FD0020FFF7FEFCC020FFF7E6
:10101000EBFC1B20FFF7F8FCC120FFF7E5FC0120EB
:10102000FFF7F2FCC520FFF7DFFC3020FFF7ECFCF8
:101030003020FFF7E9FCC720FFF7D6FCB720FFF709
:10104000E3FC3620FFF7D0FC0820FFF7DDFC3A2058
:10105000FFF7CAFC5520FFF7D7FCB120FFF7C4FC0F
:101060000020FFF7D1FC1A20FFF7CEFCB620FFF7D7
:10107000BBFC0A20FFF7C8FCA220FFF7C5FCF2204A
:10108000FFF7B2FC0020FFF7BFFC2620FFF7ACFC07
:101090000120FFF7B9FCE020FFF7A6FC0F20FFF7C7
:1010A000B3FC2A20FFF7B0FC2820FFF7ADFC082096
:1010B000FFF7AAFC0E20FFF7A7FC0820FFF7A4FC0F
:1010C0005420FFF7A1FCA920FFF79EFC4320FFF767
:1010D0009BFC0A20FFF798FC0F20FFF795FC0020EF
:1010E000FFF792FC0020FFF78FFC0020FFF78CFC3D
:1010F0000020FFF789FCE120FFF776FC0020FFF7D6
:1011000083FC1520FFF780FC1720FFF77DFC0720EC
:10111000FFF77AFC1120FFF777FC0620FFF774FC3D
:101120002B20FFF771FC5620FFF76EFC3C20FFF7E9
:101130006BFC0520FFF768FC1020FFF765FC0F2013
:10114000FFF762FC3F20FFF75FFC3F20FFF75CFCEE
:101150000F20FFF759FC2B20FFF746FC0020FFF77C
:1011600053FC0020FFF750FC0120FFF74DFC3F200F
:10117000FFF74AFC2A20FFF737FC0020FFF744FC6A
:101180000020FFF741FC0020FFF73EFCEF20FFF7B7
:101190003BFC1120FFF728FC782001F0BBFB292045
:1011A000FFF722FC01224FF48071044801F084FE15
:1011B00000BF80BD0008024038010020000002404E
:1011C00080B500AF01224021024801F075FE00BF4A
:1011D00080BD00BF0018024080B500AF3F4B1B88A8
:1011E000DBB29AB23D4B1A803D4B1B881A463D4BF1
:1011F0009B5C1B021AB2394B1B881BB213431BB2F8
:101200009AB2364B1A80364B1B88032B46D801A264
:1012100052F823F02512000843120008611200085A
:101220007F1200082D4B1B8843F0B0039AB22B4B62
:101230001A802A4B1B8823F040039AB2274B1A804E
:101240002DE0264B1B8843F0D0039AB2234B1A8023
:10125000224B1B8823F020039AB2204B1A801EE0F9
:101260001E4B1B8843F0E0039AB21C4B1A801B4BA9
:101270001B8823F010039AB2184B1A800FE0174B0B
:101280001B8843F070039AB2144B1A80134B1B88CF
:1012900023F080039AB2114B1A8000E000BF104B7C
:1012A0001B8801335A4203F0030302F0030258BFC4
:1012B00053429AB20A4B1A80002240210A4801F098
:1012C000FBFD012302220549084802F0D8FA012259
:1012D0004021054801F0F0FD00BF80BD0400002062
:1012E000AC00002000000020001802404011002047
:1012F00080B500AF01F09CFA00F030F8FFF77CFAFF
:1013000001F0FAF901F046F8FFF7A6F900F090F8BD
:101310004FF6FF70FFF7E6FB002003F005FE0246E4
:101320000B461346184603F091FD00F075FE00BF12
:10133000084B1B88002BFBD0064B00221A80FFF7BE
:101340001FF9054B1B68002B01D100F063FF00F073
:1013500019FEECE7B4000020B000002080B594B086
:1013600000AF07F1200330220021184603F066FD8C
:1013700007F10C0300221A605A609A60DA601A6161
:101380000023BB60284B1B6C274A43F08053136437
:10139000254B1B6C03F08053BB60BB6800237B6054
:1013A000224B1B68214A43F4804313601F4B1B6888
:1013B00003F480437B607B6802233B620123FB6272
:1013C00010233B630223BB630023FB6308233B64BE
:1013D000A8237B640223BB640423FB6407F120037E
:1013E000184601F083FD0346002B01D000F042F8BF
:1013F0000F23FB6002233B6100237B614FF4A0536A
:10140000BB614FF4A053FB6107F10C0305211846A3
:1014100001F0E4FF0346002B01D000F02BF800BFE1
:101420005037BD4680BD00BF00380240007000400C
:1014300080B500AF002220210D4801F03DFD0022C3
:1014400040210B4801F038FD00221021084801F02E
:1014500033FD00F04FFFFFF7B3FEFFF785F8FFF70E
:101460004FFD4FF47A7000F04FFF00BF80BD00BF0A
:101470000010024080B400AF72B600BFFEE700006B
:1014800090B589B002AF8F4B9B6A002B40F015815D
:101490008C4B9B69002B03D18A4B5B6898470DE10D
:1014A000884B01229A6100237B61FFE07B69002B5E
:1014B00040F09680834A7B690533DB00134407F1D3
:1014C0000C02043393E8030082E803007D4A7B6941
:1014D0000533DB0013445B68A3F1080279497B699B
:1014E0000533DB000B445A60764A7B690533DB0029
:1014F00013449A6873497B690533DB000B449A6097
:10150000704A7B690533DB0013445B6898B26D4A0F
:101510007B690533DB0013449B6899B2694A7B6998
:101520000533DB0013445B689BB208339AB2654C09
:101530007B690533DB0023449B689BB208339BB275
:101540004FF478440094FFF7FFFA5E4A7B69053355
:10155000DB0013445B6898B25A4A7B690533DB00B1
:1015600013449B6899B2574A7B690533DB001344E7
:101570005B689BB204339AB2524C7B690533DB0043
:1015800023449B689BB204339BB21F240094FFF753
:10159000DBFA4C4A7B690533DB0013445B6898B285
:1015A000484A7B690533DB0013449B689BB20533D3
:1015B00099B2444A7B690533DB0013445B689BB2F4
:1015C00004339AB23F4C7B690533DB0023449B68AC
:1015D0009BB208339BB21F240094FFF7B5FA62E078
:1015E000384A7B690533DB0013443A1D043393E822
:1015F000030082E80300334A7B690533DB001344B0
:10160000043307F10C0292E8030083E8030007F1BA
:101610000C033A1D92E8030083E803007B69012B69
:1016200023D1284A7B690533DB0013445B6898B2F9
:10163000244A7B690533DB0013449B6899B2214A35
:101640007B690533DB0013445B689BB208339AB2B5
:101650001C4C7B690533DB0023449B689BB2083339
:101660009BB200240094FFF76FFA164B5B6A013BB4
:101670007A699A4217D1134B1C333A1D92E8030042
:1016800083E803007B6898B2BB6899B27B689BB221
:1016900008339AB2BB689BB208339BB24FF6FF7413
:1016A0000094FFF751FA7B6901337B61054B5B6A5C
:1016B0007A699A42FFF6FAAE00E000BF00BF1C371D
:1016C000BD4690BD7401002090B589B002AF914B2A
:1016D0009B6A002B40F019818E4B9B69012B03D133
:1016E0008C4B1B68984711E18A4B00229A610023BA
:1016F0007B6103E17B69002B40F09A80854A7B691E
:101700000533DB00134407F10C02043393E80300B4
:1017100082E803007F4A7B690533DB0013445B6882
:1017200003F108027B497B690533DB000B445A60F7
:10173000784A7B690533DB0013449A6875497B69F5
:101740000533DB000B449A60724A7B690533DB008A
:1017500013445B6898B26F4A7B690533DB0013441E
:101760009B6899B26B4A7B690533DB0013445B6865
:101770009BB208339AB2674C7B690533DB00234484
:101780009B689BB208339BB24FF478440094FFF7F8
:10179000DBF9604A7B690533DB0013445B689BB26D
:1017A000053398B25B4A7B690533DB0013449B68C1
:1017B00099B2584A7B690533DB0013445B689BB2DE
:1017C00008339AB2534C7B690533DB0023449B6892
:1017D0009BB204339BB21F240094FFF7B5F94D4A26
:1017E0007B690533DB0013445B689BB2053398B219
:1017F000484A7B690533DB0013449B689BB2053381
:1018000099B2444A7B690533DB0013445B689BB2A1
:1018100008339AB23F4C7B690533DB0023449B6855
:101820009BB208339BB21F240094FFF78DF962E04E
:10183000384A7B690533DB0013443A1D043393E8CF
:10184000030082E80300334A7B690533DB0013445D
:10185000043307F10C0292E8030083E8030007F168
:101860000C033A1D92E8030083E803007B69012B17
:1018700023D1284A7B690533DB0013445B6898B2A7
:10188000244A7B690533DB0013449B6899B2214AE3
:101890007B690533DB0013445B689BB208339AB263
:1018A0001C4C7B690533DB0023449B689BB20833E7
:1018B0009BB200240094FFF747F9164B5B6A013B8B
:1018C0007A699A4217D1134B1C333A1D92E80300F0
:1018D00083E803007B6898B2BB6899B27B689BB2CF
:1018E00008339AB2BB689BB208339BB24FF6FF74C1
:1018F0000094FFF729F97B6901337B61054B5B6A33
:101900007A699A42FFF6F6AE00E000BF00BF1C37CE
:10191000BD4690BD7401002090B589B002AF8F4BD9
:101920009B6A002B40F015818C4B9B69022B03D1E5
:101930008A4BDB6898470DE1884B03229A610023AC
:101940007B61FFE07B69002B40F09680834A7B69D6
:101950000533DB00134407F10C02043393E8030062
:1019600082E803007D4A7B690533DB0013445A6833
:101970007A497B690533DB000B445A60774A7B69FF
:101980000533DB0013449B68A3F1080273497B69AC
:101990000533DB000B449A60704A7B690533DB003A
:1019A00013445B6898B26D4A7B690533DB001344CE
:1019B0009B6899B2694A7B690533DB0013445B6815
:1019C0009BB208339AB2654C7B690533DB00234434
:1019D0009B689BB208339BB24FF478440094FFF7A6
:1019E000B3F85E4A7B690533DB0013445B6898B249
:1019F0005A4A7B690533DB0013449B6899B2574A06
:101A00007B690533DB0013445B689BB204339AB2F5
:101A1000524C7B690533DB0023449B689BB2043343
:101A20009BB21F240094FFF78FF84C4A7B69053363
:101A3000DB0013445B689BB2053398B2474A7B696D
:101A40000533DB0013449B6899B2444A7B69053334
:101A5000DB0013445B689BB208339AB23F4C7B694E
:101A60000533DB0023449B689BB204339BB21F24E5
:101A70000094FFF769F862E0384A7B690533DB00C0
:101A800013443A1D043393E8030082E80300334A09
:101A90007B690533DB001344043307F10C0292E841
:101AA000030083E8030007F10C033A1D92E80300EA
:101AB00083E803007B69012B23D1284A7B69053326
:101AC000DB0013445B6898B2244A7B690533DB0072
:101AD00013449B6899B2214A7B690533DB001344A8
:101AE0005B689BB208339AB21C4C7B690533DB0000
:101AF00023449B689BB208339BB200240094FFF7F9
:101B000023F8164B5B6A013B7A699A4217D1134B53
:101B10001C333A1D92E8030083E803007B6898B207
:101B2000BB6899B27B689BB208339AB2BB689BB220
:101B300008339BB24FF6FF740094FFF705F87B69FA
:101B400001337B61054B5B6A7A699A42FFF6FAAE14
:101B500000E000BF00BF1C37BD4690BD74010020EF
:101B600090B589B002AF914B9B6A002B40F0198170
:101B70008E4B9B69032B03D18C4B9B68984711E1DB
:101B80008A4B02229A6100237B6103E17B69002B6F
:101B900040F09A80854A7B690533DB00134407F1E6
:101BA0000C02043393E8030082E803007F4A7B6958
:101BB0000533DB0013445A687C497B690533DB003D
:101BC0000B445A60794A7B690533DB0013449B68F8
:101BD00003F1080275497B690533DB000B449A6009
:101BE000724A7B690533DB0013445B6898B26F4A25
:101BF0007B690533DB0013449B6899B26B4A7B69B0
:101C00000533DB0013445B689BB208339AB2674C20
:101C10007B690533DB0023449B689BB208339BB28E
:101C20004FF478440094FEF78FFF604A7B690533D8
:101C3000DB0013445B6898B25C4A7B690533DB00C8
:101C400013449B689BB2053399B2584A7B690533AC
:101C5000DB0013445B689BB204339AB2534C7B693C
:101C60000533DB0023449B689BB208339BB21F24DF
:101C70000094FEF769FF4D4A7B690533DB0013448E
:101C80005B689BB2053398B2484A7B690533DB0039
:101C900013449B689BB2053399B2444A7B69053370
:101CA000DB0013445B689BB208339AB23F4C7B69FC
:101CB0000533DB0023449B689BB208339BB21F248F
:101CC0000094FEF741FF62E0384A7B690533DB0090
:101CD00013443A1D043393E8030082E80300334AB7
:101CE0007B690533DB001344043307F10C0292E8EF
:101CF000030083E8030007F10C033A1D92E8030098
:101D000083E803007B69012B23D1284A7B690533D3
:101D1000DB0013445B6898B2244A7B690533DB001F
:101D200013449B6899B2214A7B690533DB00134455
:101D30005B689BB208339AB21C4C7B690533DB00AD
:101D400023449B689BB208339BB200240094FEF7A7
:101D5000FBFE164B5B6A013B7A699A4217D1134B23
:101D60001C333A1D92E8030083E803007B6898B2B5
:101D7000BB6899B27B689BB208339AB2BB689BB2CE
:101D800008339BB24FF6FF740094FEF7DDFE7B69CB
:101D900001337B61054B5B6A7A699A42FFF6F6AEC6
:101DA00000E000BF00BF1C37BD4690BD740100209D
:101DB00090B589B004AF5B4BDB6A9AB218230293EB
:101DC0004FF6FF73019300230093032364216420E3
:101DD000FEF7F4FF534B1B6B9AB2182302934FF696
:101DE000FF73019300230093032364219620FEF7E1
:101DF000E5FF4C4BDB6A002BC0F29180494BDB6A5C
:101E0000E82B00F38C80474B1B6B3F2B40F3878004
:101E1000444B1B6BB3F59C7F00F381800123FB6077
:101E200016E0404BDA6A3F49FB680533DB000B44A0
:101E30005B689A4209D13B4B1A6B3A49FB68053300
:101E4000DB000B449B689A4268D0FB680133FB605F
:101E5000344B5B6AFA689A42E3DB182302934FF62D
:101E6000FF7301934FF6FF73009303230E22C821E3
:101E70006420FEF7A3FF2B4BDA6A2B4B1B689A42B8
:101E80004DD1284B1A6B294B1B689A4247D1264BE0
:101E90004FF000421A60254B4FF000421A60214B70
:101EA0005B6A01331F4A53621E4B5B6A013B1D4A4A
:101EB000D2691C490533DB000B445A60194B5B6A3D
:101EC000013B184A126A17490533DB000B449A603C
:101ED000144B5B6A013B134A0533DB0013445B6818
:101EE000BB60104B5B6A013B0E4A0533DB001344B9
:101EF0009B687B60BB6898B27B6899B2BB689BB2F9
:101F000008339AB27B689BB208339BB200240094DA
:101F1000FEF71AFE064B00221A6000E000BF1437DD
:101F2000BD4690BD74010020100000201400002068
:101F3000B000002080B500AF114B9B69032B1BD86C
:101F400001A252F823F000BF691F0008711F0008AA
:101F5000591F0008611F0008094BDB6898470CE017
:101F6000074B9B68984708E0054B5B68984704E07F
:101F7000034B1B68984700E000BF00BF80BD00BF57
:101F80007401002080B500AF214B5B89002B06D087
:101F9000204B9B6898471F4B5B69984735E01C4B6B
:101FA0005B8B002B06D01B4BDB689847194B5B699A
:101FB00098472AE0164B9B8A002B06D0154B5B688E
:101FC0009847144B5B6998471FE0114B1B8A002B05
:101FD00006D0104B1B6898470E4B5B69984714E07E
:101FE0000B4B5B8A002B0AD00A4B9B6A002B0CBF61
:101FF00001230023DBB21A46064B9A6205E0054B2B
:102000001B699847034B5B69984700BF80BD00BFC1
:10201000C80000207401002090B585B002AF764B57
:102020001022DA62744B40221A63734B08225A63FF
:10203000714B40229A63704B0022DA636E4B402250
:102040001A6403237B6010E06B4A7B680533DB0076
:10205000134400225A60684A7B680533DB0013444E
:1020600000229A607B6801337B607B68B3F5FA7F5E
:10207000EADB614B614ADA605F4B614A1A605E4B92
:10208000604A9A605C4B604A5A605B4B5F4A1A61D7
:10209000594B5F4A5A61584B03225A62564B0022F1
:1020A0009A6100233B609DE03B68002B73D1524A4C
:1020B0003B680533DB0013445B6898B24E4A3B68CB
:1020C0000533DB0013449B6899B24B4A3B680533E8
:1020D000DB0013445B689BB208339AB2464C3B6802
:1020E0000533DB0023449B689BB208339BB24FF45B
:1020F00078440094FEF728FD3F4A3B680533DB0037
:1021000013445B689BB2053398B23B4A3B68053386
:10211000DB0013449B6899B2374A3B680533DB0008
:1021200013445B689BB208339AB2334C3B68053367
:10213000DB0023449B689BB204339BB21F240094B2
:10214000FEF702FD2C4A3B680533DB0013445B6855
:102150009BB2053398B2284A3B680533DB00134431
:102160009B689BB2053399B2234A3B680533DB0079
:1021700013445B689BB208339AB21F4C3B6805332B
:10218000DB0023449B689BB208339BB21F2400945E
:10219000FEF7DAFC23E0184A3B680533DB00134402
:1021A0005B6898B2144A3B680533DB0013449B68B4
:1021B00099B2114A3B680533DB0013445B689BB25C
:1021C00008339AB20C4C3B680533DB0023449B6810
:1021D0009BB208339BB200240094FEF7B5FC3B6829
:1021E00001333B603B68022B7FF75EAF00BF00BF4F
:1021F0000C37BD4690BD00BF74010020611B000874
:102200008114000819190008C9160008351F0008B4
:10221000B11D000890B585B002AF02F045FE024640
:102220002E4B1B68013392FBF3F103FB01F3D31A2E
:10223000DB002B4A136002F037FE0246294B1B6875
:10224000013392FBF3F103FB01F3D31A0833DB00F4
:10225000254A136000237B601FE0244A7B68053316
:10226000DB0013445A681E4B1B689A4212D11F4A66
:102270007B680533DB0013449A681B4B1B689A424A
:1022800008D1174B4FF000421A60174B4FF0004235
:102290001A601FE07B6801337B60144B5B6A7A68CD
:1022A0009A42DADB0E4B1B6898B20F4B1B6899B24F
:1022B0000B4B1B689BB208339AB20B4B1B689BB24B
:1022C00008339BB240F2CF140094FEF73DFC084B5C
:1022D00001221A600C37BD4690BD00BF08000020E7
:1022E000100000200C0000201400002074010020C9
:1022F000B000002080B500AF024802F073F800BFC4
:1023000080BD00BF9811002080B483B000AF0346A9
:10231000FB80084AFB881380064B1A88064B1A80FC
:10232000064B00221A8000BF0C37BD465DF8047BC7
:10233000704700BFB8000020B6000020B4000020A5
:1023400080B582B000AF78607B681B68B3F1804FC6
:1023500016D10D4B1B88002B10D00B4B1B88013B5B
:102360009AB2094B1A80084B1B88002B06D1074BE9
:1023700001221A80064B1A88034B1A80FEF72CFFA5
:1023800000BF0837BD4680BDB6000020B400002065
:10239000B800002080B500AF174B184A1A60164BE2
:1023A0004FF482725A60144B00229A60124B002242
:1023B000DA60114B00221A610F4B00225A610E4B5A
:1023C0004FF400729A610C4B0022DA610A4B002232
:1023D0001A62094B00225A62074B00229A62064B8E
:1023E0000A22DA62044801F0C1F90346002B01D049
:1023F000FFF740F800BF80BD4011002000300140D1
:1024000080B58AB000AF786007F1140300221A602B
:102410005A609A60DA601A617B681B68194A9342B5
:102420002BD100233B61184B5B6C174A43F480535C
:102430005364154B5B6C03F480533B613B69002391
:10244000FB60114B1B6B104A43F0020313630E4BEE
:102450001B6B03F00203FB60FB6838237B610223E4
:10246000BB610023FB6103233B6205237B6207F111
:1024700014031946054800F083FB00BF2837BD460A
:1024800080BD00BF0030014000380240000402401F
:1024900080B483B000AF00237B60104B5B6C0F4AAD
:1024A00043F4804353640D4B5B6C03F480437B60C7
:1024B0007B6800233B60094B1B6C084A43F0805348
:1024C0001364064B1B6C03F080533B603B6800BFFA
:1024D0000C37BD465DF8047B704700BF00380240F2
:1024E00080B400AFFEE780B400AFFEE780B400AF79
:1024F000FEE780B400AFFEE780B400AFFEE780B433
:1025000000AF00BFBD465DF8047B704780B400AFEC
:1025100000BFBD465DF8047B704780B400AF00BFCC
:10252000BD465DF8047B704780B500AF00F0D2F97E
:1025300000BF80BD80B500AF024801F0C3FF00BFFF
:1025400080BD00BF9811002080B400AF0123184661
:10255000BD465DF8047B704780B582B000AF7860FF
:10256000396002F041FC034616221A604FF0FF3337
:1025700018460837BD4680BD80B582B000AF786090
:102580004FF0FF317868FFF7E7FFFEE780B586B0D0
:1025900000AFF860B9607A6000237B610AE0AFF3B6
:1025A00000800146BB685A1CBA60CAB21A707B69C7
:1025B00001337B617A697B689A42F0DB7B6818465D
:1025C0001837BD4680BD80B586B000AFF860B960F1
:1025D0007A6000237B6109E0BB685A1CBA601B78F3
:1025E0001846AFF300807B6901337B617A697B68B1
:1025F0009A42F1DB7B6818461837BD4680BD80B42F
:1026000083B000AF78604FF0FF3318460C37BD46FB
:102610005DF8047B704780B483B000AF78603960A8
:102620003B684FF400525A60002318460C37BD46F1
:102630005DF8047B704780B483B000AF78600123FD
:1026400018460C37BD465DF8047B704780B485B0F2
:1026500000AFF860B9607A60002318461437BD46B1
:102660005DF8047B7047000080B586B000AF7860ED
:10267000144A154BD31A7B617B693B61134B1B6872
:10268000002B02D1114B124A1A60104B1A687B685A
:1026900013443A699A4207D202F0A6FB03460C2281
:1026A0001A604FF0FF3309E0084B1B68FB60074BD3
:1026B0001A687B681344054A1360FB68184618378C
:1026C000BD4680BD0000022000040000BC000020C8
:1026D000F811002080B400AF064BD3F88830054ACB
:1026E00043F47003C2F8883000BFBD465DF8047B38
:1026F000704700BF00ED00E080B586B000AF07F185
:10270000080300221A605A609A60DA603B46002291
:102710001A605A601D4B4FF080421A601B4B40F20A
:1027200047325A60194B00229A60184B6322DA60D4
:10273000164B00221A61154B00229A61134801F0D2
:1027400001FE0346002B01D0FEF794FE4FF48053A8
:10275000BB6007F1080319460C4801F0BBFF0346B4
:10276000002B01D0FEF786FE00233B6000237B6038
:102770003B461946054802F0D7F90346002B01D025
:10278000FEF778FE00BF1837BD4680BD98110020C7
:1027900080B584B000AF78607B681B68B3F1804F70
:1027A00015D10023FB600C4B1B6C0B4A43F001035B
:1027B0001364094B1B6C03F00103FB60FB680022F0
:1027C00000211C2000F0A5F91C2000F0BEF900BF7C
:1027D0001037BD4680BD00BF00380240DFF834D05E
:1027E0000D480E490E4A002302E0D458C450043369
:1027F000C4188C42F9D30B4A0B4C002301E0136040
:102800000432A242FBD3FFF765FF02F0F3FAFEF7B2
:102810006FFD7047000002200000002088000020AB
:102820001890000888000020F4110020FEE7000046
:1028300080B500AF0E4B1B680D4A43F40073136064
:102840000B4B1B680A4A43F480631360084B1B68F8
:10285000074A43F480731360032000F04FF90F2000
:1028600000F008F8FFF714FE0023184680BD00BFF3
:10287000003C024080B582B000AF7860124B1A680D
:10288000124B1B7819464FF47A73B3FBF1F3B2FB8A
:10289000F3F3184600F067F90346002B01D001233B
:1028A0000EE07B680F2B0AD8002279684FF0FF30CA
:1028B00000F02FF9064A7B681360002300E0012333
:1028C00018460837BD4680BD1800002020000020B3
:1028D0001C00002080B400AF064B1B781A46064B44
:1028E0001B681344044A136000BFBD465DF8047BB7
:1028F000704700BF20000020E011002080B400AF2E
:10290000034B1B681846BD465DF8047B704700BF4B
:10291000E011002080B584B000AF7860FFF7EEFFD3
:10292000B8607B68FB60FB68B3F1FF3F05D00A4BE2
:102930001B781A46FB681344FB6000BFFFF7DEFFFD
:102940000246BB68D31AFA689A42F7D800BF00BFA4
:102950001037BD4680BD00BF2000002080B485B088
:1029600000AF78607B6803F00703FB600C4BDB680B
:10297000BB60BA684FF6FF031340BB60FB681A02E6
:10298000BB68134343F0BF6343F40033BB60044AA6
:10299000BB68D36000BF1437BD465DF8047B704749
:1029A00000ED00E080B400AF044BDB681B0A03F0CD
:1029B00007031846BD465DF8047B704700ED00E054
:1029C00080B483B000AF0346FB7197F90730002B4A
:1029D0000BDBFB7903F01F02074997F907305B090E
:1029E000012000FA02F241F8232000BF0C37BD4657
:1029F0005DF8047B704700BF00E100E080B483B065
:102A000000AF03463960FB7197F90730002B0ADBF2
:102A10003B68DAB20C4997F907301201D2B20B4485
:102A200083F800230AE03B68DAB20849FB7903F037
:102A30000F03043B1201D2B20B441A7600BF0C37CD
:102A4000BD465DF8047B704700E100E000ED00E06A
:102A500080B489B000AFF860B9607A60FB6803F0B9
:102A60000703FB61FB69C3F10703042B28BF0423A1
:102A7000BB61FB690433062B02D9FB69033B00E011
:102A800000237B614FF0FF32BB6902FA03F3DA43A4
:102A9000BB681A407B699A404FF0FF317B6901FAAD
:102AA00003F3D9437B680B40134318462437BD46D4
:102AB0005DF8047B7047000080B582B000AF78609D
:102AC0007B68013BB3F1807F01D301230FE00A4A09
:102AD0007B68013B53600F214FF0FF30FFF78EFF03
:102AE000054B00229A60044B07221A600023184607
:102AF0000837BD4680BD00BF10E000E080B582B061
:102B000000AF78607868FFF729FF00BF0837BD463F
:102B100080BD80B586B000AF0346B9607A60FB73B4
:102B200000237B61FFF73EFF78617A68B9687869B6
:102B3000FFF78EFF024697F90F3011461846FFF750
:102B40005DFF00BF1837BD4680BD80B582B000AFC5
:102B50000346FB7197F907301846FFF731FF00BFB6
:102B60000837BD4680BD80B582B000AF7860786818
:102B7000FFF7A2FF034618460837BD4680BD000098
:102B800080B489B000AF7860396000237B61002396
:102B90003B610023BB610023FB616BE10122FB6908
:102BA00002FA03F37B613B681B687A6913403B615F
:102BB0003A697B699A4240F05A813B685B6803F04E
:102BC0000303012B05D03B685B6803F00303022B72
:102BD00030D17B689B68BB61FB695B00032202FA12
:102BE00003F3DB43BA691340BB613B68DA68FB69F6
:102BF0005B0002FA03F3BA691343BB617B68BA69ED
:102C00009A607B685B68BB610122FB6902FA03F38F
:102C1000DB43BA691340BB613B685B681B0903F087
:102C20000102FB6902FA03F3BA691343BB617B68D3
:102C3000BA695A603B685B6803F00303032B17D043
:102C40007B68DB68BB61FB695B00032202FA03F36C
:102C5000DB43BA691340BB613B689A68FB695B0060
:102C600002FA03F3BA691343BB617B68BA69DA609D
:102C70003B685B6803F00303022B23D1FB69DA088E
:102C80007B68083253F82230BB61FB6903F007030D
:102C90009B000F2202FA03F3DB43BA691340BB61C6
:102CA0003B681A69FB6903F007039B0002FA03F310
:102CB000BA691343BB61FB69DA087B680832B969FA
:102CC00043F822107B681B68BB61FB695B00032231
:102CD00002FA03F3DB43BA691340BB613B685B68EC
:102CE00003F00302FB695B0002FA03F3BA691343C2
:102CF000BB617B68BA691A603B685B6803F4403368
:102D0000002B00F0B4800023FB60604B5B6C5F4ADB
:102D100043F4804353645D4B5B6C03F48043FB607E
:102D2000FB685B4AFB699B08023352F82330BB61A6
:102D3000FB6903F003039B000F2202FA03F3DB435A
:102D4000BA691340BB617B68524A93422BD07B68BF
:102D5000514A934225D07B68504A93421FD07B68EA
:102D60004F4A934219D07B684E4A934213D07B68F6
:102D70004D4A93420DD07B684C4A934207D07B6802
:102D80004B4A934201D107230EE008230CE00623AF
:102D90000AE0052308E0042306E0032304E00223FD
:102DA00002E0012300E00023FA6902F0030292002E
:102DB0009340BA691343BB613549FB699B080233F1
:102DC000BA6941F823203B4B1B68BB613B69DB437D
:102DD000BA691340BB613B685B6803F48033002B26
:102DE00003D0BA693B691343BB61324ABB691360C4
:102DF000304B5B68BB613B69DB43BA691340BB6125
:102E00003B685B6803F40033002B03D0BA693B696D
:102E10001343BB61274ABB695360264B9B68BB6168
:102E20003B69DB43BA691340BB613B685B6803F4F1
:102E30008013002B03D0BA693B691343BB611D4A61
:102E4000BB6993601B4BDB68BB613B69DB43BA69C1
:102E50001340BB613B685B6803F40013002B03D095
:102E6000BA693B691343BB61124ABB69D360FB6912
:102E70000133FB61FB690F2B7FF690AE00BF00BFF3
:102E80002437BD465DF8047B704700BF0038024020
:102E900000380140000002400004024000080240E7
:102EA000000C0240001002400014024000180240D2
:102EB000001C0240003C014080B483B000AF786049
:102EC0000B467B8013467B707B78002B03D07A887F
:102ED0007B689A6103E07B881A047B689A6100BF73
:102EE0000C37BD465DF8047B7047000080B586B0A6
:102EF00000AF78607B68002B01D1012364E27B681E
:102F00001B6803F00103002B75D0A34B9B6803F0F3
:102F10000C03042B0CD0A04B9B6803F00C03082B74
:102F200012D19D4B5B6803F48003B3F5800F0BD186
:102F3000994B1B6803F40033002B5BD07B685B6804
:102F4000002B57D101233FE27B685B68B3F5803FDC
:102F500006D1914B1B68904A43F4803313601DE007
:102F60007B685B68B3F5A02F0CD18B4B1B688A4A3A
:102F700043F480231360884B1B68874A43F48033F3
:102F800013600BE0844B1B68834A23F48033136087
:102F9000814B1B68804A23F4802313607B685B6845
:102FA000002B13D0FFF7AAFC386108E0FFF7A6FC5E
:102FB00002463B69D31A642B01D9032304E2764B02
:102FC0001B6803F40033002BF0D014E0FFF796FCED
:102FD000386108E0FFF792FC02463B69D31A642B84
:102FE00001D90323F0E16C4B1B6803F40033002B81
:102FF000F0D100E000BF7B681B6803F00203002BE8
:1030000063D0654B9B6803F00C03002B0BD0624B25
:103010009B6803F00C03082B1CD15F4B5B6803F427
:103020008003002B16D15C4B1B6803F00203002BBE
:1030300005D07B68DB68012B01D00123C4E1564B2E
:103040001B6823F0F8027B681B69DB0052491343BD
:103050000B603AE07B68DB68002B20D04F4B0122ED
:103060001A60FFF74BFC386108E0FFF747FC0246A7
:103070003B69D31A022B01D90323A5E1464B1B68F8
:1030800003F00203002BF0D0434B1B6823F0F8023F
:103090007B681B69DB00404913430B6015E03F4B25
:1030A00000221A60FFF72AFC386108E0FFF726FCCF
:1030B00002463B69D31A022B01D9032384E1364B24
:1030C0001B6803F00203002BF0D17B681B6803F040
:1030D0000803002B30D07B685B69002B16D0304B87
:1030E00001221A60FFF70AFC386108E0FFF706FCCE
:1030F00002463B69D31A022B01D9032364E1264B14
:103100005B6F03F00203002BF0D015E0244B00228C
:103110001A60FFF7F3FB386108E0FFF7EFFB0246A8
:103120003B69D31A022B01D903234DE11A4B5B6F84
:1031300003F00203002BF0D17B681B6803F004034B
:10314000002B00F0A0800023FB75134B1B6C03F0D9
:103150008053002B0FD10023BB600F4B1B6C0E4A1A
:1031600043F0805313640C4B1B6C03F08053BB6023
:10317000BB680123FB750B4B1B6803F48073002BAA
:1031800021D1084B1B68074A43F480731360FFF793
:10319000B5FB386111E000BF003802400000474233
:1031A000800E474200700040FFF7A8FB02463B69D3
:1031B000D31A022B01D9032306E1854B1B6803F4C4
:1031C0008073002BF0D07B689B68012B06D1814B6C
:1031D0001B6F804A43F0010313671CE07B689B6808
:1031E000052B0CD17B4B1B6F7A4A43F0040313670A
:1031F000784B1B6F774A43F0010313670BE0754B65
:103200001B6F744A23F001031367724B1B6F714AE3
:1032100023F0040313677B689B68002B15D0FFF72E
:103220006DFB38610AE0FFF769FB02463B69D31A80
:1032300041F28832934201D90323C5E0654B1B6FED
:1032400003F00203002BEED014E0FFF757FB3861C8
:103250000AE0FFF753FB02463B69D31A41F288327A
:10326000934201D90323AFE05A4B1B6F03F00203D3
:10327000002BEED1FB7D012B05D1564B1B6C554A23
:1032800023F0805313647B689B69002B00F09B80C4
:10329000504B9B6803F00C03082B5CD07B689B6948
:1032A000022B41D14C4B00221A60FFF727FB3861FB
:1032B00008E0FFF723FB02463B69D31A022B01D932
:1032C000032381E0434B1B6803F00073002BF0D114
:1032D0007B68DA697B681B6A1A437B685B6A9B01BF
:1032E0001A437B689B6A5B08013B1B041A437B689B
:1032F000DB6A1B06374913434B60374B01221A60C8
:10330000FFF7FCFA386108E0FFF7F8FA02463B697C
:10331000D31A022B01D9032356E02E4B1B6803F06E
:103320000073002BF0D04EE02B4B00221A60FFF709
:10333000E5FA386108E0FFF7E1FA02463B69D31A83
:10334000022B01D903233FE0224B1B6803F00073DB
:10335000002BF0D137E07B689B69012B01D1012361
:1033600032E01C4B5B68FB607B689B69012B28D0BB
:10337000FB6803F480027B68DB699A4221D1FB6819
:1033800003F03F027B681B6A9A421AD1FA6847F63B
:10339000C07313407A68526A9201934211D1FB685C
:1033A00003F440327B689B6A5B08013B1B049A4232
:1033B00007D1FB6803F070627B68DB6A1B069A42E8
:1033C00001D0012300E0002318461837BD4680BD18
:1033D00000700040003802406000474280B584B071
:1033E00000AF786039607B68002B01D10123CCE00D
:1033F000684B1B6803F007033A689A420CD9654B87
:103400003A68D2B21A70634B1B6803F007033A683C
:103410009A4201D00123B8E07B681B6803F00203E5
:10342000002B20D07B681B6803F00403002B05D021
:10343000594B9B68584A43F4E05393607B681B6880
:1034400003F00803002B05D0534B9B68524A43F40A
:1034500060439360504B9B6823F0F0027B689B684D
:103460004D4913438B607B681B6803F00103002BFD
:1034700044D07B685B68012B07D1474B1B6803F482
:103480000033002B19D101237FE07B685B68022B9E
:1034900003D07B685B68032B07D13F4B1B6803F0AD
:1034A0000073002B09D101236FE03B4B1B6803F035
:1034B0000203002B01D1012367E0374B9B6823F007
:1034C00003027B685B68344913438B60FFF716FA8D
:1034D000F8600AE0FFF712FA0246FB68D31A41F2DD
:1034E0008832934201D903234FE02B4B9B6803F0B2
:1034F0000C027B685B689B009A42EBD1254B1B68F2
:1035000003F007033A689A420CD2224B3A68D2B2CF
:103510001A70204B1B6803F007033A689A4201D0E7
:10352000012332E07B681B6803F00403002B08D002
:10353000194B9B6823F4E0527B68DB681649134300
:103540008B607B681B6803F00803002B09D0124BCB
:103550009B6823F460427B681B69DB000E491343C0
:103560008B6000F021F802460B4B9B681B0903F0AF
:103570000F030A49CB5C22FA03F3094A1360094B93
:103580001B681846FFF776F9002318461037BD462A
:1035900080BD00BF003C024000380240AC8E0008F5
:1035A000180000201C0000202DE9B04384B000AFBB
:1035B00000237B600023FB6000233B600023BB6093
:1035C000674B9B6803F00C03082B0DD0082B00F20F
:1035D000BD80002B02D0042B03D0B7E0614BBB6051
:1035E000B7E0614BBB60B4E05D4B5B6803F03F0349
:1035F0007B605B4B5B6803F48003002B4DD0584B22
:103600005B689B091A464FF0000340F2FF104FF031
:10361000000102EA000803EA0109404649464FF06A
:1036200000024FF000034B0143EAD0634201104611
:103630001946B0EB080061EB09014FF000024FF0B2
:1036400000038B0143EA90638201121A63EB0103CA
:103650004FF000004FF00001D90041EA5271D00054
:1036600002460B4612EB080243EB09034FF0000041
:103670004FF00001590241EAD251500202460B4676
:10368000104619467B681A464FF00003FCF7F0FD20
:1036900002460B461346FB604AE0314B5B689B09D0
:1036A0001A464FF0000340F2FF104FF0000102EA0B
:1036B000000403EA0105204629464FF000024FF0BE
:1036C00000034B0143EAD063420110461946001B38
:1036D00061EB05014FF000024FF000038B0143EA5C
:1036E00090638201121A63EB01034FF000004FF068
:1036F0000001D90041EA5271D00002460B4612196E
:1037000045EB03034FF000004FF00001990241EA3E
:103710009251900202460B46104619467B681A46A3
:103720004FF00003FCF7A4FD02460B461346FB6076
:103730000B4B5B681B0C03F0030301335B003B6026
:10374000FA683B68B2FBF3F3BB6002E0054BBB6079
:1037500000BFBB6818461037BD46BDE8B08300BF48
:10376000003802400024F40000127A0080B582B0D4
:1037700000AF78607B68002B01D101237BE07B6880
:103780005B6A002B08D17B685B68B3F5827F09D048
:103790007B680022DA6105E07B6800221A617B68A1
:1037A00000225A617B6800229A627B6893F851304C
:1037B000DBB2002B06D17B68002283F850207868AA
:1037C000FEF71EFE7B68022283F851207B681B688F
:1037D0001A687B681B6822F040021A607B685B688D
:1037E00003F482727B689B6803F404431A437B688A
:1037F000DB6803F400631A437B681B6903F0020370
:103800001A437B685B6903F001031A437B689B6979
:1038100003F400731A437B68DB6903F038031A432F
:103820007B681B6A03F0800342EA03017B689B6AA2
:1038300003F400527B681B680A431A607B689B692B
:103840001B0C03F004017B685B6A03F010027B68C9
:103850001B680A435A607B681B68DA697B681B68CF
:1038600022F40062DA617B6800225A657B680122DB
:1038700083F85120002318460837BD4680BD80B527
:1038800088B000AFF860B9603B601346FB8000234E
:10389000FB77FB6893F85030012B01D1022326E11E
:1038A000FB68012283F85020FFF728F8B861FB88F5
:1038B000FB82FB6893F85130DBB2012B02D002236C
:1038C000FB770BE1BB68002B02D0FB88002B02D1F9
:1038D0000123FB7702E1FB68032283F85120FB6898
:1038E00000225A65FB68BA681A63FB68FA889A86F0
:1038F000FB68FA88DA86FB6800229A63FB6800227C
:103900009A87FB680022DA87FB6800225A64FB680A
:1039100000221A64FB689B68B3F5004F0FD1FB6867
:103920001B681A68FB681B6822F040021A60FB687B
:103930001B681A68FB681B6842F480421A60FB68C7
:103940001B681B6803F04003402B07D0FB681B6813
:103950001A68FB681B6842F040021A60FB68DB686B
:10396000B3F5006F4BD1FB685B68002B02D0FB8A7C
:10397000012B3ED1FB681B6B1A88FB681B68DA6061
:10398000FB681B6B9A1CFB681A63FB68DB8E9BB29F
:10399000013B9AB2FB68DA862BE0FB681B689B68E8
:1039A00003F00203022B12D1FB681B6B1A88FB6821
:1039B0001B68DA60FB681B6B9A1CFB681A63FB6868
:1039C000DB8E9BB2013B9AB2FB68DA8611E0FEF710
:1039D00095FF0246BB69D31A3A689A4203D83B68FE
:1039E000B3F1FF3F02D13B68002B02D10323FB77E9
:1039F00074E0FB68DB8E9BB2002BCED14CE0FB6801
:103A00005B68002B02D0FB8A012B40D1FB681A6B4C
:103A1000FB681B680C3312781A70FB681B6B5A1C0E
:103A2000FB681A63FB68DB8E9BB2013B9AB2FB68B2
:103A3000DA862CE0FB681B689B6803F00203022B0C
:103A400013D1FB681A6BFB681B680C3312781A7071
:103A5000FB681B6B5A1CFB681A63FB68DB8E9BB20E
:103A6000013B9AB2FB68DA8611E0FEF747FF024697
:103A7000BB69D31A3A689A4203D83B68B3F1FF3F57
:103A800002D13B68002B02D10323FB7726E0FB68C1
:103A9000DB8E9BB2002BCDD1BA693968F86800F093
:103AA000CBFB0346002B02D0FB6820225A65FB6843
:103AB0009B68002B0AD100233B61FB681B68DB6815
:103AC0003B61FB681B689B683B613B69FB685B6D06
:103AD000002B02D00123FB7700E000BFFB6801222E
:103AE00083F85120FB68002283F85020FB7F1846A2
:103AF0002037BD4680BD80B588B002AFF860B960A0
:103B00003B601346FB800023FB75FB685B68B3F5E5
:103B1000827F12D1FB689B68002B0ED1FB680422C8
:103B200083F85120FA883B6800931346BA68B96855
:103B3000F86800F0F1F80346EAE0FB6893F85030CB
:103B4000012B01D10223E3E0FB68012283F850201E
:103B5000FEF7D4FE3861FB6893F85130DBB2012BDD
:103B600002D00223FB75CAE0BB68002B02D0FB88A1
:103B7000002B02D10123FB75C1E0FB68042283F80E
:103B80005120FB6800225A65FB68BA689A63FB689B
:103B9000FA889A87FB68FA88DA87FB6800221A633A
:103BA000FB6800229A86FB680022DA86FB68002206
:103BB0001A64FB6800225A64FB689B68B3F5004FE7
:103BC0000FD1FB681B681A68FB681B6822F0400273
:103BD0001A60FB681B681A68FB681B6822F4804245
:103BE0001A60FB681B681B6803F04003402B07D07A
:103BF000FB681B681A68FB681B6842F040021A6089
:103C0000FB68DB68002B62D12EE0FB681B689B68B9
:103C100003F00103012B15D1FB681B6803F10C02B3
:103C2000FB689B6B1278D2B21A70FB689B6B5A1CB4
:103C3000FB689A63FB68DB8F9BB2013B9AB2FB681F
:103C4000DA8711E0FEF75AFE02463B69D31A3A685A
:103C50009A4203D83B68B3F1FF3F02D13B68002B87
:103C600002D10323FB754AE0FB68DB8F9BB2002B7C
:103C7000CBD131E0FB681B689B6803F00103012B8B
:103C800013D1FB681B68DA68FB689B6B92B21A80E1
:103C9000FB689B6B9A1CFB689A63FB68DB8F9BB28B
:103CA000013B9AB2FB68DA8711E0FEF727FE024675
:103CB0003B69D31A3A689A4203D83B68B3F1FF3F95
:103CC00002D13B68002B02D10323FB7517E0FB6890
:103CD000DB8F9BB2002BCDD13A693968F86800F0D0
:103CE00045FA0346002B02D0FB6820225A65FB6888
:103CF0005B6D002B02D00123FB7500E000BFFB6869
:103D0000012283F85120FB68002283F85020FB7DBC
:103D100018461837BD4680BD80B58CB000AFF8603E
:103D2000B9607A607B800123FB62002387F82B3027
:103D3000FB6893F85030012B01D102238AE1FB6824
:103D4000012283F85020FEF7D9FD7862FB6893F8D2
:103D5000513087F82330FB685B68FB617B887B838D
:103D600097F82330012B0FD0FB69B3F5827F07D181
:103D7000FB689B68002B03D197F82330042B03D0FA
:103D8000022387F82B305BE1BB68002B05D07B68F2
:103D9000002B02D07B88002B03D1012387F82B3026
:103DA0004EE1FB6893F85130DBB2042B03D0FB6883
:103DB000052283F85120FB6800225A65FB687A6867
:103DC0009A63FB687A88DA87FB687A889A87FB6847
:103DD000BA681A63FB687A88DA86FB687A889A86FA
:103DE000FB6800221A64FB6800225A64FB681B68A7
:103DF0001B6803F04003402B07D0FB681B681A6860
:103E0000FB681B6842F040021A60FB68DB68B3F590
:103E1000006F78D1FB685B68002B02D07B8B012B95
:103E200066D1FB681B6B1A88FB681B68DA60FB684D
:103E30001B6B9A1CFB681A63FB68DB8E9BB2013B11
:103E40009AB2FB68DA8653E0FB681B689B6803F054
:103E50000203022B1BD1FB68DB8E9BB2002B16D01A
:103E6000FB6A012B13D1FB681B6B1A88FB681B686C
:103E7000DA60FB681B6B9A1CFB681A63FB68DB8EBD
:103E80009BB2013B9AB2FB68DA860023FB62FB68B7
:103E90001B689B6803F00103012B19D1FB68DB8FC2
:103EA0009BB2002B14D0FB681B68DA68FB689B6B25
:103EB00092B21A80FB689B6B9A1CFB689A63FB6842
:103EC000DB8F9BB2013B9AB2FB68DA870123FB626E
:103ED000FEF714FD02467B6AD31ABA6B9A4207D8E2
:103EE000BB6BB3F1FF3F03D0032387F82B30A7E070
:103EF000FB68DB8E9BB2002BA6D1FB68DB8F9BB2ED
:103F0000002BA1D17CE0FB685B68002B02D07B8B8F
:103F1000012B6BD1FB681A6BFB681B680C331278A2
:103F20001A70FB681B6B5A1CFB681A63FB68DB8EFC
:103F30009BB2013B9AB2FB68DA8657E0FB681B68CC
:103F40009B6803F00203022B1CD1FB68DB8E9BB243
:103F5000002B17D0FB6A012B14D1FB681A6BFB688E
:103F60001B680C3312781A70FB681B6B5A1CFB68B9
:103F70001A63FB68DB8E9BB2013B9AB2FB68DA8660
:103F80000023FB62FB681B689B6803F00103012BA5
:103F900019D1FB68DB8F9BB2002B14D0FB681B6828
:103FA000DA68FB689B6BD2B21A70FB689B6B5A1C79
:103FB000FB689A63FB68DB8F9BB2013B9AB2FB689C
:103FC000DA870123FB62FEF799FC02467B6AD31A6B
:103FD000BA6B9A4203D8BB6BB3F1FF3F02D1BB6B04
:103FE000002B03D1032387F82B3029E0FB68DB8EFD
:103FF0009BB2002BA2D1FB68DB8F9BB2002B9DD123
:104000007A6AB96BF86800F017F90346002B06D0FE
:10401000012387F82B30FB6820225A6510E0FB68EB
:104020009B68002B0BD100237B61FB681B68DB685E
:104030007B61FB681B689B687B617B6900E000BF5C
:10404000FB68012283F85120FB68002283F850208E
:1040500097F82B3018463037BD4680BD80B588B004
:1040600000AFF860B9603B601346FB71FEF746FC99
:104070000246BB6A9B1A3A681344FB61FEF73EFC9A
:10408000B861394B1B685B011B0DFA6902FB03F336
:104090007B6154E03B68B3F1FF3F50D0FEF72EFC4C
:1040A0000246BB69D31AFA699A4202D9FB69002B0E
:1040B0003DD1FB681B685A68FB681B6822F0E00270
:1040C0005A60FB685B68B3F5827F11D1FB689B681F
:1040D000B3F5004F04D0FB689B68B3F5806F07D140
:1040E000FB681B681A68FB681B6822F040021A60B4
:1040F000FB689B6AB3F5005F0FD1FB681B681A6809
:10410000FB681B6822F400521A60FB681B681A687F
:10411000FB681B6842F400521A60FB68012283F8B6
:104120005120FB68002283F85020032317E07B69AD
:10413000002B01D10023FB617B69013B7B61FB68A4
:104140001B689A68BB681340BA689A420CBF012387
:104150000023DBB21A46FB799A429BD10023184612
:104160002037BD4680BD00BF1800002080B586B056
:1041700002AFF860B9607A60FB685B68B3F5827F74
:1041800011D1FB689B68B3F5004F04D0FB689B68B6
:10419000B3F5806F07D1FB681B681A68FB681B6862
:1041A00022F040021A60FB685B68B3F5827F2AD177
:1041B000FB689B68B3F5806F12D07B680093BB6887
:1041C00000228021F868FFF749FF0346002B2DD01D
:1041D000FB685B6D43F02002FB685A65032326E011
:1041E0007B680093BB6800220121F868FFF736FF67
:1041F0000346002B1AD0FB685B6D43F02002FB687E
:104200005A65032313E07B680093BB6800220121F9
:10421000F868FFF723FF0346002B07D0FB685B6DB0
:1042200043F02002FB685A65032300E00023184690
:104230001037BD4680BD000080B588B002AFF86081
:10424000B9607A601B4B1B681B4AA2FB03235B0D02
:104250004FF47A7202FB03F37B61FB685B68B3F592
:10426000827F12D17B680093BB6800228021F868AE
:10427000FFF7F4FE0346002B16D0FB685B6D43F09E
:104280002002FB685A6503230FE07B69002B0AD0EC
:104290007B69013B7B61FB681B689B6803F08003C3
:1042A000802BF2D000E000BF002318461837BD462F
:1042B00080BD00BF18000020819F5E1680B584B0CD
:1042C00000AFF860B9607A60FB68002B01D1012370
:1042D00034E0FB6893F84930DBB2002B06D1FB6871
:1042E000002283F84820F868FCF77CFAFB681A681B
:1042F000FB6808331946104600F0A6FCFB681868F6
:10430000FB689B681A46B96800F0F0FCFB685868C7
:10431000FB689A68FB681B6B796800F025FDFB68F9
:104320001B68FA68926853F82210FB681B68FA68E9
:10433000926841F0010143F822100023184610371B
:10434000BD4680BD80B582B000AF78607B68002B31
:1043500001D1012341E07B6893F83D30DBB2002BB3
:1043600006D17B68002283F83C207868FEF710FABB
:104370007B68022283F83D207B681A687B680433DF
:104380001946104600F096FA7B68012283F8462011
:104390007B68012283F83E207B68012283F83F205E
:1043A0007B68012283F840207B68012283F841204A
:1043B0007B68012283F842207B68012283F8432036
:1043C0007B68012283F844207B68012283F8452022
:1043D0007B68012283F83D20002318460837BD463C
:1043E00080BD000080B485B000AF78607B6893F832
:1043F0003D30DBB2012B01D001234EE07B6802226D
:1044000083F83D207B681B68DA687B681B6842F094
:104410000102DA607B681B68234A934222D07B68E2
:104420001B68B3F1804F1DD07B681B681F4A934205
:1044300018D07B681B681E4A934213D07B681B68A8
:104440001C4A93420ED07B681B681B4A934209D0DA
:104450007B681B68194A934204D07B681B68184A22
:10446000934211D17B681B689B6803F00703FB60D4
:10447000FB68062B10D07B681B681A687B681B687A
:1044800042F001021A6007E07B681B681A687B68CB
:104490001B6842F001021A60002318461437BD461B
:1044A0005DF8047B704700BF00000140000400403D
:1044B00000080040000C00400004014000400140A2
:1044C0000018004080B582B000AF78607B681B6840
:1044D0001B6903F00203022B22D17B681B68DB6897
:1044E00003F00203022B1BD17B681B686FF00202F2
:1044F0001A617B6801221A777B681B689B6903F04D
:104500000303002B03D0786800F0B5F905E0786864
:1045100000F0A7F9786800F0B8F97B6800221A77F4
:104520007B681B681B6903F00403042B22D17B68A2
:104530001B68DB6803F00403042B1BD17B681B683A
:104540006FF004021A617B6802221A777B681B688D
:104550009B6903F44073002B03D0786800F08BF95B
:1045600005E0786800F07DF9786800F08EF97B68E6
:1045700000221A777B681B681B6903F00803082B6D
:1045800022D17B681B68DB6803F00803082B1BD172
:104590007B681B686FF008021A617B6804221A7737
:1045A0007B681B68DB6903F00303002B03D078688A
:1045B00000F061F905E0786800F053F9786800F0E0
:1045C00064F97B6800221A777B681B681B6903F01B
:1045D0001003102B22D17B681B68DB6803F01003EB
:1045E000102B1BD17B681B686FF010021A617B686F
:1045F00008221A777B681B68DB6903F44073002B81
:1046000003D0786800F037F905E0786800F029F900
:10461000786800F03AF97B6800221A777B681B689B
:104620001B6903F00103012B0ED17B681B68DB685B
:1046300003F00103012B07D17B681B686FF00102B7
:104640001A617868FDF77CFE7B681B681B6903F0C4
:104650008003802B0ED17B681B68DB6803F080032E
:10466000802B07D17B681B686FF080021A61786825
:1046700000F0E0FA7B681B681B6903F04003402BE5
:104680000ED17B681B68DB6803F04003402B07D129
:104690007B681B686FF040021A61786800F0FFF8D1
:1046A0007B681B681B6903F02003202B0ED17B68FD
:1046B0001B68DB6803F02003202B07D17B681B6895
:1046C0006FF020021A61786800F0AAFA00BF08377C
:1046D000BD4680BD80B584B000AF786039600023EE
:1046E000FB737B6893F83C30012B01D10223B4E0CB
:1046F0007B68012283F83C207B68022283F83D20FE
:104700007B681B689B68BB60BB6823F07703BB605A
:10471000BB6823F47F43BB607B681B68BA689A6000
:104720003B681B68B3F5005F3ED0B3F5005F00F255
:104730008780B3F5805F00F08680B3F5805F7FD817
:10474000702B1AD0702B7BD8602B50D0602B77D871
:10475000502B3CD0502B73D8402B58D0402B6FD8C7
:10476000302B64D0302B6BD8202B60D0202B67D817
:10477000002B5CD0102B5AD062E07B6818683B6835
:1047800099683B685A683B68DB6800F0ADF97B6864
:104790001B689B68BB60BB6843F07703BB607B68AA
:1047A0001B68BA689A604FE07B6818683B68996834
:1047B0003B685A683B68DB6800F096F97B681B68C9
:1047C0009A687B681B6842F480429A603CE07B6890
:1047D00018683B6859683B68DB681A4600F00AF9BC
:1047E0007B681B685021184600F063F92CE07B6859
:1047F00018683B6859683B68DB681A4600F029F97D
:104800007B681B686021184600F053F91CE07B6848
:1048100018683B6859683B68DB681A4600F0EAF89C
:104820007B681B684021184600F043F90CE07B6868
:104830001A683B681B681946104600F03AF903E015
:104840000123FB7300E000BF7B68012283F83D2059
:104850007B68002283F83C20FB7B18461037BD465E
:1048600080BD80B483B000AF786000BF0C37BD4618
:104870005DF8047B704780B483B000AF786000BF00
:104880000C37BD465DF8047B704780B483B000AF41
:10489000786000BF0C37BD465DF8047B704780B47C
:1048A00083B000AF786000BF0C37BD465DF8047B75
:1048B0007047000080B485B000AF786039607B68D5
:1048C0001B68FB607B68404A934213D07B68B3F15E
:1048D000804F0FD07B683D4A93420BD07B683C4AA7
:1048E000934207D07B683B4A934203D07B683A4AA5
:1048F000934208D1FB6823F07003FB603B685B6860
:10490000FA681343FB607B682F4A93422BD07B6885
:10491000B3F1804F27D07B682C4A934223D07B6829
:104920002B4A93421FD07B682A4A93421BD07B6854
:10493000294A934217D07B68284A934213D07B6858
:10494000274A93420FD07B68264A93420BD07B685C
:10495000254A934207D07B68244A934203D07B6860
:10496000234A934208D1FB6823F44073FB603B6801
:10497000DB68FA681343FB60FB6823F080023B6846
:104980005B691343FB607B68FA681A603B689A684E
:104990007B68DA623B681A687B689A627B680A4ABD
:1049A000934203D07B680C4A934203D13B681A6957
:1049B0007B681A637B6801225A6100BF1437BD46C9
:1049C0005DF8047B704700BF000001400004004018
:1049D00000080040000C004000040140004001407D
:1049E000004401400048014000180040001C004005
:1049F0000020004080B487B000AFF860B9607A60F2
:104A0000FB681B6A7B61FB681B6A23F00102FB6881
:104A10001A62FB689B693B613B6923F0F0033B61D1
:104A20007B681B013A6913433B617B6923F00A03EE
:104A30007B617A69BB6813437B61FB683A699A6161
:104A4000FB687A691A6200BF1C37BD465DF8047BBB
:104A5000704780B487B000AFF860B9607A60FB68D7
:104A60001B6A23F01002FB681A62FB689B697B617A
:104A7000FB681B6A3B617B6923F470437B617B6845
:104A80001B037A6913437B613B6923F0A0033B61FD
:104A9000BB681B013A6913433B61FB687A699A6101
:104AA000FB683A691A6200BF1C37BD465DF8047B9B
:104AB000704780B485B000AF786039607B689B68D0
:104AC000FB60FB6823F07003FB603A68FB681343EC
:104AD00043F00703FB607B68FA689A6000BF1437F5
:104AE000BD465DF8047B704780B487B000AFF860C6
:104AF000B9607A603B60FB689B687B617B6923F4EB
:104B00007F437B613B681A027B681A43BB6813438F
:104B10007A6913437B61FB687A699A6000BF1C372E
:104B2000BD465DF8047B704780B485B000AF786007
:104B300039607B6893F83C30012B01D102235AE0A5
:104B40007B68012283F83C207B68022283F83D20A9
:104B50007B681B685B68FB607B681B689B68BB604D
:104B6000FB6823F07003FB603B681B68FA68134323
:104B7000FB607B681B68FA685A607B681B68214A87
:104B8000934222D07B681B68B3F1804F1DD07B68B5
:104B90001B681D4A934218D07B681B681B4A9342CE
:104BA00013D07B681B681A4A93420ED07B681B683F
:104BB000184A934209D07B681B68174A934204D075
:104BC0007B681B68154A93420CD1BB6823F08003B5
:104BD000BB603B685B68BA681343BB607B681B685B
:104BE000BA689A607B68012283F83D207B680022C6
:104BF00083F83C20002318461437BD465DF8047B3B
:104C0000704700BF00000140000400400008004061
:104C1000000C00400004014000400140001800402A
:104C200080B483B000AF786000BF0C37BD465DF83C
:104C3000047B704780B483B000AF786000BF0C374E
:104C4000BD465DF8047B704780B485B000AF7860E6
:104C500039600023FB603B681A687B6853F8223098
:104C6000FB60FA68204B1340FB603B685A683B6866
:104C70009B681A433B68DB681A433B681B691A430D
:104C80003B685B691A433B689B691A433B68DB6975
:104C90001A433B681B6A1A433B685B6A1A433B68CA
:104CA0009B6A1A433B68DB6A1A433B68DB6B1A4317
:104CB0003B681B6B1343FA681343FB603B689B68BC
:104CC000082B03D1FB6843F04003FB603B681A6884
:104CD0007B68F96843F82210002318461437BD4654
:104CE0005DF8047B704700BF8000F0FF80B487B0A0
:104CF00000AFF860B9607A6000237B617B685A1C62
:104D0000FB6853F822307B617B6903F040437B6191
:104D1000BB681A68BB685B681B011A43BB689B6869
:104D20001B021A43BB68DB681B041A43BB681B6980
:104D3000013B1B051A43BB685B69023B1B061A4318
:104D4000BB689B6913437A6913437B617B685A1C78
:104D5000FB68796943F82210002318461C37BD46CA
:104D60005DF8047B7047000080B487B000AFF86046
:104D7000B9607A603B6000237B613B68B3F5804F8C
:104D800022D1FB687A6853F822307B617A69154B2F
:104D900013407B61BB681A68BB685B681B011A43E0
:104DA000BB689B681B021A43BB68DB681B041A4381
:104DB000BB689B6913437A6913437B61FB687A681C
:104DC000796943F8221005E0FB687A686FF070415A
:104DD00043F82210002318461C37BD465DF8047BBB
:104DE000704700BF0000F0CF014B1868704700BF4C
:104DF0002400002070B50D4D0D4C641BA41000263E
:104E0000A64209D10B4D0C4C01F084F8641BA41090
:104E10000026A64205D170BD55F8043B98470136DF
:104E2000EEE755F8043B98470136F2E7109000088A
:104E300010900008109000081490000802440346E7
:104E4000934200D1704703F8011BF9E738B5104BC6
:104E50001D68AB6B0446B3B9182000F0C1F80246D8
:104E6000A86320B90B4B0C48422100F077F80B499E
:104E70000B4BC0E900130B4B83600B238381002194
:104E80000120C2E90401AB6B00221C615A6138BDEC
:104E900024000020C08E0008D78E00080E33CDAB52
:104EA00034126DE6ECDE0500174B10B51C68A36BE1
:104EB000B3B9182000F094F8A06328B90246134B48
:104EC00013484E2100F04AF8124A134BC0E9002360
:104ED000124B83600B23838101220023C0E904234A
:104EE000A16B0F480A694B690E4C504304FB030049
:104EF000A2FB04345A1C044444F10000C1E904201C
:104F000020F0004010BD00BF24000020C08E00082B
:104F1000D78E00080E33CDAB34126DE6ECDE050003
:104F20002DF451582D7F954C1FB50B4B002269462F
:104F30000446186800F042F80028BEBF4FF0FF3268
:104F40004FF0FF33CDE90023DDE900010CB1C4E9E6
:104F5000000104B010BD00BF240000201FB514469E
:104F60001A46094B1B680546D8684CB1074B00919F
:104F7000CDE9013406492B4600F00EF800F0A0FC04
:104F8000044B1C46F3E700BF24000020368F0008C6
:104F9000438F0008718F00080EB403B5014603ABC0
:104FA000054853F8042B0068019300F0F5F802B0AF
:104FB0005DF804EB03B070472400002038B5074DBE
:104FC00000230446084611462B6000F09BFF431C5B
:104FD00002D12B6803B1236038BD00BFE41100206B
:104FE000024B0146186800F053B800BF24000020AF
:104FF00037B5002948D051F8043C0190002BA1F1AD
:105000000404B8BFE41800F081FE204A0198136838
:10501000154633B96360146003B0BDE8304000F05A
:105020007BBEA3420BD921686218934204BF1A6861
:105030005B68636004BF521822602C60ECE71A467C
:105040005B680BB1A342FAD911685518A5420BD180
:10505000246821445418A3421160DDD11C685B68A8
:10506000536021441160D7E702D90C230360D3E7D2
:10507000256861198B4204BF19685B68636004BFCF
:10508000491921605460C7E703B030BDC00000205B
:10509000F8B5CD1C25F0030508350C2D38BF0C25BF
:1050A000002D064601DBA94203D90C233360002002
:1050B000F8BD00F02BFE21490A6814469CB9204F28
:1050C0003B6823B92146304600F02AFB3860294668
:1050D000304600F025FB431C23D10C2333603046BF
:1050E00000F01AFEE3E723685B1B17D40B2B03D9F0
:1050F00023601C44256004E06368A2420CBF0B607F
:105100005360304600F008FE04F10B00231D20F030
:105110000700C21ACCD01B1AA350C9E72246646804
:10512000CCE7C41C24F00304A042E3D0211A30468B
:1051300000F0F6FA0130DDD1CFE700BFC00000205B
:10514000C40000209368013B002B10B4936008DA80
:105150009469A34201DB0A2903D15DF8044B00F0F6
:10516000EFBA1368581C1060197008465DF8044BBC
:105170007047F8B506460F461446D518AC4201D123
:10518000002007E014F8011B3A463046FFF7DAFF2B
:10519000431CF3D1F8BD00002DE9F04F0D469DB042
:1051A00014469846064618B183690BB900F0AAFC6C
:1051B000894B9D421BD175686B6ED90705D4AB89AD
:1051C0009A0502D4A86D00F03BFDAB891B0701D501
:1051D0002B69EBB92946304600F004FBC0B16B6E79
:1051E000DC070ED54FF0FF301DB0BDE8F08F7B4BD4
:1051F0009D4201D1B568DFE7794B9D4208BFF56854
:10520000DAE7AB899805EDD4A86D00F01AFDE9E75F
:105210000023099320238DF82930CDF80C8030230A
:10522000DFF8C0818DF82A304FF0010923469A46F5
:1052300013F8012B0AB1252AF9D1BAEB040B0BD0D4
:105240005B46224629463046FFF793FF013000F0C7
:10525000AA80099A5A4409929AF80030002B00F06B
:10526000A28000234FF0FF32CDE905230AF1010AA5
:10527000049307938DF853301A935446052214F87B
:10528000011B5848FAF7A4FF049AD8B9D10644BFC5
:1052900020238DF85330130744BF2B238DF8533050
:1052A0009AF800302A2B15D0079A544600204FF068
:1052B0000A0C214611F8013B303B092B4ED9B0B105
:1052C000079214E0A0EB080309FA03F313430493D5
:1052D000A246D2E7039B191D1B680391002BBBBF9D
:1052E0005B4242F0020207930793B8BF049223780F
:1052F0002E2B0CD163782A2B35D1039B1A1D1B68EA
:105300000392002BB8BF4FF0FF3302340593DFF850
:10531000E4A0217803225046FAF75AFF40B1402317
:10532000A0EB0A0003FA00F0049B0343013404934A
:1053300014F8011B2C488DF828100622FAF748FFB4
:1053400000283FD0294B1BBB039B073323F00703E7
:1053500008330393099B3B44099367E70CFB023234
:105360000C460120A5E700230134059319464FF0B0
:105370000A0C204610F8012B303A092A03D9002BD9
:10538000C5D00591C3E70CFB012104460123F0E7DA
:1053900003AB00932A46164B04A93046AFF30080B6
:1053A0000746781CD6D16B6ED90705D4AB899A0510
:1053B00002D4A86D00F045FCAB895B063FF512AF47
:1053C000099811E703AB00932A46094B04A930461C
:1053D00000F080F8E4E700BFC88F0008E88F0008FD
:1053E000A88F0008728F00087C8F00080000000062
:1053F00073510008788F00082DE9F047164699464A
:105400008A680B69DDF820809342B8BF1346336089
:1054100091F8432007460C460AB1013333602368F4
:10542000990642BF336802333360256815F00605DC
:1054300006D104F1190AE36832689B1AAB4226DCF4
:1054400094F84320131E226818BF012392062BD420
:1054500004F1430249463846C04701301ED0236854
:10546000E568326803F00603042B08BFAD1AA36891
:1054700022690CBF25EAE57500259342C4BF9B1A3B
:10548000ED1800261A34B5421AD1002008E0012395
:10549000524649463846C047013003D14FF0FF30ED
:1054A000BDE8F0870135C6E7E1185A1C302081F8C5
:1054B0004300224494F8451082F843100233C7E7B2
:1054C0000123224649463846C0470130E6D001361E
:1054D000D9E700002DE9FF470C469146277E0C993D
:1054E000782F80469A4604F1430207D8622F0AD8E3
:1054F000002F00F0D880582F00F0A38004F142065E
:1055000084F842703AE0A7F16303152BF6D801A0A6
:1055100050F823F06D55000881550008FD5400082F
:10552000FD540008FD540008FD5400088155000892
:10553000FD540008FD540008FD540008FD54000807
:105540008D560008B15500086F560008FD5400083C
:10555000FD540008AF560008FD540008B15500087E
:10556000FD540008FD540008775600080B681A1D0A
:105570001B680A6004F1420684F842300123A3E06C
:10558000256808682E0600F104030AD505680B603B
:10559000002D03DA2D236D4284F843305E480A2340
:1055A00019E015F0400F05680B6018BF2DB2EFE74A
:1055B0000B682568181D0860280601D51D6802E0E3
:1055C0006906FBD51D8854486F2F0CBF08230A239A
:1055D000002184F843106668A660002EA2BF2168EF
:1055E00021F0040121600DB9002E4DD01646B5FB07
:1055F000F3F103FB1157C75D06F8017D2F46BB424F
:105600000D46F4D9082B0BD12368DF0708D5236991
:1056100061689942DEBF302306F8013C06F1FF368F
:10562000921B2261CDF800A04B4603AA21464046BA
:10563000FFF7E2FE01304CD14FF0FF3004B0BDE87F
:10564000F087354884F8457023680E681F0656F8C1
:10565000045B0E6014D5D90744BF43F020032360D8
:105660001DB9236823F0200323601023B0E72368CB
:1056700043F0200323607823284884F84530E3E78B
:105680005E0648BFADB2E6E71646BBE70B68266884
:1056900060691D1D0D6035061B6801D5186002E0AC
:1056A0007106FBD51880002323611646BAE70B6804
:1056B0001A1D0A601E68626800213046FAF788FDEC
:1056C00008B1801B606063682361002384F8433065
:1056D000A8E72369324649464046D0470130ABD05F
:1056E00023689B0713D4E068039B9842B8BF184611
:1056F000A4E70123324649464046D04701309BD0BB
:105700000135E36803995B1AAB42F2DCEBE7002555
:1057100004F11906F5E700BF838F0008948F000895
:1057200038B5064D0023044608462B60FCF79CFF65
:10573000431C02D12B6803B1236038BDE411002063
:10574000F8B50E461446054618B183690BB900F04A
:10575000D9F9214B9C422BD16C68A369A360A38922
:105760001A072FD523696BB323692068C01A6369B0
:10577000F6B28342374604DC2146284600F02EF973
:1057800030BBA368013BA36023685A1C22601E70D3
:1057900063690130834204D0A389DB0706D50A2E52
:1057A00004D12146284600F019F988B93846F8BDD9
:1057B0000A4B9C4201D1AC68CFE7094B9C4208BF21
:1057C000EC68CAE72146284600F00CF80028CBD048
:1057D0004FF0FF37EAE700BFC88F0008E88F0008E6
:1057E000A88F0008324B70B51D6806460C4625B1DF
:1057F000AB6913B9284600F085F92E4B9C420FD1B6
:105800006C68A389B4F90C2019072CD4DD0611D4D7
:105810000923336042F04003A3814FF0FF303EE0A4
:10582000254B9C4201D1AC68EBE7244B9C4208BF5E
:10583000EC68E6E7580712D5616B41B104F1440307
:10584000994202D03046FFF7D3FB00236363A3895C
:1058500023F02403A3810023636023692360A389C9
:1058600043F00803A38123694BB9A38903F4207390
:10587000B3F5007F03D02146304600F007FAA08937
:10588000B4F90C2010F001030AD00023A36063696F
:105890005B42A361236943B910F08000BAD170BDA7
:1058A000810758BF6369A360F4E70020F7E700BFF2
:1058B00024000020C88F0008E88F0008A88F000887
:1058C00008B5062000F056FA0120FCF755FE00004E
:1058D0008A892DE9F041054610070C4658D44B68DB
:1058E000002B05DC0B6C002B02DC0020BDE8F081F6
:1058F000E66A002EF9D0002312F480522F682B6044
:1059000032D0606DA3895A0705D56368C01A636BEE
:105910000BB1236CC01A00230246E66A216A2846AE
:10592000B047431CA38906D129681D292CD82A4ACF
:10593000CA40D60728D500226260D90422692260B5
:1059400004D5421C01D12B6803B96065616B2F60DF
:105950000029CAD004F14403994202D02846FFF737
:1059600047FB00206063C1E7216A01232846B04756
:10597000411CC7D12B68002BC4D01D2B01D0162B86
:1059800001D12F60B1E7A38943F04003A381ADE7C4
:105990000F69002FA9D093070E6808BF4B690F60ED
:1059A00018BF0023A6EB07088B60B8F1000F9CDD41
:1059B000216AA66A43463A462846B047002806DCD4
:1059C000A38943F04003A3814FF0FF308EE70744E3
:1059D000A8EB0008E9E700BF0100402038B50B69DB
:1059E00005460C4613B90025284638BD18B1836911
:1059F0000BB900F087F8144B9C421BD16C68B4F9CA
:105A00000C30002BEFD0626ED00704D4990502D47D
:105A1000A06D00F015F928462146FFF759FF636E87
:105A2000DA070546E0D4A3899B05DDD4A06D00F01C
:105A300008F9D9E7054B9C4201D1AC68DFE7044B7C
:105A40009C4208BFEC68DAE7C88F0008E88F0008BE
:105A5000A88F0008002310B50446C0E90033C0E950
:105A60000433836081814366C281836119460822C1
:105A70005C30FFF7E3F9054B6362054BA362054B0E
:105A8000E362054B2462236310BD00BFAD5D0008D7
:105A9000CF5D0008075E00082B5E0008014900F09A
:105AA000AFB800BFDD59000870B54A1E68255543E0
:105AB0000E4605F17401FFF7EBFA044640B10021F0
:105AC000C0E900160C30A06005F16802FFF7B6F9D6
:105AD000204670BD014800F0B3B800BFF0110020AF
