:020000040800F2
:100000000000022015240008392200083F220008C1
:10001000452200084B220008512200080000000081
:10002000000000000000000000000000572200084F
:1000300065220008000000007322000881220008E9
:10004000652400086524000865240008652400086C
:10005000652400086524000865240008652400085C
:10006000652400086524000865240008652400084C
:10007000652400086524000865240008652400083C
:10008000652400086524000865240008652400082C
:10009000652400086524000865240008652400081C
:1000A000652400086524000865240008652400080C
:1000B0008D220008652400086524000865240008D6
:1000C00065240008652400086524000865240008EC
:1000D00065240008652400086524000865240008DC
:1000E00065240008652400086524000865240008CC
:1000F00065240008652400086524000865240008BC
:1001000065240008652400086524000865240008AB
:10011000652400086524000865240008652400089B
:10012000652400086524000865240008652400088B
:10013000652400086524000865240008652400087B
:10014000652400086524000865240008652400086B
:10015000652400086524000865240008652400085B
:10016000652400086524000865240008652400084B
:1001700065240008652400086524000800000000CC
:08018000652400086524000855
:1001900010B5054C237833B9044B13B10448AFF3C1
:1001A00000800123237010BD7800002000000000B3
:1001B0002C54000808B5034B1BB103490348AFF3A7
:1001C000008008BD000000007C0000202C540008C6
:1001D000034613F8012B002AFBD1181A0138704787
:1001E00001F0FF01102A2BDB10F0070F08D010F8E8
:1001F000013B013A8B422DD010F0070F42B3F6D1EC
:10020000F0B441EA012141EA014122F007047FF004
:1002100000070023F0E80256083C85EA010586EA5B
:10022000010685FA47F5A3FA87F586FA47F6A5FA97
:1002300087F68EB9EED1F0BC01F0FF0102F00702A3
:1002400032B110F8013B013A83EA010313B1F8D14E
:100250000020704701387047002D06BF354603382F
:10026000073815F0010F07D1013015F4807F02BF68
:10027000013015F4C03F0130F0BC0138704700BFB9
:1002800053B94AB9002908BF00281CBF4FF0FF31FD
:100290004FF0FF3000F074B9ADF1080C6DE904CEF9
:1002A00000F006F8DDF804E0DDE9022304B0704751
:1002B0002DE9F047089D04468E46002B4DD18A4219
:1002C000944669D9B2FA82F252B101FA02F3C2F14C
:1002D000200120FA01F10CFA02FC41EA030E9440DD
:1002E0004FEA1C48210CBEFBF8F61FFA8CF708FBFE
:1002F00016E341EA034306FB07F199420AD91CEBD6
:10030000030306F1FF3080F01F81994240F21C8107
:10031000023E63445B1AA4B2B3FBF8F008FB10334F
:1003200044EA034400FB07F7A7420AD91CEB040484
:1003300000F1FF3380F00A81A74240F20781644454
:10034000023840EA0640E41B00261DB1D4400023D9
:10035000C5E900433146BDE8F0878B4209D9002D3D
:1003600000F0EF800026C5E9000130463146BDE8C7
:10037000F087B3FA83F6002E4AD18B4202D3824231
:1003800000F2F980841A61EB030301209E46002DE0
:10039000E0D0C5E9004EDDE702B9FFDEB2FA82F235
:1003A000002A40F09280A1EB0C014FEA1C471FFA93
:1003B0008CFE0126200CB1FBF7F307FB131140EA7A
:1003C00001410EFB03F0884208D91CEB010103F147
:1003D000FF3802D2884200F2CB804346091AA4B209
:1003E000B1FBF7F007FB101144EA01440EFB00FEDD
:1003F000A64508D91CEB040400F1FF3102D2A64542
:1004000000F2BB800846A4EB0E0440EA03409CE7E0
:10041000C6F12007B34022FA07FC4CEA030C20FA8D
:1004200007F401FA06F31C43F9404FEA1C4900FAAD
:1004300006F3B1FBF9F8200C1FFA8CFE09FB18112A
:1004400040EA014108FB0EF0884202FA06F20BD99D
:100450001CEB010108F1FF3A80F08880884240F2ED
:100460008580A8F102086144091AA4B2B1FBF9F031
:1004700009FB101144EA014100FB0EFE8E4508D92C
:100480001CEB010100F1FF346CD28E456AD90238B1
:10049000614440EA0840A0FB0294A1EB0E01A14296
:1004A000C846A64656D353D05DB1B3EB080261EB04
:1004B0000E0101FA07F722FA06F3F1401F43C5E9DE
:1004C000007100263146BDE8F087C2F12003D84014
:1004D0000CFA02FC21FA03F3914001434FEA1C4756
:1004E0001FFA8CFEB3FBF7F007FB10360B0C43EA48
:1004F000064300FB0EF69E4204FA02F408D91CEBF8
:10050000030300F1FF382FD29E422DD902386344F5
:100510009B1B89B2B3FBF7F607FB163341EA034195
:1005200006FB0EF38B4208D91CEB010106F1FF38E4
:1005300016D28B4214D9023E6144C91A46EA0046DB
:1005400038E72E46284605E70646E3E61846F8E66D
:100550004B45A9D2B9EB020864EB0C0E0138A3E7B6
:100560004646EAE7204694E74046D1E7D0467BE797
:10057000023B614432E7304609E76444023842E70F
:10058000704700BF80B500AF01220821024802F089
:10059000AFFA00BF80BD00BF000C024080B584B040
:1005A00000AF002208212F4802F0A2FA0122082100
:1005B0002C4802F09DFA0A2302222B492B4803F013
:1005C000DAF80023FB604FF400437B8100237B605B
:1005D0003FE07B68002B06DB7B68032B03DC7B683A
:1005E0000433FB6018E07B68032B07DD7B68072B77
:1005F00004DC7B68C3F10703FB600DE07B68072B1D
:1006000006DD7B680B2B03DC7B680433FB6003E0B7
:100610007B68C3F11703FB60134B1A887B89134077
:100620009BB2002B05D0124AFB68002122F8131060
:1006300009E00F4AFB6832F81330013399B20C4AD3
:10064000FB6822F813107B895B087B817B68013390
:100650007B607B680F2BBCDD00BF00BF1037BD4641
:1006600080BD00BF000C0240B40000202801002023
:100670009400002080B58EB000AF07F11C0300226B
:100680001A605A609A60DA601A615A619A613B4650
:1006900000221A605A609A60DA601A615A619A619F
:1006A0002F4B4FF020421A602D4B2E4A5A602C4B94
:1006B00000229A602A4B0022DA60294B00221A613C
:1006C000274B10225A61264B00229A61244B0022AC
:1006D000DA61234B00221A62214B00225A62204B1E
:1006E0004FF480529A621E4B0022DA621C4B4FF488
:1006F00080421A631A4B00225A63194B00229A63F4
:10070000174B00225A640F23FB610F233B623C23EB
:100710007B620023BB621023FB6211233B63002337
:100720007B6308233B600F237B600923BB600023AE
:10073000FB6010233B6111237B610023BB613A46C0
:1007400007F11C031946064803F0F8FB0346002B8B
:1007500001D001F0D9F800BF3837BD4680BD00BFD9
:10076000B8000020040100A080B586B000AF3B1D9A
:1007700000221A605A609A60DA601A611C4B1B688A
:10078000002B31D11A4B01221A6000233B60194B18
:100790009B6B184A43F001039363164B9B6B03F06A
:1007A00001033B603B684FF688737B600223BB60AC
:1007B0000023FB6003233B610C237B613B1D194637
:1007C0000D4801F0F9FF4CF2B3737B600223BB606C
:1007D0000023FB6003233B610C237B613B1D194617
:1007E000064801F0E9FF00E000BF1837BD4680BDB4
:1007F000080100200038024000100240000C0240B6
:1008000080B582B000AF7860FFF7AEFF00BF083759
:10081000BD4680BD80B58CB000AF07F11C0300223F
:100820001A605A609A60DA601A610023BB616F4BEC
:100830001B6B6E4A43F0100313636C4B1B6B03F08E
:100840001003BB61BB6900237B61684B1B6B674A6C
:1008500043F004031363654B1B6B03F004037B61DC
:100860007B6900233B61614B1B6B604A43F0800353
:1008700013635E4B1B6B03F080033B613B690023FA
:10088000FB605A4B1B6B594A43F001031363574BF0
:100890001B6B03F00103FB60FB680023BB60534B41
:1008A0001B6B524A43F008031363504B1B6B03F05E
:1008B0000803BB60BB6800237B604C4B1B6B4B4A3F
:1008C00043F040031363494B1B6B03F040037B6011
:1008D0007B6800233B60454B1B6B444A43F002039B
:1008E0001363424B1B6B03F002033B603B68002227
:1008F00070213F4802F0FCF800224FF400513D48BF
:1009000002F0F6F8002240213B4802F0F1F8002204
:100910004FF48071394802F0EBF800220821384882
:1009200002F0E6F87023FB6101233B6200237B6247
:100930000023BB6207F11C0319462D4801F03CFF60
:100940004FF40053FB6101233B6200237B620023D1
:10095000BB6207F11C031946264801F02DFFC02396
:10096000FB6100233B6200237B6207F11C031946F5
:10097000224801F021FF3023FB6100233B6200236A
:100980007B6207F11C0319461A4801F015FF40234A
:10099000FB6101233B6200237B620023BB6207F102
:1009A0001C031946144801F007FF4FF48073FB61E4
:1009B00001233B6200237B620023BB6207F11C031F
:1009C00019460E4801F0F8FE0823FB6101233B6243
:1009D00000237B620023BB6207F11C031946084811
:1009E00001F0EAFE00BF3037BD4680BD003802404E
:1009F00000100240000802400018024000000240BF
:100A0000000C024080B483B000AF0346FB80044A70
:100A1000FB88138000BF0C37BD465DF8047B704730
:100A2000FEFF0F6080B483B000AF0346FB80044A32
:100A3000FB88538000BF0C37BD465DF8047B7047D0
:100A4000FEFF0F6080B483B000AF064B5B889BB2A3
:100A5000FB80FB889BB218460C37BD465DF8047BD3
:100A6000704700BFFEFF0F6090B583B000AF044633
:100A7000084611461A462346FB800346BB800B46B8
:100A80007B8013463B802A20FFF7BCFFFB881B0AB4
:100A90009BB21846FFF7C6FFFB88DBB29BB2184635
:100AA000FFF7C0FF7B881B0A9BB21846FFF7BAFF0F
:100AB0007B88DBB29BB21846FFF7B4FF2B20FFF711
:100AC000A1FFBB881B0A9BB21846FFF7ABFFBB8890
:100AD000DBB29BB21846FFF7A5FF3B881B0A9BB20F
:100AE0001846FFF79FFF3B88DBB29BB21846FFF723
:100AF00099FF2C20FFF786FF00BF0C37BD4690BD45
:100B000080B584B000AF0346FB80154B1B88013BCA
:100B10009AB2134B5B88013B9BB200210020FFF788
:100B2000A3FF0023FB8111E00023BB8106E0FB88CB
:100B30001846FFF777FFBB890133BB81084B5B8801
:100B4000BA899A42F3D3FB890133FB81044B1B889A
:100B5000FA899A42E8D300BF00BF1037BD4680BD76
:100B60001801002090B585B000AF04460846114634
:100B70001A462346FB800346BB800B467B80134608
:100B80003B807B88013B9AB23B88013B9BB2B98892
:100B9000F888FFF769FFBB88FB8110E0FB88BB8109
:100BA00006E03B8C1846FFF73DFFBB890133BB8154
:100BB000BA897B889A42F4D3FB890133FB81FA8995
:100BC0003B889A42EAD300BF00BF1437BD4690BDB0
:100BD00080B582B000AF0346FB800B46BB80134656
:100BE0007B80BB88FA88B988F888FFF73DFF7B884F
:100BF0001846FFF717FF00BF0837BD4680BD90B508
:100C00008DB000AF0446084611461A462346FB80C5
:100C10000346BB800B467B8013463B800023BB62B0
:100C200000237B627A88FB88D31A3B623A88BB88B0
:100C3000D31AFB61FB88FB60BB88BB603B6A002B5F
:100C400002DD01237B610BE03B6A002B02D1002314
:100C50007B6105E04FF0FF337B613B6A5B423B62A7
:100C6000FB69002B02DD01233B610BE0FB69002BDC
:100C700002D100233B6105E04FF0FF333B61FB698C
:100C80005B42FB613A6AFB699A4202DD3B6ABB61E7
:100C900001E0FB69BB610023FB852BE0FB689BB295
:100CA000BA6891B2B7F840201846FFF791FFBA6AC8
:100CB0003B6A1344BB627A6AFB6913447B62BA6A7B
:100CC000BB699A4207DDBA6ABB69D31ABB62FA688C
:100CD0007B691344FB607A6ABB699A4207DD7A6AD2
:100CE000BB69D31A7B62BA683B691344BB60FB8D56
:100CF0000133FB85FB8DBA699A42CFDA00BF00BF92
:100D00003437BD4690BD90B585B002AF0446084665
:100D100011461A462346FB800346BB800B467B8068
:100D200013463B80BC887A88B988F8883B8B00934F
:100D30002346FFF764FF3C88FA88B988F8883B8B24
:100D400000932346FFF75BFF3C887A883988F88850
:100D50003B8B00932346FFF752FF3C887A88B98883
:100D600078883B8B00932346FFF749FF00BF0C3781
:100D7000BD4690BD90B587B000AF04460846114609
:100D80001A462346FB800346BB800B46FB70134686
:100D90003B8000237B75FB883B8297F82C305B08F7
:100DA000FB73FB7BDB08DBB21A46FB7B03F007031C
:100DB000DBB2002B14BF01230023DBB213449AB231
:100DC00097F82C309BB212FB03F3BB81FB78203BDE
:100DD000FB70FB7B9AB2FB8813449BB2013B9CB235
:100DE00097F82C309AB2BB8813449BB2013B9BB25C
:100DF000B988F8882246FFF737FE00237B827AE025
:100E000097F82C300C2B28D097F82C30102B08D1C9
:100E1000FA787B8A3C4912010A4413441B78FB751B
:100E20001BE097F82C30182B0BD1FA78798A3748C9
:100E300013465B0013441B0103440B441B78FB75F2
:100E40000BE097F82C30202B5AD1FA787B8A304966
:100E500092010A4413441B78FB750023BB7544E0E0
:100E600097F83030002B20D1FA7DBB7D42FA03F396
:100E700003F00103002B04D03B881846FFF7D2FD96
:100E800003E03B8D1846FFF7CDFD7B7D01337B757D
:100E90007B7DFA7BB3FBF2F101FB02F29B1ADBB222
:100EA000002B1FD100237B7522E0FA7DBB7D42FA27
:100EB00003F303F00103002B05D03A88B988FB88BF
:100EC0001846FFF785FEFB880133FB80FA883B8AD2
:100ED000D21AFB7B9A4205D13B8AFB80BB88013347
:100EE000BB8005E0BB7D0133BB75BB7D072BB7D94C
:100EF0007B8A01337B827A8ABB899A4280D300E065
:100F000000BF1C37BD4690BD48550008385B00083F
:100F1000086D000890B587B000AF0446084611463A
:100F20001A462346FB800346BB800B467B80134654
:100F30003B8000233B61FA887B8813449BB2013BD2
:100F40009CB2BA883B8813449BB2013B9BB2B988E0
:100F5000F8882246FFF788FD0023FB8227E0002364
:100F6000BB821DE03B695B00BA6A13441B78FB73CC
:100F70003B695B000133BA6A13441B78BB73FB7B8C
:100F80001B021AB2BB7B1BB213431BB29BB21846A7
:100F9000FFF748FD3B6901333B61BB8A0133BB82EC
:100FA000BA8A3B889A42DDD3FB8A0133FB82FA8AF4
:100FB0007B889A42D3D300BF00BF1C37BD4690BD8B
:100FC00080B483B000AF0346FB71FB791B09DBB231
:100FD00003F00303DBB2002B07D00A4B4FF4A072DF
:100FE0001A80084BF0225A8006E0064BF0221A8045
:100FF000044B4FF4A0725A8000BF0C37BD465DF819
:10100000047B70471801002080B500AF00224FF428
:101010000051AA4801F06CFD4FF4FA7001F096FA05
:1010200001224FF40051A54801F062FD4FF4FA701F
:1010300001F08CFA0020FFF7C3FFD320FFF7E2FC9A
:10104000FFF700FD03461A469D4B9A80FFF7FAFC16
:1010500003461A469A4B9A80FFF7F4FC03461A4659
:10106000974B9A80964B9B881B029AB2944B9A801E
:10107000FFF7E8FC03461A46914B9B8813439AB24C
:101080008F4B9A80CF20FFF7BDFC0020FFF7CAFCF2
:10109000C120FFF7C7FC3020FFF7C4FCED20FFF7AD
:1010A000B1FC6420FFF7BEFC0320FFF7BBFC12205D
:1010B000FFF7B8FC8120FFF7B5FCE820FFF7A2FCA2
:1010C0008520FFF7AFFC1020FFF7ACFC7A20FFF77C
:1010D000A9FCCB20FFF796FC3920FFF7A3FC2C20BE
:1010E000FFF7A0FC0020FFF79DFC3420FFF79AFCDF
:1010F0000220FFF797FCF720FFF784FC2020FFF782
:1011000091FCEA20FFF77EFC0020FFF78BFC00201B
:10111000FFF788FCC020FFF775FC1B20FFF782FC5F
:10112000C120FFF76FFC0120FFF77CFCC520FFF713
:1011300069FC3020FFF776FC3020FFF773FCC720F6
:10114000FFF760FCB720FFF76DFC3620FFF75AFC75
:101150000820FFF767FC3A20FFF754FC5520FFF703
:1011600061FCB120FFF74EFC0020FFF75BFC1A206A
:10117000FFF758FCB620FFF745FC0A20FFF752FCAA
:10118000A220FFF74FFCF220FFF73CFC0020FFF706
:1011900049FC2620FFF736FC0120FFF743FCE02046
:1011A000FFF730FC0F20FFF73DFC2A20FFF73AFC49
:1011B0002820FFF737FC0820FFF734FC0E20FFF74C
:1011C00031FC0820FFF72EFC5420FFF72BFCA92050
:1011D000FFF728FC4320FFF725FC0A20FFF722FC3D
:1011E0000F20FFF71FFC0020FFF71CFC0020FFF77B
:1011F00019FC0020FFF716FC0020FFF713FCE1208C
:10120000FFF700FC0020FFF70DFC1520FFF70AFC9C
:101210001720FFF707FC0720FFF704FC1120FFF75A
:1012200001FC0620FFF7FEFB2B20FFF7FBFB5620FF
:10123000FFF7F8FB3C20FFF7F5FB0520FFF7F2FB7B
:101240001020FFF7EFFB0F20FFF7ECFB3F20FFF72D
:10125000E9FB3F20FFF7E6FB0F20FFF7E3FB2B2026
:10126000FFF7D0FB0020FFF7DDFB0020FFF7DAFBE4
:101270000120FFF7D7FB3F20FFF7D4FB2A20FFF721
:10128000C1FB0020FFF7CEFB0020FFF7CBFB0020C7
:10129000FFF7C8FBEF20FFF7C5FB1120FFF7B2FBFC
:1012A000782001F053F92920FFF7ACFB01224FF41D
:1012B0008071044801F01CFC00BF80BD00080240A2
:1012C000180100200000024080B584B000AFF86033
:1012D000B9607A603B60FB689AB27B689BB213444A
:1012E00098B2BB689AB23B689BB213449BB23A8BEC
:1012F0001946FFF76DFCFB689AB27B689BB2D31A64
:1013000098B2BB689AB23B689BB213449BB23A8BCB
:101310001946FFF75DFCFB689AB27B689BB21344E9
:1013200098B2BB689AB23B689BB2D31A9BB23A8B15
:101330001946FFF74DFCFB689AB27B689BB2D31A43
:1013400098B2BB689AB23B689BB2D31A9BB23A8BF5
:101350001946FFF73DFCFB689AB23B689BB2134409
:1013600098B2BB689AB27B689BB213449BB23A8B2B
:101370001946FFF72DFCFB689AB23B689BB2D31A63
:1013800098B2BB689AB27B689BB213449BB23A8B0B
:101390001946FFF71DFCFB689AB23B689BB21344E9
:1013A00098B2BB689AB27B689BB2D31A9BB23A8B55
:1013B0001946FFF70DFCFB689AB23B689BB2D31A43
:1013C00098B2BB689AB27B689BB2D31A9BB23A8B35
:1013D0001946FFF7FDFB00BF1037BD4680BD80B545
:1013E0008AB002AFF860B9603B601346FB8000230F
:1013F000FB613B68BB613B685B00C3F103033B617E
:10140000BB6A002B4FD029E0FB697B610AE0FB88B7
:1014100000937B69FA69B968F868FFF755FF7B6943
:1014200001337B617A69BB699A42F0DD3B69002B2D
:1014300006DAFB699A003B69134406333B610AE014
:10144000FA69BB69D31A9A003B6913440A333B61BA
:10145000BB69013BBB61FB690133FB61FA69BB6995
:101460009A42D1DD23E0FB880093BB69FA69B96831
:10147000F868FFF729FF3B69002B06DAFB699A0041
:101480003B69134406333B610AE0FA69BB69D31A2E
:101490009A003B6913440A333B61BB69013BBB6162
:1014A000FB690133FB61FA69BB699A42DBDD00BF6E
:1014B0002037BD4680BD000090B58BB004AFBA6048
:1014C0001A460346FB810B46BB811346FB80FB8912
:1014D000BB820023FB7548E0FB7D002B45D1FA89D8
:1014E000264B1B88194697F82C305B08DBB2CB1AC9
:1014F0009A423FDCBA89214B5B88194697F82C3019
:10150000CB1A9A4236DCBB681B78802B02D90123A8
:10151000FB752AE0BB681B780D2B0BD197F82C309C
:101520009AB2BB891344BB81BB8AFB81BB68013380
:10153000BB6017E0BB681A78FC88B989F88997F80E
:101540003030029397F82C3001933B8D0093234663
:10155000FFF710FC97F82C305B08DBB29AB2FB89DE
:101560001344FB81BB680133BB60BB681B78002B55
:10157000B2D100E000BF1C37BD4690BD180100206D
:1015800080B58AB004AFBA601A460346FB810B46A9
:10159000BB811346FB80B868FEF71AFE0346FB8248
:1015A0000F4B1B881A46FB8ADB00D31ADA0F134451
:1015B0005B10BB82FA89BB8A134498B2FA88B98956
:1015C00097F82830029397F8243001933B8C0093CE
:1015D0001346BA68FFF770FF00BF1837BD4680BDDD
:1015E0001801002080B500AF01224021024801F01F
:1015F0007FFA00BF80BD00BF0018024080B500AF79
:101600003F4B1B88DBB29AB23D4B1A803D4B1B8887
:101610001A463D4B9B5C1B021AB2394B1B881BB20E
:1016200013431BB29AB2364B1A80364B1B88032BDE
:1016300046D801A252F823F04916000867160008A0
:1016400085160008A31600082D4B1B8843F0B00335
:101650009AB22B4B1A802A4B1B8823F040039AB274
:10166000274B1A802DE0264B1B8843F0D0039AB2FB
:10167000234B1A80224B1B8823F020039AB2204B65
:101680001A801EE01E4B1B8843F0E0039AB21C4BED
:101690001A801B4B1B8823F010039AB2184B1A8038
:1016A0000FE0174B1B8843F070039AB2144B1A805B
:1016B000134B1B8823F080039AB2114B1A8000E071
:1016C00000BF104B1B8801335A4203F0030302F0A2
:1016D000030258BF53429AB20A4B1A80002240219B
:1016E0000A4801F005FA012302220549084801F0E1
:1016F00006FF01224021054801F0FAF900BF80BD34
:10170000040000201E0100200000002000180240FC
:101710002801002080B500AF00F0A6FE00F020F800
:10172000FFF778F800F004FE00F008FAFEF7A2FFD9
:1017300000F080F84FF6FF70FFF7E2F900F09AF83A
:1017400000BF064B1B88002BFBD0044B00221A80E5
:10175000FEF724FF00F056FBF2E700BF2001002057
:1017600080B594B000AF07F1200330220021184665
:1017700003F0A4F907F10C0300221A605A609A6082
:10178000DA601A610023BB60284B1B6C274A43F0C8
:1017900080531364254B1B6C03F08053BB60BB6804
:1017A00000237B60224B1B68214A43F48043136073
:1017B0001F4B1B6803F480437B607B6802233B6202
:1017C0000123FB6210233B630223BB630023FB6303
:1017D00008233B64A8237B640223BB640423FB64CB
:1017E00007F12003184601F09DF90346002B01D0B4
:1017F00000F08AF80F23FB6002233B6100237B612A
:101800004FF4A053BB614FF4A053FB6107F10C03ED
:101810000521184601F0FEFB0346002B01D000F025
:1018200073F800BF5037BD4680BD00BF003802408E
:101830000070004080B500AF002220210C4801F06C
:1018400057F9002240210A4801F052F900221021E4
:10185000074801F04DF900F021F9FFF7C3FEFEF74C
:1018600091FEFFF7D1FBC82000F022F900BF80BD38
:101870000010024080B584B004AF1F2300931423EE
:10188000F02200210020FFF76DF9012302931023BD
:1018900001931F2300934FF47843184A022100203C
:1018A000FFF76EFE00230293182301934FF4784351
:1018B00000934FF6FF73124A1E211420FFF7FCFD20
:1018C0000123009328234FF4FC6278213C20FFF78A
:1018D00086FD0023009328234FF61F027821A020C5
:1018E000FFF77DFD074B00935A235A22C821502051
:1018F000FFF710FB00BFBD4680BD00BF4454000889
:1019000054540008C884000880B400AF72B600BF09
:10191000FEE7000080B590B000AF0346FB80FB8877
:1019200007F10C00064A322103F0D0F807F10C034E
:10193000184603F00FF9034618464037BD4680BDF0
:101940006454000880B582B002AF1B4B1B789BB279
:1019500046339BB200220092F0223C210020FFF788
:1019600001F9154B1B789AB2002300934FF4A07332
:101970003C210020FFF7F6F80F4B1B789BB2C3F118
:10198000F00398B2002300934FF4A073F0223C219F
:10199000FFF7E8F8084B1B789BB2C3F5A07399B228
:1019A000002300934FF4A073F0220020FFF7DAF831
:1019B00000BFBD4680BD00BF0600002080B594B0CA
:1019C00004AF0346FB804FF6FF70FFF799F81F2323
:1019D00000931E23F02200210020FFF7C3F801230B
:1019E0000293102301931F2300934FF47843274A57
:1019F00005210020FFF7C4FD254A07F1080392E8FE
:101A0000030018600433197007F10D032D22002123
:101A1000184603F053F8FB881846FFF77BFFF8637E
:101A200007F10803F96B184603F084F807F1080280
:101A300000230293182301934FF4784300934FF649
:101A4000FF731E211420FFF737FD00230293182394
:101A500001934FF4784300934FF6FF730D4A1E2114
:101A60006E20FFF729FDFFF76DFF0123029310237E
:101A700001931F2300934FF47843074A3C21002031
:101A8000FFF77EFD00BF4037BD4680BD68540008AB
:101A90008C540008745400088054000880B500AFCE
:101AA000024802F0DFFA00BF80BD00BF84010020C1
:101AB00080B483B000AF0346FB80084AFB881380E4
:101AC000064B1A88064B1A80064B00221A8000BF6C
:101AD0000C37BD465DF8047B704700BF2401002031
:101AE000220100202001002080B582B000AF786084
:101AF0007B681B68B3F1804F16D10D4B1B88002B00
:101B000010D00B4B1B88013B9AB2094B1A80084B33
:101B10001B88002B06D1074B01221A80064B1A881E
:101B2000034B1A80FFF76AFD00BF0837BD4680BD32
:101B300022010020200100202401002080B500AFF8
:101B4000174B184A1A60164B4FF482725A60144BA6
:101B500000229A60124B0022DA60114B00221A61B7
:101B60000F4B00225A610E4B4FF400729A610C4BDE
:101B70000022DA610A4B00221A62094B00225A62E3
:101B8000074B00229A62064B0A22DA62044801F0EF
:101B90002DFC0346002B01D0FFF7B6FE00BF80BD31
:101BA000280100200030014080B58AB000AF786085
:101BB00007F1140300221A605A609A60DA601A6111
:101BC0007B681B68194A93422BD100233B61184B59
:101BD0005B6C174A43F480535364154B5B6C03F4FE
:101BE00080533B613B690023FB60114B1B6B104A28
:101BF00043F0020313630E4B1B6B03F00203FB6005
:101C0000FB6838237B610223BB610023FB61032354
:101C10003B6205237B6207F114031946054800F077
:101C2000CBFD00BF2837BD4680BD00BF003001405E
:101C3000003802400004024080B592B004AF002397
:101C40003B603B1D2E220021184602F037FF00208A
:101C5000FEF756FF002302931823019348F2304306
:101C600000934FF6FF73234A05213C20FFF724FC25
:101C7000002302931823019348F2304300934FF658
:101C8000FF731D4A32212820FFF716FC4FF6FF7321
:101C900000938223B42264213C20FFF734F8174BD1
:101CA0001B881846FFF736FE78633B46796B18466B
:101CB00002F040FF3A4600230293182301934FF4A9
:101CC000784300934FF6FF7369210020FFF758FC1B
:101CD000002302931823019348F2304300934FF6F8
:101CE000FF73074AB4215020FFF7E6FB00BF3837E7
:101CF000BD4680BDC0540008D05400080C0100202F
:101D0000E054000880B594B004AF0346FB80002087
:101D1000FEF7F6FE002300931E23F0220021002090
:101D2000FEF720FF002302931823019348F230436B
:101D300000934FF6FF732E4A05213C20FFF7BCFBB2
:101D40002C4A07F1080392E8030018600433198055
:101D500007F10E032C220021184602F0AFFEFB888B
:101D60001846FFF7D7FDF86307F10803F96B18462B
:101D700002F0E0FE07F1080200230293182301930A
:101D800048F2304300934FF6FF7332210020FFF7F3
:101D9000F7FB002302931823019348F2304300938A
:101DA0004FF6FF73144A64210020FFF7E9FB00237C
:101DB00002931823019348F2304300934FF6FF73C8
:101DC0000E4A96210A20FFF777FB0023029318237F
:101DD000019348F2304300934FF6FF73084AC8213D
:101DE0000A20FFF769FB00BF4037BD4680BD00BF3A
:101DF000C054000810550008E8540008F0540008CA
:101E00000055000880B594B004AFAC4B9B8B012B00
:101E10004CD1AB4B1B68042B4AD801A252F823F0DB
:101E2000351E00084D1E0008651E00087D1E0008B6
:101E3000951E0008A24B01221A60A24B00221A80B4
:101E4000A14B00221A60FFF7F7FE32E09C4B022202
:101E50001A609C4B1B881846FFF754FF974B0022D3
:101E60009A8326E0964B03221A60964B1B881846ED
:101E7000FFF7A4FD914B00229A831AE0904B0022B9
:101E80001A60904B1B881846FFF798FD8B4B002279
:101E90009A830EE08A4B00221A608A4B1B881846F0
:101EA000FFF78CFD854B00229A8302E000BF00E023
:101EB00000BF834B1B68012B40F0778100237B60C0
:101EC00007F108032E220021184602F0F7FD002337
:101ED000FB8765E1FB8F794A32F81330012B40F024
:101EE0005C81FB8F0D2B00F2398101A252F823F0A7
:101EF000291F00085D1F0008911F00085D210008D0
:101F0000C51F0008F51F0008252000085D210008F6
:101F10005520000889200008CD2000085D21000818
:101F20000121000833210008664B1B881A469200E5
:101F300013445B009AB2FB8F13449BB201339AB2F5
:101F4000604B1A805F4B1B881846FFF7E3FCB863B1
:101F50003B1DB96B184602F0EDFDFFE0594B1B88A5
:101F60001A46920013445B009AB2FB8F13449BB253
:101F700001339AB2534B1A80524B1B881846FFF715
:101F8000C9FCB8633B1DB96B184602F0D3FDE5E010
:101F90004C4B1B881A46920013445B009AB2FB8F8D
:101FA00013449BB201339AB2464B1A80454B1B88AF
:101FB0001846FFF7AFFCB8633B1DB96B184602F03B
:101FC000B9FDCBE03F4B1B881A46920013445B00DF
:101FD0009AB2FB8F13449AB23A4B1A80394B1B8842
:101FE0001846FFF797FCB8633B1DB96B184602F023
:101FF000A1FDB3E0334B1B881A46920013445B00EB
:102000009AB2FB8F13449AB22E4B1A802D4B1B8829
:102010001846FFF77FFCB8633B1DB96B184602F00A
:1020200089FD9BE0274B1B881A46920013445B00F6
:102030009AB2FB8F13449AB2224B1A80214B1B8811
:102040001846FFF767FCB8633B1DB96B184602F0F2
:1020500071FD83E01B4B1B881A46920013445B0002
:102060009AB2FB8F13449BB2013B9AB2154B1A8074
:10207000144B1B881846FFF74DFCB8633B1DB96B2A
:10208000184602F057FD69E00E4B1B881A46920075
:1020900013445B009AB2FB8F13449BB2013B9AB28C
:1020A000084B1A80074B1B881846FFF733FCB863B0
:1020B0003B1DB96B184602F03DFD4FE09400002037
:1020C000100100200C01002014010020404B1B884F
:1020D0001A46920013445B009AB2FB8F13449BB2E2
:1020E000013B9AB23A4B1A80394B1B881846FFF7CE
:1020F00011FCB8633B1DB96B184602F01BFD2DE0C7
:10210000344BDBB287F83630314B1B88324AA2FBA6
:102110000323DB089AB22E4B1A802D4B1B881846DE
:10212000FFF7F8FBB8633B1DB96B184602F002FDE0
:1021300014E0274B1B881A46920013445B009AB2A6
:10214000234B1A80224B1B881846FFF7E3FBB8632A
:102150003B1DB96B184602F0EDFC00BF0023009355
:102160008223B42264213C20FEF7FCFC4FF6FF736F
:1021700000938223B42264213C20FEF7C4FD3A1D63
:1021800000230293182301934FF4784300934FF6F2
:10219000FF7369210020FFF7F3F9FB8F0133FB8701
:1021A000FB8F0D2B7FF696AE0EE00C4B1B8B012B9D
:1021B0000AD10B4B00221A60054B00221A80094BF2
:1021C00000221A60FFF738FD00BF4037BD4680BDD2
:1021D0000C01002044550008CDCCCCCC940000204C
:1021E000100100201401002080B483B000AF002350
:1021F0007B60104B5B6C0F4A43F4804353640D4B80
:102200005B6C03F480437B607B6800233B60094B7D
:102210001B6C084A43F080531364064B1B6C03F09D
:1022200080533B603B6800BF0C37BD465DF8047BC4
:10223000704700BF0038024080B400AFFEE780B4B2
:1022400000AFFEE780B400AFFEE780B400AFFEE76A
:1022500080B400AFFEE780B400AF00BFBD465DF8BC
:10226000047B704780B400AF00BFBD465DF8047BBF
:10227000704780B400AF00BFBD465DF8047B704777
:1022800080B500AF00F042F900BF80BD80B500AF5F
:10229000024801F057FF00BF80BD00BF840100204D
:1022A00080B586B000AF7860144A154BD31A7B61B5
:1022B0007B693B61134B1B68002B02D1114B124A07
:1022C0001A60104B1A687B6813443A699A4207D225
:1022D00002F0CAFB03460C221A604FF0FF3309E0FC
:1022E000084B1B68FB60074B1A687B681344054A60
:1022F0001360FB6818461837BD4680BD00000220F9
:102300000004000080010020E001002080B400AF44
:10231000064BD3F88830054A43F47003C2F888307E
:1023200000BFBD465DF8047B704700BF00ED00E0D4
:1023300080B586B000AF07F1080300221A605A602A
:102340009A60DA603B4600221A605A601D4B4FF0DB
:1023500080421A601B4B40F247325A60194B0022F0
:102360009A60184B6322DA60164B00221A61154BF3
:1023700000229A61134801F025FE0346002B01D08C
:10238000FFF7C2FA4FF48053BB6007F10803194608
:102390000C4801F0DFFF0346002B01D0FFF7B4FA31
:1023A00000233B6000237B603B461946054802F052
:1023B000FBF90346002B01D0FFF7A6FA00BF183740
:1023C000BD4680BD8401002080B584B000AF786038
:1023D0007B681B68B3F1804F15D10023FB600C4B69
:1023E0001B6C0B4A43F001031364094B1B6C03F095
:1023F0000103FB60FB68002200211C2000F0A5F90E
:102400001C2000F0BEF900BF1037BD4680BD00BFE4
:1024100000380240DFF834D00D480E490E4A002340
:1024200002E0D458C4500433C4188C42F9D30B4A88
:102430000B4C002301E013600432A242FBD3FFF7F0
:1024400065FF02F017FBFFF765F9704700000220F7
:10245000000000207800002064C4000878000020FC
:10246000E0010020FEE7000080B500AF0E4B1B68C6
:102470000D4A43F4007313600B4B1B680A4A43F484
:1024800080631360084B1B68074A43F48073136032
:10249000032000F04FF90F2000F008F8FFF7A4FE2A
:1024A0000023184680BD00BF003C024080B582B0CA
:1024B00000AF7860124B1A68124B1B7819464FF424
:1024C0007A73B3FBF1F3B2FBF3F3184600F067F94C
:1024D0000346002B01D001230EE07B680F2B0AD8A6
:1024E000002279684FF0FF3000F02FF9064A7B6830
:1024F0001360002300E0012318460837BD4680BD65
:1025000008000020100000200C00002080B400AF64
:10251000064B1B781A46064B1B681344044A13608B
:1025200000BFBD465DF8047B704700BF100000206F
:10253000CC01002080B400AF034B1B681846BD4699
:102540005DF8047B704700BFCC01002080B584B0EB
:1025500000AF7860FFF7EEFFB8607B68FB60FB6858
:10256000B3F1FF3F05D00A4B1B781A46FB681344B2
:10257000FB6000BFFFF7DEFF0246BB68D31AFA68B4
:102580009A42F7D800BF00BF1037BD4680BD00BFDC
:102590001000002080B485B000AF78607B6803F045
:1025A0000703FB600C4BDB68BB60BA684FF6FF03A8
:1025B0001340BB60FB681A02BB68134343F0BF6360
:1025C00043F40033BB60044ABB68D36000BF1437D8
:1025D000BD465DF8047B704700ED00E080B400AFBD
:1025E000044BDB681B0A03F007031846BD465DF881
:1025F000047B704700ED00E080B483B000AF034679
:10260000FB7197F90730002B0BDBFB7903F01F02FE
:10261000074997F907305B09012000FA02F241F8F7
:10262000232000BF0C37BD465DF8047B704700BF18
:1026300000E100E080B483B000AF03463960FB7175
:1026400097F90730002B0ADB3B68DAB20C4997F99F
:1026500007301201D2B20B4483F800230AE03B6832
:10266000DAB20849FB7903F00F03043B1201D2B23E
:102670000B441A7600BF0C37BD465DF8047B7047EB
:1026800000E100E000ED00E080B489B000AFF86048
:10269000B9607A60FB6803F00703FB61FB69C3F173
:1026A0000703042B28BF0423BB61FB690433062BFB
:1026B00002D9FB69033B00E000237B614FF0FF324E
:1026C000BB6902FA03F3DA43BB681A407B699A409C
:1026D0004FF0FF317B6901FA03F3D9437B680B406C
:1026E000134318462437BD465DF8047B704700004D
:1026F00080B582B000AF78607B68013BB3F1807F2A
:1027000001D301230FE00A4A7B68013B53600F218C
:102710004FF0FF30FFF78EFF054B00229A60044B0D
:1027200007221A60002318460837BD4680BD00BF47
:1027300010E000E080B582B000AF78607868FFF705
:1027400029FF00BF0837BD4680BD80B586B000AF09
:102750000346B9607A60FB7300237B61FFF73EFF9D
:1027600078617A68B9687869FFF78EFF024697F951
:102770000F3011461846FFF75DFF00BF1837BD4602
:1027800080BD80B582B000AF0346FB7197F907307A
:102790001846FFF731FF00BF0837BD4680BD80B542
:1027A00082B000AF78607868FFF7A2FF0346184652
:1027B0000837BD4680BD000080B489B000AF7860A6
:1027C000396000237B6100233B610023BB61002350
:1027D000FB616BE10122FB6902FA03F37B613B6859
:1027E0001B687A6913403B613A697B699A4240F001
:1027F0005A813B685B6803F00303012B05D03B68FB
:102800005B6803F00303022B30D17B689B68BB61DC
:10281000FB695B00032202FA03F3DB43BA6913404E
:10282000BB613B68DA68FB695B0002FA03F3BA69D3
:102830001343BB617B68BA699A607B685B68BB6164
:102840000122FB6902FA03F3DB43BA691340BB615F
:102850003B685B681B0903F00102FB6902FA03F3A2
:10286000BA691343BB617B68BA695A603B685B68AD
:1028700003F00303032B17D07B68DB68BB61FB69A4
:102880005B00032202FA03F3DB43BA691340BB6126
:102890003B689A68FB695B0002FA03F3BA69134369
:1028A000BB617B68BA69DA603B685B6803F003036D
:1028B000022B23D1FB69DA087B68083253F82230F7
:1028C000BB61FB6903F007039B000F2202FA03F3CD
:1028D000DB43BA691340BB613B681A69FB6903F0CB
:1028E00007039B0002FA03F3BA691343BB61FB6958
:1028F000DA087B680832B96943F822107B681B68E4
:10290000BB61FB695B00032202FA03F3DB43BA6994
:102910001340BB613B685B6803F00302FB695B002B
:1029200002FA03F3BA691343BB617B68BA691A60A0
:102930003B685B6803F44033002B00F0B480002355
:10294000FB60604B5B6C5F4A43F4804353645D4BB8
:102950005B6C03F48043FB60FB685B4AFB699B088C
:10296000023352F82330BB61FB6903F003039B0081
:102970000F2202FA03F3DB43BA691340BB617B68A1
:10298000524A93422BD07B68514A934225D07B68B0
:10299000504A93421FD07B684F4A934219D07B68BC
:1029A0004E4A934213D07B684D4A93420DD07B68C8
:1029B0004C4A934207D07B684B4A934201D107238C
:1029C0000EE008230CE006230AE0052308E00423B8
:1029D00006E0032304E0022302E0012300E00023D9
:1029E000FA6902F0030292009340BA691343BB6193
:1029F0003549FB699B080233BA6941F823203B4BF8
:102A00001B68BB613B69DB43BA691340BB613B6830
:102A10005B6803F48033002B03D0BA693B6913432E
:102A2000BB61324ABB691360304B5B68BB613B6979
:102A3000DB43BA691340BB613B685B6803F4003356
:102A4000002B03D0BA693B691343BB61274ABB69BA
:102A50005360264B9B68BB613B69DB43BA691340FB
:102A6000BB613B685B6803F48013002B03D0BA6939
:102A70003B691343BB611D4ABB6993601B4BDB6819
:102A8000BB613B69DB43BA691340BB613B685B6870
:102A900003F40013002B03D0BA693B691343BB61F5
:102AA000124ABB69D360FB690133FB61FB690F2BE1
:102AB0007FF690AE00BF00BF2437BD465DF8047BB3
:102AC000704700BF0038024000380140000002405B
:102AD0000004024000080240000C024000100240C6
:102AE0000014024000180240001C0240003C01405B
:102AF00080B483B000AF78600B467B8013467B7058
:102B00007B78002B03D07A887B689A6103E07B880E
:102B10001A047B689A6100BF0C37BD465DF8047BE0
:102B20007047000080B586B000AF78607B68002BEE
:102B300001D1012367E27B681B6803F00103002BCE
:102B400075D0884B9B6803F00C03042B0CD0854B8D
:102B50009B6803F00C03082B12D1824B5B6803F4D3
:102B60008003B3F5800F0BD17E4B1B6803F4003359
:102B7000002B5BD07B685B68002B57D1012342E2BE
:102B80007B685B68B3F5803F06D1764B1B68754A5E
:102B900043F4803313601DE07B685B68B3F5A02FBE
:102BA0000CD1704B1B686F4A43F4802313606D4B4C
:102BB0001B686C4A43F4803313600BE0694B1B685D
:102BC000684A23F480331360664B1B68654A23F41C
:102BD000802313607B685B68002B13D0FFF7AAFC8F
:102BE000386108E0FFF7A6FC02463B69D31A642B64
:102BF00001D9032307E25B4B1B6803F40033002B6E
:102C0000F0D014E0FFF796FC386108E0FFF792FC83
:102C100002463B69D31A642B01D90323F3E1514BDC
:102C20001B6803F40033002BF0D100E000BF7B6889
:102C30001B6803F00203002B63D04A4B9B6803F030
:102C40000C03002B0BD0474B9B6803F00C03082BA5
:102C50001CD1444B5B6803F48003002B16D1414B1D
:102C60001B6803F00203002B05D07B68DB68012B97
:102C700001D00123C7E13B4B1B6823F0F8027B68BE
:102C80001B69DB00374913430B603AE07B68DB6864
:102C9000002B20D0344B01221A60FFF74BFC386127
:102CA00008E0FFF747FC02463B69D31A022B01D923
:102CB0000323A8E12B4B1B6803F00203002BF0D089
:102CC000284B1B6823F0F8027B681B69DB00254951
:102CD00013430B6015E0244B00221A60FFF72AFC17
:102CE000386108E0FFF726FC02463B69D31A022B45
:102CF00001D9032387E11B4B1B6803F00203002B60
:102D0000F0D17B681B6803F00803002B36D07B688A
:102D10005B69002B16D0154B01221A60FFF70AFCE5
:102D2000386108E0FFF706FC02463B69D31A022B24
:102D300001D9032367E10B4B5B6F03F00203002B08
:102D4000F0D01BE0094B00221A60FFF7F3FB38615B
:102D50000EE0FFF7EFFB02463B69D31A022B07D9BF
:102D6000032350E10038024000004742800E4742F2
:102D7000884B5B6F03F00203002BEAD17B681B6872
:102D800003F00403002B00F097800023FB75814BB8
:102D90001B6C03F08053002B0FD10023BB607D4BD5
:102DA0001B6C7C4A43F0805313647A4B1B6C03F01A
:102DB0008053BB60BB680123FB75774B1B6803F432
:102DC0008073002B18D1744B1B68734A43F48073D3
:102DD0001360FFF7AFFB386108E0FFF7ABFB02467B
:102DE0003B69D31A022B01D903230CE16A4B1B6800
:102DF00003F48073002BF0D07B689B68012B06D115
:102E0000644B1B6F634A43F0010313671CE07B684C
:102E10009B68052B0CD15F4B1B6F5E4A43F004038C
:102E200013675C4B1B6F5B4A43F0010313670BE0B6
:102E3000584B1B6F574A23F001031367554B1B6F09
:102E4000544A23F0040313677B689B68002B15D05A
:102E5000FFF770FB38610AE0FFF76CFB02463B6945
:102E6000D31A41F28832934201D90323CBE0494B74
:102E70001B6F03F00203002BEED014E0FFF75AFBA8
:102E800038610AE0FFF756FB02463B69D31A41F26C
:102E90008832934201D90323B5E03E4B1B6F03F008
:102EA0000203002BEED1FB7D012B05D1394B1B6CAE
:102EB000384A23F0805313647B689B69002B00F031
:102EC000A180344B9B6803F00C03082B5CD07B681B
:102ED0009B69022B41D1314B00221A60FFF72AFB7C
:102EE000386108E0FFF726FB02463B69D31A022B44
:102EF00001D9032387E0274B1B6803F00073002BE5
:102F0000F0D17B68DA697B681B6A1A437B685B6A6D
:102F10009B011A437B689B6A5B08013B1B041A43B5
:102F20007B68DB6A1B061B4913434B601B4B01226A
:102F30001A60FFF7FFFA386108E0FFF7FBFA024674
:102F40003B69D31A022B01D903235CE0114B1B68A8
:102F500003F00073002BF0D054E0104B00221A60F5
:102F6000FFF7E8FA386108E0FFF7E4FA02463B6948
:102F7000D31A022B01D9032345E0064B1B6803F04B
:102F80000073002BF0D13DE07B689B69012B07D1DA
:102F9000012338E0003802400070004060004742E2
:102FA0001B4B5B68FB607B689B69012B28D0FB682F
:102FB00003F480027B68DB699A4221D1FB6803F04D
:102FC0003F027B681B6A9A421AD1FA6847F6C073BF
:102FD00013407A68526A9201934211D1FB6803F45C
:102FE00040327B689B6A5B08013B1B049A4207D115
:102FF000FB6803F070627B68DB6A1B069A4201D0B3
:10300000012300E0002318461837BD4680BD00BFED
:103010000038024080B584B000AF786039607B68CA
:10302000002B01D10123CCE0684B1B6803F00703A0
:103030003A689A420CD9654B3A68D2B21A70634B1F
:103040001B6803F007033A689A4201D00123B8E0F5
:103050007B681B6803F00203002B20D07B681B6891
:1030600003F00403002B05D0594B9B68584A43F4E6
:10307000E05393607B681B6803F00803002B05D0C6
:10308000534B9B68524A43F460439360504B9B6898
:1030900023F0F0027B689B684D4913438B607B688B
:1030A0001B6803F00103002B44D07B685B68012B95
:1030B00007D1474B1B6803F40033002B19D10123C0
:1030C0007FE07B685B68022B03D07B685B68032B27
:1030D00007D13F4B1B6803F00073002B09D101237C
:1030E0006FE03B4B1B6803F00203002B01D101236F
:1030F00067E0374B9B6823F003027B685B683449C9
:1031000013438B60FFF716FAF8600AE0FFF712FA34
:103110000246FB68D31A41F28832934201D9032355
:103120004FE02B4B9B6803F00C027B685B689B00B5
:103130009A42EBD1254B1B6803F007033A689A4289
:103140000CD2224B3A68D2B21A70204B1B6803F0A3
:1031500007033A689A4201D0012332E07B681B687A
:1031600003F00403002B08D0194B9B6823F4E052B2
:103170007B68DB68164913438B607B681B6803F030
:103180000803002B09D0124B9B6823F460427B6834
:103190001B69DB000E4913438B6000F021F80246E7
:1031A0000B4B9B681B0903F00F030A49CB5C22FA07
:1031B00003F3094A1360094B1B681846FFF776F9B9
:1031C000002318461037BD4680BD00BF003C0240BA
:1031D0000038024010C40008080000200C00002045
:1031E0002DE9B04F94B000AF00237B640023FB6453
:1031F00000233B640023BB64794B9B6803F00C0302
:10320000082B0DD0082B00F2E180002B02D0042BFC
:1032100003D0DBE0734BBB64DBE0734BBB64D8E0F3
:103220006F4B5B6803F03F037B646D4B5B6803F49B
:103230008003002B63D06A4B5B689B090022BB6351
:10324000FA63BB6BC3F308033B6300237B63D7E9DB
:103250000C4522462B464FF000004FF0000159016B
:1032600041EAD261500102460B462146511A3961AA
:10327000294663EB01037B614FF000024FF000032E
:10328000D7E904AB59468B01514643EA9163514655
:103290008A015146B2EB0108594663EB01094FF030
:1032A00000024FF000034FEAC90343EA58734FEAA4
:1032B000C80290469946234618EB0303BB602B4691
:1032C00049EB0303FB604FF000024FF00003D7E926
:1032D000024529464B02214643EAD15321464A0280
:1032E000104619467B6C0022BB62FA62D7E90A23BA
:1032F000FCF7C6FF02460B461346FB6458E0384B0A
:103300005B689B09002218461146C0F308033B6224
:1033100000237B62D7E9088942464B464FF0000004
:103320004FF00001590141EAD261500102460B46BB
:103330004146B2EB010A494663EB010B4FF0000234
:103340004FF000034FEA8B1343EA9A634FEA8A1265
:10335000B2EB0A0463EB0B054FF000024FF00003E1
:10336000EB0043EA5473E20014461D464346E3185B
:103370003B604B4645EB03037B604FF000024FF090
:103380000003D7E9004529468B02214643EA9153C1
:1033900021468A02104619467B6C0022BB61FA6105
:1033A000D7E90623FCF76CFF02460B461346FB6485
:1033B0000B4B5B681B0C03F0030301335B003B64A6
:1033C000FA6C3B6CB2FBF3F3BB6402E0054BBB64ED
:1033D00000BFBB6C18465037BD46BDE8B08F00BF7C
:1033E000003802400024F40000127A0080B582B058
:1033F00000AF78607B68002B01D101237BE07B6804
:103400005B6A002B08D17B685B68B3F5827F09D0CB
:103410007B680022DA6105E07B6800221A617B6824
:1034200000225A617B6800229A627B6893F85130CF
:10343000DBB2002B06D17B68002283F8502078682D
:10344000FEF7B2FB7B68022283F851207B681B6881
:103450001A687B681B6822F040021A607B685B6810
:1034600003F482727B689B6803F404431A437B680D
:10347000DB6803F400631A437B681B6903F00203F3
:103480001A437B685B6903F001031A437B689B69FD
:1034900003F400731A437B68DB6903F038031A43B3
:1034A0007B681B6A03F0800342EA03017B689B6A26
:1034B00003F400527B681B680A431A607B689B69AF
:1034C0001B0C03F004017B685B6A03F010027B684D
:1034D0001B680A435A607B681B68DA697B681B6853
:1034E00022F40062DA617B6800225A657B6801225F
:1034F00083F85120002318460837BD4680BD80B5AB
:1035000088B000AFF860B9603B601346FB800023D1
:10351000FB77FB6893F85030012B01D1022326E1A1
:10352000FB68012283F85020FFF704F8B861FB889C
:10353000FB82FB6893F85130DBB2012B02D00223EF
:10354000FB770BE1BB68002B02D0FB88002B02D17C
:103550000123FB7702E1FB68032283F85120FB681B
:1035600000225A65FB68BA681A63FB68FA889A8673
:10357000FB68FA88DA86FB6800229A63FB680022FF
:103580009A87FB680022DA87FB6800225A64FB688E
:1035900000221A64FB689B68B3F5004F0FD1FB68EB
:1035A0001B681A68FB681B6822F040021A60FB68FF
:1035B0001B681A68FB681B6842F480421A60FB684B
:1035C0001B681B6803F04003402B07D0FB681B6897
:1035D0001A68FB681B6842F040021A60FB68DB68EF
:1035E000B3F5006F4BD1FB685B68002B02D0FB8A00
:1035F000012B3ED1FB681B6B1A88FB681B68DA60E5
:10360000FB681B6B9A1CFB681A63FB68DB8E9BB222
:10361000013B9AB2FB68DA862BE0FB681B689B686B
:1036200003F00203022B12D1FB681B6B1A88FB68A4
:103630001B68DA60FB681B6B9A1CFB681A63FB68EB
:10364000DB8E9BB2013B9AB2FB68DA8611E0FEF793
:1036500071FF0246BB69D31A3A689A4203D83B68A5
:10366000B3F1FF3F02D13B68002B02D10323FB776C
:1036700074E0FB68DB8E9BB2002BCED14CE0FB6884
:103680005B68002B02D0FB8A012B40D1FB681A6BD0
:10369000FB681B680C3312781A70FB681B6B5A1C92
:1036A000FB681A63FB68DB8E9BB2013B9AB2FB6836
:1036B000DA862CE0FB681B689B6803F00203022B90
:1036C00013D1FB681A6BFB681B680C3312781A70F5
:1036D000FB681B6B5A1CFB681A63FB68DB8E9BB292
:1036E000013B9AB2FB68DA8611E0FEF723FF02463F
:1036F000BB69D31A3A689A4203D83B68B3F1FF3FDB
:1037000002D13B68002B02D10323FB7726E0FB6844
:10371000DB8E9BB2002BCDD1BA693968F86800F016
:10372000CBFB0346002B02D0FB6820225A65FB68C6
:103730009B68002B0AD100233B61FB681B68DB6898
:103740003B61FB681B689B683B613B69FB685B6D89
:10375000002B02D00123FB7700E000BFFB680122B1
:1037600083F85120FB68002283F85020FB7F184625
:103770002037BD4680BD80B588B002AFF860B96023
:103780003B601346FB800023FB75FB685B68B3F569
:10379000827F12D1FB689B68002B0ED1FB6804224C
:1037A00083F85120FA883B6800931346BA68B968D9
:1037B000F86800F0F1F80346EAE0FB6893F850304F
:1037C000012B01D10223E3E0FB68012283F85020A2
:1037D000FEF7B0FE3861FB6893F85130DBB2012B85
:1037E00002D00223FB75CAE0BB68002B02D0FB8825
:1037F000002B02D10123FB75C1E0FB68042283F892
:103800005120FB6800225A65FB68BA689A63FB681E
:10381000FA889A87FB68FA88DA87FB6800221A63BD
:10382000FB6800229A86FB680022DA86FB68002289
:103830001A64FB6800225A64FB689B68B3F5004F6A
:103840000FD1FB681B681A68FB681B6822F04002F6
:103850001A60FB681B681A68FB681B6822F48042C8
:103860001A60FB681B681B6803F04003402B07D0FD
:10387000FB681B681A68FB681B6842F040021A600C
:10388000FB68DB68002B62D12EE0FB681B689B683D
:1038900003F00103012B15D1FB681B6803F10C0237
:1038A000FB689B6B1278D2B21A70FB689B6B5A1C38
:1038B000FB689A63FB68DB8F9BB2013B9AB2FB68A3
:1038C000DA8711E0FEF736FE02463B69D31A3A6802
:1038D0009A4203D83B68B3F1FF3F02D13B68002B0B
:1038E00002D10323FB754AE0FB68DB8F9BB2002B00
:1038F000CBD131E0FB681B689B6803F00103012B0F
:1039000013D1FB681B68DA68FB689B6B92B21A8064
:10391000FB689B6B9A1CFB689A63FB68DB8F9BB20E
:10392000013B9AB2FB68DA8711E0FEF703FE02461C
:103930003B69D31A3A689A4203D83B68B3F1FF3F18
:1039400002D13B68002B02D10323FB7517E0FB6813
:10395000DB8F9BB2002BCDD13A693968F86800F053
:1039600045FA0346002B02D0FB6820225A65FB680B
:103970005B6D002B02D00123FB7500E000BFFB68EC
:10398000012283F85120FB68002283F85020FB7D40
:1039900018461837BD4680BD80B58CB000AFF860C2
:1039A000B9607A607B800123FB62002387F82B30AB
:1039B000FB6893F85030012B01D102238AE1FB68A8
:1039C000012283F85020FEF7B5FD7862FB6893F87A
:1039D000513087F82330FB685B68FB617B887B8311
:1039E00097F82330012B0FD0FB69B3F5827F07D105
:1039F000FB689B68002B03D197F82330042B03D07E
:103A0000022387F82B305BE1BB68002B05D07B6875
:103A1000002B02D07B88002B03D1012387F82B30A9
:103A20004EE1FB6893F85130DBB2042B03D0FB6806
:103A3000052283F85120FB6800225A65FB687A68EA
:103A40009A63FB687A88DA87FB687A889A87FB68CA
:103A5000BA681A63FB687A88DA86FB687A889A867D
:103A6000FB6800221A64FB6800225A64FB681B682A
:103A70001B6803F04003402B07D0FB681B681A68E3
:103A8000FB681B6842F040021A60FB68DB68B3F514
:103A9000006F78D1FB685B68002B02D07B8B012B19
:103AA00066D1FB681B6B1A88FB681B68DA60FB68D1
:103AB0001B6B9A1CFB681A63FB68DB8E9BB2013B95
:103AC0009AB2FB68DA8653E0FB681B689B6803F0D8
:103AD0000203022B1BD1FB68DB8E9BB2002B16D09E
:103AE000FB6A012B13D1FB681B6B1A88FB681B68F0
:103AF000DA60FB681B6B9A1CFB681A63FB68DB8E41
:103B00009BB2013B9AB2FB68DA860023FB62FB683A
:103B10001B689B6803F00103012B19D1FB68DB8F45
:103B20009BB2002B14D0FB681B68DA68FB689B6BA8
:103B300092B21A80FB689B6B9A1CFB689A63FB68C5
:103B4000DB8F9BB2013B9AB2FB68DA870123FB62F1
:103B5000FEF7F0FC02467B6AD31ABA6B9A4207D88A
:103B6000BB6BB3F1FF3F03D0032387F82B30A7E0F3
:103B7000FB68DB8E9BB2002BA6D1FB68DB8F9BB270
:103B8000002BA1D17CE0FB685B68002B02D07B8B13
:103B9000012B6BD1FB681A6BFB681B680C33127826
:103BA0001A70FB681B6B5A1CFB681A63FB68DB8E80
:103BB0009BB2013B9AB2FB68DA8657E0FB681B6850
:103BC0009B6803F00203022B1CD1FB68DB8E9BB2C7
:103BD000002B17D0FB6A012B14D1FB681A6BFB6812
:103BE0001B680C3312781A70FB681B6B5A1CFB683D
:103BF0001A63FB68DB8E9BB2013B9AB2FB68DA86E4
:103C00000023FB62FB681B689B6803F00103012B28
:103C100019D1FB68DB8F9BB2002B14D0FB681B68AB
:103C2000DA68FB689B6BD2B21A70FB689B6B5A1CFC
:103C3000FB689A63FB68DB8F9BB2013B9AB2FB681F
:103C4000DA870123FB62FEF775FC02467B6AD31A12
:103C5000BA6B9A4203D8BB6BB3F1FF3F02D1BB6B87
:103C6000002B03D1032387F82B3029E0FB68DB8E80
:103C70009BB2002BA2D1FB68DB8F9BB2002B9DD1A6
:103C80007A6AB96BF86800F017F90346002B06D082
:103C9000012387F82B30FB6820225A6510E0FB686F
:103CA0009B68002B0BD100237B61FB681B68DB68E2
:103CB0007B61FB681B689B687B617B6900E000BFE0
:103CC000FB68012283F85120FB68002283F8502012
:103CD00097F82B3018463037BD4680BD80B588B088
:103CE00000AFF860B9603B601346FB71FEF722FC41
:103CF0000246BB6A9B1A3A681344FB61FEF71AFC42
:103D0000B861394B1B685B011B0DFA6902FB03F3B9
:103D10007B6154E03B68B3F1FF3F50D0FEF70AFCF3
:103D20000246BB69D31AFA699A4202D9FB69002B91
:103D30003DD1FB681B685A68FB681B6822F0E002F3
:103D40005A60FB685B68B3F5827F11D1FB689B68A2
:103D5000B3F5004F04D0FB689B68B3F5806F07D1C3
:103D6000FB681B681A68FB681B6822F040021A6037
:103D7000FB689B6AB3F5005F0FD1FB681B681A688C
:103D8000FB681B6822F400521A60FB681B681A6803
:103D9000FB681B6842F400521A60FB68012283F83A
:103DA0005120FB68002283F85020032317E07B6931
:103DB000002B01D10023FB617B69013B7B61FB6828
:103DC0001B689A68BB681340BA689A420CBF01230B
:103DD0000023DBB21A46FB799A429BD10023184696
:103DE0002037BD4680BD00BF0800002080B586B0EA
:103DF00002AFF860B9607A60FB685B68B3F5827FF8
:103E000011D1FB689B68B3F5004F04D0FB689B6839
:103E1000B3F5806F07D1FB681B681A68FB681B68E5
:103E200022F040021A60FB685B68B3F5827F2AD1FA
:103E3000FB689B68B3F5806F12D07B680093BB680A
:103E400000228021F868FFF749FF0346002B2DD0A0
:103E5000FB685B6D43F02002FB685A65032326E094
:103E60007B680093BB6800220121F868FFF736FFEA
:103E70000346002B1AD0FB685B6D43F02002FB6801
:103E80005A65032313E07B680093BB68002201217D
:103E9000F868FFF723FF0346002B07D0FB685B6D34
:103EA00043F02002FB685A65032300E00023184614
:103EB0001037BD4680BD000080B588B002AFF86005
:103EC000B9607A601B4B1B681B4AA2FB03235B0D86
:103ED0004FF47A7202FB03F37B61FB685B68B3F516
:103EE000827F12D17B680093BB6800228021F86832
:103EF000FFF7F4FE0346002B16D0FB685B6D43F022
:103F00002002FB685A6503230FE07B69002B0AD06F
:103F10007B69013B7B61FB681B689B6803F0800346
:103F2000802BF2D000E000BF002318461837BD46B2
:103F300080BD00BF08000020819F5E1680B584B060
:103F400000AFF860B9607A60FB68002B01D10123F3
:103F500034E0FB6893F84930DBB2002B06D1FB68F4
:103F6000002283F84820F868FCF74AFCFB681A68CE
:103F7000FB6808331946104600F0A6FCFB68186879
:103F8000FB689B681A46B96800F0F0FCFB6858684B
:103F9000FB689A68FB681B6B796800F025FDFB687D
:103FA0001B68FA68926853F82210FB681B68FA686D
:103FB000926841F0010143F822100023184610379F
:103FC000BD4680BD80B582B000AF78607B68002BB5
:103FD00001D1012341E07B6893F83D30DBB2002B37
:103FE00006D17B68002283F83C207868FEF7ECF964
:103FF0007B68022283F83D207B681A687B68043363
:104000001946104600F096FA7B68012283F8462094
:104010007B68012283F83E207B68012283F83F20E1
:104020007B68012283F840207B68012283F84120CD
:104030007B68012283F842207B68012283F84320B9
:104040007B68012283F844207B68012283F84520A5
:104050007B68012283F83D20002318460837BD46BF
:1040600080BD000080B485B000AF78607B6893F8B5
:104070003D30DBB2012B01D001234EE07B680222F0
:1040800083F83D207B681B68DA687B681B6842F018
:104090000102DA607B681B68234A934222D07B6866
:1040A0001B68B3F1804F1DD07B681B681F4A934289
:1040B00018D07B681B681E4A934213D07B681B682C
:1040C0001C4A93420ED07B681B681B4A934209D05E
:1040D0007B681B68194A934204D07B681B68184AA6
:1040E000934211D17B681B689B6803F00703FB6058
:1040F000FB68062B10D07B681B681A687B681B68FE
:1041000042F001021A6007E07B681B681A687B684E
:104110001B6842F001021A60002318461437BD469E
:104120005DF8047B704700BF0000014000040040C0
:1041300000080040000C0040000401400040014025
:104140000018004080B582B000AF78607B681B68C3
:104150001B6903F00203022B22D17B681B68DB681A
:1041600003F00203022B1BD17B681B686FF0020275
:104170001A617B6801221A777B681B689B6903F0D0
:104180000303002B03D0786800F0B5F905E07868E8
:1041900000F0A7F9786800F0B8F97B6800221A7778
:1041A0007B681B681B6903F00403042B22D17B6826
:1041B0001B68DB6803F00403042B1BD17B681B68BE
:1041C0006FF004021A617B6802221A777B681B6811
:1041D0009B6903F44073002B03D0786800F08BF9DF
:1041E00005E0786800F07DF9786800F08EF97B686A
:1041F00000221A777B681B681B6903F00803082BF1
:1042000022D17B681B68DB6803F00803082B1BD1F5
:104210007B681B686FF008021A617B6804221A77BA
:104220007B681B68DB6903F00303002B03D078680D
:1042300000F061F905E0786800F053F9786800F063
:1042400064F97B6800221A777B681B681B6903F09E
:104250001003102B22D17B681B68DB6803F010036E
:10426000102B1BD17B681B686FF010021A617B68F2
:1042700008221A777B681B68DB6903F44073002B04
:1042800003D0786800F037F905E0786800F029F984
:10429000786800F03AF97B6800221A777B681B681F
:1042A0001B6903F00103012B0ED17B681B68DB68DF
:1042B00003F00103012B07D17B681B686FF001023B
:1042C0001A617868FDF710FC7B681B681B6903F0B6
:1042D0008003802B0ED17B681B68DB6803F08003B2
:1042E000802B07D17B681B686FF080021A617868A9
:1042F00000F0E0FA7B681B681B6903F04003402B69
:104300000ED17B681B68DB6803F04003402B07D1AC
:104310007B681B686FF040021A61786800F0FFF854
:104320007B681B681B6903F02003202B0ED17B6880
:104330001B68DB6803F02003202B07D17B681B6818
:104340006FF020021A61786800F0AAFA00BF0837FF
:10435000BD4680BD80B584B000AF78603960002371
:10436000FB737B6893F83C30012B01D10223B4E04E
:104370007B68012283F83C207B68022283F83D2081
:104380007B681B689B68BB60BB6823F07703BB60DE
:10439000BB6823F47F43BB607B681B68BA689A6084
:1043A0003B681B68B3F5005F3ED0B3F5005F00F2D9
:1043B0008780B3F5805F00F08680B3F5805F7FD89B
:1043C000702B1AD0702B7BD8602B50D0602B77D8F5
:1043D000502B3CD0502B73D8402B58D0402B6FD84B
:1043E000302B64D0302B6BD8202B60D0202B67D89B
:1043F000002B5CD0102B5AD062E07B6818683B68B9
:1044000099683B685A683B68DB6800F0ADF97B68E7
:104410001B689B68BB60BB6843F07703BB607B682D
:104420001B68BA689A604FE07B6818683B689968B7
:104430003B685A683B68DB6800F096F97B681B684C
:104440009A687B681B6842F480429A603CE07B6813
:1044500018683B6859683B68DB681A4600F00AF93F
:104460007B681B685021184600F063F92CE07B68DC
:1044700018683B6859683B68DB681A4600F029F900
:104480007B681B686021184600F053F91CE07B68CC
:1044900018683B6859683B68DB681A4600F0EAF820
:1044A0007B681B684021184600F043F90CE07B68EC
:1044B0001A683B681B681946104600F03AF903E099
:1044C0000123FB7300E000BF7B68012283F83D20DD
:1044D0007B68002283F83C20FB7B18461037BD46E2
:1044E00080BD80B483B000AF786000BF0C37BD469C
:1044F0005DF8047B704780B483B000AF786000BF84
:104500000C37BD465DF8047B704780B483B000AFC4
:10451000786000BF0C37BD465DF8047B704780B4FF
:1045200083B000AF786000BF0C37BD465DF8047BF8
:104530007047000080B485B000AF786039607B6858
:104540001B68FB607B68404A934213D07B68B3F1E1
:10455000804F0FD07B683D4A93420BD07B683C4A2A
:10456000934207D07B683B4A934203D07B683A4A28
:10457000934208D1FB6823F07003FB603B685B68E3
:10458000FA681343FB607B682F4A93422BD07B6809
:10459000B3F1804F27D07B682C4A934223D07B68AD
:1045A0002B4A93421FD07B682A4A93421BD07B68D8
:1045B000294A934217D07B68284A934213D07B68DC
:1045C000274A93420FD07B68264A93420BD07B68E0
:1045D000254A934207D07B68244A934203D07B68E4
:1045E000234A934208D1FB6823F44073FB603B6885
:1045F000DB68FA681343FB60FB6823F080023B68CA
:104600005B691343FB607B68FA681A603B689A68D1
:104610007B68DA623B681A687B689A627B680A4A40
:10462000934203D07B680C4A934203D13B681A69DA
:104630007B681A637B6801225A6100BF1437BD464C
:104640005DF8047B704700BF00000140000400409B
:1046500000080040000C0040000401400040014000
:10466000004401400048014000180040001C004088
:104670000020004080B487B000AFF860B9607A6075
:10468000FB681B6A7B61FB681B6A23F00102FB6805
:104690001A62FB689B693B613B6923F0F0033B6155
:1046A0007B681B013A6913433B617B6923F00A0372
:1046B0007B617A69BB6813437B61FB683A699A61E5
:1046C000FB687A691A6200BF1C37BD465DF8047B3F
:1046D000704780B487B000AFF860B9607A60FB685B
:1046E0001B6A23F01002FB681A62FB689B697B61FE
:1046F000FB681B6A3B617B6923F470437B617B68C9
:104700001B037A6913437B613B6923F0A0033B6180
:10471000BB681B013A6913433B61FB687A699A6184
:10472000FB683A691A6200BF1C37BD465DF8047B1E
:10473000704780B485B000AF786039607B689B6853
:10474000FB60FB6823F07003FB603A68FB6813436F
:1047500043F00703FB607B68FA689A6000BF143778
:10476000BD465DF8047B704780B487B000AFF86049
:10477000B9607A603B60FB689B687B617B6923F46E
:104780007F437B613B681A027B681A43BB68134313
:104790007A6913437B61FB687A699A6000BF1C37B2
:1047A000BD465DF8047B704780B485B000AF78608B
:1047B00039607B6893F83C30012B01D102235AE029
:1047C0007B68012283F83C207B68022283F83D202D
:1047D0007B681B685B68FB607B681B689B68BB60D1
:1047E000FB6823F07003FB603B681B68FA681343A7
:1047F000FB607B681B68FA685A607B681B68214A0B
:10480000934222D07B681B68B3F1804F1DD07B6838
:104810001B681D4A934218D07B681B681B4A934251
:1048200013D07B681B681A4A93420ED07B681B68C2
:10483000184A934209D07B681B68174A934204D0F8
:104840007B681B68154A93420CD1BB6823F0800338
:10485000BB603B685B68BA681343BB607B681B68DE
:10486000BA689A607B68012283F83D207B68002249
:1048700083F83C20002318461437BD465DF8047BBE
:10488000704700BF000001400004004000080040E5
:10489000000C0040000401400040014000180040AE
:1048A00080B483B000AF786000BF0C37BD465DF8C0
:1048B000047B704780B483B000AF786000BF0C37D2
:1048C000BD465DF8047B704780B485B000AF78606A
:1048D00039600023FB603B681A687B6853F822301C
:1048E000FB60FA68204B1340FB603B685A683B68EA
:1048F0009B681A433B68DB681A433B681B691A4391
:104900003B685B691A433B689B691A433B68DB69F8
:104910001A433B681B6A1A433B685B6A1A433B684D
:104920009B6A1A433B68DB6A1A433B68DB6B1A439A
:104930003B681B6B1343FA681343FB603B689B683F
:10494000082B03D1FB6843F04003FB603B681A6807
:104950007B68F96843F82210002318461437BD46D7
:104960005DF8047B704700BF8000F0FF80B487B023
:1049700000AFF860B9607A6000237B617B685A1CE5
:10498000FB6853F822307B617B6903F040437B6115
:10499000BB681A68BB685B681B011A43BB689B68ED
:1049A0001B021A43BB68DB681B041A43BB681B6904
:1049B000013B1B051A43BB685B69023B1B061A439C
:1049C000BB689B6913437A6913437B617B685A1CFC
:1049D000FB68796943F82210002318461C37BD464E
:1049E0005DF8047B7047000080B487B000AFF860CA
:1049F000B9607A603B6000237B613B68B3F5804F10
:104A000022D1FB687A6853F822307B617A69154BB2
:104A100013407B61BB681A68BB685B681B011A4363
:104A2000BB689B681B021A43BB68DB681B041A4304
:104A3000BB689B6913437A6913437B61FB687A689F
:104A4000796943F8221005E0FB687A686FF07041DD
:104A500043F82210002318461C37BD465DF8047B3E
:104A6000704700BF0000F0CF014B1868704700BFCF
:104A70001400002070B50D4D0D4C641BA4100026D1
:104A8000A64209D10B4D0C4C00F0D0FC641BA410C5
:104A90000026A64205D170BD55F8043B9847013663
:104AA000EEE755F8043B98470136F2E75CC400088E
:104AB0005CC400085CC4000860C4000802440346EB
:104AC000934200D1704703F8011BF9E70CB430B5ED
:104AD000174B0C1E1D689DB008DA8B232B604FF01E
:104AE000FF301DB0BDE8304002B070474FF4027394
:104AF000ADF8143014BF04F1FF3323460493079339
:104B00004FF6FF7302900690ADF81630209A21AB55
:104B100002A92846019300F039F9431CBCBF8B233E
:104B20002B60002CDDD0029B00221A70D9E700BF59
:104B30001400002010B50246147813460132002CF0
:104B4000FAD1013B11F8012B03F8012F002AF9D10A
:104B500010BD0000024B0146186800F003B800BF0A
:104B60001400002037B5044608460D46FBF730FB1D
:104B7000421C11462046019200F038F8044618B154
:104B8000019A294600F003F8204603B030BD0A44DC
:104B9000914200F1FF3300D1704710B511F8014B7D
:104BA00003F8014F9142F9D110BD000070B50E4ECF
:104BB0000C463168054611B900F07CFB3060214697
:104BC000284600F077FB431C0AD0C41C24F00304E1
:104BD000A04207D0211A284600F06CFB013001D119
:104BE0004FF0FF34204670BDD40100202DE9F04184
:104BF000CD1C25F0030508350C2D38BF0C25002DE4
:104C0000074601DBA94205D90C233B60002630464C
:104C1000BDE8F0812E4E00F077FB33681C4634BBB4
:104C200029463846FFF7C2FF431C04464DD134687D
:104C30002646002E40D123683146384604EB03084F
:104C400000F038FB80453AD1216803356D1A25F014
:104C5000030508350C2D38BF0C2529463846FFF7CB
:104C6000A5FF01302BD023682B4423600EE022687F
:104C7000521B1ED40B2A16D96119A342256018BFF6
:104C80005960636808BF316062514B60384604F177
:104C90000B0600F03FFB26F00706231DF21AB6D0E4
:104CA0009B1BA350B3E76268A3420CBF32605A60FB
:104CB000ECE723466468B2E734467668B9E70C232C
:104CC0003B60384600F026FBA1E72560DEE700BF29
:104CD000D00100202DE9F0478E689E4282460C46A6
:104CE00090461F4638D88A8912F4906F32D02568D2
:104CF0000969A5EB0109656905EB450505EBD57566
:104D000001334B446D109D4238BF1D46530531D5CC
:104D10002946FFF76BFF064650B90C23CAF800304E
:104D2000A38943F04003A3814FF0FF30BDE8F08733
:104D300021694A46FFF72BFFA38923F4906343F0D0
:104D40008003A381266165614E44A5EB09052660B9
:104D5000A5603E46BE4200D93E46206832464146E6
:104D600000F0B8FAA3689B1BA36023683344236058
:104D70000020DBE72A4600F01FFB06460028E1D1B1
:104D80002169504600F0CCFAC7E700002DE9F04F4A
:104D900098468B891B069DB007460D4614460ED5D6
:104DA0000B6963B94021FFF721FF2860286120B912
:104DB0000C233B604FF0FF30D1E040236B610023B8
:104DC000099320238DF82930CDF80C803023DFF8AB
:104DD000A8818DF82A304FF0010923469A4613F82E
:104DE000012B0AB1252AF9D1BAEB040B0BD05B4693
:104DF000224629463846FFF76DFF013000F0AA80B1
:104E0000099A5A4409929AF80030002B00F0A280C7
:104E100000234FF0FF32CDE905230AF1010A049384
:104E200007938DF853301A935446052214F8011B4A
:104E30005148FBF7D5F9049AD8B9D00644BF2023CE
:104E40008DF85330110744BF2B238DF853309AF857
:104E500000302A2B15D0079A544600204FF00A0C38
:104E6000214611F8013B303B092B4ED9B0B10792D6
:104E700014E0A0EB080309FA03F313430493A246DA
:104E8000D2E7039B191D1B680391002BBBBF5B423C
:104E900042F0020207930793B8BF049223782E2BA7
:104EA0000CD163782A2B35D1039B1A1D1B68039202
:104EB000002BB8BF4FF0FF3302340593DFF8C8A0D2
:104EC000217803225046FBF78BF940B14023A0EB39
:104ED0000A0003FA00F0049B03430134049314F81E
:104EE000011B26488DF828100622FBF779F90028C7
:104EF00038D0234B1BBB039B073323F00703083336
:104F00000393099B3344099367E70CFB02320C4679
:104F10000120A5E700230134059319464FF00A0C40
:104F2000204610F8012B303A092A03D9002BC5D0AE
:104F30000591C3E70CFB012104460123F0E703AB15
:104F400000932A460F4B04A93846AFF30080421C59
:104F50000646D6D1AB895B063FF52CAF09981DB04C
:104F6000BDE8F08F03AB00932A46064B04A93846F0
:104F700000F07AF8EBE700BF20C400082AC400085C
:104F800000000000D54C000826C400082DE9F047B9
:104F9000164699468A680B69DDF820809342B8BFAF
:104FA0001346336091F8432007460C460AB101339B
:104FB00033602368990642BF336802333360256843
:104FC00015F0060506D104F1190AE36832689B1A48
:104FD000AB4226DC94F84320131E226818BF01233D
:104FE00092062BD404F1430249463846C0470130AB
:104FF0001ED02368E568326803F00603042B08BF5F
:10500000AD1AA36822690CBF25EAE5750025934215
:10501000C4BF9B1AED1800261A34B5421AD10020DD
:1050200008E00123524649463846C047013003D1C3
:105030004FF0FF30BDE8F0870135C6E7E1185A1C94
:10504000302081F84300224494F8451082F8431040
:105050000233C7E70123224649463846C04701309C
:10506000E6D00136D9E700002DE9FF470F7E0C9D01
:10507000782F914680460C469A4601F1430207D8A4
:10508000622F0AD8002F00F0D880582F00F0A3809C
:1050900004F1420584F842703AE0A7F16303152B4E
:1050A000F6D801A151F823F001510008155100086C
:1050B000915000089150000891500008915000084C
:1050C00015510008915000089150000891500008B7
:1050D0009150000821520008455100080352000871
:1050E0009150000891500008435200089150000868
:1050F0004551000891500008915000080B520008DB
:105100002B681A1D1B682A6004F1420584F842309E
:105110000123A3E020682968060601F104030AD5EB
:105120000E682B60002E03DA2D23764284F843307C
:105130005E480A2319E00E682B6010F0400F18BF7C
:1051400036B2EFE72B682068191D2960010601D5EA
:105150001E6802E04606FBD51E8854486F2F0CBF20
:1051600008230A23002184F843106568A560002DF8
:10517000A2BF216821F0040121600EB9002D4DD09D
:105180001546B6FBF3F103FB1167C75D05F8017D1A
:105190003746BB420E46F4D9082B0BD12368DE07F5
:1051A00008D5236961689942DEBF302305F8013CC8
:1051B00005F1FF35521B2261CDF800A04B4603AA32
:1051C00021464046FFF7E2FE01304CD14FF0FF3060
:1051D00004B0BDE8F087354881F845702968236838
:1051E00051F8046B29601D0614D5DF0744BF43F056
:1051F000200323601EB9236823F0200323601023BB
:10520000B0E7236843F0200323607823284884F81C
:105210004530E3E7590648BFB6B2E6E71546BBE7B7
:105220002B6826686169181D286035061B6801D542
:10523000196002E07006FBD5198000232361154632
:10524000BAE72B681A1D2A601D686268002128468B
:10525000FAF7C6FF08B1401B606063682361002352
:1052600084F84330A8E723692A4649464046D04798
:105270000130ABD023689B0713D4E068039B9842AE
:10528000B8BF1846A4E70123324649464046D047F6
:1052900001309BD00135E36803995B1AAB42F2DC25
:1052A000EBE7002504F11906F5E700BF31C400085B
:1052B00042C4000838B5064D0023044608462B605A
:1052C000FCF7EEFF431C02D12B6803B1236038BD0D
:1052D000D8010020884210B501EB020402D98442B3
:1052E000234607D8431EA14208D011F8012B03F82A
:1052F000012FF8E7024401468A4200D110BD13F89D
:10530000014D02F8014DF7E7014800F084B800BFF5
:10531000DC010020014800F07FB800BFDC01002064
:1053200037B5002944D051F8043C0190002BA1F17D
:105330000404B8BFE418FFF7E7FF1E4A019813689A
:1053400033B96360146003B0BDE83040FFF7E2BFDB
:10535000A34208D9256861198B4201BF19685B68AF
:1053600049192160EDE71A465B680BB1A342FAD9EF
:1053700011685518A5420BD1246821445418A34242
:105380001160E0D11C685B68536021441160DAE76A
:1053900002D90C230360D6E7256861198B4204BF4C
:1053A00019685B68636004BF491921605460CAE7EB
:1053B00003B030BDD00100202DE9F04180461446F5
:1053C0000E4621B9BDE8F0411146FFF70FBC2AB9DE
:1053D000FFF7A6FF25462846BDE8F08100F01DF83E
:1053E0008442074602D8B4EB500F12D821464046FB
:1053F000FFF7FCFB05460028EDD0BC4222463146B3
:1054000028BF3A46FFF7C3FB31464046FFF788FF07
:10541000E1E73546DFE77047704751F8043C181F55
:10542000002BBCBF0B58C01870470000F8B500BF78
:10543000F8BC08BC9E467047F8B500BFF8BC08BC75
:045440009E467047CD
:1054440048656C6C6F20576F726C642021212100B9
:1054540054657374206C63642073637265656E00B5
:1054640025640000534E414B452047414D45000003
:1054740054494D494E473A202D2D000053636F7215
:10548400653A20300000000049443A200000000042
:105494000000000000000000000000000000000008
:1054A40000000000000000000000000000000000F8
:1054B40000000000000000000000000020534E41E6
:1054C4004B452047414D45200000000020454E54E7
:1054D400455220594F5552204944200020535441ED
:1054E40052542000204D4F4445200000204E4F527E
:1054F4004D414C204D4F4445200000002054494D5F
:10550400494E47204D4F4445200000002049443A6D
:105514002000000000000000000000000000000067
:105524000000000000000000000000000000000077
:105534000000000000000000000000000000000067
:105544000000000000000000000000000000000057
:10555400000000000000000808080808080800000F
:105564001818000000486C2412000000000000001D
:10557400000000000000002424247F1212127F1275
:10558400121200000000081C2A2A0A0C1828282AD3
:105594002A1C080800000022251515152A58545401
:1055A400542200000000000C1212120A7625291160
:1055B400916E0000000606040300000000000000D5
:1055C4000000000000402010100808080808081017
:1055D40010204000000204080810101010101008D9
:1055E400080402000000000008086B1C1C6B08087B
:1055F4000000000000000000080808087F080808F0
:10560400080000000000000000000000000000008E
:10561400060604030000000000000000FE00000075
:105624000000000000000000000000000000000076
:1056340006060000000080404020201010080804E6
:105644000402020000000018244242424242424244
:1056540024180000000000080E08080808080808BC
:10566400083E00000000003C424242202010080492
:10567400427E00000000003C42422018204040428C
:10568400221C0000000000203028242422227E2036
:10569400207800000000007E0202021A26404042E8
:1056A400221C0000000000382402021A2642424252
:1056B400241800000000007E2222101008080808A8
:1056C400080800000000003C4242422418244242E0
:1056D400423C00000000001824424242645840400A
:1056E400241C000000000000000018180000000046
:1056F400181800000000000000000008000000006E
:1057040000080804000000402010080402040810E7
:10571400204000000000000000007F0000007F0027
:1057240000000000000000020408102040201008BF
:10573400040200000000003C4242464020101000D9
:10574400181800000000001C225A555555552D42CA
:10575400221C00000000000808181414243C2242F3
:1057640042E700000000001F2222221E2242424281
:10577400221F00000000007C42420101010101429D
:10578400221C00000000001F2242424242424242C8
:10579400221F00000000003F4212121E1212024299
:1057A400423F00000000003F4212121E1212020289
:1057B400020700000000003C2222010101712122A5
:1057C400221C0000000000E7424242427E42424264
:1057D40042E700000000003E08080808080808081E
:1057E400083E00000000007C101010101010101073
:1057F4001010110F0000007722120A0E0A12122252
:1058040022770000000000070202020202020202E4
:10581400427F000000000077363636362A2A2A2ACC
:105824002A6B0000000000E346464A4A5252526284
:10583400624700000000001C2241414141414141B6
:10584400221C00000000003F424242423E0202028B
:10585400020700000000001C2241414141414D5318
:10586400321C60000000003F4242423E12122222DB
:1058740042C700000000007C42420204182040425B
:10588400423E00000000007F490808080808080894
:10589400081C0000000000E74242424242424242E9
:1058A400423C0000000000E7424222242414141861
:1058B400080800000000006B494949495555362243
:1058C40022220000000000E742242418181824248F
:1058D40042E7000000000077222214140808080898
:1058E400081C00000000007E21201010080404425F
:1058F400423F00000078080808080808080808085B
:1059040008087800000002020404080808101020A7
:1059140020204040001E1010101010101010101005
:1059240010101E00003844000000000000000000B9
:105934000000000000000000000000000000000063
:10594400000000FF00060800000000000000000046
:1059540000000000000000000000003C42784442C7
:1059640042FC0000000000030202021A26424242E6
:10597400261A000000000000000000384402020261
:1059840044380000000000604040407844424242F5
:1059940064D80000000000000000003C427E0202C7
:1059A400423C0000000000F08808087E080808084F
:1059B400083E0000000000000000007C22221C02BF
:1059C4003C42423C000000030202023A4642424288
:1059D40042E700000000000C0C00000E0808080854
:1059E400083E000000000030300000382020202055
:1059F4002020221E0000000302020272120A161264
:105A0400227700000000000E0808080808080808AB
:105A1400083E0000000000000000007F9292929275
:105A240092B70000000000000000003B46424242E2
:105A340042E70000000000000000003C42424242F5
:105A4400423C0000000000000000001B26424242CD
:105A5400221E020700000000000000784442424277
:105A6400447840E000000000000000774C04040487
:105A7400041F0000000000000000007C42023C40C3
:105A8400423E0000000000000008083E0808080824
:105A9400083000000000000000000063424242425F
:105AA40062DC000000000000000000E7422424142F
:105AB4000808000000000000000000EB49495555AB
:105AC40022220000000000000000007624181818AC
:105AD400246E000000000000000000E742242414AB
