:020000040800F2
:100000000000022089310008AD2F0008B32F00083E
:10001000B92F0008BF2F0008C52F000800000000FE
:10002000000000000000000000000000CB2F0008CE
:10003000D92F000800000000E72F0008F52F000866
:10004000D9310008D9310008D9310008D931000868
:10005000D9310008D9310008D9310008D931000858
:10006000D9310008D9310008D9310008D931000848
:10007000D9310008D9310008D9310008D931000838
:10008000D9310008D9310008D9310008D931000828
:10009000D9310008D9310008D9310008D931000818
:1000A000D9310008D9310008D9310008D931000808
:1000B00001300008D9310008D9310008D9310008D1
:1000C000D9310008D9310008D9310008D9310008E8
:1000D000D9310008D9310008D9310008D9310008D8
:1000E000D9310008D9310008D9310008D9310008C8
:1000F000D9310008D9310008D9310008D9310008B8
:10010000D9310008D9310008D9310008D9310008A7
:10011000D9310008D9310008D9310008D931000897
:10012000D9310008D9310008D9310008D931000887
:10013000D9310008D9310008D9310008D931000877
:10014000D9310008D9310008D9310008D931000867
:10015000D9310008D9310008D9310008D931000857
:10016000D9310008D9310008D9310008D931000847
:10017000D9310008D9310008D93100080000000049
:08018000D9310008D931000853
:1001900010B5054C237833B9044B13B10448AFF3C1
:1001A00000800123237010BDDC000020000000004F
:1001B000A061000808B5034B1BB103490348AFF326
:1001C000008008BD00000000E0000020A0610008E1
:1001D000034613F8012B002AFBD1181A0138704787
:1001E00001F0FF01102A2BDB10F0070F08D010F8E8
:1001F000013B013A8B422DD010F0070F42B3F6D1EC
:10020000F0B441EA012141EA014122F007047FF004
:1002100000070023F0E80256083C85EA010586EA5B
:10022000010685FA47F5A3FA87F586FA47F6A5FA97
:1002300087F68EB9EED1F0BC01F0FF0102F00702A3
:1002400032B110F8013B013A83EA010313B1F8D14E
:100250000020704701387047002D06BF354603382F
:10026000073815F0010F07D1013015F4807F02BF68
:10027000013015F4C03F0130F0BC0138704700BFB9
:1002800053B94AB9002908BF00281CBF4FF0FF31FD
:100290004FF0FF3000F074B9ADF1080C6DE904CEF9
:1002A00000F006F8DDF804E0DDE9022304B0704751
:1002B0002DE9F047089D04468E46002B4DD18A4219
:1002C000944669D9B2FA82F252B101FA02F3C2F14C
:1002D000200120FA01F10CFA02FC41EA030E9440DD
:1002E0004FEA1C48210CBEFBF8F61FFA8CF708FBFE
:1002F00016E341EA034306FB07F199420AD91CEBD6
:10030000030306F1FF3080F01F81994240F21C8107
:10031000023E63445B1AA4B2B3FBF8F008FB10334F
:1003200044EA034400FB07F7A7420AD91CEB040484
:1003300000F1FF3380F00A81A74240F20781644454
:10034000023840EA0640E41B00261DB1D4400023D9
:10035000C5E900433146BDE8F0878B4209D9002D3D
:1003600000F0EF800026C5E9000130463146BDE8C7
:10037000F087B3FA83F6002E4AD18B4202D3824231
:1003800000F2F980841A61EB030301209E46002DE0
:10039000E0D0C5E9004EDDE702B9FFDEB2FA82F235
:1003A000002A40F09280A1EB0C014FEA1C471FFA93
:1003B0008CFE0126200CB1FBF7F307FB131140EA7A
:1003C00001410EFB03F0884208D91CEB010103F147
:1003D000FF3802D2884200F2CB804346091AA4B209
:1003E000B1FBF7F007FB101144EA01440EFB00FEDD
:1003F000A64508D91CEB040400F1FF3102D2A64542
:1004000000F2BB800846A4EB0E0440EA03409CE7E0
:10041000C6F12007B34022FA07FC4CEA030C20FA8D
:1004200007F401FA06F31C43F9404FEA1C4900FAAD
:1004300006F3B1FBF9F8200C1FFA8CFE09FB18112A
:1004400040EA014108FB0EF0884202FA06F20BD99D
:100450001CEB010108F1FF3A80F08880884240F2ED
:100460008580A8F102086144091AA4B2B1FBF9F031
:1004700009FB101144EA014100FB0EFE8E4508D92C
:100480001CEB010100F1FF346CD28E456AD90238B1
:10049000614440EA0840A0FB0294A1EB0E01A14296
:1004A000C846A64656D353D05DB1B3EB080261EB04
:1004B0000E0101FA07F722FA06F3F1401F43C5E9DE
:1004C000007100263146BDE8F087C2F12003D84014
:1004D0000CFA02FC21FA03F3914001434FEA1C4756
:1004E0001FFA8CFEB3FBF7F007FB10360B0C43EA48
:1004F000064300FB0EF69E4204FA02F408D91CEBF8
:10050000030300F1FF382FD29E422DD902386344F5
:100510009B1B89B2B3FBF7F607FB163341EA034195
:1005200006FB0EF38B4208D91CEB010106F1FF38E4
:1005300016D28B4214D9023E6144C91A46EA0046DB
:1005400038E72E46284605E70646E3E61846F8E66D
:100550004B45A9D2B9EB020864EB0C0E0138A3E7B6
:100560004646EAE7204694E74046D1E7D0467BE797
:10057000023B614432E7304609E76444023842E70F
:10058000704700BF80B500AF01220821024803F088
:1005900069F900BF80BD00BF000C024080B584B087
:1005A00000AF002208212F4803F05CF90122082146
:1005B0002C4803F057F90A2302222B492B4803F059
:1005C00094FF0023FB604FF400437B8100237B609A
:1005D0003FE07B68002B06DB7B68032B03DC7B683A
:1005E0000433FB6018E07B68032B07DD7B68072B77
:1005F00004DC7B68C3F10703FB600DE07B68072B1D
:1006000006DD7B680B2B03DC7B680433FB6003E0B7
:100610007B68C3F11703FB60134B1A887B89134077
:100620009BB2002B05D0124AFB68002122F8131060
:1006300009E00F4AFB6832F81330013399B20C4AD3
:10064000FB6822F813107B895B087B817B68013390
:100650007B607B680F2BBCDD00BF00BF1037BD4641
:1006600080BD00BF000C024018010020545F002034
:10067000F800002080B58EB000AF07F11C03002207
:100680001A605A609A60DA601A615A619A613B4650
:1006900000221A605A609A60DA601A615A619A619F
:1006A0002F4B4FF020421A602D4B2E4A5A602C4B94
:1006B00000229A602A4B0022DA60294B00221A613C
:1006C000274B10225A61264B00229A61244B0022AC
:1006D000DA61234B00221A62214B00225A62204B1E
:1006E0004FF480529A621E4B0022DA621C4B4FF488
:1006F00080421A631A4B00225A63194B00229A63F4
:10070000174B00225A640F23FB610F233B623C23EB
:100710007B620023BB621023FB6211233B63002337
:100720007B6308233B600F237B600923BB600023AE
:10073000FB6010233B6111237B610023BB613A46C0
:1007400007F11C031946064804F0B2FA0346002BD1
:1007500001D001F0E5F800BF3837BD4680BD00BFCD
:100760001C010020040100A080B586B000AF3B1D35
:1007700000221A605A609A60DA601A611C4B1B688A
:10078000002B31D11A4B01221A6000233B60194B18
:100790009B6B184A43F001039363164B9B6B03F06A
:1007A00001033B603B684FF688737B600223BB60AC
:1007B0000023FB6003233B610C237B613B1D194637
:1007C0000D4802F0B3FE4CF2B3737B600223BB60B2
:1007D0000023FB6003233B610C237B613B1D194617
:1007E000064802F0A3FE00E000BF1837BD4680BDFA
:1007F0006C0100200038024000100240000C024052
:1008000080B582B000AF7860FFF7AEFF00BF083759
:10081000BD4680BD80B58CB000AF07F11C0300223F
:100820001A605A609A60DA601A610023BB616F4BEC
:100830001B6B6E4A43F0100313636C4B1B6B03F08E
:100840001003BB61BB6900237B61684B1B6B674A6C
:1008500043F004031363654B1B6B03F004037B61DC
:100860007B6900233B61614B1B6B604A43F0800353
:1008700013635E4B1B6B03F080033B613B690023FA
:10088000FB605A4B1B6B594A43F001031363574BF0
:100890001B6B03F00103FB60FB680023BB60534B41
:1008A0001B6B524A43F008031363504B1B6B03F05E
:1008B0000803BB60BB6800237B604C4B1B6B4B4A3F
:1008C00043F040031363494B1B6B03F040037B6011
:1008D0007B6800233B60454B1B6B444A43F002039B
:1008E0001363424B1B6B03F002033B603B68002227
:1008F00070213F4802F0B6FF00224FF400513D48FE
:1009000002F0B0FF002240213B4802F0ABFF002282
:100910004FF48071394802F0A5FF002208213848C1
:1009200002F0A0FF7023FB6101233B6200237B6286
:100930000023BB6207F11C0319462D4802F0F6FDA7
:100940004FF40053FB6101233B6200237B620023D1
:10095000BB6207F11C031946264802F0E7FDC023DD
:10096000FB6100233B6200237B6207F11C031946F5
:10097000224802F0DBFD3023FB6100233B620023B1
:100980007B6207F11C0319461A4802F0CFFD402391
:10099000FB6101233B6200237B620023BB6207F102
:1009A0001C031946144802F0C1FD4FF48073FB612B
:1009B00001233B6200237B620023BB6207F11C031F
:1009C00019460E4802F0B2FD0823FB6101233B6289
:1009D00000237B620023BB6207F11C031946084811
:1009E00002F0A4FD00BF3037BD4680BD0038024094
:1009F00000100240000802400018024000000240BF
:100A0000000C024080B483B000AF0346FB80044A70
:100A1000FB88138000BF0C37BD465DF8047B704730
:100A2000FEFF0F6080B483B000AF0346FB80044A32
:100A3000FB88538000BF0C37BD465DF8047B7047D0
:100A4000FEFF0F6080B483B000AF064B5B889BB2A3
:100A5000FB80FB889BB218460C37BD465DF8047BD3
:100A6000704700BFFEFF0F6090B583B000AF044633
:100A7000084611461A462346FB800346BB800B46B8
:100A80007B8013463B802A20FFF7BCFFFB881B0AB4
:100A90009BB21846FFF7C6FFFB88DBB29BB2184635
:100AA000FFF7C0FF7B881B0A9BB21846FFF7BAFF0F
:100AB0007B88DBB29BB21846FFF7B4FF2B20FFF711
:100AC000A1FFBB881B0A9BB21846FFF7ABFFBB8890
:100AD000DBB29BB21846FFF7A5FF3B881B0A9BB20F
:100AE0001846FFF79FFF3B88DBB29BB21846FFF723
:100AF00099FF2C20FFF786FF00BF0C37BD4690BD45
:100B000080B584B000AF0346FB80154B1B88013BCA
:100B10009AB2134B5B88013B9BB200210020FFF788
:100B2000A3FF0023FB8111E00023BB8106E0FB88CB
:100B30001846FFF777FFBB890133BB81084B5B8801
:100B4000BA899A42F3D3FB890133FB81044B1B889A
:100B5000FA899A42E8D300BF00BF1037BD4680BD76
:100B60008001002090B585B000AF044608461146CC
:100B70001A462346FB800346BB800B467B80134608
:100B80003B807B88013B9AB23B88013B9BB2B98892
:100B9000F888FFF769FFBB88FB8110E0FB88BB8109
:100BA00006E03B8C1846FFF73DFFBB890133BB8154
:100BB000BA897B889A42F4D3FB890133FB81FA8995
:100BC0003B889A42EAD300BF00BF1437BD4690BDB0
:100BD00080B582B000AF0346FB800B46BB80134656
:100BE0007B80BB88FA88B988F888FFF73DFF7B884F
:100BF0001846FFF717FF00BF0837BD4680BD90B508
:100C00008DB000AF0446084611461A462346FB80C5
:100C10000346BB800B467B8013463B800023BB62B0
:100C200000237B627A88FB88D31A3B623A88BB88B0
:100C3000D31AFB61FB88FB60BB88BB603B6A002B5F
:100C400002DD01237B610BE03B6A002B02D1002314
:100C50007B6105E04FF0FF337B613B6A5B423B62A7
:100C6000FB69002B02DD01233B610BE0FB69002BDC
:100C700002D100233B6105E04FF0FF333B61FB698C
:100C80005B42FB613A6AFB699A4202DD3B6ABB61E7
:100C900001E0FB69BB610023FB852BE0FB689BB295
:100CA000BA6891B2B7F840201846FFF791FFBA6AC8
:100CB0003B6A1344BB627A6AFB6913447B62BA6A7B
:100CC000BB699A4207DDBA6ABB69D31ABB62FA688C
:100CD0007B691344FB607A6ABB699A4207DD7A6AD2
:100CE000BB69D31A7B62BA683B691344BB60FB8D56
:100CF0000133FB85FB8DBA699A42CFDA00BF00BF92
:100D00003437BD4690BD90B585B002AF0446084665
:100D100011461A462346FB800346BB800B467B8068
:100D200013463B80BC887A88B988F8883B8B00934F
:100D30002346FFF764FF3C88FA88B988F8883B8B24
:100D400000932346FFF75BFF3C887A883988F88850
:100D50003B8B00932346FFF752FF3C887A88B98883
:100D600078883B8B00932346FFF749FF00BF0C3781
:100D7000BD4690BD90B587B000AF04460846114609
:100D80001A462346FB800346BB800B46FB70134686
:100D90003B8000237B75FB883B8297F82C305B08F7
:100DA000FB73FB7BDB08DBB21A46FB7B03F007031C
:100DB000DBB2002B14BF01230023DBB213449AB231
:100DC00097F82C309BB212FB03F3BB81FB78203BDE
:100DD000FB70FB7B9AB2FB8813449BB2013B9CB235
:100DE00097F82C309AB2BB8813449BB2013B9BB25C
:100DF000B988F8882246FFF737FE00237B827AE025
:100E000097F82C300C2B28D097F82C30102B08D1C9
:100E1000FA787B8A3C4912010A4413441B78FB751B
:100E20001BE097F82C30182B0BD1FA78798A3748C9
:100E300013465B0013441B0103440B441B78FB75F2
:100E40000BE097F82C30202B5AD1FA787B8A304966
:100E500092010A4413441B78FB750023BB7544E0E0
:100E600097F83030002B20D1FA7DBB7D42FA03F396
:100E700003F00103002B04D03B881846FFF7D2FD96
:100E800003E03B8D1846FFF7CDFD7B7D01337B757D
:100E90007B7DFA7BB3FBF2F101FB02F29B1ADBB222
:100EA000002B1FD100237B7522E0FA7DBB7D42FA27
:100EB00003F303F00103002B05D03A88B988FB88BF
:100EC0001846FFF785FEFB880133FB80FA883B8AD2
:100ED000D21AFB7B9A4205D13B8AFB80BB88013347
:100EE000BB8005E0BB7D0133BB75BB7D072BB7D94C
:100EF0007B8A01337B827A8ABB899A4280D300E065
:100F000000BF1C37BD4690BD14630008046900088B
:100F1000D47A000890B587B000AF04460846114661
:100F20001A462346FB800346BB800B467B80134654
:100F30003B8000233B61FA887B8813449BB2013BD2
:100F40009CB2BA883B8813449BB2013B9BB2B988E0
:100F5000F8882246FFF788FD0023FB8227E0002364
:100F6000BB821DE03B695B00BA6A13441B78FB73CC
:100F70003B695B000133BA6A13441B78BB73FB7B8C
:100F80001B021AB2BB7B1BB213431BB29BB21846A7
:100F9000FFF748FD3B6901333B61BB8A0133BB82EC
:100FA000BA8A3B889A42DDD3FB8A0133FB82FA8AF4
:100FB0007B889A42D3D300BF00BF1C37BD4690BD8B
:100FC00080B483B000AF0346FB71FB791B09DBB231
:100FD00003F00303DBB2002B07D00A4B4FF4A072DF
:100FE0001A80084BF0225A8006E0064BF0221A8045
:100FF000044B4FF4A0725A8000BF0C37BD465DF819
:10100000047B70478001002080B500AF00224FF4C0
:101010000051AA4802F026FC4FF4FA7002F050F991
:1010200001224FF40051A54802F01CFC4FF4FA7065
:1010300002F046F90020FFF7C3FFD320FFF7E2FCE0
:10104000FFF700FD03461A469D4B9A80FFF7FAFC16
:1010500003461A469A4B9A80FFF7F4FC03461A4659
:10106000974B9A80964B9B881B029AB2944B9A801E
:10107000FFF7E8FC03461A46914B9B8813439AB24C
:101080008F4B9A80CF20FFF7BDFC0020FFF7CAFCF2
:10109000C120FFF7C7FC3020FFF7C4FCED20FFF7AD
:1010A000B1FC6420FFF7BEFC0320FFF7BBFC12205D
:1010B000FFF7B8FC8120FFF7B5FCE820FFF7A2FCA2
:1010C0008520FFF7AFFC1020FFF7ACFC7A20FFF77C
:1010D000A9FCCB20FFF796FC3920FFF7A3FC2C20BE
:1010E000FFF7A0FC0020FFF79DFC3420FFF79AFCDF
:1010F0000220FFF797FCF720FFF784FC2020FFF782
:1011000091FCEA20FFF77EFC0020FFF78BFC00201B
:10111000FFF788FCC020FFF775FC1B20FFF782FC5F
:10112000C120FFF76FFC0120FFF77CFCC520FFF713
:1011300069FC3020FFF776FC3020FFF773FCC720F6
:10114000FFF760FCB720FFF76DFC3620FFF75AFC75
:101150000820FFF767FC3A20FFF754FC5520FFF703
:1011600061FCB120FFF74EFC0020FFF75BFC1A206A
:10117000FFF758FCB620FFF745FC0A20FFF752FCAA
:10118000A220FFF74FFCF220FFF73CFC0020FFF706
:1011900049FC2620FFF736FC0120FFF743FCE02046
:1011A000FFF730FC0F20FFF73DFC2A20FFF73AFC49
:1011B0002820FFF737FC0820FFF734FC0E20FFF74C
:1011C00031FC0820FFF72EFC5420FFF72BFCA92050
:1011D000FFF728FC4320FFF725FC0A20FFF722FC3D
:1011E0000F20FFF71FFC0020FFF71CFC0020FFF77B
:1011F00019FC0020FFF716FC0020FFF713FCE1208C
:10120000FFF700FC0020FFF70DFC1520FFF70AFC9C
:101210001720FFF707FC0720FFF704FC1120FFF75A
:1012200001FC0620FFF7FEFB2B20FFF7FBFB5620FF
:10123000FFF7F8FB3C20FFF7F5FB0520FFF7F2FB7B
:101240001020FFF7EFFB0F20FFF7ECFB3F20FFF72D
:10125000E9FB3F20FFF7E6FB0F20FFF7E3FB2B2026
:10126000FFF7D0FB0020FFF7DDFB0020FFF7DAFBE4
:101270000120FFF7D7FB3F20FFF7D4FB2A20FFF721
:10128000C1FB0020FFF7CEFB0020FFF7CBFB0020C7
:10129000FFF7C8FBEF20FFF7C5FB1120FFF7B2FBFC
:1012A000782002F00DF82920FFF7ACFB01224FF463
:1012B0008071044802F0D6FA00BF80BD00080240E9
:1012C000800100200000024080B584B000AFF860CB
:1012D000B9607A603B60FB689AB27B689BB213444A
:1012E00098B2BB689AB23B689BB213449BB23A8BEC
:1012F0001946FFF76DFCFB689AB27B689BB2D31A64
:1013000098B2BB689AB23B689BB213449BB23A8BCB
:101310001946FFF75DFCFB689AB27B689BB21344E9
:1013200098B2BB689AB23B689BB2D31A9BB23A8B15
:101330001946FFF74DFCFB689AB27B689BB2D31A43
:1013400098B2BB689AB23B689BB2D31A9BB23A8BF5
:101350001946FFF73DFCFB689AB23B689BB2134409
:1013600098B2BB689AB27B689BB213449BB23A8B2B
:101370001946FFF72DFCFB689AB23B689BB2D31A63
:1013800098B2BB689AB27B689BB213449BB23A8B0B
:101390001946FFF71DFCFB689AB23B689BB21344E9
:1013A00098B2BB689AB27B689BB2D31A9BB23A8B55
:1013B0001946FFF70DFCFB689AB23B689BB2D31A43
:1013C00098B2BB689AB27B689BB2D31A9BB23A8B35
:1013D0001946FFF7FDFB00BF1037BD4680BD80B545
:1013E0008AB002AFF860B9603B601346FB8000230F
:1013F000FB613B68BB613B685B00C3F103033B617E
:10140000BB6A002B4FD029E0FB697B610AE0FB88B7
:1014100000937B69FA69B968F868FFF755FF7B6943
:1014200001337B617A69BB699A42F0DD3B69002B2D
:1014300006DAFB699A003B69134406333B610AE014
:10144000FA69BB69D31A9A003B6913440A333B61BA
:10145000BB69013BBB61FB690133FB61FA69BB6995
:101460009A42D1DD23E0FB880093BB69FA69B96831
:10147000F868FFF729FF3B69002B06DAFB699A0041
:101480003B69134406333B610AE0FA69BB69D31A2E
:101490009A003B6913440A333B61BB69013BBB6162
:1014A000FB690133FB61FA69BB699A42DBDD00BF6E
:1014B0002037BD4680BD000090B58BB004AFBA6048
:1014C0001A460346FB810B46BB811346FB80FB8912
:1014D000BB820023FB7548E0FB7D002B45D1FA89D8
:1014E000264B1B88194697F82C305B08DBB2CB1AC9
:1014F0009A423FDCBA89214B5B88194697F82C3019
:10150000CB1A9A4236DCBB681B78802B02D90123A8
:10151000FB752AE0BB681B780D2B0BD197F82C309C
:101520009AB2BB891344BB81BB8AFB81BB68013380
:10153000BB6017E0BB681A78FC88B989F88997F80E
:101540003030029397F82C3001933B8D0093234663
:10155000FFF710FC97F82C305B08DBB29AB2FB89DE
:101560001344FB81BB680133BB60BB681B78002B55
:10157000B2D100E000BF1C37BD4690BD8001002005
:1015800080B58AB004AFBA601A460346FB810B46A9
:10159000BB811346FB80B868FEF71AFE0346FB8248
:1015A0000F4B1B881A46FB8ADB00D31ADA0F134451
:1015B0005B10BB82FA89BB8A134498B2FA88B98956
:1015C00097F82830029397F8243001933B8C0093CE
:1015D0001346BA68FFF770FF00BF1837BD4680BDDD
:1015E0008001002080B500AF01224021024802F0B6
:1015F00039F900BF80BD00BF0018024080B500AFC0
:101600003F4B1B88DBB29AB23D4B1A803D4B1B8887
:101610001A463D4B9B5C1B021AB2394B1B881BB20E
:1016200013431BB29AB2364B1A80364B1B88032BDE
:1016300046D801A252F823F04916000867160008A0
:1016400085160008A31600082D4B1B8843F0B00335
:101650009AB22B4B1A802A4B1B8823F040039AB274
:10166000274B1A802DE0264B1B8843F0D0039AB2FB
:10167000234B1A80224B1B8823F020039AB2204B65
:101680001A801EE01E4B1B8843F0E0039AB21C4BED
:101690001A801B4B1B8823F010039AB2184B1A8038
:1016A0000FE0174B1B8843F070039AB2144B1A805B
:1016B000134B1B8823F080039AB2114B1A8000E071
:1016C00000BF104B1B8801335A4203F0030302F0A2
:1016D000030258BF53429AB20A4B1A80002240219B
:1016E0000A4802F0BFF8012302220549084802F027
:1016F000C0FD01224021054802F0B4F800BF80BDC2
:1017000068000020860100206400002000180240CC
:10171000545F002080B500AF01F060FD00F02CF8B0
:10172000FFF778F801F0BEFC00F088FEFEF7A2FF9C
:1017300000F08CF84FF6FF70FFF7E2F900F0A6F822
:1017400000BF0B4B1B88002BFBD0094B00221A80DB
:10175000FEF724FF01F0AEF9064B1B68032B03D004
:10176000044B1B68042BEBD100F0ECFDE8E700BF55
:101770004C5F00207C01002080B594B000AF07F1E1
:10178000200330220021184604F052F807F10C0320
:1017900000221A605A609A60DA601A610023BB6006
:1017A000284B1B6C274A43F080531364254B1B6C5A
:1017B00003F08053BB60BB6800237B60224B1B6837
:1017C000214A43F4804313601F4B1B6803F480439A
:1017D0007B607B6802233B620123FB6210233B6337
:1017E0000223BB630023FB6308233B64A8237B64C1
:1017F0000223BB640423FB6407F12003184602F0B4
:101800004BF80346002B01D000F08AF80F23FB6051
:1018100002233B6100237B614FF4A053BB614FF473
:10182000A053FB6107F10C030521184602F0ACFA46
:101830000346002B01D000F073F800BF5037BD46BF
:1018400080BD00BF003802400070004080B500AF8E
:10185000002220210C4802F005F8002240210A480D
:1018600002F000F800221021074801F0FBFF00F011
:1018700095FDFFF7B7FEFEF785FEFFF7C5FBC82015
:1018800000F096FD00BF80BD0010024080B584B01E
:1018900004AF1F2300931423F02200210020FFF740
:1018A00061F901230293102301931F2300934FF446
:1018B0007843184A02210020FFF762FE00230293BA
:1018C000182301934FF4784300934FF6FF73124AA5
:1018D0001E211420FFF7F0FD0123009328234FF46D
:1018E000FC6278213C20FFF77AFD00230093282337
:1018F0004FF61F027821A020FFF771FD074B0093E0
:1019000028232722D2215020FFF704FB00BFBD4629
:1019100080BD00BFB8610008C8610008949200084B
:1019200080B400AF72B600BFFEE7000080B590B093
:1019300000AF0346FB80FB8807F10C00064A32210A
:1019400003F07EFF07F10C03184603F0BDFF0346CA
:1019500018464037BD4680BDD861000890B583B0B9
:1019600002AF2C4B1B6898B22B4B1B6899B2294BCA
:101970005B689CB2284B5B689AB2284B1B689BB291
:1019800013449BB2002200922246FFF7EBF8214B52
:101990001B6898B2204B1B6899B21E4B9B689AB289
:1019A0001E4B1B689BB213449AB21B4B9B689BB2A5
:1019B00000240094FFF7D6F8164B5B689AB2174BD9
:1019C0001B689BB2D31A98B2134B5B6899B2114B48
:1019D000DB689AB2104BDB689BB200240094FFF7DF
:1019E000C1F80C4B9B6898B20B4B9B689AB20B4B9F
:1019F0001B689BB2D31A99B2064BDB689AB2064BAE
:101A0000DB689BB200240094FFF7ACF800BF0437FA
:101A1000BD4690BD1800002028000020380000209E
:101A200090B5A3B004AF03460A46FB801346BB80C3
:101A30004FF6FF70FFF764F81F2300933C23F0225A
:101A400000210020FFF78EF8394A07F13C0392E8A5
:101A5000030018600433197007F141032D2200219F
:101A6000184603F0E5FE334B1B881846FFF75EFF70
:101A7000786707F13C03796F184603F015FF2E4B8A
:101A80001B6898B22D4B1B6899B207F13C020123E9
:101A90000293182301934FF6FF7300934FF478439A
:101AA000FFF70AFD264A07F1080392E8030083E8DE
:101AB000030007F110032A220021184603F0B8FEA4
:101AC000204B1B881846FFF731FF386707F10803E2
:101AD000396F184603F0E8FE1B4B1B6898B21B4B8E
:101AE0001B689BB2053399B207F1080201230293E8
:101AF000182301934FF6FF7300934FF47843FFF7D9
:101B0000DBFC134B1B6898B2124B1B6899B2124B4B
:101B10001B689AB2114B1B689BB2114C0094FFF7E3
:101B2000F9F9FFF71BFF00BF7C37BD4690BD00BF32
:101B3000DC610008700100203C0000204000002013
:101B400010620008720100204C00002050000020AC
:101B500054000020580000205C000020600000209D
:101B60009492000890B5B1B004AF03460A46FB80DA
:101B70001346BB804FF6FF70FEF7C2FF1F23009392
:101B80003C23F02200210020FEF7ECFF544A07F12D
:101B9000700392E8030018600433197007F17503AD
:101BA0002D220021184603F043FE4E4B1B88184699
:101BB000FFF7BCFEC7F8A80007F17003D7F8A8101C
:101BC000184603F071FE484B1B6898B2474B1B68E0
:101BD00099B207F1700201230293102301934FF68B
:101BE000FF7300934FF47843FFF766FC404A07F118
:101BF0003C0392E8030083E8030007F144032A2230
:101C00000021184603F014FE0020FFF78FFEC7F8EE
:101C1000A40007F13C03D7F8A410184603F044FED3
:101C2000344B1B6898B2344B1B6899B207F13C02E5
:101C300001230293102301934FF6FF7300934FF497
:101C40007843FFF739FC2D4A07F1080307CA03C39D
:101C50001A7007F1110329220021184603F0E8FD4C
:101C6000BB8840F2E732934206D0BB881846FFF7A4
:101C70005DFEC7F8AC0002E0214BC7F8AC3007F1BD
:101C80000803D7F8AC10184603F00EFE1D4B1B6876
:101C900098B21D4B1B6899B207F108020123029309
:101CA000102301934FF6FF7300934FF47843FFF72F
:101CB00003FC164B1B6898B2154B1B6899B2154B69
:101CC0001B689AB2144B1B689BB2144C0094FFF72C
:101CD00021F9FFF743FE00BFB437BD4690BD00BFFA
:101CE000DC610008700100203C0000204000002062
:101CF000106200084C0000205000002048620008DC
:101D000044620008440000204800002054000020E5
:101D1000580000205C000020600000209492000821
:101D200090B5B1B004AF03460A46FB801346BB80B2
:101D30004FF6FF70FEF7E4FE1F2300933C23F022D2
:101D400000210020FEF70EFF544A07F1700392E8CD
:101D5000030018600433197007F175032D22002168
:101D6000184603F065FD4E4B1B881846FFF7DEFD55
:101D7000C7F8A80007F17003D7F8A810184603F0B9
:101D800093FD484B1B6898B2474B1B6899B207F10B
:101D9000700201230293102301934FF6FF73009307
:101DA0004FF47843FFF788FB404A07F13C0392E881
:101DB000030083E8030007F144032A2200211846A8
:101DC00003F036FD0020FFF7B1FDC7F8A40007F1CE
:101DD0003C03D7F8A410184603F066FD344B1B688B
:101DE00098B2344B1B6899B207F13C02012302936D
:101DF000102301934FF6FF7300934FF47843FFF7DE
:101E00005BFB2D4A07F1080307CA03C31A7007F1E9
:101E1000110329220021184603F00AFDBB8840F275
:101E2000E732934206D0BB881846FFF77FFDC7F81C
:101E3000AC0002E0214BC7F8AC3007F10803D7F83B
:101E4000AC10184603F030FD1D4B1B6898B21D4BBB
:101E50001B6899B207F10802012302931023019332
:101E60004FF6FF7300934FF47843FFF725FB164BB3
:101E70001B6898B2154B1B6899B2154B1B689AB238
:101E8000144B1B689BB2144C0094FFF743F8FFF708
:101E900065FD00BFB437BD4690BD00BFDC610008E2
:101EA000700100203C00002040000020106200086B
:101EB0004C000020500000204862000844620008E6
:101EC000440000204800002054000020580000205A
:101ED0005C000020600000209492000880B483B071
:101EE00000AF244B96221A60224B96225A60214B57
:101EF00091229A601F4B9622DA601E4B8C221A6147
:101F00001C4B96225A611B4B87229A61194B9622D1
:101F1000DA61184B82221A62164B96225A62154BCE
:101F20007D229A62134B9622DA62124B78221A6350
:101F3000104B96225A6307237B600DE00D4A7B68A5
:101F4000002142F833100B4A7B68DB001344002267
:101F50005A607B6801337B607B68B3F57A7FEDDB89
:101F6000054B00221A6000BF0C37BD465DF8047BAC
:101F7000704700BF88010020485F002080B582B014
:101F800000AF284B1B68002B01D100F04FF8254B08
:101F900001221A604FF47A737B603AE07B68002B71
:101FA00013D1214A7B6852F833305A1F1E497B688F
:101FB00041F833201C4A7B68DB0013445A681A49F5
:101FC0007B68DB000B445A6020E0174A7B6852F8BC
:101FD0003330002B06D1144A7B68DB0013445B6866
:101FE000002B13D07B68013B0F4A52F833200E4977
:101FF0007B6841F833207B68013B0B4ADB001344CC
:102000005A6809497B68DB000B445A607B68013BD6
:102010007B607B68002BC1DA00BF00BF0837BD467C
:1020200080BD00BF485F00208801002080B582B0DD
:1020300000AF284B1B68012B02D1FFF79FFF45E043
:10204000244B00221A604FF47A737B603AE07B687D
:10205000002B13D1204A7B6852F833305A1D1E4999
:102060007B6841F833201C4A7B68DB0013445A68C4
:1020700019497B68DB000B445A6020E0164A7B68F4
:1020800052F83330002B06D1134A7B68DB0013442F
:102090005B68002B13D07B68013B0F4A52F833205A
:1020A0000D497B6841F833207B68013B0A4ADB001D
:1020B00013445A6808497B68DB000B445A607B680C
:1020C000013B7B607B68002BC1DA00BF00BF083793
:1020D000BD4680BD485F00208801002080B582B0E9
:1020E00000AF284B1B68022B02D1FFF7F7FF45E03A
:1020F000244B03221A604FF47A737B603AE07B68CA
:10210000002B13D1204A7B6852F833201E497B688C
:1021100041F833201C4A7B68DB0013445B685A1F7C
:1021200019497B68DB000B445A6020E0164A7B6843
:1021300052F83330002B06D1134A7B68DB0013447E
:102140005B68002B13D07B68013B0F4A52F83320A9
:102150000D497B6841F833207B68013B0A4ADB006C
:1021600013445A6808497B68DB000B445A607B685B
:10217000013B7B607B68002BC1DA00BF00BF0837E2
:10218000BD4680BD485F00208801002080B582B038
:1021900000AF284B1B68032B02D1FFF7F7FF45E088
:1021A000244B02221A604FF47A737B603AE07B681A
:1021B000002B13D1204A7B6852F833201E497B68DC
:1021C00041F833201C4A7B68DB0013445B685A1DCE
:1021D00019497B68DB000B445A6020E0164A7B6893
:1021E00052F83330002B06D1134A7B68DB001344CE
:1021F0005B68002B13D07B68013B0F4A52F83320F9
:102200000D497B6841F833207B68013B0A4ADB00BB
:1022100013445A6808497B68DB000B445A607B68AA
:10222000013B7B607B68002BC1DA00BF00BF083731
:10223000BD4680BD485F00208801002080B500AF0A
:102240000F4B1B68032B17D801A252F823F000BFD5
:102250006D2200087322000861220008672200082E
:10226000FFF794FF09E0FFF739FF06E0FFF7DEFE16
:1022700003E0FFF783FE00E000BF00BF80BD00BFAA
:10228000485F002090B585B002AF00237B604FE02F
:102290007B68002B1ED12A4A7B6852F8333098B2F3
:1022A000274A7B68DB0013445B6899B2244A7B6849
:1022B00052F833309BB205339AB2214C7B68DB0075
:1022C00023445B689BB205339BB21F240094FEF746
:1022D00049FC2AE01A4A7B6852F83330002B06D1B9
:1022E000174A7B68DB0013445B68002B24D0144A38
:1022F0007B6852F8333098B2114A7B68DB00134494
:102300005B6899B20E4A7B6852F833309BB2053352
:102310009AB20B4C7B68DB0023445B689BB20533AD
:102320009BB21F240094FEF71DFC7B6801337B6089
:102330007B68B3F57A7FABDB00BF0C37BD4690BD41
:102340008801002080B500AF134B5B89002B02D0C1
:10235000FFF7C4FE1AE0104B5B8B002B02D0FFF797
:1023600015FF13E00C4B9B8A002B02D0FFF75EFE9B
:102370000CE0094B1B8A002B02D0FFF7FFFD05E0A4
:10238000054B5B8A002B01D1FFF758FFFFF7A6FD35
:10239000FFF778FF00BF80BDF800002080B500AFD8
:1023A000024802F019FD00BF80BD00BFB05F0020F1
:1023B00080B483B000AF0346FB80084AFB881380DB
:1023C000064B1A88064B1A80064B00221A8000BF63
:1023D0000C37BD465DF8047B704700BF505F00209E
:1023E0004E5F00204C5F002080B582B000AF786067
:1023F0007B681B68B3F1804F16D10D4B1B88002BF7
:1024000010D00B4B1B88013B9AB2094B1A80084B2A
:102410001B88002B06D1074B01221A80064B1A8815
:10242000034B1A80FFF7EAF800BF0837BD4680BDAE
:102430004E5F00204C5F0020505F002080B500AF51
:10244000174B184A1A60164B4FF482725A60144B9D
:1024500000229A60124B0022DA60114B00221A61AE
:102460000F4B00225A610E4B4FF400729A610C4BD5
:102470000022DA610A4B00221A62094B00225A62DA
:10248000074B00229A62064B0A22DA62044801F0E6
:1024900067FE0346002B01D0FFF742FA00BF80BD64
:1024A000545F00200030014080B58AB000AF7860F2
:1024B00007F1140300221A605A609A60DA601A6108
:1024C0007B681B68194A93422BD100233B61184B50
:1024D0005B6C174A43F480535364154B5B6C03F4F5
:1024E00080533B613B690023FB60114B1B6B104A1F
:1024F00043F0020313630E4B1B6B03F00203FB60FC
:10250000FB6838237B610223BB610023FB6103234B
:102510003B6205237B6207F114031946054801F06D
:1025200005F800BF2837BD4680BD00BF0030014020
:10253000003802400004024090B593B004AF00237D
:102540003B603B1D2E220021184603F071F900204C
:10255000FEF7D6FA2F4B1B6898B22F4B1B6899B227
:102560002E4B1B689AB22E4B1B689BB22D4C0094CD
:10257000FEF7D0FC002302931823019348F2304366
:1025800000934FF6FF73284A37213C20FEF794FF53
:10259000002302931823019348F2304300934FF62F
:1025A000FF73224A64212820FEF786FF4FF6FF734F
:1025B0000093B423B42296213C20FEF7A4FB1C4BCD
:1025C0001B881846FFF7B2F978633B46796B1846CB
:1025D00003F06AF93A4601230293182301934FF45A
:1025E000784300934FF6FF739B210020FEF7C8FF4E
:1025F000002302931823019348F2304300934FF6CF
:10260000FF730C4AE6215020FEF756FF00BF3C370F
:10261000BD4690BD54000020580000205C00002002
:1026200060000020949200087C6200088C62000820
:10263000700100209C62000880B582B002AF0023C8
:10264000009340F24B13DD22BE21B420FEF78AFA3C
:1026500000BFBD4680BD000090B583B002AFFFF75C
:10266000EBFF234B1B6898B2224B1B6899B2224B9D
:102670001B689AB2214B1B689BB24FF6FF74009403
:10268000FEF7BDFA1C4B1B6898B21C4B1B6899B235
:10269000174B1B689CB2194B1B689BB25B009AB22C
:1026A000144B1B689BB2D31A9BB24FF6FF72009279
:1026B0002246FEF7A4FA0E4B1B6898B20D4B1B681E
:1026C00099B20B4B1B689CB20C4B1B689BB25B0016
:1026D0009AB2084B1B689BB2D31A9BB24FF6FF729B
:1026E00000922246FEF78BFA00BF0437BD4690BD2C
:1026F0000800002010000020040000200C00002032
:1027000080B584B004AF884BDB88012B17D1874B91
:1027100001221A60864B1B68052B09D0052B11DCA2
:10272000032B0ED0042B0DD1814B03221A6009E03C
:102730007F4B04221A607F4B00221A6002E000BF28
:1027400000E000BF784BDB89012B18D1774B0122C9
:102750001A60774B1B68052B13D0052B12DC032B5B
:1027600002D0042B07D00DE0714B04221A60714B8C
:1027700001221A6006E06E4B05221A6002E000BFDB
:1027800000E000BF694B1B68012B40F0CA80684B1A
:102790001B68052B79D0052B00F3C080032B02D0DA
:1027A000042B4FD0BAE0644BD2221A60634BBE2296
:1027B0001A60002300934FF4A073F022B42100208C
:1027C000FEF7D0F9002302931823019348F2304317
:1027D00000934FF478435A4AC8210A20FEF76CFE52
:1027E000002302931823019348F2304300934FF6DD
:1027F000FF73544AFA210A20FEF75EFE4FF6FF737C
:1028000000934FF4967382224FF496716E20FEF778
:10281000F6F94FF6FF7300934FF49B7378224FF451
:1028200096716E20FEF7EBF94FF6FF7300934FF4AD
:10283000967382224FF49B717820FEF7E0F9FFF740
:102840000BFF6BE03B4B1B68002B06D13A4BD222AF
:102850001A603A4BBE221A6006E0374B4FF4827280
:102860001A60364BF0221A6000230293182301935A
:1028700048F2304300934FF47843324AFA210A2059
:10288000FEF71AFEFFF7E8FE48E02B4B4FF482728A
:102890001A602A4BF0221A60002300934FF4A073B1
:1028A000F022B4210020FEF75DF9002302931823E3
:1028B000019348F2304300934FF6FF73214AC82139
:1028C0000A20FEF7F9FD002302931823019348F232
:1028D000304300934FF478431B4AFA210A20FEF755
:1028E000EBFD4FF6FF730093BE238222BE216E20C4
:1028F000FEF785F94FF6FF730093B4237822BE21CB
:102900006E20FEF77CF94FF6FF730093BE23822200
:10291000B4217820FEF773F9FFF79EFE034B0022E7
:102920001A6000BFBD4680BDF8000020780100207D
:1029300014000020740100200C0000201000002072
:10294000A4620008B4620008C462000890B595B0A3
:1029500004AF0346FB800020FEF7D2F84B4B1B6808
:1029600098B24B4B1B6899B24A4B1B689AB24A4BC0
:102970001B689BB2494C0094FEF7CCFA00230293EB
:102980001823019348F2304300934FF6FF73444AF3
:1029900037213C20FEF790FD424A07F1080392E8F8
:1029A000030018600433198007F10E032C22002164
:1029B000184602F03DFFFB881846FEF7B7FFF863A4
:1029C00007F10803F96B184602F06EFF07F10802E1
:1029D000002302931823019348F2304300934FF6EB
:1029E000FF7364210020FEF7CBFD00230293182320
:1029F000019348F2304300934FF6FF732A4A962121
:102A00000020FEF7BDFD002302931823019348F236
:102A1000304300934FF6FF73244AC8210A20FEF783
:102A20004BFD002302931823019348F23043009397
:102A30004FF6FF731E4AFA210A20FEF73DFDFFF70D
:102A40000BFE4FF6FF7300934FF4967382224FF400
:102A500096716E20FEF7D3F84FF6FF7300934FF494
:102A60009B7378224FF496716E20FEF7C8F84FF6EC
:102A7000FF7300934FF4967382224FF49B7178207A
:102A8000FEF7BDF800BF4437BD4690BD540000209E
:102A9000580000205C000020600000209492000894
:102AA0007C620008DC620008D4620008A4620008AE
:102AB000B462000880B594B004AFAB4B9B8B012B84
:102AC00040F09480A94B1B68052B00F2918001A275
:102AD00052F823F0ED2A0008132B0008252B0008DC
:102AE0007B2B0008A12B0008C72B00089F4B01225D
:102AF0001A609F4B00221A809E4B00221A809E4B28
:102B000003221A609D4B40F2E7321A80FFF714FD52
:102B100071E0964B02221A60954B1B881846FFF70E
:102B200015FF68E0944B1B68904A1360924B1B683A
:102B3000052B18D0052B5DDC032B02D0042B09D00C
:102B400058E08B4B1B888B4A128811461846FEF7BB
:102B500067FF11E0864B1B88884A12881146184689
:102B6000FFF700F808E0824B1B88844A1288114660
:102B70001846FFF7D5F800BF3CE07C4B01221A60F5
:102B80007B4B00221A807B4B00221A807A4B032257
:102B90001A607A4B40F2E7321A80FFF7CDFC2AE048
:102BA000724B01221A60724B00221A80714B002274
:102BB0001A80714B03221A60704B40F2E7321A8080
:102BC000FFF7BAFC17E0694B01221A60684B00223C
:102BD0001A80684B00221A80674B03221A60674BE9
:102BE00040F2E7321A80FFF7A7FC01E000BF02E0E5
:102BF00000BF00E000BF5D4B1B68012B40F07D81F2
:102C000000237B6007F108032E220021184602F002
:102C10000FFE0023FB876BE1FB8F534A32F8133022
:102C2000012B40F06281FB8F0D2B00F23D8101A250
:102C300052F823F06D2C0008A12C0008D52C0008B8
:102C4000E92E0008092D0008392D0008812D000803
:102C5000E92E0008B12D0008E52D0008192E000806
:102C6000E92E00084D2E00087F2E0008404B1B88DF
:102C70001A46920013445B009AB2FB8F13449BB236
:102C800001339AB23A4B1A80394B1B881846FEF72B
:102C90004DFEB8633B1DB96B184602F005FE03E11B
:102CA000334B1B881A46920013445B009AB2FB8F89
:102CB00013449BB201339AB22D4B1A802C4B1B88C4
:102CC0001846FEF733FEB8633B1DB96B184602F099
:102CD000EBFDE9E0264B1B881A46920013445B008B
:102CE0009AB2FB8F13449BB201339AB2204B1A80E5
:102CF0001F4B1B881846FEF719FEB8633B1DB96BC6
:102D0000184602F0D1FDCFE0194B1B881A469200FD
:102D100013445B009AB2FB8F13449AB2144B1A808F
:102D2000134B1B881846FEF701FEB8633B1DB96BB9
:102D3000184602F0B9FDB7E00D4B1B881A46920009
:102D400013445B009AB2FB8F13449AB2084B1A806B
:102D5000074B1B881846FEF7E9FDB8633B1DB96BAE
:102D6000184602F0A1FD9FE0F80000207C01002041
:102D700070010020720100201400002000000020DB
:102D80006E4B1B881A46920013445B009AB2FB8F6D
:102D900013449AB2694B1A80684B1B881846FEF799
:102DA000C5FDB8633B1DB96B184602F07DFD7BE0A5
:102DB000624B1B881A46920013445B009AB2FB8F49
:102DC00013449BB2013B9AB25C4B1A805B4B1B884D
:102DD0001846FEF7ABFDB8633B1DB96B184602F011
:102DE00063FD61E0554B1B881A46920013445B005B
:102DF0009AB2FB8F13449BB2013B9AB24F4B1A809D
:102E00004E4B1B881846FEF791FDB8633B1DB96B0E
:102E1000184602F049FD47E0484B1B881A469200CD
:102E200013445B009AB2FB8F13449BB2013B9AB2EE
:102E3000424B1A80414B1B881846FEF777FDB8635A
:102E40003B1DB96B184602F02FFD2DE03C4BDBB269
:102E500087F83630394B1B883A4AA2FB0323DB083C
:102E60009AB2364B1A80354B1B881846FEF75EFD2A
:102E7000B8633B1DB96B184602F016FD14E02F4BEA
:102E80001B881A46920013445B009AB22B4B1A809F
:102E90002A4B1B881846FEF749FDB8633B1DB96BEA
:102EA000184602F001FD00BF00230093B423B422B2
:102EB00096213C20FDF756FE4FF6FF730093B42396
:102EC000B42296213C20FDF71EFF3A1D01230293F8
:102ED000182301934FF4784300934FF6FF739B211F
:102EE0000020FEF74DFB00E000BFFB8F0133FB87A6
:102EF000FB8F0D2B7FF690AE1BE0134B1B68022B54
:102F000001D1FFF7FDFB114B1B8B012B11D10E4B98
:102F100001221A60094B00221A800D4B00221A80F0
:102F20000C4B40F2E7321A80FFF706FB0A4B0322F4
:102F30001A6000BF4037BD4680BD00BF7001002051
:102F400010630008CDCCCCCC7C010020F800002020
:102F500072010020000000201400002080B483B023
:102F600000AF00237B60104B5B6C0F4A43F480433F
:102F700053640D4B5B6C03F480437B607B680023E0
:102F80003B60094B1B6C084A43F080531364064BAB
:102F90001B6C03F080533B603B6800BF0C37BD46A1
:102FA0005DF8047B704700BF0038024080B400AF7A
:102FB000FEE780B400AFFEE780B400AFFEE780B468
:102FC00000AFFEE780B400AFFEE780B400AF00BF03
:102FD000BD465DF8047B704780B400AF00BFBD46BE
:102FE0005DF8047B704780B400AF00BFBD465DF85C
:102FF000047B704780B500AF00F042F900BF80BD90
:1030000080B500AF024801F057FF00BF80BD00BF90
:10301000B05F002080B586B000AF7860144A154BD1
:10302000D31A7B617B693B61134B1B68002B02D178
:10303000114B124A1A60104B1A687B6813443A69A4
:103040009A4207D202F0CAFB03460C221A604FF0E4
:10305000FF3309E0084B1B68FB60074B1A687B686D
:103060001344054A1360FB6818461837BD4680BDF7
:103070000000022000040000AC5F0020106000206F
:1030800080B400AF064BD3F88830054A43F4700390
:10309000C2F8883000BFBD465DF8047B704700BFB2
:1030A00000ED00E080B586B000AF07F10803002214
:1030B0001A605A609A60DA603B4600221A605A60D1
:1030C0001D4B4FF080421A601B4B40F247325A6052
:1030D000194B00229A60184B6322DA60164B0022CB
:1030E0001A61154B00229A61134801F025FE034630
:1030F000002B01D0FEF714FC4FF48053BB6007F1A6
:10310000080319460C4801F0DFFF0346002B01D0ED
:10311000FEF706FC00233B6000237B603B4619461C
:10312000054802F0FBF90346002B01D0FEF7F8FB3F
:1031300000BF1837BD4680BDB05F002080B584B0A9
:1031400000AF78607B681B68B3F1804F15D1002316
:10315000FB600C4B1B6C0B4A43F001031364094BDF
:103160001B6C03F00103FB60FB68002200211C20A4
:1031700000F0A5F91C2000F0BEF900BF1037BD46D5
:1031800080BD00BF00380240DFF834D00D480E4942
:103190000E4A002302E0D458C4500433C4188C42B1
:1031A000F9D30B4A0B4C002301E013600432A24216
:1031B000FBD3FFF765FF02F017FBFEF7ABFA704792
:1031C0000000022000000020DC000020189F000802
:1031D000DC0000200C600020FEE7000080B500AF9E
:1031E0000E4B1B680D4A43F4007313600B4B1B68B6
:1031F0000A4A43F480631360084B1B68074A43F490
:1032000080731360032000F04FF90F2000F008F8DE
:10321000FFF7A4FE0023184680BD00BF003C02401B
:1032200080B582B000AF7860124B1A68124B1B78E1
:1032300019464FF47A73B3FBF1F3B2FBF3F318467C
:1032400000F067F90346002B01D001230EE07B68F4
:103250000F2B0AD8002279684FF0FF3000F02FF9C9
:10326000064A7B681360002300E0012318460837F4
:10327000BD4680BD6C00002074000020700000205E
:1032800080B400AF064B1B781A46064B1B681344EC
:10329000044A136000BFBD465DF8047B704700BF61
:1032A00074000020F85F002080B400AF034B1B685F
:1032B0001846BD465DF8047B704700BFF85F0020EC
:1032C00080B584B000AF7860FFF7EEFFB8607B6830
:1032D000FB60FB68B3F1FF3F05D00A4B1B781A4631
:1032E000FB681344FB6000BFFFF7DEFF0246BB68CC
:1032F000D31AFA689A42F7D800BF00BF1037BD460C
:1033000080BD00BF7400002080B485B000AF78603D
:103310007B6803F00703FB600C4BDB68BB60BA689B
:103320004FF6FF031340BB60FB681A02BB681343F0
:1033300043F0BF6343F40033BB60044ABB68D3600F
:1033400000BF1437BD465DF8047B704700ED00E018
:1033500080B400AF044BDB681B0A03F00703184678
:10336000BD465DF8047B704700ED00E080B483B09B
:1033700000AF0346FB7197F90730002B0BDBFB799D
:1033800003F01F02074997F907305B09012000FA93
:1033900002F241F8232000BF0C37BD465DF8047BE4
:1033A000704700BF00E100E080B483B000AF034687
:1033B0003960FB7197F90730002B0ADB3B68DAB202
:1033C0000C4997F907301201D2B20B4483F800235D
:1033D0000AE03B68DAB20849FB7903F00F03043BCB
:1033E0001201D2B20B441A7600BF0C37BD465DF80D
:1033F000047B704700E100E000ED00E080B489B09C
:1034000000AFF860B9607A60FB6803F00703FB6106
:10341000FB69C3F10703042B28BF0423BB61FB69CD
:103420000433062B02D9FB69033B00E000237B61D8
:103430004FF0FF32BB6902FA03F3DA43BB681A406C
:103440007B699A404FF0FF317B6901FA03F3D9435E
:103450007B680B40134318462437BD465DF8047B58
:103460007047000080B582B000AF78607B68013B98
:10347000B3F1807F01D301230FE00A4A7B68013B4F
:1034800053600F214FF0FF30FFF78EFF054B0022F6
:103490009A60044B07221A60002318460837BD467D
:1034A00080BD00BF10E000E080B582B000AF786062
:1034B0007868FFF729FF00BF0837BD4680BD80B59B
:1034C00086B000AF0346B9607A60FB7300237B616E
:1034D000FFF73EFF78617A68B9687869FFF78EFF79
:1034E000024697F90F3011461846FFF75DFF00BFFF
:1034F0001837BD4680BD80B582B000AF0346FB7172
:1035000097F907301846FFF731FF00BF0837BD466F
:1035100080BD80B582B000AF78607868FFF7A2FF09
:10352000034618460837BD4680BD000080B489B008
:1035300000AF7860396000237B6100233B6100238A
:10354000BB610023FB616BE10122FB6902FA03F31B
:103550007B613B681B687A6913403B613A697B6910
:103560009A4240F05A813B685B6803F00303012BE9
:1035700005D03B685B6803F00303022B30D17B6806
:103580009B68BB61FB695B00032202FA03F3DB4328
:10359000BA691340BB613B68DA68FB695B0002FAF9
:1035A00003F3BA691343BB617B68BA699A607B68AD
:1035B0005B68BB610122FB6902FA03F3DB43BA6972
:1035C0001340BB613B685B681B0903F00102FB69A8
:1035D00002FA03F3BA691343BB617B68BA695A60A4
:1035E0003B685B6803F00303032B17D07B68DB6841
:1035F000BB61FB695B00032202FA03F3DB43BA6998
:103600001340BB613B689A68FB695B0002FA03F3F5
:10361000BA691343BB617B68BA69DA603B685B686F
:1036200003F00303022B23D1FB69DA087B6808321D
:1036300053F82230BB61FB6903F007039B000F22A4
:1036400002FA03F3DB43BA691340BB613B681A69B2
:10365000FB6903F007039B0002FA03F3BA69134303
:10366000BB61FB69DA087B680832B96943F822104C
:103670007B681B68BB61FB695B00032202FA03F3F2
:10368000DB43BA691340BB613B685B6803F003022C
:10369000FB695B0002FA03F3BA691343BB617B6801
:1036A000BA691A603B685B6803F44033002B00F092
:1036B000B4800023FB60604B5B6C5F4A43F4804343
:1036C00053645D4B5B6C03F48043FB60FB685B4AB7
:1036D000FB699B08023352F82330BB61FB6903F09E
:1036E00003039B000F2202FA03F3DB43BA69134082
:1036F000BB617B68524A93422BD07B68514A93420C
:1037000025D07B68504A93421FD07B684F4A934232
:1037100019D07B684E4A934213D07B684D4A93423E
:103720000DD07B684C4A934207D07B684B4A93424A
:1037300001D107230EE008230CE006230AE005234D
:1037400008E0042306E0032304E0022302E001234F
:1037500000E00023FA6902F0030292009340BA6984
:103760001343BB613549FB699B080233BA6941F8D1
:1037700023203B4B1B68BB613B69DB43BA691340A9
:10378000BB613B685B6803F48033002B03D0BA69EC
:103790003B691343BB61324ABB691360304B5B68C2
:1037A000BB613B69DB43BA691340BB613B685B6843
:1037B00003F40033002B03D0BA693B691343BB61A8
:1037C000274ABB695360264B9B68BB613B69DB435F
:1037D000BA691340BB613B685B6803F48013002B3C
:1037E00003D0BA693B691343BB611D4ABB6993604F
:1037F0001B4BDB68BB613B69DB43BA691340BB61B0
:103800003B685B6803F40013002B03D0BA693B6983
:103810001343BB61124ABB69D360FB690133FB618F
:10382000FB690F2B7FF690AE00BF00BF2437BD466B
:103830005DF8047B704700BF00380240003801404B
:10384000000002400004024000080240000C024058
:10385000001002400014024000180240001C024008
:10386000003C014080B483B000AF78600B467B80A1
:1038700013467B707B78002B03D07A887B689A6133
:1038800003E07B881A047B689A6100BF0C37BD4651
:103890005DF8047B7047000080B586B000AF7860AB
:1038A0007B68002B01D1012367E27B681B6803F072
:1038B0000103002B75D0884B9B6803F00C03042B8D
:1038C0000CD0854B9B6803F00C03082B12D1824B64
:1038D0005B6803F48003B3F5800F0BD17E4B1B684C
:1038E00003F40033002B5BD07B685B68002B57D15F
:1038F000012342E27B685B68B3F5803F06D1764BDB
:103900001B68754A43F4803313601DE07B685B6875
:10391000B3F5A02F0CD1704B1B686F4A43F4802382
:1039200013606D4B1B686C4A43F4803313600BE0EB
:10393000694B1B68684A23F480331360664B1B682D
:10394000654A23F4802313607B685B68002B13D0E7
:10395000FFF7AAFC386108E0FFF7A6FC02463B69C6
:10396000D31A642B01D9032307E25B4B1B6803F4D2
:103970000033002BF0D014E0FFF796FC386108E02C
:10398000FFF792FC02463B69D31A642B01D903234B
:10399000F3E1514B1B6803F40033002BF0D100E03E
:1039A00000BF7B681B6803F00203002B63D04A4B07
:1039B0009B6803F00C03002B0BD0474B9B6803F074
:1039C0000C03082B1CD1444B5B6803F48003002BD1
:1039D00016D1414B1B6803F00203002B05D07B6816
:1039E000DB68012B01D00123C7E13B4B1B6823F0AF
:1039F000F8027B681B69DB00374913430B603AE030
:103A00007B68DB68002B20D0344B01221A60FFF763
:103A10004BFC386108E0FFF747FC02463B69D31ACC
:103A2000022B01D90323A8E12B4B1B6803F00203EF
:103A3000002BF0D0284B1B6823F0F8027B681B6931
:103A4000DB00254913430B6015E0244B00221A606C
:103A5000FFF72AFC386108E0FFF726FC02463B69C5
:103A6000D31A022B01D9032387E11B4B1B6803F0F8
:103A70000203002BF0D17B681B6803F00803002BC6
:103A800036D07B685B69002B16D0154B01221A607B
:103A9000FFF70AFC386108E0FFF706FC02463B69C5
:103AA000D31A022B01D9032367E10B4B5B6F03F0A1
:103AB0000203002BF0D01BE0094B00221A60FFF735
:103AC000F3FB38610EE0FFF7EFFB02463B69D31AC8
:103AD000022B07D9032350E100380240000047427F
:103AE000800E4742884B5B6F03F00203002BEAD144
:103AF0007B681B6803F00403002B00F09780002311
:103B0000FB75814B1B6C03F08053002B0FD10023FE
:103B1000BB607D4B1B6C7C4A43F0805313647A4B33
:103B20001B6C03F08053BB60BB680123FB75774BB4
:103B30001B6803F48073002B18D1744B1B68734A05
:103B400043F480731360FFF7AFFB386108E0FFF7C1
:103B5000ABFB02463B69D31A022B01D903230CE1CC
:103B60006A4B1B6803F48073002BF0D07B689B6862
:103B7000012B06D1644B1B6F634A43F001031367AB
:103B80001CE07B689B68052B0CD15F4B1B6F5E4A6A
:103B900043F0040313675C4B1B6F5B4A43F0010364
:103BA00013670BE0584B1B6F574A23F00103136751
:103BB000554B1B6F544A23F0040313677B689B68C3
:103BC000002B15D0FFF770FB38610AE0FFF76CFBA4
:103BD00002463B69D31A41F28832934201D903234A
:103BE000CBE0494B1B6F03F00203002BEED014E037
:103BF000FFF75AFB38610AE0FFF756FB02463B69C4
:103C0000D31A41F28832934201D90323B5E03E4BE7
:103C10001B6F03F00203002BEED1FB7D012B05D1BE
:103C2000394B1B6C384A23F0805313647B689B69C3
:103C3000002B00F0A180344B9B6803F00C03082B91
:103C40005CD07B689B69022B41D1314B00221A600A
:103C5000FFF72AFB386108E0FFF726FB02463B69C5
:103C6000D31A022B01D9032387E0274B1B6803F0EB
:103C70000073002BF0D17B68DA697B681B6A1A43FA
:103C80007B685B6A9B011A437B689B6A5B08013B0C
:103C90001B041A437B68DB6A1B061B4913434B60FA
:103CA0001B4B01221A60FFF7FFFA386108E0FFF7AB
:103CB000FBFA02463B69D31A022B01D903235CE0CD
:103CC000114B1B6803F00073002BF0D054E0104B35
:103CD00000221A60FFF7E8FA386108E0FFF7E4FA1B
:103CE00002463B69D31A022B01D9032345E0064B58
:103CF0001B6803F00073002BF0D13DE07B689B69EB
:103D0000012B07D1012338E0003802400070004049
:103D1000600047421B4B5B68FB607B689B69012B23
:103D200028D0FB6803F480027B68DB699A4221D1CA
:103D3000FB6803F03F027B681B6A9A421AD1FA685B
:103D400047F6C07313407A68526A9201934211D1C8
:103D5000FB6803F440327B689B6A5B08013B1B04F1
:103D60009A4207D1FB6803F070627B68DB6A1B062E
:103D70009A4201D0012300E0002318461837BD46BF
:103D800080BD00BF0038024080B584B000AF7860CD
:103D900039607B68002B01D10123CCE0684B1B68A4
:103DA00003F007033A689A420CD9654B3A68D2B2DD
:103DB0001A70634B1B6803F007033A689A4201D0FC
:103DC0000123B8E07B681B6803F00203002B20D0BE
:103DD0007B681B6803F00403002B05D0594B9B68DC
:103DE000584A43F4E05393607B681B6803F0080370
:103DF000002B05D0534B9B68524A43F460439360B9
:103E0000504B9B6823F0F0027B689B684D4913433D
:103E10008B607B681B6803F00103002B44D07B6838
:103E20005B68012B07D1474B1B6803F40033002B61
:103E300019D101237FE07B685B68022B03D07B688C
:103E40005B68032B07D13F4B1B6803F00073002B0B
:103E500009D101236FE03B4B1B6803F00203002BE9
:103E600001D1012367E0374B9B6823F003027B6895
:103E70005B68344913438B60FFF716FAF8600AE079
:103E8000FFF712FA0246FB68D31A41F288329342D6
:103E900001D903234FE02B4B9B6803F00C027B6896
:103EA0005B689B009A42EBD1254B1B6803F007032C
:103EB0003A689A420CD2224B3A68D2B21A70204B1E
:103EC0001B6803F007033A689A4201D0012332E0ED
:103ED0007B681B6803F00403002B08D0194B9B6818
:103EE00023F4E0527B68DB68164913438B607B68E0
:103EF0001B6803F00803002B09D0124B9B6823F4C6
:103F000060427B681B69DB000E4913438B6000F045
:103F100021F802460B4B9B681B0903F00F030A496B
:103F2000CB5C22FA03F3094A1360094B1B6818465D
:103F3000FFF776F9002318461037BD4680BD00BF55
:103F4000003C024000380240C49E00086C00002083
:103F5000700000202DE9B04F94B000AF00237B64C7
:103F60000023FB6400233B640023BB64794B9B6804
:103F700003F00C03082B0DD0082B00F2E180002B7E
:103F800002D0042B03D0DBE0734BBB64DBE0734B4C
:103F9000BB64D8E06F4B5B6803F03F037B646D4B01
:103FA0005B6803F48003002B63D06A4B5B689B095A
:103FB0000022BB63FA63BB6BC3F308033B630023BC
:103FC0007B63D7E90C4522462B464FF000004FF0AB
:103FD0000001590141EAD261500102460B462146D7
:103FE000511A3961294663EB01037B614FF00002EE
:103FF0004FF00003D7E904AB59468B01514643EA21
:10400000916351468A015146B2EB0108594663EB70
:1040100001094FF000024FF000034FEAC90343EAE1
:1040200058734FEAC80290469946234618EB03039B
:10403000BB602B4649EB0303FB604FF000024FF0DF
:104040000003D7E9024529464B02214643EAD153F2
:1040500021464A02104619467B6C0022BB62FA6276
:10406000D7E90A23FCF70CF902460B461346FB641A
:1040700058E0384B5B689B09002218461146C0F394
:1040800008033B6200237B62D7E9088942464B461E
:104090004FF000004FF00001590141EAD261500198
:1040A00002460B464146B2EB010A494663EB010B5F
:1040B0004FF000024FF000034FEA8B1343EA9A637C
:1040C0004FEA8A12B2EB0A0463EB0B054FF00002D1
:1040D0004FF00003EB0043EA5473E20014461D4620
:1040E0004346E3183B604B4645EB03037B604FF0D0
:1040F00000024FF00003D7E9004529468B02214614
:1041000043EA915321468A02104619467B6C0022ED
:10411000BB61FA61D7E90623FCF7B2F802460B4609
:104120001346FB640B4B5B681B0C03F0030301336A
:104130005B003B64FA6C3B6CB2FBF3F3BB6402E0E4
:10414000054BBB6400BFBB6C18465037BD46BDE88D
:10415000B08F00BF003802400024F40000127A0043
:1041600080B582B000AF78607B68002B01D101235D
:104170007BE07B685B6A002B08D17B685B68B3F5EA
:10418000827F09D07B680022DA6105E07B6800222B
:104190001A617B6800225A617B6800229A627B6800
:1041A00093F85130DBB2002B06D17B68002283F8F4
:1041B00050207868FEF778F97B68022283F8512056
:1041C0007B681B681A687B681B6822F040021A60D3
:1041D0007B685B6803F482727B689B6803F404432A
:1041E0001A437B68DB6803F400631A437B681B692E
:1041F00003F002031A437B685B6903F001031A436F
:104200007B689B6903F400731A437B68DB6903F0E6
:1042100038031A437B681B6A03F0800342EA0301F8
:104220007B689B6A03F400527B681B680A431A6030
:104230007B689B691B0C03F004017B685B6A03F0DD
:1042400010027B681B680A435A607B681B68DA6946
:104250007B681B6822F40062DA617B6800225A6581
:104260007B68012283F85120002318460837BD4699
:1042700080BD80B588B000AFF860B9603B60134680
:10428000FB800023FB77FB6893F85030012B01D1B2
:10429000022326E1FB68012283F85020FFF704F88F
:1042A000B861FB88FB82FB6893F85130DBB2012BCD
:1042B00002D00223FB770BE1BB68002B02D0FB8806
:1042C000002B02D10123FB7702E1FB68032283F874
:1042D0005120FB6800225A65FB68BA681A63FB68C4
:1042E000FA889A86FB68FA88DA86FB6800229A6365
:1042F000FB6800229A87FB680022DA87FB680022AD
:104300005A64FB6800221A64FB689B68B3F5004F8F
:104310000FD1FB681B681A68FB681B6822F040021B
:104320001A60FB681B681A68FB681B6842F48042CD
:104330001A60FB681B681B6803F04003402B07D022
:10434000FB681B681A68FB681B6842F040021A6031
:10435000FB68DB68B3F5006F4BD1FB685B68002B33
:1043600002D0FB8A012B3ED1FB681B6B1A88FB68CD
:104370001B68DA60FB681B6B9A1CFB681A63FB689E
:10438000DB8E9BB2013B9AB2FB68DA862BE0FB68BE
:104390001B689B6803F00203022B12D1FB681B6BA6
:1043A0001A88FB681B68DA60FB681B6B9A1CFB6849
:1043B0001A63FB68DB8E9BB2013B9AB2FB68DA861C
:1043C00011E0FEF771FF0246BB69D31A3A689A42C0
:1043D00003D83B68B3F1FF3F02D13B68002B02D109
:1043E0000323FB7774E0FB68DB8E9BB2002BCED1FE
:1043F0004CE0FB685B68002B02D0FB8A012B40D1AC
:10440000FB681A6BFB681B680C3312781A70FB6828
:104410001B6B5A1CFB681A63FB68DB8E9BB2013B6B
:104420009AB2FB68DA862CE0FB681B689B6803F095
:104430000203022B13D1FB681A6BFB681B680C3359
:1044400012781A70FB681B6B5A1CFB681A63FB68B6
:10445000DB8E9BB2013B9AB2FB68DA8611E0FEF775
:1044600023FF0246BB69D31A3A689A4203D83B68D5
:10447000B3F1FF3F02D13B68002B02D10323FB774E
:1044800026E0FB68DB8E9BB2002BCDD1BA69396880
:10449000F86800F0CBFB0346002B02D0FB6820221B
:1044A0005A65FB689B68002B0AD100233B61FB68BF
:1044B0001B68DB683B61FB681B689B683B613B6971
:1044C000FB685B6D002B02D00123FB7700E000BF8F
:1044D000FB68012283F85120FB68002283F85020FA
:1044E000FB7F18462037BD4680BD80B588B002AF3F
:1044F000F860B9603B601346FB800023FB75FB68E6
:104500005B68B3F5827F12D1FB689B68002B0ED1EC
:10451000FB68042283F85120FA883B680093134615
:10452000BA68B968F86800F0F1F80346EAE0FB6899
:1045300093F85030012B01D10223E3E0FB68012204
:1045400083F85020FEF7B0FE3861FB6893F85130D5
:10455000DBB2012B02D00223FB75CAE0BB68002B43
:1045600002D0FB88002B02D10123FB75C1E0FB6860
:10457000042283F85120FB6800225A65FB68BA6860
:104580009A63FB68FA889A87FB68FA88DA87FB687F
:1045900000221A63FB6800229A86FB680022DA86F2
:1045A000FB6800221A64FB6800225A64FB689B685F
:1045B000B3F5004F0FD1FB681B681A68FB681B68D6
:1045C00022F040021A60FB681B681A68FB681B68CF
:1045D00022F480421A60FB681B681B6803F04003EA
:1045E000402B07D0FB681B681A68FB681B6842F009
:1045F00040021A60FB68DB68002B62D12EE0FB688A
:104600001B689B6803F00103012B15D1FB681B6835
:1046100003F10C02FB689B6B1278D2B21A70FB6834
:104620009B6B5A1CFB689A63FB68DB8F9BB2013B58
:104630009AB2FB68DA8711E0FEF736FE02463B6964
:10464000D31A3A689A4203D83B68B3F1FF3F02D1CC
:104650003B68002B02D10323FB754AE0FB68DB8F2C
:104660009BB2002BCBD131E0FB681B689B6803F049
:104670000103012B13D1FB681B68DA68FB689B6B95
:1046800092B21A80FB689B6B9A1CFB689A63FB686A
:10469000DB8F9BB2013B9AB2FB68DA8711E0FEF731
:1046A00003FE02463B69D31A3A689A4203D83B6834
:1046B000B3F1FF3F02D13B68002B02D10323FB750E
:1046C00017E0FB68DB8F9BB2002BCDD13A693968CC
:1046D000F86800F045FA0346002B02D0FB68202260
:1046E0005A65FB685B6D002B02D00123FB7500E06F
:1046F00000BFFB68012283F85120FB68002283F889
:104700005020FB7D18461837BD4680BD80B58CB063
:1047100000AFF860B9607A607B800123FB62002300
:1047200087F82B30FB6893F85030012B01D102231E
:104730008AE1FB68012283F85020FEF7B5FD78621C
:10474000FB6893F8513087F82330FB685B68FB61A6
:104750007B887B8397F82330012B0FD0FB69B3F55F
:10476000827F07D1FB689B68002B03D197F8233029
:10477000042B03D0022387F82B305BE1BB68002BAE
:1047800005D07B68002B02D07B88002B03D101234E
:1047900087F82B304EE1FB6893F85130DBB2042BE5
:1047A00003D0FB68052283F85120FB6800225A657C
:1047B000FB687A689A63FB687A88DA87FB687A888C
:1047C0009A87FB68BA681A63FB687A88DA86FB689E
:1047D0007A889A86FB6800221A64FB6800225A6471
:1047E000FB681B681B6803F04003402B07D0FB6885
:1047F0001B681A68FB681B6842F040021A60FB687D
:10480000DB68B3F5006F78D1FB685B68002B02D0E2
:104810007B8B012B66D1FB681B6B1A88FB681B68BE
:10482000DA60FB681B6B9A1CFB681A63FB68DB8E03
:104830009BB2013B9AB2FB68DA8653E0FB681B68C7
:104840009B6803F00203022B1BD1FB68DB8E9BB23B
:10485000002B16D0FB6A012B13D1FB681B6B1A8847
:10486000FB681B68DA60FB681B6B9A1CFB681A63A9
:10487000FB68DB8E9BB2013B9AB2FB68DA860023B1
:10488000FB62FB681B689B6803F00103012B19D1D5
:10489000FB68DB8F9BB2002B14D0FB681B68DA68C7
:1048A000FB689B6B92B21A80FB689B6B9A1CFB683F
:1048B0009A63FB68DB8F9BB2013B9AB2FB68DA8795
:1048C0000123FB62FEF7F0FC02467B6AD31ABA6B47
:1048D0009A4207D8BB6BB3F1FF3F03D0032387F89D
:1048E0002B30A7E0FB68DB8E9BB2002BA6D1FB68C8
:1048F000DB8F9BB2002BA1D17CE0FB685B68002BB7
:1049000002D07B8B012B6BD1FB681A6BFB681B6899
:104910000C3312781A70FB681B6B5A1CFB681A6305
:10492000FB68DB8E9BB2013B9AB2FB68DA8657E0EC
:10493000FB681B689B6803F00203022B1CD1FB6819
:10494000DB8E9BB2002B17D0FB6A012B14D1FB68C6
:104950001A6BFB681B680C3312781A70FB681B6BB0
:104960005A1CFB681A63FB68DB8E9BB2013B9AB250
:10497000FB68DA860023FB62FB681B689B6803F018
:104980000103012B19D1FB68DB8F9BB2002B14D0E4
:10499000FB681B68DA68FB689B6BD2B21A70FB6815
:1049A0009B6B5A1CFB689A63FB68DB8F9BB2013BD5
:1049B0009AB2FB68DA870123FB62FEF775FC0246B8
:1049C0007B6AD31ABA6B9A4203D8BB6BB3F1FF3F31
:1049D00002D1BB6B002B03D1032387F82B3029E0D6
:1049E000FB68DB8E9BB2002BA2D1FB68DB8F9BB2F6
:1049F000002B9DD17A6AB96BF86800F017F903466D
:104A0000002B06D0012387F82B30FB6820225A6543
:104A100010E0FB689B68002B0BD100237B61FB68D7
:104A20001B68DB687B61FB681B689B687B617B693B
:104A300000E000BFFB68012283F85120FB680022E0
:104A400083F8502097F82B3018463037BD4680BD8C
:104A500080B588B000AFF860B9603B601346FB7169
:104A6000FEF722FC0246BB6A9B1A3A681344FB61BC
:104A7000FEF71AFCB861394B1B685B011B0DFA6924
:104A800002FB03F37B6154E03B68B3F1FF3F50D07E
:104A9000FEF70AFC0246BB69D31AFA699A4202D9A8
:104AA000FB69002B3DD1FB681B685A68FB681B68DB
:104AB00022F0E0025A60FB685B68B3F5827F11D197
:104AC000FB689B68B3F5004F04D0FB689B68B3F5A7
:104AD000806F07D1FB681B681A68FB681B6822F0AF
:104AE00040021A60FB689B6AB3F5005F0FD1FB6858
:104AF0001B681A68FB681B6822F400521A60FB6886
:104B00001B681A68FB681B6842F400521A60FB6855
:104B1000012283F85120FB68002283F850200323F0
:104B200017E07B69002B01D10023FB617B69013B0E
:104B30007B61FB681B689A68BB681340BA689A423D
:104B40000CBF01230023DBB21A46FB799A429BD1AA
:104B5000002318462037BD4680BD00BF6C000020F2
:104B600080B586B002AFF860B9607A60FB685B68B8
:104B7000B3F5827F11D1FB689B68B3F5004F04D079
:104B8000FB689B68B3F5806F07D1FB681B681A68E8
:104B9000FB681B6822F040021A60FB685B68B3F593
:104BA000827F2AD1FB689B68B3F5806F12D07B6847
:104BB0000093BB6800228021F868FFF749FF034695
:104BC000002B2DD0FB685B6D43F02002FB685A651B
:104BD000032326E07B680093BB6800220121F8686C
:104BE000FFF736FF0346002B1AD0FB685B6D43F0DE
:104BF0002002FB685A65032313E07B680093BB68BF
:104C000000220121F868FFF723FF0346002B07D09D
:104C1000FB685B6D43F02002FB685A65032300E0EC
:104C2000002318461037BD4680BD000080B588B00F
:104C300002AFF860B9607A601B4B1B681B4AA2FB8D
:104C400003235B0D4FF47A7202FB03F37B61FB6875
:104C50005B68B3F5827F12D17B680093BB6800224A
:104C60008021F868FFF7F4FE0346002B16D0FB689E
:104C70005B6D43F02002FB685A6503230FE07B69FC
:104C8000002B0AD07B69013B7B61FB681B689B683A
:104C900003F08003802BF2D000E000BF0023184611
:104CA0001837BD4680BD00BF6C000020819F5E1696
:104CB00080B584B000AFF860B9607A60FB68002B03
:104CC00001D1012334E0FB6893F84930DBB2002BBB
:104CD00006D1FB68002283F84820F868FBF790FDB6
:104CE000FB681A68FB6808331946104600F0A6FCFA
:104CF000FB681868FB689B681A46B96800F0F0FC0E
:104D0000FB685868FB689A68FB681B6B796800F061
:104D100025FDFB681B68FA68926853F82210FB684F
:104D20001B68FA68926841F0010143F822100023E1
:104D300018461037BD4680BD80B582B000AF7860A0
:104D40007B68002B01D1012341E07B6893F83D3063
:104D5000DBB2002B06D17B68002283F83C20786808
:104D6000FEF7ECF97B68022283F83D207B681A6825
:104D70007B6804331946104600F096FA7B680122DE
:104D800083F846207B68012283F83E207B6801225D
:104D900083F83F207B68012283F840207B68012252
:104DA00083F841207B68012283F842207B6801223E
:104DB00083F843207B68012283F844207B6801222A
:104DC00083F845207B68012283F83D2000231846A4
:104DD0000837BD4680BD000080B485B000AF786064
:104DE0007B6893F83D30DBB2012B01D001234EE00C
:104DF0007B68022283F83D207B681B68DA687B6849
:104E00001B6842F00102DA607B681B68234A934208
:104E100022D07B681B68B3F1804F1DD07B681B6874
:104E20001F4A934218D07B681B681E4A934213D0D6
:104E30007B681B681C4A93420ED07B681B681B4A28
:104E4000934209D07B681B68194A934204D07B685F
:104E50001B68184A934211D17B681B689B6803F05A
:104E60000703FB60FB68062B10D07B681B681A6881
:104E70007B681B6842F001021A6007E07B681B68D0
:104E80001A687B681B6842F001021A60002318460A
:104E90001437BD465DF8047B704700BF0000014039
:104EA0000004004000080040000C004000040140E5
:104EB000004001400018004080B582B000AF78602B
:104EC0007B681B681B6903F00203022B22D17B68FD
:104ED0001B68DB6803F00203022B1BD17B681B6895
:104EE0006FF002021A617B6801221A777B681B68E7
:104EF0009B6903F00303002B03D0786800F0B5F939
:104F000005E0786800F0A7F9786800F0B8F97B68E8
:104F100000221A777B681B681B6903F00403042BCB
:104F200022D17B681B68DB6803F00403042B1BD1D0
:104F30007B681B686FF004021A617B6802221A7793
:104F40007B681B689B6903F44073002B03D078686F
:104F500000F08BF905E0786800F07DF9786800F0E2
:104F60008EF97B6800221A777B681B681B6903F047
:104F70000803082B22D17B681B68DB6803F0080359
:104F8000082B1BD17B681B686FF008021A617B68D5
:104F900004221A777B681B68DB6903F00303002B8C
:104FA00003D0786800F061F905E0786800F053F903
:104FB000786800F064F97B6800221A777B681B68C8
:104FC0001B6903F01003102B22D17B681B68DB6880
:104FD00003F01003102B1BD17B681B686FF01002CD
:104FE0001A617B6808221A777B681B68DB6903F407
:104FF0004073002B03D0786800F037F905E078683B
:1050000000F029F9786800F03AF97B6800221A77F5
:105010007B681B681B6903F00103012B0ED17B68C1
:105020001B68DB6803F00103012B07D17B681B6859
:105030006FF001021A617868FDF7D6F97B681B688A
:105040001B6903F08003802B0ED17B681B68DB6833
:1050500003F08003802B07D17B681B686FF0800210
:105060001A61786800F0E0FA7B681B681B6903F03E
:105070004003402B0ED17B681B68DB6803F04003C4
:10508000402B07D17B681B686FF040021A6178687B
:1050900000F0FFF87B681B681B6903F02003202BDE
:1050A0000ED17B681B68DB6803F02003202B07D13F
:1050B0007B681B686FF020021A61786800F0AAFA1A
:1050C00000BF0837BD4680BD80B584B000AF7860B2
:1050D00039600023FB737B6893F83C30012B01D1CE
:1050E0000223B4E07B68012283F83C207B68022223
:1050F00083F83D207B681B689B68BB60BB6823F01E
:105100007703BB60BB6823F47F43BB607B681B688D
:10511000BA689A603B681B68B3F5005F3ED0B3F590
:10512000005F00F28780B3F5805F00F08680B3F502
:10513000805F7FD8702B1AD0702B7BD8602B50D01B
:10514000602B77D8502B3CD0502B73D8402B58D0A5
:10515000402B6FD8302B64D0302B6BD8202B60D0F5
:10516000202B67D8002B5CD0102B5AD062E07B68D4
:1051700018683B6899683B685A683B68DB6800F0D0
:10518000ADF97B681B689B68BB60BB6843F0770325
:10519000BB607B681B68BA689A604FE07B681868E0
:1051A0003B6899683B685A683B68DB6800F096F991
:1051B0007B681B689A687B681B6842F480429A602F
:1051C0003CE07B6818683B6859683B68DB681A46B6
:1051D00000F00AF97B681B685021184600F063F95B
:1051E0002CE07B6818683B6859683B68DB681A46A6
:1051F00000F029F97B681B686021184600F053F91C
:105200001CE07B6818683B6859683B68DB681A4695
:1052100000F0EAF87B681B684021184600F043F96B
:105220000CE07B681A683B681B681946104600F062
:105230003AF903E00123FB7300E000BF7B68012221
:1052400083F83D207B68002283F83C20FB7B1846D6
:105250001037BD4680BD80B483B000AF786000BF1A
:105260000C37BD465DF8047B704780B483B000AF57
:10527000786000BF0C37BD465DF8047B704780B492
:1052800083B000AF786000BF0C37BD465DF8047B8B
:10529000704780B483B000AF786000BF0C37BD4664
:1052A0005DF8047B7047000080B485B000AF786083
:1052B00039607B681B68FB607B68404A934213D06F
:1052C0007B68B3F1804F0FD07B683D4A93420BD08F
:1052D0007B683C4A934207D07B683B4A934203D0A9
:1052E0007B683A4A934208D1FB6823F07003FB6065
:1052F0003B685B68FA681343FB607B682F4A934204
:105300002BD07B68B3F1804F27D07B682C4A934227
:1053100023D07B682B4A93421FD07B682A4A934252
:105320001BD07B68294A934217D07B68284A934256
:1053300013D07B68274A93420FD07B68264A93425A
:105340000BD07B68254A934207D07B68244A93425E
:1053500003D07B68234A934208D1FB6823F440734F
:10536000FB603B68DB68FA681343FB60FB6823F073
:1053700080023B685B691343FB607B68FA681A60D4
:105380003B689A687B68DA623B681A687B689A6255
:105390007B680A4A934203D07B680C4A934203D14C
:1053A0003B681A697B681A637B6801225A6100BFF7
:1053B0001437BD465DF8047B704700BF0000014014
:1053C0000004004000080040000C004000040140C0
:1053D00000400140004401400048014000180040E6
:1053E000001C00400020004080B487B000AFF8608F
:1053F000B9607A60FB681B6A7B61FB681B6A23F0FB
:105400000102FB681A62FB689B693B613B6923F000
:10541000F0033B617B681B013A6913433B617B6985
:1054200023F00A037B617A69BB6813437B61FB68E5
:105430003A699A61FB687A691A6200BF1C37BD46F7
:105440005DF8047B704780B487B000AFF860B96046
:105450007A60FB681B6A23F01002FB681A62FB6823
:105460009B697B61FB681B6A3B617B6923F470432A
:105470007B617B681B037A6913437B613B6923F083
:10548000A0033B61BB681B013A6913433B61FB68A6
:105490007A699A61FB683A691A6200BF1C37BD4697
:1054A0005DF8047B704780B485B000AF78603960E8
:1054B0007B689B68FB60FB6823F07003FB603A68C5
:1054C000FB68134343F00703FB607B68FA689A604C
:1054D00000BF1437BD465DF8047B704780B487B0C9
:1054E00000AFF860B9607A603B60FB689B687B61E5
:1054F0007B6923F47F437B613B681A027B681A4314
:10550000BB6813437A6913437B61FB687A699A60CD
:1055100000BF1C37BD465DF8047B704780B485B082
:1055200000AF786039607B6893F83C30012B01D183
:1055300002235AE07B68012283F83C207B68022228
:1055400083F83D207B681B685B68FB607B681B6899
:105550009B68BB60FB6823F07003FB603B681B68C3
:10556000FA681343FB607B681B68FA685A607B68C3
:105570001B68214A934222D07B681B68B3F1804F9D
:105580001DD07B681B681D4A934218D07B681B683E
:105590001B4A934213D07B681B681A4A93420ED071
:1055A0007B681B68184A934209D07B681B68174ABE
:1055B000934204D07B681B68154A93420CD1BB68A8
:1055C00023F08003BB603B685B68BA681343BB6031
:1055D0007B681B68BA689A607B68012283F83D206B
:1055E0007B68002283F83C20002318461437BD4610
:1055F0005DF8047B704700BF0000014000040040DC
:1056000000080040000C0040000401400040014040
:105610000018004080B483B000AF786000BF0C3742
:10562000BD465DF8047B704780B483B000AF7860FE
:1056300000BF0C37BD465DF8047B704780B485B071
:1056400000AF786039600023FB603B681A687B68B4
:1056500053F82230FB60FA68204B1340FB603B6834
:105660005A683B689B681A433B68DB681A433B688F
:105670001B691A433B685B691A433B689B691A4381
:105680003B68DB691A433B681B6A1A433B685B6AE9
:105690001A433B689B6A1A433B68DB6A1A433B68C0
:1056A000DB6B1A433B681B6B1343FA681343FB60C5
:1056B0003B689B68082B03D1FB6843F04003FB6009
:1056C0003B681A687B68F96843F822100023184683
:1056D0001437BD465DF8047B704700BF8000F0FFC3
:1056E00080B487B000AFF860B9607A6000237B6156
:1056F0007B685A1CFB6853F822307B617B6903F09E
:1057000040437B61BB681A68BB685B681B011A4336
:10571000BB689B681B021A43BB68DB681B041A4307
:10572000BB681B69013B1B051A43BB685B69023BF5
:105730001B061A43BB689B6913437A6913437B6159
:105740007B685A1CFB68796943F8221000231846CD
:105750001C37BD465DF8047B7047000080B487B0FD
:1057600000AFF860B9607A603B6000237B613B6802
:10577000B3F5804F22D1FB687A6853F822307B6101
:105780007A69154B13407B61BB681A68BB685B681C
:105790001B011A43BB689B681B021A43BB68DB688A
:1057A0001B041A43BB689B6913437A6913437B61EB
:1057B000FB687A68796943F8221005E0FB687A682B
:1057C0006FF0704143F82210002318461C37BD4685
:1057D0005DF8047B704700BF0000F0CF014B1868F4
:1057E000704700BF7800002070B50D4D0D4C641B54
:1057F000A4100026A64209D10B4D0C4C00F0D0FCA1
:10580000641BA4100026A64205D170BD55F8043BC8
:1058100098470136EEE755F8043B98470136F2E722
:10582000109F0008109F0008109F0008149F000898
:1058300002440346934200D1704703F8011BF9E785
:105840000CB430B5174B0C1E1D689DB008DA8B23C5
:105850002B604FF0FF301DB0BDE8304002B0704704
:105860004FF40273ADF8143014BF04F1FF33234634
:10587000049307934FF6FF7302900690ADF816302D
:10588000209A21AB02A92846019300F039F9431C64
:10589000BCBF8B232B60002CDDD0029B00221A7032
:1058A000D9E700BF7800002010B5024614781346EF
:1058B0000132002CFAD1013B11F8012B03F8012F22
:1058C000002AF9D110BD0000024B0146186800F013
:1058D00003B800BF7800002037B5044608460D46DF
:1058E000FAF776FC421C11462046019200F038F887
:1058F000044618B1019A294600F003F8204603B087
:1059000030BD0A44914200F1FF3300D1704710B519
:1059100011F8014B03F8014F9142F9D110BD00007D
:1059200070B50E4E0C463168054611B900F07CFB8F
:1059300030602146284600F077FB431C0AD0C41C87
:1059400024F00304A04207D0211A284600F06CFB83
:10595000013001D14FF0FF34204670BD00600020BF
:105960002DE9F041CD1C25F0030508350C2D38BF7D
:105970000C25002D074601DBA94205D90C233B600D
:1059800000263046BDE8F0812E4E00F077FB3368EC
:105990001C4634BB29463846FFF7C2FF431C044669
:1059A0004DD134682646002E40D123683146384612
:1059B00004EB030800F038FB80453AD12168033539
:1059C0006D1A25F0030508350C2D38BF0C25294626
:1059D0003846FFF7A5FF01302BD023682B44236006
:1059E0000EE02268521B1ED40B2A16D96119A3425D
:1059F000256018BF5960636808BF316062514B6011
:105A0000384604F10B0600F03FFB26F00706231D85
:105A1000F21AB6D09B1BA350B3E76268A3420CBF37
:105A200032605A60ECE723466468B2E73446766831
:105A3000B9E70C233B60384600F026FBA1E7256060
:105A4000DEE700BFFC5F00202DE9F0478E689E4234
:105A500082460C4690461F4638D88A8912F4906FC9
:105A600032D025680969A5EB0109656905EB450593
:105A700005EBD57501334B446D109D4238BF1D4673
:105A8000530531D52946FFF76BFF064650B90C2365
:105A9000CAF80030A38943F04003A3814FF0FF30E0
:105AA000BDE8F08721694A46FFF72BFFA38923F45D
:105AB000906343F08003A381266165614E44A5EBAA
:105AC00009052660A5603E46BE4200D93E462068D4
:105AD0003246414600F0B8FAA3689B1BA3602368D6
