:020000040800F2
:1000000000000220F16B0008A95B0008AF5B00084C
:10001000B55B0008BB5B0008C15B00080000000086
:10002000000000000000000000000000C75B0008A6
:10003000D55B000800000000E35B0008F15B0008EE
:10004000416C0008416C0008416C0008416C0008DC
:10005000416C0008416C0008416C0008416C0008CC
:10006000416C0008416C0008416C0008416C0008BC
:10007000416C0008416C0008416C0008416C0008AC
:10008000416C0008416C0008416C0008416C00089C
:10009000416C0008416C0008416C0008416C00088C
:1000A000416C0008416C0008416C0008416C00087C
:1000B000FD5B0008416C0008416C0008416C0008C1
:1000C000416C0008416C0008416C0008416C00085C
:1000D000416C0008416C0008115C0008416C00088C
:1000E000416C0008416C0008416C0008416C00083C
:1000F000416C0008416C0008416C0008416C00082C
:10010000416C0008416C0008416C0008416C00081B
:10011000416C0008416C0008416C0008416C00080B
:10012000255C0008416C0008416C0008416C000827
:10013000416C0008416C0008416C0008416C0008EB
:10014000416C0008416C0008416C0008416C0008DB
:10015000416C0008416C0008416C0008416C0008CB
:10016000416C0008416C0008416C0008416C0008BB
:10017000416C0008416C0008416C00080000000060
:08018000416C0008416C00080D
:1001900010B5054C237833B9044B13B10448AFF3C1
:1001A00000800123237010BD10010020000000001A
:1001B000E0CE000808B5034B1BB103490348AFF379
:1001C000008008BD0000000014010020E0CE0008FF
:1001D000034613F8012B002AFBD1181A0138704787
:1001E00001F0FF01102A2BDB10F0070F08D010F8E8
:1001F000013B013A8B422DD010F0070F42B3F6D1EC
:10020000F0B441EA012141EA014122F007047FF004
:1002100000070023F0E80256083C85EA010586EA5B
:10022000010685FA47F5A3FA87F586FA47F6A5FA97
:1002300087F68EB9EED1F0BC01F0FF0102F00702A3
:1002400032B110F8013B013A83EA010313B1F8D14E
:100250000020704701387047002D06BF354603382F
:10026000073815F0010F07D1013015F4807F02BF68
:10027000013015F4C03F0130F0BC0138704700BFB9
:1002800053B94AB9002908BF00281CBF4FF0FF31FD
:100290004FF0FF3000F074B9ADF1080C6DE904CEF9
:1002A00000F006F8DDF804E0DDE9022304B0704751
:1002B0002DE9F047089D04468E46002B4DD18A4219
:1002C000944669D9B2FA82F252B101FA02F3C2F14C
:1002D000200120FA01F10CFA02FC41EA030E9440DD
:1002E0004FEA1C48210CBEFBF8F61FFA8CF708FBFE
:1002F00016E341EA034306FB07F199420AD91CEBD6
:10030000030306F1FF3080F01F81994240F21C8107
:10031000023E63445B1AA4B2B3FBF8F008FB10334F
:1003200044EA034400FB07F7A7420AD91CEB040484
:1003300000F1FF3380F00A81A74240F20781644454
:10034000023840EA0640E41B00261DB1D4400023D9
:10035000C5E900433146BDE8F0878B4209D9002D3D
:1003600000F0EF800026C5E9000130463146BDE8C7
:10037000F087B3FA83F6002E4AD18B4202D3824231
:1003800000F2F980841A61EB030301209E46002DE0
:10039000E0D0C5E9004EDDE702B9FFDEB2FA82F235
:1003A000002A40F09280A1EB0C014FEA1C471FFA93
:1003B0008CFE0126200CB1FBF7F307FB131140EA7A
:1003C00001410EFB03F0884208D91CEB010103F147
:1003D000FF3802D2884200F2CB804346091AA4B209
:1003E000B1FBF7F007FB101144EA01440EFB00FEDD
:1003F000A64508D91CEB040400F1FF3102D2A64542
:1004000000F2BB800846A4EB0E0440EA03409CE7E0
:10041000C6F12007B34022FA07FC4CEA030C20FA8D
:1004200007F401FA06F31C43F9404FEA1C4900FAAD
:1004300006F3B1FBF9F8200C1FFA8CFE09FB18112A
:1004400040EA014108FB0EF0884202FA06F20BD99D
:100450001CEB010108F1FF3A80F08880884240F2ED
:100460008580A8F102086144091AA4B2B1FBF9F031
:1004700009FB101144EA014100FB0EFE8E4508D92C
:100480001CEB010100F1FF346CD28E456AD90238B1
:10049000614440EA0840A0FB0294A1EB0E01A14296
:1004A000C846A64656D353D05DB1B3EB080261EB04
:1004B0000E0101FA07F722FA06F3F1401F43C5E9DE
:1004C000007100263146BDE8F087C2F12003D84014
:1004D0000CFA02FC21FA03F3914001434FEA1C4756
:1004E0001FFA8CFEB3FBF7F007FB10360B0C43EA48
:1004F000064300FB0EF69E4204FA02F408D91CEBF8
:10050000030300F1FF382FD29E422DD902386344F5
:100510009B1B89B2B3FBF7F607FB163341EA034195
:1005200006FB0EF38B4208D91CEB010106F1FF38E4
:1005300016D28B4214D9023E6144C91A46EA0046DB
:1005400038E72E46284605E70646E3E61846F8E66D
:100550004B45A9D2B9EB020864EB0C0E0138A3E7B6
:100560004646EAE7204694E74046D1E7D0467BE797
:10057000023B614432E7304609E76444023842E70F
:10058000704700BF80B584B000AF3B4600221A60C0
:100590005A609A60DA603D4B3D4A1A603B4B00223C
:1005A0005A603A4B00229A60384B01221A61374B4D
:1005B00000221A76354B002283F82020334B00228C
:1005C000DA62324B334A9A62304B0022DA602F4BA8
:1005D0000522DA612D4B002283F830202B4B0122BB
:1005E0005A612A4806F0C4FB0346002B01D002F0F2
:1005F00097FA08233B6001237B600023BB603B46E6
:100600001946224806F026FD0346002B01D002F0D1
:1006100087FA09233B6002237B603B4619461B484F
:1006200006F018FD0346002B01D002F079FA0A23E8
:100630003B6003237B603B461946144806F00AFDE5
:100640000346002B01D002F06BFA0B233B6004231E
:100650007B603B4619460D4806F0FCFC0346002B28
:1006600001D002F05DFA0C233B6005237B603B4622
:100670001946064806F0EEFC0346002B01D002F0B6
:100680004FFA00BF1037BD4680BD00BF2C010020CF
:10069000002001400100000F80B58AB000AF7860F3
:1006A00007F1140300221A605A609A60DA601A6136
:1006B0007B681B683C4A934271D100233B613B4BF2
:1006C0005B6C3A4A43F480735364384B5B6C03F4BD
:1006D00080733B613B690023FB60344B1B6B334AE7
:1006E00043F004031363314B1B6B03F00403FB6003
:1006F000FB680023BB602D4B1B6B2C4A43F00203AD
:1007000013632A4B1B6B03F00203BB60BB68072318
:100710007B610323BB610023FB6107F114031946CE
:10072000234807F04BFC03237B610323BB610023B9
:10073000FB6107F1140319461E4807F03FFC1E4BEE
:100740001E4A1A601C4B00225A601B4B00229A6002
:10075000194B0022DA60184B4FF480621A61164B75
:100760004FF400625A61144B4FF400529A61124BDD
:100770004FF48072DA61104B00221A620E4B002295
:100780005A620D4807F018F80346002B01D002F01A
:10079000C7F97B68084A9A63074A7B68936300BF7E
:1007A0002837BD4680BD00BF002001400038024010
:1007B000000802400004024074010020106402405E
:1007C00090B595B004AF002001F0E0FAB04B1B6883
:1007D00098B2B04B1B6899B2AF4B1B689AB2AF4B43
:1007E0001B689BB2AE4C009401F0DAFC002302932C
:1007F0001823019348F2304300934FF6FF73A94A40
:1008000037213C2001F0A6FEA74A3B4692E80300B0
:10081000186004331980BB1D2C22002118460BF0F0
:10082000D3F8A24B1B88184602F0D2F90346FB63AB
:100830003B46F96B18460BF06FF93A4600230293DA
:100840001823019348F2304300934FF6FF7364215D
:10085000002001F0E3FE002302931823019348F2E5
:10086000304300934FF6FF73914A9621002001F028
:10087000D5FE002302931823019348F230430093DE
:100880004FF6FF738B4AD721142001F063FE4FF619
:10089000FF730093F023C822D221962001F079FB48
:1008A000854B1B88184602F093F90346BB63824BC5
:1008B0001B88772B0ED8012302931823019348F24B
:1008C000304300934FF6FF73BA6BD421A52001F09B
:1008D00041FE0DE0012302931823019348F23043B7
:1008E00000934FF6FF73BA6BD4219D2001F032FEC6
:1008F000714B1B88772B1AD84FF6FF730093DC23BC
:10090000E122DC21CD2001F0C0FA4FF6FF73009305
:10091000D223D722DC21CD2001F0B7FA4FF6FF73A6
:100920000093D223D722DC21E12001F0AEFA624B02
:100930001B881E2B1AD94FF6FF730093E623E12282
:10094000E621CD2001F0A1FA4FF6FF730093F023CA
:10095000D722E621CD2001F098FA4FF6FF730093DD
:10096000F023D722E621E12001F08FFA0023029341
:100970001823019348F2304300934FF6FF734F4A18
:1009800040F20911142001F0E5FD4FF6FF730093CA
:100990004FF49173C8224FF48271962001F0F9FA56
:1009A000474B1B88184602F013F903467B63444B00
:1009B0001B88092B0FD8012302931823019348F2B7
:1009C000304300934FF6FF737A6B40F20911AA206F
:1009D00001F0C0FD0EE0012302931823019348F2B9
:1009E000304300934FF6FF737A6B40F20911A52054
:1009F00001F0B0FD324B1B881D2B20D84FF6FF7342
:100A000000934FF48773E1224FF48771CD2001F0FA
:100A10003CFA4FF6FF7300934FF48273D7224FF4E2
:100A20008771CD2001F031FA4FF6FF7300934FF438
:100A30008273D7224FF48771E12001F026FA204B10
:100A40001B88002B20D04FF6FF7300934FF48C735C
:100A5000E1224FF48C71CD2001F017FA4FF6FF73AD
:100A600000934FF49173D7224FF48C71CD2001F095
:100A70000CFA4FF6FF7300934FF49173D7224FF4A3
:100A80008C71E12001F001FA00BF4437BD4690BDF2
:100A900074000020780000207C00002080000020EE
:100AA000F4030108F8CE000828CF000858020020FF
:100AB00008CF000818CF00080000002020CF000851
:100AC0005C02002080B500AF234BDB88012B0ED1E8
:100AD000224B1B881E339AB2204B1A801F4B1B8857
:100AE000782B02D91D4B78221A80FFF769FE1A4B2A
:100AF000DB89012B0ED1194B1B881E3B9AB2174B79
:100B00001A80164B1B881D2B02D8144B1E221A80EC
:100B1000FFF756FE104BDB8A012B0ED1104B1B88C2
:100B200005339AB20E4B1A800D4B1B881E2B02D92F
:100B30000B4B1E221A80FFF743FE074BDB8B012B6A
:100B400007D1074B1B88053B9AB2054B1A80FFF76C
:100B500037FE00BF80BD00BFD40100200000002090
:100B60005C02002080B582B000AF012208210B4852
:100B700007F0C0FB00237B6007E0094A7B68002187
:100B800022F813107B6801337B607B68052BF4DD52
:100B900000BF00BF0837BD4680BD00BF000C02404B
:100BA000F801002080B584B000AF00220821514830
:100BB00007F0A0FB012208214E4807F09BFB0A2307
:100BC00002224D494D4808F00CFA0023FB604FF417
:100BD00000437B8100237B6083E07B68002B06DB86
:100BE0007B68032B03DC7B680433FB6018E07B68C5
:100BF000032B07DD7B68072B04DC7B68C3F107034D
:100C0000FB600DE07B68072B06DD7B680B2B03DCAC
:100C10007B680433FB6003E07B68C3F11703FB6070
:100C2000354B1A887B8913409BB2002B05D0344A80
:100C3000FB68002122F813104DE0314AFB6832F8BE
:100C40001330013399B22E4AFB6822F81310FB6867
:100C5000053B082B3ED801A252F823F0810C000876
:100C6000D50C0008D50C00088F0C00089D0C00085E
:100C7000AB0C0008D50C0008B90C0008C70C000824
:100C8000204B1B8801339AB21E4B1A8023E01D4B68
:100C90005B8801339AB21B4B5A801CE0194B9B882E
:100CA00001339AB2174B9A8015E0164BDB8801335B
:100CB0009AB2144BDA800EE0124B1B8901339AB2C0
:100CC000104B1A8107E00F4B5B8901339AB20D4B31
:100CD0005A8100E000BF7B895B087B817B68013320
:100CE0007B607B680F2B7FF778AF00BF00BF1037AA
:100CF000BD4680BD000C0240F4010020282A0020DF
:100D0000D4010020F801002080B582B000AF00239C
:100D10007B600C4B1B6B0B4A43F480031363094B42
:100D20001B6B03F480037B607B680022002138206A
:100D300006F00BFD382006F024FD00BF0837BD4645
:100D400080BD00BF0038024080B584B004AF2D4B99
:100D50001B689BB2053399B20023029310230193C1
:100D6000002300934FF6FF73274A002001F056FC42
:100D7000244B1B689BB2143399B2002302931023B7
:100D80000193002300934FF6FF73204A002001F0E7
:100D900045FC1F4B1B689BB2083398B2194B9A68ED
:100DA000184B1B681344DA0F13445B109BB2143BBF
:100DB00099B2012302931023019348F23043009328
:100DC0000023144A01F0C6FB114B1B689BB2083389
:100DD00098B20C4B9A680B4B1B681344DA0F134400
:100DE0005B109BB2193399B2012302931023019334
:100DF00048F2304300930023074A01F0ABFB00BFE9
:100E0000BD4680BD4C0000205CCF000868CF0008C4
:100E10003C00002074CF000878CF000890B587B060
:100E200004AF584B9A68574B1B681344DA0F1344AE
:100E30005B10083B7B60534B9A68524B1B68134412
:100E4000DA0F13445B101C333B604F4B1B68032BC2
:100E500003D0042B00F0A28035E14C4B1B689AB202
:100E60004B4B1B689BB2134498B2464B1B689BB21A
:100E7000233399B2454B5B689AB2454B1B689BB2D2
:100E8000D31A9AB23F4BDB689BB2053B9BB248F248
:100E90003044009400F0ACFF3C4B1B689BB208331D
:100EA00098B2384B9A68374B1B681344DA0F1344D7
:100EB0005B109BB20F3B99B2012302931023019365
:100EC00048F2304300934FF47843324A01F042FB3A
:100ED0002E4B1B689BB2083398B22A4B9A68294B59
:100EE0001B681344DA0F13445B109BB2143399B29E
:100EF000012302931023019348F23043009300230F
:100F0000254A01F027FB214B5B689BB20F3B98B24F
:100F10007B6899B21D4B5B689BB20A3B9AB27B68B7
:100F20009BB2053B9BB20024009400F0AEFF174B30
:100F30005B689BB20F3B98B27B6899B2134B5B68BE
:100F40009BB20A3B9AB27B689BB205339BB20024EA
:100F5000009400F09AFF0D4B5B689BB20A3B98B27D
:100F60007B689BB2053B99B2084B5B689BB20A3B1E
:100F70009AB27B689BB205339BB20024009400F0C8
:100F800084FFA0E04C000020600000203C00002016
:100F90003800002074CF000878CF00084C4B1B6845
:100FA0009AB24C4B1B689BB2134498B24A4B1B68D5
:100FB0009BB2233399B2464B5B689AB2454B1B6890
:100FC0009BB2D31A9AB2444BDB689BB2053B9BB2EF
:100FD00048F23044009400F00BFF3D4B1B689BB27D
:100FE000083398B23C4B9A683B4B1B681344DA0FAA
:100FF00013445B109BB20F3B99B201230293102361
:10100000019348F2304300930023344A01F0A2FADE
:101010002F4B1B689BB2083398B22F4B9A682E4B0C
:101020001B681344DA0F13445B109BB2143399B25C
:10103000012302931023019348F2304300934FF4AD
:101040007843274A01F086FA214B5B689BB20F3B3D
:1010500098B23B6899B21E4B5B689BB20A3B9AB24E
:101060003B689BB2053B9BB20024009400F00DFF4F
:10107000174B5B689BB20F3B98B23B6899B2144B1D
:101080005B689BB20A3B9AB23B689BB205339BB24A
:101090000024009400F0F9FE0D4B5B689BB20A3B04
:1010A00098B23B689BB2053B99B2094B5B689BB217
:1010B0000A3B9AB23B689BB205339BB20024009472
:1010C00000F0E3FE00BF00BF0C37BD4690BD00BF7F
:1010D0003C000020380000204C00002074CF0008A5
:1010E00078CF000880B500AF00F01EF9FFF72CFEA6
:1010F000FFF794FE00BF80BD80B500AF1B4B1B689F
:101100000A2B31D11A4BDB88012B0CD1194B012250
:101110001A60194B1B68032B23D0042B04D1164BE8
:1011200003221A6000E000BF114BDB89012B0DD1B7
:10113000104B01221A60104B1B68032B02D0042BAA
:1011400011D004E00C4B04221A6000E000BF094BF0
:101150001B68012B08D1FFF7C5FF064B00221A6060
:1011600002E000BF00E000BF80BD00BF6C020020B5
:10117000D40100207C0200206000002080B500AF78
:10118000FFF7B0FF00BF80BD80B58EB000AF07F1A4
:101190001C0300221A605A609A60DA601A615A6170
:1011A0009A613B4600221A605A609A60DA601A61BE
:1011B0005A619A612F4B4FF020421A602D4B2E4AF4
:1011C0005A602C4B00229A602A4B0022DA60294B8D
:1011D00000221A61274B10225A61264B00229A6185
:1011E000244B0022DA61234B00221A62214B002299
:1011F0005A62204B4FF480529A621E4B0022DA62F0
:101200001C4B4FF480421A631A4B00225A63194B4D
:1012100000229A63174B00225A640F23FB610F23AD
:101220003B623C237B620023BB621023FB621123E1
:101230003B6300237B6308233B600F237B60092310
:10124000BB600023FB6010233B6111237B61002303
:10125000BB613A4607F11C031946064808F0A4FA98
:101260000346002B01D001F05BFC00BF3837BD46C0
:1012700080BD00BF04020020040100A080B586B03C
:1012800000AF3B1D00221A605A609A60DA601A6152
:101290001C4B1B68002B31D11A4B01221A60002312
:1012A0003B60194B9B6B184A43F001039363164B49
:1012B0009B6B03F001033B603B684FF688737B60D8
:1012C0000223BB600023FB6003233B610C237B6193
:1012D0003B1D19460D4806F071FE4CF2B3737B605E
:1012E0000223BB600023FB6003233B610C237B6173
:1012F0003B1D1946064806F061FE00E000BF1837A6
:10130000BD4680BD5402002000380240001002405B
:10131000000C024080B582B000AF7860FFF7AEFFEE
:1013200000BF0837BD4680BD90B583B002AF384BD3
:101330001B6898B2374B1B6899B2354BDB689CB27F
:10134000344BDB689AB2344B1B689BB2D31A9BB206
:1013500048F230420092224600F04AFD2C4B1B68B6
:1013600098B22C4B1B6899B2294B5B689CB2294BF5
:101370005B689AB2284B1B689BB213449BB2002255
:101380000092224600F034FD214B1B6898B2214B9D
:101390001B6899B21E4B9B689AB21F4B1B689BB28D
:1013A00013449AB21B4B9B689BB20024009400F03C
:1013B0001FFD174B5B689AB2174B1B689BB2D31A81
:1013C00098B2144B5B6899B2114BDB689AB2114B1F
:1013D000DB689BB20024009400F00AFD0C4B9B6874
:1013E00098B20C4B9B689AB20B4B1B689BB2D31AFA
:1013F00099B2074BDB689AB2064BDB689BB20024BC
:10140000009400F0F5FC00BF0437BD4690BD00BF5E
:101410003C0000204C0000203800002080B594B033
:1014200004AF0346FB800023BB6007F10C032E22B0
:10143000002118460AF0C8FAFB88032B16D801A22F
:1014400052F823F0551400085B14000861140008DA
:10145000671400082E4BFB6308E02E4BFB6305E08E
:101460002D4BFB6302E02D4BFB6300BF07F108032C
:10147000F96B18460AF050FB294B1B689BB20A33E4
:1014800099B207F10802002302931023019300236D
:1014900000934FF6FF73002001F0C0F8214B1B684A
:1014A0009BB2083398B21E4B9A681D4B1B681344BD
:1014B000DA0F13445B109BB20F3B99B201230293E6
:1014C0001023019348F2304300930023164A01F0A1
:1014D00041F8144B1B689BB2083398B2104B9A68C2
:1014E0000F4B1B681344DA0F13445B109BB2143389
:1014F00099B2012302931023019348F230430093E1
:1015000000230A4A01F026F800BF4037BD4680BDDF
:101510007CCF000888CF000894CF0008A0CF000837
:101520004C0000203C000020B0CF0008BCCF0008D9
:1015300090B583B002AF114B1B689AB2104B1B6879
:101540009BB2134498B20F4B1B689BB2193399B2EC
:101550000A4B5B689AB20A4B1B689BB2D31A9AB2C9
:10156000084BDB689BB2053B9BB248F230440094C9
:1015700000F03EFC00BF0437BD4690BD3C0000209B
:10158000380000204C00002090B587B004AF874B96
:101590009A68864B1B681344DA0F13445B10083BB0
:1015A0007B60824B9A68814B1B681344DA0F1344AB
:1015B0005B101C333B607E4B1B68002B02D0012B61
:1015C00078D0EFE0FFF7B4FF7A4B1B689BB208338B
:1015D00098B2764B9A68754B1B681344DA0F134424
:1015E0005B109BB20F3B99B201230293102301932E
:1015F00048F2304300934FF478436F4A00F0AAFF5B
:101600006C4B1B689BB2083398B2684B9A68674B67
:101610001B681344DA0F13445B109BB2143399B266
:10162000012302931023019348F2304300930023D7
:10163000624A00F08FFF5F4B5B689BB20F3B98B232
:101640007B6899B25B4B5B689BB20A3B9AB27B6842
:101650009BB2053B9BB20024009400F016FC554B56
:101660005B689BB20F3B98B27B6899B2514B5B6849
:101670009BB20A3B9AB27B689BB205339BB20024B3
:10168000009400F002FC4B4B5B689BB20A3B98B2A3
:101690007B689BB2053B99B2464B5B689BB20A3BA9
:1016A0009AB27B689BB205339BB20024009400F091
:1016B000ECFB77E0FFF73CFF3E4B1B689BB2083327
:1016C00098B23A4B9A68394B1B681344DA0F1344AB
:1016D0005B109BB20F3B99B201230293102301933D
:1016E00048F2304300930023334A00F033FF314B7C
:1016F0001B689BB2083398B22C4B9A682B4B1B6823
:101700001344DA0F13445B109BB2143399B20123D4
:1017100002931023019348F2304300934FF478432F
:10172000264A00F017FF234B5B689BB20F3B98B231
:101730003B6899B21F4B5B689BB20A3B9AB23B680D
:101740009BB2053B9BB20024009400F09EFB194B1A
:101750005B689BB20F3B98B23B6899B2154B5B68D4
:101760009BB20A3B9AB23B689BB205339BB2002402
:10177000009400F08AFB0F4B5B689BB20A3B98B267
:101780003B689BB2053B99B20A4B5B689BB20A3B34
:101790009AB23B689BB205339BB20024009400F0E0
:1017A00074FB00BF00BF0C37BD4690BD4C0000204D
:1017B000600200203C000020B0CF0008BCCF000831
:1017C00080B582B000AF0346FB80FFF7ADFDFB881C
:1017D0001846FFF723FEFFF7D7FE00BF0837BD46C8
:1017E00080BD000080B582B000AF0346FB801B4B7C
:1017F000DB88012B0CD11A4B01221A60194B1B6894
:10180000002B25D0012B04D1164B00221A6000E0DA
:1018100000BF124BDB89012B0DD1114B01221A6045
:10182000104B1B68002B02D0012B13D004E00D4B92
:1018300001221A6000E000BF094B1B68012B0AD18E
:10184000FB881846FFF7BCFF054B00221A6002E038
:1018500000BF00E000BF0837BD4680BDD4010020B6
:101860007402002060020020B0B5A6B000AF0346AD
:10187000FB806B4B1B881A466A4B1B681344694AF2
:101880001360694B1B881A46684B1B681344674AF0
:101890001360674B1B680133654A1360654B07F1A2
:1018A00040040FCB07C4237007F14D0339220021F8
:1018B00018460AF089F8604B1B88184601F088F931
:1018C000C7F8940007F14003D7F8941018460AF0BF
:1018D00023F95A4B07F10C041D460FCD0FC40FCD51
:1018E0000FC495E8030020600434218002340B0CFF
:1018F000237007F1330300221A605A60C3F80720EF
:10190000474B1B88184601F063F9C7F8900007F1B0
:101910000C03D7F8901018460AF0FEF807F10C02F5
:1019200007F14003114618460AF0F6F807F14003A4
:101930001846FEF74DFC03461A4607F140031344D0
:101940003F491A460B461B881380364B1A68384BA2
:101950001B68B2FBF3F39BB2184601F039F9C7F8E4
:101960008C0007F14003D7F88C1018460AF0D4F821
:1019700007F140031846FEF72BFC03461A4607F111
:10198000400313442E491A460B461B881380274BED
:101990001A68274B1B68B2FBF3F39BB2184601F0A1
:1019A00017F9C7F8880007F14003D7F888101846E0
:1019B0000AF0B2F807F140031846FEF709FC0346A7
:1019C0001A4607F1400313441D491A460B461B886B
:1019D000138007F140031846FEF7FAFB03469AB25C
:1019E00007F140031146184604F0D0FE154B0722BC
:1019F0001A600B4B00221A800B4B00221A80124BEC
:101A000000221A60114B01221A60FB881846FFF76A
:101A1000E9FE0F4AFB88138000BF9837BD46B0BD72
:101A20005A02002088020020840200208C0200203C
:101A300090020020C8CF00085802002010D00008F3
:101A4000C4CF00086C020020600200207402002055
:101A50008202002080B58EB000AF07F1240300227F
:101A60001A605A609A60DA601A6100233B62814B07
:101A70001B6B804A43F0100313637E4B1B6B03F018
:101A800010033B623B6A0023FB617A4B1B6B794A74
:101A900043F004031363774B1B6B03F00403FB61F8
:101AA000FB690023BB61734B1B6B724A43F020033D
:101AB0001363704B1B6B03F02003BB61BB690023F6
:101AC0007B616C4B1B6B6B4A43F080031363694B68
:101AD0001B6B03F080037B617B6900233B61654BDB
:101AE0001B6B644A43F001031363624B1B6B03F0EF
:101AF00001033B613B690023FB605E4B1B6B5D4A4E
:101B000043F0020313635B4B1B6B03F00203FB60A8
:101B1000FB680023BB60574B1B6B564A43F008031E
:101B20001363544B1B6B03F00803BB60BB680023BB
:101B30007B60504B1B6B4F4A43F0400313634D4B8C
:101B40001B6B03F040037B607B68002270214A48D6
:101B500006F0D0FB00224FF40051484806F0CAFBC3
:101B600000224FF4C061464806F0C4FB0022402129
:101B7000444806F0BFFB00224FF48071424806F053
:101B8000B9FB00220821414806F0B4FB70237B62B8
:101B90000123BB620023FB6200233B6307F12403A4
:101BA0001946354806F00AFA4FF400537B620123C8
:101BB000BB620023FB6200233B6307F12403194649
:101BC0002E4806F0FBF94FF4C0637B620123BB6231
:101BD0000023FB6200233B6307F1240319462848D6
:101BE00006F0ECF9C0237B620023BB620023FB629A
:101BF00007F124031946244806F0E0F930237B62FC
:101C00000023BB620023FB6207F1240319461B4833
:101C100006F0D4F940237B620123BB620023FB6200
:101C200000233B6307F124031946164806F0C6F962
:101C30004FF480737B620123BB620023FB620023AD
:101C40003B6307F1240319460F4806F0B7F9082350
:101C50007B620123BB620023FB6200233B6307F12D
:101C600024031946094806F0A9F900BF3837BD46D4
:101C700080BD00BF00380240001002400008024052
:101C8000001402400018024000000240000C024014
:101C900080B483B000AF0346FB80044AFB88138006
:101CA00000BF0C37BD465DF8047B7047FEFF0F6038
:101CB00080B483B000AF0346FB80044AFB885380A6
:101CC00000BF0C37BD465DF8047B7047FEFF0F6018
:101CD00080B483B000AF064B5B889BB2FB80FB886F
:101CE0009BB218460C37BD465DF8047B704700BFB9
:101CF000FEFF0F6090B583B000AF04460846114662
:101D00001A462346FB800346BB800B467B80134666
:101D10003B802A20FFF7BCFFFB881B0A9BB21846BA
:101D2000FFF7C6FFFB88DBB29BB21846FFF7C0FF88
:101D30007B881B0A9BB21846FFF7BAFF7B88DBB291
:101D40009BB21846FFF7B4FF2B20FFF7A1FFBB881B
:101D50001B0A9BB21846FFF7ABFFBB88DBB29BB2F6
:101D60001846FFF7A5FF3B881B0A9BB21846FFF7F2
:101D70009FFF3B88DBB29BB21846FFF799FF2C20F0
:101D8000FFF786FF00BF0C37BD4690BD80B584B01D
:101D900000AF0346FB80154B1B88013B9AB2134BE7
:101DA0005B88013B9BB200210020FFF7A3FF0023CB
:101DB000FB8111E00023BB8106E0FB881846FFF79A
:101DC00077FFBB890133BB81084B5B88BA899A4294
:101DD000F3D3FB890133FB81044B1B88FA899A42B8
:101DE000E8D300BF00BF1037BD4680BD940200207D
:101DF00090B585B000AF0446084611461A46234602
:101E0000FB800346BB800B467B8013463B807B8870
:101E1000013B9AB23B88013B9BB2B988F888FFF737
:101E200069FFBB88FB8110E0FB88BB8106E03B8C2F
:101E30001846FFF73DFFBB890133BB81BA897B8818
:101E40009A42F4D3FB890133FB81FA893B889A4299
:101E5000EAD300BF00BF1437BD4690BD80B582B045
:101E600000AF0346FB800B46BB8013467B80BB88DC
:101E7000FA88B988F888FFF73DFF7B881846FFF796
:101E800017FF00BF0837BD4680BD90B58DB000AFCD
:101E90000446084611461A462346FB800346BB808B
:101EA0000B467B8013463B800023BB6200237B6292
:101EB0007A88FB88D31A3B623A88BB88D31AFB61C5
:101EC000FB88FB60BB88BB603B6A002B02DD012303
:101ED0007B610BE03B6A002B02D100237B6105E0B4
:101EE0004FF0FF337B613B6A5B423B62FB69002B37
:101EF00002DD01233B610BE0FB69002B02D10023D3
:101F00003B6105E04FF0FF333B61FB695B42FB61E6
:101F10003A6AFB699A4202DD3B6ABB6101E0FB69F8
:101F2000BB610023FB852BE0FB689BB2BA6891B2D2
:101F3000B7F840201846FFF791FFBA6A3B6A13448E
:101F4000BB627A6AFB6913447B62BA6ABB699A42D4
:101F500007DDBA6ABB69D31ABB62FA687B691344AE
:101F6000FB607A6ABB699A4207DD7A6ABB69D31A59
:101F70007B62BA683B691344BB60FB8D0133FB8510
:101F8000FB8DBA699A42CFDA00BF00BF3437BD4635
:101F900090BD90B585B002AF0446084611461A467A
:101FA0002346FB800346BB800B467B8013463B8069
:101FB000BC887A88B988F8883B8B00932346FFF762
:101FC00064FF3C88FA88B988F8883B8B00932346E5
:101FD000FFF75BFF3C887A883988F8883B8B009351
:101FE0002346FFF752FF3C887A88B98878883B8B74
:101FF00000932346FFF749FF00BF0C37BD4690BD55
:1020000090B587B000AF0446084611461A462346ED
:10201000FB800346BB800B46FB7013463B800023CE
:102020007B75FB883B8297F82C305B08FB73FB7B4E
:10203000DB08DBB21A46FB7B03F00703DBB2002BA5
:1020400014BF01230023DBB213449AB297F82C305B
:102050009BB212FB03F3BB81FB78203BFB70FB7B45
:102060009AB2FB8813449BB2013B9CB297F82C3088
:102070009AB2BB8813449BB2013B9BB2B988F888E3
:102080002246FFF737FE00237B827AE097F82C3058
:102090000C2B28D097F82C30102B08D1FA787B8A9B
:1020A0003C4912010A4413441B78FB751BE097F866
:1020B0002C30182B0BD1FA78798A374813465B00FD
:1020C00013441B0103440B441B78FB750BE097F88A
:1020D0002C30202B5AD1FA787B8A304992010A445D
:1020E00013441B78FB750023BB7544E097F8303030
:1020F000002B20D1FA7DBB7D42FA03F303F00103EC
:10210000002B04D03B881846FFF7D2FD03E03B8D3F
:102110001846FFF7CDFD7B7D01337B757B7DFA7B18
:10212000B3FBF2F101FB02F29B1ADBB2002B1FD1D1
:1021300000237B7522E0FA7DBB7D42FA03F303F0B6
:102140000103002B05D03A88B988FB881846FFF7B1
:1021500085FEFB880133FB80FA883B8AD21AFB7B21
:102160009A4205D13B8AFB80BB880133BB8005E0E6
:10217000BB7D0133BB75BB7D072BB7D97B8A013390
:102180007B827A8ABB899A4280D300E000BF1C37E9
:10219000BD4690BD74D4000864DA000834EC000831
:1021A00090B587B000AF0446084611461A4623464C
:1021B000FB800346BB800B467B8013463B8000239D
:1021C0003B61FA887B8813449BB2013B9CB2BA887E
:1021D0003B8813449BB2013B9BB2B988F8882246E6
:1021E000FFF788FD0023FB8227E00023BB821DE070
:1021F0003B695B00BA6A13441B78FB733B695B0065
:102200000133BA6A13441B78BB73FB7B1B021AB2FF
:10221000BB7B1BB213431BB29BB21846FFF748FDB2
:102220003B6901333B61BB8A0133BB82BA8A3B887D
:102230009A42DDD3FB8A0133FB82FA8A7B889A4279
:10224000D3D300BF00BF1C37BD4690BD80B483B060
:1022500000AF0346FB71FB791B09DBB203F00303FC
:10226000DBB2002B07D00A4B4FF4A0721A80084B48
:10227000F0225A8006E0064BF0221A80044B4FF4FD
:10228000A0725A8000BF0C37BD465DF8047B7047D2
:102290009402002080B500AF00224FF40051AA48FC
:1022A00006F028F84FF4FA7004F03EFD01224FF4D6
:1022B0000051A54806F01EF84FF4FA7004F034FD02
:1022C0000020FFF7C3FFD320FFF7E2FCFFF700FD7C
:1022D00003461A469D4B9A80FFF7FAFC03461A46BE
:1022E0009A4B9A80FFF7F4FC03461A46974B9A8064
:1022F000964B9B881B029AB2944B9A80FFF7E8FC9E
:1023000003461A46914B9B8813439AB28F4B9A808F
:10231000CF20FFF7BDFC0020FFF7CAFCC120FFF76C
:10232000C7FC3020FFF7C4FCED20FFF7B1FC6420B0
:10233000FFF7BEFC0320FFF7BBFC1220FFF7B8FC41
:102340008120FFF7B5FCE820FFF7A2FC8520FFF70E
:10235000AFFC1020FFF7ACFC7A20FFF7A9FCCB20E4
:10236000FFF796FC3920FFF7A3FC2C20FFF7A0FC19
:102370000020FFF79DFC3420FFF79AFC0220FFF7B6
:1023800097FCF720FFF784FC2020FFF791FCEA2060
:10239000FFF77EFC0020FFF78BFC0020FFF788FC96
:1023A000C020FFF775FC1B20FFF782FCC120FFF760
:1023B0006FFC0120FFF77CFCC520FFF769FC302093
:1023C000FFF776FC3020FFF773FCC720FFF760FCB7
:1023D000B720FFF76DFC3620FFF75AFC0820FFF707
:1023E00067FC3A20FFF754FC5520FFF761FCB12051
:1023F000FFF74EFC0020FFF75BFC1A20FFF758FCAC
:10240000B620FFF745FC0A20FFF752FCA220FFF799
:102410004FFCF220FFF73CFC0020FFF749FC262090
:10242000FFF736FC0120FFF743FCE020FFF730FC0C
:102430000F20FFF73DFC2A20FFF73AFC2820FFF78A
:1024400037FC0820FFF734FC0E20FFF731FC082092
:10245000FFF72EFC5420FFF72BFCA920FFF728FCE8
:102460004320FFF725FC0A20FFF722FC0F20FFF78F
:102470001FFC0020FFF71CFC0020FFF719FC0020C8
:10248000FFF716FC0020FFF713FCE120FFF700FC2C
:102490000020FFF70DFC1520FFF70AFC1720FFF7BF
:1024A00007FC0720FFF704FC1120FFF701FC0620C2
:1024B000FFF7FEFB2B20FFF7FBFB5620FFF7F8FB97
:1024C0003C20FFF7F5FB0520FFF7F2FB1020FFF79C
:1024D000EFFB0F20FFF7ECFB3F20FFF7E9FB3F206E
:1024E000FFF7E6FB0F20FFF7E3FB2B20FFF7D0FB06
:1024F0000020FFF7DDFB0020FFF7DAFB0120FFF7EC
:10250000D7FB3F20FFF7D4FB2A20FFF7C1FB0020B9
:10251000FFF7CEFB0020FFF7CBFB0020FFF7C8FB47
:10252000EF20FFF7C5FB1120FFF7B2FB782004F086
:10253000FBFB2920FFF7ACFB01224FF4807104481C
:1025400005F0D8FE00BF80BD0008024094020020C4
:102550000000024090B58BB004AFBA601A46034643
:10256000FB810B46BB811346FB80FB89BB820023AA
:10257000FB7548E0FB7D002B45D1FA89264B1B8873
:10258000194697F82C305B08DBB2CB1A9A423FDC35
:10259000BA89214B5B88194697F82C30CB1A9A429E
:1025A00036DCBB681B78802B02D90123FB752AE03F
:1025B000BB681B780D2B0BD197F82C309AB2BB89D6
:1025C0001344BB81BB8AFB81BB680133BB6017E04E
:1025D000BB681A78FC88B989F88997F8303002937B
:1025E00097F82C3001933B8D00932346FFF708FDAD
:1025F00097F82C305B08DBB29AB2FB891344FB815D
:10260000BB680133BB60BB681B78002BB2D100E014
:1026100000BF1C37BD4690BD9402002080B58AB033
:1026200004AFBA601A460346FB810B46BB811346D2
:10263000FB80B868FDF7CCFD0346FB820F4B1B887F
:102640001A46FB8ADB00D31ADA0F13445B10BB82F5
:10265000FA89BB8A134498B2FA88B98997F8283066
:10266000029397F8243001933B8C00931346BA6889
:10267000FFF770FF00BF1837BD4680BD94020020F1
:1026800080B500AF01224021024805F033FE00BFB3
:1026900080BD00BF0018024080B500AF3F4B1B88D3
:1026A000DBB29AB23D4B1A803D4B1B881A463D4B1C
:1026B0009B5C1B021AB2394B1B881BB213431BB223
:1026C0009AB2364B1A80364B1B88032B46D801A290
:1026D00052F823F0E5260008032700082127000808
:1026E0003F2700082D4B1B8843F0B0039AB22B4BB9
:1026F0001A802A4B1B8823F040039AB2274B1A807A
:102700002DE0264B1B8843F0D0039AB2234B1A804E
:10271000224B1B8823F020039AB2204B1A801EE024
:102720001E4B1B8843F0E0039AB21C4B1A801B4BD4
:102730001B8823F010039AB2184B1A800FE0174B36
:102740001B8843F070039AB2144B1A80134B1B88FA
:1027500023F080039AB2114B1A8000E000BF104BA7
:102760001B8801335A4203F0030302F0030258BFEF
:1027700053429AB20A4B1A80002240210A4805F0BF
:10278000B9FD012302220549084806F0EEFA0122AC
:102790004021054805F0AEFD00BF80BD920000203D
:1027A0009A0200208400002000180240282A0020FD
:1027B00080B485B000AFF860B9601346FB71FB6868
:1027C000002B0EDBFB68092B0BDC094AFB6813446A
:1027D0001A78FB79D31AD9B2064ABB6813440A4661
:1027E0001A7000BF1437BD465DF8047B704700BF08
:1027F000880000208400002080B483B000AF03462E
:10280000FB71FB79012B07D10A4B1B8823F00803CE
:102810009AB2084B1A8006E0064B1B8843F0080367
:102820009AB2044B1A8000BF0C37BD465DF8047B9A
:10283000704700BF9200002080B500AF04F002FA9C
:1028400000F0B6F8FFF706F9FEF75EFA03F0F6FCC3
:1028500002F050FAFEF798FC04F050F9FDF792FEF2
:1028600003F038FD00F00EF94FF6FF70FFF78EFA17
:1028700000F038F9424B1B88002B06D0404B002259
:102880001A80FEF78FF902F0FDFD3E4B1B68032B0B
:1028900007D03C4B1B68042B03D03A4B1B68052B1D
:1028A00026D101F07BFC374B1B68052B08D1364B3A
:1028B0001B88002B04D001F095FD334B00221A80B9
:1028C000324B1B88002B04D0304B00221A8001F0C1
:1028D00039FB2F4B1B88012B10D12E4B1B8801334A
:1028E0009AB22C4B1A804FF47A7002F0EFF805E0A0
:1028F000002002F0EBF8254B00221A80214B1B68C8
:10290000072B04D1244B1B881846FEF76BFF1D4B89
:102910001B68062B01D103F00DFB1A4B1B680A2B19
:1029200001D1FEF7E9FB1D4B1B88012B0BD11B4B83
:1029300000221A80134B07221A600120FEF794FF31
:10294000174B03221A60174B1B88012B0BD1164B18
:102950001B88013B9AB2144B1A8003F095FE4FF48A
:102960007A7002F07BF8114B1B88012B82D100F0AA
:10297000EBF804F017F842F2107002F0DFF879E794
:10298000F82900206C020020162A0020FE290020D1
:102990001C2A00208402002082020020042A002039
:1029A00014000020102A002000000020222A00200D
:1029B00080B594B000AF07F1200330220021184603
:1029C00009F002F807F10C0300221A605A609A60BD
:1029D000DA601A610023BB60284B1B6C274A43F066
:1029E00080531364254B1B6C03F08053BB60BB68A2
:1029F00000237B60224B1B68214A43F48043136011
:102A00001F4B1B6803F480437B607B6802233B629F
:102A10000123FB6210233B630223BB630023FB63A0
:102A200008233B64A8237B640223BB640423FB6468
:102A300007F12003184605F077FC0346002B01D070
:102A400000F06EF80F23FB6002233B6100237B61E3
:102A50004FF4A053BB614FF4A053FB6107F10C038B
:102A60000521184605F0D8FE0346002B01D000F0E2
:102A700057F800BF5037BD4680BD00BF0038024048
:102A80000070004080B500AF00222021144805F0FE
:102A900031FC00224021124805F02CFC00221021BC
:102AA0000F4805F027FC01F093FFFFF7E9FDFEF763
:102AB00059F8FFF7EFFB03F053FE00F037F80A2058
:102AC00002F020F84FF4967001F08CFF4FF4FA609A
:102AD00001F0E0FF42F2107002F030F800BF80BD5C
:102AE0000010024080B584B004AF1F2300931D2363
:102AF0001D2213211320FFF77BF9012302931023DA
:102B000001931F2300934FF47843044A642100206B
:102B1000FFF784FD00BFBD4680BD00BF44D0000864
:102B200080B400AF72B600BFFEE7000080B500AF12
:102B300005220349034804F05FF900BF80BD00BFD0
:102B4000A00200202C01002080B500AF052203491F
:102B5000034804F051F900BF80BD00BFA00200206F
:102B60002C01002080B400AF034B9B881846BD4663
:102B70005DF8047B704700BFA002002080B400AF66
:102B8000034BDB881846BD465DF8047B704700BFE9
:102B9000A002002080B400AF0A4B1B8907EE903AD8
:102BA000F8EE677A9FED087A67EE877A9FED077AED
:102BB000C7EE876AF0EE667AB0EE670ABD465DF84A
:102BC000047B7047A00200200000A54300F07F4571
:102BD00080B590B000AF0346FB80FB8807F10C0086
:102BE000064A322108F064FF07F10C03184608F08A
:102BF000A3FF034618464037BD4680BD54D00008A9
:102C000090B583B002AF0D4B1B6898B20C4B1B689C
:102C100099B20A4B5B689CB2094B5B689AB2094B4C
:102C20001B689BB213449BB2002200922246FFF71E
:102C3000DFF800BF0437BD4690BD00BF180000207C
:102C4000280000203800002090B5A3B004AF034650
:102C50000A46FB801346BB804FF6FF70FFF796F8DD
:102C6000454B5B689AB2454B1B689BB21F21009194
:102C700000210020FFF7BCF80123029310230193E9
:102C80001F2300934FF478433D4A05210020FFF7AE
:102C900061FC3C4A07F13C0392E8030018600433EE
:102CA000197007F141032D220021184608F08CFE0F
:102CB000354B1B881846FFF78BFF786707F13C03FD
:102CC000796F184608F028FF304B1B6898B2304BDC
:102CD0001B6899B207F13C02012302931023019370
:102CE0004FF6FF7300934FF47843FFF733FC294A04
:102CF00007F1080392E8030083E8030007F11003DB
:102D00002A220021184608F05FFE234B1B88184634
:102D1000FFF75EFF386707F10803396F184608F0C0
:102D2000FBFE1E4B1B6898B21D4B1B689BB2053304
:102D300099B207F1080200230293102301931F2385
:102D400000934FF47843FFF705FC164B1B6898B2CD
:102D5000154B1B6899B2154B1B689AB2144B1B6834
:102D60009BB2144C0094FFF71BFAFFF749FF00BF1A
:102D70007C37BD4690BD00BF180000202800002011
:102D800058D0000868D000085802002064000020D5
:102D9000680000209CD000085A0200206C0000202F
:102DA0007000002074000020780000207C000020CB
:102DB00080000020F403010890B5A3B004AF0346DF
:102DC0000A46FB801346BB804FF6FF70FEF7DEFF1E
:102DD000454B5B689AB2454B1B689BB21F21009123
:102DE00000210020FFF704F8012302931023019330
:102DF0001F2300934FF478433D4A05210020FFF73D
:102E0000A9FB3C4A07F13C0392E803001860043335
:102E1000197007F141032D220021184608F0D4FD56
:102E2000354B1B881846FFF7D3FE786707F13C0344
:102E3000796F184608F070FE304B1B6898B2304B23
:102E40001B6899B207F13C020123029310230193FE
:102E50004FF6FF7300934FF47843FFF77BFB294A4B
:102E600007F1080392E8030083E8030007F1100369
:102E70002A220021184608F0A7FD0020FFF7A8FE2F
:102E8000386707F10803396F184608F045FE1E4BF6
:102E90001B6898B21D4B1B689BB2053399B207F1B2
:102EA000080201230293102301934FF6FF7300934E
:102EB0004FF47843FFF74EFB03F0E6FB144B1B681F
:102EC00098B2144B1B6899B2134B1B689AB2134B00
:102ED0001B689BB2124C0094FFF762F9FFF790FE5B
:102EE00000BF7C37BD4690BD1800002028000020A0
:102EF000D0D0000868D000085802002064000020EC
:102F0000680000209CD000086C00002070000020A9
:102F100074000020780000207C0000208000002049
:102F2000F403010890B5A3B004AF03460A46FB8042
:102F30001346BB804FF6FF70FEF728FF454B5B68DA
:102F40009AB2454B1B689BB21F21009100210020C3
:102F5000FEF74EFF01230293102301931F230093DA
:102F60004FF478433D4A05210020FFF7F3FA3C4A2D
:102F700007F13C0392E8030018600433197007F16D
:102F800041032D220021184608F01EFD354B1B88F9
:102F90001846FFF71DFE786707F13C03796F184666
:102FA00008F0BAFD304B1B6898B2304B1B6899B2E1
:102FB00007F13C0201230293102301934FF6FF73A4
:102FC00000934FF47843FFF7C5FA294A07F1080345
:102FD00092E8030083E8030007F110032A2200218E
:102FE000184608F0F1FC0020FFF7F2FD386707F102
:102FF0000803396F184608F08FFD1E4B1B6898B206
:103000001D4B1B689BB2053399B207F108020123DF
:103010000293102301934FF6FF7300934FF478430C
:10302000FFF798FA03F030FB144B1B6898B2144B6F
:103030001B6899B2134B1B689AB2134B1B689BB267
:10304000124C0094FFF7ACF8FFF7DAFD00BF7C37B5
:10305000BD4690BD1800002028000020E0D00008E8
:1030600068D000085802002064000020680000209A
:103070009CD000086C00002070000020740000202C
:10308000780000207C00002080000020F40301086C
:1030900080B594B004AF344B1B68032B2AD1334A5C
:1030A0003B1D92E8030083E8030007F10C032A228A
:1030B0000021184608F088FC2D4B1B881846FFF7A6
:1030C00087FDF8633B1DF96B184608F025FD294B79
:1030D0001B6898B2284B1B689BB2053399B23A1D06
:1030E00000230293102301931F2300934FF478438E
:1030F000FFF730FA1C4B1B68042B03D01A4B1B68DC
:10310000052B2CD1194A3B1D92E8030083E80300EC
:1031100007F10C032A220021184608F055FC144B35
:103120001B881846FFF754FDB8633B1DB96B184662
:1031300008F0F2FC0F4B1B6898B20F4B1B689BB258
:10314000053399B23A1D00230293102301931F23E4
:1031500000934FF47843FFF7FDF903F095FA00BFB1
:103160004037BD4680BD00BF6C0200209CD00008E7
:103170005A0200206C0000207000002090B583B03F
:1031800002AF8F4B9B69032B00F2148101A252F80E
:1031900023F000BF2D330008AD32000825320008AF
:1031A000A5310008864BDB6A98B2854B1B6B99B240
:1031B000834BDB6A9BB209339AB2814B1B6B9BB288
:1031C00009339BB24FF478440094FEF711FE7C4B18
:1031D000DB6A98B27A4B1B6B99B2794BDB6A9BB274
:1031E00004339AB2764B1B6B9BB204339BB2002420
:1031F0000094FEF7FDFD724BDB6A9BB2053398B27B
:103200006F4B1B6B99B26E4BDB6A9BB209339AB260
:103210006B4B1B6B9BB204339BB200240094FEF7F4
:10322000E7FDC8E0664BDB6A98B2654B1B6B99B251
:10323000634BDB6A9BB209339AB2614B1B6B9BB247
:1032400009339BB24FF478440094FEF7D1FD5C4BF8
:10325000DB6A98B25A4B1B6B9BB2053399B2584B41
:10326000DB6A9BB204339AB2554B1B6B9BB209339A
:103270009BB200240094FEF7BBFD514BDB6A9BB26E
:10328000053398B24E4B1B6B9BB2053399B24C4B36
:10329000DB6A9BB209339AB2494B1B6B9BB2093371
:1032A0009BB200240094FEF7A3FD84E0444BDB6A4C
:1032B00098B2434B1B6B99B2414BDB6A9BB209330B
:1032C0009AB23F4B1B6B9BB209339BB24FF47844CD
:1032D0000094FEF78DFD3A4BDB6A98B2384B1B6BBE
:1032E00099B2374BDB6A9BB204339AB2344B1B6BF7
:1032F0009BB204339BB200240094FEF779FD304B5F
:10330000DB6A98B22E4B1B6B9BB2053399B22C4BE8
:10331000DB6A9BB204339AB2294B1B6B9BB2093315
:103320009BB200240094FEF763FD44E0244BDB6A6B
:1033300098B2234B1B6B99B2214BDB6A9BB20933CA
:103340009AB21F4B1B6B9BB209339BB24FF478446C
:103350000094FEF74DFD1A4BDB6A9BB2053398B221
:10336000174B1B6B99B2164BDB6A9BB209339AB2AF
:10337000134B1B6B9BB204339BB200240094FEF7EB
:1033800037FD0F4BDB6A9BB2053398B20C4B1B6BBE
:103390009BB2053399B20A4BDB6A9BB209339AB2EE
:1033A000074B1B6B9BB209339BB200240094FEF7C2
:1033B0001FFD00E000BF00BF0437BD4690BD00BF49
:1033C000B002002090B589B002AF584B9B6A002B29
:1033D00040F0A780554B9B69002B03D1534B5B6892
:1033E00098479FE0514B01229A6100237B6191E055
:1033F0007B69002B28D14D4A7B690533DB001344E0
:1034000007F10C02043393E8030082E80300474A03
:103410007B690533DB0013445B68A3F10A0243496F
:103420007B690533DB000B445A60404A7B690533F6
:10343000DB0013449A683D497B690533DB000B448C
:103440009A60FFF79BFE62E0384A7B690533DB0038
:1034500013443A1D043393E8030082E80300334A1F
:103460007B690533DB001344043307F10C0292E857
:10347000030083E8030007F10C033A1D92E8030000
:1034800083E803007B69012B23D1284A7B6905333C
:10349000DB0013445B6898B2244A7B690533DB0088
:1034A00013449B6899B2214A7B690533DB001344BE
:1034B0005B689BB209339AB21C4C7B690533DB0015
:1034C00023449B689BB209339BB200240094FEF70F
:1034D0008FFC164B5B6A013B7A699A4217D1134BFA
:1034E0001C333A1D92E8030083E803007B6898B21E
:1034F000BB6899B27B689BB209339AB2BB689BB236
:1035000009339BB24FF6FF740094FEF771FC7B69A0
:1035100001337B61054B5B6A7A699A42FFF668AFBB
:1035200000E000BF00BF1C37BD4690BDB0020020C8
:1035300090B589B002AF584B9B6A002B40F0A78032
:10354000554B9B69012B03D1534B1B6898479FE058
:10355000514B00229A6100237B6191E07B69002B33
:1035600028D14D4A7B690533DB00134407F10C0277
:10357000043393E8030082E80300474A7B6905337C
:10358000DB0013445B6803F10A0243497B6905339E
:10359000DB000B445A60404A7B690533DB0013446F
:1035A0009A683D497B690533DB000B449A60FFF75D
:1035B000E5FD62E0384A7B690533DB0013443A1DC0
:1035C000043393E8030082E80300334A7B69053340
:1035D000DB001344043307F10C0292E8030083E894
:1035E000030007F10C033A1D92E8030083E803008F
:1035F0007B69012B23D1284A7B690533DB00134407
:103600005B6898B2244A7B690533DB0013449B68EE
:1036100099B2214A7B690533DB0013445B689BB296
:1036200009339AB21C4C7B690533DB0023449B6849
:103630009BB209339BB200240094FEF7D9FB164BD2
:103640005B6A013B7A699A4217D1134B1C333A1DCE
:1036500092E8030083E803007B6898B2BB6899B2E4
:103660007B689BB209339AB2BB689BB209339BB2A9
:103670004FF6FF740094FEF7BBFB7B6901337B615F
:10368000054B5B6A7A699A42FFF668AF00E000BFBB
:1036900000BF1C37BD4690BDB002002090B589B078
:1036A00002AF584B9B6A002B40F0A780554B9B699B
:1036B000022B03D1534BDB6898479FE0514B032209
:1036C0009A6100237B6191E07B69002B28D14D4AF0
:1036D0007B690533DB00134407F10C02043393E8E4
:1036E000030082E80300474A7B690533DB0013448B
:1036F0005A6844497B690533DB000B445A60414AF0
:103700007B690533DB0013449B68A3F10A023D4942
:103710007B690533DB000B449A60FFF72FFD62E005
:10372000384A7B690533DB0013443A1D043393E8C0
:10373000030082E80300334A7B690533DB0013444E
:10374000043307F10C0292E8030083E8030007F159
:103750000C033A1D92E8030083E803007B69012B08
:1037600023D1284A7B690533DB0013445B6898B298
:10377000244A7B690533DB0013449B6899B2214AD4
:103780007B690533DB0013445B689BB209339AB253
:103790001C4C7B690533DB0023449B689BB20933D7
:1037A0009BB200240094FEF723FB164B5B6A013B9F
:1037B0007A699A4217D1134B1C333A1D92E80300E1
:1037C00083E803007B6898B2BB6899B27B689BB2C0
:1037D00009339AB2BB689BB209339BB24FF6FF74B0
:1037E0000094FEF705FB7B6901337B61054B5B6A47
:1037F0007A699A42FFF668AF00E000BF00BF1C374D
:10380000BD4690BDB002002090B589B002AF584BC4
:103810009B6A002B40F0A780554B9B69032B03D17B
:10382000534B9B6898479FE0514B02229A610023BB
:103830007B6191E07B69002B28D14D4A7B69053380
:10384000DB00134407F10C02043393E8030082E821
:103850000300474A7B690533DB0013445A68444937
:103860007B690533DB000B445A60414A7B690533B1
:10387000DB0013449B6803F10A023D497B69053371
:10388000DB000B449A60FFF779FC62E0384A7B6901
:103890000533DB0013443A1D043393E8030082E848
:1038A0000300334A7B690533DB001344043307F11B
:1038B0000C0292E8030083E8030007F10C033A1DB1
:1038C00092E8030083E803007B69012B23D1284A97
:1038D0007B690533DB0013445B6898B2244A7B693B
:1038E0000533DB0013449B6899B2214A7B69053399
:1038F000DB0013445B689BB209339AB21C4C7B69B2
:103900000533DB0023449B689BB209339BB2002440
:103910000094FEF76DFA164B5B6A013B7A699A4296
:1039200017D1134B1C333A1D92E8030083E80300C0
:103930007B6898B2BB6899B27B689BB209339AB234
:10394000BB689BB209339BB24FF6FF740094FEF73D
:103950004FFA7B6901337B61054B5B6A7A699A4256
:10396000FFF668AF00E000BF00BF1C37BD4690BD4A
:10397000B002002090B587B002AF02F04DFF754B4A
:103980001B689AB2744B1B689BB2134499B24FF6F2
:10399000FF7300934FF4A073F0220020FEF728FA83
:1039A0000023FB602CE0FB68002B02D1FFF7E6FB55
:1039B00023E06A4AFB680533DB0013445B6898B276
:1039C000664AFB680533DB0013449B6899B2634A7F
:1039D000FB680533DB0013445B689BB209339AB282
:1039E0005E4CFB680533DB0023449B689BB20933C4
:1039F0009BB200240094FEF7FBF9FB680133FB60E7
:103A0000564B5B6AFA689A42CDDB0023BB607EE0CE
:103A10005349BA6813465B0013449B000B441B6870
:103A20007B604F49BA6813465B0013449B000B440C
:103A300004331B683B607B6898B23B6899B27B6833
:103A40009BB209339AB23B689BB209339BB24BF6E7
:103A500040440094FEF7CCF94149BA6813465B0034
:103A600013449B000B4408331B68012B26D17B6851
:103A700098B23B689BB20A3399B27B689BB2093318
:103A80009AB23B689BB213339BB24BF6404400940E
:103A9000FEF7AEF97B6898B23B689BB20A3B99B2DD
:103AA0007B689BB209339AB23B689BB2013B9BB2E5
:103AB0004BF640440094FEF79BF925E07B689BB2EF
:103AC0000A3398B23B6899B27B689BB213339AB2BF
:103AD0003B689BB209339BB24BF640440094FEF71F
:103AE00087F97B689BB20A3B98B23B6899B27B68C6
:103AF0009BB2013B9AB23B689BB209339BB24BF637
:103B000040440094FEF774F9BB680133BB60144B6A
:103B100003F58053D3F87037BA689A42FFF678AF4E
:103B2000104B1B6898B2104B1B6899B20D4B1B6869
:103B30009BB209339AB20C4B1B689BB209339BB200
:103B400040F2CF140094FEF753F900BF1437BD467E
:103B500090BD00BF2800002038000020B0020020E7
:103B60007C120020940000209800002080B400AF58
:103B70000C4BDB6A002B0CDB0A4BDB6AE62B08DC08
:103B8000084B1B6B452B04DD064B1B6BB3F59C7F71
:103B900001DD012300E000231846BD465DF8047BEB
:103BA000704700BFB002002080B483B000AF012393
:103BB0007B6018E0124BDA6A11497B680533DB0041
:103BC0000B445B689A420BD10D4B1A6B0C497B6816
:103BD0000533DB000B449B689A4201D1012308E0C6
:103BE0007B6801337B60064B5B6A7A689A42E1DB53
:103BF000002318460C37BD465DF8047B704700BFB4
:103C0000B002002080B400AF094BDA6A094B1B6890
:103C10009A4207D1064B1A6B074B1B689A4201D197
:103C2000012300E000231846BD465DF8047B704781
:103C3000B0020020940000209800002080B483B0DF
:103C400000AF00237B6079E044497A6813465B004B
:103C500013449B000B4408331B68012B36D1404BA7
:103C6000196B3E487A6813465B0013449B0003447B
:103C700004331B680A3B99421AD0394B196B3748F9
:103C80007A6813465B0013449B00034404331B68AB
:103C90000A3399420CD0324B196B30487A6813467C
:103CA0005B0013449B00034404331B68994242D1D8
:103CB0002B4BD96A29487A6813465B0013449B0052
:103CC00003441B68994236D1012341E0244BD96A51
:103CD00022487A6813465B0013449B0003441B6828
:103CE0000A33994218D01E4BD96A1C487A68134689
:103CF0005B0013449B0003441B680A3B99420BD0B2
:103D0000174BD96A15487A6813465B0013449B0029
:103D100003441B6899420ED1114B196B0F487A6806
:103D200013465B0013449B00034404331B68994211
:103D300001D101230CE07B6801337B60074B03F565
:103D40008053D3F870377A689A42FFF67DAF00232C
:103D500018460C37BD465DF8047B70477C12002086
:103D6000B002002090B585B002AFFFF7FFFE03461A
:103D7000002B03D00320FDF777FD65E0FFF714FF6C
:103D80000346002B03D00220FDF76EFD5CE0FFF739
:103D900055FF0346002B03D00020FDF765FD53E0DF
:103DA000FFF730FF0346002B4ED0294B4FF0004267
:103DB0001A60284B4FF000421A60274B5B6A0133B0
:103DC000254A5362244B5B6A013B234AD26922494C
:103DD0000533DB000B445A601F4B5B6A013B1E4AF4
:103DE000126A1D490533DB000B449A601A4B5B6A6B
:103DF000013B194A0533DB0013445B687B60164BBB
:103E00005B6A013B144A0533DB0013449B683B604B
:103E10007B6898B23B6899B27B689BB209339AB2CF
:103E20003B689BB209339BB200240094FDF7E0FF8E
:103E30000A4B01221A600A4B1B8801339AB2084BC5
:103E40001A80FFF725F900BF0C37BD4690BD00BFB3
:103E50009400002098000020B00200209C00002068
:103E60005A02002080B500AF114B9B69032B1BD871
:103E700001A252F823F000BF993E0008A13E0008BD
:103E8000893E0008913E0008094BDB6898470CE02A
:103E9000074B9B68984708E0054B5B68984704E030
:103EA000034B1B68984700E000BF00BF80BD00BF08
:103EB000B002002080B483B000AF00237B601FE01D
:103EC0001F497A6813465B0013449B000B44002291
:103ED0001A601B497A6813465B0013449B000B442D
:103EE000043300221A6016497A6813465B001344B3
:103EF0009B000B44083300221A607B6801337B600F
:103F00007B68B3F5FA7FDBDB0D4B03F580531A4674
:103F10000023C2F870370A4B03F580531A46012379
:103F2000C2F87437064B03F580531A460023C2F8D3
:103F3000783700BF0C37BD465DF8047B704700BF83
:103F40007C12002080B582B002AF3E4B5B89002B13
:103F500006D03D4B9B6898473B4B5B6998476EE0AA
:103F6000384B5B8B002B06D0374BDB689847364BC2
:103F70005B69984763E0334B9B8A002B06D0324B3A
:103F80005B689847304B5B69984758E02D4B1B8A1C
:103F9000002B06D02C4B1B6898472B4B5B6998472E
:103FA0004DE0284B5B8A002B22D0274B9B6A002BCD
:103FB0000CBF01230023DBB21A46234B9A62234B2A
:103FC00003F58053D3F87837002B0CBF012300236F
:103FD000DBB21A461D4B03F58053C3F878271A4B02
:103FE0009B6A184601F0EAFF0346174A936226E0EF
:103FF000144B1B8B002B1CD04FF6FF70FDF7C6FE39
:10400000134B4FF000421A60124B4FF000421A60FF
:1040100000F024F8FFF74EFF4FF478430093462357
:10402000F02200210020FDF7E3FE0B4B01221A6075
:1040300005E0054B1B699847034B5B69984700BF38
:10404000BD4680BDD4010020B00200207C120020BB
:1040500094000020980000209C00002090B585B0BE
:1040600002AF454B1B68184607F0B6FC424B1B6875
:104070000133414A1360414B01221A60404B002238
:104080009A623F4B1422DA623D4B46221A633C4B44
:104090000A225A633A4B46229A63394B0022DA636A
:1040A000374B46221A6403237B6010E0344A7B6856
:1040B0000533DB00134400225A60314A7B68053324
:1040C000DB00134400229A607B6801337B607B68CD
:1040D000B3F5FA7FEADB2A4B2A4ADA60284B2A4AF0
:1040E0001A60274B294A9A60254B294A5A60244B6B
:1040F000284A1A61224B284A5A61214B03225A62EC
:104100001F4B00229A6100233B602CE03B68002B90
:1041100002D1FFF733F823E0194A3B680533DB008F
:1041200013445B6898B2164A3B680533DB001344BE
:104130009B6899B2124A3B680533DB0013445B6805
:104140009BB209339AB20E4C3B680533DB00234423
:104150009B689BB209339BB200240094FDF748FE94
:104160003B6801333B603B68022BCFDD00BF00BFE3
:104170000C37BD4690BD00BFAC0200209C00002063
:10418000B002002009380008C53300089D36000839
:1041900031350008653E0008653D000890B587B0E0
:1041A00002AF894B1B68012B40F009810023FB60A3
:1041B00007F040FC0146854B83FB01239A10CB1787
:1041C000D21A13465B001344DB00CA1A13469B0045
:1041D00013445B001A467E4B1A6007F02BFC014625
:1041E0007C4B83FB0123DA10CB17D21A13469B00BA
:1041F00013449A001344CA1A073213469B0013440F
:104200005B001A46744B1A600023BB6021E0734ABE
:10421000BB680533DB0013445A686D4B1B689A4238
:1042200014D16E4ABB680533DB0013449A686A4BAD
:104230001B689A420AD1664B4FF000421A60664BE7
:104240004FF000421A600123FB6007E0BB680133B6
:10425000BB60624B5B6ABA689A42D8DBFB68002B92
:1042600040F0A98000237B607FE05D497A681346B7
:104270005B0013449B000B4408331B68012B39D1AE
:1042800057497A6813465B0013449B000B44043380
:104290001A68514B1B689A421DD051497A681346DF
:1042A0005B0013449B000B4404331B6803F10A02B8
:1042B000494B1B689A420ED049497A6813465B0005
:1042C00013449B000B4404331B68A3F10A02424BC6
:1042D0001B689A4246D142497A6813465B001344F0
:1042E0009B000B441A683A4B1B689A423AD101234F
:1042F000FB6043E03A497A6813465B0013449B0035
:104300000B441A68324B1B689A421BD034497A68B6
:1043100013465B0013449B000B441B6803F10A0225
:104320002B4B1B689A420DD02D497A6813465B00CF
:1043300013449B000B441B68A3F10A02244B1B6827
:104340009A420FD126497A6813465B0013449B00BA
:104350000B4404331A68204B1B689A4202D1012394
:10436000FB600BE07B6801337B601D4B03F58053E2
:10437000D3F870377A689A42FFF677AFFB68002B64
:104380001BD1134B1B6898B2134B1B6899B2104B8F
:104390001B689BB209339AB20F4B1B689BB209335F
:1043A0009BB240F2CF140094FDF722FD064B002291
:1043B0001A6000BF03E000BFF8E600BFF6E600BFEA
:1043C0001437BD4690BD00BF9C000020ABAAAA2AAE
:1043D000940000201F85EB5198000020B0020020BF
:1043E0007C12002090B58DB002AF9C4B03F580533A
:1043F000D3F870379A4A1288934280F2DE82974B44
:1044000003F58053D3F87837002B40F0D782002390
:104410007B6207F00FFB0246924B83FB021399105D
:10442000D317CB1A162101FB03F3D31A5A1C1346D8
:104430009B0013445B00BB6107F0FCFA01468A4B0A
:1044400083FB01230B441A11CB17D21A13465B00CE
:104450001344DB009B1ACA1A083213469B0013440C
:104460005B007B6100233B62E8E07C493A6A1346CB
:104470005B0013449B000B441B683B6177493A6A1D
:1044800013465B0013449B000B4404331B68FB6022
:10449000724B03F58053D3F87437012B66D16F4903
:1044A0003A6A13465B0013449B000B4408331B68B5
:1044B000012B20D1FB68143B7A699A4213D0FB6828
:1044C00014337A699A420ED0FB680A3B7A699A42A1
:1044D00009D0FB680A337A699A4204D0FA687B698A
:1044E0009A4240F0A8803A69BB699A4240F0A380A2
:1044F00001237B62ABE0FB680A3B7A699A4208D0F1
:10450000FB680A337A699A4203D0FA687B699A4257
:1045100003D13A69BB699A4225D0FB680A3B7A69A4
:104520009A4208D0FB680A337A699A4203D0FA6843
:104530007B699A4204D13B690A3BBA699A4212D01C
:10454000FB680A3B7A699A4208D0FB680A337A69A9
:104550009A4203D0FA687B699A426CD13B690A336C
:10456000BA699A4267D101237B6264E03B493A6AA7
:1045700013465B0013449B000B4408331B68012B5C
:104580003AD13B690A3BBA699A4208D03B690A337F
:10459000BA699A4203D03A69BB699A4203D1FA6870
:1045A0007B699A4225D03B690A3BBA699A4208D096
:1045B0003B690A33BA699A4203D03A69BB699A42A5
:1045C00004D1FB680A3B7A699A4212D03B690A3BE4
:1045D000BA699A4208D03B690A33BA699A4203D051
:1045E0003A69BB699A4226D1FB680A337A699A42D2
:1045F00021D101237B622AE03B69143BBA699A42CC
:1046000012D03B691433BA699A420DD03B690A3320
:10461000BA699A4208D03B690A3BBA699A4203D008
:104620003A69BB699A4206D1FA687B699A4202D11B
:1046300001237B620BE03B6A01333B62074B03F5CE
:104640008053D3F870373A6A9A42FFF60EAF7B6A0E
:10465000002B40F0A8810023FB6149E07C12002080
:104660005C020020E9A28B2EC94216B2604AFB69A7
:104670000533DB0013445B68BB605D4AFB690533AF
:10468000DB0013449B687B605A4B03F58053D3F8DF
:104690007437012B14D1BA69BB689A4225D17A6963
:1046A0007B689A4209D07B690A3B7A689A4204D0B7
:1046B0007B690A337A689A4217D101237B621CE036
:1046C0007A697B689A4210D1BA69BB689A4209D06C
:1046D000BB690A3BBA689A4204D0BB690A33BA681C
:1046E0009A4202D101237B6207E0FB690133FB613F
:1046F0003F4B5B6AFA699A42B8DB7B6A002B40F059
:1047000054813B4B9B69032B42D801A252F823F002
:1047100075470008594700083D4700082147000831
:10472000334BDB6ABA699A4234D1314B1B6B0A3B7B
:104730007A699A422ED101237B622BE02C4BDB6AF3
:10474000BA699A4228D12A4B1B6B0A337A699A427A
:1047500022D101237B621FE0254BDB6A0A3BBA6949
:104760009A421BD1224B1B6B7A699A4216D10123C4
:104770007B6213E01E4BDB6A0A33BA699A420FD19F
:104780001B4B1B6B7A699A420AD101237B6207E0BB
:1047900000BF06E000BF04E000BF02E000BF00E091
:1047A00000BF7B6A002B40F00281124B03F580535F
:1047B000D3F87437012B23D10F4B1B68BA699A4287
:1047C00039D10E4B1B687A699A4200F0F2807B69FE
:1047D000A3F10A02094B1B689A4200F0EA807B6948
:1047E00003F10A02054B1B689A4224D1E1E000BFA5
:1047F000B00200207C1200209400002098000020CD
:10480000704B1B687A699A4215D16F4B1B68BA6965
:104810009A4200F0D080BB69A3F10A026A4B1B6880
:104820009A4200F0C880BB6903F10A02664B1B681C
:104830009A4200F0C080654B03F58053D3F870278F
:10484000624913465B0013449B000B44BA691A602B
:104850005E4B03F58053D3F870275C4913465B0029
:1048600013449B000B4404337A691A60BB6998B205
:104870007B6999B2BB699BB209339AB27B699BB2DF
:1048800009339BB24BF640440094FDF7B1FA4F4B0D
:1048900003F58053D3F87437012B34D1BB6998B238
:1048A0007B699BB20A3399B2BB699BB209339AB256
:1048B0007B699BB213339BB24BF640440094FDF7E7
:1048C00097FABB6998B27B699BB20A3B99B2BB6904
:1048D0009BB209339AB27B699BB2013B9BB24BF608
:1048E00040440094FDF784FA384B03F58053D3F825
:1048F0007027364913465B0013449B000B44083372
:1049000001221A6033E0BB699BB20A3398B27B691B
:1049100099B2BB699BB213339AB27B699BB20933DC
:104920009BB24BF640440094FDF762FABB699BB220
:104930000A3B98B27B6999B2BB699BB2013B9AB2C0
:104940007B699BB209339BB24BF640440094FDF760
:104950004FFA1E4B03F58053D3F870271B491346BB
:104960005B0013449B000B44083300221A60174B72
:1049700003F58053D3F870370133144A02F580529F
:10498000C2F87037114B03F58053D3F87437002BFE
:104990000CBF01230023DBB21A460C4B03F58053F6
:1049A000C3F874270AE000BF31E500BF2FE500BF60
:1049B0002DE500BF2BE500BF29E500BF2C37BD4624
:1049C00090BD00BF98000020940000207C120020C1
:1049D00080B500AF024804F07FFF00BF80BD00BF7C
:1049E000842A002080B483B000AF0346FB80084ACD
:1049F000FB881380064B1A88064B1A80064B002250
:104A00001A8000BF0C37BD465DF8047B704700BFBD
:104A1000022A0020002A0020FE29002080B483B052
:104A200000AF0346FB80FB884FF47A7202FB03F36E
:104A3000074A1360064B1B68064A1360064B0022A8
:104A40001A8000BF0C37BD465DF8047B704700BF7D
:104A50000C2A0020082A0020042A002080B483B0F9
:104A600000AF0346FB80084AFB881380064B1A8878
:104A7000064B1A80064B00221A8000BF0C37BD4639
:104A80005DF8047B704700BF142A0020122A002022
:104A9000102A002080B483B000AF0346FB80084A90
:104AA000FB881380064B1A88064B1A80064B00229F
:104AB0001A8000BF0C37BD465DF8047B704700BF0D
:104AC0001A2A0020182A0020162A002080B483B059
:104AD00000AF0346FB80084AFB881380064B1A8808
:104AE000064B1A80064B00221A8000BF0C37BD46C9
:104AF0005DF8047B704700BF202A00201E2A00209A
:104B00001C2A002080B483B000AF0346FB80084A13
:104B1000FB881380064B1A88064B1A80064B00222E
:104B20001A8000BF0C37BD465DF8047B704700BF9C
:104B3000FC290020FA290020F829002080B483B045
:104B400000AF0346FB80084AFB881380064B1A8897
:104B5000064B1A80064B00221A8000BF0C37BD4658
:104B60005DF8047B704700BF262A0020242A00201D
:104B7000222A002080B582B000AF78607B681B6875
:104B8000B3F1804F40F08C80474B1B88002B10D036
:104B9000454B1B88013B9AB2434B1A80424B1B8802
:104BA000002B06D1414B01221A80414B1A883E4B03
:104BB0001A80404B1B88002B10D03E4B1B88013BBA
:104BC0009AB23C4B1A803B4B1B88002B06D13A4BC8
:104BD00001221A80394B1A88364B1A80384B1B68D1
:104BE000002B0BD0364B1B68013B354A1360344B0E
:104BF0001B68002B02D1334B01221A80324B1B88D9
:104C0000002B0CD0304B1B88013B9AB22E4B1A80E4
:104C10002D4B1B88002B02D12C4B01221A802C4BD0
:104C20001B88002B10D02A4B1B88013B9AB2284BC3
:104C30001A80274B1B88002B06D1264B01221A8095
:104C4000254B1A88224B1A80244B1B88002B10D02E
:104C5000224B1B88013B9AB2204B1A801F4B1B88AA
:104C6000002B06D11E4B01221A801E4B1A881B4BAB
:104C70001A801D4B1B88002B10D01B4B1B88013B3F
:104C80009AB2194B1A80184B1B88002B06D1174B70
:104C900001221A80164B1A88134B1A80FDF7FCFC70
:104CA00000BF0837BD4680BD002A0020FE29002035
:104CB000022A0020FA290020F8290020FC290020DF
:104CC000082A0020042A0020122A0020102A00208E
:104CD000182A0020162A00201A2A00201E2A002046
:104CE0001C2A0020202A0020242A0020222A00201A
:104CF000262A002080B500AF174B184A1A60164BC1
:104D00004FF482725A60144B00229A60124B0022B8
:104D1000DA60114B00221A610F4B00225A610E4BD0
:104D20004FF400729A610C4B0022DA610A4B0022A8
:104D30001A62094B00225A62074B00229A62064B04
:104D40000A22DA62044803F087FF0346002B01D0F1
:104D5000FDF7E6FE00BF80BD282A0020003001409C
:104D600080B58AB000AF786007F1140300221A60A2
:104D70005A609A60DA601A617B681B68194A93422C
:104D80002BD100233B61184B5B6C174A43F48053D3
:104D90005364154B5B6C03F480533B613B69002308
:104DA000FB60114B1B6B104A43F0020313630E4B65
:104DB0001B6B03F00203FB60FB6838237B6102235B
:104DC000BB610023FB6103233B6205237B6207F188
:104DD00014031946054803F0F1F800BF2837BD4613
:104DE00080BD00BF00300140003802400004024096
:104DF00090B593B004AF00233B603B1D2E220021F1
:104E0000184606F0E1FD0020FCF7C0FF324B1B689E
:104E100098B2324B1B6899B2314B1B689AB2314B36
:104E20001B689BB2304C0094FDF7BAF90023029343
:104E30001823019348F2304300934FF6FF732B4A37
:104E400037213C20FDF786FB0023029318230193B2
:104E500048F2304300934FF6FF73254A642128201F
:104E6000FDF778FB4FF6FF730093B423B42296212D
:104E70003C20FDF78EF81F4B1B881846FDF7A8FE57
:104E800078633B46796B184606F046FE3A460123A6
:104E90000293182301934FF4784300934FF6FF7366
:104EA00098210020FDF7BAFB0023029318230193F9
:104EB00048F2304300934FF6FF730F4AE62150202B
:104EC000FDF748FB002300220021002001F0BAFB7F
:104ED00000BF3C37BD4690BD740000207800002024
:104EE0007C00002080000020F4030108F0D00008BE
:104EF00000D100085802002010D1000880B582B00F
:104F000002AF0023009340F24B13DD22BE21B420F8
:104F1000FCF76EFF00BFBD4680BD000090B583B0BA
:104F200002AFFFF7EBFF234B1B6898B2224B1B68C5
:104F300099B2224B1B689AB2214B1B689BB24FF669
:104F4000FF740094FCF7A1FF1C4B1B6898B21C4B2C
:104F50001B6899B2174B1B689CB2194B1B689BB21C
:104F60005B009AB2144B1B689BB2D31A9BB24FF6EC
:104F7000FF7200922246FCF788FF0E4B1B6898B226
:104F80000D4B1B6899B20B4B1B689CB20C4B1B68FA
:104F90009BB25B009AB2084B1B689BB2D31A9BB2C0
:104FA0004FF6FF7200922246FCF76FFF00BF0437F6
:104FB000BD4690BD08000020100000200400002025
:104FC0000C00002080B584B004AF994BDB88012B26
:104FD00017D1984B01221A60974B1B68052B09D0FB
:104FE000052B11DC032B0ED0042B0DD1924B032289
:104FF0001A6009E0904B04221A60904B00221A605C
:1050000002E000BF00E000BF894BDB89012B18D113
:10501000884B01221A60884B1B68052B13D0052B87
:1050200012DC032B02D0042B07D00DE0824B0422AC
:105030001A60824B01221A6006E07F4B05221A603B
:1050400002E000BF00E000BF7A4B1B68012B40F07C
:105050004D81794B1B68052B00F0FC80052B00F37C
:105060004281032B02D0042B4FD03CE1744BD2225F
:105070001A60744BBE221A60002300934FF4A07391
:10508000F022B4210020FCF7B3FE00230293182382
:10509000019348F2304300934FF478436A4AC821A1
:1050A0000A20FDF757FA002302931823019348F2D0
:1050B000304300934FF6FF73644AFA210A20FDF74C
:1050C00049FA4FF6FF7300934FF4967382224FF420
:1050D00096716E20FCF7D9FE4FF6FF7300934FF4E4
:1050E0009B7378224FF496716E20FCF7CEFE4FF63C
:1050F000FF7300934FF4967382224FF49B717820D4
:10510000FCF7C3FEFFF70AFFEDE0002300934FF426
:10511000A073F022B4210020FCF76AFE474B1B6805
:10512000002B3DD1464BD2221A60464BBE221A605C
:10513000002302931823019348F2304300934FF465
:105140007843424AC8210A20FDF704FA002302935B
:105150001823019348F2304300934FF6FF733C4A03
:10516000FA210A20FDF7F6F94FF6FF730093BE23EC
:105170008222BE216E20FCF788FE4FF6FF7300935B
:10518000B4237822BE216E20FCF77FFE4FF6FF731A
:105190000093BE238222B4217820FCF776FE43E000
:1051A000274B4FF482721A60264BF0221A600023BC
:1051B00002931823019348F2304300934FF6FF7394
:1051C000214AC8210A20FDF7C5F9002302931823BC
:1051D000019348F2304300934FF478431B4AFA217D
:1051E0000A20FDF7B7F94FF6FF7300934FF496735B
:1051F00082224FF496716E20FCF747FE4FF6FF7344
:1052000000934FF49B7378224FF496716E20FCF755
:105210003CFE4FF6FF7300934FF4967382224FF4D7
:105220009B717820FCF731FEFFF778FE5BE000BF52
:10523000D401002068020020140000206402002035
:105240000C0000201000002018D1000828D1000810
:1052500038D10008274B4FF482721A60264BF02297
:105260001A60002300934FF4A073F022B4210020B1
:10527000FCF7BEFD002302931823019348F230434C
:1052800000934FF6FF731D4AC8210A20FDF762F90B
:10529000002302931823019348F2304300934FF404
:1052A0007843174AFA210A20FDF754F94FF6FF73A5
:1052B0000093BE238222BE216E20FCF7E6FD4FF64E
:1052C000FF730093B4237822BE216E20FCF7DDFD2E
:1052D0004FF6FF730093BE238222B4217820FCF79F
:1052E000D4FDFFF71BFE074B00221A6000BFBD462E
:1052F00080BD00BF0C0000201000002028D1000855
:1053000038D100086802002090B595B004AF03467C
:10531000FB800020FCF73AFD4E4B1B6898B24E4BC9
:105320001B6899B24D4B1B689AB24D4B1B689BB2E0
:105330004C4C0094FCF734FF002302931823019394
:1053400048F2304300934FF6FF73474A37213C2021
:10535000FDF700F9454A07F1080392E803001860D9
:105360000433198007F10E032C220021184606F0A1
:105370002BFBFB881846FDF72BFCF86307F10803AD
:10538000F96B184606F0C8FB07F1080200230293E8
:105390001823019348F2304300934FF6FF736421C2
:1053A0000020FDF73BF9002302931823019348F2F4
:1053B000304300934FF6FF732D4A96210020FDF7EE
:1053C0002DF9002302931823019348F230430093F0
:1053D0004FF47843274AC8210A20FDF7BBF8002381
:1053E00002931823019348F2304300934FF6FF7362
:1053F000214AFA210A20FDF7ADF8204BD2221A608B
:105400001F4BBE221A60FFF789FD4FF6FF73009312
:105410004FF4967382224FF496716E20FCF735FD9F
:105420004FF6FF7300934FF49B7378224FF49671FD
:105430006E20FCF72AFD4FF6FF7300934FF496732E
:1054400082224FF49B717820FCF71FFD00BF443788
:10545000BD4690BD74000020780000207C00002034
:1054600080000020F4030108F0D0000850D10008AB
:1054700048D1000818D1000828D100080C000020ED
:105480001000002080B594B004AF9D4B9B8B012B86
:1054900040F0BC819B4B1B680A2B00F2B98101A232
:1054A00052F823F0D1540008F75400080F550008B3
:1054B0001158000811580008115800082D5700080D
:1054C0001156000883550008C1550008A15700086F
:1054D0008C4B01221A608C4B00221A808B4B0022CD
:1054E0001A808B4B03221A608A4B40F2E7321A80F3
:1054F000FFF77EFC91E1884B00221A80814B02224B
:105500001A60814B1B881846FFF7FEFE85E1804B31
:105510001B68052B28D0052B00F37C81032B02D0C0
:10552000042B15D076E17D4B03221A60754B0322C4
:105530001A60754B1B88754A128811461846FDF78C
:1055400083FB4FF47A70FFF7C1FAFEF787FD17E08F
:10555000724B04221A606F4B1E221A80694B08227C
:105560001A6000F07BFF0BE06C4B05221A60694B60
:105570001E221A80634B09221A60FBF721F900BF33
:1055800048E1644B1B881846FFF748FA4FF47A70DD
:10559000FFF764FA5F4B1A88614B1A80594B04225B
:1055A0001A60594B1B885B4A128811461846FDF752
:1055B00003FC4FF47A70FFF789FAFEF74FFD2CE1F8
:1055C000544B1B881846FFF729FA4FF47A70FFF7FF
:1055D00045FA4FF4FA60FFF75DFA524B00221A8049
:1055E0004C4B1A884E4B1A80464B05221A60464B8C
:1055F0001B88484A128811461846FDF793FC4FF461
:105600007A70FFF763FAFEF755FCFEF727FD04E119
:10561000454B1B68002B5FD1404B1B68394A136018
:105620003A4B00221A80374B1B68052B30D0052BD4
:1056300000F3F280032B02D0042B0ED0ECE0374BAA
:1056400003221A60304B1B88304A128811461846D4
:10565000FDF7FAFAFEF702FD51E0304B04221A6022
:105660002F4B1A882B4B1A802A4B1B881846FFF7A2
:10567000D5F94FF47A70FFF7F1F9234B1B88254ACF
:10568000128811461846FDF797FBFEF7E7FC36E057
:10569000224B05221A60224B1A881E4B1A801D4B82
:1056A0001B881846FFF7BAF94FF47A70FFF7D6F95E
:1056B0004FF4FA60FFF7EEF91A4B00221A80124BF2
:1056C0001B88144A128811461846FDF72BFCFEF77A
:1056D000C5FCFEF7EFFB12E00A4B01221A600A4BF1
:1056E00000221A80094B00221A80094B03221A60FB
:1056F000084B40F2E7321A80FFF77AFB8CE08BE030
:10570000D40100206C020020580200205A02002020
:1057100014000020000000208402002070020020FD
:1057200080020020162A002060020020AF4B1B6878
:10573000022B22D1AE4B1B68AE4A13604FF47A7035
:10574000FFF7C4F9AB4B1B68042B03D0A94B1B68B4
:10575000052B0FD1A84B1B881846FFF75FF94FF4B4
:105760007A70FFF77BF94FF4FA60FFF793F9A34BD8
:1057700000221A80FEF7FEF84FE09E4B01221A60CD
:105780009F4B00221A809F4B00221A809E4B0322BF
:105790001A60994B40F2E7321A80FFF729FB3CE090
:1057A0009A4B1B68032B12D1924B01221A60944B27
:1057B00000221A80934B00221A80934B03221A6016
:1057C0008D4B40F2E7321A80FFF712FB20E0884B46
:1057D0001B68884A1360874B1B68042B03D0854BDA
:1057E0001B68052B0FD1844B1B881846FFF716F951
:1057F0004FF47A70FFF732F94FF4FA60FFF74AF985
:105800007E4B00221A80FEF7B5F801E000BF04E0ED
:1058100000BF02E000BF00E000BF764B1B68012B19
:1058200040F05F8100237B6007F108032E220021F6
:10583000184606F0C9F8724B1B88FB870023BB870C
:105840004BE1BB8F724A32F81330012B40F042819A
:10585000BB8F0D2B00F21A8101A252F823F000BF7A
:1058600099580008C5580008F1580008D35A000894
:105870001D590008455900086D590008D35A000801
:1058800095590008C1590008155A0008D35A000854
:10589000415A00086B5A0008FB8F1A4692001344C5
:1058A0005B009AB2BB8F13449BB20133FB87FB8F23
:1058B0001846FDF78DF9B8633B1DB96B184606F025
:1058C0002BF9E3E0FB8F1A46920013445B009AB277
:1058D000BB8F13449BB20133FB87FB8F1846FDF748
:1058E00077F9B8633B1DB96B184606F015F9CDE0A2
:1058F000FB8F1A46920013445B009AB2BB8F13448D
:105900009BB20133FB87FB8F1846FDF761F9B86343
:105910003B1DB96B184606F0FFF8B7E0FB8F1A463F
:10592000920013445B009AB2BB8F1344FB87FB8F3A
:105930001846FDF74DF9B8633B1DB96B184606F0E4
:10594000EBF8A3E0FB8F1A46920013445B009AB277
:10595000BB8F1344FB87FB8F1846FDF739F9B863FB
:105960003B1DB96B184606F0D7F88FE0FB8F1A463F
:10597000920013445B009AB2BB8F1344FB87FB8FEA
:105980001846FDF725F9B8633B1DB96B184606F0BC
:10599000C3F87BE0FB8F1A46920013445B009AB277
:1059A000BB8F13449BB2013BFB87FB8F1846FDF76F
:1059B0000FF9B8633B1DB96B184606F0ADF865E00A
:1059C000FB8F1A46920013445B009AB2BB8F1344BC
:1059D0009BB2013BFB87FB8F1846FDF7F9F8B863D4
:1059E0003B1DB96B184606F097F84FE05C000020AD
:1059F000700200206C02002000000020162A002007
:105A0000580200205A0200201400002060000020EC
:105A1000D4010020FB8F1A46920013445B009AB217
:105A2000BB8F13449BB2013BFB87FB8F1846FDF7EE
:105A3000CFF8B8633B1DB96B184606F06DF825E04A
:105A4000404BDBB287F83630FB8F3F4AA2FB032383
:105A5000DB08FB87FB8F1846FDF7BAF8B8633B1DE0
:105A6000B96B184606F058F810E0FB8F1A46920002
:105A700013445B00FB87FB8F1846FDF7A9F8B8635A
:105A80003B1DB96B184606F047F800BF0023009392
:105A9000B423B42296213C20FCF7AAF94FF6FF73F9
:105AA0000093B423B42296213C20FCF772FA3A1DED
:105AB00001230293182301934FF4784300934FF688
:105AC000FF7398210020FCF7A9FD204AFB8F13806B
:105AD00000E000BFBB8F0133BB87BB8F0D2B7FF670
