:020000040800F2
:1000000000000220D164000831570008375700086B
:100010003D570008435700084957000800000000FA
:100020000000000000000000000000004F57000822
:100030005D570008000000006B5700087957000862
:100040002165000821650008216500082165000878
:100050002165000821650008216500082165000868
:100060002165000821650008216500082165000858
:100070002165000821650008216500082165000848
:100080002165000821650008216500082165000838
:100090002165000821650008216500082165000828
:1000A0002165000821650008216500082165000818
:1000B00085570008216500082165000821650008B2
:1000C00021650008216500082165000821650008F8
:1000D000216500082165000899570008216500087E
:1000E00021650008216500082165000821650008D8
:1000F00021650008216500082165000821650008C8
:1001000021650008216500082165000821650008B7
:1001100021650008216500082165000821650008A7
:100120002165000821650008216500082165000897
:100130002165000821650008216500082165000887
:100140002165000821650008216500082165000877
:100150002165000821650008216500082165000867
:100160002165000821650008216500082165000857
:1001700021650008216500082165000800000000D5
:0801800021650008216500085B
:1001900010B5054C237833B9044B13B10448AFF3C1
:1001A00000800123237010BD10010020000000001A
:1001B00024B3000808B5034B1BB103490348AFF350
:1001C000008008BD000000001401002024B30008D6
:1001D000034613F8012B002AFBD1181A0138704787
:1001E00001F0FF01102A2BDB10F0070F08D010F8E8
:1001F000013B013A8B422DD010F0070F42B3F6D1EC
:10020000F0B441EA012141EA014122F007047FF004
:1002100000070023F0E80256083C85EA010586EA5B
:10022000010685FA47F5A3FA87F586FA47F6A5FA97
:1002300087F68EB9EED1F0BC01F0FF0102F00702A3
:1002400032B110F8013B013A83EA010313B1F8D14E
:100250000020704701387047002D06BF354603382F
:10026000073815F0010F07D1013015F4807F02BF68
:10027000013015F4C03F0130F0BC0138704700BFB9
:1002800053B94AB9002908BF00281CBF4FF0FF31FD
:100290004FF0FF3000F074B9ADF1080C6DE904CEF9
:1002A00000F006F8DDF804E0DDE9022304B0704751
:1002B0002DE9F047089D04468E46002B4DD18A4219
:1002C000944669D9B2FA82F252B101FA02F3C2F14C
:1002D000200120FA01F10CFA02FC41EA030E9440DD
:1002E0004FEA1C48210CBEFBF8F61FFA8CF708FBFE
:1002F00016E341EA034306FB07F199420AD91CEBD6
:10030000030306F1FF3080F01F81994240F21C8107
:10031000023E63445B1AA4B2B3FBF8F008FB10334F
:1003200044EA034400FB07F7A7420AD91CEB040484
:1003300000F1FF3380F00A81A74240F20781644454
:10034000023840EA0640E41B00261DB1D4400023D9
:10035000C5E900433146BDE8F0878B4209D9002D3D
:1003600000F0EF800026C5E9000130463146BDE8C7
:10037000F087B3FA83F6002E4AD18B4202D3824231
:1003800000F2F980841A61EB030301209E46002DE0
:10039000E0D0C5E9004EDDE702B9FFDEB2FA82F235
:1003A000002A40F09280A1EB0C014FEA1C471FFA93
:1003B0008CFE0126200CB1FBF7F307FB131140EA7A
:1003C00001410EFB03F0884208D91CEB010103F147
:1003D000FF3802D2884200F2CB804346091AA4B209
:1003E000B1FBF7F007FB101144EA01440EFB00FEDD
:1003F000A64508D91CEB040400F1FF3102D2A64542
:1004000000F2BB800846A4EB0E0440EA03409CE7E0
:10041000C6F12007B34022FA07FC4CEA030C20FA8D
:1004200007F401FA06F31C43F9404FEA1C4900FAAD
:1004300006F3B1FBF9F8200C1FFA8CFE09FB18112A
:1004400040EA014108FB0EF0884202FA06F20BD99D
:100450001CEB010108F1FF3A80F08880884240F2ED
:100460008580A8F102086144091AA4B2B1FBF9F031
:1004700009FB101144EA014100FB0EFE8E4508D92C
:100480001CEB010100F1FF346CD28E456AD90238B1
:10049000614440EA0840A0FB0294A1EB0E01A14296
:1004A000C846A64656D353D05DB1B3EB080261EB04
:1004B0000E0101FA07F722FA06F3F1401F43C5E9DE
:1004C000007100263146BDE8F087C2F12003D84014
:1004D0000CFA02FC21FA03F3914001434FEA1C4756
:1004E0001FFA8CFEB3FBF7F007FB10360B0C43EA48
:1004F000064300FB0EF69E4204FA02F408D91CEBF8
:10050000030300F1FF382FD29E422DD902386344F5
:100510009B1B89B2B3FBF7F607FB163341EA034195
:1005200006FB0EF38B4208D91CEB010106F1FF38E4
:1005300016D28B4214D9023E6144C91A46EA0046DB
:1005400038E72E46284605E70646E3E61846F8E66D
:100550004B45A9D2B9EB020864EB0C0E0138A3E7B6
:100560004646EAE7204694E74046D1E7D0467BE797
:10057000023B614432E7304609E76444023842E70F
:10058000704700BF90B595B004AF002001F066FA47
:10059000B04B1B6898B2B04B1B6899B2AF4B1B684D
:1005A0009AB2AF4B1B689BB2AE4C009401F060FC5A
:1005B000002302931823019348F2304300934FF62F
:1005C000FF73A94A37213C2001F02CFEA74A3B4685
:1005D00092E80300186004331980BB1D2C2200210F
:1005E000184609F013FCA24B1B88184602F0ECF8E1
:1005F0000346FB633B46F96B184609F0AFFC3A46ED
:10060000002302931823019348F2304300934FF6DE
:10061000FF736421002001F069FE00230293182378
:10062000019348F2304300934FF6FF73914A9621AD
:10063000002001F05BFE002302931823019348F28F
:10064000304300934FF6FF738B4AD721142001F0FB
:10065000E9FD4FF6FF730093F023C822D2219620C4
:1006600001F0FFFA854B1B88184602F0ADF80346EF
:10067000BB63824B1B88772B0ED801230293182370
:10068000019348F2304300934FF6FF73BA6BD421C5
:10069000A52001F0C7FD0DE001230293182301936B
:1006A00048F2304300934FF6FF73BA6BD4219D207C
:1006B00001F0B8FD714B1B88772B1AD84FF6FF73EA
:1006C0000093DC23E122DC21CD2001F046FA4FF635
:1006D000FF730093D223D722DC21CD2001F03DFA15
:1006E0004FF6FF730093D223D722DC21E12001F0E3
:1006F00034FA624B1B881E2B1AD94FF6FF730093F6
:10070000E623E122E621CD2001F027FA4FF6FF7320
:100710000093F023D722E621CD2001F01EFA4FF6F8
:10072000FF730093F023D722E621E12001F015FAB0
:10073000002302931823019348F2304300934FF6AD
:10074000FF734F4A40F20911142001F06BFD4FF680
:10075000FF7300934FF49173C8224FF48271962077
:1007600001F07FFA474B1B88184602F02DF803462C
:100770007B63444B1B88092B0FD80123029318235A
:10078000019348F2304300934FF6FF737A6B40F2C7
:100790000911AA2001F046FD0EE00123029318235F
:1007A000019348F2304300934FF6FF737A6B40F2A7
:1007B0000911A52001F036FD324B1B881D2B20D8D6
:1007C0004FF6FF7300934FF48773E1224FF4877164
:1007D000CD2001F0C2F94FF6FF7300934FF48273FE
:1007E000D7224FF48771CD2001F0B7F94FF6FF7390
:1007F00000934FF48273D7224FF48771E12001F008
:10080000ACF9204B1B88002B20D04FF6FF730093D0
:100810004FF48C73E1224FF48C71CD2001F09DF9DF
:100820004FF6FF7300934FF49173D7224FF48C71FE
:10083000CD2001F092F94FF6FF7300934FF49173BE
:10084000D7224FF48C71E12001F087F900BF4437C3
:10085000BD4690BD74000020780000207C00002080
:1008600080000020D0E700083CB300086CB300080B
:10087000A40100204CB300085CB300080000002075
:1008800064B30008A801002080B500AF234BDB88CB
:10089000012B0ED1224B1B881E339AB2204B1A809B
:1008A0001F4B1B88782B02D91D4B78221A80FFF72B
:1008B00069FE1A4BDB89012B0ED1194B1B881E3B9D
:1008C0009AB2174B1A80164B1B881D2B02D8144B5B
:1008D0001E221A80FFF756FE104BDB8A012B0ED129
:1008E000104B1B8805339AB20E4B1A800D4B1B8898
:1008F0001E2B02D90B4B1E221A80FFF743FE074B1B
:10090000DB8B012B07D1074B1B88053B9AB2054BAC
:100910001A80FFF737FE00BF80BD00BF2C0100200A
:1009200000000020A801002080B500AF01220821AE
:10093000024806F0CDF900BF80BD00BF000C0240A8
:1009400080B584B000AF002208212F4806F0C0F91E
:10095000012208212C4806F0BBF90A2302222B4968
:100960002B4807F02CF80023FB604FF400437B81F9
:1009700000237B603FE07B68002B06DB7B68032B5A
:1009800003DC7B680433FB6018E07B68032B07DD26
:100990007B68072B04DC7B68C3F10703FB600DE079
:1009A0007B68072B06DD7B680B2B03DC7B6804333D
:1009B000FB6003E07B68C3F11703FB60134B1A88ED
:1009C0007B8913409BB2002B05D0124AFB680021A3
:1009D00022F8131009E00F4AFB6832F81330013394
:1009E00099B20C4AFB6822F813107B895B087B8163
:1009F0007B6801337B607B680F2BBCDD00BF00BFD1
:100A00001037BD4680BD00BF000C02404C010020E5
:100A1000642900202C01002080B584B004AF2D4B48
:100A20001B689BB2053399B20023029310230193F4
:100A3000002300934FF6FF73274A002001F056FC75
:100A4000244B1B689BB2143399B2002302931023EA
:100A50000193002300934FF6FF73204A002001F01A
:100A600045FC1F4B1B689BB2083398B2194B9A6820
:100A7000184B1B681344DA0F13445B109BB2143BF2
:100A800099B2012302931023019348F2304300935B
:100A90000023144A01F0C6FB114B1B689BB20833BC
:100AA00098B20C4B9A680B4B1B681344DA0F134433
:100AB0005B109BB2193399B2012302931023019367
:100AC00048F2304300930023074A01F0ABFB00BF1C
:100AD000BD4680BD4C000020A0B30008ACB30008A8
:100AE0003C000020B8B30008BCB3000890B587B044
:100AF00004AF584B9A68574B1B681344DA0F1344E2
:100B00005B10083B7B60534B9A68524B1B68134445
:100B1000DA0F13445B101C333B604F4B1B68032BF5
:100B200003D0042B00F0A28035E14C4B1B689AB235
:100B30004B4B1B689BB2134498B2464B1B689BB24D
:100B4000233399B2454B5B689AB2454B1B689BB205
:100B5000D31A9AB23F4BDB689BB2053B9BB248F27B
:100B60003044009400F0ACFF3C4B1B689BB2083350
:100B700098B2384B9A68374B1B681344DA0F13440A
:100B80005B109BB20F3B99B2012302931023019398
:100B900048F2304300934FF47843324A01F042FB6D
:100BA0002E4B1B689BB2083398B22A4B9A68294B8C
:100BB0001B681344DA0F13445B109BB2143399B2D1
:100BC000012302931023019348F230430093002342
:100BD000254A01F027FB214B5B689BB20F3B98B283
:100BE0007B6899B21D4B5B689BB20A3B9AB27B68EB
:100BF0009BB2053B9BB20024009400F0AEFF174B64
:100C00005B689BB20F3B98B27B6899B2134B5B68F1
:100C10009BB20A3B9AB27B689BB205339BB200241D
:100C2000009400F09AFF0D4B5B689BB20A3B98B2B0
:100C30007B689BB2053B99B2084B5B689BB20A3B51
:100C40009AB27B689BB205339BB20024009400F0FB
:100C500084FFA0E04C000020600000203C00002049
:100C600038000020B8B30008BCB300084C4B1B6828
:100C70009AB24C4B1B689BB2134498B24A4B1B6808
:100C80009BB2233399B2464B5B689AB2454B1B68C3
:100C90009BB2D31A9AB2444BDB689BB2053B9BB222
:100CA00048F23044009400F00BFF3D4B1B689BB2B0
:100CB000083398B23C4B9A683B4B1B681344DA0FDD
:100CC00013445B109BB20F3B99B201230293102394
:100CD000019348F2304300930023344A01F0A2FA12
:100CE0002F4B1B689BB2083398B22F4B9A682E4B40
:100CF0001B681344DA0F13445B109BB2143399B290
:100D0000012302931023019348F2304300934FF4E0
:100D10007843274A01F086FA214B5B689BB20F3B70
:100D200098B23B6899B21E4B5B689BB20A3B9AB281
:100D30003B689BB2053B9BB20024009400F00DFF82
:100D4000174B5B689BB20F3B98B23B6899B2144B50
:100D50005B689BB20A3B9AB23B689BB205339BB27D
:100D60000024009400F0F9FE0D4B5B689BB20A3B37
:100D700098B23B689BB2053B99B2094B5B689BB24A
:100D80000A3B9AB23B689BB205339BB200240094A5
:100D900000F0E3FE00BF00BF0C37BD4690BD00BFB2
:100DA0003C000020380000204C000020B8B30008B0
:100DB000BCB3000880B500AF00F01EF9FFF72CFEB1
:100DC000FFF794FE00BF80BD80B500AF1B4B1B68D2
:100DD0000A2B31D11A4BDB88012B0CD1194B012284
:100DE0001A60194B1B68032B23D0042B04D1164B1C
:100DF00003221A6000E000BF114BDB89012B0DD1EB
:100E0000104B01221A60104B1B68032B02D0042BDD
:100E100011D004E00C4B04221A6000E000BF094B23
:100E20001B68012B08D1FFF7C5FF064B00221A6093
:100E300002E000BF00E000BF80BD00BFB80100209D
:100E40002C010020C80100206000002080B500AF08
:100E5000FFF7B0FF00BF80BD80B58EB000AF07F1D7
:100E60001C0300221A605A609A60DA601A615A61A3
:100E70009A613B4600221A605A609A60DA601A61F1
:100E80005A619A612F4B4FF020421A602D4B2E4A27
:100E90005A602C4B00229A602A4B0022DA60294BC0
:100EA00000221A61274B10225A61264B00229A61B8
:100EB000244B0022DA61234B00221A62214B0022CC
:100EC0005A62204B4FF480529A621E4B0022DA6223
:100ED0001C4B4FF480421A631A4B00225A63194B81
:100EE00000229A63174B00225A640F23FB610F23E1
:100EF0003B623C237B620023BB621023FB62112315
:100F00003B6300237B6308233B600F237B60092343
:100F1000BB600023FB6010233B6111237B61002336
:100F2000BB613A4607F11C031946064807F02AF947
:100F30000346002B01D001F041FC00BF3837BD460D
:100F400080BD00BF50010020040100A080B586B024
:100F500000AF3B1D00221A605A609A60DA601A6185
:100F60001C4B1B68002B31D11A4B01221A60002345
:100F70003B60194B9B6B184A43F001039363164B7C
:100F80009B6B03F001033B603B684FF688737B600B
:100F90000223BB600023FB6003233B610C237B61C6
:100FA0003B1D19460D4805F0F7FC4CF2B3737B600E
:100FB0000223BB600023FB6003233B610C237B61A6
:100FC0003B1D1946064805F0E7FC00E000BF183756
:100FD000BD4680BDA0010020003802400010024044
:100FE000000C024080B582B000AF7860FFF7AEFF22
:100FF00000BF0837BD4680BD90B583B002AF384B07
:101000001B6898B2374B1B6899B2354BDB689CB2B2
:10101000344BDB689AB2344B1B689BB2D31A9BB239
:1010200048F230420092224600F04AFD2C4B1B68E9
:1010300098B22C4B1B6899B2294B5B689CB2294B28
:101040005B689AB2284B1B689BB213449BB2002288
:101050000092224600F034FD214B1B6898B2214BD0
:101060001B6899B21E4B9B689AB21F4B1B689BB2C0
:1010700013449AB21B4B9B689BB20024009400F06F
:101080001FFD174B5B689AB2174B1B689BB2D31AB4
:1010900098B2144B5B6899B2114BDB689AB2114B52
:1010A000DB689BB20024009400F00AFD0C4B9B68A7
:1010B00098B20C4B9B689AB20B4B1B689BB2D31A2D
:1010C00099B2074BDB689AB2064BDB689BB20024EF
:1010D000009400F0F5FC00BF0437BD4690BD00BF92
:1010E0003C0000204C0000203800002080B594B067
:1010F00004AF0346FB800023BB6007F10C032E22E4
:101100000021184608F082FEFB88032B16D801A2A6
:1011100052F823F0251100082B11000831110008A6
:10112000371100082E4BFB6308E02E4BFB6305E0F4
:101130002D4BFB6302E02D4BFB6300BF07F108035F
:10114000F96B184608F00AFF294B1B689BB20A335B
:1011500099B207F1080200230293102301930023A0
:1011600000934FF6FF73002001F0C0F8214B1B687D
:101170009BB2083398B21E4B9A681D4B1B681344F0
:10118000DA0F13445B109BB20F3B99B20123029319
:101190001023019348F2304300930023164A01F0D4
:1011A00041F8144B1B689BB2083398B2104B9A68F5
:1011B0000F4B1B681344DA0F13445B109BB21433BC
:1011C00099B2012302931023019348F23043009314
:1011D00000230A4A01F026F800BF4037BD4680BD13
:1011E000C0B30008CCB30008D8B30008E4B30008CB
:1011F0004C0000203C000020F4B3000800B40008BC
:1012000090B583B002AF114B1B689AB2104B1B68AC
:101210009BB2134498B20F4B1B689BB2193399B21F
:101220000A4B5B689AB20A4B1B689BB2D31A9AB2FC
:10123000084BDB689BB2053B9BB248F230440094FC
:1012400000F03EFC00BF0437BD4690BD3C000020CE
:10125000380000204C00002090B587B004AF874BC9
:101260009A68864B1B681344DA0F13445B10083BE3
:101270007B60824B9A68814B1B681344DA0F1344DE
:101280005B101C333B607E4B1B68002B02D0012B94
:1012900078D0EFE0FFF7B4FF7A4B1B689BB20833BE
:1012A00098B2764B9A68754B1B681344DA0F134457
:1012B0005B109BB20F3B99B2012302931023019361
:1012C00048F2304300934FF478436F4A00F0AAFF8E
:1012D0006C4B1B689BB2083398B2684B9A68674B9B
:1012E0001B681344DA0F13445B109BB2143399B29A
:1012F000012302931023019348F23043009300230B
:10130000624A00F08FFF5F4B5B689BB20F3B98B265
:101310007B6899B25B4B5B689BB20A3B9AB27B6875
:101320009BB2053B9BB20024009400F016FC554B89
:101330005B689BB20F3B98B27B6899B2514B5B687C
:101340009BB20A3B9AB27B689BB205339BB20024E6
:10135000009400F002FC4B4B5B689BB20A3B98B2D6
:101360007B689BB2053B99B2464B5B689BB20A3BDC
:101370009AB27B689BB205339BB20024009400F0C4
:10138000ECFB77E0FFF73CFF3E4B1B689BB208335A
:1013900098B23A4B9A68394B1B681344DA0F1344DE
:1013A0005B109BB20F3B99B2012302931023019370
:1013B00048F2304300930023334A00F033FF314BAF
:1013C0001B689BB2083398B22C4B9A682B4B1B6856
:1013D0001344DA0F13445B109BB2143399B2012308
:1013E00002931023019348F2304300934FF4784363
:1013F000264A00F017FF234B5B689BB20F3B98B265
:101400003B6899B21F4B5B689BB20A3B9AB23B6840
:101410009BB2053B9BB20024009400F09EFB194B4D
:101420005B689BB20F3B98B23B6899B2154B5B6807
:101430009BB20A3B9AB23B689BB205339BB2002435
:10144000009400F08AFB0F4B5B689BB20A3B98B29A
:101450003B689BB2053B99B20A4B5B689BB20A3B67
:101460009AB23B689BB205339BB20024009400F013
:1014700074FB00BF00BF0C37BD4690BD4C00002080
:10148000AC0100203C000020F4B3000800B40008C8
:1014900080B582B000AF0346FB80FFF7ADFDFB884F
:1014A0001846FFF723FEFFF7D7FE00BF0837BD46FB
:1014B00080BD000080B582B000AF0346FB801B4BAF
:1014C000DB88012B0CD11A4B01221A60194B1B68C7
:1014D000002B25D0012B04D1164B00221A6000E00E
:1014E00000BF124BDB89012B0DD1114B01221A6079
:1014F000104B1B68002B02D0012B13D004E00D4BC6
:1015000001221A6000E000BF094B1B68012B0AD1C1
:10151000FB881846FFF7BCFF054B00221A6002E06B
:1015200000BF00E000BF0837BD4680BD2C01002091
:10153000C0010020AC010020B0B5A6B000AF03464A
:10154000FB806B4B1B881A466A4B1B681344694A25
:101550001360694B1B881A46684B1B681344674A23
:101560001360674B1B680133654A1360654B07F1D5
:1015700040040FCB07C4237007F14D03392200212B
:10158000184608F043FC604B1B88184601F01CF914
:10159000C7F8940007F14003D7F89410184608F0F4
:1015A000DDFC5A4B07F10C041D460FCD0FC40FCDC7
:1015B0000FC495E8030020600434218002340B0C32
:1015C000237007F1330300221A605A60C3F8072022
:1015D000474B1B88184601F0F7F8C7F8900007F151
:1015E0000C03D7F89010184608F0B8FC07F10C026D
:1015F00007F140031146184608F0B0FC07F140031C
:101600001846FEF7E5FD03461A4607F1400313446A
:101610003F491A460B461B881380364B1A68384BD5
:101620001B68B2FBF3F39BB2184601F0CDF8C7F884
:101630008C0007F14003D7F88C10184608F08EFC98
:1016400007F140031846FEF7C3FD03461A4607F1AB
:10165000400313442E491A460B461B881380274B20
:101660001A68274B1B68B2FBF3F39BB2184601F0D4
:10167000ABF8C7F8880007F14003D7F88810184680
:1016800008F06CFC07F140031846FEF7A1FD034685
:101690001A4607F1400313441D491A460B461B889E
:1016A000138007F140031846FEF792FD03469AB2F5
:1016B00007F140031146184604F084FD154B07223C
:1016C0001A600B4B00221A800B4B00221A80124B1F
:1016D00000221A60114B01221A60FB881846FFF79E
:1016E000E9FE0F4AFB88138000BF9837BD46B0BDA6
:1016F000A6010020D4010020D0010020D801002044
:10170000DC0100200CB40008A401002054B400083F
:1017100008B40008B8010020AC010020C00100207E
:10172000CE01002080B58EB000AF07F12403002267
:101730001A605A609A60DA601A6100233B62814B3A
:101740001B6B804A43F0100313637E4B1B6B03F04B
:1017500010033B623B6A0023FB617A4B1B6B794AA7
:1017600043F004031363774B1B6B03F00403FB612B
:10177000FB690023BB61734B1B6B724A43F0200370
:101780001363704B1B6B03F02003BB61BB69002329
:101790007B616C4B1B6B6B4A43F080031363694B9B
:1017A0001B6B03F080037B617B6900233B61654B0E
:1017B0001B6B644A43F001031363624B1B6B03F022
:1017C00001033B613B690023FB605E4B1B6B5D4A81
:1017D00043F0080313635B4B1B6B03F00803FB60D0
:1017E000FB680023BB60574B1B6B564A43F040031A
:1017F0001363544B1B6B03F04003BB60BB680023B7
:101800007B60504B1B6B4F4A43F0020313634D4BFD
:101810001B6B03F002037B607B68002270214A4847
:1018200005F056FA00224FF40051484805F050FAEE
:1018300000224FF4C061464805F04AFA00224021D8
:10184000444805F045FA00224FF48071424805F003
:101850003FFA00220821414805F03AFA70237B62E2
:101860000123BB620023FB6200233B6307F12403D7
:101870001946354805F090F84FF400537B62012378
:10188000BB620023FB6200233B6307F1240319467C
:101890002E4805F081F84FF4C0637B620123BB62E0
:1018A0000023FB6200233B6307F124031946284809
:1018B00005F072F8C0237B620023BB620023FB6249
:1018C00007F124031946244805F066F830237B62AB
:1018D0000023BB620023FB6207F1240319461B4867
:1018E00005F05AF840237B620123BB620023FB62B0
:1018F00000233B6307F124031946164805F04CF812
:101900004FF480737B620123BB620023FB620023E0
:101910003B6307F1240319460F4805F03DF80823FF
:101920007B620123BB620023FB6200233B6307F160
:1019300024031946094805F02FF800BF3837BD4683
:1019400080BD00BF00380240001002400008024085
:10195000001402400018024000000240000C024047
:1019600080B483B000AF0346FB80044AFB88138039
:1019700000BF0C37BD465DF8047B7047FEFF0F606B
:1019800080B483B000AF0346FB80044AFB885380D9
:1019900000BF0C37BD465DF8047B7047FEFF0F604B
:1019A00080B483B000AF064B5B889BB2FB80FB88A2
:1019B0009BB218460C37BD465DF8047B704700BFEC
:1019C000FEFF0F6090B583B000AF04460846114695
:1019D0001A462346FB800346BB800B467B8013469A
:1019E0003B802A20FFF7BCFFFB881B0A9BB21846EE
:1019F000FFF7C6FFFB88DBB29BB21846FFF7C0FFBC
:101A00007B881B0A9BB21846FFF7BAFF7B88DBB2C4
:101A10009BB21846FFF7B4FF2B20FFF7A1FFBB884E
:101A20001B0A9BB21846FFF7ABFFBB88DBB29BB229
:101A30001846FFF7A5FF3B881B0A9BB21846FFF725
:101A40009FFF3B88DBB29BB21846FFF799FF2C2023
:101A5000FFF786FF00BF0C37BD4690BD80B584B050
:101A600000AF0346FB80154B1B88013B9AB2134B1A
:101A70005B88013B9BB200210020FFF7A3FF0023FE
:101A8000FB8111E00023BB8106E0FB881846FFF7CD
:101A900077FFBB890133BB81084B5B88BA899A42C7
:101AA000F3D3FB890133FB81044B1B88FA899A42EB
:101AB000E8D300BF00BF1037BD4680BDE001002065
:101AC00090B585B000AF0446084611461A46234635
:101AD000FB800346BB800B467B8013463B807B88A4
:101AE000013B9AB23B88013B9BB2B988F888FFF76B
:101AF00069FFBB88FB8110E0FB88BB8106E03B8C63
:101B00001846FFF73DFFBB890133BB81BA897B884B
:101B10009A42F4D3FB890133FB81FA893B889A42CC
:101B2000EAD300BF00BF1437BD4690BD80B582B078
:101B300000AF0346FB800B46BB8013467B80BB880F
:101B4000FA88B988F888FFF73DFF7B881846FFF7C9
:101B500017FF00BF0837BD4680BD90B58DB000AF00
:101B60000446084611461A462346FB800346BB80BE
:101B70000B467B8013463B800023BB6200237B62C5
:101B80007A88FB88D31A3B623A88BB88D31AFB61F8
:101B9000FB88FB60BB88BB603B6A002B02DD012336
:101BA0007B610BE03B6A002B02D100237B6105E0E7
:101BB0004FF0FF337B613B6A5B423B62FB69002B6A
:101BC00002DD01233B610BE0FB69002B02D1002306
:101BD0003B6105E04FF0FF333B61FB695B42FB611A
:101BE0003A6AFB699A4202DD3B6ABB6101E0FB692C
:101BF000BB610023FB852BE0FB689BB2BA6891B206
:101C0000B7F840201846FFF791FFBA6A3B6A1344C1
:101C1000BB627A6AFB6913447B62BA6ABB699A4207
:101C200007DDBA6ABB69D31ABB62FA687B691344E1
:101C3000FB607A6ABB699A4207DD7A6ABB69D31A8C
:101C40007B62BA683B691344BB60FB8D0133FB8543
:101C5000FB8DBA699A42CFDA00BF00BF3437BD4668
:101C600090BD90B585B002AF0446084611461A46AD
:101C70002346FB800346BB800B467B8013463B809C
:101C8000BC887A88B988F8883B8B00932346FFF795
:101C900064FF3C88FA88B988F8883B8B0093234618
:101CA000FFF75BFF3C887A883988F8883B8B009384
:101CB0002346FFF752FF3C887A88B98878883B8BA7
:101CC00000932346FFF749FF00BF0C37BD4690BD88
:101CD00090B587B000AF0446084611461A46234621
:101CE000FB800346BB800B46FB7013463B80002302
:101CF0007B75FB883B8297F82C305B08FB73FB7B82
:101D0000DB08DBB21A46FB7B03F00703DBB2002BD8
:101D100014BF01230023DBB213449AB297F82C308E
:101D20009BB212FB03F3BB81FB78203BFB70FB7B78
:101D30009AB2FB8813449BB2013B9CB297F82C30BB
:101D40009AB2BB8813449BB2013B9BB2B988F88816
:101D50002246FFF737FE00237B827AE097F82C308B
:101D60000C2B28D097F82C30102B08D1FA787B8ACE
:101D70003C4912010A4413441B78FB751BE097F899
:101D80002C30182B0BD1FA78798A374813465B0030
:101D900013441B0103440B441B78FB750BE097F8BD
:101DA0002C30202B5AD1FA787B8A304992010A4490
:101DB00013441B78FB750023BB7544E097F8303063
:101DC000002B20D1FA7DBB7D42FA03F303F001031F
:101DD000002B04D03B881846FFF7D2FD03E03B8D73
:101DE0001846FFF7CDFD7B7D01337B757B7DFA7B4C
:101DF000B3FBF2F101FB02F29B1ADBB2002B1FD105
:101E000000237B7522E0FA7DBB7D42FA03F303F0E9
:101E10000103002B05D03A88B988FB881846FFF7E4
:101E200085FEFB880133FB80FA883B8AD21AFB7B54
:101E30009A4205D13B8AFB80BB880133BB8005E019
:101E4000BB7D0133BB75BB7D072BB7D97B8A0133C3
:101E50007B827A8ABB899A4280D300E000BF1C371C
:101E6000BD4690BD50B8000840BE000810D0000824
:101E700090B587B000AF0446084611461A4623467F
:101E8000FB800346BB800B467B8013463B800023D0
:101E90003B61FA887B8813449BB2013B9CB2BA88B1
:101EA0003B8813449BB2013B9BB2B988F888224619
:101EB000FFF788FD0023FB8227E00023BB821DE0A3
:101EC0003B695B00BA6A13441B78FB733B695B0098
:101ED0000133BA6A13441B78BB73FB7B1B021AB233
:101EE000BB7B1BB213431BB29BB21846FFF748FDE6
:101EF0003B6901333B61BB8A0133BB82BA8A3B88B1
:101F00009A42DDD3FB8A0133FB82FA8A7B889A42AC
:101F1000D3D300BF00BF1C37BD4690BD80B483B093
:101F200000AF0346FB71FB791B09DBB203F003032F
:101F3000DBB2002B07D00A4B4FF4A0721A80084B7B
:101F4000F0225A8006E0064BF0221A80044B4FF430
:101F5000A0725A8000BF0C37BD465DF8047B704705
:101F6000E001002080B500AF00224FF40051AA48E4
:101F700004F0AEFE4FF4FA7004F046FB01224FF479
:101F80000051A54804F0A4FE4FF4FA7004F03CFBA5
:101F90000020FFF7C3FFD320FFF7E2FCFFF700FDAF
:101FA00003461A469D4B9A80FFF7FAFC03461A46F1
:101FB0009A4B9A80FFF7F4FC03461A46974B9A8097
:101FC000964B9B881B029AB2944B9A80FFF7E8FCD1
:101FD00003461A46914B9B8813439AB28F4B9A80C3
:101FE000CF20FFF7BDFC0020FFF7CAFCC120FFF7A0
:101FF000C7FC3020FFF7C4FCED20FFF7B1FC6420E4
:10200000FFF7BEFC0320FFF7BBFC1220FFF7B8FC74
:102010008120FFF7B5FCE820FFF7A2FC8520FFF741
:10202000AFFC1020FFF7ACFC7A20FFF7A9FCCB2017
:10203000FFF796FC3920FFF7A3FC2C20FFF7A0FC4C
:102040000020FFF79DFC3420FFF79AFC0220FFF7E9
:1020500097FCF720FFF784FC2020FFF791FCEA2093
:10206000FFF77EFC0020FFF78BFC0020FFF788FCC9
:10207000C020FFF775FC1B20FFF782FCC120FFF793
:102080006FFC0120FFF77CFCC520FFF769FC3020C6
:10209000FFF776FC3020FFF773FCC720FFF760FCEA
:1020A000B720FFF76DFC3620FFF75AFC0820FFF73A
:1020B00067FC3A20FFF754FC5520FFF761FCB12084
:1020C000FFF74EFC0020FFF75BFC1A20FFF758FCDF
:1020D000B620FFF745FC0A20FFF752FCA220FFF7CD
:1020E0004FFCF220FFF73CFC0020FFF749FC2620C4
:1020F000FFF736FC0120FFF743FCE020FFF730FC40
:102100000F20FFF73DFC2A20FFF73AFC2820FFF7BD
:1021100037FC0820FFF734FC0E20FFF731FC0820C5
:10212000FFF72EFC5420FFF72BFCA920FFF728FC1B
:102130004320FFF725FC0A20FFF722FC0F20FFF7C2
:102140001FFC0020FFF71CFC0020FFF719FC0020FB
:10215000FFF716FC0020FFF713FCE120FFF700FC5F
:102160000020FFF70DFC1520FFF70AFC1720FFF7F2
:1021700007FC0720FFF704FC1120FFF701FC0620F5
:10218000FFF7FEFB2B20FFF7FBFB5620FFF7F8FBCA
:102190003C20FFF7F5FB0520FFF7F2FB1020FFF7CF
:1021A000EFFB0F20FFF7ECFB3F20FFF7E9FB3F20A1
:1021B000FFF7E6FB0F20FFF7E3FB2B20FFF7D0FB39
:1021C0000020FFF7DDFB0020FFF7DAFB0120FFF71F
:1021D000D7FB3F20FFF7D4FB2A20FFF7C1FB0020ED
:1021E000FFF7CEFB0020FFF7CBFB0020FFF7C8FB7B
:1021F000EF20FFF7C5FB1120FFF7B2FB782004F0BA
:1022000003FA2920FFF7ACFB01224FF48071044848
:1022100004F05EFD00BF80BD00080240E001002028
:102220000000024090B58BB004AFBA601A46034676
:10223000FB810B46BB811346FB80FB89BB820023DD
:10224000FB7548E0FB7D002B45D1FA89264B1B88A6
:10225000194697F82C305B08DBB2CB1A9A423FDC68
:10226000BA89214B5B88194697F82C30CB1A9A42D1
:1022700036DCBB681B78802B02D90123FB752AE072
:10228000BB681B780D2B0BD197F82C309AB2BB8909
:102290001344BB81BB8AFB81BB680133BB6017E081
:1022A000BB681A78FC88B989F88997F830300293AE
:1022B00097F82C3001933B8D00932346FFF708FDE0
:1022C00097F82C305B08DBB29AB2FB891344FB8190
:1022D000BB680133BB60BB681B78002BB2D100E048
:1022E00000BF1C37BD4690BDE001002080B58AB01C
:1022F00004AFBA601A460346FB810B46BB81134606
:10230000FB80B868FDF764FF0346FB820F4B1B8818
:102310001A46FB8ADB00D31ADA0F13445B10BB8228
:10232000FA89BB8A134498B2FA88B98997F8283099
:10233000029397F8243001933B8C00931346BA68BC
:10234000FFF770FF00BF1837BD4680BDE0010020D9
:1023500080B500AF01224021024804F0B9FC00BF63
:1023600080BD00BF0018024080B500AF3F4B1B8806
:10237000DBB29AB23D4B1A803D4B1B881A463D4B4F
:102380009B5C1B021AB2394B1B881BB213431BB256
:102390009AB2364B1A80364B1B88032B46D801A2C3
:1023A00052F823F0B5230008D3230008F1230008D6
:1023B0000F2400082D4B1B8843F0B0039AB22B4B1F
:1023C0001A802A4B1B8823F040039AB2274B1A80AD
:1023D0002DE0264B1B8843F0D0039AB2234B1A8082
:1023E000224B1B8823F020039AB2204B1A801EE058
:1023F0001E4B1B8843F0E0039AB21C4B1A801B4B08
:102400001B8823F010039AB2184B1A800FE0174B69
:102410001B8843F070039AB2144B1A80134B1B882D
:1024200023F080039AB2114B1A8000E000BF104BDA
:102430001B8801335A4203F0030302F0030258BF22
:1024400053429AB20A4B1A80002240210A4804F0F3
:102450003FFC012302220549084805F074F90122D6
:102460004021054804F034FC00BF80BD92000020EC
:10247000E6010020840000200018024064290020AA
:1024800080B485B000AFF860B9601346FB71FB689B
:10249000002B0EDBFB68092B0BDC094AFB6813449D
:1024A0001A78FB79D31AD9B2064ABB6813440A4694
:1024B0001A7000BF1437BD465DF8047B704700BF3B
:1024C000880000208400002080B483B000AF034661
:1024D000FB71FB79012B07D10A4B1B8823F0080302
:1024E0009AB2084B1A8006E0064B1B8843F008039B
:1024F0009AB2044B1A8000BF0C37BD465DF8047BCE
:10250000704700BF9200002080B500AF04F00AF8C9
:1025100000F0A2F8FFF706F903F04AFC02F0AEF96A
:10252000FEF79AFC03F05AFF00F000F94FF6FF7037
:10253000FFF794FA00F024F93C4B1B88002B06D0DF
:102540003A4B00221A80FEF7FBF902F05FFD384B90
:102550001B68032B07D0364B1B68042B03D0344B6E
:102560001B68052B26D101F015FC314B1B68052B90
:1025700008D1304B1B88002B04D001F02FFD2D4BD0
:1025800000221A802C4B1B88002B04D02A4B0022DF
:102590001A8001F0D3FA294B1B88012B10D1284B4C
:1025A0001B8801339AB2264B1A804FF47A7002F0DE
:1025B00089F805E0002002F085F81F4B00221A8000
:1025C0001B4B1B68072B04D11E4B1B881846FEF7BC
:1025D00071FF174B1B68062B01D103F065FA144BF2
:1025E0001B680A2B01D1FEF7EFFB174B1B88012B51
:1025F0000BD1154B00221A800D4B07221A600120C7
:10260000FEF79AFF114B03221A60114B1B88012B16
:1026100092D1104B1B88013B9AB20E4B1A8003F0EB
:102620004FFD4FF47A7002F015F885E73829002045
:10263000B8010020562900203E2900205C290020F6
:10264000D0010020CE0100204429002014000020E9
:10265000502900200000002080B594B000AF07F1A1
:10266000200330220021184607F0D0FB07F10C03AD
:1026700000221A605A609A60DA601A610023BB6017
:10268000284B1B6C274A43F080531364254B1B6C6B
:1026900003F08053BB60BB6800237B60224B1B6848
:1026A000214A43F4804313601F4B1B6803F48043AB
:1026B0007B607B6802233B620123FB6210233B6348
:1026C0000223BB630023FB6308233B64A8237B64D2
:1026D0000223BB640423FB6407F12003184604F0C3
:1026E00011FB0346002B01D000F068F80F23FB60BC
:1026F00002233B6100237B614FF4A053BB614FF485
:10270000A053FB6107F10C030521184604F072FD8C
:102710000346002B01D000F051F800BF5037BD46F2
:1027200080BD00BF003802400070004080B500AF9F
:1027300000222021114804F0CBFA002240210F484A
:1027400004F0C6FA002210210C4804F0C1FA01F08E
:102750003BFFFFF7FDFDFEF7E7F8FFF703FC03F093
:102760001BFD322001F0CAFF4FF4967001F036FFD6
:102770004FF4FA6001F08AFF00BF80BD00100240F4
:1027800080B584B004AF1F2300931D231D221321A5
:102790001320FFF795F901230293102301931F23C0
:1027A00000934FF47843044A64210020FFF79EFD14
:1027B00000BFBD4680BD00BF88B4000880B400AF34
:1027C00072B600BFFEE7000080B590B000AF0346D0
:1027D000FB80FB8807F10C00064A322107F08AFBD8
:1027E00007F10C03184607F0C9FB034618464037AB
:1027F000BD4680BD98B4000890B583B002AF0D4BC4
:102800001B6898B20C4B1B6899B20A4B5B689CB270
:10281000094B5B689AB2094B1B689BB213449BB28D
:10282000002200922246FFF74BF900BF0437BD4655
:1028300090BD00BF180000202800002038000020B4
:1028400090B5A3B004AF03460A46FB801346BB8095
:102850004FF6FF70FFF702F9454B5B689AB2454BA4
:102860001B689BB21F21009100210020FFF728F96F
:1028700001230293102301931F2300934FF4784305
:102880003D4A05210020FFF7CDFC3C4A07F13C03FF
:1028900092E8030018600433197007F141032D22F8
:1028A0000021184607F0B2FA354B1B881846FFF78F
:1028B0008BFF786707F13C03796F184607F04EFBF2
:1028C000304B1B6898B2304B1B6899B207F13C0241
:1028D00001230293102301934FF6FF7300934FF4EB
:1028E0007843FFF79FFC294A07F1080392E80300A9
:1028F00083E8030007F110032A220021184607F09D
:1029000085FA234B1B881846FFF75EFF386707F1EF
:102910000803396F184607F021FB1E4B1B6898B25D
:102920001D4B1B689BB2053399B207F108020023C7
:102930000293102301931F2300934FF47843FFF772
:1029400071FC164B1B6898B2154B1B6899B2154B5E
:102950001B689AB2144B1B689BB2144C0094FFF78F
:1029600087FAFFF749FF00BF7C37BD4690BD00BF27
:1029700018000020280000209CB40008ACB4000817
:10298000A40100206400002068000020E0B40008DA
:10299000A60100206C0000207000002074000020C0
:1029A000780000207C00002080000020D0E7000894
:1029B00090B5A3B004AF03460A46FB801346BB8024
:1029C0004FF6FF70FFF74AF8454B5B689AB2454BEC
:1029D0001B689BB21F21009100210020FFF770F8B7
:1029E00001230293102301931F2300934FF4784394
:1029F0003D4A05210020FFF715FC3C4A07F13C0346
:102A000092E8030018600433197007F141032D2286
:102A10000021184607F0FAF9354B1B881846FFF7D6
:102A2000D3FE786707F13C03796F184607F096FAF2
:102A3000304B1B6898B2304B1B6899B207F13C02CF
:102A400001230293102301934FF6FF7300934FF479
:102A50007843FFF7E7FB294A07F1080392E80300F0
:102A600083E8030007F110032A220021184607F02B
:102A7000CDF90020FFF7A8FE386707F10803396F8A
:102A8000184607F06BFA1E4B1B6898B21D4B1B686B
:102A90009BB2053399B207F1080201230293102378
:102AA00001934FF6FF7300934FF47843FFF7BAFB9F
:102AB00003F006FB144B1B6898B2144B1B6899B2C9
:102AC000134B1B689AB2134B1B689BB2124C0094B9
:102AD000FFF7CEF9FFF790FE00BF7C37BD4690BDF3
:102AE000180000202800002014B50008ACB400082D
:102AF000A40100206400002068000020E0B4000869
:102B00006C0000207000002074000020780000207D
:102B10007C00002080000020D0E7000890B5A3B022
:102B200004AF03460A46FB801346BB804FF6FF7096
:102B3000FEF794FF454B5B689AB2454B1B689BB20E
:102B40001F21009100210020FEF7BAFF012302930C
:102B5000102301931F2300934FF478433D4A05212E
:102B60000020FFF75FFB3C4A07F13C0392E80300BB
:102B700018600433197007F141032D220021184613
:102B800007F044F9354B1B881846FFF71DFE7867A0
:102B900007F13C03796F184607F0E0F9304B1B68EA
:102BA00098B2304B1B6899B207F13C0201230293A3
:102BB000102301934FF6FF7300934FF47843FFF710
:102BC00031FB294A07F1080392E8030083E8030078
:102BD00007F110032A220021184607F017F90020F8
:102BE000FFF7F2FD386707F10803396F184607F061
:102BF000B5F91E4B1B6898B21D4B1B689BB2053381
:102C000099B207F1080201230293102301934FF6B2
:102C1000FF7300934FF47843FFF704FB03F050FA7F
:102C2000144B1B6898B2144B1B6899B2134B1B686A
:102C30009AB2134B1B689BB2124C0094FFF718F921
:102C4000FFF7DAFD00BF7C37BD4690BD18000020BD
:102C50002800002024B50008ACB40008A40100201E
:102C60006400002068000020E0B400086C00002030
:102C70007000002074000020780000207C000020FC
:102C800080000020D0E7000880B594B004AF344B3A
:102C90001B68032B2AD1334A3B1D92E8030083E8CB
:102CA000030007F10C032A220021184607F0AEF8B2
:102CB0002D4B1B881846FFF787FDF8633B1DF96B0A
:102CC000184607F04BF9294B1B6898B2284B1B6834
:102CD0009BB2053399B23A1D00230293102301934E
:102CE0001F2300934FF47843FFF79CFA1C4B1B689B
:102CF000042B03D01A4B1B68052B2CD1194A3B1D02
:102D000092E8030083E8030007F10C032A22002164
:102D1000184607F07BF8144B1B881846FFF754FD44
:102D2000B8633B1DB96B184607F018F90F4B1B68C9
:102D300098B20F4B1B689BB2053399B23A1D002322
:102D40000293102301931F2300934FF47843FFF75E
:102D500069FA03F0B5F900BF4037BD4680BD00BF3A
:102D6000B8010020E0B40008A60100206C0000209B
:102D70007000002090B583B002AF8F4B9B69032B8E
:102D800000F2148101A252F823F000BF252F0008A1
:102D9000A52E00081D2E00089D2D0008864BDB6A1D
:102DA00098B2854B1B6B99B2834BDB6A9BB209339C
:102DB0009AB2814B1B6B9BB209339BB24FF47844A0
:102DC0000094FEF77DFE7C4BDB6A98B27A4B1B6B5E
:102DD00099B2794BDB6A9BB204339AB2764B1B6B88
:102DE0009BB204339BB200240094FEF769FE724B41
:102DF000DB6A9BB2053398B26F4B1B6B99B26E4B7B
:102E0000DB6A9BB209339AB26B4B1B6B9BB20433E8
:102E10009BB200240094FEF753FEC8E0664BDB6AC9
:102E200098B2654B1B6B99B2634BDB6A9BB209335B
:102E30009AB2614B1B6B9BB209339BB24FF478443F
:102E40000094FEF73DFE5C4BDB6A98B25A4B1B6B5D
:102E50009BB2053399B2584BDB6A9BB204339AB2EA
:102E6000554B1B6B9BB209339BB200240094FEF7B9
:102E700027FE514BDB6A9BB2053398B24E4B1B6B5E
:102E80009BB2053399B24C4BDB6A9BB209339AB2C1
:102E9000494B1B6B9BB209339BB200240094FEF795
:102EA0000FFE84E0444BDB6A98B2434B1B6B99B234
:102EB000414BDB6A9BB209339AB23F4B1B6B9BB20F
:102EC00009339BB24FF478440094FEF7F9FD3A4B76
:102ED000DB6A98B2384B1B6B99B2374BDB6A9BB2FB
:102EE00004339AB2344B1B6B9BB204339BB2002465
:102EF0000094FEF7E5FD304BDB6A98B22E4B1B6B5E
:102F00009BB2053399B22C4BDB6A9BB204339AB265
:102F1000294B1B6B9BB209339BB200240094FEF734
:102F2000CFFD44E0244BDB6A98B2234B1B6B99B274
:102F3000214BDB6A9BB209339AB21F4B1B6B9BB2CE
:102F400009339BB24FF478440094FEF7B9FD1A4B55
:102F5000DB6A9BB2053398B2174B1B6B99B2164BC9
:102F6000DB6A9BB209339AB2134B1B6B9BB20433DF
:102F70009BB200240094FEF7A3FD0F4BDB6A9BB2CB
:102F8000053398B20C4B1B6B9BB2053399B20A4BBD
:102F9000DB6A9BB209339AB2074B1B6B9BB20933B6
:102FA0009BB200240094FEF78BFD00E000BF00BF41
:102FB0000437BD4690BD00BFF001002090B589B038
:102FC00002AF584B9B6A002B40F0A780554B9B6982
:102FD000002B03D1534B5B6898479FE0514B012274
:102FE0009A6100237B6191E07B69002B28D14D4AD7
:102FF0007B690533DB00134407F10C02043393E8CB
:10300000030082E80300474A7B690533DB00134471
:103010005B68A3F10A0243497B690533DB000B447B
:103020005A60404A7B690533DB0013449A683D4986
:103030007B690533DB000B449A60FFF79BFE62E07F
:10304000384A7B690533DB0013443A1D043393E8A7
:10305000030082E80300334A7B690533DB00134435
:10306000043307F10C0292E8030083E8030007F140
:103070000C033A1D92E8030083E803007B69012BEF
:1030800023D1284A7B690533DB0013445B6898B27F
:10309000244A7B690533DB0013449B6899B2214ABB
:1030A0007B690533DB0013445B689BB209339AB23A
:1030B0001C4C7B690533DB0023449B689BB20933BE
:1030C0009BB200240094FEF7FBFC164B5B6A013BAD
:1030D0007A699A4217D1134B1C333A1D92E80300C8
:1030E00083E803007B6898B2BB6899B27B689BB2A7
:1030F00009339AB2BB689BB209339BB24FF6FF7497
:103100000094FEF7DDFC7B6901337B61054B5B6A54
:103110007A699A42FFF668AF00E000BF00BF1C3733
:10312000BD4690BDF001002090B589B002AF584B6C
:103130009B6A002B40F0A780554B9B69012B03D164
:10314000534B1B6898479FE0514B00229A61002324
:103150007B6191E07B69002B28D14D4A7B69053367
:10316000DB00134407F10C02043393E8030082E808
:103170000300474A7B690533DB0013445B6803F1B6
:103180000A0243497B690533DB000B445A60404A1D
:103190007B690533DB0013449A683D497B6905333D
:1031A000DB000B449A60FFF7E5FD62E0384A7B697B
:1031B0000533DB0013443A1D043393E8030082E82F
:1031C0000300334A7B690533DB001344043307F102
:1031D0000C0292E8030083E8030007F10C033A1D98
:1031E00092E8030083E803007B69012B23D1284A7E
:1031F0007B690533DB0013445B6898B2244A7B6922
:103200000533DB0013449B6899B2214A7B6905337F
:10321000DB0013445B689BB209339AB21C4C7B6998
:103220000533DB0023449B689BB209339BB2002427
:103230000094FEF745FC164B5B6A013B7A699A42A3
:1032400017D1134B1C333A1D92E8030083E80300A7
:103250007B6898B2BB6899B27B689BB209339AB21B
:10326000BB689BB209339BB24FF6FF740094FEF724
:1032700027FC7B6901337B61054B5B6A7A699A4263
:10328000FFF668AF00E000BF00BF1C37BD4690BD31
:10329000F001002090B589B002AF584B9B6A002B1B
:1032A00040F0A780554B9B69022B03D1534BDB6841
:1032B00098479FE0514B03229A6100237B6191E084
:1032C0007B69002B28D14D4A7B690533DB00134411
:1032D00007F10C02043393E8030082E80300474A35
:1032E0007B690533DB0013445A6844497B69053325
:1032F000DB000B445A60414A7B690533DB00134411
:103300009B68A3F10A023D497B690533DB000B444E
:103310009A60FFF72FFD62E0384A7B690533DB00D6
:1033200013443A1D043393E8030082E80300334A50
:103330007B690533DB001344043307F10C0292E888
:10334000030083E8030007F10C033A1D92E8030031
:1033500083E803007B69012B23D1284A7B6905336D
:10336000DB0013445B6898B2244A7B690533DB00B9
:1033700013449B6899B2214A7B690533DB001344EF
:103380005B689BB209339AB21C4C7B690533DB0046
:1033900023449B689BB209339BB200240094FEF740
:1033A0008FFB164B5B6A013B7A699A4217D1134B2C
:1033B0001C333A1D92E8030083E803007B6898B24F
:1033C000BB6899B27B689BB209339AB2BB689BB267
:1033D00009339BB24FF6FF740094FEF771FB7B69D3
:1033E00001337B61054B5B6A7A699A42FFF668AFED
:1033F00000E000BF00BF1C37BD4690BDF0010020BB
:1034000090B589B002AF584B9B6A002B40F0A78063
:10341000554B9B69032B03D1534B9B6898479FE007
:10342000514B02229A6100237B6191E07B69002B62
:1034300028D14D4A7B690533DB00134407F10C02A8
:10344000043393E8030082E80300474A7B690533AD
:10345000DB0013445A6844497B690533DB000B44A5
:103460005A60414A7B690533DB0013449B6803F1D2
:103470000A023D497B690533DB000B449A60FFF784
:1034800079FC62E0384A7B690533DB0013443A1D5E
:10349000043393E8030082E80300334A7B69053371
:1034A000DB001344043307F10C0292E8030083E8C5
:1034B000030007F10C033A1D92E8030083E80300C0
:1034C0007B69012B23D1284A7B690533DB00134438
:1034D0005B6898B2244A7B690533DB0013449B6820
:1034E00099B2214A7B690533DB0013445B689BB2C8
:1034F00009339AB21C4C7B690533DB0023449B687B
:103500009BB209339BB200240094FEF7D9FA164B04
:103510005B6A013B7A699A4217D1134B1C333A1DFF
:1035200092E8030083E803007B6898B2BB6899B215
:103530007B689BB209339AB2BB689BB209339BB2DA
:103540004FF6FF740094FEF7BBFA7B6901337B6191
:10355000054B5B6A7A699A42FFF668AF00E000BFEC
:1035600000BF1C37BD4690BDF001002090B587B06C
:1035700002AF02F06DFE754B1B689AB2744B1B686C
:103580009BB2134499B24FF6FF7300934FF4A073AC
:10359000F0220020FEF794FA0023FB602CE0FB6889
:1035A000002B02D1FFF7E6FB23E06A4AFB680533F4
:1035B000DB0013445B6898B2664AFB680533DB00A6
:1035C00013449B6899B2634AFB680533DB001344DC
:1035D0005B689BB209339AB25E4CFB680533DB0033
:1035E00023449B689BB209339BB200240094FEF7EE
:1035F00067FAFB680133FB60564B5B6AFA689A42D4
:10360000CDDB0023BB607EE05349BA6813465B0004
:1036100013449B000B441B687B604F49BA681346F8
:103620005B0013449B000B4404331B683B607B68C6
:1036300098B23B6899B27B689BB209339AB23B68F7
:103640009BB209339BB24BF640440094FEF738FA24
:103650004149BA6813465B0013449B000B4408338E
:103660001B68012B26D17B6898B23B689BB20A335A
:1036700099B27B689BB209339AB23B689BB2133311
:103680009BB24BF640440094FEF71AFA7B6898B25E
:103690003B689BB20A3B99B27B689BB209339AB2F2
:1036A0003B689BB2013B9BB24BF640440094FEF753
:1036B00007FA25E07B689BB20A3398B23B6899B25F
:1036C0007B689BB213339AB23B689BB209339BB2BF
:1036D0004BF640440094FEF7F3F97B689BB20A3B3B
:1036E00098B23B6899B27B689BB2013B9AB23B6847
:1036F0009BB209339BB24BF640440094FEF7E0F9CD
:10370000BB680133BB60144B03F58053D3F87037AB
:10371000BA689A42FFF678AF104B1B6898B2104B0C
:103720001B6899B20D4B1B689BB209339AB20C4BC4
:103730001B689BB209339BB240F2CF140094FEF792
:10374000BFF900BF1437BD4690BD00BF2800002060
:1037500038000020F0010020BC110020940000205F
:103760009800002080B400AF0C4BDB6A002B0CDB10
:103770000A4BDB6AE62B08DC084B1B6B452B04DD90
:10378000064B1B6BB3F59C7F01DD012300E000239A
:103790001846BD465DF8047B704700BFF00100206D
:1037A00080B483B000AF01237B6018E0124BDA6A6B
:1037B00011497B680533DB000B445B689A420BD1EF
:1037C0000D4B1A6B0C497B680533DB000B449B687F
:1037D0009A4201D1012308E07B6801337B60064BEC
:1037E0005B6A7A689A42E1DB002318460C37BD46D3
:1037F0005DF8047B704700BFF001002080B400AF8B
:10380000094BDA6A094B1B689A4207D1064B1A6BBF
:10381000074B1B689A4201D1012300E000231846A0
:10382000BD465DF8047B7047F00100209400002045
:103830009800002080B483B000AF00237B6079E063
:1038400044497A6813465B0013449B000B440833D9
:103850001B68012B36D1404B196B3E487A681346E2
:103860005B0013449B00034404331B680A3B9942EA
:103870001AD0394B196B37487A6813465B001344EA
:103880009B00034404331B680A3399420CD0324B2B
:10389000196B30487A6813465B0013449B0003445D
:1038A00004331B68994242D12B4BD96A29487A6864
:1038B00013465B0013449B0003441B68994236D1B6
:1038C000012341E0244BD96A22487A6813465B0001
:1038D00013449B0003441B680A33994218D01E4BC3
:1038E000D96A1C487A6813465B0013449B00034462
:1038F0001B680A3B99420BD0174BD96A15487A6866
:1039000013465B0013449B0003441B6899420ED18D
:10391000114B196B0F487A6813465B0013449B00E8
:10392000034404331B68994201D101230CE07B68F6
:1039300001337B60074B03F58053D3F870377A6807
:103940009A42FFF67DAF002318460C37BD465DF85E
:10395000047B7047BC110020F001002090B585B0B9
:1039600002AFFFF7FFFE0346002B03D00320FDF755
:10397000E3FD65E0FFF714FF0346002B03D00220B0
:10398000FDF7DAFD5CE0FFF755FF0346002B03D09F
:103990000020FDF7D1FD53E0FFF730FF0346002B79
:1039A0004ED0294B4FF000421A60284B4FF0004296
:1039B0001A60274B5B6A0133254A5362244B5B6ACA
:1039C000013B234AD26922490533DB000B445A608C
:1039D0001F4B5B6A013B1E4A126A1D490533DB001F
:1039E0000B449A601A4B5B6A013B194A0533DB00B2
:1039F00013445B687B60164B5B6A013B144A0533DA
:103A0000DB0013449B683B607B6898B23B6899B2CB
:103A10007B689BB209339AB23B689BB209339BB275
:103A200000240094FEF74CF80A4B01221A600A4B5E
:103A30001B8801339AB2084B1A80FFF725F900BFA3
:103A40000C37BD4690BD00BF9400002098000020B8
:103A5000F00100209C000020A601002080B500AFEE
:103A6000114B9B69032B1BD801A252F823F000BF16
:103A7000913A0008993A0008813A0008893A00080A
:103A8000094BDB6898470CE0074B9B68984708E0B8
:103A9000054B5B68984704E0034B1B68984700E0C0
:103AA00000BF00BF80BD00BFF001002080B483B024
:103AB00000AF00237B601FE01F497A6813465B005C
:103AC00013449B000B4400221A601B497A6813467A
:103AD0005B0013449B000B44043300221A60164918
:103AE0007A6813465B0013449B000B4408330022A2
:103AF0001A607B6801337B607B68B3F5FA7FDBDBA0
:103B00000D4B03F580531A460023C2F870370A4B59
:103B100003F580531A460123C2F87437064B03F5A8
:103B200080531A460023C2F8783700BF0C37BD46D1
:103B30005DF8047B704700BFBC11002080B582B0E7
:103B400002AF3E4B5B89002B06D03D4B9B689847EC
:103B50003B4B5B6998476EE0384B5B8B002B06D084
:103B6000374BDB689847364B5B69984763E0334BCC
:103B70009B8A002B06D0324B5B689847304B5B69C1
:103B8000984758E02D4B1B8A002B06D02C4B1B6806
:103B900098472B4B5B6998474DE0284B5B8A002B7D
:103BA00022D0274B9B6A002B0CBF01230023DBB2E2
:103BB0001A46234B9A62234B03F58053D3F8783788
:103BC000002B0CBF01230023DBB21A461D4B03F56B
:103BD0008053C3F878271A4B9B6A184601F0A8FF58
:103BE0000346174A936226E0144B1B8B002B1CD014
:103BF0004FF6FF70FDF732FF134B4FF000421A6093
:103C0000124B4FF000421A6000F024F8FFF74EFF0D
:103C10004FF4784300934623F02200210020FDF763
:103C20004FFF0B4B01221A6005E0054B1B699847BB
:103C3000034B5B69984700BFBD4680BD2C01002047
:103C4000F0010020BC11002094000020980000200A
:103C50009C00002090B585B002AF454B1B6818460C
:103C600006F0DCF8424B1B680133414A1360414BBC
:103C700001221A60404B00229A623F4B1422DA6202
:103C80003D4B46221A633C4B0A225A633A4B46226A
:103C90009A63394B0022DA63374B46221A640323B6
:103CA0007B6010E0344A7B680533DB00134400225C
:103CB0005A60314A7B680533DB00134400229A6066
:103CC0007B6801337B607B68B3F5FA7FEADB2A4BC4
:103CD0002A4ADA60284B2A4A1A60274B294A9A60F6
:103CE000254B294A5A60244B284A1A61224B284AFC
:103CF0005A61214B03225A621F4B00229A61002312
:103D00003B602CE03B68002B02D1FFF733F823E047
:103D1000194A3B680533DB0013445B6898B2164AC6
:103D20003B680533DB0013449B6899B2124A3B6839
:103D30000533DB0013445B689BB209339AB20E4C27
:103D40003B680533DB0023449B689BB209339BB27D
:103D500000240094FDF7B4FE3B6801333B603B68F0
:103D6000022BCFDD00BF00BF0C37BD4690BD00BFAA
:103D7000EC0100209C000020F0010020013400082C
:103D8000BD2F000895320008293100085D3A00086F
:103D90005D39000890B587B002AF894B1B68012BD5
:103DA00040F009810023FB6006F066F80146854B70
:103DB00083FB01239A10CB17D21A13465B001344DE
:103DC000DB00CA1A13469B0013445B001A467E4B65
:103DD0001A6006F051F801467C4B83FB0123DA1090
:103DE000CB17D21A13469B0013449A001344CA1AE5
:103DF000073213469B0013445B001A46744B1A604B
:103E00000023BB6021E0734ABB680533DB00134429
:103E10005A686D4B1B689A4214D16E4ABB680533D1
:103E2000DB0013449A686A4B1B689A420AD1664BBE
:103E30004FF000421A60664B4FF000421A600123B7
:103E4000FB6007E0BB680133BB60624B5B6ABA682A
:103E50009A42D8DBFB68002B40F0A98000237B60EE
:103E60007FE05D497A6813465B0013449B000B4476
:103E700008331B68012B39D157497A6813465B0018
:103E800013449B000B4404331A68514B1B689A423D
:103E90001DD051497A6813465B0013449B000B44C4
:103EA00004331B6803F10A02494B1B689A420ED087
:103EB00049497A6813465B0013449B000B44043362
:103EC0001B68A3F10A02424B1B689A4246D1424941
:103ED0007A6813465B0013449B000B441A683A4B04
:103EE0001B689A423AD10123FB6043E03A497A6861
:103EF00013465B0013449B000B441A68324B1B684B
:103F00009A421BD034497A6813465B0013449B00E5
:103F10000B441B6803F10A022B4B1B689A420DD01D
:103F20002D497A6813465B0013449B000B441B68C1
:103F3000A3F10A02244B1B689A420FD126497A68E2
:103F400013465B0013449B000B4404331A68204B58
:103F50001B689A4202D10123FB600BE07B680133AE
:103F60007B601D4B03F58053D3F870377A689A4213
:103F7000FFF677AFFB68002B1BD1134B1B6898B281
:103F8000134B1B6899B2104B1B689BB209339AB252
:103F90000F4B1B689BB209339BB240F2CF140094C5
:103FA000FDF78EFD064B00221A6000BF03E000BF44
:103FB000F8E600BFF6E600BF1437BD4690BD00BF6F
:103FC0009C000020ABAAAA2A940000201F85EB5178
:103FD00098000020F0010020BC11002090B58DB0A9
:103FE00002AF9C4B03F58053D3F870379A4A12887E
:103FF000934280F2DE82974B03F58053D3F87837F3
:10400000002B40F0D78200237B6205F035FF02468B
:10401000924B83FB02139910D317CB1A162101FB85
:1040200003F3D31A5A1C13469B0013445B00BB6175
:1040300005F022FF01468A4B83FB01230B441A1132
:10404000CB17D21A13465B001344DB009B1ACA1A23
:10405000083213469B0013445B007B6100233B62E4
:10406000E8E07C493A6A13465B0013449B000B442A
:104070001B683B6177493A6A13465B0013449B0017
:104080000B4404331B68FB60724B03F58053D3F879
:104090007437012B66D16F493A6A13465B001344AB
:1040A0009B000B4408331B68012B20D1FB68143B99
:1040B0007A699A4213D0FB6814337A699A420ED017
:1040C000FB680A3B7A699A4209D0FB680A337A692D
:1040D0009A4204D0FA687B699A4240F0A8803A6913
:1040E000BB699A4240F0A38001237B62ABE0FB688E
:1040F0000A3B7A699A4208D0FB680A337A699A4285
:1041000003D0FA687B699A4203D13A69BB699A4243
:1041100025D0FB680A3B7A699A4208D0FB680A33CB
:104120007A699A4203D0FA687B699A4204D13B6962
:104130000A3BBA699A4212D0FB680A3B7A699A42F2
:1041400008D0FB680A337A699A4203D0FA687B691F
:104150009A426CD13B690A33BA699A4267D101230A
:104160007B6264E03B493A6A13465B0013449B0060
:104170000B4408331B68012B3AD13B690A3BBA69EF
:104180009A4208D03B690A33BA699A4203D03A6925
:10419000BB699A4203D1FA687B699A4225D03B6990
:1041A0000A3BBA699A4208D03B690A33BA699A4213
:1041B00003D03A69BB699A4204D1FB680A3B7A6929
:1041C0009A4212D03B690A3BBA699A4208D03B69CD
:1041D0000A33BA699A4203D03A69BB699A4226D136
:1041E000FB680A337A699A4221D101237B622AE073
:1041F0003B69143BBA699A4212D03B691433BA69DD
:104200009A420DD03B690A33BA699A4208D03B6999
:104210000A3BBA699A4203D03A69BB699A4206D10D
:10422000FA687B699A4202D101237B620BE03B6A08
:1042300001333B62074B03F58053D3F870373A6A7A
:104240009A42FFF60EAF7B6A002B40F0A881002354
:10425000FB6149E0BC110020A8010020E9A28B2EDF
:10426000C94216B2604AFB690533DB0013445B6840
:10427000BB605D4AFB690533DB0013449B687B60D0
:104280005A4B03F58053D3F87437012B14D1BA6914
:10429000BB689A4225D17A697B689A4209D07B69CA
:1042A0000A3B7A689A4204D07B690A337A689A4258
:1042B00017D101237B621CE07A697B689A4210D196
:1042C000BA69BB689A4209D0BB690A3BBA689A428C
:1042D00004D0BB690A33BA689A4202D101237B62D7
:1042E00007E0FB690133FB613F4B5B6AFA699A4265
:1042F000B8DB7B6A002B40F054813B4B9B69032B5E
:1043000042D801A252F823F06D430008514300083F
:104310003543000819430008334BDB6ABA699A42F7
:1043200034D1314B1B6B0A3B7A699A422ED101235F
:104330007B622BE02C4BDB6ABA699A4228D12A4B6C
:104340001B6B0A337A699A4222D101237B621FE0F8
:10435000254BDB6A0A3BBA699A421BD1224B1B6B85
:104360007A699A4216D101237B6213E01E4BDB6A05
:104370000A33BA699A420FD11B4B1B6B7A699A4276
:104380000AD101237B6207E000BF06E000BF04E022
:1043900000BF02E000BF00E000BF7B6A002B40F0DE
:1043A0000281124B03F58053D3F87437012B23D1CC
:1043B0000F4B1B68BA699A4239D10E4B1B687A6958
:1043C0009A4200F0F2807B69A3F10A02094B1B6854
:1043D0009A4200F0EA807B6903F10A02054B1B68F0
:1043E0009A4224D1E1E000BFF0010020BC1100207E
:1043F0009400002098000020704B1B687A699A4254
:1044000015D16F4B1B68BA699A4200F0D080BB6926
:10441000A3F10A026A4B1B689A4200F0C880BB698C
:1044200003F10A02664B1B689A4200F0C080654B9C
:1044300003F58053D3F87027624913465B00134499
:104440009B000B44BA691A605E4B03F58053D3F8A6
:1044500070275C4913465B0013449B000B440433F4
:104460007A691A60BB6998B27B6999B2BB699BB2E1
:1044700009339AB27B699BB209339BB24BF6404435
:104480000094FDF71DFB4F4B03F58053D3F87437B1
:10449000012B34D1BB6998B27B699BB20A3399B2C4
:1044A000BB699BB209339AB27B699BB213339BB24F
:1044B0004BF640440094FDF703FBBB6998B27B695F
:1044C0009BB20A3B99B2BB699BB209339AB27B6932
:1044D0009BB2013B9BB24BF640440094FDF7F0FACF
:1044E000384B03F58053D3F87027364913465B00E9
:1044F00013449B000B44083301221A6033E0BB696C
:104500009BB20A3398B27B6999B2BB699BB21333F1
:104510009AB27B699BB209339BB24BF6404400943C
:10452000FDF7CEFABB699BB20A3B98B27B6999B2A0
:10453000BB699BB2013B9AB27B699BB209339BB2C8
:104540004BF640440094FDF7BBFA1E4B03F5805335
:10455000D3F870271B4913465B0013449B000B44A0
:10456000083300221A60174B03F58053D3F87037D5
:104570000133144A02F58052C2F87037114B03F52B
:104580008053D3F87437002B0CBF01230023DBB218
:104590001A460C4B03F58053C3F874270AE000BF9A
:1045A00031E500BF2FE500BF2DE500BF2BE500BFC3
:1045B00029E500BF2C37BD4690BD00BF9800002004
:1045C00094000020BC11002080B500AF024803F029
:1045D00071FE00BF80BD00BFC029002080B483B041
:1045E00000AF0346FB80084AFB881380064B1A88FD
:1045F000064B1A80064B00221A8000BF0C37BD46BE
:104600005DF8047B704700BF42290020402900204C
:104610003E29002080B483B000AF0346FB80FB88B6
:104620004FF47A7202FB03F3074A1360064B1B68D0
:10463000064A1360064B00221A8000BF0C37BD46A5
:104640005DF8047B704700BF4C29002048290020FA
:104650004429002080B483B000AF0346FB80084AA1
:10466000FB881380064B1A88064B1A80064B0022E3
:104670001A8000BF0C37BD465DF8047B704700BF51
:1046800054290020522900205029002080B483B0F2
:1046900000AF0346FB80084AFB881380064B1A884C
:1046A000064B1A80064B00221A8000BF0C37BD460D
:1046B0005DF8047B704700BF5A290020582900206C
:1046C0005629002080B483B000AF0346FB80084A1F
:1046D000FB881380064B1A88064B1A80064B002273
:1046E0001A8000BF0C37BD465DF8047B704700BFE1
:1046F000602900205E2900205C29002080B483B05E
:1047000000AF0346FB80084AFB881380064B1A88DB
:10471000064B1A80064B00221A8000BF0C37BD469C
:104720005DF8047B704700BF3C2900203A29002037
:104730003829002080B582B000AF78607B681B68A4
:10474000B3F1804F76D13D4B1B88002B10D03B4BF3
:104750001B88013B9AB2394B1A80384B1B88002BBF
:1047600006D1374B01221A80364B1A88334B1A80F8
:10477000354B1B88002B10D0334B1B88013B9AB262
:10478000314B1A80304B1B88002B06D12F4B012256
:104790001A802F4B1A882C4B1A802E4B1B68002B2B
:1047A0000BD02C4B1B68013B2A4A1360294B1B681A
:1047B000002B02D1284B01221A80284B1B88002B8A
:1047C0000CD0264B1B88013B9AB2244B1A80234BFA
:1047D0001B88002B02D1224B01221A80214B1B88FF
:1047E000002B10D01F4B1B88013B9AB21D4B1A8027
:1047F0001C4B1B88002B06D11B4B01221A801B4B24
:104800001A88184B1A801A4B1B88002B10D0184B93
:104810001B88013B9AB2164B1A80154B1B88002B44
:1048200006D1144B01221A80134B1A88104B1A80A0
:10483000FDF79AFD00BF0837BD4680BD4029002026
:104840003E290020422900203A2900203829002052
:104850003C2900204829002044290020522900201A
:104860005029002058290020562900205A290020CC
:104870005E2900205C2900206029002080B500AF5F
:10488000174B184A1A60164B4FF482725A60144B39
:1048900000229A60124B0022DA60114B00221A614A
:1048A0000F4B00225A610E4B4FF400729A610C4B71
:1048B0000022DA610A4B00221A62094B00225A6276
:1048C000074B00229A62064B0A22DA62044802F081
:1048D000B1FE0346002B01D0FDF770FF00BF80BD85
:1048E000642900200030014080B58AB000AF7860B4
:1048F00007F1140300221A605A609A60DA601A61A4
:104900007B681B68194A93422BD100233B61184BEB
:104910005B6C174A43F480535364154B5B6C03F490
:1049200080533B613B690023FB60114B1B6B104ABA
:1049300043F0020313630E4B1B6B03F00203FB6097
:10494000FB6838237B610223BB610023FB610323E7
:104950003B6205237B6207F114031946054802F008
:104960001BF800BF2837BD4680BD00BF00300140A6
:10497000003802400004024090B593B004AF002319
:104980003B603B1D2E220021184605F03FFA002017
:10499000FDF764F8324B1B6898B2324B1B6899B232
:1049A000314B1B689AB2314B1B689BB2304C009460
:1049B000FDF75EFA002302931823019348F2304377
:1049C00000934FF6FF732B4A37213C20FDF72AFC5A
:1049D000002302931823019348F2304300934FF6CB
:1049E000FF73254A64212820FDF71CFC4FF6FF7356
:1049F0000093B423B42296213C20FDF732F91F4BDB
:104A00001B881846FDF7E0FE78633B46796B184635
:104A100005F0A4FA3A4601230293182301934FF4B8
:104A2000784300934FF6FF7398210020FDF75EFC5A
:104A3000002302931823019348F2304300934FF66A
:104A4000FF730F4AE6215020FDF7ECFB0023002204
:104A50000021002001F012FB00BF3C37BD4690BD95
:104A600074000020780000207C00002080000020DE
:104A7000D0E7000834B5000844B50008A4010020C0
:104A800054B5000880B582B002AF0023009340F215
:104A90004B13DD22BE21B420FDF712F800BFBD4646
:104AA00080BD000090B583B002AFFFF7EBFF234B52
:104AB0001B6898B2224B1B6899B2224B1B689AB2B2
:104AC000214B1B689BB24FF6FF740094FDF745F82D
:104AD0001C4B1B6898B21C4B1B6899B2174B1B6888
:104AE0009CB2194B1B689BB25B009AB2144B1B68BB
:104AF0009BB2D31A9BB24FF6FF7200922246FDF78B
:104B00002CF80E4B1B6898B20D4B1B6899B20B4BDF
:104B10001B689CB20C4B1B689BB25B009AB2084BA3
:104B20001B689BB2D31A9BB24FF6FF7200922246CB
:104B3000FDF713F800BF0437BD4690BD0800002004
:104B400010000020040000200C00002080B584B07C
:104B500004AF994BDB88012B17D1984B01221A60C7
:104B6000974B1B68052B09D0052B11DC032B0ED0AE
:104B7000042B0DD1924B03221A6009E0904B0422C2
:104B80001A60904B00221A6002E000BF00E000BFF4
:104B9000894BDB89012B18D1884B01221A60884B85
:104BA0001B68052B13D0052B12DC032B02D0042B22
:104BB00007D00DE0824B04221A60824B01221A605A
:104BC00006E07F4B05221A6002E000BF00E000BF54
:104BD0007A4B1B68012B40F04D81794B1B68052BEC
:104BE00000F0FC80052B00F34281032B02D0042B44
:104BF0004FD03CE1744BD2221A60744BBE221A6033
:104C0000002300934FF4A073F022B4210020FCF79E
:104C100057FF002302931823019348F23043009377
:104C20004FF478436A4AC8210A20FDF7FBFA0023B3
:104C300002931823019348F2304300934FF6FF7319
:104C4000644AFA210A20FDF7EDFA4FF6FF7300934C
:104C50004FF4967382224FF496716E20FCF77DFF1D
:104C60004FF6FF7300934FF49B7378224FF49671C5
:104C70006E20FCF772FF4FF6FF7300934FF49673AC
:104C800082224FF49B717820FCF767FFFFF70AFF41
:104C9000EDE0002300934FF4A073F022B421002034
:104CA000FCF70EFF474B1B68002B3DD1464BD22231
:104CB0001A60464BBE221A60002302931823019308
:104CC00048F2304300934FF47843424AC8210A2007
:104CD000FDF7A8FA002302931823019348F230430A
:104CE00000934FF6FF733C4AFA210A20FDF79AFA27
:104CF0004FF6FF730093BE238222BE216E20FCF785
:104D00002CFF4FF6FF730093B4237822BE216E2050
:104D1000FCF723FF4FF6FF730093BE238222B421DA
:104D20007820FCF71AFF43E0274B4FF482721A6099
:104D3000264BF0221A60002302931823019348F2B5
:104D4000304300934FF6FF73214AC8210A20FDF734
:104D500069FA002302931823019348F23043009329
:104D60004FF478431B4AFA210A20FDF75BFA4FF60D
:104D7000FF7300934FF4967382224FF496716E2066
:104D8000FCF7EBFE4FF6FF7300934FF49B73782212
:104D90004FF496716E20FCF7E0FE4FF6FF73009320
:104DA0004FF4967382224FF49B717820FCF7D5FE66
:104DB000FFF778FE5BE000BF2C010020B40100206B
:104DC00014000020B00100200C0000201000002082
:104DD0005CB500086CB500087CB50008274B4FF4A3
:104DE00082721A60264BF0221A60002300934FF45F
:104DF000A073F022B4210020FCF762FE002302938E
:104E00001823019348F2304300934FF6FF731D4A75
:104E1000C8210A20FDF706FA002302931823019304
:104E200048F2304300934FF47843174AFA210A209E
:104E3000FDF7F8F94FF6FF730093BE238222BE21DF
:104E40006E20FCF78AFE4FF6FF730093B42378229E
:104E5000BE216E20FCF781FE4FF6FF730093BE2348
:104E60008222B4217820FCF778FEFFF71BFE074B67
:104E700000221A6000BFBD4680BD00BF0C000020AC
:104E8000100000206CB500087CB50008B4010020BB
:104E900090B595B004AF0346FB800020FCF7DEFD23
:104EA0004E4B1B6898B24E4B1B6899B24D4B1B681A
:104EB0009AB24D4B1B689BB24C4C0094FCF7D8FF48
:104EC000002302931823019348F2304300934FF6D6
:104ED000FF73474A37213C20FDF7A4F9454A07F103
:104EE000080392E8030018600433198007F10E03E9
:104EF0002C220021184604F089FFFB881846FDF794
:104F000063FCF86307F10803F96B184605F026F80F
:104F100007F10802002302931823019348F230435B
:104F200000934FF6FF7364210020FDF7DFF90023A3
:104F300002931823019348F2304300934FF6FF7316
:104F40002D4A96210020FDF7D1F900230293182362
:104F5000019348F2304300934FF47843274AC82125
:104F60000A20FDF75FF9002302931823019348F20A
:104F7000304300934FF6FF73214AFA210A20FDF7D0
:104F800051F9204BD2221A601F4BBE221A60FFF744
:104F900089FD4FF6FF7300934FF4967382224FF40E
:104FA00096716E20FCF7D9FD4FF6FF7300934FF416
:104FB0009B7378224FF496716E20FCF7CEFD4FF66E
:104FC000FF7300934FF4967382224FF49B71782005
:104FD000FCF7C3FD00BF4437BD4690BD7400002000
:104FE000780000207C00002080000020D0E700082E
:104FF00034B5000894B500088CB500085CB500080D
:105000006CB500080C0000201000002080B594B0A2
:1050100004AF9D4B9B8B012B40F0BC819B4B1B68CD
:105020000A2B00F2B98101A252F823F0595000086E
:105030007F500008975000089953000899530008C2
:1050400099530008B5520008995100080B51000807
:1050500049510008295300088C4B01221A608C4BDF
:1050600000221A808B4B00221A808B4B03221A607D
:105070008A4B40F2E7321A80FFF77EFC91E1884BC1
:1050800000221A80814B02221A60814B1B8818462D
:10509000FFF7FEFE85E1804B1B68052B28D0052B12
:1050A00000F37C81032B02D0042B15D076E17D4BDD
:1050B00003221A60754B03221A60754B1B88754AD0
:1050C000128811461846FDF7BBFB4FF47A70FFF7C4
:1050D000F9FAFEF7BFFD17E0724B04221A606F4B1E
:1050E0001E221A80694B08221A6000F0D3FE0BE0E2
:1050F0006C4B05221A60694B1E221A80634B0922F1
:105100001A60FBF73FFA00BF48E1644B1B88184662
:10511000FFF780FA4FF47A70FFF79CFA5F4B1A881A
:10512000614B1A80594B04221A60594B1B885B4A09
:10513000128811461846FDF73BFC4FF47A70FFF7D2
:10514000C1FAFEF787FD2CE1544B1B881846FFF788
:1051500061FA4FF47A70FFF77DFA4FF4FA60FFF7C7
:1051600095FA524B00221A804C4B1A884E4B1A80EB
:10517000464B05221A60464B1B88484A1288114646
:105180001846FDF7CBFC4FF47A70FFF79BFAFEF759
:105190008DFCFEF75FFD04E1454B1B68002B5FD1E2
:1051A000404B1B68394A13603A4B00221A80374B38
:1051B0001B68052B30D0052B00F3F280032B02D0A7
:1051C000042B0ED0ECE0374B03221A60304B1B88C7
:1051D000304A128811461846FDF732FBFEF73AFDB9
:1051E00051E0304B04221A602F4B1A882B4B1A8047
:1051F0002A4B1B881846FFF70DFA4FF47A70FFF719
:1052000029FA234B1B88254A128811461846FDF7B8
:10521000CFFBFEF71FFD36E0224B05221A60224B22
:105220001A881E4B1A801D4B1B881846FFF7F2F98F
:105230004FF47A70FFF70EFA4FF4FA60FFF726FA90
:105240001A4B00221A80124B1B88144A12881146EE
:105250001846FDF763FCFEF7FDFCFEF727FC12E0A5
:105260000A4B01221A600A4B00221A80094B0022C5
:105270001A80094B03221A60084B40F2E7321A8069
:10528000FFF77AFB8CE08BE02C010020B8010020B6
:10529000A4010020A601002014000020000000202E
:1052A000D0010020BC010020CC01002056290020A4
:1052B000AC010020AF4B1B68022B22D1AE4B1B6808
:1052C000AE4A13604FF47A70FFF7FCF9AB4B1B68E2
:1052D000042B03D0A94B1B68052B0FD1A84B1B88AF
:1052E0001846FFF797F94FF47A70FFF7B3F94FF4C8
:1052F000FA60FFF7CBF9A34B00221A80FEF736F9CC
:105300004FE09E4B01221A609F4B00221A809F4B58
:1053100000221A809E4B03221A60994B40F2E7321A
:105320001A80FFF729FB3CE09A4B1B68032B12D134
:10533000924B01221A60944B00221A80934B002258
:105340001A80934B03221A608D4B40F2E7321A8089
:10535000FFF712FB20E0884B1B68884A1360874BDD
:105360001B68042B03D0854B1B68052B0FD1844B86
:105370001B881846FFF74EF94FF47A70FFF76AF969
:105380004FF4FA60FFF782F97E4B00221A80FEF795
:10539000EDF801E000BF04E000BF02E000BF00E064
:1053A00000BF764B1B68012B40F05F8100237B60C0
:1053B00007F108032E220021184604F027FD724B46
:1053C0001B88FB870023BB874BE1BB8F724A32F8F7
:1053D0001330012B40F04281BB8F0D2B00F21A815C
:1053E00001A252F823F000BF215400084D540008D8
:1053F000795400085B560008A5540008CD540008F5
:10540000F55400085B5600081D5500084955000872
:105410009D5500085B560008C9550008F355000863
:10542000FB8F1A46920013445B009AB2BB8F134461
:105430009BB20133FB87FB8F1846FDF7C5F9B863B4
:105440003B1DB96B184604F089FDE3E0FB8F1A465B
:10545000920013445B009AB2BB8F13449BB201339A
:10546000FB87FB8F1846FDF7AFF9B8633B1DB96B9F
:10547000184604F073FDCDE0FB8F1A4692001344EA
:105480005B009AB2BB8F13449BB20133FB87FB8F47
:105490001846FDF799F9B8633B1DB96B184604F03F
:1054A0005DFDB7E0FB8F1A46920013445B009AB291
:1054B000BB8F1344FB87FB8F1846FDF785F9B86354
:1054C0003B1DB96B184604F049FDA3E0FB8F1A465B
:1054D000920013445B009AB2BB8F1344FB87FB8F8F
:1054E0001846FDF771F9B8633B1DB96B184604F017
:1054F00035FD8FE0FB8F1A46920013445B009AB291
:10550000BB8F1344FB87FB8F1846FDF75DF9B8632B
:105510003B1DB96B184604F021FD7BE0FB8F1A465A
:10552000920013445B009AB2BB8F13449BB2013BC1
:10553000FB87FB8F1846FDF747F9B8633B1DB96B36
:10554000184604F00BFD65E0FB8F1A4692001344E9
:105550005B009AB2BB8F13449BB2013BFB87FB8F6E
:105560001846FDF731F9B8633B1DB96B184604F0D6
:10557000F5FC4FE05C000020BC010020B8010020D9
:105580000000002056290020A4010020A6010020D0
:1055900014000020600000202C010020FB8F1A4620
:1055A000920013445B009AB2BB8F13449BB2013B41
:1055B000FB87FB8F1846FDF707F9B8633B1DB96BF6
:1055C000184604F0CBFC25E0404BDBB287F83630C0
:1055D000FB8F3F4AA2FB0323DB08FB87FB8F1846A8
:1055E000FDF7F2F8B8633B1DB96B184604F0B6FC42
:1055F00010E0FB8F1A46920013445B00FB87FB8F81
:105600001846FDF7E1F8B8633B1DB96B184604F086
:10561000A5FC00BF00230093B423B42296213C20B4
:10562000FCF74EFA4FF6FF730093B423B422962191
:105630003C20FCF716FB3A1D01230293182301932B
:105640004FF4784300934FF6FF7398210020FCF746
:105650004DFE204AFB8F138000E000BFBB8F01335B
:10566000BB87BB8F0D2B7FF6B0AE1B4B1B68082B87
:1056700001D100F063FD184B1B68092B01D1FBF72A
:1056800003F9154B1B68012B0ED0134B1B68022B23
:1056900001D1FFF75BFA114B1B8B012B04D10E4B91
:1056A0000A221A60FBF7D2FB0B4B1B68042B09D0B4
:1056B000094B1B68052B05D00020FEF7CBFF00200F
:1056C000FEF7E4FF00BF4037BD4680BDC8B5000807
:1056D000CDCCCCCCA4010020B80100202C010020AE
:1056E00080B483B000AF00237B60104B5B6C0F4A2B
:1056F00043F4804353640D4B5B6C03F480437B6045
:105700007B6800233B60094B1B6C084A43F08053C5
:105710001364064B1B6C03F080533B603B6800BF77
:105720000C37BD465DF8047B704700BF003802406F
:1057300080B400AFFEE780B400AFFEE780B400AFF6
:10574000FEE780B400AFFEE780B400AFFEE780B4B0
:1057500000AF00BFBD465DF8047B704780B400AF6A
:1057600000BFBD465DF8047B704780B400AF00BF4A
:10577000BD465DF8047B704780B500AF00F024FFA4
:1057800000BF80BD80B500AF024802F003FE00BF3D
:1057900080BD00BFC029002080B500AF024803F0E3
:1057A000CBFA00BF80BD00BF0C2A002080B584B0BA
:1057B00004AF254B1B689BB20A3399B200230293B6
:1057C00010230193002300934FF6FF731F4A00201C
:1057D000FCF78CFD1E4B1B689BB2083398B21A4B2A
:1057E0009A68194B1B681344DA0F13445B109BB281
:1057F000143B99B2012302931023019348F23043E2
:1058000000930023134AFCF70DFD114B1B689BB25C
:10581000083398B20C4B9A680B4B1B681344DA0F91
:1058200013445B109BB20F3399B2012302931023F0
:10583000019348F2304300930023074AFCF7F2FC3F
:1058400000BFBD4680BD00BF4C000020CCB50008A5
:105850003C000020DCB50008E4B5000890B587B036
:1058600004AF874B9A68864B1B681344DA0F1344C6
:105870005B10083B7B60824B9A68814B1B6813442A
:10588000DA0F13445B101C333B607E4B1B68012B0B
:105890007AD0022B40F0F080FBF7B2FC7A4B1B6809
:1058A0009BB2083398B2764B9A68754B1B681344C9
:1058B000DA0F13445B109BB2143B99B2012302939D
:1058C0001023019348F2304300934FF478436F4A1A
:1058D000FCF7A8FC6C4B1B689BB2083398B2684B72
:1058E0009A68674B1B681344DA0F13445B109BB232
:1058F0000F3399B2012302931023019348F23043EE
:1059000000930023624AFCF78DFC5F4B5B689BB2FF
:105910000F3B98B27B6899B25B4B5B689BB20A3BCA
:105920009AB27B689BB2053B9BB200240094FCF7C3
:1059300014F9554B5B689BB20F3B98B27B6899B2E8
:10594000514B5B689BB20A3B9AB27B689BB20533B2
:105950009BB200240094FCF700F94B4B5B689BB2B0
:105960000A3B98B27B689BB2053B99B2464B5B6899
:105970009BB20A3B9AB27B689BB205339BB2002470
:105980000094FCF7EAF877E0FBF73AFC3E4B1B6823
:105990009BB2083398B23A4B9A68394B1B68134450
:1059A000DA0F13445B109BB2143B99B201230293AC
:1059B0001023019348F2304300930023334AFCF74D
:1059C00031FC314B1B689BB2083398B22C4B9A6860
:1059D0002B4B1B681344DA0F13445B109BB20F333D
:1059E00099B2012302931023019348F230430093AC
:1059F0004FF47843264AFCF715FC234B5B689BB2B7
:105A00000F3B98B23B6899B21F4B5B689BB20A3B55
:105A10009AB23B689BB2053B9BB200240094FCF712
:105A20009CF8194B5B689BB20F3B98B23B6899B2EC
:105A3000154B5B689BB20A3B9AB23B689BB205333D
:105A40009BB200240094FCF788F80F4B5B689BB274
:105A50000A3B98B23B689BB2053B99B20A4B5B6824
:105A60009BB20A3B9AB23B689BB205339BB20024BF
:105A70000094FCF772F800BF00BF0C37BD4690BD24
:105A80004C0000205C0000203C000020DCB5000839
:105A9000E4B5000880B500AFFBF7AEFAFFF786FE6D
:105AA000FFF7DCFE00BF80BD80B500AF1C4B1B685C
:105AB000062B33D11B4BDB88012B0FD11A4B012254
:105AC0001A601A4B1B68012B02D0022B07D125E06C
:105AD000164B02221A60FFF7DDFF00E000BF114BFA
