:020000040800F2
:1000000000000220DD5D00081154000817540008AC
:100010001D54000823540008295400080000000063
:100020000000000000000000000000002F54000845
:100030003D540008000000004B54000859540008CB
:100040002D5E00082D5E00082D5E00082D5E000864
:100050002D5E00082D5E00082D5E00082D5E000854
:100060002D5E00082D5E00082D5E00082D5E000844
:100070002D5E00082D5E00082D5E00082D5E000834
:100080002D5E00082D5E00082D5E00082D5E000824
:100090002D5E00082D5E00082D5E00082D5E000814
:1000A0002D5E00082D5E00082D5E00082D5E000804
:1000B000655400082D5E00082D5E00082D5E0008C6
:1000C0002D5E00082D5E00082D5E00082D5E0008E4
:1000D0002D5E00082D5E00082D5E00082D5E0008D4
:1000E0002D5E00082D5E00082D5E00082D5E0008C4
:1000F0002D5E00082D5E00082D5E00082D5E0008B4
:100100002D5E00082D5E00082D5E00082D5E0008A3
:100110002D5E00082D5E00082D5E00082D5E000893
:100120002D5E00082D5E00082D5E00082D5E000883
:100130002D5E00082D5E00082D5E00082D5E000873
:100140002D5E00082D5E00082D5E00082D5E000863
:100150002D5E00082D5E00082D5E00082D5E000853
:100160002D5E00082D5E00082D5E00082D5E000843
:100170002D5E00082D5E00082D5E000800000000C6
:080180002D5E00082D5E000851
:1001900010B5054C237833B9044B13B10448AFF3C1
:1001A00000800123237010BD140100200000000016
:1001B0009C99000808B5034B1BB103490348AFF3F2
:1001C000008008BD00000000180100209C99000874
:1001D000034613F8012B002AFBD1181A0138704787
:1001E00001F0FF01102A2BDB10F0070F08D010F8E8
:1001F000013B013A8B422DD010F0070F42B3F6D1EC
:10020000F0B441EA012141EA014122F007047FF004
:1002100000070023F0E80256083C85EA010586EA5B
:10022000010685FA47F5A3FA87F586FA47F6A5FA97
:1002300087F68EB9EED1F0BC01F0FF0102F00702A3
:1002400032B110F8013B013A83EA010313B1F8D14E
:100250000020704701387047002D06BF354603382F
:10026000073815F0010F07D1013015F4807F02BF68
:10027000013015F4C03F0130F0BC0138704700BFB9
:1002800053B94AB9002908BF00281CBF4FF0FF31FD
:100290004FF0FF3000F074B9ADF1080C6DE904CEF9
:1002A00000F006F8DDF804E0DDE9022304B0704751
:1002B0002DE9F047089D04468E46002B4DD18A4219
:1002C000944669D9B2FA82F252B101FA02F3C2F14C
:1002D000200120FA01F10CFA02FC41EA030E9440DD
:1002E0004FEA1C48210CBEFBF8F61FFA8CF708FBFE
:1002F00016E341EA034306FB07F199420AD91CEBD6
:10030000030306F1FF3080F01F81994240F21C8107
:10031000023E63445B1AA4B2B3FBF8F008FB10334F
:1003200044EA034400FB07F7A7420AD91CEB040484
:1003300000F1FF3380F00A81A74240F20781644454
:10034000023840EA0640E41B00261DB1D4400023D9
:10035000C5E900433146BDE8F0878B4209D9002D3D
:1003600000F0EF800026C5E9000130463146BDE8C7
:10037000F087B3FA83F6002E4AD18B4202D3824231
:1003800000F2F980841A61EB030301209E46002DE0
:10039000E0D0C5E9004EDDE702B9FFDEB2FA82F235
:1003A000002A40F09280A1EB0C014FEA1C471FFA93
:1003B0008CFE0126200CB1FBF7F307FB131140EA7A
:1003C00001410EFB03F0884208D91CEB010103F147
:1003D000FF3802D2884200F2CB804346091AA4B209
:1003E000B1FBF7F007FB101144EA01440EFB00FEDD
:1003F000A64508D91CEB040400F1FF3102D2A64542
:1004000000F2BB800846A4EB0E0440EA03409CE7E0
:10041000C6F12007B34022FA07FC4CEA030C20FA8D
:1004200007F401FA06F31C43F9404FEA1C4900FAAD
:1004300006F3B1FBF9F8200C1FFA8CFE09FB18112A
:1004400040EA014108FB0EF0884202FA06F20BD99D
:100450001CEB010108F1FF3A80F08880884240F2ED
:100460008580A8F102086144091AA4B2B1FBF9F031
:1004700009FB101144EA014100FB0EFE8E4508D92C
:100480001CEB010100F1FF346CD28E456AD90238B1
:10049000614440EA0840A0FB0294A1EB0E01A14296
:1004A000C846A64656D353D05DB1B3EB080261EB04
:1004B0000E0101FA07F722FA06F3F1401F43C5E9DE
:1004C000007100263146BDE8F087C2F12003D84014
:1004D0000CFA02FC21FA03F3914001434FEA1C4756
:1004E0001FFA8CFEB3FBF7F007FB10360B0C43EA48
:1004F000064300FB0EF69E4204FA02F408D91CEBF8
:10050000030300F1FF382FD29E422DD902386344F5
:100510009B1B89B2B3FBF7F607FB163341EA034195
:1005200006FB0EF38B4208D91CEB010106F1FF38E4
:1005300016D28B4214D9023E6144C91A46EA0046DB
:1005400038E72E46284605E70646E3E61846F8E66D
:100550004B45A9D2B9EB020864EB0C0E0138A3E7B6
:100560004646EAE7204694E74046D1E7D0467BE797
:10057000023B614432E7304609E76444023842E70F
:10058000704700BF90B595B004AF002001F03EF970
:10059000B04B1B6898B2B04B1B6899B2AF4B1B684D
:1005A0009AB2AF4B1B689BB2AE4C009401F038FB83
:1005B000002302931823019348F2304300934FF62F
:1005C000FF73A94A37213C2001F004FDA74A3B46AE
:1005D00092E80300186004331980BB1D2C2200210F
:1005E000184607F04FFFA24B1B88184601F0A8FFE2
:1005F0000346FB633B46F96B184607F0EBFF3A46B0
:10060000002302931823019348F2304300934FF6DE
:10061000FF736421002001F041FD002302931823A1
:10062000019348F2304300934FF6FF73914A9621AD
:10063000002001F033FD002302931823019348F2B8
:10064000304300934FF6FF738B4AD721142001F0FB
:10065000C1FC4FF6FF730093F023C822D2219620ED
:1006600001F0D7F9854B1B88184601F069FF034656
:10067000BB63824B1B88772B0ED801230293182370
:10068000019348F2304300934FF6FF73BA6BD421C5
:10069000A52001F09FFC0DE0012302931823019394
:1006A00048F2304300934FF6FF73BA6BD4219D207C
:1006B00001F090FC714B1B88772B1AD84FF6FF7313
:1006C0000093DC23E122DC21CD2001F01EF94FF65E
:1006D000FF730093D223D722DC21CD2001F015F93E
:1006E0004FF6FF730093D223D722DC21E12001F0E3
:1006F0000CF9624B1B881E2B1AD94FF6FF7300931F
:10070000E623E122E621CD2001F0FFF84FF6FF734A
:100710000093F023D722E621CD2001F0F6F84FF622
:10072000FF730093F023D722E621E12001F0EDF8DA
:10073000002302931823019348F2304300934FF6AD
:10074000FF734F4A40F20911142001F043FC4FF6A9
:10075000FF7300934FF49173C8224FF48271962077
:1007600001F057F9474B1B88184601F0E9FE034694
:100770007B63444B1B88092B0FD80123029318235A
:10078000019348F2304300934FF6FF737A6B40F2C7
:100790000911AA2001F01EFC0EE001230293182388
:1007A000019348F2304300934FF6FF737A6B40F2A7
:1007B0000911A52001F00EFC324B1B881D2B20D8FF
:1007C0004FF6FF7300934FF48773E1224FF4877164
:1007D000CD2001F09AF84FF6FF7300934FF4827327
:1007E000D7224FF48771CD2001F08FF84FF6FF73B9
:1007F00000934FF48273D7224FF48771E12001F008
:1008000084F8204B1B88002B20D04FF6FF730093F9
:100810004FF48C73E1224FF48C71CD2001F075F808
:100820004FF6FF7300934FF49173D7224FF48C71FE
:10083000CD2001F06AF84FF6FF7300934FF49173E7
:10084000D7224FF48C71E12001F05FF800BF4437EC
:10085000BD4690BD74000020780000207C00002080
:1008600080000020C4CB0008B4990008E499000877
:10087000A8010020C4990008D499000800000020B5
:10088000DC990008AC01002080B500AF234BDB8869
:10089000012B0ED1224B1B881E339AB2204B1A809B
:1008A0001F4B1B88782B02D91D4B78221A80FFF72B
:1008B00069FE1A4BDB89012B0ED1194B1B881E3B9D
:1008C0009AB2174B1A80164B1B881D2B02D8144B5B
:1008D0001E221A80FFF756FE104BDB8A012B0ED129
:1008E000104B1B8805339AB20E4B1A800D4B1B8898
:1008F0001E2B02D90B4B1E221A80FFF743FE074B1B
:10090000DB8B012B07D1074B1B88053B9AB2054BAC
:100910001A80FFF737FE00BF80BD00BF3001002006
:1009200000000020AC01002080B500AF01220821AA
:10093000024805F0C1FD00BF80BD00BF000C0240B1
:1009400080B584B000AF002208212F4805F0B4FD27
:10095000012208212C4805F0AFFD0A2302222B4971
:100960002B4806F0ECFB0023FB604FF400437B8137
:1009700000237B603FE07B68002B06DB7B68032B5A
:1009800003DC7B680433FB6018E07B68032B07DD26
:100990007B68072B04DC7B68C3F10703FB600DE079
:1009A0007B68072B06DD7B680B2B03DC7B6804333D
:1009B000FB6003E07B68C3F11703FB60134B1A88ED
:1009C0007B8913409BB2002B05D0124AFB680021A3
:1009D00022F8131009E00F4AFB6832F81330013394
:1009E00099B20C4AFB6822F813107B895B087B8163
:1009F0007B6801337B607B680F2BBCDD00BF00BFD1
:100A00001037BD4680BD00BF000C024050010020E1
:100A10004C2900203001002080B584B004AF2D4B5C
:100A20001B689BB2053399B20023029310230193F4
:100A3000002300934FF6FF73274A002001F02EFB9E
:100A4000244B1B689BB2143399B2002302931023EA
:100A50000193002300934FF6FF73204A002001F01A
:100A60001DFB1F4B1B689BB2083398B2194B9A6849
:100A7000184B1B681344DA0F13445B109BB2143BF2
:100A800099B2012302931023019348F2304300935B
:100A90000023144A01F09EFA114B1B689BB20833E5
:100AA00098B20C4B9A680B4B1B681344DA0F134433
:100AB0005B109BB2193399B2012302931023019367
:100AC00048F2304300930023074A01F083FA00BF45
:100AD000BD4680BD4C000020189A0008249A0008EA
:100AE0003C000020309A0008349A000890B587B086
:100AF00004AF584B9A68574B1B681344DA0F1344E2
:100B00005B10083B7B60534B9A68524B1B68134445
:100B1000DA0F13445B101C333B604F4B1B68032BF5
:100B200003D0042B00F0A28035E14C4B1B689AB235
:100B30004B4B1B689BB2134498B2464B1B689BB24D
:100B4000233399B2454B5B689AB2454B1B689BB205
:100B5000D31A9AB23F4BDB689BB2053B9BB248F27B
:100B60003044009400F084FE3C4B1B689BB2083379
:100B700098B2384B9A68374B1B681344DA0F13440A
:100B80005B109BB20F3B99B2012302931023019398
:100B900048F2304300934FF47843324A01F01AFA96
:100BA0002E4B1B689BB2083398B22A4B9A68294B8C
:100BB0001B681344DA0F13445B109BB2143399B2D1
:100BC000012302931023019348F230430093002342
:100BD000254A01F0FFF9214B5B689BB20F3B98B2AD
:100BE0007B6899B21D4B5B689BB20A3B9AB27B68EB
:100BF0009BB2053B9BB20024009400F086FE174B8D
:100C00005B689BB20F3B98B27B6899B2134B5B68F1
:100C10009BB20A3B9AB27B689BB205339BB200241D
:100C2000009400F072FE0D4B5B689BB20A3B98B2D9
:100C30007B689BB2053B99B2084B5B689BB20A3B51
:100C40009AB27B689BB205339BB20024009400F0FB
:100C50005CFEA0E04C000020600000203C00002072
:100C600038000020309A0008349A00084C4B1B686A
:100C70009AB24C4B1B689BB2134498B24A4B1B6808
:100C80009BB2233399B2464B5B689AB2454B1B68C3
:100C90009BB2D31A9AB2444BDB689BB2053B9BB222
:100CA00048F23044009400F0E3FD3D4B1B689BB2DA
:100CB000083398B23C4B9A683B4B1B681344DA0FDD
:100CC00013445B109BB20F3B99B201230293102394
:100CD000019348F2304300930023344A01F07AF93B
:100CE0002F4B1B689BB2083398B22F4B9A682E4B40
:100CF0001B681344DA0F13445B109BB2143399B290
:100D0000012302931023019348F2304300934FF4E0
:100D10007843274A01F05EF9214B5B689BB20F3B99
:100D200098B23B6899B21E4B5B689BB20A3B9AB281
:100D30003B689BB2053B9BB20024009400F0E5FDAC
:100D4000174B5B689BB20F3B98B23B6899B2144B50
:100D50005B689BB20A3B9AB23B689BB205339BB27D
:100D60000024009400F0D1FD0D4B5B689BB20A3B60
:100D700098B23B689BB2053B99B2094B5B689BB24A
:100D80000A3B9AB23B689BB205339BB200240094A5
:100D900000F0BBFD00BF00BF0C37BD4690BD00BFDB
:100DA0003C000020380000204C000020309A000851
:100DB000349A000880B500AF00F01EF9FFF72CFE52
:100DC000FFF794FE00BF80BD80B500AF1B4B1B68D2
:100DD0000A2B31D11A4BDB88012B0CD1194B012284
:100DE0001A60194B1B68032B23D0042B04D1164B1C
:100DF00003221A6000E000BF114BDB89012B0DD1EB
:100E0000104B01221A60104B1B68032B02D0042BDD
:100E100011D004E00C4B04221A6000E000BF094B23
:100E20001B68012B08D1FFF7C5FF064B00221A6093
:100E300002E000BF00E000BF80BD00BFBC01002099
:100E400030010020CC0100206000002080B500AF00
:100E5000FFF7B0FF00BF80BD80B58EB000AF07F1D7
:100E60001C0300221A605A609A60DA601A615A61A3
:100E70009A613B4600221A605A609A60DA601A61F1
:100E80005A619A612F4B4FF020421A602D4B2E4A27
:100E90005A602C4B00229A602A4B0022DA60294BC0
:100EA00000221A61274B10225A61264B00229A61B8
:100EB000244B0022DA61234B00221A62214B0022CC
:100EC0005A62204B4FF480529A621E4B0022DA6223
:100ED0001C4B4FF480421A631A4B00225A63194B81
:100EE00000229A63174B00225A640F23FB610F23E1
:100EF0003B623C237B620023BB621023FB62112315
:100F00003B6300237B6308233B600F237B60092343
:100F1000BB600023FB6010233B6111237B61002336
:100F2000BB613A4607F11C031946064806F0EAFC85
:100F30000346002B01D001F0FDFA00BF3837BD4653
:100F400080BD00BF54010020040100A080B586B020
:100F500000AF3B1D00221A605A609A60DA601A6185
:100F60001C4B1B68002B31D11A4B01221A60002345
:100F70003B60194B9B6B184A43F001039363164B7C
:100F80009B6B03F001033B603B684FF688737B600B
:100F90000223BB600023FB6003233B610C237B61C6
:100FA0003B1D19460D4805F0EBF84CF2B3737B601E
:100FB0000223BB600023FB6003233B610C237B61A6
:100FC0003B1D1946064805F0DBF800E000BF183766
:100FD000BD4680BDA4010020003802400010024040
:100FE000000C024080B582B000AF7860FFF7AEFF22
:100FF00000BF0837BD4680BD90B583B002AF384B07
:101000001B6898B2374B1B6899B2354BDB689CB2B2
:10101000344BDB689AB2344B1B689BB2D31A9BB239
:1010200048F230420092224600F022FC2C4B1B6812
:1010300098B22C4B1B6899B2294B5B689CB2294B28
:101040005B689AB2284B1B689BB213449BB2002288
:101050000092224600F00CFC214B1B6898B2214BF9
:101060001B6899B21E4B9B689AB21F4B1B689BB2C0
:1010700013449AB21B4B9B689BB20024009400F06F
:10108000F7FB174B5B689AB2174B1B689BB2D31ADE
:1010900098B2144B5B6899B2114BDB689AB2114B52
:1010A000DB689BB20024009400F0E2FB0C4B9B68D1
:1010B00098B20C4B9B689AB20B4B1B689BB2D31A2D
:1010C00099B2074BDB689AB2064BDB689BB20024EF
:1010D000009400F0CDFB00BF0437BD4690BD00BFBB
:1010E0003C0000204C0000203800002080B584B077
:1010F00004AF254B1B689BB20A3399B2234B1A6885
:101100000023029310230193002300934FF6FF73F3
:10111000002000F0C3FF1E4B1B689BB2083398B23F
:10112000194B9A68184B1B681344DA0F13445B1071
:101130009BB20F3B99B2012302931023019348F213
:10114000304300930023134A00F044FF104B1B6808
:101150009BB2083398B20C4B9A680B4B1B68134434
:10116000DA0F13445B109BB2143399B2012302933C
:101170001023019348F2304300930023064A00F005
:1011800029FF00BFBD4680BD4C0000208400002028
:101190003C000020389A0008449A000890B583B0BB
:1011A00002AF114B1B689AB2104B1B689BB21344E1
:1011B00098B20F4B1B689BB2193399B20A4B5B680C
:1011C0009AB20A4B1B689BB2D31A9AB2084BDB68DF
:1011D0009BB2053B9BB248F23044009400F048FBC0
:1011E00000BF0437BD4690BD3C0000203800002001
:1011F0004C00002090B587B004AF874B9A68864BAF
:101200001B681344DA0F13445B10083B7B60824B6E
:101210009A68814B1B681344DA0F13445B101C332C
:101220003B607E4B1B68002B02D0012B78D0EFE097
:10123000FFF7B4FF7A4B1B689BB2083398B2764B2A
:101240009A68754B1B681344DA0F13445B109BB20A
:101250000F3B99B2012302931023019348F23043CC
:1012600000934FF478436F4A00F0B4FE6C4B1B6858
:101270009BB2083398B2684B9A68674B1B6813445B
:10128000DA0F13445B109BB2143399B2012302931B
:101290001023019348F2304300930023624A00F088
:1012A00099FE5F4B5B689BB20F3B98B27B6899B22B
:1012B0005B4B5B689BB20A3B9AB27B689BB2053B77
:1012C0009BB20024009400F020FB554B5B689BB25E
:1012D0000F3B98B27B6899B2514B5B689BB20A3B5B
:1012E0009AB27B689BB205339BB20024009400F055
:1012F0000CFB4B4B5B689BB20A3B98B27B689BB282
:10130000053B99B2464B5B689BB20A3B9AB27B683D
:101310009BB205339BB20024009400F0F6FA77E00C
:10132000FFF73CFF3E4B1B689BB2083398B23A4B29
:101330009A68394B1B681344DA0F13445B109BB255
:101340000F3B99B2012302931023019348F23043DB
:1013500000930023334A00F03DFE314B1B689BB2E3
:10136000083398B22C4B9A682B4B1B681344DA0F46
:1013700013445B109BB2143399B2012302931023E0
:10138000019348F2304300934FF47843264A00F02B
:1013900021FE234B5B689BB20F3B98B23B6899B22E
:1013A0001F4B5B689BB20A3B9AB23B689BB2053B02
:1013B0009BB20024009400F0A8FA194B5B689BB222
:1013C0000F3B98B23B6899B2154B5B689BB20A3BE6
:1013D0009AB23B689BB205339BB20024009400F0A4
:1013E00094FA0F4B5B689BB20A3B98B23B689BB286
:1013F000053B99B20A4B5B689BB20A3B9AB23B68C9
:101400009BB205339BB20024009400F07EFA00BF2B
:1014100000BF0C37BD4690BD4C000020B00100203D
:101420003C000020389A0008449A000880B500AFBC
:10143000FFF7E2FDFFF75AFEFFF7DCFE00BF80BDBD
:1014400080B500AF194BDB88012B0CD1184B012262
:101450001A60184B1B68002B23D0012B04D1154BAD
:1014600000221A6000E000BF104BDB89012B0DD178
:101470000F4B01221A600F4B1B68002B02D0012B6F
:1014800011D004E00B4B01221A6000E000BF084BB2
:101490001B68012B08D1FFF7C9FF054B00221A601A
:1014A00002E000BF00E000BF80BD00BF30010020AF
:1014B000C4010020B001002080B590B000AF78607A
:1014C000124B07221A60124B00221A80114B002285
:1014D0001A60114B01221A600023FB6007F1100310
:1014E0002E220021184606F0CDFF07F10C03796883
:1014F000184607F06FF8094A07F10C031360FFF76D
:101500009FFF00BF4037BD4680BD00BFBC0100202B
:10151000AA010020B0010020C401002084000020A6
:1015200080B58CB000AF07F11C0300221A605A602E
:101530009A60DA601A610023BB616F4B1B6B6E4AC5
:1015400043F0100313636C4B1B6B03F01003BB6180
:10155000BB6900237B61684B1B6B674A43F0040344
:101560001363654B1B6B03F004037B617B690023F2
:101570003B61614B1B6B604A43F0800313635E4B1E
:101580001B6B03F080033B613B690023FB605A4BFC
:101590001B6B594A43F001031363574B1B6B03F05A
:1015A0000103FB60FB680023BB60534B1B6B524A7B
:1015B00043F008031363504B1B6B03F00803BB603D
:1015C000BB6800237B604C4B1B6B4B4A43F04003D2
:1015D0001363494B1B6B03F040037B607B68002364
:1015E0003B60454B1B6B444A43F002031363424B81
:1015F0001B6B03F002033B603B68002270213F48F5
:1016000004F05AFF00224FF400513D4804F054FF0B
:10161000002240213B4804F04FFF00224FF480712C
:10162000394804F049FF00220821384804F044FFFB
:101630007023FB6101233B6200237B620023BB62BA
:1016400007F11C0319462D4804F09AFD4FF400538E
:10165000FB6101233B6200237B620023BB6207F135
:101660001C031946264804F08BFDC023FB610023B0
:101670003B6200237B6207F11C031946224804F0F9
:101680007FFD3023FB6100233B6200237B6207F177
:101690001C0319461A4804F073FD4023FB61012323
:1016A0003B6200237B620023BB6207F11C031946E7
:1016B000144804F065FD4FF48073FB6101233B6225
:1016C00000237B620023BB6207F11C0319460E480E
:1016D00004F056FD0823FB6101233B6200237B627B
:1016E0000023BB6207F11C031946084804F048FDBB
:1016F00000BF3037BD4680BD0038024000100240B8
:10170000000802400018024000000240000C0240A5
:1017100080B483B000AF0346FB80044AFB8813808B
:1017200000BF0C37BD465DF8047B7047FEFF0F60BD
:1017300080B483B000AF0346FB80044AFB8853802B
:1017400000BF0C37BD465DF8047B7047FEFF0F609D
:1017500080B483B000AF064B5B889BB2FB80FB88F4
:101760009BB218460C37BD465DF8047B704700BF3E
:10177000FEFF0F6090B583B000AF044608461146E7
:101780001A462346FB800346BB800B467B801346EC
:101790003B802A20FFF7BCFFFB881B0A9BB2184640
:1017A000FFF7C6FFFB88DBB29BB21846FFF7C0FF0E
:1017B0007B881B0A9BB21846FFF7BAFF7B88DBB217
:1017C0009BB21846FFF7B4FF2B20FFF7A1FFBB88A1
:1017D0001B0A9BB21846FFF7ABFFBB88DBB29BB27C
:1017E0001846FFF7A5FF3B881B0A9BB21846FFF778
:1017F0009FFF3B88DBB29BB21846FFF799FF2C2076
:10180000FFF786FF00BF0C37BD4690BD80B584B0A2
:1018100000AF0346FB80154B1B88013B9AB2134B6C
:101820005B88013B9BB200210020FFF7A3FF002350
:10183000FB8111E00023BB8106E0FB881846FFF71F
:1018400077FFBB890133BB81084B5B88BA899A4219
:10185000F3D3FB890133FB81044B1B88FA899A423D
:10186000E8D300BF00BF1037BD4680BDD4010020C3
:1018700090B585B000AF0446084611461A46234687
:10188000FB800346BB800B467B8013463B807B88F6
:10189000013B9AB23B88013B9BB2B988F888FFF7BD
:1018A00069FFBB88FB8110E0FB88BB8106E03B8CB5
:1018B0001846FFF73DFFBB890133BB81BA897B889E
:1018C0009A42F4D3FB890133FB81FA893B889A421F
:1018D000EAD300BF00BF1437BD4690BD80B582B0CB
:1018E00000AF0346FB800B46BB8013467B80BB8862
:1018F000FA88B988F888FFF73DFF7B881846FFF71C
:1019000017FF00BF0837BD4680BD90B58DB000AF52
:101910000446084611461A462346FB800346BB8010
:101920000B467B8013463B800023BB6200237B6217
:101930007A88FB88D31A3B623A88BB88D31AFB614A
:10194000FB88FB60BB88BB603B6A002B02DD012388
:101950007B610BE03B6A002B02D100237B6105E039
:101960004FF0FF337B613B6A5B423B62FB69002BBC
:1019700002DD01233B610BE0FB69002B02D1002358
:101980003B6105E04FF0FF333B61FB695B42FB616C
:101990003A6AFB699A4202DD3B6ABB6101E0FB697E
:1019A000BB610023FB852BE0FB689BB2BA6891B258
:1019B000B7F840201846FFF791FFBA6A3B6A134414
:1019C000BB627A6AFB6913447B62BA6ABB699A425A
:1019D00007DDBA6ABB69D31ABB62FA687B69134434
:1019E000FB607A6ABB699A4207DD7A6ABB69D31ADF
:1019F0007B62BA683B691344BB60FB8D0133FB8596
:101A0000FB8DBA699A42CFDA00BF00BF3437BD46BA
:101A100090BD90B585B002AF0446084611461A46FF
:101A20002346FB800346BB800B467B8013463B80EE
:101A3000BC887A88B988F8883B8B00932346FFF7E7
:101A400064FF3C88FA88B988F8883B8B009323466A
:101A5000FFF75BFF3C887A883988F8883B8B0093D6
:101A60002346FFF752FF3C887A88B98878883B8BF9
:101A700000932346FFF749FF00BF0C37BD4690BDDA
:101A800090B587B000AF0446084611461A46234673
:101A9000FB800346BB800B46FB7013463B80002354
:101AA0007B75FB883B8297F82C305B08FB73FB7BD4
:101AB000DB08DBB21A46FB7B03F00703DBB2002B2B
:101AC00014BF01230023DBB213449AB297F82C30E1
:101AD0009BB212FB03F3BB81FB78203BFB70FB7BCB
:101AE0009AB2FB8813449BB2013B9CB297F82C300E
:101AF0009AB2BB8813449BB2013B9BB2B988F88869
:101B00002246FFF737FE00237B827AE097F82C30DD
:101B10000C2B28D097F82C30102B08D1FA787B8A20
:101B20003C4912010A4413441B78FB751BE097F8EB
:101B30002C30182B0BD1FA78798A374813465B0082
:101B400013441B0103440B441B78FB750BE097F80F
:101B50002C30202B5AD1FA787B8A304992010A44E2
:101B600013441B78FB750023BB7544E097F83030B5
:101B7000002B20D1FA7DBB7D42FA03F303F0010371
:101B8000002B04D03B881846FFF7D2FD03E03B8DC5
:101B90001846FFF7CDFD7B7D01337B757B7DFA7B9E
:101BA000B3FBF2F101FB02F29B1ADBB2002B1FD157
:101BB00000237B7522E0FA7DBB7D42FA03F303F03C
:101BC0000103002B05D03A88B988FB881846FFF737
:101BD00085FEFB880133FB80FA883B8AD21AFB7BA7
:101BE0009A4205D13B8AFB80BB880133BB8005E06C
:101BF000BB7D0133BB75BB7D072BB7D97B8A013316
:101C00007B827A8ABB899A4280D300E000BF1C376E
:101C1000BD4690BD449C000834A2000804B40008EE
:101C200090B587B000AF0446084611461A462346D1
:101C3000FB800346BB800B467B8013463B80002322
:101C40003B61FA887B8813449BB2013B9CB2BA8803
:101C50003B8813449BB2013B9BB2B988F88822466B
:101C6000FFF788FD0023FB8227E00023BB821DE0F5
:101C70003B695B00BA6A13441B78FB733B695B00EA
:101C80000133BA6A13441B78BB73FB7B1B021AB285
:101C9000BB7B1BB213431BB29BB21846FFF748FD38
:101CA0003B6901333B61BB8A0133BB82BA8A3B8803
:101CB0009A42DDD3FB8A0133FB82FA8A7B889A42FF
:101CC000D3D300BF00BF1C37BD4690BD80B483B0E6
:101CD00000AF0346FB71FB791B09DBB203F0030382
:101CE000DBB2002B07D00A4B4FF4A0721A80084BCE
:101CF000F0225A8006E0064BF0221A80044B4FF483
:101D0000A0725A8000BF0C37BD465DF8047B704757
:101D1000D401002080B500AF00224FF40051AA4842
:101D200004F0CAFB4FF4FA7004F0F4F801224FF407
:101D30000051A54804F0C0FB4FF4FA7004F0EAF833
:101D40000020FFF7C3FFD320FFF7E2FCFFF700FD01
:101D500003461A469D4B9A80FFF7FAFC03461A4643
:101D60009A4B9A80FFF7F4FC03461A46974B9A80E9
:101D7000964B9B881B029AB2944B9A80FFF7E8FC23
:101D800003461A46914B9B8813439AB28F4B9A8015
:101D9000CF20FFF7BDFC0020FFF7CAFCC120FFF7F2
:101DA000C7FC3020FFF7C4FCED20FFF7B1FC642036
:101DB000FFF7BEFC0320FFF7BBFC1220FFF7B8FCC7
:101DC0008120FFF7B5FCE820FFF7A2FC8520FFF794
:101DD000AFFC1020FFF7ACFC7A20FFF7A9FCCB206A
:101DE000FFF796FC3920FFF7A3FC2C20FFF7A0FC9F
:101DF0000020FFF79DFC3420FFF79AFC0220FFF73C
:101E000097FCF720FFF784FC2020FFF791FCEA20E5
:101E1000FFF77EFC0020FFF78BFC0020FFF788FC1B
:101E2000C020FFF775FC1B20FFF782FCC120FFF7E5
:101E30006FFC0120FFF77CFCC520FFF769FC302018
:101E4000FFF776FC3020FFF773FCC720FFF760FC3C
:101E5000B720FFF76DFC3620FFF75AFC0820FFF78C
:101E600067FC3A20FFF754FC5520FFF761FCB120D6
:101E7000FFF74EFC0020FFF75BFC1A20FFF758FC31
:101E8000B620FFF745FC0A20FFF752FCA220FFF71F
:101E90004FFCF220FFF73CFC0020FFF749FC262016
:101EA000FFF736FC0120FFF743FCE020FFF730FC92
:101EB0000F20FFF73DFC2A20FFF73AFC2820FFF710
:101EC00037FC0820FFF734FC0E20FFF731FC082018
:101ED000FFF72EFC5420FFF72BFCA920FFF728FC6E
:101EE0004320FFF725FC0A20FFF722FC0F20FFF715
:101EF0001FFC0020FFF71CFC0020FFF719FC00204E
:101F0000FFF716FC0020FFF713FCE120FFF700FCB1
:101F10000020FFF70DFC1520FFF70AFC1720FFF744
:101F200007FC0720FFF704FC1120FFF701FC062047
:101F3000FFF7FEFB2B20FFF7FBFB5620FFF7F8FB1C
:101F40003C20FFF7F5FB0520FFF7F2FB1020FFF721
:101F5000EFFB0F20FFF7ECFB3F20FFF7E9FB3F20F3
:101F6000FFF7E6FB0F20FFF7E3FB2B20FFF7D0FB8B
:101F70000020FFF7DDFB0020FFF7DAFB0120FFF771
:101F8000D7FB3F20FFF7D4FB2A20FFF7C1FB00203F
:101F9000FFF7CEFB0020FFF7CBFB0020FFF7C8FBCD
:101FA000EF20FFF7C5FB1120FFF7B2FB782003F00D
:101FB000B1FF2920FFF7ACFB01224FF480710448E8
:101FC00004F07AFA00BF80BD00080240D40100206E
:101FD0000000024090B58BB004AFBA601A460346C9
:101FE000FB810B46BB811346FB80FB89BB82002330
:101FF000FB7548E0FB7D002B45D1FA89264B1B88F9
:10200000194697F82C305B08DBB2CB1A9A423FDCBA
:10201000BA89214B5B88194697F82C30CB1A9A4223
:1020200036DCBB681B78802B02D90123FB752AE0C4
:10203000BB681B780D2B0BD197F82C309AB2BB895B
:102040001344BB81BB8AFB81BB680133BB6017E0D3
:10205000BB681A78FC88B989F88997F83030029300
:1020600097F82C3001933B8D00932346FFF708FD32
:1020700097F82C305B08DBB29AB2FB891344FB81E2
:10208000BB680133BB60BB681B78002BB2D100E09A
:1020900000BF1C37BD4690BDD401002080B58AB07A
:1020A00004AFBA601A460346FB810B46BB81134658
:1020B000FB80B868FEF78CF80346FB820F4B1B8849
:1020C0001A46FB8ADB00D31ADA0F13445B10BB827B
:1020D000FA89BB8A134498B2FA88B98997F82830EC
:1020E000029397F8243001933B8C00931346BA680F
:1020F000FFF770FF00BF1837BD4680BDD401002038
:1021000080B500AF01224021024804F0D5F900BF9C
:1021100080BD00BF0018024080B500AF3F4B1B8858
:10212000DBB29AB23D4B1A803D4B1B881A463D4BA1
:102130009B5C1B021AB2394B1B881BB213431BB2A8
:102140009AB2364B1A80364B1B88032B46D801A215
:1021500052F823F06521000883210008A12100081E
:10216000BF2100082D4B1B8843F0B0039AB22B4BC4
:102170001A802A4B1B8823F040039AB2274B1A80FF
:102180002DE0264B1B8843F0D0039AB2234B1A80D4
:10219000224B1B8823F020039AB2204B1A801EE0AA
:1021A0001E4B1B8843F0E0039AB21C4B1A801B4B5A
:1021B0001B8823F010039AB2184B1A800FE0174BBC
:1021C0001B8843F070039AB2144B1A80134B1B8880
:1021D00023F080039AB2114B1A8000E000BF104B2D
:1021E0001B8801335A4203F0030302F0030258BF75
:1021F00053429AB20A4B1A80002240210A4804F046
:102200005BF9012302220549084804F05CFE012223
:102210004021054804F050F900BF80BD9600002021
:10222000DA01002088000020001802404C2900201C
:1022300080B485B000AFF860B9601346FB71FB68ED
:10224000002B0EDBFB68092B0BDC094AFB681344EF
:102250001A78FB79D31AD9B2064ABB6813440A46E6
:102260001A7000BF1437BD465DF8047B704700BF8D
:102270008C0000208800002080B483B000AF0346AB
:10228000FB71FB79012B07D10A4B1B8823F0080354
:102290009AB2084B1A8006E0064B1B8843F00803ED
:1022A0009AB2044B1A8000BF0C37BD465DF8047B20
:1022B000704700BF9600002080B500AF03F0B8FD66
:1022C00000F088F8FFF72CF903F094FB02F05AF9BC
:1022D000FEF7C2FD00F0E8F84FF6FF70FFF796FA40
:1022E00000F00AF9324B1B88002B06D0304B00223D
:1022F0001A80FEF725FB02F00DFD2E4B1B68032B09
:1023000007D02C4B1B68042B03D02A4B1B68052BD2
:1023100018D101F0F9FB274B1B68052B08D1264B80
:102320001B88002B04D001F013FD234B00221A80E0
:10233000224B1B88002B08D0204B00221A8001F072
:10234000B7FA02E01D4B00221A801A4B1B68072BBC
:1023500001D1FFF775F8174B1B68062B01D103F06D
:1023600009FA144B1B680A2B01D1FEF72DFD144B03
:102370001B88012B0BD1124B00221A800D4B072218
:102380001A601048FFF798F80F4B03221A600F4BA2
:102390001B88012BA6D10E4B1B88013B9AB20C4B1C
:1023A0001A8003F0AFFC4FF47A7002F00DF899E751
:1023B00028290020BC010020462900202E290020C9
:1023C00034290020509A00081400002040290020E1
:1023D0000000002080B594B000AF07F12003302248
:1023E0000021184606F04EF807F10C0300221A608F
:1023F0005A609A60DA601A610023BB60284B1B6C3C
:10240000274A43F080531364254B1B6C03F0805321
:10241000BB60BB6800237B60224B1B68214A43F4EE
:10242000804313601F4B1B6803F480437B607B6811
:1024300002233B620123FB6210233B630223BB6345
:102440000023FB6308233B64A8237B640223BB6453
:102450000423FB6407F12003184604F047F8034601
:10246000002B01D000F066F80F23FB6002233B61D4
:1024700000237B614FF4A053BB614FF4A053FB6179
:1024800007F10C030521184604F0A8FA0346002BB7
:1024900001D000F04FF800BF5037BD4680BD00BFEF
:1024A000003802400070004080B500AF00222021BB
:1024B000104804F001F8002240210E4803F0FCFF10
:1024C000002210210B4803F0F7FF01F037FFFFF760
:1024D00017FEFEF729FAFFF71DFC322001F0ACFFD2
:1024E0004FF4967001F034FF4FF4FA6001F088FF6A
:1024F00000BF80BD0010024080B584B004AF1F2330
:1025000000931D231D2213211320FFF7B1F901238E
:102510000293102301931F2300934FF47843044A3E
:1025200064210020FFF7BAFD00BFBD4680BD00BF9B
:102530005C9A000880B400AF72B600BFFEE70000EE
:1025400080B590B000AF0346FB80FB8807F10C001C
:10255000064A322106F00AF807F10C03184606F085
:1025600049F8034618464037BD4680BD6C9A0008BE
:1025700090B583B002AF0D4B1B6898B20C4B1B6833
:1025800099B20A4B5B689CB2094B5B689AB2094BE3
:102590001B689BB213449BB2002200922246FFF7B5
:1025A00067F900BF0437BD4690BD00BF180000208A
:1025B000280000203800002090B5A3B004AF0346E7
:1025C0000A46FB801346BB804FF6FF70FFF71EF9EB
:1025D000454B5B689AB2454B1B689BB21F2100912B
:1025E00000210020FFF744F90123029310230193F7
:1025F0001F2300934FF478433D4A05210020FFF745
:10260000E9FC3C4A07F13C0392E8030018600433FC
:10261000197007F141032D220021184605F032FF01
:10262000354B1B881846FFF78BFF786707F13C0393
:10263000796F184605F0CEFF304B1B6898B2304BCF
:102640001B6899B207F13C02012302931023019306
:102650004FF6FF7300934FF47843FFF7BBFC294A12
:1026600007F1080392E8030083E8030007F1100371
:102670002A220021184605F005FF234B1B88184627
:10268000FFF75EFF386707F10803396F184605F05A
:10269000A1FF1E4B1B6898B21D4B1B689BB20533F4
:1026A00099B207F1080200230293102301931F231C
:1026B00000934FF47843FFF78DFC164B1B6898B2DC
:1026C000154B1B6899B2154B1B689AB2144B1B68CB
:1026D0009BB2144C0094FFF7A3FAFFF749FF00BF29
:1026E0007C37BD4690BD00BF1800002028000020A8
:1026F000709A0008809A0008A80100206400002059
:1027000068000020B49A0008AA0100206C00002094
:102710007000002074000020780000207C00002061
:1027200080000020C4CB000890B5A3B004AF0346DE
:102730000A46FB801346BB804FF6FF70FFF766F832
:10274000444B5B689AB2444B1B689BB21F210091BB
:1027500000210020FFF78CF801230293102301933E
:102760001F2300934FF478433C4A05210020FFF7D4
:1027700031FC3B4A07F13C0392E803001860043344
:10278000197007F141032D220021184605F07AFE49
:10279000344B1B881846FFF7D3FE786707F13C03DC
:1027A000796F184605F016FF2F4B1B6898B22F4B18
:1027B0001B6899B207F13C02012302931023019395
:1027C0004FF6FF7300934FF47843FFF703FC284A5A
:1027D00007F1080392E8030083E8030007F1100300
:1027E0002A220021184605F04DFE0020FFF7A8FE22
:1027F000386707F10803396F184605F0EBFE1D4BEB
:102800001B6898B21C4B1B6899B207F108020123A0
:102810000293102301934FF6FF7300934FF4784314
:10282000FFF7D8FB03F06EFA144B1B6898B2144BF9
:102830001B6899B2134B1B689AB2134B1B689BB26F
:10284000124C0094FFF7ECF9FFF792FE00BF7C37C3
:10285000BD4690BD1800002028000020E89A00081E
:10286000809A0008A8010020640000206800002071
:10287000B49A00086C000020700000207400002052
:10288000780000207C00002080000020C4CB0008DD
:1028900090B5A3B004AF03460A46FB801346BB8045
:1028A0004FF6FF70FEF7B2FF444B5B689AB2444BA1
:1028B0001B689BB21F21009100210020FEF7D8FF6A
:1028C00001230293102301931F2300934FF47843B5
:1028D0003C4A05210020FFF77DFB3B4A07F13C0302
:1028E00092E8030018600433197007F141032D22A8
:1028F0000021184605F0C6FD344B1B881846FFF72B
:102900001FFE786707F13C03796F184605F062FEF9
:102910002F4B1B6898B22F4B1B6899B207F13C02F2
:1029200001230293102301934FF6FF7300934FF49A
:102930007843FFF74FFB284A07F1080392E80300AA
:1029400083E8030007F110032A220021184605F04E
:1029500099FD0020FFF7F4FD386707F10803396F90
:10296000184605F037FE1D4B1B6898B21C4B1B68C0
:1029700099B207F1080201230293102301934FF645
:10298000FF7300934FF47843FFF724FB03F0BAF989
:10299000144B1B6898B2144B1B6899B2134B1B68FD
:1029A0009AB2134B1B689BB2124C0094FFF738F994
:1029B000FFF7DEFD00BF7C37BD4690BD180000204C
:1029C00028000020F89A0008809A0008A80100203A
:1029D0006400002068000020B49A00086C00002009
:1029E0007000002074000020780000207C0000208F
:1029F00080000020C4CB000880B594B004AF334BF6
:102A00001B68032B2AD1324A3B1D92E8030083E85E
:102A1000030007F10C032A220021184605F032FDBD
:102A20002C4B1B881846FFF78BFDF8633B1DF96B99
:102A3000184605F0CFFD284B1B6898B2274B1B6842
:102A40009BB2053399B23A1D0023029318230193D8
:102A50001F2300934FF47843FFF7BCFA1B4B1B680E
:102A6000042B03D0194B1B68052B2AD1184A3B1D98
:102A700092E8030083E8030007F10C032A220021F7
:102A8000184605F0FFFC134B1B881846FFF758FD4E
:102A9000B8633B1DB96B184605F09CFD0E4B1B68D7
:102AA00098B20E4B1B6899B23A1D00230293102373
:102AB00001931F2300934FF47843FFF78BFA03F041
:102AC00021F900BF4037BD4680BD00BFBC010020DA
:102AD000B49A0008AA0100206C00002070000020B9
:102AE00090B583B002AF8F4B9B69032B00F214812A
:102AF00001A252F823F000BF912C0008112C00080D
:102B0000892B0008092B0008864BDB6A98B2854B9D
:102B10001B6B99B2834BDB6A9BB209339AB2814B30
:102B20001B6B9BB209339BB24FF478440094FEF7C1
:102B30009FFE7C4BDB6A98B27A4B1B6B99B2794B48
:102B4000DB6A9BB204339AB2764B1B6B9BB20433A5
:102B50009BB200240094FEF78BFE724BDB6A9BB2A3
:102B6000053398B26F4B1B6B99B26E4BDB6A9BB20D
:102B700009339AB26B4B1B6B9BB204339BB200249C
:102B80000094FEF775FEC8E0664BDB6A98B2654BB1
:102B90001B6B99B2634BDB6A9BB209339AB2614BF0
:102BA0001B6B9BB209339BB24FF478440094FEF741
:102BB0005FFE5C4BDB6A98B25A4B1B6B9BB20533D2
:102BC00099B2584BDB6A9BB204339AB2554B1B6BDC
:102BD0009BB209339BB200240094FEF749FE514B8F
:102BE000DB6A9BB2053398B24E4B1B6B9BB205332D
:102BF00099B24C4BDB6A9BB209339AB2494B1B6BBF
:102C00009BB209339BB200240094FEF731FE84E0AE
:102C1000444BDB6A98B2434B1B6B99B2414BDB6A66
:102C20009BB209339AB23F4B1B6B9BB209339BB2E9
:102C30004FF478440094FEF71BFE3A4BDB6A98B2DF
:102C4000384B1B6B99B2374BDB6A9BB204339AB299
:102C5000344B1B6B9BB204339BB200240094FEF7F1
:102C600007FE304BDB6A98B22E4B1B6B9BB20533D1
:102C700099B22C4BDB6A9BB204339AB2294B1B6B83
:102C80009BB209339BB200240094FEF7F1FD44E0AF
:102C9000244BDB6A98B2234B1B6B99B2214BDB6A46
:102CA0009BB209339AB21F4B1B6B9BB209339BB289
:102CB0004FF478440094FEF7DBFD1A4BDB6A9BB2BD
:102CC000053398B2174B1B6B99B2164BDB6A9BB25C
:102CD00009339AB2134B1B6B9BB204339BB2002493
:102CE0000094FEF7C5FD0F4BDB6A9BB2053398B22B
:102CF0000C4B1B6B9BB2053399B20A4BDB6A9BB240
:102D000009339AB2074B1B6B9BB209339BB2002469
:102D10000094FEF7ADFD00E000BF00BF0437BD46E4
:102D200090BD00BFE001002090B589B002AF584BC4
:102D30009B6A002B40F0A780554B9B69002B03D169
:102D4000534B5B6898479FE0514B01229A610023E7
:102D50007B6191E07B69002B28D14D4A7B6905336B
:102D6000DB00134407F10C02043393E8030082E80C
:102D70000300474A7B690533DB0013445B68A3F11A
:102D80000A0243497B690533DB000B445A60404A21
:102D90007B690533DB0013449A683D497B69053341
:102DA000DB000B449A60FFF79BFE62E0384A7B69C8
:102DB0000533DB0013443A1D043393E8030082E833
:102DC0000300334A7B690533DB001344043307F106
:102DD0000C0292E8030083E8030007F10C033A1D9C
:102DE00092E8030083E803007B69012B23D1284A82
:102DF0007B690533DB0013445B6898B2244A7B6926
:102E00000533DB0013449B6899B2214A7B69053383
:102E1000DB0013445B689BB209339AB21C4C7B699C
:102E20000533DB0023449B689BB209339BB200242B
:102E30000094FEF71DFD164B5B6A013B7A699A42CE
:102E400017D1134B1C333A1D92E8030083E80300AB
:102E50007B6898B2BB6899B27B689BB209339AB21F
:102E6000BB689BB209339BB24FF6FF740094FEF728
:102E7000FFFC7B6901337B61054B5B6A7A699A428F
:102E8000FFF668AF00E000BF00BF1C37BD4690BD35
:102E9000E001002090B589B002AF584B9B6A002B2F
:102EA00040F0A780554B9B69012B03D1534B1B6806
:102EB00098479FE0514B00229A6100237B6191E08B
:102EC0007B69002B28D14D4A7B690533DB00134415
:102ED00007F10C02043393E8030082E80300474A39
:102EE0007B690533DB0013445B6803F10A02434945
:102EF0007B690533DB000B445A60404A7B6905332C
:102F0000DB0013449A683D497B690533DB000B44C1
:102F10009A60FFF7E5FD62E0384A7B690533DB0024
:102F200013443A1D043393E8030082E80300334A54
:102F30007B690533DB001344043307F10C0292E88C
:102F4000030083E8030007F10C033A1D92E8030035
:102F500083E803007B69012B23D1284A7B69053371
:102F6000DB0013445B6898B2244A7B690533DB00BD
:102F700013449B6899B2214A7B690533DB001344F3
:102F80005B689BB209339AB21C4C7B690533DB004A
:102F900023449B689BB209339BB200240094FEF744
:102FA00067FC164B5B6A013B7A699A4217D1134B57
:102FB0001C333A1D92E8030083E803007B6898B253
:102FC000BB6899B27B689BB209339AB2BB689BB26B
:102FD00009339BB24FF6FF740094FEF749FC7B69FE
:102FE00001337B61054B5B6A7A699A42FFF668AFF1
:102FF00000E000BF00BF1C37BD4690BDE0010020CF
:1030000090B589B002AF584B9B6A002B40F0A78067
:10301000554B9B69022B03D1534BDB6898479FE0CC
:10302000514B03229A6100237B6191E07B69002B65
:1030300028D14D4A7B690533DB00134407F10C02AC
:10304000043393E8030082E80300474A7B690533B1
:10305000DB0013445A6844497B690533DB000B44A9
:103060005A60414A7B690533DB0013449B68A3F136
:103070000A023D497B690533DB000B449A60FFF788
:103080002FFD62E0384A7B690533DB0013443A1DAB
:10309000043393E8030082E80300334A7B69053375
:1030A000DB001344043307F10C0292E8030083E8C9
:1030B000030007F10C033A1D92E8030083E80300C4
:1030C0007B69012B23D1284A7B690533DB0013443C
:1030D0005B6898B2244A7B690533DB0013449B6824
:1030E00099B2214A7B690533DB0013445B689BB2CC
:1030F00009339AB21C4C7B690533DB0023449B687F
:103100009BB209339BB200240094FEF7B1FB164B2F
:103110005B6A013B7A699A4217D1134B1C333A1D03
:1031200092E8030083E803007B6898B2BB6899B219
:103130007B689BB209339AB2BB689BB209339BB2DE
:103140004FF6FF740094FEF793FB7B6901337B61BC
:10315000054B5B6A7A699A42FFF668AF00E000BFF0
:1031600000BF1C37BD4690BDE001002090B589B07E
:1031700002AF584B9B6A002B40F0A780554B9B69D0
:10318000032B03D1534B9B6898479FE0514B02227E
:103190009A6100237B6191E07B69002B28D14D4A25
:1031A0007B690533DB00134407F10C02043393E819
:1031B000030082E80300474A7B690533DB001344C0
:1031C0005A6844497B690533DB000B445A60414A25
:1031D0007B690533DB0013449B6803F10A023D4918
:1031E0007B690533DB000B449A60FFF779FC62E0F2
:1031F000384A7B690533DB0013443A1D043393E8F6
:10320000030082E80300334A7B690533DB00134483
:10321000043307F10C0292E8030083E8030007F18E
:103220000C033A1D92E8030083E803007B69012B3D
:1032300023D1284A7B690533DB0013445B6898B2CD
:10324000244A7B690533DB0013449B6899B2214A09
:103250007B690533DB0013445B689BB209339AB288
:103260001C4C7B690533DB0023449B689BB209330C
:103270009BB200240094FEF7FBFA164B5B6A013BFD
:103280007A699A4217D1134B1C333A1D92E8030016
:1032900083E803007B6898B2BB6899B27B689BB2F5
:1032A00009339AB2BB689BB209339BB24FF6FF74E5
:1032B0000094FEF7DDFA7B6901337B61054B5B6AA5
:1032C0007A699A42FFF668AF00E000BF00BF1C3782
:1032D000BD4690BDE001002090B587B002AF754BB0
:1032E0001B689AB2744B1B689BB2134499B24FF699
:1032F000FF7300934FF4A073F0220020FEF7B8FA9A
:103300000023FB602CE0FB68002B02D1FFF7E8FBF9
:1033100023E06A4AFB680533DB0013445B6898B21C
:10332000664AFB680533DB0013449B6899B2634A25
:10333000FB680533DB0013445B689BB209339AB228
:103340005E4CFB680533DB0023449B689BB209336A
:103350009BB200240094FEF78BFAFB680133FB60FC
:10336000564B5B6AFA689A42CDDB0023BB607EE075
:103370005349BA6813465B0013449B000B441B6817
:103380007B604F49BA6813465B0013449B000B44B3
:1033900004331B683B607B6898B23B6899B27B68DA
:1033A0009BB209339AB23B689BB209339BB24BF68E
:1033B00040440094FEF75CFA4149BA6813465B004A
:1033C00013449B000B4408331B68012B26D17B68F8
:1033D00098B23B689BB20A3399B27B689BB20933BF
:1033E0009AB23B689BB213339BB24BF640440094B5
:1033F000FEF73EFA7B6898B23B689BB20A3B99B2F3
:103400007B689BB209339AB23B689BB2013B9BB28B
:103410004BF640440094FEF72BFA25E07B689BB204
:103420000A3398B23B6899B27B689BB213339AB265
:103430003B689BB209339BB24BF640440094FEF7C5
:1034400017FA7B689BB20A3B98B23B6899B27B68DB
:103450009BB2013B9AB23B689BB209339BB24BF6DD
:1034600040440094FEF704FABB680133BB60144B80
:1034700003F58053D3F87037BA689A42FFF678AFF5
:10348000104B1B6898B2104B1B6899B20D4B1B6810
:103490009BB209339AB20C4B1B689BB209339BB2A7
:1034A00040F2CF140094FEF7E3F900BF1437BD4695
:1034B00090BD00BF2800002038000020E00100205F
:1034C000AC110020980000209C00002080B400AFC8
:1034D0000C4BDB6A002B0CDB0A4BDB6AE62B08DCAF
:1034E000084B1B6B452B04DD064B1B6BB3F59C7F18
:1034F00001DD012300E000231846BD465DF8047B92
:10350000704700BFE001002080B483B000AF01230A
:103510007B6018E0124BDA6A11497B680533DB00E7
:103520000B445B689A420BD10D4B1A6B0C497B68BC
:103530000533DB000B449B689A4201D1012308E06C
:103540007B6801337B60064B5B6A7A689A42E1DBF9
:10355000002318460C37BD465DF8047B704700BF5A
:10356000E001002080B400AF094BDA6A094B1B6808
:103570009A4207D1064B1A6B074B1B689A4201D13E
:10358000012300E000231846BD465DF8047B704728
:10359000E0010020980000209C00002080B483B04F
:1035A00000AF00237B6079E044497A6813465B00F2
:1035B00013449B000B4408331B68012B36D1404B4E
:1035C000196B3E487A6813465B0013449B00034422
:1035D00004331B680A3B99421AD0394B196B3748A0
:1035E0007A6813465B0013449B00034404331B6852
:1035F0000A3399420CD0324B196B30487A68134623
:103600005B0013449B00034404331B68994242D17E
:103610002B4BD96A29487A6813465B0013449B00F8
:1036200003441B68994236D1012341E0244BD96AF7
:1036300022487A6813465B0013449B0003441B68CE
:103640000A33994218D01E4BD96A1C487A6813462F
:103650005B0013449B0003441B680A3B99420BD058
:10366000174BD96A15487A6813465B0013449B00D0
:1036700003441B6899420ED1114B196B0F487A68AD
:1036800013465B0013449B00034404331B689942B8
:1036900001D101230CE07B6801337B60074B03F50C
:1036A0008053D3F870377A689A42FFF67DAF0023D3
:1036B00018460C37BD465DF8047B7047AC110020FE
:1036C000E001002090B585B002AFFFF7FFFE034692
:1036D000002B03D03648FDF7EFFE65E0FFF714FF3F
:1036E0000346002B03D03348FDF7E6FE5CE0FFF70E
:1036F00055FF0346002B03D02F48FDF7DDFE53E0B6
:10370000FFF730FF0346002B4ED02C4B4FF000420A
:103710001A602B4B4FF000421A602A4B5B6A013350
:10372000284A5362274B5B6A013B264AD2692549E6
:103730000533DB000B445A60224B5B6A013B214A94
:10374000126A20490533DB000B449A601D4B5B6A0B
:10375000013B1C4A0533DB0013445B687B60194B5B
:103760005B6A013B174A0533DB0013449B683B60EF
:103770007B6898B23B6899B27B689BB209339AB276
:103780003B689BB209339BB200240094FEF770F8AB
:103790000D4B01221A600D4B1B8801339AB20B4B63
:1037A0001A80FFF729F900BF0C37BD4690BD00BF56
:1037B000089B0008189B0008249B00089800002024
:1037C0009C000020E0010020A0000020AA010020B1
:1037D00080B500AF114B9B69032B1BD801A252F897
:1037E00023F000BF053800080D380008F537000841
:1037F000FD370008094BDB6898470CE0074B9B68D6
:10380000984708E0054B5B68984704E0034B1B684A
:10381000984700E000BF00BF80BD00BFE00100206E
:1038200080B483B000AF00237B601FE01F497A683B
:1038300013465B0013449B000B4400221A601B4993
:103840007A6813465B0013449B000B440433002248
:103850001A6016497A6813465B0013449B000B44B8
:10386000083300221A607B6801337B607B68B3F504
:10387000FA7FDBDB0D4B03F580531A460023C2F8B9
:1038800070370A4B03F580531A460123C2F8743788
:10389000064B03F580531A460023C2F8783700BF61
:1038A0000C37BD465DF8047B704700BFAC110020AB
:1038B00080B582B002AF3E4B5B89002B06D03D4BFA
:1038C0009B6898473B4B5B6998476EE0384B5B8B36
:1038D000002B06D0374BDB689847364B5B6998471F
:1038E00063E0334B9B8A002B06D0324B5B689847D2
:1038F000304B5B69984758E02D4B1B8A002B06D054
:103900002C4B1B6898472B4B5B6998474DE0284B25
:103910005B8A002B22D0274B9B6A002B0CBF012314
:103920000023DBB21A46234B9A62234B03F58053E4
:10393000D3F87837002B0CBF01230023DBB21A46E3
:103940001D4B03F58053C3F878271A4B9B6A184622
:1039500001F054FF0346174A936226E0144B1B8B79
:10396000002B1CD04FF6FF70FDF750FF134B4FF0AC
:1039700000421A60124B4FF000421A6000F024F827
:10398000FFF74EFF4FF4784300934623F0220021C7
:103990000020FDF76DFF0B4B01221A6005E0054B7F
:1039A0001B699847034B5B69984700BFBD4680BDC4
:1039B00030010020E0010020AC1100209800002020
:1039C0009C000020A000002090B585B002AF454BC0
:1039D0001B68184604F05EFD424B1B680133414AE8
:1039E0001360414B01221A60404B00229A623F4B08
:1039F0001422DA623D4B46221A633C4B0A225A6378
:103A00003A4B46229A63394B0022DA63374B4622FF
:103A10001A6403237B6010E0344A7B680533DB00C3
:103A2000134400225A60314A7B680533DB0013449B
:103A300000229A607B6801337B607B68B3F5FA7F74
:103A4000EADB2A4B2A4ADA60284B2A4A1A60274BBB
:103A5000294A9A60254B294A5A60244B284A1A6100
:103A6000224B284A5A61214B03225A621F4B0022E3
:103A70009A6100233B602CE03B68002B02D1FFF7EA
:103A80002FF823E0194A3B680533DB0013445B68D9
:103A900098B2164A3B680533DB0013449B6899B221
:103AA000124A3B680533DB0013445B689BB2093361
:103AB0009AB20E4C3B680533DB0023449B689BB2F3
:103AC00009339BB200240094FDF7D2FE3B6801331A
:103AD0003B603B68022BCFDD00BF00BF0C37BD460B
:103AE00090BD00BFDC010020A0000020E00100200C
:103AF0006D310008292D000801300008952E0008BE
:103B0000D1370008C536000890B587B002AF894BA1
:103B10001B68012B40F009810023FB6004F0E8FCE6
:103B20000146854B83FB01239A10CB17D21A13460B
:103B30005B001344DB00CA1A13469B0013445B006E
:103B40001A467E4B1A6004F0D3FC01467C4B83FB83
:103B50000123DA10CB17D21A13469B0013449A00A4
:103B60001344CA1A073213469B0013445B001A46DB
:103B7000744B1A600023BB6021E0734ABB680533B5
:103B8000DB0013445A686D4B1B689A4214D16E4A8D
:103B9000BB680533DB0013449A686A4B1B689A4282
:103BA0000AD1664B4FF000421A60664B4FF000425C
:103BB0001A600123FB6007E0BB680133BB60624B06
:103BC0005B6ABA689A42D8DBFB68002B40F0A98098
:103BD00000237B607FE05D497A6813465B001344F5
:103BE0009B000B4408331B68012B39D157497A6875
:103BF00013465B0013449B000B4404331A68514B7B
:103C00001B689A421DD051497A6813465B001344E1
:103C10009B000B4404331B6803F10A02494B1B68E9
:103C20009A420ED049497A6813465B0013449B00C0
:103C30000B4404331B68A3F10A02424B1B689A42EF
:103C400046D142497A6813465B0013449B000B44FB
:103C50001A683A4B1B689A423AD10123FB6043E051
:103C60003A497A6813465B0013449B000B441A6878
:103C7000324B1B689A421BD034497A6813465B006A
:103C800013449B000B441B6803F10A022B4B1B6877
:103C90009A420DD02D497A6813465B0013449B006D
:103CA0000B441B68A3F10A02244B1B689A420FD1F4
:103CB00026497A6813465B0013449B000B44043387
:103CC0001A68204B1B689A4202D10123FB600BE06B
:103CD0007B6801337B601D4B03F58053D3F870374D
:103CE0007A689A42FFF677AFFB68002B1BD1134B23
:103CF0001B6898B2134B1B6899B2104B1B689BB2A0
:103D000009339AB20F4B1B689BB209339BB240F246
:103D1000CF140094FDF7ACFD064B00221A6000BFE3
:103D200003E000BFF8E600BFF6E600BF1437BD466B
:103D300090BD00BFA0000020ABAAAA2A98000020D6
:103D40001F85EB519C000020E0010020AC110020F9
:103D500090B58DB002AF9C4B03F58053D3F870370C
:103D60009A4A1288934280F2DE82974B03F5805381
:103D7000D3F87837002B40F0D78200237B6204F021
:103D8000B7FB0246924B83FB02139910D317CB1A51
:103D9000162101FB03F3D31A5A1C13469B0013444C
:103DA0005B00BB6104F0A4FB01468A4B83FB01234B
:103DB0000B441A11CB17D21A13465B001344DB00D5
:103DC0009B1ACA1A083213469B0013445B007B619E
:103DD00000233B62E8E07C493A6A13465B001344E7
:103DE0009B000B441B683B6177493A6A13465B00B2
:103DF00013449B000B4404331B68FB60724B03F5B8
:103E00008053D3F87437012B66D16F493A6A134651
:103E10005B0013449B000B4408331B68012B20D12B
:103E2000FB68143B7A699A4213D0FB6814337A69B1
:103E30009A420ED0FB680A3B7A699A4209D0FB6825
:103E40000A337A699A4204D0FA687B699A4240F050
:103E5000A8803A69BB699A4240F0A38001237B6243
:103E6000ABE0FB680A3B7A699A4208D0FB680A33E8
:103E70007A699A4203D0FA687B699A4203D13A6917
:103E8000BB699A4225D0FB680A3B7A699A4208D0FE
:103E9000FB680A337A699A4203D0FA687B699A42CE
:103EA00004D13B690A3BBA699A4212D0FB680A3BCB
:103EB0007A699A4208D0FB680A337A699A4203D039
:103EC000FA687B699A426CD13B690A33BA699A42B3
:103ED00067D101237B6264E03B493A6A13465B0089
:103EE00013449B000B4408331B68012B3AD13B69F8
:103EF0000A3BBA699A4208D03B690A33BA699A42C6
:103F000003D03A69BB699A4203D1FA687B699A4245
:103F100025D03B690A3BBA699A4208D03B690A330B
:103F2000BA699A4203D03A69BB699A4204D1FB68E4
:103F30000A3B7A699A4212D03B690A3BBA699A42B3
:103F400008D03B690A33BA699A4203D03A69BB691F
:103F50009A4226D1FB680A337A699A4221D1012319
:103F60007B622AE03B69143BBA699A4212D03B69F2
:103F70001433BA699A420DD03B690A33BA699A423E
:103F800008D03B690A3BBA699A4203D03A69BB69D7
:103F90009A4206D1FA687B699A4202D101237B6278
:103FA0000BE03B6A01333B62074B03F58053D3F8C8
:103FB00070373A6A9A42FFF60EAF7B6A002B40F0E8
:103FC000A8810023FB6149E0AC110020AC01002076
:103FD000E9A28B2EC94216B2604AFB690533DB00A9
:103FE00013445B68BB605D4AFB690533DB00134427
:103FF0009B687B605A4B03F58053D3F87437012BD1
:1040000014D1BA69BB689A4225D17A697B689A4211
:1040100009D07B690A3B7A689A4204D07B690A33EB
:104020007A689A4217D101237B621CE07A697B6827
:104030009A4210D1BA69BB689A4209D0BB690A3B5F
:10404000BA689A4204D0BB690A33BA689A4202D16C
:1040500001237B6207E0FB690133FB613F4B5B6A35
:10406000FA699A42B8DB7B6A002B40F054813B4BE3
:104070009B69032B42D801A252F823F0E1400008CB
:10408000C5400008A94000088D400008334BDB6A9A
:10409000BA699A4234D1314B1B6B0A3B7A699A4216
:1040A0002ED101237B622BE02C4BDB6ABA699A424A
:1040B00028D12A4B1B6B0A337A699A4222D10123F9
:1040C0007B621FE0254BDB6A0A3BBA699A421BD12F
:1040D000224B1B6B7A699A4216D101237B6213E053
:1040E0001E4BDB6A0A33BA699A420FD11B4B1B6B1A
:1040F0007A699A420AD101237B6207E000BF06E099
:1041000000BF04E000BF02E000BF00E000BF7B6A28
:10411000002B40F00281124B03F58053D3F8743723
:10412000012B23D10F4B1B68BA699A4239D10E4B30
:104130001B687A699A4200F0F2807B69A3F10A0257
:10414000094B1B689A4200F0EA807B6903F10A027E
:10415000054B1B689A4224D1E1E000BFE00100203A
:10416000AC110020980000209C000020704B1B68C0
:104170007A699A4215D16F4B1B68BA699A4200F06E
:10418000D080BB69A3F10A026A4B1B689A4200F017
:10419000C880BB6903F10A02664B1B689A4200F0B3
:1041A000C080654B03F58053D3F8702762491346EE
:1041B0005B0013449B000B44BA691A605E4B03F525
:1041C0008053D3F870275C4913465B0013449B006F
:1041D0000B4404337A691A60BB6998B27B6999B25F
:1041E000BB699BB209339AB27B699BB209339BB21C
:1041F0004BF640440094FDF73BFB4F4B03F58053D7
:10420000D3F87437012B34D1BB6998B27B699BB268
:104210000A3399B2BB699BB209339AB27B699BB2EC
:1042200013339BB24BF640440094FDF721FBBB696E
:1042300098B27B699BB20A3B99B2BB699BB20933C6
:104240009AB27B699BB2013B9BB24BF6404400940F
:10425000FDF70EFB384B03F58053D3F87027364932
:1042600013465B0013449B000B44083301221A6081
:1042700033E0BB699BB20A3398B27B6999B2BB69E0
:104280009BB213339AB27B699BB209339BB24BF654
:1042900040440094FDF7ECFABB699BB20A3B98B22C
:1042A0007B6999B2BB699BB2013B9AB27B699BB2B5
:1042B00009339BB24BF640440094FDF7D9FA1E4BEC
:1042C00003F58053D3F870271B4913465B00134452
:1042D0009B000B44083300221A60174B03F58053F0
:1042E000D3F870370133144A02F58052C2F87037A0
:1042F000114B03F58053D3F87437002B0CBF012307
:104300000023DBB21A460C4B03F58053C3F8742725
:104310000AE000BF31E500BF2FE500BF2DE500BF7B
:104320002BE500BF29E500BF2C37BD4690BD00BF7F
:104330009C00002098000020AC11002080B500AF48
:10434000024803F073FB00BF80BD00BFA829002016
:1043500080B483B000AF0346FB80084AFB8813801B
:10436000064B1A88064B1A80064B00221A8000BFA3
:104370000C37BD465DF8047B704700BF3229002032
:10438000302900202E29002080B483B000AF0346DE
:10439000FB80FB884FF47A7202FB03F3074A136039
:1043A000064B1B68064A1360064B00221A8000BFAA
:1043B0000C37BD465DF8047B704700BF3C290020E8
:1043C000382900203429002080B483B000AF034690
:1043D000FB80084AFB881380064B1A88064B1A801C
:1043E000064B00221A8000BF0C37BD465DF8047BE7
:1043F000704700BF442900204229002040290020A6
:1044000080B483B000AF0346FB80084AFB8813806A
:10441000064B1A88064B1A80064B00221A8000BFF2
:104420000C37BD465DF8047B704700BF4A29002069
:10443000482900204629002080B483B000AF0346FD
:10444000FB80084AFB881380064B1A88064B1A80AB
:10445000064B00221A8000BF0C37BD465DF8047B76
:10446000704700BF2C2900202A290020282900207D
:1044700080B582B000AF78607B681B68B3F1804F75
:1044800061D1334B1B88002B10D0314B1B88013B73
:104490009AB22F4B1A802E4B1B88002B06D12D4B26
:1044A00001221A802C4B1A88294B1A802B4B1B880F
:1044B000002B10D0294B1B88013B9AB2274B1A8046
:1044C000264B1B88002B06D1254B01221A80254B39
:1044D0001A88224B1A80244B1B68002B0BD0224BCE
:1044E0001B68013B204A13601F4B1B68002B02D145
:1044F0001E4B01221A801E4B1B88002B0CD01C4B1C
:104500001B88013B9AB21A4B1A80194B1B88002B4F
:1045100002D1184B01221A80174B1B88002B10D098
:10452000154B1B88013B9AB2134B1A80124B1B8808
:10453000002B06D1114B01221A80114B1A880E4B09
:104540001A80FDF7E9FD00BF0837BD4680BD00BFFA
:10455000302900202E290020322900202A2900207D
:10456000282900202C290020382900203429002067
:104570004229002040290020482900204629002007
:104580004A29002080B500AF174B184A1A60164B15
:104590004FF482725A60144B00229A60124B002230
:1045A000DA60114B00221A610F4B00225A610E4B48
:1045B0004FF400729A610C4B0022DA610A4B002220
:1045C0001A62094B00225A62074B00229A62064B7C
:1045D0000A22DA62044802F0EDFB0346002B01D008
:1045E000FDF7A8FF00BF80BD4C290020003001402E
:1045F00080B58AB000AF786007F1140300221A601A
:104600005A609A60DA601A617B681B68194A9342A3
:104610002BD100233B61184B5B6C174A43F480534A
:104620005364154B5B6C03F480533B613B6900237F
:10463000FB60114B1B6B104A43F0020313630E4BDC
:104640001B6B03F00203FB60FB6838237B610223D2
:10465000BB610023FB6103233B6205237B6207F1FF
:1046600014031946054801F08BFD00BF2837BD46ED
:1046700080BD00BF0030014000380240000402400D
:1046800090B593B004AF00233B603B1D2E22002168
:10469000184603F0F7FE0020FDF7B8F8324B1B6810
:1046A00098B2324B1B6899B2314B1B689AB2314BAE
:1046B0001B689BB2304C0094FDF7B2FA00230293C2
:1046C0001823019348F2304300934FF6FF732B4AAF
:1046D00037213C20FDF77EFC002302931823019331
:1046E00048F2304300934FF6FF73254A6421282097
:1046F000FDF770FC4FF6FF730093B423B4229621AC
:104700003C20FDF786F91F4B1B881846FDF718FF64
:1047100078633B46796B184603F05CFF3A46012309
:104720000293182301934FF4784300934FF6FF73DD
:1047300098210020FDF7B2FC002302931823019377
:1047400048F2304300934FF6FF730F4AE6215020A2
:10475000FDF740FC002300220021002001F0B0FA08
:1047600000BF3C37BD4690BD74000020780000209B
:104770007C00002080000020C4CB0008309B000893
:10478000409B0008A8010020509B000880B582B023
:1047900002AF0023009340F24B13DD22BE21B42070
:1047A000FDF766F800BFBD4680BD000090B583B040
:1047B00002AFFFF7EBFF234B1B6898B2224B1B683D
:1047C00099B2224B1B689AB2214B1B689BB24FF6E1
:1047D000FF740094FDF799F81C4B1B6898B21C4BB2
:1047E0001B6899B2174B1B689CB2194B1B689BB294
:1047F0005B009AB2144B1B689BB2D31A9BB24FF664
:10480000FF7200922246FDF780F80E4B1B6898B2AB
:104810000D4B1B6899B20B4B1B689CB20C4B1B6871
:104820009BB25B009AB2084B1B689BB2D31A9BB237
:104830004FF6FF7200922246FDF767F800BF04377B
:10484000BD4690BD0800002010000020040000209C
:104850000C00002080B584B004AF994BDB88012B9D
:1048600017D1984B01221A60974B1B68052B09D072
:10487000052B11DC032B0ED0042B0DD1924B032200
:104880001A6009E0904B04221A60904B00221A60D3
:1048900002E000BF00E000BF894BDB89012B18D18B
:1048A000884B01221A60884B1B68052B13D0052BFF
:1048B00012DC032B02D0042B07D00DE0824B042224
:1048C0001A60824B01221A6006E07F4B05221A60B3
:1048D00002E000BF00E000BF7A4B1B68012B40F0F4
:1048E0004D81794B1B68052B00F0FC80052B00F3F4
:1048F0004281032B02D0042B4FD03CE1744BD222D7
:104900001A60744BBE221A60002300934FF4A07308
:10491000F022B4210020FCF7ABFF00230293182300
:10492000019348F2304300934FF478436A4AC82118
:104930000A20FDF74FFB002302931823019348F24E
:10494000304300934FF6FF73644AFA210A20FDF7C3
:1049500041FB4FF6FF7300934FF4967382224FF49E
:1049600096716E20FCF7D1FF4FF6FF7300934FF462
:104970009B7378224FF496716E20FCF7C6FF4FF6BA
:10498000FF7300934FF4967382224FF49B7178204B
:10499000FCF7BBFFFFF70AFFEDE0002300934FF4A5
:1049A000A073F022B4210020FCF762FF474B1B6884
:1049B000002B3DD1464BD2221A60464BBE221A60D4
:1049C000002302931823019348F2304300934FF4DD
:1049D0007843424AC8210A20FDF7FCFA00230293DB
:1049E0001823019348F2304300934FF6FF733C4A7B
:1049F000FA210A20FDF7EEFA4FF6FF730093BE236B
:104A00008222BE216E20FCF780FF4FF6FF730093D9
:104A1000B4237822BE216E20FCF777FF4FF6FF7398
:104A20000093BE238222B4217820FCF76EFF43E07E
:104A3000274B4FF482721A60264BF0221A60002333
:104A400002931823019348F2304300934FF6FF730B
:104A5000214AC8210A20FDF7BDFA0023029318233A
:104A6000019348F2304300934FF478431B4AFA21F4
:104A70000A20FDF7AFFA4FF6FF7300934FF49673D9
:104A800082224FF496716E20FCF73FFF4FF6FF73C2
:104A900000934FF49B7378224FF496716E20FCF7CD
:104AA00034FF4FF6FF7300934FF4967382224FF456
:104AB0009B717820FCF729FFFFF778FE5BE000BFD1
:104AC00030010020B801002014000020B4010020B3
:104AD0000C00002010000020589B0008689B000874
:104AE000789B0008274B4FF482721A60264BF02205
:104AF0001A60002300934FF4A073F022B421002029
:104B0000FCF7B6FE002302931823019348F23043CA
:104B100000934FF6FF731D4AC8210A20FDF75AFA89
:104B2000002302931823019348F2304300934FF47B
:104B30007843174AFA210A20FDF74CFA4FF6FF7323
:104B40000093BE238222BE216E20FCF7DEFE4FF6CC
:104B5000FF730093B4237822BE216E20FCF7D5FEAC
:104B60004FF6FF730093BE238222B4217820FCF716
:104B7000CCFEFFF71BFE074B00221A6000BFBD46AC
:104B800080BD00BF0C00002010000020689B0008C2
:104B9000789B0008B801002090B595B004AF03469B
:104BA000FB800020FCF732FE4E4B1B6898B24E4B48
:104BB0001B6899B24D4B1B689AB24D4B1B689BB258
:104BC0004C4C0094FDF72CF800230293182301931A
:104BD00048F2304300934FF6FF73474A37213C2099
:104BE000FDF7F8F9454A07F1080392E80300186059
:104BF0000433198007F10E032C220021184603F01C
:104C000041FCFB881846FDF79BFCF86307F108039D
:104C1000F96B184603F0DEFC07F10802002302934B
:104C20001823019348F2304300934FF6FF73642139
:104C30000020FDF733FA002302931823019348F272
:104C4000304300934FF6FF732D4A96210020FDF765
:104C500025FA002302931823019348F2304300936E
:104C60004FF47843274AC8210A20FDF7B3F90023FF
:104C700002931823019348F2304300934FF6FF73D9
:104C8000214AFA210A20FDF7A5F9204BD2221A6009
:104C90001F4BBE221A60FFF789FD4FF6FF7300938A
:104CA0004FF4967382224FF496716E20FCF72DFE1E
:104CB0004FF6FF7300934FF49B7378224FF4967175
:104CC0006E20FCF722FE4FF6FF7300934FF49673AD
:104CD00082224FF49B717820FCF717FE00BF443707
:104CE000BD4690BD74000020780000207C000020AC
:104CF00080000020C4CB0008309B0008909B000877
:104D0000889B0008589B0008689B00080C00002046
:104D10001000002080B594B004AFA74B9B8B012BF3
:104D200040F0A981A54B1B680A2B00F2A68101A2C5
:104D300052F823F0614D0008874D0008994D000896
:104D40007B5000087B5000087B500008734F000820
:104D5000834E0008054E00083B4E00080B5000082B
:104D6000964B01221A60964B00221A80954B002226
:104D70001A80954B03221A60944B40F2E7321A8056
:104D8000FFF77EFC7EE18D4B02221A608C4B1B8864
:104D90001846FFF701FF75E18B4B1B68052B24D0EC
:104DA000052B00F36C81032B02D0042B11D066E19C
:104DB000874B03221A60814B03221A60804B1B88A9
:104DC000804A128811461846FDF7F6FBFEF7FCFDF7
:104DD00017E07F4B04221A607C4B1E221A80774B0F
:104DE00008221A6000F078FE0BE0794B05221A6069
:104DF000764B1E221A80714B09221A60FBF7C2FB08
:104E000000BF3CE1714B1B881846FFF7BDFA4FF419
:104E10007A70FFF7D9FA6D4B1A886E4B1A80674B80
:104E200004221A60664B1B88684A1288114618468D
:104E3000FDF77AFCFEF7C8FD24E1644B1B88184699
:104E4000FFF7A2FA4FF47A70FFF7BEFA4FF4FA6058
:104E5000FFF7D6FA604B00221A805C4B1A885D4B34
:104E60001A80564B05221A60554B1B88574A1288E8
:104E700011461846FDF70CFDFEF7D2FCFEF7A4FD27
:104E800000E1564B1B68002B5FD1514B1B684B4A0E
:104E900013604C4B00221A80484B1B68052B30D006
:104EA000052B00F3EE80032B02D0042B0ED0E8E09C
:104EB000474B03221A60424B1B88424A1288114614
:104EC0001846FDF779FBFEF77FFD51E0404B0422C9
:104ED0001A60404B1A883D4B1A803C4B1B88184681
:104EE000FFF752FA4FF47A70FFF76EFA344B1B88D3
:104EF000364A128811461846FDF716FCFEF764FD87
:104F000036E0334B05221A60324B1A882F4B1A8039
:104F10002E4B1B881846FFF737FA4FF47A70FFF7CD
:104F200053FA4FF4FA60FFF76BFA2B4B00221A800A
:104F3000234B1B88254A128811461846FDF7A8FC0A
:104F4000FEF742FDFEF76CFC12E01C4B01221A60DA
:104F50001B4B00221A801B4B00221A801A4B032283
:104F60001A601A4B40F2E7321A80FFF789FB88E09B
:104F700087E01B4B1B68022B34D1154B1B680F4A73
:104F800013600E4B1B68042B03D00C4B1B68052BC6
:104F90000FD10E4B1B881846FFF7F6F94FF47A70C5
:104FA000FFF712FA4FF4FA60FFF72AFA0A4B0022D1
:104FB0001A80FEF791F965E030010020BC01002065
:104FC000A8010020AA0100201400002000000020F9
:104FD000C0010020D001002046290020B00100209F
:104FE0005C000020B14B01221A60B14B00221A80F4
:104FF000B04B00221A80B04B03221A60AF4B40F234
:10500000E7321A80FFF73CFB3CE0AD4B1B68032BFB
:1050100012D1A64B01221A60A54B00221A80A54B83
:1050200000221A80A44B03221A60A44B40F2E732FC
:105030001A80FFF725FB20E0A24B1B689B4A1360F8
:105040009A4B1B68042B03D0984B1B68052B0FD180
:105050009A4B1B881846FFF797F94FF47A70FFF7C1
:10506000B3F94FF4FA60FFF7CBF9974B00221A809F
:10507000FEF732F901E000BF04E000BF02E000BF2C
:1050800000E000BF894B1B68012B40F061810023C9
:105090007B6007F108032E220021184603F0F2F985
:1050A000834B1B88FB870023BB874DE1BB8F874A5F
:1050B00032F81330012B40F04481BB8F0D2B00F2EE
:1050C0001C8101A252F823F0015100082D51000863
:1050D000595100084153000885510008AD5100089E
:1050E000D551000841530008FD510008295200081D
:1050F000555200084153000881520008D952000857
:10510000FB8F1A46920013445B009AB2BB8F134484
:105110009BB20133FB87FB8F1846FDF711FAB8638A
:105120003B1DB96B184603F055FAE6E0FB8F1A46B3
:10513000920013445B009AB2BB8F13449BB20133BD
:10514000FB87FB8F1846FDF7FBF9B8633B1DB96B76
:10515000184603F03FFAD0E0FB8F1A469200134442
:105160005B009AB2BB8F13449BB20133FB87FB8F6A
:105170001846FDF7E5F9B8633B1DB96B184603F017
:1051800029FABAE0FB8F1A46920013445B009AB2E8
:10519000BB8F1344FB87FB8F1846FDF7D1F9B8632B
:1051A0003B1DB96B184603F015FAA6E0FB8F1A46B3
:1051B000920013445B009AB2BB8F1344FB87FB8FB2
:1051C0001846FDF7BDF9B8633B1DB96B184603F0EF
:1051D00001FA92E0FB8F1A46920013445B009AB2E8
:1051E000BB8F1344FB87FB8F1846FDF7A9F9B86303
:1051F0003B1DB96B184603F0EDF97EE0FB8F1A46B4
:10520000920013445B009AB2BB8F13449BB2013BE4
:10521000FB87FB8F1846FDF793F9B8633B1DB96B0D
:10522000184603F0D7F968E0FB8F1A469200134442
:105230005B009AB2BB8F13449BB2013BFB87FB8F91
:105240001846FDF77DF9B8633B1DB96B184603F0AE
:10525000C1F952E0FB8F1A46920013445B009AB2E8
:10526000BB8F13449BB2013BFB87FB8F1846FDF7B6
:1052700067F9B8633B1DB96B184603F0ABF93CE026
:10528000134BDBB287F83630FB8F124AA2FB0323A5
:10529000DB08FB87FB8F1846FDF752F9B8633B1D0F
:1052A000B96B184603F096F927E000BFBC01002057
:1052B000A8010020AA010020140000200000002006
:1052C00060000020C001002046290020300100209D
:1052D000C49B0008CDCCCCCCFB8F1A469200134463
:1052E0005B00FB87FB8F1846FDF72AF9B8633B1D6F
:1052F000B96B184603F06EF900BF00230093B42386
:10530000B42296213C20FCF7B3FA4FF6FF730093CA
:10531000B423B42296213C20FCF77BFB3A1D0123E9
:105320000293182301934FF4784300934FF6FF73D1
:1053300098210020FCF7B2FE1E4AFB8F138000E08C
:1053400000BFBB8F0133BB87BB8F0D2B7FF6AEAE8B
:10535000194B1B68082B01D100F012FD164B1B687E
:10536000092B01D1FBF790FA134B1B68012B0ED0D0
:10537000114B1B68022B01D1FFF76CFA0F4B1B8BF3
:10538000012B04D10C4B0A221A60FBF75FFD0A4B7C
:105390001B68042B09D0084B1B68052B05D0002087
:1053A000FFF712F80020FFF72BF800BF4037BD468B
:1053B00080BD00BFA8010020BC01002030010020FA
:1053C00080B483B000AF00237B60104B5B6C0F4A4E
:1053D00043F4804353640D4B5B6C03F480437B6068
:1053E0007B6800233B60094B1B6C084A43F08053E9
:1053F0001364064B1B6C03F080533B603B6800BF9B
:105400000C37BD465DF8047B704700BF0038024092
:1054100080B400AFFEE780B400AFFEE780B400AF19
:10542000FEE780B400AFFEE780B400AFFEE780B4D3
:1054300000AF00BFBD465DF8047B704780B400AF8D
:1054400000BFBD465DF8047B704780B400AF00BF6D
:10545000BD465DF8047B704780B500AF00F03AFDB3
:1054600000BF80BD80B500AF024802F04FFB00BF17
:1054700080BD00BFA829002080B584B004AF254BB3
:105480001B689BB20A3399B2002302931023019345
:10549000002300934FF6FF731F4A0020FCF7FEFD28
:1054A0001E4B1B689BB2083398B21A4B9A68194B73
:1054B0001B681344DA0F13445B109BB2143B99B280
:1054C000012302931023019348F2304300930023F9
:1054D000134AFCF77FFD114B1B689BB2083398B24F
:1054E0000C4B9A680B4B1B681344DA0F13445B1088
:1054F0009BB20F3399B2012302931023019348F218
:10550000304300930023074AFCF764FD00BFBD460B
:1055100080BD00BF4C000020C89B00083C0000205C
:10552000D89B0008E09B000890B587B004AF874B7C
:105530009A68864B1B681344DA0F13445B10083BD0
:105540007B60824B9A68814B1B681344DA0F1344CB
:105550005B101C333B607E4B1B68012B7AD0022B07
:1055600040F0F080FBF71AFE7A4B1B689BB20833C1
:1055700098B2764B9A68754B1B681344DA0F134444
:105580005B109BB2143B99B2012302931023019349
:1055900048F2304300934FF478436F4AFCF71AFD0A
:1055A0006C4B1B689BB2083398B2684B9A68674B88
:1055B0001B681344DA0F13445B109BB20F3399B28C
:1055C000012302931023019348F2304300930023F8
:1055D000624AFCF7FFFC5F4B5B689BB20F3B98B2E3
:1055E0007B6899B25B4B5B689BB20A3B9AB27B6863
:1055F0009BB2053B9BB200240094FCF786F9554B07
:105600005B689BB20F3B98B27B6899B2514B5B6869
:105610009BB20A3B9AB27B689BB205339BB20024D3
:105620000094FCF772F94B4B5B689BB20A3B98B253
:105630007B689BB2053B99B2464B5B689BB20A3BC9
:105640009AB27B689BB205339BB200240094FCF7AE
:105650005CF977E0FBF7A2FD3E4B1B689BB2083379
:1056600098B23A4B9A68394B1B681344DA0F1344CB
:105670005B109BB2143B99B2012302931023019358
:1056800048F2304300930023334AFCF7A3FC314B2C
:105690001B689BB2083398B22C4B9A682B4B1B6843
:1056A0001344DA0F13445B109BB20F3399B20123FA
:1056B00002931023019348F2304300934FF4784350
:1056C000264AFCF787FC234B5B689BB20F3B98B2E2
:1056D0003B6899B21F4B5B689BB20A3B9AB23B682E
:1056E0009BB2053B9BB200240094FCF70EF9194BCA
:1056F0005B689BB20F3B98B23B6899B2154B5B68F5
:105700009BB20A3B9AB23B689BB205339BB2002422
:105710000094FCF7FAF80F4B5B689BB20A3B98B217
:105720003B689BB2053B99B20A4B5B689BB20A3B54
:105730009AB23B689BB205339BB200240094FCF7FD
:10574000E4F800BF00BF0C37BD4690BD4C00002000
:105750005C0000203C000020D89B0008E09B000873
:1057600080B500AFFBF748FCFFF786FEFFF7DCFED5
:1057700000BF80BD80B500AF1C4B1B68062B33D12A
:105780001B4BDB88012B0FD11A4B01221A601A4BDD
:105790001B68012B02D0022B07D125E0164B0222F9
:1057A0001A60FFF7DDFF00E000BF114BDB89012B22
:1057B0000ED1104B01221A600F4B1B68012B12D027
:1057C000022B06D10C4B01221A60FFF7C9FF00E043
:1057D00000BF084B1B68012B06D1FFF7C1FF054B2B
:1057E00000221A6000E000BF80BD00BFBC010020A5
:1057F00030010020C80100205C00002080B582B08C
:1058000000AF0346FB71FB79012B10D10A4B062236
:105810001A600A4B02221A600020FEF7B5FD002034
:10582000FEF7EEFD064B01221A60FFF7A3FF0023EF
:1058300018460837BD4680BDBC0100205C00002032
:10584000C801002080B400AF01231846BD465DF8B2
:10585000047B704780B582B000AF7860396002F099
:10586000E7FD034616221A604FF0FF33184608374B
:10587000BD4680BD80B582B000AF78604FF0FF318B
:105880007868FFF7E7FFFEE780B586B000AFF86005
:10589000B9607A6000237B610AE0AFF300800146C3
:1058A000BB685A1CBA60CAB21A707B6901337B614B
:1058B0007A697B689A42F0DB7B6818461837BD46E8
:1058C00080BD80B586B000AFF860B9607A60002313
:1058D0007B6109E0BB685A1CBA601B781846AFF3BD
:1058E00000807B6901337B617A697B689A42F1DBD6
:1058F0007B6818461837BD4680BD80B483B000AFC2
:1059000078604FF0FF3318460C37BD465DF8047BD6
:10591000704780B483B000AF786039603B684FF463
:1059200000525A60002318460C37BD465DF8047BD0
:10593000704780B483B000AF7860012318460C37FD
:10594000BD465DF8047B704780B485B000AFF86059
:10595000B9607A60002318461437BD465DF8047BB1
:105960007047000080B586B000AF7860144A154BD0
:10597000D31A7B617B693B61134B1B68002B02D1FF
:10598000114B124A1A60104B1A687B6813443A692B
:105990009A4207D202F04CFD03460C221A604FF0E7
:1059A000FF3309E0084B1B68FB60074B1A687B68F4
:1059B0001344054A1360FB6818461837BD4680BD7E
:1059C0000000022000040000A4290020082A002072
:1059D00080B400AF064BD3F88830054A43F4700317
:1059E000C2F8883000BFBD465DF8047B704700BF39
:1059F00000ED00E080B586B000AF07F1080300229B
:105A00001A605A609A60DA603B4600221A605A6057
:105A10001D4B4FF080421A601B4B40F247325A60D8
:105A2000194B00229A60184B6322DA60164B002251
:105A30001A61154B00229A61134801F0A7FF034633
:105A4000002B01D0FCF776FD4FF48053BB6007F1CB
:105A5000080319460C4802F061F90346002B01D0F7
:105A6000FCF768FD00233B6000237B603B46194642
:105A7000054802F07DFB0346002B01D0FCF75AFDE0
:105A800000BF1837BD4680BDA829002080B584B06E
:105A900000AF78607B681B68B3F1804F15D100239D
:105AA000FB600C4B1B6C0B4A43F001031364094B66
:105AB0001B6C03F00103FB60FB68002200211C202B
:105AC00000F027FB1C2000F040FB00BF1037BD4654
:105AD00080BD00BF0038024090B595B004AF0020F3
