:020000040800F2
:1000000000000220CD580008454F00084B4F000863
:10001000514F0008574F00085D4F000800000000D6
:10002000000000000000000000000000634F000816
:10003000714F0008000000007F4F00088D4F00083E
:100040001D5900081D5900081D5900081D590008B8
:100050001D5900081D5900081D5900081D590008A8
:100060001D5900081D5900081D5900081D59000898
:100070001D5900081D5900081D5900081D59000888
:100080001D5900081D5900081D5900081D59000878
:100090001D5900081D5900081D5900081D59000868
:1000A0001D5900081D5900081D5900081D59000858
:1000B000994F00081D5900081D5900081D590008D6
:1000C0001D5900081D5900081D5900081D59000838
:1000D0001D5900081D5900081D5900081D59000828
:1000E0001D5900081D5900081D5900081D59000818
:1000F0001D5900081D5900081D5900081D59000808
:100100001D5900081D5900081D5900081D590008F7
:100110001D5900081D5900081D5900081D590008E7
:100120001D5900081D5900081D5900081D590008D7
:100130001D5900081D5900081D5900081D590008C7
:100140001D5900081D5900081D5900081D590008B7
:100150001D5900081D5900081D5900081D590008A7
:100160001D5900081D5900081D5900081D59000897
:100170001D5900081D5900081D5900080000000005
:080180001D5900081D5900087B
:1001900010B5054C237833B9044B13B10448AFF3C1
:1001A00000800123237010BD0C010020000000001E
:1001B0008C94000808B5034B1BB103490348AFF307
:1001C000008008BD00000000100100208C94000891
:1001D000034613F8012B002AFBD1181A0138704787
:1001E00001F0FF01102A2BDB10F0070F08D010F8E8
:1001F000013B013A8B422DD010F0070F42B3F6D1EC
:10020000F0B441EA012141EA014122F007047FF004
:1002100000070023F0E80256083C85EA010586EA5B
:10022000010685FA47F5A3FA87F586FA47F6A5FA97
:1002300087F68EB9EED1F0BC01F0FF0102F00702A3
:1002400032B110F8013B013A83EA010313B1F8D14E
:100250000020704701387047002D06BF354603382F
:10026000073815F0010F07D1013015F4807F02BF68
:10027000013015F4C03F0130F0BC0138704700BFB9
:1002800053B94AB9002908BF00281CBF4FF0FF31FD
:100290004FF0FF3000F074B9ADF1080C6DE904CEF9
:1002A00000F006F8DDF804E0DDE9022304B0704751
:1002B0002DE9F047089D04468E46002B4DD18A4219
:1002C000944669D9B2FA82F252B101FA02F3C2F14C
:1002D000200120FA01F10CFA02FC41EA030E9440DD
:1002E0004FEA1C48210CBEFBF8F61FFA8CF708FBFE
:1002F00016E341EA034306FB07F199420AD91CEBD6
:10030000030306F1FF3080F01F81994240F21C8107
:10031000023E63445B1AA4B2B3FBF8F008FB10334F
:1003200044EA034400FB07F7A7420AD91CEB040484
:1003300000F1FF3380F00A81A74240F20781644454
:10034000023840EA0640E41B00261DB1D4400023D9
:10035000C5E900433146BDE8F0878B4209D9002D3D
:1003600000F0EF800026C5E9000130463146BDE8C7
:10037000F087B3FA83F6002E4AD18B4202D3824231
:1003800000F2F980841A61EB030301209E46002DE0
:10039000E0D0C5E9004EDDE702B9FFDEB2FA82F235
:1003A000002A40F09280A1EB0C014FEA1C471FFA93
:1003B0008CFE0126200CB1FBF7F307FB131140EA7A
:1003C00001410EFB03F0884208D91CEB010103F147
:1003D000FF3802D2884200F2CB804346091AA4B209
:1003E000B1FBF7F007FB101144EA01440EFB00FEDD
:1003F000A64508D91CEB040400F1FF3102D2A64542
:1004000000F2BB800846A4EB0E0440EA03409CE7E0
:10041000C6F12007B34022FA07FC4CEA030C20FA8D
:1004200007F401FA06F31C43F9404FEA1C4900FAAD
:1004300006F3B1FBF9F8200C1FFA8CFE09FB18112A
:1004400040EA014108FB0EF0884202FA06F20BD99D
:100450001CEB010108F1FF3A80F08880884240F2ED
:100460008580A8F102086144091AA4B2B1FBF9F031
:1004700009FB101144EA014100FB0EFE8E4508D92C
:100480001CEB010100F1FF346CD28E456AD90238B1
:10049000614440EA0840A0FB0294A1EB0E01A14296
:1004A000C846A64656D353D05DB1B3EB080261EB04
:1004B0000E0101FA07F722FA06F3F1401F43C5E9DE
:1004C000007100263146BDE8F087C2F12003D84014
:1004D0000CFA02FC21FA03F3914001434FEA1C4756
:1004E0001FFA8CFEB3FBF7F007FB10360B0C43EA48
:1004F000064300FB0EF69E4204FA02F408D91CEBF8
:10050000030300F1FF382FD29E422DD902386344F5
:100510009B1B89B2B3FBF7F607FB163341EA034195
:1005200006FB0EF38B4208D91CEB010106F1FF38E4
:1005300016D28B4214D9023E6144C91A46EA0046DB
:1005400038E72E46284605E70646E3E61846F8E66D
:100550004B45A9D2B9EB020864EB0C0E0138A3E7B6
:100560004646EAE7204694E74046D1E7D0467BE797
:10057000023B614432E7304609E76444023842E70F
:10058000704700BF90B595B004AF002000F0F0FEBA
:10059000A64B1B6898B2A64B1B6899B2A54B1B686B
:1005A0009AB2A54B1B689BB2A44C009401F0EAF8E8
:1005B000002302931823019348F2304300934FF62F
:1005C000FF739F4A37213C2001F0B6FA9D4A3B4613
:1005D00092E80300186004331980BB1D2C2200210F
:1005E000184607F0C7FC984B1B88184601F074FDAD
:1005F0000346FB633B46F96B184607F063FD3A463A
:10060000002302931823019348F2304300934FF6DE
:10061000FF736421002001F0F3FA002302931823F2
:10062000019348F2304300934FF6FF73874A9621B7
:10063000002001F0E5FA002302931823019348F209
:10064000304300934FF6FF73814AD721142001F005
:1006500073FA4FF6FF730093F023C822D22196203D
:1006600000F089FF7B4B1B88184601F035FD0346DF
:10067000BB63784B1B88772B0ED80123029318237A
:10068000019348F2304300934FF6FF73BA6BD421C5
:10069000A52001F051FA0DE00123029318230193E4
:1006A00048F2304300934FF6FF73BA6BD4219D207C
:1006B00001F042FA674B1B88772B1AD84FF6FF736D
:1006C0000093DC23E122DC21CD2000F0D0FE4FF6A8
:1006D000FF730093D223D722DC21CD2000F0C7FE88
:1006E0004FF6FF730093D223D722DC21E12000F0E4
:1006F000BEFE584B1B881E2B1AD94FF6FF73009372
:10070000E623E122E621CD2000F0B1FE4FF6FF7393
:100710000093F023D722E621CD2000F0A8FE4FF66B
:10072000FF730093F023D722E621E12000F09FFE23
:10073000002302931823019348F2304300934FF6AD
:10074000FF73454A40F20911142001F0F5F94FF604
:10075000FF7300934FF49173C8224FF48271962077
:1007600000F009FF3D4B1B88184601F0B5FC03461D
:100770007B63012302931823019348F230430093D3
:100780004FF6FF737A6B40F20911AA2001F0D4F9F9
:10079000324B1B881D2B20D84FF6FF7300934FF46C
:1007A0008773E1224FF48771CD2000F060FE4FF691
:1007B000FF7300934FF48273D7224FF48771CD20DB
:1007C00000F055FE4FF6FF7300934FF48273D7226B
:1007D0004FF48771E12000F04AFE204B1B88002B6C
:1007E00020D04FF6FF7300934FF48C73E1224FF447
:1007F0008C71CD2000F03BFE4FF6FF7300934FF459
:100800009173D7224FF48C71CD2000F030FE4FF65B
:10081000FF7300934FF49173D7224FF48C71E12052
:1008200000F025FE00BF4437BD4690BD700000209B
:1008300074000020780000207C00002058C60008CA
:10084000A4940008D4940008A0010020B4940008E7
:10085000C494000800000020CC940008A4010020EB
:1008600080B500AF234BDB88012B0ED1224B1B88B8
:100870001E339AB2204B1A801F4B1B88782B02D94B
:100880001D4B78221A80FFF77DFE1A4BDB89012B66
:100890000ED1194B1B881E3B9AB2174B1A80164B70
:1008A0001B881D2B02D8144B1E221A80FFF76AFEEC
:1008B000104BDB8A012B0ED1104B1B8805339AB2EB
:1008C0000E4B1A800D4B1B881E2B02D90B4B1E2280
:1008D0001A80FFF757FE074BDB8B012B07D1074B25
:1008E0001B88053B9AB2054B1A80FFF74BFE00BFF1
:1008F00080BD00BF2801002000000020A4010020CE
:1009000080B500AF01220821024805F04DFB00BF71
:1009100080BD00BF000C024080B584B000AF002253
:1009200008212F4805F040FB012208212C4805F042
:100930003BFB0A2302222B492B4806F078F90023BF
:10094000FB604FF400437B8100237B603FE07B68CA
:10095000002B06DB7B68032B03DC7B680433FB6026
:1009600018E07B68032B07DD7B68072B04DC7B68C2
:10097000C3F10703FB600DE07B68072B06DD7B6896
:100980000B2B03DC7B680433FB6003E07B68C3F163
:100990001703FB60134B1A887B8913409BB2002B13
:1009A00005D0124AFB68002122F8131009E00F4A13
:1009B000FB6832F81330013399B20C4AFB6822F815
:1009C00013107B895B087B817B6801337B607B68CC
:1009D0000F2BBCDD00BF00BF1037BD4680BD00BF80
:1009E000000C02404801002040290020280100207E
:1009F00080B58EB000AF07F11C0300221A605A6068
:100A00009A60DA601A615A619A613B4600221A6064
:100A10005A609A60DA601A615A619A612F4B4FF0FE
:100A200020421A602D4B2E4A5A602C4B00229A60AD
:100A30002A4B0022DA60294B00221A61274B102230
:100A40005A61264B00229A61244B0022DA61234B23
:100A500000221A62214B00225A62204B4FF480522E
:100A60009A621E4B0022DA621C4B4FF480421A63DA
:100A70001A4B00225A63194B00229A63174B00222B
:100A80005A640F23FB610F233B623C237B620023EC
:100A9000BB621023FB6211233B6300237B630823AB
:100AA0003B600F237B600923BB600023FB601023A6
:100AB0003B6111237B610023BB613A4607F11C03B4
:100AC0001946064806F096FC0346002B01D001F0BB
:100AD000FDFA00BF3837BD4680BD00BF4C01002085
:100AE000040100A080B586B000AF3B1D00221A6053
:100AF0005A609A60DA601A611C4B1B68002B31D176
:100B00001A4B01221A6000233B60194B9B6B184A59
:100B100043F001039363164B9B6B03F001033B60AF
:100B20003B684FF688737B600223BB600023FB6049
:100B300003233B610C237B613B1D19460D4805F0E7
:100B400097F84CF2B3737B600223BB600023FB6019
:100B500003233B610C237B613B1D1946064805F0CE
:100B600087F800E000BF1837BD4680BD9C0100201B
:100B70000038024000100240000C024080B582B0F4
:100B800000AF7860FFF7AEFF00BF0837BD4680BDFD
:100B900090B583B002AF384B1B6898B2374B1B68D7
:100BA00099B2354BDB689CB2344BDB689AB2344B5C
:100BB0001B689BB2D31A9BB248F230420092224685
:100BC00000F008FC2C4B1B6898B22C4B1B6899B2A8
:100BD000294B5B689CB2294B5B689AB2284B1B6817
:100BE0009BB213449BB200220092224600F0F2FB1B
:100BF000214B1B6898B2214B1B6899B21E4B9B6816
:100C00009AB21F4B1B689BB213449AB21B4B9B6852
:100C10009BB20024009400F0DDFB174B5B689AB296
:100C2000174B1B689BB2D31A98B2144B5B6899B2EE
:100C3000114BDB689AB2114BDB689BB20024009425
:100C400000F0C8FB0C4B9B6898B20C4B9B689AB2A7
:100C50000B4B1B689BB2D31A99B2074BDB689AB255
:100C6000064BDB689BB20024009400F0B3FB00BF8E
:100C70000437BD4690BD00BF3C0000204C00002062
:100C80003800002080B584B004AF254B1B689BB2B0
:100C90000A3399B2012302931023019348F230439F
:100CA000009300231F4A002000F0AAFF1E4B1B6880
:100CB0009BB2083398B21A4B9A68194B1B681344BD
:100CC000DA0F13445B109BB20F3B99B201230293DE
:100CD0001023019348F2304300930023134A00F09D
:100CE0002BFF114B1B689BB2083398B20C4B9A68D0
:100CF0000B4B1B681344DA0F13445B109BB2143385
:100D000099B2012302931023019348F230430093D8
:100D10000023074A00F010FF00BFBD4680BD00BFA2
:100D20004C000020089500083C00002014950008A5
:100D30002095000890B583B002AF114B1B689AB2A2
:100D4000104B1B689BB2134498B20F4B1B689BB2AD
:100D5000193399B20A4B5B689AB20A4B1B689BB273
:100D6000D31A9AB2084BDB689BB2053B9BB248F2A0
:100D70003044009400F02EFB00BF0437BD4690BD08
:100D80003C000020380000204C00002090B587B0C7
:100D900004AF874B9A68864B1B681344DA0F1344E1
:100DA0005B10083B7B60824B9A68814B1B68134445
:100DB000DA0F13445B101C333B607E4B1B68002B27
:100DC00002D0012B78D0EFE0FFF7B4FF7A4B1B681D
:100DD0009BB2083398B2764B9A68754B1B681344E4
:100DE000DA0F13445B109BB20F3B99B201230293BD
:100DF0001023019348F2304300934FF478436F4A35
:100E000000F09AFE6C4B1B689BB2083398B2684B9B
:100E10009A68674B1B681344DA0F13445B109BB24C
:100E2000143399B2012302931023019348F2304303
:100E300000930023624A00F07FFE5F4B5B689BB229
:100E40000F3B98B27B6899B25B4B5B689BB20A3BE5
:100E50009AB27B689BB2053B9BB20024009400F0E1
:100E600006FB554B5B689BB20F3B98B27B6899B20F
:100E7000514B5B689BB20A3B9AB27B689BB20533CD
:100E80009BB20024009400F0F2FA4B4B5B689BB2DB
:100E90000A3B98B27B689BB2053B99B2464B5B68B4
:100EA0009BB20A3B9AB27B689BB205339BB200248B
:100EB000009400F0DCFA77E0FFF73CFF3E4B1B6844
:100EC0009BB2083398B23A4B9A68394B1B6813446B
:100ED000DA0F13445B109BB20F3B99B201230293CC
:100EE0001023019348F2304300930023334A00F06B
:100EF00023FE314B1B689BB2083398B22C4B9A6887
:100F00002B4B1B681344DA0F13445B109BB2143352
:100F100099B2012302931023019348F230430093C6
:100F20004FF47843264A00F007FE234B5B689BB2E0
:100F30000F3B98B23B6899B21F4B5B689BB20A3B70
:100F40009AB23B689BB2053B9BB20024009400F030
:100F50008EFA194B5B689BB20F3B98B23B6899B213
:100F6000154B5B689BB20A3B9AB23B689BB2053358
:100F70009BB20024009400F07AFA0F4B5B689BB29E
:100F80000A3B98B23B689BB2053B99B20A4B5B683F
:100F90009BB20A3B9AB23B689BB205339BB20024DA
:100FA000009400F064FA00BF00BF0C37BD4690BD4E
:100FB0004C000020A80100203C00002014950008EF
:100FC0002095000880B500AFFFF75CFEFFF75AFEE2
:100FD000FFF7DCFE00BF80BD80B500AF194BDB889A
:100FE000012B0CD1184B01221A60184B1B68002BE7
:100FF00023D0012B04D1154B00221A6000E000BF62
:10100000104BDB89012B0DD10F4B01221A600F4BC6
:101010001B68002B02D0012B11D004E00B4B0122E6
:101020001A6000E000BF084B1B68012B08D1FFF7D6
:10103000C9FF054B00221A6002E000BF00E000BFBC
:1010400080BD00BF28010020BC010020A8010020B5
:1010500080B500AF074B07221A60074B00221A80A9
:10106000064B00221A60064B01221A60FFF7B4FFFC
:1010700000BF80BDB4010020A2010020A801002013
:10108000BC01002080B58CB000AF07F11C0300222A
:101090001A605A609A60DA601A610023BB616F4B74
:1010A0001B6B6E4A43F0100313636C4B1B6B03F016
:1010B0001003BB61BB6900237B61684B1B6B674AF4
:1010C00043F004031363654B1B6B03F004037B6164
:1010D0007B6900233B61614B1B6B604A43F08003DB
:1010E00013635E4B1B6B03F080033B613B69002382
:1010F000FB605A4B1B6B594A43F001031363574B78
:101100001B6B03F00103FB60FB680023BB60534BC8
:101110001B6B524A43F008031363504B1B6B03F0E5
:101120000803BB60BB6800237B604C4B1B6B4B4AC6
:1011300043F040031363494B1B6B03F040037B6098
:101140007B6800233B60454B1B6B444A43F0020322
:101150001363424B1B6B03F002033B603B680022AE
:1011600070213F4804F020FF00224FF400513D4819
:1011700004F01AFF002240213B4804F015FF002232
:101180004FF48071394804F00FFF002208213848DD
:1011900004F00AFF7023FB6101233B6200237B62A2
:1011A0000023BB6207F11C0319462D4804F060FDC3
:1011B0004FF40053FB6101233B6200237B62002359
:1011C000BB6207F11C031946264804F051FDC023F9
:1011D000FB6100233B6200237B6207F11C0319467D
:1011E000224804F045FD3023FB6100233B620023CD
:1011F0007B6207F11C0319461A4804F039FD4023AD
:10120000FB6101233B6200237B620023BB6207F189
:101210001C031946144804F02BFD4FF48073FB6146
:1012200001233B6200237B620023BB6207F11C03A6
:1012300019460E4804F01CFD0823FB6101233B62A4
:1012400000237B620023BB6207F11C031946084898
:1012500004F00EFD00BF3037BD4680BD00380240AF
:101260000010024000080240001802400000024046
:10127000000C024080B483B000AF0346FB80044AF8
:10128000FB88138000BF0C37BD465DF8047B7047B8
:10129000FEFF0F6080B483B000AF0346FB80044ABA
:1012A000FB88538000BF0C37BD465DF8047B704758
:1012B000FEFF0F6080B483B000AF064B5B889BB22B
:1012C000FB80FB889BB218460C37BD465DF8047B5B
:1012D000704700BFFEFF0F6090B583B000AF0446BB
:1012E000084611461A462346FB800346BB800B4640
:1012F0007B8013463B802A20FFF7BCFFFB881B0A3C
:101300009BB21846FFF7C6FFFB88DBB29BB21846BC
:10131000FFF7C0FF7B881B0A9BB21846FFF7BAFF96
:101320007B88DBB29BB21846FFF7B4FF2B20FFF798
:10133000A1FFBB881B0A9BB21846FFF7ABFFBB8817
:10134000DBB29BB21846FFF7A5FF3B881B0A9BB296
:101350001846FFF79FFF3B88DBB29BB21846FFF7AA
:1013600099FF2C20FFF786FF00BF0C37BD4690BDCC
:1013700080B584B000AF0346FB80154B1B88013B52
:101380009AB2134B5B88013B9BB200210020FFF710
:10139000A3FF0023FB8111E00023BB8106E0FB8853
:1013A0001846FFF777FFBB890133BB81084B5B8889
:1013B000BA899A42F3D3FB890133FB81044B1B8822
:1013C000FA899A42E8D300BF00BF1037BD4680BDFE
:1013D000C801002090B585B000AF0446084611460C
:1013E0001A462346FB800346BB800B467B80134690
:1013F0003B807B88013B9AB23B88013B9BB2B9881A
:10140000F888FFF769FFBB88FB8110E0FB88BB8190
:1014100006E03B8C1846FFF73DFFBB890133BB81DB
:10142000BA897B889A42F4D3FB890133FB81FA891C
:101430003B889A42EAD300BF00BF1437BD4690BD37
:1014400080B582B000AF0346FB800B46BB801346DD
:101450007B80BB88FA88B988F888FFF73DFF7B88D6
:101460001846FFF717FF00BF0837BD4680BD90B58F
:101470008DB000AF0446084611461A462346FB804D
:101480000346BB800B467B8013463B800023BB6238
:1014900000237B627A88FB88D31A3B623A88BB8838
:1014A000D31AFB61FB88FB60BB88BB603B6A002BE7
:1014B00002DD01237B610BE03B6A002B02D100239C
:1014C0007B6105E04FF0FF337B613B6A5B423B622F
:1014D000FB69002B02DD01233B610BE0FB69002B64
:1014E00002D100233B6105E04FF0FF333B61FB6914
:1014F0005B42FB613A6AFB699A4202DD3B6ABB616F
:1015000001E0FB69BB610023FB852BE0FB689BB21C
:10151000BA6891B2B7F840201846FFF791FFBA6A4F
:101520003B6A1344BB627A6AFB6913447B62BA6A02
:10153000BB699A4207DDBA6ABB69D31ABB62FA6813
:101540007B691344FB607A6ABB699A4207DD7A6A59
:10155000BB69D31A7B62BA683B691344BB60FB8DDD
:101560000133FB85FB8DBA699A42CFDA00BF00BF19
:101570003437BD4690BD90B585B002AF04460846ED
:1015800011461A462346FB800346BB800B467B80F0
:1015900013463B80BC887A88B988F8883B8B0093D7
:1015A0002346FFF764FF3C88FA88B988F8883B8BAC
:1015B00000932346FFF75BFF3C887A883988F888D8
:1015C0003B8B00932346FFF752FF3C887A88B9880B
:1015D00078883B8B00932346FFF749FF00BF0C3709
:1015E000BD4690BD90B587B000AF04460846114691
:1015F0001A462346FB800346BB800B46FB7013460E
:101600003B8000237B75FB883B8297F82C305B087E
:10161000FB73FB7BDB08DBB21A46FB7B03F00703A3
:10162000DBB2002B14BF01230023DBB213449AB2B8
:1016300097F82C309BB212FB03F3BB81FB78203B65
:10164000FB70FB7B9AB2FB8813449BB2013B9CB2BC
:1016500097F82C309AB2BB8813449BB2013B9BB2E3
:10166000B988F8882246FFF737FE00237B827AE0AC
:1016700097F82C300C2B28D097F82C30102B08D151
:10168000FA787B8A3C4912010A4413441B78FB75A3
:101690001BE097F82C30182B0BD1FA78798A374851
:1016A00013465B0013441B0103440B441B78FB757A
:1016B0000BE097F82C30202B5AD1FA787B8A3049EE
:1016C00092010A4413441B78FB750023BB7544E068
:1016D00097F83030002B20D1FA7DBB7D42FA03F31E
:1016E00003F00103002B04D03B881846FFF7D2FD1E
:1016F00003E03B8D1846FFF7CDFD7B7D01337B7505
:101700007B7DFA7BB3FBF2F101FB02F29B1ADBB2A9
:10171000002B1FD100237B7522E0FA7DBB7D42FAAE
:1017200003F303F00103002B05D03A88B988FB8846
:101730001846FFF785FEFB880133FB80FA883B8A59
:10174000D21AFB7B9A4205D13B8AFB80BB880133CE
:10175000BB8005E0BB7D0133BB75BB7D072BB7D9D3
:101760007B8A01337B827A8ABB899A4280D300E0EC
:1017700000BF1C37BD4690BDD8960008C89C000825
:1017800098AE000890B587B000AF044608461146F1
:101790001A462346FB800346BB800B467B801346DC
:1017A0003B8000233B61FA887B8813449BB2013B5A
:1017B0009CB2BA883B8813449BB2013B9BB2B98868
:1017C000F8882246FFF788FD0023FB8227E00023EC
:1017D000BB821DE03B695B00BA6A13441B78FB7354
:1017E0003B695B000133BA6A13441B78BB73FB7B14
:1017F0001B021AB2BB7B1BB213431BB29BB218462F
:10180000FFF748FD3B6901333B61BB8A0133BB8273
:10181000BA8A3B889A42DDD3FB8A0133FB82FA8A7B
:101820007B889A42D3D300BF00BF1C37BD4690BD12
:1018300080B483B000AF0346FB71FB791B09DBB2B8
:1018400003F00303DBB2002B07D00A4B4FF4A07266
:101850001A80084BF0225A8006E0064BF0221A80CC
:10186000044B4FF4A0725A8000BF0C37BD465DF8A0
:10187000047B7047C801002080B500AF00224FF400
:101880000051AA4804F090FB4FF4FA7004F0BAF843
:1018900001224FF40051A54804F086FB4FF4FA7082
:1018A00004F0B0F80020FFF7C3FFD320FFF7E2FCFD
:1018B000FFF700FD03461A469D4B9A80FFF7FAFC9E
:1018C00003461A469A4B9A80FFF7F4FC03461A46E1
:1018D000974B9A80964B9B881B029AB2944B9A80A6
:1018E000FFF7E8FC03461A46914B9B8813439AB2D4
:1018F0008F4B9A80CF20FFF7BDFC0020FFF7CAFC7A
:10190000C120FFF7C7FC3020FFF7C4FCED20FFF734
:10191000B1FC6420FFF7BEFC0320FFF7BBFC1220E4
:10192000FFF7B8FC8120FFF7B5FCE820FFF7A2FC29
:101930008520FFF7AFFC1020FFF7ACFC7A20FFF703
:10194000A9FCCB20FFF796FC3920FFF7A3FC2C2045
:10195000FFF7A0FC0020FFF79DFC3420FFF79AFC66
:101960000220FFF797FCF720FFF784FC2020FFF709
:1019700091FCEA20FFF77EFC0020FFF78BFC0020A3
:10198000FFF788FCC020FFF775FC1B20FFF782FCE7
:10199000C120FFF76FFC0120FFF77CFCC520FFF79B
:1019A00069FC3020FFF776FC3020FFF773FCC7207E
:1019B000FFF760FCB720FFF76DFC3620FFF75AFCFD
:1019C0000820FFF767FC3A20FFF754FC5520FFF78B
:1019D00061FCB120FFF74EFC0020FFF75BFC1A20F2
:1019E000FFF758FCB620FFF745FC0A20FFF752FC32
:1019F000A220FFF74FFCF220FFF73CFC0020FFF78E
:101A000049FC2620FFF736FC0120FFF743FCE020CD
:101A1000FFF730FC0F20FFF73DFC2A20FFF73AFCD0
:101A20002820FFF737FC0820FFF734FC0E20FFF7D3
:101A300031FC0820FFF72EFC5420FFF72BFCA920D7
:101A4000FFF728FC4320FFF725FC0A20FFF722FCC4
:101A50000F20FFF71FFC0020FFF71CFC0020FFF702
:101A600019FC0020FFF716FC0020FFF713FCE12013
:101A7000FFF700FC0020FFF70DFC1520FFF70AFC24
:101A80001720FFF707FC0720FFF704FC1120FFF7E2
:101A900001FC0620FFF7FEFB2B20FFF7FBFB562087
:101AA000FFF7F8FB3C20FFF7F5FB0520FFF7F2FB03
:101AB0001020FFF7EFFB0F20FFF7ECFB3F20FFF7B5
:101AC000E9FB3F20FFF7E6FB0F20FFF7E3FB2B20AE
:101AD000FFF7D0FB0020FFF7DDFB0020FFF7DAFB6C
:101AE0000120FFF7D7FB3F20FFF7D4FB2A20FFF7A9
:101AF000C1FB0020FFF7CEFB0020FFF7CBFB00204F
:101B0000FFF7C8FBEF20FFF7C5FB1120FFF7B2FB83
:101B1000782003F077FF2920FFF7ACFB01224FF478
:101B20008071044804F040FA00BF80BD0008024004
:101B3000C80100200000024090B58BB004AFBA602D
:101B40001A460346FB810B46BB811346FB80FB898B
:101B5000BB820023FB7548E0FB7D002B45D1FA8951
:101B6000264B1B88194697F82C305B08DBB2CB1A42
:101B70009A423FDCBA89214B5B88194697F82C3092
:101B8000CB1A9A4236DCBB681B78802B02D9012322
:101B9000FB752AE0BB681B780D2B0BD197F82C3016
:101BA0009AB2BB891344BB81BB8AFB81BB680133FA
:101BB000BB6017E0BB681A78FC88B989F88997F888
:101BC0003030029397F82C3001933B8D00932346DD
:101BD000FFF708FD97F82C305B08DBB29AB2FB895F
:101BE0001344FB81BB680133BB60BB681B78002BCF
:101BF000B2D100E000BF1C37BD4690BDC801002037
:101C000080B58AB004AFBA601A460346FB810B4622
:101C1000BB811346FB80B868FEF7DAFA0346FB8205
:101C20000F4B1B881A46FB8ADB00D31ADA0F1344CA
:101C30005B10BB82FA89BB8A134498B2FA88B989CF
:101C400097F82830029397F8243001933B8C009347
:101C50001346BA68FFF770FF00BF1837BD4680BD56
:101C6000C801002080B500AF01224021024804F0E5
:101C70009BF900BF80BD00BF0018024080B500AFD7
:101C80003F4B1B88DBB29AB23D4B1A803D4B1B8801
:101C90001A463D4B9B5C1B021AB2394B1B881BB288
:101CA00013431BB29AB2364B1A80364B1B88032B58
:101CB00046D801A252F823F0C91C0008E71C00080E
:101CC000051D0008231D00082D4B1B8843F0B003A1
:101CD0009AB22B4B1A802A4B1B8823F040039AB2EE
:101CE000274B1A802DE0264B1B8843F0D0039AB275
:101CF000234B1A80224B1B8823F020039AB2204BDF
:101D00001A801EE01E4B1B8843F0E0039AB21C4B66
:101D10001A801B4B1B8823F010039AB2184B1A80B1
:101D20000FE0174B1B8843F070039AB2144B1A80D4
:101D3000134B1B8823F080039AB2114B1A8000E0EA
:101D400000BF104B1B8801335A4203F0030302F01B
:101D5000030258BF53429AB20A4B1A800022402114
:101D60000A4804F021F9012302220549084804F039
:101D700022FE01224021054804F016F900BF80BD73
:101D80008E000020CE0100208000002000180240BC
:101D90004029002080B485B000AFF860B9601346D8
:101DA000FB71FB68002B0EDBFB68092B0BDC094A7F
:101DB000FB6813441A78FB79D31AD9B2064ABB6878
:101DC00013440A461A7000BF1437BD465DF8047B01
:101DD000704700BF840000208000002080B483B0E2
:101DE00000AF0346FB71FB79012B07D10A4B1B881F
:101DF00023F008039AB2084B1A8006E0064B1B88B2
:101E000043F008039AB2044B1A8000BF0C37BD465A
:101E10005DF8047B704700BF8E00002080B483B063
:101E200000AF0346FB71FB79052B10D9FB79082B1A
:101E30000DD8FB79063B012202FA03F31AB2074BD5
:101E40001B881BB213431BB29AB2044B1A8000BF0B
:101E50000C37BD465DF8047B704700BF8E00002044
:101E600080B500AF03F05CFD00F080F8FFF70AF9E1
:101E700003F046FB02F052F9FEF7BAFD00F0E0F87D
:101E80004FF6FF70FFF774FA00F002F92F4B1B8832
:101E9000002B06D02D4B00221A80FEF73DFD02F0EC
:101EA000FFFC2B4B1B68032B07D0294B1B68042B13
:101EB00003D0274B1B68052B18D101F0E3FB244B03
:101EC0001B68052B08D1234B1B88002B04D001F085
:101ED00011FD204B00221A801F4B1B88002B08D0BD
:101EE0001D4B00221A8001F0A5FA02E01A4B0022D5
:101EF0001A80174B1B68072B01D1FFF76DF8144BA5
:101F00001B68062B01D103F0BBF9144B1B88012B76
:101F10000AD1124B00221A800D4B07221A60FFF7DC
:101F200097F80F4B03221A600E4B1B88012BADD183
:101F30000D4B1B88013B9AB20B4B1A8003F046FCF9
:101F40004FF47A7002F00CF8A0E700BF1C290020C3
:101F5000B40100203A29002022290020282900204D
:101F600014000020342900200000002080B594B027
:101F700000AF07F1200330220021184605F0FAFFD8
:101F800007F10C0300221A605A609A60DA601A6145
:101F90000023BB60284B1B6C274A43F0805313641B
:101FA000254B1B6C03F08053BB60BB6800237B6038
:101FB000224B1B68214A43F4804313601F4B1B686C
:101FC00003F480437B607B6802233B620123FB6256
:101FD00010233B630223BB630023FB6308233B64A2
:101FE000A8237B640223BB640423FB6407F1200362
:101FF000184603F0F3FF0346002B01D000F066F80B
:102000000F23FB6002233B6100237B614FF4A0534D
:10201000BB614FF4A053FB6107F10C030521184687
:1020200004F054FA0346002B01D000F04FF800BF33
:102030005037BD4680BD00BF0038024000700040F0
:1020400080B500AF00222021104803F0ADFF002230
:1020500040210E4803F0A8FF002210210B4803F096
:10206000A3FF01F037FFFFF7FDFDFEF749FCFFF787
:1020700003FC322001F0ACFF4FF4967001F034FF06
:102080004FF4FA6001F088FF00BF80BD00100240ED
:1020900080B584B004AF1F2300931D231D2213219C
:1020A0001320FFF797F901230293102301931F23B5
:1020B00000934FF47843044A64210020FFF7A0FD09
:1020C00000BFBD4680BD00BF2895000880B400AFAA
:1020D00072B600BFFEE7000080B590B000AF0346C7
:1020E000FB80FB8807F10C00064A322105F0B6FFA1
:1020F00007F10C03184605F0F5FF03461846403774
:10210000BD4680BD3895000890B583B002AF0D4B39
:102110001B6898B20C4B1B6899B20A4B5B689CB267
:10212000094B5B689AB2094B1B689BB213449BB284
:10213000002200922246FFF74DF900BF0437BD464A
:1021400090BD00BF180000202800002038000020AB
:1021500090B5A3B004AF03460A46FB801346BB808C
:102160004FF6FF70FFF704F9454B5B689AB2454B99
:102170001B689BB21F21009100210020FFF72AF964
:1021800001230293102301931F2300934FF47843FC
:102190003D4A05210020FFF7CFFC3C4A07F13C03F4
:1021A00092E8030018600433197007F141032D22EF
:1021B0000021184605F0DEFE354B1B881846FFF758
:1021C0008BFF786707F13C03796F184605F07AFFBB
:1021D000304B1B6898B2304B1B6899B207F13C0238
:1021E00001230293102301934FF6FF7300934FF4E2
:1021F0007843FFF7A1FC294A07F1080392E803009E
:1022000083E8030007F110032A220021184605F095
:10221000B1FE234B1B881846FFF75EFF386707F1B6
:102220000803396F184605F04DFF1E4B1B6898B226
:102230001D4B1B689BB2053399B207F108020023BE
:102240000293102301931F2300934FF47843FFF769
:1022500073FC164B1B6898B2154B1B6899B2154B53
:102260001B689AB2144B1B689BB2144C0094FFF786
:1022700089FAFFF749FF00BF7C37BD4690BD00BF1C
:1022800018000020280000203C9500084C9500080C
:10229000A00100206000002064000020809500085C
:1022A000A2010020680000206C00002070000020C7
:1022B00074000020780000207C00002058C6000830
:1022C00090B5A3B004AF03460A46FB801346BB801B
:1022D0004FF6FF70FFF74CF8444B5B689AB2444BE3
:1022E0001B689BB21F21009100210020FFF772F8AC
:1022F00001230293102301931F2300934FF478438B
:102300003C4A05210020FFF717FC3B4A07F13C033C
:1023100092E8030018600433197007F141032D227D
:102320000021184605F026FE344B1B881846FFF79F
:10233000D3FE786707F13C03796F184605F0C2FEBB
:102340002F4B1B6898B22F4B1B6899B207F13C02C8
:1023500001230293102301934FF6FF7300934FF470
:102360007843FFF7E9FB284A07F1080392E80300E6
:1023700083E8030007F110032A220021184605F024
:10238000F9FD0020FFF7A8FE386707F10803396F51
:10239000184605F097FE1D4B1B6898B21C4B1B6836
:1023A00099B207F1080201230293102301934FF61B
:1023B000FF7300934FF47843FFF7BEFB03F006FA78
:1023C000144B1B6898B2144B1B6899B2134B1B68D3
:1023D0009AB2134B1B689BB2124C0094FFF7D2F9D0
:1023E000FFF792FE00BF7C37BD4690BD180000206D
:1023F00028000020B49500084C950008A00100209A
:102400006000002064000020809500086800002023
:102410006C00002070000020740000207800002074
:102420007C00002058C6000890B5A3B004AF034656
:102430000A46FB801346BB804FF6FF70FEF798FFFD
:10244000444B5B689AB2444B1B689BB21F210091BE
:1024500000210020FEF7BEFF012302931023019309
:102460001F2300934FF478433C4A05210020FFF7D7
:1024700063FB3B4A07F13C0392E803001860043316
:10248000197007F141032D220021184605F072FD55
:10249000344B1B881846FFF71FFE786707F13C0393
:1024A000796F184605F00EFE2F4B1B6898B22F4B24
:1024B0001B6899B207F13C02012302931023019398
:1024C0004FF6FF7300934FF47843FFF735FB284A2C
:1024D00007F1080392E8030083E8030007F1100303
:1024E0002A220021184605F045FD0020FFF7F4FDE3
:1024F000386707F10803396F184605F0E3FD1D4BF7
:102500001B6898B21C4B1B6899B207F108020123A3
:102510000293102301934FF6FF7300934FF4784317
:10252000FFF70AFB03F052F9144B1B6898B2144BE7
:102530001B6899B2134B1B689AB2134B1B689BB272
:10254000124C0094FFF71EF9FFF7DEFD00BF7C3749
:10255000BD4690BD1800002028000020C49500084A
:102560004C950008A00100206000002064000020BD
:1025700080950008680000206C000020700000209A
:1025800074000020780000207C00002058C600085D
:1025900080B594B004AF334B1B68032B2AD1324A69
:1025A0003B1D92E8030083E8030007F10C032A2295
:1025B0000021184605F0DEFC2C4B1B881846FFF75F
:1025C0008BFDF8633B1DF96B184605F07BFD284B2E
:1025D0001B6898B2274B1B689BB2053399B23A1D12
:1025E00000230293182301931F2300934FF4784391
:1025F000FFF7A2FA1B4B1B68042B03D0194B1B6877
:10260000052B2AD1184A3B1D92E8030083E80300FA
:1026100007F10C032A220021184605F0ABFC134BEE
:102620001B881846FFF758FDB8633B1DB96B184669
:1026300005F048FD0E4B1B6898B20E4B1B6899B213
:102640003A1D00230293102301931F2300934FF49C
:102650007843FFF771FA03F0B9F800BF4037BD4681
:1026600080BD00BFB401002080950008A2010020B9
:10267000680000206C00002090B583B002AF8F4B43
:102680009B69032B00F2148101A252F823F000BFD2
:1026900029280008A927000821270008A1260008EA
:1026A000864BDB6A98B2854B1B6B99B2834BDB6A16
:1026B0009BB209339AB2814B1B6B9BB209339BB21D
:1026C0004FF478440094FEF785FE7C4BDB6A98B2A9
:1026D0007A4B1B6B99B2794BDB6A9BB204339AB28B
:1026E000764B1B6B9BB204339BB200240094FEF725
:1026F00071FE724BDB6A9BB2053398B26F4B1B6B5A
:1027000099B26E4BDB6A9BB209339AB26B4B1B6B6F
:102710009BB204339BB200240094FEF75BFEC8E03A
:10272000664BDB6A98B2654B1B6B99B2634BDB6AF5
:102730009BB209339AB2614B1B6B9BB209339BB2BC
:102740004FF478440094FEF745FE5C4BDB6A98B288
:102750005A4B1B6B9BB2053399B2584BDB6A9BB249
:1027600004339AB2554B1B6B9BB209339BB20024C6
:102770000094FEF72FFE514BDB6A9BB2053398B2F3
:102780004E4B1B6B9BB2053399B24C4BDB6A9BB231
:1027900009339AB2494B1B6B9BB209339BB200249D
:1027A0000094FEF717FE84E0444BDB6A98B2434B7B
:1027B0001B6B99B2414BDB6A9BB209339AB23F4B18
:1027C0001B6B9BB209339BB24FF478440094FEF725
:1027D00001FE3A4BDB6A98B2384B1B6B99B2374B10
:1027E000DB6A9BB204339AB2344B1B6B9BB204334B
:1027F0009BB200240094FEF7EDFD304BDB6A98B2EB
:102800002E4B1B6B9BB2053399B22C4BDB6A9BB2F0
:1028100004339AB2294B1B6B9BB209339BB2002441
:102820000094FEF7D7FD44E0244BDB6A98B2234BBB
:102830001B6B99B2214BDB6A9BB209339AB21F4BD7
:102840001B6B9BB209339BB24FF478440094FEF7A4
:10285000C1FD1A4BDB6A9BB2053398B2174B1B6B59
:1028600099B2164BDB6A9BB209339AB2134B1B6BBE
:102870009BB204339BB200240094FEF7ABFD0F4BD8
:10288000DB6A9BB2053398B20C4B1B6B9BB20533D2
:1028900099B20A4BDB6A9BB209339AB2074B1B6BA6
:1028A0009BB209339BB200240094FEF793FD00E035
:1028B00000BF00BF0437BD4690BD00BFD40100205B
:1028C00090B589B002AF584B9B6A002B40F0A780AF
:1028D000554B9B69002B03D1534B5B6898479FE096
:1028E000514B01229A6100237B6191E07B69002BAF
:1028F00028D14D4A7B690533DB00134407F10C02F4
:10290000043393E8030082E80300474A7B690533F8
:10291000DB0013445B68A3F10A0243497B6905337A
:10292000DB000B445A60404A7B690533DB001344EB
:102930009A683D497B690533DB000B449A60FFF7D9
:102940009BFE62E0384A7B690533DB0013443A1D85
:10295000043393E8030082E80300334A7B690533BC
:10296000DB001344043307F10C0292E8030083E810
:10297000030007F10C033A1D92E8030083E803000B
:102980007B69012B23D1284A7B690533DB00134483
:102990005B6898B2244A7B690533DB0013449B686B
:1029A00099B2214A7B690533DB0013445B689BB213
:1029B00009339AB21C4C7B690533DB0023449B68C6
:1029C0009BB209339BB200240094FEF703FD164B23
:1029D0005B6A013B7A699A4217D1134B1C333A1D4B
:1029E00092E8030083E803007B6898B2BB6899B261
:1029F0007B689BB209339AB2BB689BB209339BB226
:102A00004FF6FF740094FEF7E5FC7B6901337B61B0
:102A1000054B5B6A7A699A42FFF668AF00E000BF37
:102A200000BF1C37BD4690BDD401002090B589B0D1
:102A300002AF584B9B6A002B40F0A780554B9B6917
:102A4000012B03D1534B1B6898479FE0514B002249
:102A50009A6100237B6191E07B69002B28D14D4A6C
:102A60007B690533DB00134407F10C02043393E860
:102A7000030082E80300474A7B690533DB00134407
:102A80005B6803F10A0243497B690533DB000B44B1
:102A90005A60404A7B690533DB0013449A683D491C
:102AA0007B690533DB000B449A60FFF7E5FD62E0CC
:102AB000384A7B690533DB0013443A1D043393E83D
:102AC000030082E80300334A7B690533DB001344CB
:102AD000043307F10C0292E8030083E8030007F1D6
:102AE0000C033A1D92E8030083E803007B69012B85
:102AF00023D1284A7B690533DB0013445B6898B215
:102B0000244A7B690533DB0013449B6899B2214A50
:102B10007B690533DB0013445B689BB209339AB2CF
:102B20001C4C7B690533DB0023449B689BB2093353
:102B30009BB200240094FEF74DFC164B5B6A013BF0
:102B40007A699A4217D1134B1C333A1D92E803005D
:102B500083E803007B6898B2BB6899B27B689BB23C
:102B600009339AB2BB689BB209339BB24FF6FF742C
:102B70000094FEF72FFC7B6901337B61054B5B6A98
:102B80007A699A42FFF668AF00E000BF00BF1C37C9
:102B9000BD4690BDD401002090B589B002AF584B1E
:102BA0009B6A002B40F0A780554B9B69022B03D1F9
:102BB000534BDB6898479FE0514B03229A610023F7
:102BC0007B6191E07B69002B28D14D4A7B690533FD
:102BD000DB00134407F10C02043393E8030082E89E
:102BE0000300474A7B690533DB0013445A684449B4
:102BF0007B690533DB000B445A60414A7B6905332E
:102C0000DB0013449B68A3F10A023D497B6905334D
:102C1000DB000B449A60FFF72FFD62E0384A7B69C6
:102C20000533DB0013443A1D043393E8030082E8C4
:102C30000300334A7B690533DB001344043307F197
:102C40000C0292E8030083E8030007F10C033A1D2D
:102C500092E8030083E803007B69012B23D1284A13
:102C60007B690533DB0013445B6898B2244A7B69B7
:102C70000533DB0013449B6899B2214A7B69053315
:102C8000DB0013445B689BB209339AB21C4C7B692E
:102C90000533DB0023449B689BB209339BB20024BD
:102CA0000094FEF797FB164B5B6A013B7A699A42E8
:102CB00017D1134B1C333A1D92E8030083E803003D
:102CC0007B6898B2BB6899B27B689BB209339AB2B1
:102CD000BB689BB209339BB24FF6FF740094FEF7BA
:102CE00079FB7B6901337B61054B5B6A7A699A42A8
:102CF000FFF668AF00E000BF00BF1C37BD4690BDC7
:102D0000D401002090B589B002AF584B9B6A002BCC
:102D100040F0A780554B9B69032B03D1534B9B6815
:102D200098479FE0514B02229A6100237B6191E01A
:102D30007B69002B28D14D4A7B690533DB001344A6
:102D400007F10C02043393E8030082E80300474ACA
:102D50007B690533DB0013445A6844497B690533BA
:102D6000DB000B445A60414A7B690533DB001344A6
:102D70009B6803F10A023D497B690533DB000B4484
:102D80009A60FFF779FC62E0384A7B690533DB0023
:102D900013443A1D043393E8030082E80300334AE6
:102DA0007B690533DB001344043307F10C0292E81E
:102DB000030083E8030007F10C033A1D92E80300C7
:102DC00083E803007B69012B23D1284A7B69053303
:102DD000DB0013445B6898B2244A7B690533DB004F
:102DE00013449B6899B2214A7B690533DB00134485
:102DF0005B689BB209339AB21C4C7B690533DB00DC
:102E000023449B689BB209339BB200240094FEF7D5
:102E1000E1FA164B5B6A013B7A699A4217D1134B70
:102E20001C333A1D92E8030083E803007B6898B2E4
:102E3000BB6899B27B689BB209339AB2BB689BB2FC
:102E400009339BB24FF6FF740094FEF7C3FA7B6917
:102E500001337B61054B5B6A7A699A42FFF668AF82
:102E600000E000BF00BF1C37BD4690BDD40100206C
:102E700090B587B002AF754B1B689AB2744B1B6854
:102E80009BB2134499B24FF6FF7300934FF4A073B3
:102E9000F0220020FEF79EFA0023FB602CE0FB6886
:102EA000002B02D1FFF7E8FB23E06A4AFB680533F9
:102EB000DB0013445B6898B2664AFB680533DB00AD
:102EC00013449B6899B2634AFB680533DB001344E3
:102ED0005B689BB209339AB25E4CFB680533DB003A
:102EE00023449B689BB209339BB200240094FEF7F5
:102EF00071FAFB680133FB60564B5B6AFA689A42D1
:102F0000CDDB0023BB607EE05349BA6813465B000B
:102F100013449B000B441B687B604F49BA681346FF
:102F20005B0013449B000B4404331B683B607B68CD
:102F300098B23B6899B27B689BB209339AB23B68FE
:102F40009BB209339BB24BF640440094FEF742FA21
:102F50004149BA6813465B0013449B000B44083395
:102F60001B68012B26D17B6898B23B689BB20A3361
:102F700099B27B689BB209339AB23B689BB2133318
:102F80009BB24BF640440094FEF724FA7B6898B25B
:102F90003B689BB20A3B99B27B689BB209339AB2F9
:102FA0003B689BB2013B9BB24BF640440094FEF75A
:102FB00011FA25E07B689BB20A3398B23B6899B25C
:102FC0007B689BB213339AB23B689BB209339BB2C6
:102FD0004BF640440094FEF7FDF97B689BB20A3B38
:102FE00098B23B6899B27B689BB2013B9AB23B684E
:102FF0009BB209339BB24BF640440094FEF7EAF9CA
:10300000BB680133BB60144B03F58053D3F87037B2
:10301000BA689A42FFF678AF104B1B6898B2104B13
:103020001B6899B20D4B1B689BB209339AB20C4BCB
:103030001B689BB209339BB240F2CF140094FEF799
:10304000C9F900BF1437BD4690BD00BF280000205D
:1030500038000020D4010020A011002090000020A2
:103060009400002080B400AF0C4BDB6A002B0CDB1B
:103070000A4BDB6AE62B08DC084B1B6B452B04DD97
:10308000064B1B6BB3F59C7F01DD012300E00023A1
:103090001846BD465DF8047B704700BFD401002090
:1030A00080B483B000AF01237B6018E0124BDA6A72
:1030B00011497B680533DB000B445B689A420BD1F6
:1030C0000D4B1A6B0C497B680533DB000B449B6886
:1030D0009A4201D1012308E07B6801337B60064BF3
:1030E0005B6A7A689A42E1DB002318460C37BD46DA
:1030F0005DF8047B704700BFD401002080B400AFAE
:10310000094BDA6A094B1B689A4207D1064B1A6BC6
:10311000074B1B689A4201D1012300E000231846A7
:10312000BD465DF8047B7047D4010020900000206C
:103130009400002080B483B000AF00237B6079E06E
:1031400044497A6813465B0013449B000B440833E0
:103150001B68012B36D1404B196B3E487A681346E9
:103160005B0013449B00034404331B680A3B9942F1
:103170001AD0394B196B37487A6813465B001344F1
:103180009B00034404331B680A3399420CD0324B32
:10319000196B30487A6813465B0013449B00034464
:1031A00004331B68994242D12B4BD96A29487A686B
:1031B00013465B0013449B0003441B68994236D1BD
:1031C000012341E0244BD96A22487A6813465B0008
:1031D00013449B0003441B680A33994218D01E4BCA
:1031E000D96A1C487A6813465B0013449B00034469
:1031F0001B680A3B99420BD0174BD96A15487A686D
:1032000013465B0013449B0003441B6899420ED194
:10321000114B196B0F487A6813465B0013449B00EF
:10322000034404331B68994201D101230CE07B68FD
:1032300001337B60074B03F58053D3F870377A680E
:103240009A42FFF67DAF002318460C37BD465DF865
:10325000047B7047A0110020D401002090B585B0F8
:1032600002AFFFF7FFFE0346002B02D0FDF7F0FE92
:1032700063E0FFF715FF0346002B02D0FDF7E8FEE1
:103280005BE0FFF757FF0346002B02D0FDF7E0FE9F
:1032900053E0FFF733FF0346002B4ED0284B4FF08F
:1032A00000421A60274B4FF000421A60264B5B6ABF
:1032B0000133254A5362244B5B6A013B224AD2699F
:1032C00021490533DB000B445A601F4B5B6A013B0D
:1032D0001D4A126A1C490533DB000B449A601A4BE5
:1032E0005B6A013B184A0533DB0013445B687B6073
:1032F000154B5B6A013B144A0533DB0013449B68A2
:103300003B607B6898B23B6899B27B689BB209339B
:103310009AB23B689BB209339BB200240094FEF73B
:1033200059F80A4B01221A60094B1B8801339AB2E3
:10333000074B1A80FFF72CF900BF0C37BD4690BD34
:103340009000002094000020D4010020980000206C
:10335000A201002080B500AF114B9B69032B1BD845
:1033600001A252F823F000BF89330008913300080E
:103370007933000881330008094BDB6898470CE07B
:10338000074B9B68984708E0054B5B68984704E04B
:10339000034B1B68984700E000BF00BF80BD00BF23
:1033A000D401002080B483B000AF00237B601FE015
:1033B0001F497A6813465B0013449B000B440022AC
:1033C0001A601B497A6813465B0013449B000B4448
:1033D000043300221A6016497A6813465B001344CE
:1033E0009B000B44083300221A607B6801337B602A
:1033F0007B68B3F5FA7FDBDB0D4B03F580531A4690
:103400000023C2F870370A4B03F580531A46012394
:10341000C2F87437064B03F580531A460023C2F8EE
:10342000783700BF0C37BD465DF8047B704700BF9E
:10343000A011002080B582B002AF3E4B5B89002B0B
:1034400006D03D4B9B6898473B4B5B6998476EE0C5
:10345000384B5B8B002B06D0374BDB689847364BDD
:103460005B69984763E0334B9B8A002B06D0324B55
:103470005B689847304B5B69984758E02D4B1B8A37
:10348000002B06D02C4B1B6898472B4B5B69984749
:103490004DE0284B5B8A002B22D0274B9B6A002BE8
:1034A0000CBF01230023DBB21A46234B9A62234B45
:1034B00003F58053D3F87837002B0CBF012300238A
:1034C000DBB21A461D4B03F58053C3F878271A4B1D
:1034D0009B6A184601F018FF0346174A936226E0DC
:1034E000144B1B8B002B1CD04FF6FF70FDF740FFD9
:1034F000134B4FF000421A60124B4FF000421A601B
:1035000000F024F8FFF74EFF4FF478430093462372
:10351000F02200210020FDF75DFF0B4B01221A6015
:1035200005E0054B1B699847034B5B69984700BF53
:10353000BD4680BD28010020D4010020A01100203C
:1035400090000020940000209800002090B585B0E5
:1035500002AF434B1B68184604F014FD404B1B6838
:1035600001333F4A13603F4B01221A603E4B142245
:10357000DA623D4B46221A633B4B0A225A633A4BAE
:1035800046229A63384B0022DA63374B46221A648C
:1035900003237B6010E0344A7B680533DB0013446F
:1035A00000225A60304A7B680533DB001344002256
:1035B0009A607B6801337B607B68B3F5FA7FEADB56
:1035C000294B2A4ADA60284B294A1A60264B294A95
:1035D0009A60254B284A5A60234B284A1A61224B8D
:1035E000274A5A61204B03225A621F4B00229A61DC
:1035F00000233B602CE03B68002B02D1FFF73CF836
:1036000023E0194A3B680533DB0013445B6898B23A
:10361000154A3B680533DB0013449B6899B2124A94
:103620003B680533DB0013445B689BB209339AB2F5
:103630000D4C3B680533DB0023449B689BB2093388
:103640009BB200240094FDF7C5FE3B6801333B604C
:103650003B68022BCFDD00BF00BF0C37BD4690BDDD
:10366000D001002098000020D4010020052D000882
:10367000C1280008992B00082D2A0008553300089E
:103680005D32000890B587B002AF934B1B68012BE9
:1036900040F01E810023FB6004F0A2FC01468F4B2A
:1036A00083FB01239A10CB17D21A13465B001344F5
:1036B000DB00CA1A13469B0013445B001A46884B72
:1036C0001A6004F08DFC0146864B83FB0123DA105F
:1036D000CB17D21A13469B0013449A001344CA1AFC
:1036E000073213469B0013445B001A467E4B1A6058
:1036F0000023BB6021E07D4ABB680533DB00134437
:103700005A68774B1B689A4214D1784ABB680533D4
:10371000DB0013449A68744B1B689A420AD1704BC1
:103720004FF000421A60704B4FF000421A600123C4
:10373000FB6007E0BB680133BB606C4B5B6ABA6837
:103740009A42D8DBFB68002B40F0BE8000237B60F0
:1037500094E067497A6813465B0013449B000B446E
:1037600008331B68012B41D161497A6813465B001D
:1037700013449B000B4404331A685B4B1B689A424A
:103780001DD05B497A6813465B0013449B000B44D1
:1037900004331B6803F10A02534B1B689A420ED094
:1037A00053497A6813465B0013449B000B4404336F
:1037B0001B6803F10A024C4B1B689A425BD1484BD1
:1037C00019684B487A6813465B0013449B00034416
:1037D000196047497A6813465B0013449B000B4409
:1037E0001B68002B47D00123FB6050E03C4B1B685B
:1037F000002B1BD13E497A6813465B0013449B00A3
:103800000B441B6803F10A02354B1B689A420DD02A
:1038100037497A6813465B0013449B000B441B68CE
:10382000A3F10A022E4B1B689A4201D1012100E04C
:1038300000212F487A6813465B0013449B00034421
:1038400019602B497A6813465B0013449B000B44B4
:103850001B68002B0FD026497A6813465B0013447F
:103860009B000B4404331A681F4B1B689A4202D119
:103870000123FB600BE07B6801337B601C4B03F58D
:103880008053D3F870377A689A42FFF662AFFB68CC
:10389000002B1BD1124B1B6898B2134B1B6899B2BB
:1038A0000F4B1B689BB209339AB20F4B1B689BB23C
:1038B00009339BB240F2CF140094FDF78BFD064B09
:1038C00000221A6000BF03E000BFE3E600BFE1E6AC
:1038D00000BF1437BD4690BD98000020ABAAAA2AAD
:1038E000900000201F85EB5194000020D40100209F
:1038F000A011002090B58DB002AF9C4B03F5805312
:10390000D3F870379A4A1288934280F2D882974B44
:1039100003F58053D3F87837002B40F0D182002391
:103920007B6204F05DFB0246924B83FB021399100D
:10393000D317CB1A162101FB03F3D31A5A1C1346D3
:103940009B0013445B00BB6104F04AFB01468A4BB9
:1039500083FB01230B441A11CB17D21A13465B00C9
:103960001344DB009B1ACA1A083213469B00134407
:103970005B007B6100233B62E8E07C493A6A1346C6
:103980005B0013449B000B441B683B6177493A6A18
:1039900013465B0013449B000B4404331B68FB601D
:1039A000724B03F58053D3F87437012B66D16F49FE
:1039B0003A6A13465B0013449B000B4408331B68B0
:1039C000012B20D1FB68143B7A699A4213D0FB6823
:1039D00014337A699A420ED0FB680A3B7A699A429C
:1039E00009D0FB680A337A699A4204D0FA687B6985
:1039F0009A4240F0A8803A69BB699A4240F0A3809D
:103A000001237B62ABE0FB680A3B7A699A4208D0EB
:103A1000FB680A337A699A4203D0FA687B699A4252
:103A200003D13A69BB699A4225D0FB680A3B7A699F
:103A30009A4208D0FB680A337A699A4203D0FA683E
:103A40007B699A4204D13B690A3BBA699A4212D017
:103A5000FB680A3B7A699A4208D0FB680A337A69A4
:103A60009A4203D0FA687B699A426CD13B690A3367
:103A7000BA699A4267D101237B6264E03B493A6AA2
:103A800013465B0013449B000B4408331B68012B57
:103A90003AD13B690A3BBA699A4208D03B690A337A
:103AA000BA699A4203D03A69BB699A4203D1FA686B
:103AB0007B699A4225D03B690A3BBA699A4208D091
:103AC0003B690A33BA699A4203D03A69BB699A42A0
:103AD00004D1FB680A3B7A699A4212D03B690A3BDF
:103AE000BA699A4208D03B690A33BA699A4203D04C
:103AF0003A69BB699A4226D1FB680A337A699A42CD
:103B000021D101237B622AE03B69143BBA699A42C6
:103B100012D03B691433BA699A420DD03B690A331B
:103B2000BA699A4208D03B690A3BBA699A4203D003
:103B30003A69BB699A4206D1FA687B699A4202D116
:103B400001237B620BE03B6A01333B62074B03F5C9
:103B50008053D3F870373A6A9A42FFF60EAF7B6A09
:103B6000002B40F0A2810023FB6149E0A01100205E
:103B7000A4010020E9A28B2EC94216B25D4AFB695E
:103B80000533DB0013445B68BB605A4AFB690533AD
:103B9000DB0013449B687B60574B03F58053D3F8DD
:103BA0007437012B14D1BA69BB689A4225D17A695E
:103BB0007B689A4209D07B690A3B7A689A4204D0B2
:103BC0007B690A337A689A4217D101237B621CE031
:103BD0007A697B689A4210D1BA69BB689A4209D067
:103BE000BB690A3BBA689A4204D0BB690A33BA6817
:103BF0009A4202D101237B6207E0FB690133FB613A
:103C00003C4B5B6AFA699A42B8DB7B6A002B40F056
:103C10004E81384B9B69032B3FD801A252F823F009
:103C2000853C0008693C00084D3C0008313C000818
:103C3000304BDB6ABA699A4231D12E4B1B6B0A3B7F
:103C40007A699A422BD101237B6228E0294BDB6AF7
:103C5000BA699A4225D1274B1B6B0A337A699A427B
:103C60001FD101237B621CE0224BDB6A0A3BBA694D
:103C70009A4218D11F4B1B6B7A699A4213D10123C8
:103C80007B6210E01B4BDB6A0A33BA699A420BD1A4
:103C9000184B1B6B7A699A4206E000BF04E000BF34
:103CA00002E000BF00E000BF7B6A002B40F0018112
:103CB000114B03F58053D3F87437012B22D10F4BEE
:103CC0001B68BA699A4238D10D4B1B687A699A42CF
:103CD00000F0F1807B69A3F10A02094B1B689A424C
:103CE00000F0E9807B6903F10A02054B1B689A42E8
:103CF00023D1E0E0D4010020A0110020900000209A
:103D000094000020704B1B687A699A4215D16F4B62
:103D10001B68BA699A4200F0D080BB69A3F10A021D
:103D20006A4B1B689A4200F0C880BB6903F10A0223
:103D3000664B1B689A4200F0C080654B03F58053C8
:103D4000D3F87027624913465B0013449B000B4471
:103D5000BA691A605E4B03F58053D3F870275C494B
:103D600013465B0013449B000B4404337A691A60CA
:103D7000BB6998B27B6999B2BB699BB209339AB2AD
:103D80007B699BB209339BB24BF640440094FDF72C
:103D900021FB4F4B03F58053D3F87437012B34D1FB
:103DA000BB6998B27B699BB20A3399B2BB699BB27B
:103DB00009339AB27B699BB213339BB24BF64044F2
:103DC0000094FDF707FBBB6998B27B699BB20A3B85
:103DD00099B2BB699BB209339AB27B699BB2013B32
:103DE0009BB24BF640440094FDF7F4FA384B03F5D0
:103DF0008053D3F87027364913465B0013449B0069
:103E00000B44083301221A6033E0BB699BB20A33CA
:103E100098B27B6999B2BB699BB213339AB27B6942
:103E20009BB209339BB24BF640440094FDF7D2FAA3
:103E3000BB699BB20A3B98B27B6999B2BB699BB2E2
:103E4000013B9AB27B699BB209339BB24BF640446B
:103E50000094FDF7BFFA1E4B03F58053D3F870278B
:103E60001B4913465B0013449B000B44083300229C
:103E70001A60174B03F58053D3F870370133144A97
:103E800002F58052C2F87037114B03F58053D3F816
:103E90007437002B0CBF01230023DBB21A460C4BF6
:103EA00003F58053C3F874270AE000BF37E500BF6D
:103EB00035E500BF33E500BF31E500BF2FE500BFAA
:103EC0002C37BD4690BD00BF94000020900000201C
:103ED000A011002080B500AF024803F01FFB00BF17
:103EE00080BD00BF9C29002080B483B000AF034692
:103EF000FB80084AFB881380064B1A88064B1A8001
:103F0000064B00221A8000BF0C37BD465DF8047BCB
:103F1000704700BF262900202429002022290020E4
:103F200080B483B000AF0346FB80FB884FF47A7205
:103F300002FB03F3074A1360064B1B68064A136033
:103F4000064B00221A8000BF0C37BD465DF8047B8B
:103F5000704700BF302900202C290020282900208C
:103F600080B483B000AF0346FB80084AFB8813800F
:103F7000064B1A88064B1A80064B00221A8000BF97
:103F80000C37BD465DF8047B704700BF3829002020
:103F9000362900203429002080B483B000AF0346C6
:103FA000FB80084AFB881380064B1A88064B1A8050
:103FB000064B00221A8000BF0C37BD465DF8047B1B
:103FC000704700BF3E2900203C2900203A290020EC
:103FD00080B483B000AF0346FB80084AFB8813809F
:103FE000064B1A88064B1A80064B00221A8000BF27
:103FF0000C37BD465DF8047B704700BF20290020C8
:104000001E2900201C29002080B582B000AF7860F6
:104010007B681B68B3F1804F61D1334B1B88002B49
:1040200010D0314B1B88013B9AB22F4B1A802E4B7C
:104030001B88002B06D12D4B01221A802C4B1A888D
:10404000294B1A802B4B1B88002B10D0294B1B8827
:10405000013B9AB2274B1A80264B1B88002B06D1B6
:10406000254B01221A80254B1A88224B1A80244B9B
:104070001B68002B0BD0224B1B68013B204A1360AE
:104080001F4B1B68002B02D11E4B01221A801E4BB6
:104090001B88002B0CD01C4B1B88013B9AB21A4B7F
:1040A0001A80194B1B88002B02D1184B01221A8051
:1040B000174B1B88002B10D0154B1B88013B9AB265
:1040C000134B1A80124B1B88002B06D1114B012277
:1040D0001A80114B1A880E4B1A80FDF7CFFD00BFD6
:1040E0000837BD4680BD00BF2429002022290020BA
:1040F000262900201E2900201C290020202900201C
:104100002C290020282900203629002034290020CD
:104110003C2900203A2900203E29002080B500AF2C
:10412000174B184A1A60164B4FF482725A60144BA0
:1041300000229A60124B0022DA60114B00221A61B1
:104140000F4B00225A610E4B4FF400729A610C4BD8
:104150000022DA610A4B00221A62094B00225A62DD
:10416000074B00229A62064B0A22DA62044802F0E8
:1041700099FB0346002B01D0FDF7A8FF00BF80BDCF
:10418000402900200030014080B58AB000AF78603F
:1041900007F1140300221A605A609A60DA601A610B
:1041A0007B681B68194A93422BD100233B61184B53
:1041B0005B6C174A43F480535364154B5B6C03F4F8
:1041C00080533B613B690023FB60114B1B6B104A22
:1041D00043F0020313630E4B1B6B03F00203FB60FF
:1041E000FB6838237B610223BB610023FB6103234F
:1041F0003B6205237B6207F114031946054801F071
:1042000037FD00BF2837BD4680BD00BF00300140EC
:10421000003802400004024090B593B004AF002380
:104220003B603B1D2E220021184603F0A3FE002018
:10423000FDF79EF82F4B1B6898B22F4B1B6899B265
:104240002E4B1B689AB22E4B1B689BB22D4C0094D0
:10425000FDF798FA002302931823019348F23043A4
:1042600000934FF6FF73284A37213C20FDF764FC8A
:10427000002302931823019348F2304300934FF632
:10428000FF73224A64212820FDF756FC4FF6FF7386
:104290000093B423B42296213C20FDF76CF91C4B0B
:1042A0001B881846FDF718FF78633B46796B184664
:1042B00003F008FF3A4601230293182301934FF4B9
:1042C000784300934FF6FF7398210020FDF798FC88
:1042D000002302931823019348F2304300934FF6D2
:1042E000FF730C4AE6215020FDF726FC00BF3C3747
:1042F000BD4690BD700000207400002078000020B2
:104300007C00002058C60008D4950008E4950008F9
:10431000A0010020F495000880B582B002AF002310
:10432000009340F24B13DD22BE21B420FDF752F87A
:1043300000BFBD4680BD000090B583B002AFFFF75F
:10434000EBFF234B1B6898B2224B1B6899B2224BA0
:104350001B689AB2214B1B689BB24FF6FF74009406
:10436000FDF785F81C4B1B6898B21C4B1B6899B273
:10437000174B1B689CB2194B1B689BB25B009AB22F
:10438000144B1B689BB2D31A9BB24FF6FF7200927C
:104390002246FDF76CF80E4B1B6898B20D4B1B685C
:1043A00099B20B4B1B689CB20C4B1B689BB25B0019
:1043B0009AB2084B1B689BB2D31A9BB24FF6FF729E
:1043C00000922246FDF753F800BF0437BD4690BD6A
:1043D0000800002010000020040000200C00002035
:1043E00080B584B004AF994BDB88012B17D1984B73
:1043F00001221A60974B1B68052B09D0052B11DC95
:10440000032B0ED0042B0DD1924B03221A6009E02E
:10441000904B04221A60904B00221A6002E000BF09
:1044200000E000BF894BDB89012B18D1884B0122AA
:104430001A60884B1B68052B13D0052B12DC032B4D
:1044400002D0042B07D00DE0824B04221A60824B6D
:1044500001221A6006E07F4B05221A6002E000BFCD
:1044600000E000BF7A4B1B68012B40F04D81794B77
:104470001B68052B00F0FC80052B00F34281032B09
:1044800002D0042B4FD03CE1744BD2221A60744B03
:10449000BE221A60002300934FF4A073F022B421CF
:1044A0000020FCF797FF002302931823019348F2A2
:1044B000304300934FF478436A4AC8210A20FDF73D
:1044C0003BFB002302931823019348F230430093EF
:1044D0004FF6FF73644AFA210A20FDF72DFB4FF6D1
:1044E000FF7300934FF4967382224FF496716E20FF
:1044F000FCF7BDFF4FF6FF7300934FF49B737822D8
:104500004FF496716E20FCF7B2FF4FF6FF730093E5
:104510004FF4967382224FF49B717820FCF7A7FF2B
:10452000FFF70AFFEDE0002300934FF4A073F022A1
:10453000B4210020FCF74EFF474B1B68002B3DD1F8
:10454000464BD2221A60464BBE221A6000230293C9
:104550001823019348F2304300934FF47843424AC2
:10456000C8210A20FDF7E8FA0023029318230193DB
:1045700048F2304300934FF6FF733C4AFA210A2079
:10458000FDF7DAFA4FF6FF730093BE238222BE21B5
:104590006E20FCF76CFF4FF6FF730093B423782274
:1045A000BE216E20FCF763FF4FF6FF730093BE231E
:1045B0008222B4217820FCF75AFF43E0274B4FF4C6
:1045C00082721A60264BF0221A600023029318238D
:1045D000019348F2304300934FF6FF73214AC821FC
:1045E0000A20FDF7A9FA002302931823019348F249
:1045F000304300934FF478431B4AFA210A20FDF719
:104600009BFA4FF6FF7300934FF4967382224FF498
:1046100096716E20FCF72BFF4FF6FF7300934FF45B
:104620009B7378224FF496716E20FCF720FF4FF6B3
:10463000FF7300934FF4967382224FF49B7178209E
:10464000FCF715FFFFF778FE5BE000BF28010020B4
:10465000B001002014000020AC0100200C0000205C
:1046600010000020FC9500080C9600081C9600081D
:10467000274B4FF482721A60264BF0221A600023F7
:1046800000934FF4A073F022B4210020FCF7A2FEA7
:10469000002302931823019348F2304300934FF60E
:1046A000FF731D4AC8210A20FDF746FA0023029332
:1046B0001823019348F2304300934FF47843174A8C
:1046C000FA210A20FDF738FA4FF6FF730093BE2354
:1046D0008222BE216E20FCF7CAFE4FF6FF730093C4
:1046E000B4237822BE216E20FCF7C1FE4FF6FF7383
:1046F0000093BE238222B4217820FCF7B8FEFFF796
:104700001BFE074B00221A6000BFBD4680BD00BFE4
:104710000C000020100000200C9600081C960008D9
:10472000B001002090B595B004AF0346FB80002097
:10473000FCF71EFE4E4B1B6898B24E4B1B6899B29D
:104740004D4B1B689AB24D4B1B689BB24C4C00946E
:10475000FDF718F8002302931823019348F2304321
:1047600000934FF6FF73474A37213C20FDF7E4F9E9
:10477000454A07F1080392E80300186004331980E2
:1047800007F10E032C220021184603F0F3FBFB88EF
:104790001846FDF7A1FCF86307F10803F96B18460A
:1047A00003F090FC07F10802002302931823019301
:1047B00048F2304300934FF6FF7364210020FDF769
:1047C0001FFA002302931823019348F23043009309
:1047D0004FF6FF732D4A96210020FDF711FA0023B2
:1047E00002931823019348F2304300934FF4784327
:1047F000274AC8210A20FDF79FF9002302931823B6
:10480000019348F2304300934FF6FF73214AFA2197
:104810000A20FDF791F9204BD2221A601F4BBE22CD
:104820001A60FFF789FD4FF6FF7300934FF49673FC
:1048300082224FF496716E20FCF719FE4FF6FF733B
:1048400000934FF49B7378224FF496716E20FCF71F
:104850000EFE4FF6FF7300934FF4967382224FF4CF
:104860009B717820FCF703FE00BF4437BD4690BD26
:104870007000002074000020780000207C000020E0
:1048800058C60008D4950008349600082C960008F5
:10489000FC9500080C9600080C0000201000002079
:1048A00080B594B004AFA64B9B8B012B40F0718177
:1048B000A44B1B68092B00F26E8101A252F823F071
:1048C000E94800080F49000821490008974B0008F3
:1048D000974B0008974B0008FB4A00080B4A00085A
:1048E0008D490008C3490008964B01221A60964B77
:1048F00000221A80954B00221A80954B03221A60E1
:10490000944B40F2E7321A80FFF786FC48E18D4B6A
:1049100002221A608C4B1B881846FFF703FF3FE109
:104920008B4B1B68052B24D0052B00F33681032B02
:1049300002D0042B11D030E1874B03221A60814B47
:1049400003221A60804B1B88804A12881146184641
:10495000FDF7FEFBFEF7FAFD17E07F4B04221A601D
:104960007C4B1E221A80774B08221A6000F03AFE18
:104970000BE0794B05221A60764B1E221A80714B90
:1049800009221A60FBF7FEFD00BF06E1714B1B8890
:104990001846FFF7C5FA4FF47A70FFF7E1FA6D4B4E
:1049A0001A886E4B1A80674B04221A60664B1B886C
:1049B000684A128811461846FDF782FCFEF7C6FDCC
:1049C000EEE0644B1B881846FFF7AAFA4FF47A70A2
:1049D000FFF7C6FA4FF4FA60FFF7DEFA604B0022E9
:1049E0001A805C4B1A885D4B1A80564B05221A6060
:1049F000554B1B88574A128811461846FDF714FD7F
:104A0000FEF7D0FCFEF7A2FDCAE0564B1B68002B58
:104A10005FD1514B1B684B4A13604C4B00221A80EC
:104A2000484B1B68052B30D0052B00F3B880032BB7
:104A300002D0042B0ED0B2E0474B03221A60424B47
:104A40001B88424A128811461846FDF781FBFEF783
:104A50007DFD51E0404B04221A60404B1A883D4BCB
:104A60001A803C4B1B881846FFF75AFA4FF47A70AD
:104A7000FFF776FA344B1B88364A128811461846DF
:104A8000FDF71EFCFEF762FD36E0334B05221A608F
:104A9000324B1A882F4B1A802E4B1B881846FFF773
:104AA0003FFA4FF47A70FFF75BFA4FF4FA60FFF7C2
:104AB00073FA2B4B00221A80234B1B88254A12883D
:104AC00011461846FDF7B0FCFEF740FDFEF76AFC04
:104AD00012E01C4B01221A601B4B00221A801B4B58
:104AE00000221A801A4B03221A601A4B40F2E73256
:104AF0001A80FFF791FB52E051E01B4B1B68022B21
:104B000034D1154B1B680F4A13600E4B1B68042BE6
:104B100003D00C4B1B68052B0FD10E4B1B8818467E
:104B2000FFF7FEF94FF47A70FFF71AFA4FF4FA60C4
:104B3000FFF732FA0A4B00221A80FEF799F92FE0AC
:104B400028010020B4010020A0010020A2010020C3
:104B50001400002000000020B8010020C401002043
:104B60003A290020A80100205C000020B04B01225F
:104B70001A60B04B00221A80AF4B00221A80AF4B54
:104B800003221A60AE4B40F2E7321A80FFF744FB73
:104B900006E000BF04E000BF02E000BF00E000BF8D
:104BA000A34B1B68012B40F05B8100237B6007F166
:104BB00008032E220021184603F0DCF99D4B1B88C8
:104BC000FB870023BB8747E1BB8F9E4A32F8133037
:104BD000012B40F03E81BB8F0D2B00F2058101A21D
:104BE00052F823F01D4C0008494C0008754C000891
:104BF000514E0008A14C0008C94C0008F14C0008B7
:104C0000514E0008194D0008454D0008714D00082F
:104C1000514E00089D4D0008C74D0008FB8F1A46F5
:104C2000920013445B009AB2BB8F13449BB20133D2
:104C3000FB87FB8F1846FDF74FFAB8633B1DB96B36
:104C4000184603F03FFACFE0FB8F1A469200134458
:104C50005B009AB2BB8F13449BB20133FB87FB8F7F
:104C60001846FDF739FAB8633B1DB96B184603F0D7
:104C700029FAB9E0FB8F1A46920013445B009AB2FE
:104C8000BB8F13449BB20133FB87FB8F1846FDF7A4
:104C900023FAB8633B1DB96B184603F013FAA3E07F
:104CA000FB8F1A46920013445B009AB2BB8F1344E9
:104CB000FB87FB8F1846FDF70FFAB8633B1DB96BF6
:104CC000184603F0FFF98FE0FB8F1A469200134459
:104CD0005B009AB2BB8F1344FB87FB8F1846FDF72E
:104CE000FBF9B8633B1DB96B184603F0EBF97BE0A9
:104CF000FB8F1A46920013445B009AB2BB8F134499
:104D0000FB87FB8F1846FDF7E7F9B8633B1DB96BCE
:104D1000184603F0D7F967E0FB8F1A469200134458
:104D20005B009AB2BB8F13449BB2013BFB87FB8FA6
:104D30001846FDF7D1F9B8633B1DB96B184603F06F
:104D4000C1F951E0FB8F1A46920013445B009AB2FE
:104D5000BB8F13449BB2013BFB87FB8F1846FDF7CB
:104D6000BBF9B8633B1DB96B184603F0ABF93BE0E8
:104D7000FB8F1A46920013445B009AB2BB8F134418
:104D80009BB2013BFB87FB8F1846FDF7A5F9B86383
:104D90003B1DB96B184603F095F925E02A4BDBB2B1
:104DA00087F83630FB8F294AA2FB0323DB08FB87F9
:104DB000FB8F1846FDF790F9B8633B1DB96B184699
:104DC00003F080F910E0FB8F1A46920013445B0059
:104DD000FB87FB8F1846FDF77FF9B8633B1DB96B66
:104DE000184603F06FF900BF00230093B423B422E8
:104DF00096213C20FCF7EEFA4FF6FF730093B423A4
:104E0000B42296213C20FCF7B6FB3A1D0123029305
:104E1000182301934FF4784300934FF6FF739821C2
:104E20000020FCF7EDFE034AFB8F138011E000BF6A
:104E3000B4010020A0010020A201002014000020E5
:104E4000000000202801002068960008CDCCCCCCC2
:104E500000BFBB8F0133BB87BB8F0D2B7FF6B4AE7A
:104E60001E4B1B68082B01D100F002FD1B4B1B6879
:104E7000092B01D1FBF7F4FC184B1B68012B1BD04D
:104E8000164B1B68022B01D1FFF7AAFA144B1B8BA0
:104E9000012B11D1114B01221A60124B00221A80F2
:104EA000114B00221A80114B40F2E7321A80FFF7B3
:104EB000B3F90F4B03221A60084B1B68042B09D06F
:104EC000064B1B68052B05D00020FFF749F8002092
:104ED000FFF762F800BF4037BD4680BDB401002037
:104EE00028010020A0010020A201002000000020D5
:104EF0001400002080B483B000AF00237B60104B0F
:104F00005B6C0F4A43F4804353640D4B5B6C03F4BA
:104F100080437B607B6800233B60094B1B6C084A25
:104F200043F080531364064B1B6C03F080533B60CB
:104F30003B6800BF0C37BD465DF8047B704700BF7F
:104F40000038024080B400AFFEE780B400AFFEE757
:104F500080B400AFFEE780B400AFFEE780B400AFDE
:104F6000FEE780B400AF00BFBD465DF8047B70472C
:104F700080B400AF00BFBD465DF8047B704780B4CD
:104F800000AF00BFBD465DF8047B704780B500AF41
:104F900000F018FD00BF80BD80B500AF024802F0F0
:104FA0002DFB00BF80BD00BF9C29002080B584B0D0
:104FB00004AF1C4B1B689BB2083398B21A4B9A681B
:104FC000194B1B681344DA0F13445B109BB2143B5C
:104FD00099B2012302931023019348F230430093C6
:104FE0000023124AFCF7A8FD0E4B1B689BB2083346
:104FF00098B20D4B9A680C4B1B681344DA0F13449C
:105000005B109BB20F3399B20123029310230193DB
:1050100048F2304300930023054AFCF78DFD00BFA2
:10502000BD4680BD3C0000204C0000206C9600086E
:105030007496000890B587B004AF874B9A68864B8A
:105040001B681344DA0F13445B10083B7B60824BF0
:105050009A68814B1B681344DA0F13445B101C33AE
:105060003B607E4B1B68012B7AD0022B40F0F08016
:10507000FBF760FE7A4B1B689BB2083398B2764B05
:105080009A68754B1B681344DA0F13445B109BB28C
:10509000143B99B2012302931023019348F2304349
:1050A00000934FF478436F4AFCF746FD6C4B1B6846
:1050B0009BB2083398B2684B9A68674B1B681344DD
:1050C000DA0F13445B109BB20F3399B201230293A2
:1050D0001023019348F2304300930023624AFCF707
:1050E0002BFD5F4B5B689BB20F3B98B27B6899B21C
:1050F0005B4B5B689BB20A3B9AB27B689BB2053BF9
:105100009BB200240094FCF7B2F9554B5B689BB24C
:105110000F3B98B27B6899B2514B5B689BB20A3BDC
:105120009AB27B689BB205339BB200240094FCF7D3
:105130009EF94B4B5B689BB20A3B98B27B689BB273
:10514000053B99B2464B5B689BB20A3B9AB27B68BF
:105150009BB205339BB200240094FCF788F977E0FA
:10516000FBF7E8FD3E4B1B689BB2083398B23A4B05
:105170009A68394B1B681344DA0F13445B109BB2D7
:10518000143B99B2012302931023019348F2304358
:1051900000930023334AFCF7CFFC314B1B689BB2D2
:1051A000083398B22C4B9A682B4B1B681344DA0FC8
:1051B00013445B109BB20F3399B201230293102367
:1051C000019348F2304300934FF47843264AFCF7AA
:1051D000B3FC234B5B689BB20F3B98B23B6899B220
:1051E0001F4B5B689BB20A3B9AB23B689BB2053B84
:1051F0009BB200240094FCF73AF9194B5B689BB210
:105200000F3B98B23B6899B2154B5B689BB20A3B67
:105210009AB23B689BB205339BB200240094FCF722
:1052200026F90F4B5B689BB20A3B98B23B689BB276
:10523000053B99B20A4B5B689BB20A3B9AB23B684A
:105240009BB205339BB200240094FCF710F900BF19
:1052500000BF0C37BD4690BD4C0000205C00002014
:105260003C0000206C9600087496000880B500AFE2
:10527000FBF78EFCFFF79AFEFFF7DCFE00BF80BD58
:1052800080B500AF1C4B1B68062B33D11B4BDB8852
:10529000012B0FD11A4B01221A601A4B1B68012BEC
:1052A00002D0022B07D125E0164B02221A60FFF72D
:1052B000DDFF00E000BF114BDB89012B0ED1104B4D
:1052C00001221A600F4B1B68012B12D0022B06D152
:1052D0000C4B01221A60FFF7C9FF00E000BF084B2A
:1052E0001B68012B06D1FFF7C1FF054B00221A6096
:1052F00000E000BF80BD00BFB401002028010020F5
:10530000C00100205C00002080B582B000AF0346E1
:10531000FB71FB79012B10D10A4B06221A600A4B54
:1053200002221A600020FEF7FBFD0020FEF734FE8B
:10533000064B01221A60FFF7A3FF00231846083727
:10534000BD4680BDB40100205C000020C0010020EB
:1053500080B400AF01231846BD465DF8047B70475A
:1053600080B582B000AF7860396002F0D9FD0346A5
:1053700016221A604FF0FF3318460837BD4680BD2D
:1053800080B582B000AF78604FF0FF317868FFF7EA
:10539000E7FFFEE780B586B000AFF860B9607A60DD
:1053A00000237B610AE0AFF300800146BB685A1C12
:1053B000BA60CAB21A707B6901337B617A697B6813
:1053C0009A42F0DB7B6818461837BD4680BD80B531
:1053D00086B000AFF860B9607A6000237B6109E0B5
:1053E000BB685A1CBA601B781846AFF300807B6913
:1053F00001337B617A697B689A42F1DB7B681846EE
:105400001837BD4680BD80B483B000AF78604FF0E0
:10541000FF3318460C37BD465DF8047B704780B4F7
:1054200083B000AF786039603B684FF400525A6037
:10543000002318460C37BD465DF8047B704780B4E6
:1054400083B000AF7860012318460C37BD465DF885
:10545000047B704780B485B000AFF860B9607A60B3
:10546000002318461437BD465DF8047B70470000E2
:1054700080B586B000AF7860144A154BD31A7B61B3
:105480007B693B61134B1B68002B02D1114B124A05
:105490001A60104B1A687B6813443A699A4207D223
:1054A00002F03EFD03460C221A604FF0FF3309E084
:1054B000084B1B68FB60074B1A687B681344054A5E
:1054C0001360FB6818461837BD4680BD00000220F7
:1054D0000004000098290020F829002080B400AFC3
:1054E000064BD3F88830054A43F47003C2F888307D
:1054F00000BFBD465DF8047B704700BF00ED00E0D3
:1055000080B586B000AF07F1080300221A605A6028
:105510009A60DA603B4600221A605A601D4B4FF0D9
:1055200080421A601B4B40F247325A60194B0022EE
:105530009A60184B6322DA60164B00221A61154BF1
:1055400000229A61134801F099FF0346002B01D015
:10555000FCF7BCFD4FF48053BB6007F1080319460C
:105560000C4802F053F90346002B01D0FCF7AEFDC6
:1055700000233B6000237B603B461946054802F050
:105580006FFB0346002B01D0FCF7A0FD00BF1837CE
:10559000BD4680BD9C29002080B584B000AF7860F6
:1055A0007B681B68B3F1804F15D10023FB600C4B67
:1055B0001B6C0B4A43F001031364094B1B6C03F093
:1055C0000103FB60FB68002200211C2000F019FB96
:1055D0001C2000F032FB00BF1037BD4680BD00BF6D
:1055E0000038024090B595B004AF0020FBF7C0FE34
:1055F0006B4B1B6898B26B4B1B6899B26A4B1B686C
:105600009AB26A4B1B689BB2694C0094FCF7BAF8DB
:10561000002302931823019348F2304300934FF67E
:10562000FF73644A37213C20FCF786FA624A3B1D2F
:1056300092E8030018600433198007F10A032C2252
:105640000021184602F096FC5C4B1B881846FCF7BC
:1056500043FD0346FB633B1DF96B184602F032FD28
:105660003A1D002302931823019348F2304300931C
:105670004FF6FF7364210020FCF7C2FA0023029367
:105680001823019348F2304300934FF6FF734C4ABE
:1056900096210020FCF7B4FA00230293182301930B
:1056A00048F2304300934FF6FF73464AD22114204C
:1056B000FCF742FA4FF6FF730093F023C822D22181
:1056C0009620FBF758FF404B1B881846FCF704FD5B
:1056D0000346BB633C4B1B88772B0ED801230293F8
:1056E0001823019348F2304300934FF6FF73BA6BCF
:1056F000D421A520FCF720FA0DE001230293182302
:10570000019348F2304300934FF6FF73BA6BD421F4
:105710009D20FCF711FA2C4B1B88772B1AD84FF6DB
:10572000FF730093C823B922C821A520FBF79FFE71
:105730004FF6FF730093C823A522B421AF20FBF7D7
:1057400096FE4FF6FF730093B423AF22C821B92011
:10575000FBF78DFE1C4B1B881E2B1CD94FF6FF73CD
:105760000093FA23B922FA21A520FBF780FE4FF619
:10577000FF7300934FF48773AF22FA21A520FBF744
:1057800076FE4FF6FF7300934FF48773AF22FA2132
:10579000B920FBF76CFE00BF4437BD4690BD00BF8B
:1057A0007000002074000020780000207C000020A1
:1057B00058C600087C960008A4960008A0010020A6
:1057C0008C9600089C9600080000002080B500AF71
:1057D0000620FCF723FB224B1B88224AA2FB032353
:1057E0009B099BB2002200211846FCF7D3FA1C4B00
:1057F0001B881D4AA2FB03235B099BB200220121E7
:105800001846FCF7C7FA164B1A88174BA3FB02136E
:1058100059090B461B015B1A9B00D31A9BB2134A12
:10582000A2FB0323DB089BB2002202211846FCF7EF
:10583000B1FA0B4B1A880D4BA3FB0213D9080B4688
:105840009B000B445B00D31A9BB200220321184635
:10585000FCF7A0FA0120FCF7C1FA00BF80BD00BF31
:1058600000000020B5814E1B89888888CDCCCCCC27
:1058700080B500AF134BDB88012B0ED1124B1B8878
:105880001E339AB2104B1A800F4B1B88782B02D90B
:105890000D4B78221A80FFF7A5FE0A4BDB89012BFE
:1058A0000ED1094B1B881E3B9AB2074B1A80064B40
:1058B0001B881D2B02D8044B1E221A80FFF792FE74
:1058C00000BF80BD2801002000000020DFF834D098
:1058D0000D480E490E4A002302E0D458C450043348
:1058E000C4188C42F9D30B4A0B4C002301E013601F
:1058F0000432A242FBD3FFF7F1FD02F017FBFCF7E5
:10590000AFFA704700000220000000200C010020C8
:10591000F0D300080C010020F8290020FEE7000069
:1059200080B500AF0E4B1B680D4A43F40073136043
:105930000B4B1B680A4A43F480631360084B1B68D7
:10594000074A43F480731360032000F04FF90F20DF
:1059500000F008F8FFF7CEFA0023184680BD00BF1C
:10596000003C024080B582B000AF7860124B1A68EC
:10597000124B1B7819464FF47A73B3FBF1F3B2FB69
:10598000F3F3184600F067F90346002B01D001231A
:105990000EE07B680F2B0AD8002279684FF0FF30A9
:1059A00000F02FF9064A7B681360002300E0012312
:1059B00018460837BD4680BD9C000020A40000208A
:1059C000A000002080B400AF064B1B781A46064B9F
:1059D0001B681344044A136000BFBD465DF8047B96
:1059E000704700BFA4000020E429002080B400AF6D
:1059F000034B1B681846BD465DF8047B704700BF2B
:105A0000E429002080B584B000AF7860FFF7EEFF96
:105A1000B8607B68FB60FB68B3F1FF3F05D00A4BC1
:105A20001B781A46FB681344FB6000BFFFF7DEFFDC
:105A30000246BB68D31AFA689A42F7D800BF00BF83
:105A40001037BD4680BD00BFA400002080B485B0E3
:105A500000AF78607B6803F00703FB600C4BDB68EA
:105A6000BB60BA684FF6FF031340BB60FB681A02C5
:105A7000BB68134343F0BF6343F40033BB60044A85
:105A8000BB68D36000BF1437BD465DF8047B704728
:105A900000ED00E080B400AF044BDB681B0A03F0AC
:105AA00007031846BD465DF8047B704700ED00E033
:105AB00080B483B000AF0346FB7197F90730002B29
:105AC0000BDBFB7903F01F02074997F907305B09ED
:105AD000012000FA02F241F8232000BF0C37BD4636
