:020000040800F2
:1000000000000220814B0008094200080F4200084E
:10001000154200081B4200082142000800000000B1
:10002000000000000000000000000000274200085F
:100030003542000800000000434200085142000819
:10004000D14B0008D14B0008D14B0008D14B000820
:10005000D14B0008D14B0008D14B0008D14B000810
:10006000D14B0008D14B0008D14B0008D14B000800
:10007000D14B0008D14B0008D14B0008D14B0008F0
:10008000D14B0008D14B0008D14B0008D14B0008E0
:10009000D14B0008D14B0008D14B0008D14B0008D0
:1000A000D14B0008D14B0008D14B0008D14B0008C0
:1000B0005D420008D14B0008D14B0008D14B00082D
:1000C000D14B0008D14B0008D14B0008D14B0008A0
:1000D000D14B0008D14B0008D14B0008D14B000890
:1000E000D14B0008D14B0008D14B0008D14B000880
:1000F000D14B0008D14B0008D14B0008D14B000870
:10010000D14B0008D14B0008D14B0008D14B00085F
:10011000D14B0008D14B0008D14B0008D14B00084F
:10012000D14B0008D14B0008D14B0008D14B00083F
:10013000D14B0008D14B0008D14B0008D14B00082F
:10014000D14B0008D14B0008D14B0008D14B00081F
:10015000D14B0008D14B0008D14B0008D14B00080F
:10016000D14B0008D14B0008D14B0008D14B0008FF
:10017000D14B0008D14B0008D14B00080000000013
:08018000D14B0008D14B00082F
:1001900010B5054C237833B9044B13B10448AFF3C1
:1001A00000800123237010BD040100200000000026
:1001B000C884000808B5034B1BB103490348AFF3DB
:1001C000008008BD0000000008010020C88400086D
:1001D000034613F8012B002AFBD1181A0138704787
:1001E00001F0FF01102A2BDB10F0070F08D010F8E8
:1001F000013B013A8B422DD010F0070F42B3F6D1EC
:10020000F0B441EA012141EA014122F007047FF004
:1002100000070023F0E80256083C85EA010586EA5B
:10022000010685FA47F5A3FA87F586FA47F6A5FA97
:1002300087F68EB9EED1F0BC01F0FF0102F00702A3
:1002400032B110F8013B013A83EA010313B1F8D14E
:100250000020704701387047002D06BF354603382F
:10026000073815F0010F07D1013015F4807F02BF68
:10027000013015F4C03F0130F0BC0138704700BFB9
:1002800053B94AB9002908BF00281CBF4FF0FF31FD
:100290004FF0FF3000F074B9ADF1080C6DE904CEF9
:1002A00000F006F8DDF804E0DDE9022304B0704751
:1002B0002DE9F047089D04468E46002B4DD18A4219
:1002C000944669D9B2FA82F252B101FA02F3C2F14C
:1002D000200120FA01F10CFA02FC41EA030E9440DD
:1002E0004FEA1C48210CBEFBF8F61FFA8CF708FBFE
:1002F00016E341EA034306FB07F199420AD91CEBD6
:10030000030306F1FF3080F01F81994240F21C8107
:10031000023E63445B1AA4B2B3FBF8F008FB10334F
:1003200044EA034400FB07F7A7420AD91CEB040484
:1003300000F1FF3380F00A81A74240F20781644454
:10034000023840EA0640E41B00261DB1D4400023D9
:10035000C5E900433146BDE8F0878B4209D9002D3D
:1003600000F0EF800026C5E9000130463146BDE8C7
:10037000F087B3FA83F6002E4AD18B4202D3824231
:1003800000F2F980841A61EB030301209E46002DE0
:10039000E0D0C5E9004EDDE702B9FFDEB2FA82F235
:1003A000002A40F09280A1EB0C014FEA1C471FFA93
:1003B0008CFE0126200CB1FBF7F307FB131140EA7A
:1003C00001410EFB03F0884208D91CEB010103F147
:1003D000FF3802D2884200F2CB804346091AA4B209
:1003E000B1FBF7F007FB101144EA01440EFB00FEDD
:1003F000A64508D91CEB040400F1FF3102D2A64542
:1004000000F2BB800846A4EB0E0440EA03409CE7E0
:10041000C6F12007B34022FA07FC4CEA030C20FA8D
:1004200007F401FA06F31C43F9404FEA1C4900FAAD
:1004300006F3B1FBF9F8200C1FFA8CFE09FB18112A
:1004400040EA014108FB0EF0884202FA06F20BD99D
:100450001CEB010108F1FF3A80F08880884240F2ED
:100460008580A8F102086144091AA4B2B1FBF9F031
:1004700009FB101144EA014100FB0EFE8E4508D92C
:100480001CEB010100F1FF346CD28E456AD90238B1
:10049000614440EA0840A0FB0294A1EB0E01A14296
:1004A000C846A64656D353D05DB1B3EB080261EB04
:1004B0000E0101FA07F722FA06F3F1401F43C5E9DE
:1004C000007100263146BDE8F087C2F12003D84014
:1004D0000CFA02FC21FA03F3914001434FEA1C4756
:1004E0001FFA8CFEB3FBF7F007FB10360B0C43EA48
:1004F000064300FB0EF69E4204FA02F408D91CEBF8
:10050000030300F1FF382FD29E422DD902386344F5
:100510009B1B89B2B3FBF7F607FB163341EA034195
:1005200006FB0EF38B4208D91CEB010106F1FF38E4
:1005300016D28B4214D9023E6144C91A46EA0046DB
:1005400038E72E46284605E70646E3E61846F8E66D
:100550004B45A9D2B9EB020864EB0C0E0138A3E7B6
:100560004646EAE7204694E74046D1E7D0467BE797
:10057000023B614432E7304609E76444023842E70F
:10058000704700BF90B595B004AF002000F0F0FEBA
:10059000A64B1B6898B2A64B1B6899B2A54B1B686B
:1005A0009AB2A54B1B689BB2A44C009401F0EAF8E8
:1005B000002302931823019348F2304300934FF62F
:1005C000FF739F4A37213C2001F0B6FA9D4A3B4613
:1005D00092E80300186004331980BB1D2C2200210F
:1005E000184606F0E5FC984B1B88184601F06EFC97
:1005F0000346FB633B46F96B184606F081FD3A461D
:10060000002302931823019348F2304300934FF6DE
:10061000FF736421002001F0F3FA002302931823F2
:10062000019348F2304300934FF6FF73874A9621B7
:10063000002001F0E5FA002302931823019348F209
:10064000304300934FF6FF73814AD721142001F005
:1006500073FA4FF6FF730093F023C822D22196203D
:1006600000F089FF7B4B1B88184601F02FFC0346E6
:10067000BB63784B1B88772B0ED80123029318237A
:10068000019348F2304300934FF6FF73BA6BD421C5
:10069000A52001F051FA0DE00123029318230193E4
:1006A00048F2304300934FF6FF73BA6BD4219D207C
:1006B00001F042FA674B1B88772B1AD84FF6FF736D
:1006C0000093DC23E122DC21CD2000F0D0FE4FF6A8
:1006D000FF730093D223D722DC21CD2000F0C7FE88
:1006E0004FF6FF730093D223D722DC21E12000F0E4
:1006F000BEFE584B1B881E2B1AD94FF6FF73009372
:10070000E623E122E621CD2000F0B1FE4FF6FF7393
:100710000093F023D722E621CD2000F0A8FE4FF66B
:10072000FF730093F023D722E621E12000F09FFE23
:10073000002302931823019348F2304300934FF6AD
:10074000FF73454A40F20911142001F0F5F94FF604
:10075000FF7300934FF49173C8224FF48271962077
:1007600000F009FF3D4B1B88184601F0AFFB034624
:100770007B63012302931823019348F230430093D3
:100780004FF6FF737A6B40F20911AA2001F0D4F9F9
:10079000324B1B88042B20D84FF6FF7300934FF485
:1007A0008773E1224FF48771CD2000F060FE4FF691
:1007B000FF7300934FF48273D7224FF48771CD20DB
:1007C00000F055FE4FF6FF7300934FF48273D7226B
:1007D0004FF48771E12000F04AFE204B1B88002B6C
:1007E00020D04FF6FF7300934FF48C73E1224FF447
:1007F0008C71CD2000F03BFE4FF6FF7300934FF459
:100800009173D7224FF48C71CD2000F030FE4FF65B
:10081000FF7300934FF49173D7224FF48C71E12052
:1008200000F025FE00BF4437BD4690BD7800002093
:100830007C000020800000208400002098B6000882
:10084000E08400081085000898010020F08400086A
:100850000085000800000020088500089C01002099
:1008600080B500AF234BDB88012B0ED1224B1B88B8
:100870001E339AB2204B1A801F4B1B88782B02D94B
:100880001D4B78221A80FFF77DFE1A4BDB89012B66
:100890000ED1194B1B881E3B9AB2174B1A80164B70
:1008A0001B881D2B02D8144B1E221A80FFF76AFEEC
:1008B000104BDB8A012B0ED1104B1B8801339AB2EF
:1008C0000E4B1A800D4B1B88052B02D90B4B0522B2
:1008D0001A80FFF757FE074BDB8B012B07D1074B25
:1008E0001B88013B9AB2054B1A80FFF74BFE00BFF5
:1008F00080BD00BF20010020000000209C010020DE
:1009000080B500AF01220821024804F0A7FC00BF17
:1009100080BD00BF000C024080B584B000AF002253
:1009200008212F4804F09AFC012208212C4804F0E9
:1009300095FC0A2302222B492B4805F096F9002347
:10094000FB604FF400437B8100237B603FE07B68CA
:10095000002B06DB7B68032B03DC7B680433FB6026
:1009600018E07B68032B07DD7B68072B04DC7B68C2
:10097000C3F10703FB600DE07B68072B06DD7B6896
:100980000B2B03DC7B680433FB6003E07B68C3F163
:100990001703FB60134B1A887B8913409BB2002B13
:1009A00005D0124AFB68002122F8131009E00F4A13
:1009B000FB6832F81330013399B20C4AFB6822F815
:1009C00013107B895B087B817B6801337B607B68CC
:1009D0000F2BBCDD00BF00BF1037BD4680BD00BF80
:1009E000000C024040010020B01100202001002036
:1009F00080B58EB000AF07F11C0300221A605A6068
:100A00009A60DA601A615A619A613B4600221A6064
:100A10005A609A60DA601A615A619A612F4B4FF0FE
:100A200020421A602D4B2E4A5A602C4B00229A60AD
:100A30002A4B0022DA60294B00221A61274B102230
:100A40005A61264B00229A61244B0022DA61234B23
:100A500000221A62214B00225A62204B4FF480522E
:100A60009A621E4B0022DA621C4B4FF480421A63DA
:100A70001A4B00225A63194B00229A63174B00222B
:100A80005A640F23FB610F233B623C237B620023EC
:100A9000BB621023FB6211233B6300237B630823AB
:100AA0003B600F237B600923BB600023FB601023A6
:100AB0003B6111237B610023BB613A4607F11C03B4
:100AC0001946064805F0B4FC0346002B01D001F09E
:100AD000F7F900BF3837BD4680BD00BF4401002094
:100AE000040100A080B586B000AF3B1D00221A6053
:100AF0005A609A60DA601A611C4B1B68002B31D176
:100B00001A4B01221A6000233B60194B9B6B184A59
:100B100043F001039363164B9B6B03F001033B60AF
:100B20003B684FF688737B600223BB600023FB6049
:100B300003233B610C237B613B1D19460D4804F0E8
:100B4000F1F94CF2B3737B600223BB600023FB60BE
:100B500003233B610C237B613B1D1946064804F0CF
:100B6000E1F900E000BF1837BD4680BD94010020C8
:100B70000038024000100240000C024080B582B0F4
:100B800000AF7860FFF7AEFF00BF0837BD4680BDFD
:100B900090B583B002AF384B1B6898B2374B1B68D7
:100BA00099B2354BDB689CB2344BDB689AB2344B5C
:100BB0001B689BB2D31A9BB248F230420092224685
:100BC00000F008FC2C4B1B6898B22C4B1B6899B2A8
:100BD000294B5B689CB2294B5B689AB2284B1B6817
:100BE0009BB213449BB200220092224600F0F2FB1B
:100BF000214B1B6898B2214B1B6899B21E4B9B6816
:100C00009AB21F4B1B689BB213449AB21B4B9B6852
:100C10009BB20024009400F0DDFB174B5B689AB296
:100C2000174B1B689BB2D31A98B2144B5B6899B2EE
:100C3000114BDB689AB2114BDB689BB20024009425
:100C400000F0C8FB0C4B9B6898B20C4B9B689AB2A7
:100C50000B4B1B689BB2D31A99B2074BDB689AB255
:100C6000064BDB689BB20024009400F0B3FB00BF8E
:100C70000437BD4690BD00BF3C0000204C00002062
:100C80003800002080B584B004AF254B1B689BB2B0
:100C90000A3399B2012302931023019348F230439F
:100CA000009300231F4A002000F0AAFF1E4B1B6880
:100CB0009BB2083398B21A4B9A68194B1B681344BD
:100CC000DA0F13445B109BB20F3B99B201230293DE
:100CD0001023019348F2304300930023134A00F09D
:100CE0002BFF114B1B689BB2083398B20C4B9A68D0
:100CF0000B4B1B681344DA0F13445B109BB2143385
:100D000099B2012302931023019348F230430093D8
:100D10000023074A00F010FF00BFBD4680BD00BFA2
:100D20004C000020448500083C000020508500084D
:100D30005C85000890B583B002AF114B1B689AB276
:100D4000104B1B689BB2134498B20F4B1B689BB2AD
:100D5000193399B20A4B5B689AB20A4B1B689BB273
:100D6000D31A9AB2084BDB689BB2053B9BB248F2A0
:100D70003044009400F02EFB00BF0437BD4690BD08
:100D80003C000020380000204C00002090B587B0C7
:100D900004AF874B9A68864B1B681344DA0F1344E1
:100DA0005B10083B7B60824B9A68814B1B68134445
:100DB000DA0F13445B101C333B607E4B1B68002B27
:100DC00002D0012B78D0EFE0FFF7B4FF7A4B1B681D
:100DD0009BB2083398B2764B9A68754B1B681344E4
:100DE000DA0F13445B109BB20F3B99B201230293BD
:100DF0001023019348F2304300934FF478436F4A35
:100E000000F09AFE6C4B1B689BB2083398B2684B9B
:100E10009A68674B1B681344DA0F13445B109BB24C
:100E2000143399B2012302931023019348F2304303
:100E300000930023624A00F07FFE5F4B5B689BB229
:100E40000F3B98B27B6899B25B4B5B689BB20A3BE5
:100E50009AB27B689BB2053B9BB20024009400F0E1
:100E600006FB554B5B689BB20F3B98B27B6899B20F
:100E7000514B5B689BB20A3B9AB27B689BB20533CD
:100E80009BB20024009400F0F2FA4B4B5B689BB2DB
:100E90000A3B98B27B689BB2053B99B2464B5B68B4
:100EA0009BB20A3B9AB27B689BB205339BB200248B
:100EB000009400F0DCFA77E0FFF73CFF3E4B1B6844
:100EC0009BB2083398B23A4B9A68394B1B6813446B
:100ED000DA0F13445B109BB20F3B99B201230293CC
:100EE0001023019348F2304300930023334A00F06B
:100EF00023FE314B1B689BB2083398B22C4B9A6887
:100F00002B4B1B681344DA0F13445B109BB2143352
:100F100099B2012302931023019348F230430093C6
:100F20004FF47843264A00F007FE234B5B689BB2E0
:100F30000F3B98B23B6899B21F4B5B689BB20A3B70
:100F40009AB23B689BB2053B9BB20024009400F030
:100F50008EFA194B5B689BB20F3B98B23B6899B213
:100F6000154B5B689BB20A3B9AB23B689BB2053358
:100F70009BB20024009400F07AFA0F4B5B689BB29E
:100F80000A3B98B23B689BB2053B99B20A4B5B683F
:100F90009BB20A3B9AB23B689BB205339BB20024DA
:100FA000009400F064FA00BF00BF0C37BD4690BD4E
:100FB0004C000020A00100203C00002050850008CB
:100FC0005C85000880B500AFFFF75CFEFFF75AFEB6
:100FD000FFF7DCFE00BF80BD80B500AF194BDB889A
:100FE000012B0CD1184B01221A60184B1B68002BE7
:100FF00023D0012B04D1154B00221A6000E000BF62
:10100000104BDB89012B0DD10F4B01221A600F4BC6
:101010001B68002B02D0012B11D004E00B4B0122E6
:101020001A6000E000BF084B1B68012B08D1FFF7D6
:10103000C9FF054B00221A6002E000BF00E000BFBC
:1010400080BD00BF20010020B4010020A0010020CD
:1010500080B500AF074B07221A60074B00221A80A9
:10106000064B00221A60064B01221A60FFF7B4FFFC
:1010700000BF80BDAC0100209A010020A00100202B
:10108000B401002080B58CB000AF07F11C03002232
:101090001A605A609A60DA601A610023BB616F4B74
:1010A0001B6B6E4A43F0100313636C4B1B6B03F016
:1010B0001003BB61BB6900237B61684B1B6B674AF4
:1010C00043F004031363654B1B6B03F004037B6164
:1010D0007B6900233B61614B1B6B604A43F08003DB
:1010E00013635E4B1B6B03F080033B613B69002382
:1010F000FB605A4B1B6B594A43F001031363574B78
:101100001B6B03F00103FB60FB680023BB60534BC8
:101110001B6B524A43F008031363504B1B6B03F0E5
:101120000803BB60BB6800237B604C4B1B6B4B4AC6
:1011300043F040031363494B1B6B03F040037B6098
:101140007B6800233B60454B1B6B444A43F0020322
:101150001363424B1B6B03F002033B603B680022AE
:1011600070213F4804F07AF800224FF400513D48C6
:1011700004F074F8002240213B4804F06FF800228C
:101180004FF48071394804F069F80022082138488A
:1011900004F064F87023FB6101233B6200237B624F
:1011A0000023BB6207F11C0319462D4803F0BAFE69
:1011B0004FF40053FB6101233B6200237B62002359
:1011C000BB6207F11C031946264803F0ABFEC0239F
:1011D000FB6100233B6200237B6207F11C0319467D
:1011E000224803F09FFE3023FB6100233B62002373
:1011F0007B6207F11C0319461A4803F093FE402353
:10120000FB6101233B6200237B620023BB6207F189
:101210001C031946144803F085FE4FF48073FB61EC
:1012200001233B6200237B620023BB6207F11C03A6
:1012300019460E4803F076FE0823FB6101233B624A
:1012400000237B620023BB6207F11C031946084898
:1012500003F068FE00BF3037BD4680BD0038024055
:101260000010024000080240001802400000024046
:10127000000C024080B483B000AF0346FB80044AF8
:10128000FB88138000BF0C37BD465DF8047B7047B8
:10129000FEFF0F6080B483B000AF0346FB80044ABA
:1012A000FB88538000BF0C37BD465DF8047B704758
:1012B000FEFF0F6080B483B000AF064B5B889BB22B
:1012C000FB80FB889BB218460C37BD465DF8047B5B
:1012D000704700BFFEFF0F6090B583B000AF0446BB
:1012E000084611461A462346FB800346BB800B4640
:1012F0007B8013463B802A20FFF7BCFFFB881B0A3C
:101300009BB21846FFF7C6FFFB88DBB29BB21846BC
:10131000FFF7C0FF7B881B0A9BB21846FFF7BAFF96
:101320007B88DBB29BB21846FFF7B4FF2B20FFF798
:10133000A1FFBB881B0A9BB21846FFF7ABFFBB8817
:10134000DBB29BB21846FFF7A5FF3B881B0A9BB296
:101350001846FFF79FFF3B88DBB29BB21846FFF7AA
:1013600099FF2C20FFF786FF00BF0C37BD4690BDCC
:1013700080B584B000AF0346FB80154B1B88013B52
:101380009AB2134B5B88013B9BB200210020FFF710
:10139000A3FF0023FB8111E00023BB8106E0FB8853
:1013A0001846FFF777FFBB890133BB81084B5B8889
:1013B000BA899A42F3D3FB890133FB81044B1B8822
:1013C000FA899A42E8D300BF00BF1037BD4680BDFE
:1013D000C001002090B585B000AF04460846114614
:1013E0001A462346FB800346BB800B467B80134690
:1013F0003B807B88013B9AB23B88013B9BB2B9881A
:10140000F888FFF769FFBB88FB8110E0FB88BB8190
:1014100006E03B8C1846FFF73DFFBB890133BB81DB
:10142000BA897B889A42F4D3FB890133FB81FA891C
:101430003B889A42EAD300BF00BF1437BD4690BD37
:1014400080B582B000AF0346FB800B46BB801346DD
:101450007B80BB88FA88B988F888FFF73DFF7B88D6
:101460001846FFF717FF00BF0837BD4680BD90B58F
:101470008DB000AF0446084611461A462346FB804D
:101480000346BB800B467B8013463B800023BB6238
:1014900000237B627A88FB88D31A3B623A88BB8838
:1014A000D31AFB61FB88FB60BB88BB603B6A002BE7
:1014B00002DD01237B610BE03B6A002B02D100239C
:1014C0007B6105E04FF0FF337B613B6A5B423B622F
:1014D000FB69002B02DD01233B610BE0FB69002B64
:1014E00002D100233B6105E04FF0FF333B61FB6914
:1014F0005B42FB613A6AFB699A4202DD3B6ABB616F
:1015000001E0FB69BB610023FB852BE0FB689BB21C
:10151000BA6891B2B7F840201846FFF791FFBA6A4F
:101520003B6A1344BB627A6AFB6913447B62BA6A02
:10153000BB699A4207DDBA6ABB69D31ABB62FA6813
:101540007B691344FB607A6ABB699A4207DD7A6A59
:10155000BB69D31A7B62BA683B691344BB60FB8DDD
:101560000133FB85FB8DBA699A42CFDA00BF00BF19
:101570003437BD4690BD90B585B002AF04460846ED
:1015800011461A462346FB800346BB800B467B80F0
:1015900013463B80BC887A88B988F8883B8B0093D7
:1015A0002346FFF764FF3C88FA88B988F8883B8BAC
:1015B00000932346FFF75BFF3C887A883988F888D8
:1015C0003B8B00932346FFF752FF3C887A88B9880B
:1015D00078883B8B00932346FFF749FF00BF0C3709
:1015E000BD4690BD90B587B000AF04460846114691
:1015F0001A462346FB800346BB800B46FB7013460E
:101600003B8000237B75FB883B8297F82C305B087E
:10161000FB73FB7BDB08DBB21A46FB7B03F00703A3
:10162000DBB2002B14BF01230023DBB213449AB2B8
:1016300097F82C309BB212FB03F3BB81FB78203B65
:10164000FB70FB7B9AB2FB8813449BB2013B9CB2BC
:1016500097F82C309AB2BB8813449BB2013B9BB2E3
:10166000B988F8882246FFF737FE00237B827AE0AC
:1016700097F82C300C2B28D097F82C30102B08D151
:10168000FA787B8A3C4912010A4413441B78FB75A3
:101690001BE097F82C30182B0BD1FA78798A374851
:1016A00013465B0013441B0103440B441B78FB757A
:1016B0000BE097F82C30202B5AD1FA787B8A3049EE
:1016C00092010A4413441B78FB750023BB7544E068
:1016D00097F83030002B20D1FA7DBB7D42FA03F31E
:1016E00003F00103002B04D03B881846FFF7D2FD1E
:1016F00003E03B8D1846FFF7CDFD7B7D01337B7505
:101700007B7DFA7BB3FBF2F101FB02F29B1ADBB2A9
:10171000002B1FD100237B7522E0FA7DBB7D42FAAE
:1017200003F303F00103002B05D03A88B988FB8846
:101730001846FFF785FEFB880133FB80FA883B8A59
:10174000D21AFB7B9A4205D13B8AFB80BB880133CE
:10175000BB8005E0BB7D0133BB75BB7D072BB7D9D3
:101760007B8A01337B827A8ABB899A4280D300E0EC
:1017700000BF1C37BD4690BD18870008088D0008C3
:10178000D89E000890B587B000AF044608461146C1
:101790001A462346FB800346BB800B467B801346DC
:1017A0003B8000233B61FA887B8813449BB2013B5A
:1017B0009CB2BA883B8813449BB2013B9BB2B98868
:1017C000F8882246FFF788FD0023FB8227E00023EC
:1017D000BB821DE03B695B00BA6A13441B78FB7354
:1017E0003B695B000133BA6A13441B78BB73FB7B14
:1017F0001B021AB2BB7B1BB213431BB29BB218462F
:10180000FFF748FD3B6901333B61BB8A0133BB8273
:10181000BA8A3B889A42DDD3FB8A0133FB82FA8A7B
:101820007B889A42D3D300BF00BF1C37BD4690BD12
:1018300080B483B000AF0346FB71FB791B09DBB2B8
:1018400003F00303DBB2002B07D00A4B4FF4A07266
:101850001A80084BF0225A8006E0064BF0221A80CC
:10186000044B4FF4A0725A8000BF0C37BD465DF8A0
:10187000047B7047C001002080B500AF00224FF408
:101880000051AA4803F0EAFC4FF4FA7003F014FA8E
:1018900001224FF40051A54803F0E0FC4FF4FA7028
:1018A00003F00AFA0020FFF7C3FFD320FFF7E2FCA2
:1018B000FFF700FD03461A469D4B9A80FFF7FAFC9E
:1018C00003461A469A4B9A80FFF7F4FC03461A46E1
:1018D000974B9A80964B9B881B029AB2944B9A80A6
:1018E000FFF7E8FC03461A46914B9B8813439AB2D4
:1018F0008F4B9A80CF20FFF7BDFC0020FFF7CAFC7A
:10190000C120FFF7C7FC3020FFF7C4FCED20FFF734
:10191000B1FC6420FFF7BEFC0320FFF7BBFC1220E4
:10192000FFF7B8FC8120FFF7B5FCE820FFF7A2FC29
:101930008520FFF7AFFC1020FFF7ACFC7A20FFF703
:10194000A9FCCB20FFF796FC3920FFF7A3FC2C2045
:10195000FFF7A0FC0020FFF79DFC3420FFF79AFC66
:101960000220FFF797FCF720FFF784FC2020FFF709
:1019700091FCEA20FFF77EFC0020FFF78BFC0020A3
:10198000FFF788FCC020FFF775FC1B20FFF782FCE7
:10199000C120FFF76FFC0120FFF77CFCC520FFF79B
:1019A00069FC3020FFF776FC3020FFF773FCC7207E
:1019B000FFF760FCB720FFF76DFC3620FFF75AFCFD
:1019C0000820FFF767FC3A20FFF754FC5520FFF78B
:1019D00061FCB120FFF74EFC0020FFF75BFC1A20F2
:1019E000FFF758FCB620FFF745FC0A20FFF752FC32
:1019F000A220FFF74FFCF220FFF73CFC0020FFF78E
:101A000049FC2620FFF736FC0120FFF743FCE020CD
:101A1000FFF730FC0F20FFF73DFC2A20FFF73AFCD0
:101A20002820FFF737FC0820FFF734FC0E20FFF7D3
:101A300031FC0820FFF72EFC5420FFF72BFCA920D7
:101A4000FFF728FC4320FFF725FC0A20FFF722FCC4
:101A50000F20FFF71FFC0020FFF71CFC0020FFF702
:101A600019FC0020FFF716FC0020FFF713FCE12013
:101A7000FFF700FC0020FFF70DFC1520FFF70AFC24
:101A80001720FFF707FC0720FFF704FC1120FFF7E2
:101A900001FC0620FFF7FEFB2B20FFF7FBFB562087
:101AA000FFF7F8FB3C20FFF7F5FB0520FFF7F2FB03
:101AB0001020FFF7EFFB0F20FFF7ECFB3F20FFF7B5
:101AC000E9FB3F20FFF7E6FB0F20FFF7E3FB2B20AE
:101AD000FFF7D0FB0020FFF7DDFB0020FFF7DAFB6C
:101AE0000120FFF7D7FB3F20FFF7D4FB2A20FFF7A9
:101AF000C1FB0020FFF7CEFB0020FFF7CBFB00204F
:101B0000FFF7C8FBEF20FFF7C5FB1120FFF7B2FB83
:101B1000782003F0D1F82920FFF7ACFB01224FF425
:101B20008071044803F09AFB00BF80BD00080240AA
:101B3000C00100200000024090B58BB004AFBA6035
:101B40001A460346FB810B46BB811346FB80FB898B
:101B5000BB820023FB7548E0FB7D002B45D1FA8951
:101B6000264B1B88194697F82C305B08DBB2CB1A42
:101B70009A423FDCBA89214B5B88194697F82C3092
:101B8000CB1A9A4236DCBB681B78802B02D9012322
:101B9000FB752AE0BB681B780D2B0BD197F82C3016
:101BA0009AB2BB891344BB81BB8AFB81BB680133FA
:101BB000BB6017E0BB681A78FC88B989F88997F888
:101BC0003030029397F82C3001933B8D00932346DD
:101BD000FFF708FD97F82C305B08DBB29AB2FB895F
:101BE0001344FB81BB680133BB60BB681B78002BCF
:101BF000B2D100E000BF1C37BD4690BDC00100203F
:101C000080B58AB004AFBA601A460346FB810B4622
:101C1000BB811346FB80B868FEF7DAFA0346FB8205
:101C20000F4B1B881A46FB8ADB00D31ADA0F1344CA
:101C30005B10BB82FA89BB8A134498B2FA88B989CF
:101C400097F82830029397F8243001933B8C009347
:101C50001346BA68FFF770FF00BF1837BD4680BD56
:101C6000C001002080B500AF01224021024803F0EE
:101C7000F5FA00BF80BD00BF0018024080B500AF7C
:101C800002F0A8FF00F070F8FFF7FCF902F098FDF1
:101C900001F064FBFEF7ACFE00F0D0F84FF6FF70E9
:101CA000FFF766FB00F0EEF8284B1B88002B06D0F0
:101CB000264B00221A80FEF72FFE01F011FF244B65
:101CC0001B68032B07D0224B1B68042B03D0204B2F
:101CD0001B68052B0BD101F0D5F91E4B1B88002B7F
:101CE00008D01C4B00221A8001F0C4F802E0194B06
:101CF00000221A80164B1B68072B01D1FFF76CF9E5
:101D0000134B1B68062B01D102F01CFC124B1B88E5
:101D1000012B0AD1104B00221A800D4B07221A60AA
:101D2000FFF796F90D4B03221A600D4B1B88012B10
:101D3000BAD10C4B1B88013B9AB20A4B1A8002F0B5
:101D4000A5FE4FF47A7001F061FAADE7981100201A
:101D5000AC0100209E110020A411002014000020DE
:101D6000AA1100200000002080B594B000AF07F158
:101D7000200330220021184605F01AF907F10C0360
:101D800000221A605A609A60DA601A610023BB6010
:101D9000284B1B6C274A43F080531364254B1B6C64
:101DA00003F08053BB60BB6800237B60224B1B6841
:101DB000214A43F4804313601F4B1B6803F48043A4
:101DC0007B607B6802233B620123FB6210233B6341
:101DD0000223BB630023FB6308233B64A8237B64CB
:101DE0000223BB640423FB6407F12003184603F0BD
:101DF0004FFA0346002B01D000F062F80F23FB607E
:101E000002233B6100237B614FF4A053BB614FF47D
:101E1000A053FB6107F10C030521184603F0B0FC49
:101E20000346002B01D000F04BF800BF5037BD46F1
:101E300080BD00BF003802400070004080B500AF98
:101E4000002220210E4803F009FA002240210C480C
:101E500003F004FA00221021094803F0FFF901F011
:101E600093F9FFF7FFFEFEF74BFDFFF705FD32206C
:101E700001F0E8F94FF4967001F090F900BF80BDD1
:101E80000010024080B584B004AF1F2300931D23CF
:101E90001D2213211320FFF79DFA01230293102323
:101EA00001931F2300934FF47843044A64210020D8
:101EB000FFF7A6FE00BFBD4680BD00BF64850008D9
:101EC00080B400AF72B600BFFEE7000080B590B0EE
:101ED00000AF0346FB80FB8807F10C00064A322165
:101EE00005F0DAF807F10C03184605F019F9034676
:101EF00018464037BD4680BD7485000890B583B054
:101F000002AF0D4B1B6898B20C4B1B6899B20A4B81
:101F10005B689CB2094B5B689AB2094B1B689BB229
:101F200013449BB2002200922246FFF753FA00BFEF
:101F30000437BD4690BD00BF1800002028000020D7
:101F40003800002090B5A3B004AF03460A46FB80DA
:101F50001346BB804FF6FF70FFF70AFA3E4B5B68F3
:101F60009AB23E4B1B689BB21F21009100210020BA
:101F7000FFF730FA3A4A07F13C0392E80300186091
:101F80000433197007F141032D220021184605F092
:101F90000FF8344B1B881846FFF798FF786707F156
:101FA0003C03796F184605F0ABF82F4B1B6898B2CD
:101FB0002E4B1B6899B207F13C02012302931823B0
:101FC00001934FF6FF7300934FF47843FFF7B4FD8E
:101FD000274A07F1080392E8030083E8030007F1AA
:101FE00010032A220021184604F0E2FF214B1B882F
:101FF0001846FFF76BFF386707F10803396F18467B
:1020000005F07EF81C4B1B6898B21C4B1B689BB2FA
:10201000053399B207F108020023029318230193B4
:102020001F2300934FF47843FFF786FD144B1B6882
:1020300098B2144B1B6899B2134B1B689AB2134B9E
:102040001B689BB2124C0094FFF79CFBFFF756FFF6
:1020500000BF7C37BD4690BD18000020280000203E
:1020600078850008980100206000002064000020AE
:10207000AC8500089A010020700000207400002048
:10208000780000207C0000208000002084000020D8
:1020900098B6000890B5A3B004AF03460A46FB808B
:1020A0001346BB804FF6FF70FFF762F93E4B5B684B
:1020B0009AB23E4B1B689BB21F2100910021002069
:1020C000FFF788F93A4A07F13C0392E803001860E9
:1020D0000433197007F141032D220021184604F042
:1020E00067FF344B1B881846FFF7F0FE786707F14F
:1020F0003C03796F184605F003F82F4B1B6898B224
:102100002E4B1B6899B207F13C0201230293102366
:1021100001934FF6FF7300934FF47843FFF70CFDE4
:10212000274A07F1080392E8030083E8030007F158
:1021300010032A220021184604F03AFF0020FFF77E
:10214000C5FE386707F10803396F184604F0D8FF59
:102150001C4B1B6898B21C4B1B6899B207F1080214
:1021600001230293102301934FF6FF7300934FF462
:102170007843FFF7E1FC02F089FC144B1B6898B22E
:10218000134B1B6899B2134B1B689AB2124B1B6816
:102190009BB2124C0094FFF7F5FAFFF7AFFE00BFB9
:1021A0007C37BD4690BD00BF1800002028000020ED
:1021B000788500089801002060000020640000205D
:1021C000AC8500087000002074000020780000201A
:1021D0007C000020800000208400002098B60008C9
:1021E00090B5A3B004AF03460A46FB801346BB80FC
:1021F0004FF6FF70FFF7BCF83E4B5B689AB23E4B60
:102200001B689BB21F21009100210020FFF7E2F81C
:102210003A4A07F13C0392E803001860043319704E
:1022200007F141032D220021184604F0C1FE344B72
:102230001B881846FFF74AFE786707F13C03796F61
:10224000184604F05DFF2F4B1B6898B22E4B1B689D
:1022500099B207F13C0201230293102301934FF638
:10226000FF7300934FF47843FFF766FC274A07F1AA
:10227000080392E8030083E8030007F110032A2211
:102280000021184604F094FE0020FFF71FFE386777
:1022900007F10803396F184604F032FF1C4B1B6826
:1022A00098B21C4B1B6899B207F1080201230293F4
:1022B000102301934FF6FF7300934FF47843FFF719
:1022C0003BFC02F0E3FB144B1B6898B2134B1B68FA
:1022D00099B2134B1B689AB2124B1B689BB2124CFB
:1022E0000094FFF74FFAFFF709FE00BF7C37BD46A9
:1022F00090BD00BF1800002028000020788500084D
:10230000980100206000002064000020AC850008D7
:102310007000002074000020780000207C00002065
:10232000800000208400002098B6000880B594B09A
:1023300004AF334B1B68032B2AD1324A3B1D92E872
:10234000030083E8030007F10C032A22002118464A
:1023500004F02EFE2C4B1B881846FFF7B7FDF863E0
:102360003B1DF96B184604F0CBFE284B1B6898B256
:10237000274B1B689BB2053399B23A1D0023029389
:10238000182301931F2300934FF47843FFF7D4FBE6
:102390001B4B1B68042B03D0194B1B68052B2AD140
:1023A000184A3B1D92E8030083E8030007F10C0381
:1023B0002A220021184604F0FBFD134B1B88184607
:1023C000FFF784FDB8633B1DB96B184604F098FE17
:1023D0000E4B1B6898B20E4B1B6899B23A1D002336
:1023E0000293102301931F2300934FF47843FFF7C8
:1023F000A3FB02F04BFB00BF4037BD4680BD00BFD2
:10240000AC010020AC8500089A010020700000207B
:102410007400002090B583B002AF8F4B9B69032BF3
:1024200000F2148101A252F823F000BFC525000874
:1024300045250008BD2400083D240008864BDB6AC2
:1024400098B2854B1B6B99B2834BDB6A9BB2093305
:102450009AB2814B1B6B9BB209339BB24FF4784409
:102460000094FEF7B7FF7C4BDB6A98B27A4B1B6B8C
:1024700099B2794BDB6A9BB204339AB2764B1B6BF1
:102480009BB204339BB200240094FEF7A3FF724B6F
:10249000DB6A9BB2053398B26F4B1B6B99B26E4BE4
:1024A000DB6A9BB209339AB26B4B1B6B9BB2043352
:1024B0009BB200240094FEF78DFFC8E0664BDB6AF8
:1024C00098B2654B1B6B99B2634BDB6A9BB20933C5
:1024D0009AB2614B1B6B9BB209339BB24FF47844A9
:1024E0000094FEF777FF5C4BDB6A98B25A4B1B6B8C
:1024F0009BB2053399B2584BDB6A9BB204339AB254
:10250000554B1B6B9BB209339BB200240094FEF722
:1025100061FF514BDB6A9BB2053398B24E4B1B6B8C
:102520009BB2053399B24C4BDB6A9BB209339AB22A
:10253000494B1B6B9BB209339BB200240094FEF7FE
:1025400049FF84E0444BDB6A98B2434B1B6B99B262
:10255000414BDB6A9BB209339AB23F4B1B6B9BB278
:1025600009339BB24FF478440094FEF733FF3A4BA3
:10257000DB6A98B2384B1B6B99B2374BDB6A9BB264
:1025800004339AB2344B1B6B9BB204339BB20024CE
:102590000094FEF71FFF304BDB6A98B22E4B1B6B8B
:1025A0009BB2053399B22C4BDB6A9BB204339AB2CF
:1025B000294B1B6B9BB209339BB200240094FEF79E
:1025C00009FF44E0244BDB6A98B2234B1B6B99B2A2
:1025D000214BDB6A9BB209339AB21F4B1B6B9BB238
:1025E00009339BB24FF478440094FEF7F3FE1A4B84
:1025F000DB6A9BB2053398B2174B1B6B99B2164B33
:10260000DB6A9BB209339AB2134B1B6B9BB2043348
:102610009BB200240094FEF7DDFE0F4BDB6A9BB2F9
:10262000053398B20C4B1B6B9BB2053399B20A4B26
:10263000DB6A9BB209339AB2074B1B6B9BB209331F
:102640009BB200240094FEF7C5FE00E000BF00BF6F
:102650000437BD4690BD00BFCC01002090B589B0C5
:1026600002AF584B9B6A002B40F0A780554B9B69EB
:10267000002B03D1534B5B6898479FE0514B0122DD
:102680009A6100237B6191E07B69002B28D14D4A40
:102690007B690533DB00134407F10C02043393E834
:1026A000030082E80300474A7B690533DB001344DB
:1026B0005B68A3F10A0243497B690533DB000B44E5
:1026C0005A60404A7B690533DB0013449A683D49F0
:1026D0007B690533DB000B449A60FFF79BFE62E0E9
:1026E000384A7B690533DB0013443A1D043393E811
:1026F000030082E80300334A7B690533DB0013449F
:10270000043307F10C0292E8030083E8030007F1A9
:102710000C033A1D92E8030083E803007B69012B58
:1027200023D1284A7B690533DB0013445B6898B2E8
:10273000244A7B690533DB0013449B6899B2214A24
:102740007B690533DB0013445B689BB209339AB2A3
:102750001C4C7B690533DB0023449B689BB2093327
:102760009BB200240094FEF735FE164B5B6A013BDA
:102770007A699A4217D1134B1C333A1D92E8030031
:1027800083E803007B6898B2BB6899B27B689BB210
:1027900009339AB2BB689BB209339BB24FF6FF7400
:1027A0000094FEF717FE7B6901337B61054B5B6A82
:1027B0007A699A42FFF668AF00E000BF00BF1C379D
:1027C000BD4690BDCC01002090B589B002AF584BFA
:1027D0009B6A002B40F0A780554B9B69012B03D1CE
:1027E000534B1B6898479FE0514B00229A6100238E
:1027F0007B6191E07B69002B28D14D4A7B690533D1
:10280000DB00134407F10C02043393E8030082E871
:102810000300474A7B690533DB0013445B6803F11F
:102820000A0243497B690533DB000B445A60404A86
:102830007B690533DB0013449A683D497B690533A6
:10284000DB000B449A60FFF7E5FD62E0384A7B69E4
:102850000533DB0013443A1D043393E8030082E898
:102860000300334A7B690533DB001344043307F16B
:102870000C0292E8030083E8030007F10C033A1D01
:1028800092E8030083E803007B69012B23D1284AE7
:102890007B690533DB0013445B6898B2244A7B698B
:1028A0000533DB0013449B6899B2214A7B690533E9
:1028B000DB0013445B689BB209339AB21C4C7B6902
:1028C0000533DB0023449B689BB209339BB2002491
:1028D0000094FEF77FFD164B5B6A013B7A699A42D2
:1028E00017D1134B1C333A1D92E8030083E8030011
:1028F0007B6898B2BB6899B27B689BB209339AB285
:10290000BB689BB209339BB24FF6FF740094FEF78D
:1029100061FD7B6901337B61054B5B6A7A699A4291
:10292000FFF668AF00E000BF00BF1C37BD4690BD9A
:10293000CC01002090B589B002AF584B9B6A002BA8
:1029400040F0A780554B9B69022B03D1534BDB68AA
:1029500098479FE0514B03229A6100237B6191E0ED
:102960007B69002B28D14D4A7B690533DB0013447A
:1029700007F10C02043393E8030082E80300474A9E
:102980007B690533DB0013445A6844497B6905338E
:10299000DB000B445A60414A7B690533DB0013447A
:1029A0009B68A3F10A023D497B690533DB000B44B8
:1029B0009A60FFF72FFD62E0384A7B690533DB0040
:1029C00013443A1D043393E8030082E80300334ABA
:1029D0007B690533DB001344043307F10C0292E8F2
:1029E000030083E8030007F10C033A1D92E803009B
:1029F00083E803007B69012B23D1284A7B690533D7
:102A0000DB0013445B6898B2244A7B690533DB0022
:102A100013449B6899B2214A7B690533DB00134458
:102A20005B689BB209339AB21C4C7B690533DB00AF
:102A300023449B689BB209339BB200240094FEF7A9
:102A4000C9FC164B5B6A013B7A699A4217D1134B5A
:102A50001C333A1D92E8030083E803007B6898B2B8
:102A6000BB6899B27B689BB209339AB2BB689BB2D0
:102A700009339BB24FF6FF740094FEF7ABFC7B6901
:102A800001337B61054B5B6A7A699A42FFF668AF56
:102A900000E000BF00BF1C37BD4690BDCC01002048
:102AA00090B589B002AF584B9B6A002B40F0A780CD
:102AB000554B9B69032B03D1534B9B6898479FE071
:102AC000514B02229A6100237B6191E07B69002BCC
:102AD00028D14D4A7B690533DB00134407F10C0212
:102AE000043393E8030082E80300474A7B69053317
:102AF000DB0013445A6844497B690533DB000B440F
:102B00005A60414A7B690533DB0013449B6803F13B
:102B10000A023D497B690533DB000B449A60FFF7ED
:102B200079FC62E0384A7B690533DB0013443A1DC7
:102B3000043393E8030082E80300334A7B690533DA
:102B4000DB001344043307F10C0292E8030083E82E
:102B5000030007F10C033A1D92E8030083E8030029
:102B60007B69012B23D1284A7B690533DB001344A1
:102B70005B6898B2244A7B690533DB0013449B6889
:102B800099B2214A7B690533DB0013445B689BB231
:102B900009339AB21C4C7B690533DB0023449B68E4
:102BA0009BB209339BB200240094FEF713FC164B32
:102BB0005B6A013B7A699A4217D1134B1C333A1D69
:102BC00092E8030083E803007B6898B2BB6899B27F
:102BD0007B689BB209339AB2BB689BB209339BB244
:102BE0004FF6FF740094FEF7F5FB7B6901337B61C0
:102BF000054B5B6A7A699A42FFF668AF00E000BF56
:102C000000BF1C37BD4690BDCC01002090B585B0FB
:102C100002AF2F4B1B689AB22E4B1B689BB213441A
:102C200099B24FF6FF7300934FF4A073F022002087
:102C3000FEF7D0FB00237B602CE07B68002B02D1E9
:102C4000FFF7E8FB23E0244A7B680533DB001344ED
:102C50005B6898B2204A7B680533DB0013449B68AD
:102C600099B21D4A7B680533DB0013445B689BB255
:102C700009339AB2184C7B680533DB0023449B6808
:102C80009BB209339BB200240094FEF7A3FB7B6840
:102C900001337B60104B5B6A7A689A42CDDB0F4B45
:102CA0001B6898B20E4B1B6899B20C4B1B689BB209
:102CB00009339AB20A4B1B689BB209339BB240F2AC
:102CC000CF140094FEF786FB00BF0C37BD4690BDC5
:102CD0002800002038000020CC01002088000020BF
:102CE0008C00002090B587B002AF494BDB6A002B07
:102CF0000CDB474BDB6AE82B08DC454B1B6B452B99
:102D000004DD434B1B6BB3F59C7F02DDFEF7A0F99E
:102D10007BE00123FB6019E03D4BDA6A3C49FB682C
:102D20000533DB000B445B689A420CD1384B1A6BBD
:102D30003749FB680533DB000B449B689A4202D19C
:102D4000FEF786F961E0FB680133FB60304B5B6A9C
:102D5000FA689A42E0DB2E4BDA6A2E4B1B689A42E5
:102D600053D12B4B1A6B2C4B1B689A424DD1294BDC
:102D70004FF000421A60284B4FF000421A60244B7B
:102D80005B6A0133224A5362214B5B6A013B204A52
:102D9000D2691F490533DB000B445A601C4B5B6A48
:102DA000013B1B4A126A1A490533DB000B449A6047
:102DB000174B5B6A013B164A0533DB0013445B6823
:102DC000BB60134B5B6A013B114A0533DB001344C4
:102DD0009B687B60BB6898B27B6899B2BB689BB20A
:102DE00009339AB27B689BB209339BB200240094EA
:102DF000FEF7F0FA094B01221A60094B1B880133D8
:102E00009AB2074B1A80FFF791FA1437BD4690BD6E
:102E1000CC010020880000208C00002090000020C1
:102E20009A01002080B500AF114B9B69032B1BD882
:102E300001A252F823F000BF592E0008612E0008AD
:102E4000492E0008512E0008094BDB6898470CE01A
:102E5000074B9B68984708E0054B5B68984704E080
:102E6000034B1B68984700E000BF00BF80BD00BF58
:102E7000CC01002080B582B002AF314B5B89002BC2
:102E800006D0304B9B6898472E4B5B69984754E0BF
:102E90002B4B5B8B002B06D02A4BDB689847294BCA
:102EA0005B69984749E0264B9B8A002B06D0254B4F
:102EB0005B689847234B5B6998473EE0204B1B8A31
:102EC000002B06D01F4B1B6898471E4B5B69984729
:102ED00033E01B4B5B8A002B12D01A4B9B6A002BF2
:102EE0000CBF01230023DBB21A46164B9A62154B26
:102EF0009B6A184601F06AFB0346124A93621CE083
:102F00000F4B1B8B002B12D04FF6FF70FEF730FAE1
:102F100000F01CF84FF4784300934623F022002180
:102F20000020FEF757FA084B01221A6005E0054B16
:102F30001B699847034B5B69984700BFBD4680BD3E
:102F400020010020CC0100209000002090B585B029
:102F500002AF434B01221A60424B1B68184604F033
:102F60002FF8404B1B6801333E4A13603E4B14223E
:102F7000DA623D4B46221A633B4B0A225A633A4BB4
:102F800046229A63384B0022DA63374B46221A6492
:102F900003237B6010E0344A7B680533DB00134475
:102FA00000225A60304A7B680533DB00134400225C
:102FB0009A607B6801337B607B68B3F5FA7FEADB5C
:102FC000294B2A4ADA60284B294A1A60264B294A9B
:102FD0009A60254B284A5A60234B284A1A61224B93
:102FE000274A5A61204B03225A621F4B00229A61E2
:102FF00000233B602CE03B68002B02D1FFF70AFA6C
:1030000023E0194A3B680533DB0013445B6898B240
:10301000154A3B680533DB0013449B6899B2124A9A
:103020003B680533DB0013445B689BB209339AB2FB
:103030000D4C3B680533DB0023449B689BB209338E
:103040009BB200240094FEF7C5F93B6801333B6056
:103050003B68022BCFDD00BF00BF0C37BD4690BDE3
:1030600090000020C8010020CC010020A12A000807
:103070005D26000835290008C9270008252E00080C
:10308000E52C000890B585B002AF394B1B68012BC9
:103090006BD103F0C3FF0146364B83FB01239A102B
:1030A000CB17D21A13465B001344DB00CA1A13462F
:1030B0009B0013445B001A462F4B1A6003F0AEFFCF
:1030C00001462E4B83FB0123DA10CB17D21A13468D
:1030D0009B0013449A001344CA1A073213469B00FC
:1030E00013445B001A46264B1A6000237B601FE0E6
:1030F000244A7B680533DB0013445A681E4B1B6867
:103100009A4212D11F4A7B680533DB0013449A6848
:103110001B4B1B689A4208D1174B4FF000421A60B4
:10312000174B4FF000421A601FE07B6801337B6051
:10313000144B5B6A7A689A42DADB0F4B1B6898B2D1
:103140000F4B1B6899B20C4B1B689BB209339AB2A8
:103150000B4B1B689BB209339BB240F2CF14009417
:10316000FEF738F9024B00221A600C37BD4690BDBD
:1031700090000020ABAAAA2A880000201F85EB51EE
:103180008C000020CC01002080B500AF024803F085
:10319000E3F900BF80BD00BF0C12002080B483B0F3
:1031A00000AF0346FB80084AFB881380064B1A8851
:1031B000064B1A80064B00221A8000BF0C37BD4612
:1031C0005DF8047B704700BFA2110020A011002011
:1031D0009E11002080B483B000AF0346FB80084AF4
:1031E000FB881380064B1A88064B1A80064B002278
:1031F0001A8000BF0C37BD465DF8047B704700BFE6
:10320000A8110020A6110020A411002080B483B0D2
:1032100000AF0346FB80084AFB881380064B1A88E0
:10322000064B1A80064B00221A8000BF0C37BD46A1
:103230005DF8047B704700BFAE110020AC11002088
:10324000AA11002080B483B000AF0346FB80084A77
:10325000FB881380064B1A88064B1A80064B002207
:103260001A8000BF0C37BD465DF8047B704700BF75
:103270009C1100209A1100209811002080B483B086
:1032800000AF78607B681B68B3F1804F4BD1294B4E
:103290001B88002B10D0274B1B88013B9AB2254B73
:1032A0001A80244B1B88002B06D1234B01221A8045
:1032B000224B1A881F4B1A80214B1B88002B10D0E1
:1032C0001F4B1B88013B9AB21D4B1A801C4B1B885D
:1032D000002B06D11B4B01221A801B4B1A88184B5E
:1032E0001A801A4B1B88002B0CD0184B1B88013BF3
:1032F0009AB2164B1A80154B1B88002B02D1144B27
:1033000001221A80134B1B88002B0CD0114B1B88F9
:10331000013B9AB20F4B1A800E4B1B88002B02D137
:103320000D4B01221A8000BF0C37BD465DF8047BAF
:10333000704700BFA01100209E110020A2110020A4
:103340009A110020981100209C110020A611002045
:10335000A4110020AC110020AA11002080B500AFFC
:10336000174B184A1A60164B4FF482725A60144B6E
:1033700000229A60124B0022DA60114B00221A617F
:103380000F4B00225A610E4B4FF400729A610C4BA6
:103390000022DA610A4B00221A62094B00225A62AB
:1033A000074B00229A62064B0A22DA62044802F0B6
:1033B000D3FB0346002B01D0FEF782FD00BF80BD8A
:1033C000B01100200030014080B58AB000AF7860B5
:1033D00007F1140300221A605A609A60DA601A61D9
:1033E0007B681B68194A93422BD100233B61184B21
:1033F0005B6C174A43F480535364154B5B6C03F4C6
:1034000080533B613B690023FB60114B1B6B104AEF
:1034100043F0020313630E4B1B6B03F00203FB60CC
:10342000FB6838237B610223BB610023FB6103231C
:103430003B6205237B6207F114031946054801F03E
:1034400071FD00BF2837BD4680BD00BF0030014080
:10345000003802400004024090B593B004AF00234E
:103460003B603B1D2E220021184603F0A1FD0020E9
:10347000FDF77EFF2F4B1B6898B22F4B1B6899B24C
:103480002E4B1B689AB22E4B1B689BB22D4C00949E
:10349000FEF778F9002302931823019348F2304392
:1034A00000934FF6FF73284A37213C20FEF744FB78
:1034B000002302931823019348F2304300934FF600
:1034C000FF73224A64212820FEF736FB4FF6FF7374
:1034D0000093B423B42296213C20FEF74CF81C4BF9
:1034E0001B881846FEF7F2FC78633B46796B18465A
:1034F00003F006FE3A4601230293182301934FF48A
:10350000784300934FF6FF7398210020FEF778FB75
:10351000002302931823019348F2304300934FF69F
:10352000FF730C4AE6215020FEF706FB00BF3C3734
:10353000BD4690BD780000207C0000208000002067
:103540008400002098B60008E0850008F085000897
:10355000980100200086000880B582B002AF0023E9
:10356000009340F24B13DD22BE21B420FDF732FF61
:1035700000BFBD4680BD000090B583B002AFFFF72D
:10358000EBFF234B1B6898B2224B1B6899B2224B6E
:103590001B689AB2214B1B689BB24FF6FF740094D4
:1035A000FDF765FF1C4B1B6898B21C4B1B6899B25A
:1035B000174B1B689CB2194B1B689BB25B009AB2FD
:1035C000144B1B689BB2D31A9BB24FF6FF7200924A
:1035D0002246FDF74CFF0E4B1B6898B20D4B1B6843
:1035E00099B20B4B1B689CB20C4B1B689BB25B00E7
:1035F0009AB2084B1B689BB2D31A9BB24FF6FF726C
:1036000000922246FDF733FF00BF0437BD4690BD50
:103610000800002010000020040000200C00002002
:1036200080B584B004AF994BDB88012B17D1984B40
:1036300001221A60974B1B68052B09D0052B11DC62
:10364000032B0ED0042B0DD1924B03221A6009E0FC
:10365000904B04221A60904B00221A6002E000BFD7
:1036600000E000BF894BDB89012B18D1884B012278
:103670001A60884B1B68052B13D0052B12DC032B1B
:1036800002D0042B07D00DE0824B04221A60824B3B
:1036900001221A6006E07F4B05221A6002E000BF9B
:1036A00000E000BF7A4B1B68012B40F04D81794B45
:1036B0001B68052B00F0FC80052B00F34281032BD7
:1036C00002D0042B4FD03CE1744BD2221A60744BD1
:1036D000BE221A60002300934FF4A073F022B4219D
:1036E0000020FDF777FE002302931823019348F290
:1036F000304300934FF478436A4AC8210A20FEF70A
:103700001BFA002302931823019348F230430093DD
:103710004FF6FF73644AFA210A20FEF70DFA4FF6BE
:10372000FF7300934FF4967382224FF496716E20CC
:10373000FDF79DFE4FF6FF7300934FF49B737822C5
:103740004FF496716E20FDF792FE4FF6FF730093D3
:103750004FF4967382224FF49B717820FDF787FE19
:10376000FFF70AFFEDE0002300934FF4A073F0226F
:10377000B4210020FDF72EFE474B1B68002B3DD1E6
:10378000464BD2221A60464BBE221A600023029397
:103790001823019348F2304300934FF47843424A90
:1037A000C8210A20FEF7C8F90023029318230193C9
:1037B00048F2304300934FF6FF733C4AFA210A2047
:1037C000FEF7BAF94FF6FF730093BE238222BE21A3
:1037D0006E20FDF74CFE4FF6FF730093B423782262
:1037E000BE216E20FDF743FE4FF6FF730093BE230C
:1037F0008222B4217820FDF73AFE43E0274B4FF4B4
:1038000082721A60264BF0221A600023029318235A
:10381000019348F2304300934FF6FF73214AC821C9
:103820000A20FEF789F9002302931823019348F236
:10383000304300934FF478431B4AFA210A20FEF7E5
:103840007BF94FF6FF7300934FF4967382224FF487
:1038500096716E20FDF70BFE4FF6FF7300934FF449
:103860009B7378224FF496716E20FDF700FE4FF6A1
:10387000FF7300934FF4967382224FF49B7178206C
:10388000FDF7F5FDFFF778FE5BE000BF20010020AB
:10389000A801002014000020A40100200C0000203A
:1038A00010000020088600081886000828860008F6
:1038B000274B4FF482721A60264BF0221A600023C5
:1038C00000934FF4A073F022B4210020FDF782FD95
:1038D000002302931823019348F2304300934FF6DC
:1038E000FF731D4AC8210A20FEF726F90023029320
:1038F0001823019348F2304300934FF47843174A5A
:10390000FA210A20FEF718F94FF6FF730093BE2341
:103910008222BE216E20FDF7AAFD4FF6FF730093B1
:10392000B4237822BE216E20FDF7A1FD4FF6FF7370
:103930000093BE238222B4217820FDF798FDFFF783
:103940001BFE074B00221A6000BFBD4680BD00BFB2
:103950000C000020100000201886000828860008AF
:10396000A801002090B595B004AF0346FB8000206D
:10397000FDF7FEFC4E4B1B6898B24E4B1B6899B28C
:103980004D4B1B689AB24D4B1B689BB24C4C00943C
:10399000FDF7F8FE002302931823019348F2304309
:1039A00000934FF6FF73474A37213C20FEF7C4F8D7
:1039B000454A07F1080392E80300186004331980B0
:1039C00007F10E032C220021184603F0F1FAFB88C0
:1039D0001846FEF77BFAF86307F10803F96B1846FF
:1039E00003F08EFB07F108020023029318230193D2
:1039F00048F2304300934FF6FF7364210020FEF736
:103A0000FFF8002302931823019348F230430093F8
:103A10004FF6FF732D4A96210020FEF7F1F80023A0
:103A200002931823019348F2304300934FF47843F4
:103A3000274AC8210A20FEF77FF8002302931823A3
:103A4000019348F2304300934FF6FF73214AFA2165
:103A50000A20FEF771F8204BD2221A601F4BBE22BB
:103A60001A60FFF789FD4FF6FF7300934FF49673CA
:103A700082224FF496716E20FDF7F9FC4FF6FF732A
:103A800000934FF49B7378224FF496716E20FDF7EC
:103A9000EEFC4FF6FF7300934FF4967382224FF4BF
:103AA0009B717820FDF7E3FC00BF4437BD4690BD15
:103AB000780000207C00002080000020840000208E
:103AC00098B60008E085000840860008388600089F
:103AD00008860008188600080C000020100000204E
:103AE00080B594B004AF9B4B9B8B012B40F0B08111
:103AF000994B1B68092B00F2AD8101A252F823F00B
:103B0000293B00084F3B0008613B0008553C00087A
:103B10007B3C0008A13C0008E53D0008C53C0008CE
:103B2000CD3B0008113C00088B4B01221A608B4BE7
:103B300000221A808A4B00221A808A4B03221A60C4
:103B4000894B40F2E7321A80FFF786FC87E1824B0F
:103B500002221A60814B1B881846FFF703FF7EE1A3
:103B6000804B1B68052B24D0052B00F37581032B9C
:103B700002D0042B11D06FE17C4B03221A60764BEC
:103B800003221A60754B1B88754A12881146184625
:103B9000FEF7D8F9FFF7DAF917E0744B04221A6040
:103BA000714B1E221A806C4B08221A6000F07AFEBC
:103BB0000BE06E4B05221A606B4B1E221A80664B7F
:103BC00009221A60FCF7DEFC00BF45E1664B1B884A
:103BD0001A465201D21A92001344DB009BB21846D7
:103BE000FFF7F8FA4FF47A70FFF710FB5E4B1A8874
:103BF0005F4B1A80584B04221A60584B1B885A4A54
:103C0000128811461846FEF745FAFFF79FF926E19C
:103C1000554B1B881A465201D21A92001344DB00FE
:103C20009BB21846FFF7D6FA4FF47A70FFF7EEFA18
:103C30004D4B1A884E4B1A80474B05221A60474B52
:103C40001B88494A128811461846FEF7C9FAFFF741
:103C50007DF904E1404B01221A60404B00221A809A
:103C60003F4B00221A803F4B03221A603E4B40F22A
:103C7000E7321A80FFF7F0FBF1E0374B01221A60C0
:103C8000364B00221A80364B00221A80354B032215
:103C90001A60354B40F2E7321A80FFF7DDFBDEE0B9
:103CA0002D4B01221A602D4B00221A802C4B002232
:103CB0001A802C4B03221A602B4B40F2E7321A80F9
:103CC000FFF7CAFB2B4B1B68002B77D1274B1B68D8
:103CD000214A1360224B00221A801F4B1B68052BC0
:103CE0004AD0052B00F3BA80032B02D0042B0ED050
:103CF000B4E01E4B03221A60184B1B88184A128826
:103D000011461846FEF71EF9FFF720F969E0174B38
:103D100004221A60164B1A88134B1A80124B1B8808
:103D20001A465201D21A92001344DB009BB2184685
:103D3000FFF750FA4FF47A70FFF768FA074B1B88C9
:103D4000094A128811461846FEF7A4F9FFF7FEF853
:103D500047E000BF20010020AC01002098010020B6
:103D60009A0100201400002000000020B001002073
:103D7000BC010020A0010020AD4B05221A60AD4B14
:103D80001A88AD4B1A80AC4B1B881A465201D21AC6
:103D900092001344DB009BB21846FFF71BFA4FF466
:103DA0007A70FFF733FAA54B1B88A34A1288114695
:103DB0001846FEF715FAFFF7C9F812E0A04B0122EA
:103DC0001A609E4B00221A809E4B00221A809E4B46
:103DD00003221A60984B40F2E7321A80FFF73CFB4F
:103DE0003CE03BE0994B1B68022B1ED1904B1B68BB
:103DF000934A1360924B1B68042B03D0904B1B68B3
:103E0000052B0FD18C4B1B881A465201D21A9200F7
:103E10001344DB009BB21846FFF7DCF94FF47A70CD
:103E2000FFF7F4F9FEF7F2FE19E0854B01221A6064
:103E3000824B00221A80834B00221A80824B03227D
:103E40001A607D4B40F2E7321A80FFF705FB06E06F
:103E500000BF04E000BF02E000BF00E000BF784BFD
:103E60001B68012B40F05D8100237B6007F1080394
:103E70002E220021184603F09BF8704B1B88FB870D
:103E80000023BB8749E1BB8F714A32F81330012B05
:103E900040F04081BB8F0D2B00F2188101A252F837
:103EA00023F000BFDD3E0008093F0008353F000851
:103EB00013410008613F0008893F0008B13F000836
:103EC00013410008D93F000805400008554000088C
:103ED0001341000881400008AB400008FB8F1A46E0
:103EE000920013445B009AB2BB8F13449BB2013320
:103EF000FB87FB8F1846FDF7E9FFB8633B1DB96BE5
:103F0000184603F0FDF8E1E0FB8F1A4692001344D7
:103F10005B009AB2BB8F13449BB20133FB87FB8FCC
:103F20001846FDF7D3FFB8633B1DB96B184603F085
:103F3000E7F8CBE0FB8F1A46920013445B009AB27D
:103F4000BB8F13449BB20133FB87FB8F1846FDF7F1
:103F5000BDFFB8633B1DB96B184603F0D1F8B5E05F
:103F6000FB8F1A46920013445B009AB2BB8F134436
:103F7000FB87FB8F1846FDF7A9FFB8633B1DB96BA4
:103F8000184603F0BDF8A1E0FB8F1A4692001344D7
:103F90005B009AB2BB8F1344FB87FB8F1846FDF77B
:103FA00095FFB8633B1DB96B184603F0A9F88DE087
:103FB000FB8F1A46920013445B009AB2BB8F1344E6
:103FC000FB87FB8F1846FDF781FFB8633B1DB96B7C
:103FD000184603F095F879E0FB8F1A4692001344D7
:103FE0005B009AB2BB8F13449BB2013BFB87FB8FF4
:103FF0001846FDF76BFFB8633B1DB96B184603F01D
:104000007FF863E0FB8F1A46920013445B009AB27C
:10401000BB8F13449BB2013BFB87FB8F1846FDF718
:1040200055FFB8633B1DB96B184603F069F84DE0C6
:10403000B0010020BC0100200000002098010020F9
:10404000AC0100209A010020140000205C00002038
:1040500020010020FB8F1A46920013445B009AB2A5
:10406000BB8F13449BB2013BFB87FB8F1846FDF7C8
:104070002DFFB8633B1DB96B184603F041F825E0EE
:10408000454BDBB287F83630FB8F444AA2FB032353
:10409000DB08FB87FB8F1846FDF718FFB8633B1D55
:1040A000B96B184603F02CF810E0FB8F1A4692000B
:1040B00013445B00FB87FB8F1846FDF707FFB863CF
:1040C0003B1DB96B184603F01BF800BF002300939B
:1040D000B423B42296213C20FDF77CF94FF6FF7300
:1040E0000093B423B42296213C20FDF744FA3A1DF4
:1040F00001230293182301934FF4784300934FF662
:10410000FF7398210020FDF77BFD254AFB8F13806C
:1041100000E000BFBB8F0133BB87BB8F0D2B7FF649
:10412000B2AE204B1B68082B01D100F0FBFC1D4BED
:104130001B68092B01D1FCF793FB1A4B1B68012B61
:104140001BD0184B1B68022B01D1FFF769FA164BE5
:104150001B8B012B11D1134B01221A60104B002233
:104160001A80124B00221A80114B40F2E7321A805B
:10417000FFF772F90F4B03221A600A4B1B68042BDE
:1041800006D0084B1B68052B02D00020FFF73EF835
:1041900000BF4037BD4680BD74860008CDCCCCCC76
:1041A00098010020AC010020200100209A0100208D
:1041B000000000201400002080B483B000AF002372
:1041C0007B60104B5B6C0F4A43F4804353640D4B90
:1041D0005B6C03F480437B607B6800233B60094B8E
:1041E0001B6C084A43F080531364064B1B6C03F0AE
:1041F00080533B603B6800BF0C37BD465DF8047BD5
:10420000704700BF0038024080B400AFFEE780B4C2
:1042100000AFFEE780B400AFFEE780B400AFFEE77A
:1042200080B400AFFEE780B400AF00BFBD465DF8CC
:10423000047B704780B400AF00BFBD465DF8047BCF
:10424000704780B400AF00BFBD465DF8047B704787
:1042500080B500AF00F010FD00BF80BD80B500AF9D
:10426000024802F0E9F900BF80BD00BF0C12002037
:1042700080B584B004AF1C4B1B689BB2083398B266
:104280001A4B9A68194B1B681344DA0F13445B10DE
:104290009BB2143B99B2012302931023019348F27D
:1042A000304300930023124AFDF746FC0E4B1B6877
:1042B0009BB2083398B20D4B9A680C4B1B681344A1
:1042C000DA0F13445B109BB20F3399B201230293B0
:1042D0001023019348F2304300930023054AFDF771
:1042E0002BFC00BFBD4680BD3C0000204C000020E0
:1042F000788600088086000890B587B004AF874BA9
:104300009A68864B1B681344DA0F13445B10083B12
:104310007B60824B9A68814B1B681344DA0F13440D
:104320005B101C333B607E4B1B68012B7AD0022B49
:1043300040F0F080FCF7FEFC7A4B1B689BB2083320
:1043400098B2764B9A68754B1B681344DA0F134486
:104350005B109BB2143B99B201230293102301938B
:1043600048F2304300934FF478436F4AFDF7E4FB83
:104370006C4B1B689BB2083398B2684B9A68674BCA
:104380001B681344DA0F13445B109BB20F3399B2CE
:10439000012302931023019348F23043009300233A
:1043A000624AFDF7C9FB5F4B5B689BB20F3B98B25B
:1043B0007B6899B25B4B5B689BB20A3B9AB27B68A5
:1043C0009BB2053B9BB200240094FDF750F8554B7F
:1043D0005B689BB20F3B98B27B6899B2514B5B68AC
:1043E0009BB20A3B9AB27B689BB205339BB2002416
:1043F0000094FDF73CF84B4B5B689BB20A3B98B2CC
:104400007B689BB2053B99B2464B5B689BB20A3B0B
:104410009AB27B689BB205339BB200240094FDF7EF
:1044200026F877E0FCF786FC3E4B1B689BB208330E
:1044300098B23A4B9A68394B1B681344DA0F13440D
:104440005B109BB2143B99B201230293102301939A
:1044500048F2304300930023334AFDF76DFB314BA4
:104460001B689BB2083398B22C4B9A682B4B1B6885
:104470001344DA0F13445B109BB20F3399B201233C
:1044800002931023019348F2304300934FF4784392
:10449000264AFDF751FB234B5B689BB20F3B98B25A
:1044A0003B6899B21F4B5B689BB20A3B9AB23B6870
:1044B0009BB2053B9BB200240094FCF7D8FF194B3C
:1044C0005B689BB20F3B98B23B6899B2154B5B6837
:1044D0009BB20A3B9AB23B689BB205339BB2002465
:1044E0000094FCF7C4FF0F4B5B689BB20A3B98B289
:1044F0003B689BB2053B99B20A4B5B689BB20A3B97
:104500009AB23B689BB205339BB200240094FCF73F
:10451000AEFF00BF00BF0C37BD4690BD4C00002071
:104520005C0000203C00002078860008808600089F
:1045300080B500AFFCF72CFBFFF79AFEFFF7DCFE1F
:1045400000BF80BD80B500AF1C4B1B68062B33D16C
:104550001B4BDB88012B0FD11A4B01221A601A4B1F
:104560001B68012B02D0022B07D125E0164B02223B
:104570001A60FFF7DDFF00E000BF114BDB89012B64
:104580000ED1104B01221A600F4B1B68012B12D069
:10459000022B06D10C4B01221A60FFF7C9FF00E085
:1045A00000BF084B1B68012B06D1FFF7C1FF054B6D
:1045B00000221A6000E000BF80BD00BFAC010020F7
:1045C00020010020B80100205C00002080B582B0EE
:1045D00000AF0346FB71FB79012B0DD1094B06227D
:1045E0001A60094B02221A600020FEF7F3FD074B08
:1045F00001221A60FFF7A6FF002318460837BD46C0
:1046000080BD00BFAC0100205C000020B80100208C
:1046100080B400AF01231846BD465DF8047B7047A7
:1046200080B582B000AF7860396002F097FC034635
:1046300016221A604FF0FF3318460837BD4680BD7A
:1046400080B582B000AF78604FF0FF317868FFF737
:10465000E7FFFEE780B586B000AFF860B9607A602A
:1046600000237B610AE0AFF300800146BB685A1C5F
:10467000BA60CAB21A707B6901337B617A697B6860
:104680009A42F0DB7B6818461837BD4680BD80B57E
:1046900086B000AFF860B9607A6000237B6109E002
:1046A000BB685A1CBA601B781846AFF300807B6960
:1046B00001337B617A697B689A42F1DB7B6818463B
:1046C0001837BD4680BD80B483B000AF78604FF02E
:1046D000FF3318460C37BD465DF8047B704780B445
:1046E00083B000AF786039603B684FF400525A6085
:1046F000002318460C37BD465DF8047B704780B434
:1047000083B000AF7860012318460C37BD465DF8D2
:10471000047B704780B485B000AFF860B9607A6000
:10472000002318461437BD465DF8047B704700002F
:1047300080B586B000AF7860144A154BD31A7B6100
:104740007B693B61134B1B68002B02D1114B124A52
:104750001A60104B1A687B6813443A699A4207D270
:1047600002F0FCFB03460C221A604FF0FF3309E015
:10477000084B1B68FB60074B1A687B681344054AAB
:104780001360FB6818461837BD4680BD0000022044
:1047900000040000081200206812002080B400AF5E
:1047A000064BD3F88830054A43F47003C2F88830CA
:1047B00000BFBD465DF8047B704700BF00ED00E020
:1047C00080B586B000AF07F1080300221A605A6076
:1047D0009A60DA603B4600221A605A601D4B4FF027
:1047E00080421A601B4B40F247325A60194B00223C
:1047F0009A60184B6322DA60164B00221A61154B3F
:1048000000229A61134801F057FE0346002B01D0A5
:10481000FDF756FB4FF48053BB6007F108031946C0
:104820000C4802F011F80346002B01D0FDF748FBBD
:1048300000233B6000237B603B461946054802F09D
:104840002DFA0346002B01D0FDF73AFB00BF1837C5
:10485000BD4680BD0C12002080B584B000AF7860EA
:104860007B681B68B3F1804F15D10023FB600C4BB4
:104870001B6C0B4A43F001031364094B1B6C03F0E0
:104880000103FB60FB68002200211C2000F013FBE9
:104890001C2000F02CFB00BF1037BD4680BD00BFC0
:1048A0000038024090B595B004AF0020FCF760FDE1
:1048B0006B4B1B6898B26B4B1B6899B26A4B1B68B9
:1048C0009AB26A4B1B689BB2694C0094FCF75AFF82
:1048D000002302931823019348F2304300934FF6CC
:1048E000FF73644A37213C20FDF726F9624A3B1DDD
:1048F00092E8030018600433198007F10A032C22A0
:104900000021184602F054FB5C4B1B881846FDF74B
:10491000DDFA0346FB633B1DF96B184602F0F0FB22
:104920003A1D002302931823019348F23043009369
:104930004FF6FF7364210020FDF762F90023029314
:104940001823019348F2304300934FF6FF734C4A0B
:1049500096210020FDF754F90023029318230193B8
:1049600048F2304300934FF6FF73464AD221142099
:10497000FDF7E2F84FF6FF730093F023C822D2212F
:104980009620FCF7F8FD404B1B881846FDF79EFA71
:104990000346BB633C4B1B88772B0ED80123029345
:1049A0001823019348F2304300934FF6FF73BA6B1C
:1049B000D421A520FDF7C0F80DE0012302931823B0
:1049C000019348F2304300934FF6FF73BA6BD42142
:1049D0009D20FDF7B1F82C4B1B88772B1AD84FF68A
:1049E000FF730093C823B922C821A520FCF73FFD1F
:1049F0004FF6FF730093C823A522B421AF20FCF724
:104A000036FD4FF6FF730093B423AF22C821B920BF
:104A1000FCF72DFD1C4B1B881E2B1CD94FF6FF737A
:104A20000093FA23B922FA21A520FCF720FD4FF6C6
:104A3000FF7300934FF48773AF22FA21A520FCF790
:104A400016FD4FF6FF7300934FF48773AF22FA21E0
:104A5000B920FCF70CFD00BF4437BD4690BD00BF38
:104A6000780000207C0000208000002084000020CE
:104A700098B6000888860008B086000898010020D3
:104A800098860008A88600080000002090B593B022
:104A900004AF204A3B4607CA03C31A7007F1090353
:104AA00029220021184602F083FA1B4B1B88184666
:104AB000FDF70CFA03467B633B46796B184602F020
:104AC0001FFB164B1B6898B2154B1B6899B2134B12
:104AD0001B689BB25A339AB2114B1B689BB20F33BF
:104AE0009BB21F240094FCF775FC0C4B1B6898B21A
:104AF0000B4B1B6899B23A46002302931023019393
:104B00001F2300934FF47843FDF716F800BF3C379E
:104B1000BD4690BDE486000800000020680000202B
:104B20006C00002080B500AF134BDB88012B0ED149
:104B3000124B1B881E339AB2104B1A800F4B1B88E6
:104B4000782B02D90D4B78221A80FFF7ABFE0A4B67
:104B5000DB89012B0ED1094B1B881E3B9AB2074BF8
:104B60001A80064B1B881D2B02D8044B1E221A806C
:104B7000FFF798FE00BF80BD20010020000000204C
:104B8000DFF834D00D480E490E4A002302E0D45815
:104B9000C4500433C4188C42F9D30B4A0B4C002385
:104BA00001E013600432A242FBD3FFF7F7FD02F0ED
:104BB000DBF9FDF763F870470000022000000020D9
:104BC0000401002030C40008040100206812002005
:104BD000FEE7000080B500AF0E4B1B680D4A43F4A2
:104BE000007313600B4B1B680A4A43F48063136025
:104BF000084B1B68074A43F480731360032000F0DE
:104C00004FF90F2000F008F8FFF7D6FA00231846F6
:104C100080BD00BF003C024080B582B000AF78602C
:104C2000124B1A68124B1B7819464FF47A73B3FB78
:104C3000F1F3B2FBF3F3184600F067F90346002BDB
:104C400001D001230EE07B680F2B0AD8002279687F
:104C50004FF0FF3000F02FF9064A7B681360002305
:104C600000E0012318460837BD4680BD94000020AF
:104C70009C0000209800002080B400AF064B1B78F9
:104C80001A46064B1B681344044A136000BFBD4616
:104C90005DF8047B704700BF9C0000205412002088
:104CA00080B400AF034B1B681846BD465DF8047B1B
:104CB000704700BF5412002080B584B000AF786008
:104CC000FFF7EEFFB8607B68FB60FB68B3F1FF3F66
:104CD00005D00A4B1B781A46FB681344FB6000BFE3
:104CE000FFF7DEFF0246BB68D31AFA689A42F7D88C
:104CF00000BF00BF1037BD4680BD00BF9C00002034
:104D000080B485B000AF78607B6803F00703FB6078
:104D10000C4BDB68BB60BA684FF6FF031340BB6007
:104D2000FB681A02BB68134343F0BF6343F40033CC
:104D3000BB60044ABB68D36000BF1437BD465DF852
:104D4000047B704700ED00E080B400AF044BDB68EB
:104D50001B0A03F007031846BD465DF8047B704745
:104D600000ED00E080B483B000AF0346FB7197F91B
:104D70000730002B0BDBFB7903F01F02074997F983
:104D800007305B09012000FA02F241F8232000BF3E
:104D90000C37BD465DF8047B704700BF00E100E0C2
:104DA00080B483B000AF03463960FB7197F90730D8
:104DB000002B0ADB3B68DAB20C4997F90730120185
:104DC000D2B20B4483F800230AE03B68DAB2084908
:104DD000FB7903F00F03043B1201D2B20B441A76A5
:104DE00000BF0C37BD465DF8047B704700E100E072
:104DF00000ED00E080B489B000AFF860B9607A607F
:104E0000FB6803F00703FB61FB69C3F10703042B95
:104E100028BF0423BB61FB690433062B02D9FB695D
:104E2000033B00E000237B614FF0FF32BB6902FAD5
:104E300003F3DA43BB681A407B699A404FF0FF31B5
:104E40007B6901FA03F3D9437B680B40134318468F
:104E50002437BD465DF8047B7047000080B582B002
:104E600000AF78607B68013BB3F1807F01D3012301
:104E70000FE00A4A7B68013B53600F214FF0FF307F
:104E8000FFF78EFF054B00229A60044B07221A6041
:104E9000002318460837BD4680BD00BF10E000E083
:104EA00080B582B000AF78607868FFF729FF00BF57
:104EB0000837BD4680BD80B586B000AF0346B960F7
:104EC0007A60FB7300237B61FFF73EFF78617A68AD
:104ED000B9687869FFF78EFF024697F90F301146DF
:104EE0001846FFF75DFF00BF1837BD4680BD80B58F
:104EF00082B000AF0346FB7197F907301846FFF701
:104F000031FF00BF0837BD4680BD80B582B000AF1D
:104F100078607868FFF7A2FF034618460837BD4659
:104F200080BD000080B489B000AF78603960002394
:104F30007B6100233B610023BB610023FB616BE1CC
:104F40000122FB6902FA03F37B613B681B687A6903
:104F500013403B613A697B699A4240F05A813B6851
:104F60005B6803F00303012B05D03B685B6803F02B
:104F70000303022B30D17B689B68BB61FB695B003C
:104F8000032202FA03F3DB43BA691340BB613B68B7
:104F9000DA68FB695B0002FA03F3BA691343BB6189
:104FA0007B68BA699A607B685B68BB610122FB69B8
:104FB00002FA03F3DB43BA691340BB613B685B68E9
:104FC0001B0903F00102FB6902FA03F3BA691343F8
:104FD000BB617B68BA695A603B685B6803F0030396
:104FE000032B17D07B68DB68BB61FB695B00032286
:104FF00002FA03F3DB43BA691340BB613B689A686A
:10500000FB695B0002FA03F3BA691343BB617B6877
:10501000BA69DA603B685B6803F00303022B23D1B3
:10502000FB69DA087B68083253F82230BB61FB6900
:1050300003F007039B000F2202FA03F3DB43BA6974
:105040001340BB613B681A69FB6903F007039B00CF
:1050500002FA03F3BA691343BB61FB69DA087B68A0
:105060000832B96943F822107B681B68BB61FB6991
:105070005B00032202FA03F3DB43BA691340BB610E
:105080003B685B6803F00302FB695B0002FA03F311
:10509000BA691343BB617B68BA691A603B685B6895
:1050A00003F44033002B00F0B4800023FB60604B1E
:1050B0005B6C5F4A43F4804353645D4B5B6C03F469
:1050C0008043FB60FB685B4AFB699B08023352F834
:1050D0002330BB61FB6903F003039B000F2202FA3C
:1050E00003F3DB43BA691340BB617B68524A9342C6
:1050F0002BD07B68514A934225D07B68504A93421B
:105100001FD07B684F4A934219D07B684E4A934226
:1051100013D07B684D4A93420DD07B684C4A934232
:1051200007D07B684B4A934201D107230EE0082346
:105130000CE006230AE0052308E0042306E003232D
:1051400004E0022302E0012300E00023FA6902F0F8
:10515000030292009340BA691343BB613549FB696E
:105160009B080233BA6941F823203B4B1B68BB61A3
:105170003B69DB43BA691340BB613B685B6803F47E
:105180008033002B03D0BA693B691343BB61324AB9
:10519000BB691360304B5B68BB613B69DB43BA6939
:1051A0001340BB613B685B6803F40033002B03D002
:1051B000BA693B691343BB61274ABB695360264BFD
:1051C0009B68BB613B69DB43BA691340BB613B68C9
:1051D0005B6803F48013002B03D0BA693B69134367
:1051E000BB611D4ABB6993601B4BDB68BB613B69BC
:1051F000DB43BA691340BB613B685B6803F400138F
:10520000002B03D0BA693B691343BB61124ABB69E7
:10521000D360FB690133FB61FB690F2B7FF690AE16
:1052200000BF00BF2437BD465DF8047B704700BF58
:1052300000380240003801400000024000040240F3
:1052400000080240000C024000100240001402401E
:1052500000180240001C0240003C014080B483B0B2
:1052600000AF78600B467B8013467B707B78002B09
:1052700003D07A887B689A6103E07B881A047B6894
:105280009A6100BF0C37BD465DF8047B7047000093
:1052900080B586B000AF78607B68002B01D1012318
:1052A00067E27B681B6803F00103002B75D0884B15
:1052B0009B6803F00C03042B0CD0854B9B6803F018
:1052C0000C03082B12D1824B5B6803F48003B3F507
:1052D000800F0BD17E4B1B6803F40033002B5BD097
:1052E0007B685B68002B57D1012342E27B685B68D7
:1052F000B3F5803F06D1764B1B68754A43F4803383
:1053000013601DE07B685B68B3F5A02F0CD1704B78
:105310001B686F4A43F4802313606D4B1B686C4A13
:1053200043F4803313600BE0694B1B68684A23F435
:1053300080331360664B1B68654A23F48023136037
:105340007B685B68002B13D0FFF7AAFC386108E08C
:10535000FFF7A6FC02463B69D31A642B01D903234D
:1053600007E25B4B1B6803F40033002BF0D014E022
:10537000FFF796FC386108E0FFF792FC02463B69B4
:10538000D31A642B01D90323F3E1514B1B6803F4B7
:105390000033002BF0D100E000BF7B681B6803F0F6
:1053A0000203002B63D04A4B9B6803F00C03002BD5
:1053B0000BD0474B9B6803F00C03082B1CD1444BCC
:1053C0005B6803F48003002B16D1414B1B6803F08C
:1053D0000203002B05D07B68DB68012B01D0012381
:1053E000C7E13B4B1B6823F0F8027B681B69DB00BD
:1053F000374913430B603AE07B68DB68002B20D011
:10540000344B01221A60FFF74BFC386108E0FFF7CC
:1054100047FC02463B69D31A022B01D90323A8E1BA
:105420002B4B1B6803F00203002BF0D0284B1B68AA
:1054300023F0F8027B681B69DB00254913430B60EE
:1054400015E0244B00221A60FFF72AFC386108E0BF
:10545000FFF726FC02463B69D31A022B01D903232E
:1054600087E11B4B1B6803F00203002BF0D17B6824
:105470001B6803F00803002B36D07B685B69002BA8
:1054800016D0154B01221A60FFF70AFC386108E0BC
:10549000FFF706FC02463B69D31A022B01D903230E
:1054A00067E10B4B5B6F03F00203002BF0D01BE0B6
:1054B000094B00221A60FFF7F3FB38610EE0FFF79B
:1054C000EFFB02463B69D31A022B07D9032350E1B5
:1054D0000038024000004742800E4742884B5B6F15
:1054E00003F00203002BEAD17B681B6803F004037E
:1054F000002B00F097800023FB75814B1B6C03F0A1
:105500008053002B0FD10023BB607D4B1B6C7C4A6A
:1055100043F0805313647A4B1B6C03F08053BB60E1
:10552000BB680123FB75774B1B6803F48073002B6A
:1055300018D1744B1B68734A43F480731360FFF7F0
:10554000AFFB386108E0FFF7ABFB02463B69D31ABB
:10555000022B01D903230CE16A4B1B6803F480730F
:10556000002BF0D07B689B68012B06D1644B1B6F2E
:10557000634A43F0010313671CE07B689B68052BBB
:105580000CD15F4B1B6F5E4A43F0040313675C4B07
:105590001B6F5B4A43F0010313670BE0584B1B6F13
:1055A000574A23F001031367554B1B6F544A23F0EE
:1055B000040313677B689B68002B15D0FFF770FB13
:1055C00038610AE0FFF76CFB02463B69D31A41F2EF
:1055D0008832934201D90323CBE0494B1B6F03F080
:1055E0000203002BEED014E0FFF75AFB38610AE00B
:1055F000FFF756FB02463B69D31A41F288329342C9
:1056000001D90323B5E03E4B1B6F03F00203002BCF
:10561000EED1FB7D012B05D1394B1B6C384A23F0B1
:10562000805313647B689B69002B00F0A180344B8E
:105630009B6803F00C03082B5CD07B689B69022BF2
:1056400041D1314B00221A60FFF72AFB386108E094
:10565000FFF726FB02463B69D31A022B01D903232D
:1056600087E0274B1B6803F00073002BF0D17B68A9
:10567000DA697B681B6A1A437B685B6A9B011A4381
:105680007B689B6A5B08013B1B041A437B68DB6AEF
:105690001B061B4913434B601B4B01221A60FFF78B
:1056A000FFFA386108E0FFF7FBFA02463B69D31ABC
:1056B000022B01D903235CE0114B1B6803F000733C
:1056C000002BF0D054E0104B00221A60FFF7E8FAEC
:1056D000386108E0FFF7E4FA02463B69D31A022B6F
:1056E00001D9032345E0064B1B6803F00073002B30
:1056F000F0D13DE07B689B69012B07D1012338E0A5
:105700000038024000700040600047421B4B5B685D
:10571000FB607B689B69012B28D0FB6803F4800247
:105720007B68DB699A4221D1FB6803F03F027B680A
:105730001B6A9A421AD1FA6847F6C07313407A6816
:10574000526A9201934211D1FB6803F440327B68A4
:105750009B6A5B08013B1B049A4207D1FB6803F07C
:1057600070627B68DB6A1B069A4201D0012300E06D
:10577000002318461837BD4680BD00BF00380240E0
:1057800080B584B000AF786039607B68002B01D1B0
:105790000123CCE0684B1B6803F007033A689A4288
:1057A0000CD9654B3A68D2B21A70634B1B6803F090
:1057B00007033A689A4201D00123B8E07B681B686E
:1057C00003F00203002B20D07B681B6803F0040366
:1057D000002B05D0594B9B68584A43F4E053936023
:1057E0007B681B6803F00803002B05D0534B9B68B4
:1057F000524A43F460439360504B9B6823F0F0029D
:105800007B689B684D4913438B607B681B6803F082
:105810000103002B44D07B685B68012B07D1474B09
:105820001B6803F40033002B19D101237FE07B6850
:105830005B68022B03D07B685B68032B07D13F4B6F
:105840001B6803F00073002B09D101236FE03B4B71
:105850001B6803F00203002B01D1012367E0374BE3
:105860009B6823F003027B685B68344913438B60B9
:10587000FFF716FAF8600AE0FFF712FA0246FB6833
:10588000D31A41F28832934201D903234FE02B4BC4
:105890009B6803F00C027B685B689B009A42EBD12B
:1058A000254B1B6803F007033A689A420CD2224B3F
:1058B0003A68D2B21A70204B1B6803F007033A68AB
:1058C0009A4201D0012332E07B681B6803F0040395
:1058D000002B08D0194B9B6823F4E0527B68DB68EF
:1058E000164913438B607B681B6803F00803002B89
:1058F00009D0124B9B6823F460427B681B69DB0074
:105900000E4913438B6000F021F802460B4B9B6855
:105910001B0903F00F030A49CB5C22FA03F3094A7F
:105920001360094B1B681846FFF776F900231846E9
:105930001037BD4680BD00BF003C02400038024029
:10594000C8C2000894000020980000202DE9B04F44
:1059500094B000AF00237B640023FB6400233B640E
:105960000023BB64794B9B6803F00C03082B0DD01C
:10597000082B00F2E180002B02D0042B03D0DBE0E7
:10598000734BBB64DBE0734BBB64D8E06F4B5B686D
:1059900003F03F037B646D4B5B6803F48003002BD3
:1059A00063D06A4B5B689B090022BB63FA63BB6BE5
:1059B000C3F308033B6300237B63D7E90C4522460E
:1059C0002B464FF000004FF00001590141EAD2612F
:1059D000500102460B462146511A3961294663EBB4
:1059E00001037B614FF000024FF00003D7E904ABE5
:1059F00059468B01514643EA916351468A0151460B
:105A0000B2EB0108594663EB01094FF000024FF079
:105A100000034FEAC90343EA58734FEAC8029046AD
:105A20009946234618EB0303BB602B4649EB03035F
:105A3000FB604FF000024FF00003D7E90245294612
:105A40004B02214643EAD15321464A0210461946E9
:105A50007B6C0022BB62FA62D7E90A23FAF710FCDA
:105A600002460B461346FB6458E0384B5B689B09C3
:105A7000002218461146C0F308033B6200237B62F4
:105A8000D7E9088942464B464FF000004FF000012D
:105A9000590141EAD261500102460B464146B2EB40
:105AA000010A494663EB010B4FF000024FF000037F
:105AB0004FEA8B1343EA9A634FEA8A12B2EB0A0465
:105AC00063EB0B054FF000024FF00003EB0043EADD
:105AD0005473E20014461D464346E3183B604B46B0
