:020000040800F2
:1000000000000220491700083113000837130008C8
:100010003D130008431300084913000800000000C6
:100020000000000000000000000000004F13000866
:100030005D130008000000006B130008791300082E
:1000400099170008991700089917000899170008D0
:1000500099170008991700089917000899170008C0
:1000600099170008991700089917000899170008B0
:1000700099170008991700089917000899170008A0
:100080009917000899170008991700089917000890
:100090009917000899170008991700089917000880
:1000A0009917000899170008991700089917000870
:1000B0008513000899170008991700089917000878
:1000C0009917000899170008991700089917000850
:1000D0009917000899170008991700089917000840
:1000E0009917000899170008991700089917000830
:1000F0009917000899170008991700089917000820
:10010000991700089917000899170008991700080F
:1001100099170008991700089917000899170008FF
:1001200099170008991700089917000899170008EF
:1001300099170008991700089917000899170008DF
:1001400099170008991700089917000899170008CF
:1001500099170008991700089917000899170008BF
:1001600099170008991700089917000899170008AF
:100170009917000899170008991700080000000057
:08018000991700089917000807
:1001900010B5054C237833B9044B13B10448AFF3C1
:1001A00000800123237010BD7000002000000000BB
:1001B0008447000808B5034B1BB103490348AFF35C
:1001C000008008BD00000000740000208447000883
:1001D00001F0FF01102A2BDB10F0070F08D010F8F8
:1001E000013B013A8B422DD010F0070F42B3F6D1FC
:1001F000F0B441EA012141EA014122F007047FF015
:1002000000070023F0E80256083C85EA010586EA6B
:10021000010685FA47F5A3FA87F586FA47F6A5FAA7
:1002200087F68EB9EED1F0BC01F0FF0102F00702B3
:1002300032B110F8013B013A83EA010313B1F8D15E
:100240000020704701387047002D06BF354603383F
:10025000073815F0010F07D1013015F4807F02BF78
:10026000013015F4C03F0130F0BC0138704700BFC9
:1002700053B94AB9002908BF00281CBF4FF0FF310D
:100280004FF0FF3000F070B9ADF1080C6DE904CE0D
:1002900000F006F8DDF804E0DDE9022304B0704761
:1002A0002DE9F047089E0D4604460F46002B4AD123
:1002B0008A42944665D9B2FA82F343B102FA03FC4A
:1002C000C3F120029F4020FA02F217439C404FEAFC
:1002D0001C4E1FFA8CF5B7FBFEF1220C0EFB1177BA
:1002E00042EA074201FB05F090420AD91CEB0202E8
:1002F00001F1FF3780F01C81904240F219810239F0
:100300006244121AA4B2B2FBFEF00EFB102244EAC1
:10031000024400FB05F5A5420AD91CEB040400F1D8
:10032000FF3280F00781A54240F204816444023824
:1003300040EA0140641B00211EB1DC400023C6E9F5
:100340000043BDE8F0878B4208D9002E00F0ED8015
:100350000021C6E900050846BDE8F087B3FA83F13D
:10036000002949D1AB4202D3824200F2F880841ABC
:1003700065EB030201201746002EE2D0C6E90047D4
:10038000DFE702B9FFDEB2FA82F3002B40F0908083
:100390008A1A4FEA1C471FFA8CFE0121B2FBF7F5BF
:1003A00007FB1520220C42EA00420EFB05F09042AA
:1003B00008D91CEB020205F1FF3802D2904200F28C
:1003C000CB804546121AA4B2B2FBF7F007FB10220D
:1003D00044EA02440EFB00FEA64508D91CEB0404C7
:1003E00000F1FF3202D2A64500F2BB801046A4EB1A
:1003F0000E0440EA05409FE7C1F120078B4022FA36
:1004000007FC4CEA030C05FA01F420FA07F3FD405F
:100410004FEA1C492343B5FBF9F81FFA8CFE09FB90
:1004200018551C0C44EA054408FB0EF5A54202FAD7
:1004300001F200FA01F00BD91CEB040408F1FF3AB9
:1004400080F08880A54240F28580A8F102086444CB
:10045000641B9DB2B4FBF9F309FB134445EA044461
:1004600003FB0EFEA64508D91CEB040403F1FF357F
:100470006CD2A6456AD9023B644443EA0843A3FB15
:100480000295A4EB0E04AC42C846AE4656D353D0F8
:1004900056B1B0EB080264EB0E0404FA07F7CA4049
:1004A000CC401743C6E9007418460021BDE8F08728
:1004B000C3F1200102FA03FC20FA01F225FA01F14E
:1004C0009D402A434FEA1C471FFA8CFEB1FBF7F010
:1004D00007FB1015110C41EA054100FB0EF58D429A
:1004E00004FA03F408D91CEB010100F1FF382FD204
:1004F0008D422DD902386144491B92B2B1FBF7F508
:1005000007FB151142EA014205FB0EF1914208D9A1
:100510001CEB020205F1FF3816D2914214D9023DBC
:100520006244521A45EA004138E73146304608E74E
:100530003946E6E61046FBE64845A9D2B9EB020883
:1005400065EB0C0E013BA3E74546EAE72B4694E733
:100550004046D1E7D0467BE7023D624432E7084699
:100560000AE76444023842E7704700BF80B500AF35
:1005700001220821024801F055FC00BF80BD00BFE8
:10058000000C024080B58EB000AF07F11C030022C2
:100590001A605A609A60DA601A615A619A613B4641
:1005A00000221A605A609A60DA601A615A619A6190
:1005B0002F4B4FF020421A602D4B2E4A5A602C4B85
:1005C00000229A602A4B0022DA60294B00221A612D
:1005D000274B10225A61264B00229A61244B00229D
:1005E000DA61234B00221A62214B00225A62204B0F
:1005F0004FF480529A621E4B0022DA621C4B4FF479
:1006000080421A631A4B00225A63194B00229A63E4
:10061000174B00225A640F23FB610F233B623C23DC
:100620007B620023BB621023FB6211233B63002328
:100630007B6308233B600F237B600923BB6000239F
:10064000FB6010233B6111237B610023BB613A46B1
:1006500007F11C031946064802F0F2FA0346002B84
:1006600001D000F017FD00BF3837BD4680BD00BF88
:100670008C000020040100A080B586B000AF3B1DB7
:1006800000221A605A609A60DA601A611C4B1B687B
:10069000002B31D11A4B01221A6000233B60194B09
:1006A0009B6B184A43F001039363164B9B6B03F05B
:1006B00001033B603B684FF688737B600223BB609D
:1006C0000023FB6003233B610C237B613B1D194628
:1006D0000D4801F00BFA4CF2B3737B600223BB6050
:1006E0000023FB6003233B610C237B613B1D194608
:1006F000064801F0FBF900E000BF1837BD4680BD99
:10070000DC0000200038024000100240000C0240D3
:1007100080B582B000AF7860FFF7AEFF00BF08374A
:10072000BD4680BD80B58CB000AF07F11C03002230
:100730001A605A609A60DA601A610023BB616F4BDD
:100740001B6B6E4A43F0100313636C4B1B6B03F07F
:100750001003BB61BB6900237B61684B1B6B674A5D
:1007600043F004031363654B1B6B03F004037B61CD
:100770007B6900233B61614B1B6B604A43F0800344
:1007800013635E4B1B6B03F080033B613B690023EB
:10079000FB605A4B1B6B594A43F001031363574BE1
:1007A0001B6B03F00103FB60FB680023BB60534B32
:1007B0001B6B524A43F008031363504B1B6B03F04F
:1007C0000803BB60BB6800237B604C4B1B6B4B4A30
:1007D00043F040031363494B1B6B03F040037B6002
:1007E0007B6800233B60454B1B6B444A43F002038C
:1007F0001363424B1B6B03F002033B603B68002218
:1008000070213F4801F00EFB00224FF400513D489B
:1008100001F008FB002240213B4801F003FB0022CD
:100820004FF48071394801F0FDFA00220821384860
:1008300001F0F8FA7023FB6101233B6200237B6225
:100840000023BB6207F11C0319462D4801F04EF945
:100850004FF40053FB6101233B6200237B620023C2
:10086000BB6207F11C031946264801F03FF9C0237B
:10087000FB6100233B6200237B6207F11C031946E6
:10088000224801F033F93023FB6100233B6200234F
:100890007B6207F11C0319461A4801F027F940232F
:1008A000FB6101233B6200237B620023BB6207F1F3
:1008B0001C031946144801F019F94FF48073FB61C9
:1008C00001233B6200237B620023BB6207F11C0310
:1008D00019460E4801F00AF90823FB6101233B6227
:1008E00000237B620023BB6207F11C031946084802
:1008F00001F0FCF800BF3037BD4680BD0038024033
:1009000000100240000802400018024000000240AF
:10091000000C024080B483B000AF0346FB80044A61
:10092000FB88138000BF0C37BD465DF8047B704721
:10093000FEFF0F6080B483B000AF0346FB80044A23
:10094000FB88538000BF0C37BD465DF8047B7047C1
:10095000FEFF0F6080B483B000AF064B5B889BB294
:10096000FB80FB889BB218460C37BD465DF8047BC4
:10097000704700BFFEFF0F6090B583B000AF044624
:10098000084611461A462346FB800346BB800B46A9
:100990007B8013463B802A20FFF7BCFFFB881B0AA5
:1009A0009BB21846FFF7C6FFFB88DBB29BB2184626
:1009B000FFF7C0FF7B881B0A9BB21846FFF7BAFF00
:1009C0007B88DBB29BB21846FFF7B4FF2B20FFF702
:1009D000A1FFBB881B0A9BB21846FFF7ABFFBB8881
:1009E000DBB29BB21846FFF7A5FF3B881B0A9BB200
:1009F0001846FFF79FFF3B88DBB29BB21846FFF714
:100A000099FF2C20FFF786FF00BF0C37BD4690BD35
:100A100080B584B000AF0346FB80154B1B88013BBB
:100A20009AB2134B5B88013B9BB200210020FFF779
:100A3000A3FF0023FB8111E00023BB8106E0FB88BC
:100A40001846FFF777FFBB890133BB81084B5B88F2
:100A5000BA899A42F3D3FB890133FB81044B1B888B
:100A6000FA899A42E8D300BF00BF1037BD4680BD67
:100A7000E000002090B585B000AF0446084611465E
:100A80001A462346FB800346BB800B467B801346F9
:100A90003B807B88013B9AB23B88013B9BB2B98883
:100AA000F888FFF769FFBB88FB8110E0FB88BB81FA
:100AB00006E03B8C1846FFF73DFFBB890133BB8145
:100AC000BA897B889A42F4D3FB890133FB81FA8986
:100AD0003B889A42EAD300BF00BF1437BD4690BDA1
:100AE00080B483B000AF0346FB71FB791B09DBB216
:100AF00003F00303DBB2002B07D00A4B4FF4A072C4
:100B00001A80084BF0225A8006E0064BF0221A8029
:100B1000044B4FF4A0725A8000BF0C37BD465DF8FD
:100B2000047B7047E000002080B500AF00224FF446
:100B30000051AA4801F076F94FF4FA7000F0A0FED7
:100B400001224FF40051A54801F06CF94FF4FA70FE
:100B500000F096FE0020FFF7C3FFD320FFF7DAFE78
:100B6000FFF7F8FE03461A469D4B9A80FFF7F2FE08
:100B700003461A469A4B9A80FFF7ECFE03461A4644
:100B8000974B9A80964B9B881B029AB2944B9A8003
:100B9000FFF7E0FE03461A46914B9B8813439AB237
:100BA0008F4B9A80CF20FFF7B5FE0020FFF7C2FEE3
:100BB000C120FFF7BFFE3020FFF7BCFEED20FFF79E
:100BC000A9FE6420FFF7B6FE0320FFF7B3FE122054
:100BD000FFF7B0FE8120FFF7ADFEE820FFF79AFE99
:100BE0008520FFF7A7FE1020FFF7A4FE7A20FFF76D
:100BF000A1FECB20FFF78EFE3920FFF79BFE2C20B5
:100C0000FFF798FE0020FFF795FE3420FFF792FED5
:100C10000220FFF78FFEF720FFF77CFE2020FFF772
:100C200089FEEA20FFF776FE0020FFF783FE002012
:100C3000FFF780FEC020FFF76DFE1B20FFF77AFE56
:100C4000C120FFF767FE0120FFF774FEC520FFF704
:100C500061FE3020FFF76EFE3020FFF76BFEC720ED
:100C6000FFF758FEB720FFF765FE3620FFF752FE6C
:100C70000820FFF75FFE3A20FFF74CFE5520FFF7F4
:100C800059FEB120FFF746FE0020FFF753FE1A2061
:100C9000FFF750FEB620FFF73DFE0A20FFF74AFEA1
:100CA000A220FFF747FEF220FFF734FE0020FFF7F7
:100CB00041FE2620FFF72EFE0120FFF73BFEE0203D
:100CC000FFF728FE0F20FFF735FE2A20FFF732FE40
:100CD0002820FFF72FFE0820FFF72CFE0E20FFF73D
:100CE00029FE0820FFF726FE5420FFF723FEA92047
:100CF000FFF720FE4320FFF71DFE0A20FFF71AFE34
:100D00000F20FFF717FE0020FFF714FE0020FFF76B
:100D100011FE0020FFF70EFE0020FFF70BFEE12082
:100D2000FFF7F8FD0020FFF705FE1520FFF702FE94
:100D30001720FFF7FFFD0720FFF7FCFD1120FFF74D
:100D4000F9FD0620FFF7F6FD2B20FFF7F3FD5620F7
:100D5000FFF7F0FD3C20FFF7EDFD0520FFF7EAFD72
:100D60001020FFF7E7FD0F20FFF7E4FD3F20FFF71E
:100D7000E1FD3F20FFF7DEFD0F20FFF7DBFD2B201D
:100D8000FFF7C8FD0020FFF7D5FD0020FFF7D2FDDB
:100D90000120FFF7CFFD3F20FFF7CCFD2A20FFF712
:100DA000B9FD0020FFF7C6FD0020FFF7C3FD0020BE
:100DB000FFF7C0FDEF20FFF7BDFD1120FFF7AAFDF3
:100DC000782000F05DFD2920FFF7A4FD01224FF4FB
:100DD0008071044801F026F800BF80BD0008024081
:100DE000E00000200000024080B500AF0122402159
:100DF000024801F017F800BF80BD00BF0018024094
:100E000080B500AF3F4B1B88DBB29AB23D4B1A80D6
:100E10003D4B1B881A463D4B9B5C1B021AB2394B5B
:100E20001B881BB213431BB29AB2364B1A80364B47
:100E30001B88032B46D801A252F823F04D0E000860
:100E40006B0E0008890E0008A70E00082D4B1B88AA
:100E500043F0B0039AB22B4B1A802A4B1B8823F025
:100E600040039AB2274B1A802DE0264B1B8843F093
:100E7000D0039AB2234B1A80224B1B8823F0200305
:100E80009AB2204B1A801EE01E4B1B8843F0E003F1
:100E90009AB21C4B1A801B4B1B8823F010039AB28A
:100EA000184B1A800FE0174B1B8843F070039AB25F
:100EB000144B1A80134B1B8823F080039AB2114BFA
:100EC0001A8000E000BF104B1B8801335A4203F028
:100ED000030302F0030258BF53429AB20A4B1A802E
:100EE000002240210A4800F09DFF0123022205490B
:100EF000084801F09EFC01224021054800F092FFC5
:100F000000BF80BD04000020E6000020000000209B
:100F100000180240F800002080B500AF00F03EFC51
:100F200000F018F8FFF7FEFB00F00EFB00F05AF996
:100F3000FFF728FB00F078F84FF6FF70FFF768FD29
:100F400000F09AF84FF47A7000F0D0F800F0CEFB81
:100F5000FCE7000080B594B000AF07F12003302219
:100F60000021184602F021FE07F10C0300221A604E
:100F70005A609A60DA601A610023BB60284B1B6CD0
:100F8000274A43F080531364254B1B6C03F08053B6
:100F9000BB60BB6800237B60224B1B68214A43F483
:100FA000804313601F4B1B6803F480437B607B68A6
:100FB00002233B620123FB6210233B630223BB63DA
:100FC0000023FB6308233B64A8237B640223BB64E8
:100FD0000423FB6407F12003184600F03DFF03469D
:100FE000002B01D000F056F80F23FB6002233B6179
:100FF00000237B614FF4A053BB614FF4A053FB610E
:1010000007F10C030521184601F09EF90346002B59
:1010100001D000F03FF800BF5037BD4680BD00BF93
:10102000003802400070004080B500AF00F01CFCAA
:101030000346184602F05AFC002220210D4800F019
:10104000F1FE002240210B4800F0ECFE00221021AE
:10105000084800F0E7FE00F023F8FFF7C5FEFFF7B1
:1010600085FAFFF761FD41F6583000F023F800BF24
:1010700080BD00BF0010024080B582B002AF1F23C8
:1010800000931423F02200210020FFF7F3FC00BF9F
:10109000BD4680BD80B400AF72B600BFFEE7000061
:1010A00080B500AF024801F063FE00BF80BD00BF05
:1010B0005401002080B483B000AF0346FB80084A8F
:1010C000FB881380064B1A88064B1A80064B0022B9
:1010D0001A8000BF0C37BD465DF8047B704700BF27
:1010E000EC000020EA000020E800002080B483B07B
:1010F00000AF0346FB80094AFB881380074B1A8820
:10110000074B1A80074B00221A80074B00221A80D7
:1011100000BF0C37BD465DF8047B7047F20000202D
:10112000F0000020EE000020F400002080B400AFAA
:10113000124B1B88002B06D0104B1B88013B9AB228
:101140000E4B1A8015E00E4B1B88B3F5C87F03D9F0
:101150000B4B00221A8005E0094B1B8801339AB221
:10116000074B1A80074B01221A80074B1A88034B42
:101170001A8000BFBD465DF8047B7047F000002078
:10118000F4000020EE000020F200002080B582B0C4
:1011900000AF78607B681B68B3F1804F18D10E4BAD
:1011A0001B88002B10D00C4B1B88013B9AB20A4BBA
:1011B0001A80094B1B88002B06D1084B01221A808C
:1011C000074B1A88044B1A80FFF7B0FFFFF718FE91
:1011D00000BF0837BD4680BDEA000020E8000020BF
:1011E000EC00002080B500AF174B184A1A60164B70
:1011F0004FF482725A60144B00229A60124B002204
:10120000DA60114B00221A610F4B00225A610E4B1B
:101210004FF400729A610C4B0022DA610A4B0022F3
:101220001A62094B00225A62074B00229A62064B4F
:101230000A22DA62044801F073FA0346002B01D057
:10124000FFF728FF00BF80BDF800002000300140FC
:1012500080B58AB000AF786007F1140300221A60ED
:101260005A609A60DA601A617B681B68194A934277
:101270002BD100233B61184B5B6C174A43F480531E
:101280005364154B5B6C03F480533B613B69002353
:10129000FB60114B1B6B104A43F0020313630E4BB0
:1012A0001B6B03F00203FB60FB6838237B610223A6
:1012B000BB610023FB6103233B6205237B6207F1D3
:1012C00014031946054800F011FC00BF2837BD463D
:1012D00080BD00BF003001400038024000040240E1
:1012E00080B483B000AF00237B60104B5B6C0F4A6F
:1012F00043F4804353640D4B5B6C03F480437B6089
:101300007B6800233B60094B1B6C084A43F0805309
:101310001364064B1B6C03F080533B603B6800BFBB
:101320000C37BD465DF8047B704700BF00380240B3
:1013300080B400AFFEE780B400AFFEE780B400AF3A
:10134000FEE780B400AFFEE780B400AFFEE780B4F4
:1013500000AF00BFBD465DF8047B704780B400AFAE
:1013600000BFBD465DF8047B704780B400AF00BF8E
:10137000BD465DF8047B704780B500AF00F060FAB1
:1013800000BF80BD80B500AF024801F061FD00BF25
:1013900080BD00BF5401002080B400AF0123184677
:1013A000BD465DF8047B704780B582B000AF7860C1
:1013B000396002F059FC034616221A604FF0FF33E1
:1013C00018460837BD4680BD80B582B000AF786052
:1013D0004FF0FF317868FFF7E7FFFEE780B586B092
:1013E00000AFF860B9607A6000237B610AE0AFF378
:1013F00000800146BB685A1CBA60CAB21A707B6989
:1014000001337B617A697B689A42F0DB7B6818461E
:101410001837BD4680BD80B586B000AFF860B960B2
:101420007A6000237B6109E0BB685A1CBA601B78B4
:101430001846AFF300807B6901337B617A697B6872
:101440009A42F1DB7B6818461837BD4680BD80B4F0
:1014500083B000AF78604FF0FF3318460C37BD46BD
:101460005DF8047B704780B483B000AF786039606A
:101470003B684FF400525A60002318460C37BD46B3
:101480005DF8047B704780B483B000AF78600123BF
:1014900018460C37BD465DF8047B704780B485B0B4
:1014A00000AFF860B9607A60002318461437BD4673
:1014B0005DF8047B7047000080B586B000AF7860AF
:1014C000144A154BD31A7B617B693B61134B1B6834
:1014D000002B02D1114B124A1A60104B1A687B681C
:1014E00013443A699A4207D202F0BEFB03460C222B
:1014F0001A604FF0FF3309E0084B1B68FB60074B95
:101500001A687B681344054A1360FB68184618374D
:10151000BD4680BD000002200004000050010020F4
:10152000F002002080B400AF064BD3F88830054AA3
:1015300043F47003C2F8883000BFBD465DF8047BF9
:10154000704700BF00ED00E080B586B000AF07F146
:10155000080300221A605A609A60DA603B46002253
:101560001A605A601D4B4FF080421A601B4B40F2CC
:1015700047325A60194B00229A60184B6322DA6096
:10158000164B00221A61154B00229A61134801F094
:101590009FFB0346002B01D0FFF77CFD4FF48053E7
:1015A000BB6007F1080319460C4801F059FD0346DA
:1015B000002B01D0FFF76EFD00233B6000237B6012
:1015C0003B461946054801F075FF0346002B01D044
:1015D000FFF760FD00BF1837BD4680BD54010020F5
:1015E00080B584B000AF78607B681B68B3F1804F32
:1015F00015D10023FB600C4B1B6C0B4A43F001031D
:101600001364094B1B6C03F00103FB60FB680022B1
:1016100000211C2000F033FA1C2000F04CFA00BF1F
:101620001037BD4680BD00BF0038024080B487B08F
:1016300000AF78600B467B8013463B807B88BB8184
:101640003B88FB811F233B8200233B7501237B8268
:101650007B681A4607F10C0303CB106051601B88AE
:10166000138178681C37BD465DF8047B704790B5E0
:1016700087B002AF3B1D83E80700B888F988BB88B4
:1016800005339AB2FB8805339CB23B89009323460D
:10169000FFF7F0F900BF1437BD4690BD80B584B0A8
:1016A00000AF0346FB800B46BB8013467B800023C4
:1016B000BB8112E002F048F90246B988FB88CB1AD8
:1016C000013392FBF3F101FB03F3D31A9AB2FB88C7
:1016D0001344FB81BB890133BB81BA897B889A4261
:1016E000E8D3FB8918461037BD4680BD80B584B06D
:1016F00000AF0122E6210520FFF7D0FF0346FB8162
:1017000001224FF49B714120FFF7C8FF0346BB81C4
:101710003B46BA89F9891846FFF788FF3B4693E8AC
:101720000700FFF7A4FF4FF4FA7000F0A9F84FF696
:10173000FF70FFF76DF94FF47A7000F0A1F800BF69
:101740001037BD4680BD0000DFF834D00D480E498B
:101750000E4A002302E0D458C4500433C4188C420B
:10176000F9D30B4A0B4C002301E013600432A24270
:10177000FBD3FFF7D7FE02F07DFAFFF7CDFB7047F2
:101780000000022000000020700000209C4800089B
:1017900070000020EC020020FEE7000080B500AFE2
:1017A0000E4B1B680D4A43F4007313600B4B1B6810
:1017B0000A4A43F480631360084B1B68074A43F4EA
:1017C00080731360032000F04FF90F2000F008F839
:1017D000FFF786FD0023184680BD00BF003C024095
:1017E00080B582B000AF7860124B1A68124B1B783C
:1017F00019464FF47A73B3FBF1F3B2FBF3F31846D7
:1018000000F067F90346002B01D001230EE07B684E
:101810000F2B0AD8002279684FF0FF3000F02FF923
:10182000064A7B681360002300E00123184608374E
:10183000BD4680BD08000020100000200C000020E4
:1018400080B400AF064B1B781A46064B1B68134446
:10185000044A136000BFBD465DF8047B704700BFBB
:10186000100000209C01002080B400AF034B1B68D7
:101870001846BD465DF8047B704700BF9C01002000
:1018800080B584B000AF7860FFF7EEFFB8607B688A
:10189000FB60FB68B3F1FF3F05D00A4B1B781A468B
:1018A000FB681344FB6000BFFFF7DEFF0246BB6826
:1018B000D31AFA689A42F7D800BF00BF1037BD4666
:1018C00080BD00BF1000002080B485B000AF7860FC
:1018D0007B6803F00703FB600C4BDB68BB60BA68F6
:1018E0004FF6FF031340BB60FB681A02BB6813434B
:1018F00043F0BF6343F40033BB60044ABB68D3606A
:1019000000BF1437BD465DF8047B704700ED00E072
:1019100080B400AF044BDB681B0A03F007031846D2
:10192000BD465DF8047B704700ED00E080B483B0F5
:1019300000AF0346FB7197F90730002B0BDBFB79F7
:1019400003F01F02074997F907305B09012000FAED
:1019500002F241F8232000BF0C37BD465DF8047B3E
:10196000704700BF00E100E080B483B000AF0346E1
:101970003960FB7197F90730002B0ADB3B68DAB25C
:101980000C4997F907301201D2B20B4483F80023B7
:101990000AE03B68DAB20849FB7903F00F03043B25
:1019A0001201D2B20B441A7600BF0C37BD465DF867
:1019B000047B704700E100E000ED00E080B489B0F6
:1019C00000AFF860B9607A60FB6803F00703FB6161
:1019D000FB69C3F10703042B28BF0423BB61FB6928
:1019E0000433062B02D9FB69033B00E000237B6133
:1019F0004FF0FF32BB6902FA03F3DA43BB681A40C7
:101A00007B699A404FF0FF317B6901FA03F3D943B8
:101A10007B680B40134318462437BD465DF8047BB2
:101A20007047000080B582B000AF78607B68013BF2
:101A3000B3F1807F01D301230FE00A4A7B68013BA9
:101A400053600F214FF0FF30FFF78EFF054B002250
:101A50009A60044B07221A60002318460837BD46D7
:101A600080BD00BF10E000E080B582B000AF7860BC
:101A70007868FFF729FF00BF0837BD4680BD80B5F5
:101A800086B000AF0346B9607A60FB7300237B61C8
:101A9000FFF73EFF78617A68B9687869FFF78EFFD3
:101AA000024697F90F3011461846FFF75DFF00BF59
:101AB0001837BD4680BD80B582B000AF0346FB71CC
:101AC00097F907301846FFF731FF00BF0837BD46CA
:101AD00080BD80B582B000AF78607868FFF7A2FF64
:101AE000034618460837BD4680BD000080B489B063
:101AF00000AF7860396000237B6100233B610023E5
:101B0000BB610023FB616BE10122FB6902FA03F375
:101B10007B613B681B687A6913403B613A697B696A
:101B20009A4240F05A813B685B6803F00303012B43
:101B300005D03B685B6803F00303022B30D17B6860
:101B40009B68BB61FB695B00032202FA03F3DB4382
:101B5000BA691340BB613B68DA68FB695B0002FA53
:101B600003F3BA691343BB617B68BA699A607B6807
:101B70005B68BB610122FB6902FA03F3DB43BA69CC
:101B80001340BB613B685B681B0903F00102FB6902
:101B900002FA03F3BA691343BB617B68BA695A60FE
:101BA0003B685B6803F00303032B17D07B68DB689B
:101BB000BB61FB695B00032202FA03F3DB43BA69F2
:101BC0001340BB613B689A68FB695B0002FA03F350
:101BD000BA691343BB617B68BA69DA603B685B68CA
:101BE00003F00303022B23D1FB69DA087B68083278
:101BF00053F82230BB61FB6903F007039B000F22FF
:101C000002FA03F3DB43BA691340BB613B681A690C
:101C1000FB6903F007039B0002FA03F3BA6913435D
:101C2000BB61FB69DA087B680832B96943F82210A6
:101C30007B681B68BB61FB695B00032202FA03F34C
:101C4000DB43BA691340BB613B685B6803F0030286
:101C5000FB695B0002FA03F3BA691343BB617B685B
:101C6000BA691A603B685B6803F44033002B00F0EC
:101C7000B4800023FB60604B5B6C5F4A43F480439D
:101C800053645D4B5B6C03F48043FB60FB685B4A11
:101C9000FB699B08023352F82330BB61FB6903F0F8
:101CA00003039B000F2202FA03F3DB43BA691340DC
:101CB000BB617B68524A93422BD07B68514A934266
:101CC00025D07B68504A93421FD07B684F4A93428D
:101CD00019D07B684E4A934213D07B684D4A934299
:101CE0000DD07B684C4A934207D07B684B4A9342A5
:101CF00001D107230EE008230CE006230AE00523A8
:101D000008E0042306E0032304E0022302E00123A9
:101D100000E00023FA6902F0030292009340BA69DE
:101D20001343BB613549FB699B080233BA6941F82B
:101D300023203B4B9B68BB613B69DB43BA69134083
:101D4000BB613B685B6803F48013002B03D0BA6966
:101D50003B691343BB61324ABB699360304BDB681C
:101D6000BB613B69DB43BA691340BB613B685B689D
:101D700003F40013002B03D0BA693B691343BB6122
:101D8000274ABB69D360264B5B68BB613B69DB4379
:101D9000BA691340BB613B685B6803F40033002BF6
:101DA00003D0BA693B691343BB611D4ABB695360E9
:101DB0001B4B1B68BB613B69DB43BA691340BB61CA
:101DC0003B685B6803F48033002B03D0BA693B693E
:101DD0001343BB61124ABB691360FB690133FB61AA
:101DE000FB690F2B7FF690AE00BF00BF2437BD46C6
:101DF0005DF8047B704700BF0038024000380140A6
:101E0000000002400004024000080240000C0240B2
:101E1000001002400014024000180240001C024062
:101E2000003C014080B483B000AF78600B467B80FB
:101E300013467B707B78002B03D07A887B689A618D
:101E400003E07B881A047B689A6100BF0C37BD46AB
:101E50005DF8047B7047000080B586B000AF786005
:101E60007B68002B01D1012367E27B681B6803F0CC
:101E70000103002B75D0884B9B6803F00C03042BE7
:101E80000CD0854B9B6803F00C03082B12D1824BBE
:101E90005B6803F48003B3F5800F0BD17E4B1B68A6
:101EA00003F40033002B5BD07B685B68002B57D1B9
:101EB000012342E27B685B68B3F5803F06D1764B35
:101EC0001B68754A43F4803313601DE07B685B68D0
:101ED000B3F5A02F0CD1704B1B686F4A43F48023DD
:101EE00013606D4B1B686C4A43F4803313600BE046
:101EF000694B1B68684A23F480331360664B1B6888
:101F0000654A23F4802313607B685B68002B13D041
:101F1000FFF7AAFC386108E0FFF7A6FC02463B6920
:101F2000D31A642B01D9032307E25B4B1B6803F42C
:101F30000033002BF0D014E0FFF796FC386108E086
:101F4000FFF792FC02463B69D31A642B01D90323A5
:101F5000F3E1514B1B6803F40033002BF0D100E098
:101F600000BF7B681B6803F00203002B63D04A4B61
:101F70009B6803F00C03002B0BD0474B9B6803F0CE
:101F80000C03082B1CD1444B5B6803F48003002B2B
:101F900016D1414B1B6803F00203002B05D07B6870
:101FA000DB68012B01D00123C7E13B4B1B6823F009
:101FB000F8027B681B69DB00374913430B603AE08A
:101FC0007B68DB68002B20D0344B01221A60FFF7BE
:101FD0004BFC386108E0FFF747FC02463B69D31A27
:101FE000022B01D90323A8E12B4B1B6803F002034A
:101FF000002BF0D0284B1B6823F0F8027B681B698C
:10200000DB00254913430B6015E0244B00221A60C6
:10201000FFF72AFC386108E0FFF726FC02463B691F
:10202000D31A022B01D9032387E11B4B1B6803F052
:102030000203002BF0D17B681B6803F00803002B20
:1020400036D07B685B69002B16D0154B01221A60D5
:10205000FFF70AFC386108E0FFF706FC02463B691F
:10206000D31A022B01D9032367E10B4B5B6F03F0FB
:102070000203002BF0D01BE0094B00221A60FFF78F
:10208000F3FB38610EE0FFF7EFFB02463B69D31A22
:10209000022B07D9032350E10038024000004742D9
:1020A000800E4742884B5B6F03F00203002BEAD19E
:1020B0007B681B6803F00403002B00F0978000236B
:1020C000FB75814B1B6C03F08053002B0FD1002359
:1020D000BB607D4B1B6C7C4A43F0805313647A4B8E
:1020E0001B6C03F08053BB60BB680123FB75774B0F
:1020F0001B6803F48073002B18D1744B1B68734A60
:1021000043F480731360FFF7AFFB386108E0FFF71B
:10211000ABFB02463B69D31A022B01D903230CE126
:102120006A4B1B6803F48073002BF0D07B689B68BC
:10213000012B06D1644B1B6F634A43F00103136705
:102140001CE07B689B68052B0CD15F4B1B6F5E4AC4
:1021500043F0040313675C4B1B6F5B4A43F00103BE
:1021600013670BE0584B1B6F574A23F001031367AB
:10217000554B1B6F544A23F0040313677B689B681D
:10218000002B15D0FFF770FB38610AE0FFF76CFBFE
:1021900002463B69D31A41F28832934201D90323A4
:1021A000CBE0494B1B6F03F00203002BEED014E091
:1021B000FFF75AFB38610AE0FFF756FB02463B691E
:1021C000D31A41F28832934201D90323B5E03E4B42
:1021D0001B6F03F00203002BEED1FB7D012B05D119
:1021E000394B1B6C384A23F0805313647B689B691E
:1021F000002B00F0A180344B9B6803F00C03082BEC
:102200005CD07B689B69022B41D1314B00221A6064
:10221000FFF72AFB386108E0FFF726FB02463B691F
:10222000D31A022B01D9032387E0274B1B6803F045
:102230000073002BF0D17B68DA697B681B6A1A4354
:102240007B685B6A9B011A437B689B6A5B08013B66
:102250001B041A437B68DB6A1B061B4913434B6054
:102260001B4B01221A60FFF7FFFA386108E0FFF705
:10227000FBFA02463B69D31A022B01D903235CE027
:10228000114B1B6803F00073002BF0D054E0104B8F
:1022900000221A60FFF7E8FA386108E0FFF7E4FA75
:1022A00002463B69D31A022B01D9032345E0064BB2
:1022B0001B6803F00073002BF0D13DE07B689B6945
:1022C000012B07D1012338E00038024000700040A4
:1022D000600047421B4B5B68FB607B689B69012B7E
:1022E00028D0FB6803F480027B68DB699A4221D125
:1022F000FB6803F03F027B681B6A9A421AD1FA68B6
:1023000047F6C07313407A68526A9201934211D122
:10231000FB6803F440327B689B6A5B08013B1B044B
:102320009A4207D1FB6803F070627B68DB6A1B0688
:102330009A4201D0012300E0002318461837BD4619
:1023400080BD00BF0038024080B584B000AF786027
:1023500039607B68002B01D10123CCE0684B1B68FE
:1023600003F007033A689A420CD9654B3A68D2B237
:102370001A70634B1B6803F007033A689A4201D056
:102380000123B8E07B681B6803F00203002B20D018
:102390007B681B6803F00403002B05D0594B9B6836
:1023A000584A43F4E05393607B681B6803F00803CA
:1023B000002B05D0534B9B68524A43F46043936013
:1023C000504B9B6823F0F0027B689B684D49134398
:1023D0008B607B681B6803F00103002B44D07B6893
:1023E0005B68012B07D1474B1B6803F40033002BBC
:1023F00019D101237FE07B685B68022B03D07B68E7
:102400005B68032B07D13F4B1B6803F00073002B65
:1024100009D101236FE03B4B1B6803F00203002B43
:1024200001D1012367E0374B9B6823F003027B68EF
:102430005B68344913438B60FFF716FAF8600AE0D3
:10244000FFF712FA0246FB68D31A41F28832934230
:1024500001D903234FE02B4B9B6803F00C027B68F0
:102460005B689B009A42EBD1254B1B6803F0070386
:102470003A689A420CD2224B3A68D2B21A70204B78
:102480001B6803F007033A689A4201D0012332E047
:102490007B681B6803F00403002B08D0194B9B6872
:1024A00023F4E0527B68DB68164913438B607B683A
:1024B0001B6803F00803002B09D0124B9B6823F420
:1024C00060427B681B69DB000E4913438B6000F0A0
:1024D00021F802460B4B9B681B0903F00F030A49C6
:1024E000CB5C22FA03F3094A1360094B1B681846B8
:1024F000FFF776F9002318461037BD4680BD00BFB0
:10250000003C0240003802409C47000808000020C0
:102510000C0000202DE9B04F94B000AF00237B6485
:102520000023FB6400233B640023BB64794B9B685E
:1025300003F00C03082B0DD0082B00F2E180002BD8
:1025400002D0042B03D0DBE0734BBB64DBE0734BA6
:10255000BB64D8E06F4B5B6803F03F037B646D4B5B
:102560005B6803F48003002B63D06A4B5B689B09B4
:102570000022BB63FA63BB6BC3F308033B63002316
:102580007B63D7E90C4522462B464FF000004FF005
:102590000001590141EAD261500102460B46214631
:1025A000511A3961294663EB01037B614FF0000248
:1025B0004FF00003D7E904AB59468B01514643EA7B
:1025C000916351468A015146B2EB0108594663EBCB
:1025D00001094FF000024FF000034FEAC90343EA3C
:1025E00058734FEAC80290469946234618EB0303F6
:1025F000BB602B4649EB0303FB604FF000024FF03A
:102600000003D7E9024529464B02214643EAD1534C
:1026100021464A02104619467B6C0022BB62FA62D0
:10262000D7E90A23FDF724FE02460B461346FB6456
:1026300058E0384B5B689B09002218461146C0F3EE
:1026400008033B6200237B62D7E9088942464B4678
:102650004FF000004FF00001590141EAD2615001F2
:1026600002460B464146B2EB010A494663EB010BB9
:102670004FF000024FF000034FEA8B1343EA9A63D6
:102680004FEA8A12B2EB0A0463EB0B054FF000022B
:102690004FF00003EB0043EA5473E20014461D467A
:1026A0004346E3183B604B4645EB03037B604FF02A
:1026B00000024FF00003D7E9004529468B0221466E
:1026C00043EA915321468A02104619467B6C002248
:1026D000BB61FA61D7E90623FDF7CAFD02460B4646
:1026E0001346FB640B4B5B681B0C03F003030133C5
:1026F0005B003B64FA6C3B6CB2FBF3F3BB6402E03F
:10270000054BBB6400BFBB6C18465037BD46BDE8E7
:10271000B08F00BF003802400024F40000127A009D
:1027200080B582B000AF78607B68002B01D10123B7
:102730007BE07B685B6A002B08D17B685B68B3F544
:10274000827F09D07B680022DA6105E07B68002285
:102750001A617B6800225A617B6800229A627B685A
:1027600093F85130DBB2002B06D17B68002283F84E
:1027700050207868FEF76CFD7B68022283F85120B8
:102780007B681B681A687B681B6822F040021A602D
:102790007B685B6803F482727B689B6803F4044384
:1027A0001A437B68DB6803F400631A437B681B6988
:1027B00003F002031A437B685B6903F001031A43C9
:1027C0007B689B6903F400731A437B68DB6903F041
:1027D00038031A437B681B6A03F0800342EA030153
:1027E0007B689B6A03F400527B681B680A431A608B
:1027F0007B689B691B0C03F004017B685B6A03F038
:1028000010027B681B680A435A607B681B68DA69A0
:102810007B681B6822F40062DA617B6800225A65DB
:102820007B68012283F85120002318460837BD46F3
:1028300080BD80B588B000AFF860B9603B601346DA
:10284000FB800023FB77FB6893F85030012B01D10C
:10285000022326E1FB68012283F85020FFF704F8E9
:10286000B861FB88FB82FB6893F85130DBB2012B27
:1028700002D00223FB770BE1BB68002B02D0FB8860
:10288000002B02D10123FB7702E1FB68032283F8CE
:102890005120FB6800225A65FB68BA681A63FB681E
:1028A000FA889A86FB68FA88DA86FB6800229A63BF
:1028B000FB6800229A87FB680022DA87FB68002207
:1028C0005A64FB6800221A64FB689B68B3F5004FEA
:1028D0000FD1FB681B681A68FB681B6822F0400276
:1028E0001A60FB681B681A68FB681B6842F4804228
:1028F0001A60FB681B681B6803F04003402B07D07D
:10290000FB681B681A68FB681B6842F040021A608B
:10291000FB68DB68B3F5006F4BD1FB685B68002B8D
:1029200002D0FB8A012B3ED1FB681B6B1A88FB6827
:102930001B68DA60FB681B6B9A1CFB681A63FB68F8
:10294000DB8E9BB2013B9AB2FB68DA862BE0FB6818
:102950001B689B6803F00203022B12D1FB681B6B00
:102960001A88FB681B68DA60FB681B6B9A1CFB68A3
:102970001A63FB68DB8E9BB2013B9AB2FB68DA8676
:1029800011E0FEF771FF0246BB69D31A3A689A421A
:1029900003D83B68B3F1FF3F02D13B68002B02D163
:1029A0000323FB7774E0FB68DB8E9BB2002BCED158
:1029B0004CE0FB685B68002B02D0FB8A012B40D106
:1029C000FB681A6BFB681B680C3312781A70FB6883
:1029D0001B6B5A1CFB681A63FB68DB8E9BB2013BC6
:1029E0009AB2FB68DA862CE0FB681B689B6803F0F0
:1029F0000203022B13D1FB681A6BFB681B680C33B4
:102A000012781A70FB681B6B5A1CFB681A63FB6810
:102A1000DB8E9BB2013B9AB2FB68DA8611E0FEF7CF
:102A200023FF0246BB69D31A3A689A4203D83B682F
:102A3000B3F1FF3F02D13B68002B02D10323FB77A8
:102A400026E0FB68DB8E9BB2002BCDD1BA693968DA
:102A5000F86800F0B3F80346002B02D0FB68202290
:102A60005A65FB689B68002B0AD100233B61FB6819
:102A70001B68DB683B61FB681B689B683B613B69CB
:102A8000FB685B6D002B02D00123FB7700E000BFE9
:102A9000FB68012283F85120FB68002283F8502054
:102AA000FB7F18462037BD4680BD000080B588B04A
:102AB00000AFF860B9603B601346FB71FEF7D4FECF
:102AC0000246BB6A9B1A3A681344FB61FEF7CCFED0
:102AD000B861394B1B685B011B0DFA6902FB03F3FC
:102AE0007B6154E03B68B3F1FF3F50D0FEF7BCFE82
:102AF0000246BB69D31AFA699A4202D9FB69002BD4
:102B00003DD1FB681B685A68FB681B6822F0E00235
:102B10005A60FB685B68B3F5827F11D1FB689B68E4
:102B2000B3F5004F04D0FB689B68B3F5806F07D105
:102B3000FB681B681A68FB681B6822F040021A6079
:102B4000FB689B6AB3F5005F0FD1FB681B681A68CE
:102B5000FB681B6822F400521A60FB681B681A6845
:102B6000FB681B6842F400521A60FB68012283F87C
:102B70005120FB68002283F85020032317E07B6973
:102B8000002B01D10023FB617B69013B7B61FB686A
:102B90001B689A68BB681340BA689A420CBF01234D
:102BA0000023DBB21A46FB799A429BD100231846D8
:102BB0002037BD4680BD00BF0800002080B588B02A
:102BC00002AFF860B9607A601B4B1B681B4AA2FB1E
:102BD00003235B0D4FF47A7202FB03F37B61FB6806
:102BE0005B68B3F5827F12D17B680093BB680022DB
:102BF0008021F868FFF75AFF0346002B16D0FB68C8
:102C00005B6D43F02002FB685A6503230FE07B698C
:102C1000002B0AD07B69013B7B61FB681B689B68CA
:102C200003F08003802BF2D000E000BF00231846A1
:102C30001837BD4680BD00BF08000020819F5E168A
:102C400080B584B000AFF860B9607A60FB68002B93
:102C500001D1012338E0FB6893F84930DBB2002B47
:102C600006D1FB68002283F84820F868FDF750FD84
:102C7000FB681A68FB6808331946104600F0AAFC86
:102C8000FB681868FB689B681A46B96800F00CFD81
:102C9000FB685868FB689A68FB681B6B796800F0F2
:102CA00039FDFB681B68FA68926853F82210FB68CC
:102CB0001B68FA68926841F0010143F82210FB6832
:102CC000012283F84920002318461037BD4680BDF5
:102CD00080B582B000AF78607B68002B01D1012302
:102CE00041E07B6893F83D30DBB2002B06D17B6876
:102CF000002283F83C207868FEF772FC7B68022291
:102D000083F83D207B681A687B68043319461046B7
:102D100000F096FA7B68012283F846207B68012246
:102D200083F83E207B68012283F83F207B680122E4
:102D300083F840207B68012283F841207B680122D0
:102D400083F842207B68012283F843207B680122BC
:102D500083F844207B68012283F845207B680122A8
:102D600083F83D20002318460837BD4680BD00008B
:102D700080B485B000AF78607B6893F83D30DBB2FB
:102D8000012B01D001234EE07B68022283F83D2015
:102D90007B681B68DA687B681B6842F00102DA60B6
:102DA0007B681B68234A934222D07B681B68B3F17F
:102DB000804F1DD07B681B681F4A934218D07B68E8
:102DC0001B681E4A934213D07B681B681C4A9342BF
:102DD0000ED07B681B681B4A934209D07B681B6836
:102DE000194A934204D07B681B68184A934211D158
:102DF0007B681B689B6803F00703FB60FB68062B7E
:102E000010D07B681B681A687B681B6842F001025F
:102E10001A6007E07B681B681A687B681B6842F0D1
:102E200001021A60002318461437BD465DF8047B82
:102E3000704700BF0000014000040040000800404F
:102E4000000C004000040140004001400018004018
:102E500080B582B000AF78607B681B681B6903F0A7
:102E60000203022B22D17B681B68DB6803F002039C
:102E7000022B1BD17B681B686FF002021A617B6812
:102E800001221A777B681B689B6903F00303002B00
:102E900003D0786800F0B5F905E0786800F0A7F98C
:102EA000786800F0B8F97B6800221A777B681B68A5
:102EB0001B6903F00403042B22D17B681B68DB68C9
:102EC00003F00403042B1BD17B681B686FF0040222
:102ED0001A617B6802221A777B681B689B6903F47E
:102EE0004073002B03D0786800F08BF905E0786818
:102EF00000F07DF9786800F08EF97B6800221A777F
:102F00007B681B681B6903F00803082B22D17B68D0
:102F10001B68DB6803F00803082B1BD17B681B6868
:102F20006FF008021A617B6804221A777B681B68BD
:102F3000DB6903F00303002B03D0786800F061F92C
:102F400005E0786800F053F9786800F064F97B6870
:102F500000221A777B681B681B6903F01003102B93
:102F600022D17B681B68DB6803F01003102B1BD198
:102F70007B681B686FF010021A617B6808221A7761
:102F80007B681B68DB6903F44073002B03D078680F
:102F900000F037F905E0786800F029F9786800F06A
:102FA0003AF97B6800221A777B681B681B6903F07B
:102FB0000103012B0ED17B681B68DB6803F0010362
:102FC000012B07D17B681B686FF001021A617868DA
:102FD000FEF7DCF87B681B681B6903F08003802B1D
:102FE0000ED17B681B68DB6803F08003802B07D160
:102FF0007B681B686FF080021A61786800F0E0FA65
:103000007B681B681B6903F04003402B0ED17B6873
:103010001B68DB6803F04003402B07D17B681B680B
:103020006FF040021A61786800F0FFF87B681B6857
:103030001B6903F02003202B0ED17B681B68DB6823
:1030400003F02003202B07D17B681B686FF0200260
:103050001A61786800F0AAFA00BF0837BD4680BD43
:1030600080B584B000AF786039600023FB737B6863
:1030700093F83C30012B01D10223B4E07B6801229C
:1030800083F83C207B68022283F83D207B681B6824
:103090009B68BB60BB6823F07703BB60BB6823F40D
:1030A0007F43BB607B681B68BA689A603B681B689B
:1030B000B3F5005F3ED0B3F5005F00F28780B3F553
:1030C000805F00F08680B3F5805F7FD8702B1AD0C8
:1030D000702B7BD8602B50D0602B77D8502B3CD0F6
:1030E000502B73D8402B58D0402B6FD8302B64D046
:1030F000302B6BD8202B60D0202B67D8002B5CD0D6
:10310000102B5AD062E07B6818683B6899683B686E
:103110005A683B68DB6800F0ADF97B681B689B6808
:10312000BB60BB6843F07703BB607B681B68BA6811
:103130009A604FE07B6818683B6899683B685A68FA
:103140003B68DB6800F096F97B681B689A687B68CF
:103150001B6842F480429A603CE07B6818683B68D8
:1031600059683B68DB681A4600F00AF97B681B68FF
:103170005021184600F063F92CE07B6818683B6822
:1031800059683B68DB681A4600F029F97B681B68C0
:103190006021184600F053F91CE07B6818683B6812
:1031A00059683B68DB681A4600F0EAF87B681B68E0
:1031B0004021184600F043F90CE07B681A683B6830
:1031C0001B681946104600F03AF903E00123FB732F
:1031D00000E000BF7B68012283F83D207B6800226D
:1031E00083F83C20FB7B18461037BD4680BD80B479
:1031F00083B000AF786000BF0C37BD465DF8047B3C
:10320000704780B483B000AF786000BF0C37BD4614
:103210005DF8047B704780B483B000AF786000BF76
:103220000C37BD465DF8047B704780B483B000AFB7
:10323000786000BF0C37BD465DF8047B7047000026
:1032400080B485B000AF786039607B681B68FB6034
:103250007B68404A934213D07B68B3F1804F0FD014
:103260007B683D4A93420BD07B683C4A934207D02F
:103270007B683B4A934203D07B683A4A934208D129
:10328000FB6823F07003FB603B685B68FA681343DC
:10329000FB607B682F4A93422BD07B68B3F1804F51
:1032A00027D07B682C4A934223D07B682B4A9342D9
:1032B0001FD07B682A4A93421BD07B68294A9342DD
:1032C00017D07B68284A934213D07B68274A9342E1
:1032D0000FD07B68264A93420BD07B68254A9342E5
:1032E00007D07B68244A934203D07B68234A9342E9
:1032F00008D1FB6823F44073FB603B68DB68FA6825
:103300001343FB60FB6823F080023B685B69134357
:10331000FB607B68FA681A603B689A687B68DA62CF
:103320003B681A687B689A627B680A4A934203D0BA
:103330007B680C4A934203D13B681A697B681A6325
:103340007B6801225A6100BF1437BD465DF8047BDB
:10335000704700BF0000014000040040000800402A
:10336000000C0040000401400040014000440140C6
:103370000048014000180040001C004000200040B0
:1033800080B487B000AFF860B9607A60FB681B6AF0
:103390007B61FB681B6A23F00102FB681A62FB6811
:1033A0009B693B613B6923F0F0033B617B681B0138
:1033B0003A6913433B617B6923F00A037B617A69B5
:1033C000BB6813437B61FB683A699A61FB687A6961
:1033D0001A6200BF1C37BD465DF8047B704780B49D
:1033E00087B000AFF860B9607A60FB681B6A23F0B1
:1033F0001002FB681A62FB689B697B61FB681B6AB1
:103400003B617B6923F470437B617B681B037A69B2
:1034100013437B613B6923F0A0033B61BB681B0145
:103420003A6913433B61FB687A699A61FB683A69C0
:103430001A6200BF1C37BD465DF8047B704780B43C
:1034400085B000AF786039607B689B68FB60FB6883
:1034500023F07003FB603A68FB68134343F00703F3
:10346000FB607B68FA689A6000BF1437BD465DF860
:10347000047B704780B487B000AFF860B9607A60B1
:103480003B60FB689B687B617B6923F47F437B61C6
:103490003B681A027B681A43BB6813437A6913437B
:1034A0007B61FB687A699A6000BF1C37BD465DF896
:1034B000047B704780B485B000AF786039607B686A
:1034C00093F83C30012B01D102235AE07B680122A2
:1034D00083F83C207B68022283F83D207B681B68D0
:1034E0005B68FB607B681B689B68BB60FB6823F0C4
:1034F0007003FB603B681B68FA681343FB607B68E2
:103500001B68FA685A607B681B68214A934222D084
:103510007B681B68B3F1804F1DD07B681B681D4A18
:10352000934218D07B681B681B4A934213D07B6878
:103530001B681A4A93420ED07B681B68184A934254
:1035400009D07B681B68174A934204D07B681B68CC
:10355000154A93420CD1BB6823F08003BB603B68E3
:103560005B68BA681343BB607B681B68BA689A6083
:103570007B68012283F83D207B68002283F83C2091
:10358000002318461437BD465DF8047B704700BF22
:10359000000001400004004000080040000C004012
:1035A00000040140004001400018004080B483B096
:1035B00000AF786000BF0C37BD465DF8047B7047F4
:1035C00080B483B000AF786000BF0C37BD465DF8B3
:1035D000047B704780B487B000AF786039603B6887
:1035E0001A687B6853F822303A68126823F00101A8
:1035F0007B6843F822103B689B68082B02D140236C
:103600007B6101E000237B613B685A687B691A4358
:103610003B689B681A433B68DB681A433B681B693D
:103620001A433B685B691A433B68DB691A433B6892
:103630001B6A1A433B685B6A1A433B689B6A1A43DE
:103640003B68DB6A1A433B681B6B13433B613B6877
:103650009B693A6913433B613B68DB6B3A691343EF
:103660003B61104BFB60FB6843F48063FB60FB68CD
:1036700043F4E023FB603B681A687B6853F8222020
:10368000FB68DB4302EA03013B681A683B691943A4
:103690007B6843F82210002318461C37BD465DF8AE
:1036A000047B70477FFB080080B485B000AFF860F2
:1036B000B9607A607B685A1CFB6853F8223003F0CB
:1036C0004041BB681A68BB685B681B011A43BB6852
:1036D0009B681B021A43BB68DB681B041A43BB6868
:1036E0001B69013B1B051A43BB685B69023B1B0658
:1036F0001A43BB689B6913437A6801321943FB681C
:1037000043F82210002318461437BD465DF8047BA9
:103710007047000080B485B000AFF860B9607A608F
:103720003B603B68B3F5804F1DD1FB687A6853F866
:103730002220134B1340BA681168BA68526812010C
:103740001143BA68926812021143BA689269114330
:10375000BA68D26812040A4343EA0201FB687A6835
:1037600043F8221005E0FB687A686FF0704143F877
:103770002210002318461437BD465DF8047B7047BD
:103780000000F0CF024B0146186800F023B800BFDC
:103790006C00002070B50E4E0C463168054611B91C
:1037A00000F040FA30602146284600F03BFA431C06
:1037B0000AD0C41C24F00304A04207D0211A2846D2
:1037C00000F030FA013001D14FF0FF34204670BDD7
:1037D000A40100202DE9F843CD1C25F00305083590
:1037E0000C2D38BF0C25002D074601DBA94205D959
:1037F0000C233B6000263046BDE8F883DFF8D0801C
:1038000000F068F8D8F800301C465CBB2946384602
:10381000FFF7C0FF431C044655D1D8F800402646A8
:10382000002E45D1002C48D023683146384604EBA1
:10383000030900F0F7F981453FD121686D1A294647
:103840003846FFF7A7FF013037D023682B442360A9
:10385000D8F80030002B38D05A68A2422BD1002271
:103860005A600FE02268521B1FD40B2A17D9611926
:10387000A342256018BF5960636808BFC8F80010EC
:1038800062514B60384604F10B0600F029F826F02F
:103890000706231DF21AAED09B1BA350ABE7A34231
:1038A0006268DDD1C8F80020ECE723466468ACE725
:1038B00034467668B4E71346CCE70C233B603846C1
:1038C00000F00EF897E72560DCE75B60FFDE00BFE5
:1038D000A0010020014800F0F1B900BFE80200207B
:1038E000014800F0ECB900BFE802002038B5104BE9
:1038F0001D682B6B0446B3B91820FFF743FF02463F
:10390000286320B90B4B0C48462100F0D9F90B492C
:103910000B4BC0E900130B4B83600B238381002109
:103920000120C2E904012B6B00221C615A6138BDE1
:103930006C000020AC470008C34700080E33CDAB35
:1039400034126DE6ECDE0500164B10B51C68236BD7
:10395000B3B91820FFF716FF0246206320B9124BB7
:103960001248522100F0ACF91149124BC0E9001382
:10397000114B83600B23838100210120C2E90401E4
:10398000216B0E480B694C690D4A584302FB040039
:10399000A3FB0232013340EB0200C1E9043020F006
:1039A000004010BD6C000020AC470008C347000871
:1039B0000E33CDAB34126DE6ECDE05002DF451581C
:1039C0002D7F954C002310B50446C0E90033C0E9B3
:1039D0000433836081814366C28183611946082272
:1039E0005C3000F0E2F8054B6362054BA362054BC7
:1039F000E362054B2462236310BD00BF253B000832
:103A0000473B00087F3B0008A33B0008024A0349EC
:103A1000034800F069B800BF14000020A13E000870
:103A20002000002041680C4B994210B5044601D09B
:103A300000F036FAA168094B994202D0204600F006
:103A40002FFAE168064B994204D02046BDE81040A9
:103A500000F026BA10BD00BFA8010020100200200F
:103A60007802002010B50B4B0B4C0C4A1A60204614
:103A700000220421FFF7A6FF04F1680001220921BA
:103A8000FFF7A0FF04F1D0000222BDE81040122190
:103A9000FFF798BFE0020020A80100200D3A0008BF
:103AA000014800F00BB900BFE9020020014800F016
:103AB00006B900BFE902002010B50446FFF7F0FF89
:103AC000236A1BB1BDE81040FFF7F0BF044B23622F
:103AD000044B1B68002BF5D1FFF7C4FFF2E700BFD2
:103AE000253A0008E00200202DE9F8430746884601
:103AF00014460026D4E90195B9F1010905D52468D9
:103B0000002CF7D13046BDE8F883AB89012B07D9EB
:103B1000B5F90E30013303D029463846C047064375
:103B20006835E9E710B50C46B1F90E1000F068F8F9
:103B30000028ABBF636DA3891B1823F48053ACBF6F
:103B40006365A38110BD2DE9F0411F468B89DB051C
:103B500005460C46164605D5B1F90E100223002283
:103B600000F03CF8A389B4F90E1023F48053A3812C
:103B700032463B462846BDE8F04100F063B810B538
:103B80000C46B1F90E1000F029F8431CA38915BFAB
:103B9000606523F4805343F48053A38118BFA3814D
:103BA00010BDB1F90E1000F009B80244034693426B
:103BB00000D1704703F8011BF9E7000038B5064D46
:103BC0000023044608462B60FDF741FC431C02D14C
:103BD0002B6803B1236038BDE402002038B5074DDF
:103BE00004460846114600222A601A46FDF756FC94
:103BF000431C02D12B6803B1236038BDE4020020CE
:103C000038B5074D04460846114600222A601A4678
:103C1000FDF7E4FB431C02D12B6803B1236038BDE0
:103C2000E402002038B5064D0023044608462B6008
:103C3000FDF742FC431C02D12B6803B1236038BD61
:103C4000E402002038B5074D04460846114600221C
:103C50002A601A46FDF7DFFB431C02D12B6803B133
:103C6000236038BDE4020020014B1868704700BF94
:103C70006C00002070B50D4D0D4C641BA410002687
:103C8000A64209D10B4D0C4C00F07CFD641BA41026
:103C90000026A64205D170BD55F8043B9847013671
:103CA000EEE755F8043B98470136F2E794480008E0
:103CB00094480008944800089848000870477047E6
:103CC0001FB514461A46094B1B680546D8684CB107
:103CD000074B0091CDE9013406492B4600F008F965
:103CE00000F018F9044B1C46F3E700BF6C000020FD
:103CF0001B480008284800085648000837B5002926
:103D000044D051F8043C0190002BA1F10404B8BF49
:103D1000E418FFF7DFFD1E4A0198136833B96360AA
:103D2000146003B0BDE83040FFF7DABDA34208D904
:103D3000256861198B4201BF19685B6849192160C8
:103D4000EDE71A465B680BB1A342FAD91168551822
:103D5000A5420BD1246821445418A3421160E0D13C
:103D60001C685B6853600C441460DAE702D90C23CA
:103D70000360D6E7256861198B4204BF19685B6848
:103D8000636004BF491921605460CAE703B030BDC5
:103D9000A00100208A892DE9F041054610070C4654
:103DA00058D44B68002B05DC0B6C002B02DC002088
:103DB000BDE8F081E66A002EF9D0002312F48052AB
:103DC0002F68216A2B6032D0606DA3895A0705D510
:103DD0006368C01A636B0BB1236CC01A00230246E0
:103DE000E66A216A2846B047431CA38906D12968A0
:103DF0001D292BD8294A0A41D60727D40022626000
:103E0000D9042269226004D5421C01D12B6803B970
:103E10006065616B2F600029C9D004F144039942A9
:103E200002D02846FFF76AFF00206063C0E7012345
:103E30002846B047411CC8D12B68002BC5D01D2B8C
:103E400001D0162B01D12F60B1E7A38943F04003C5
:103E5000A381ADE70F69002FA9D093070E6808BFB3
:103E60004B690F6018BF0023A6EB07088B60B8F101
:103E7000000F9CDD216AA66A43463A462846B047B1
:103E8000002806DCA38943F04003A3814FF0FF30F4
:103E90008EE70744A8EB0008E9E700BFFEFFBFDF9D
:103EA00038B50B6905460C4613B90025284638BDC0
:103EB00018B1036A0BB9FFF7FFFDB4F90C30002B02
:103EC000F3D0626ED00704D4990502D4A06DFFF739
:103ED000F5FE28462146FFF75DFF636EDA070546CB
:103EE000E4D4A3899B05E1D4A06DFFF7E8FEDDE7EC
:103EF0000EB403B5014603AB054853F8042B006824
:103F0000019300F037F802B05DF804EB03B070479E
:103F10006C00002008B5062000F094FB0120FDF79E
:103F200053FA9368013B002B10B4936008DA94694C
:103F3000A34201DB0A2903D15DF8044B00F0C4BAA7
:103F40001368581C1060197008465DF8044B7047E0
:103F5000F8B506460F461446D518AC4201D10020EC
:103F600007E014F8011B3A463046FFF7DAFF431C1E
:103F7000F3D1F8BD2DE9F04F0D469DB0144698469B
:103F8000064618B1036A0BB9FFF796FD6B6ED907A9
:103F900005D4AB899A0502D4A86DFFF78FFEAB89D3
:103FA0001B0701D52B699BB92946304600F0CAFA98
:103FB00070B16B6EDC0704D54FF0FF301DB0BDE86B
:103FC000F08FAB899805F7D4A86DFFF778FEF3E77B
:103FD0000023099320238DF82930CDF80C8030235D
:103FE000DFF8B0818DF82A304FF0010923469A4658
:103FF00013F8012B0AB1252AF9D1BAEB040B0BD027
:104000005B46224629463046FFF7A2FF013000F00A
:10401000A980099A5A4409929AF80030002B00F0BE
:10402000A18000234FF0FF32CDE905230AF1010AF8
:10403000049307938DF853301A935446052214F8CD
:10404000011B5448FCF7C4F8049AD8B9D10644BF00
:1040500020238DF85330130744BF2B238DF85330A2
:104060009AF800302A2B15D0079A544600204FF0BA
:104070000A0C214611F8013B303B092B4DD9B0B158
:10408000079214E0A0EB080309FA03F31343049327
:10409000A246D2E7039B191D1B680391002BBBBFEF
:1040A0005B4242F0020207930793B8BF0492237861
:1040B0002E2B0CD163782A2B34D1039B1A1D1B683D
:1040C0000392002BB8BF4FF0FF3302340593DFF8A3
:1040D000D4A0217803225046FCF77AF838B1049B2B
:1040E000A0EB0A004022824013430134049314F8E9
:1040F000011B29488DF828100622FCF769F80028D2
:104100003FD0264B1BBB039B073323F00703083329
:104110000393099B3B44099368E70CFB02320C466E
:104120000120A6E700230134059319464FF00A0C3D
:10413000204610F8012B303A092A03D9002BC6D0AB
:104140000591C4E70CFB012104460123F0E703AB12
:1041500000932A46124B04A93046AFF3008007466D
:10416000781CD6D16B6ED90705D4AB899A0502D4D9
:10417000A86DFFF7A4FDAB895B063FF51DAF09985D
:104180001CE703AB00932A46054B04A9304600F018
:1041900079F8E4E75748000861480008000000008B
:1041A000513F00085D4800082DE9F0471646994642
:1041B0008A680B69DDF820809342B8BF13463360EC
:1041C00091F8432007460C460AB101333360236857
:1041D000990642BF336802333360256815F006053F
:1041E00006D104F1190AE36832689B1AAB4226DC57
:1041F00094F84320131E226818BF012392062BD483
:1042000004F1430249463846C04701301ED02368B6
:10421000226903F00603042B02BFE5683368ED1A38
:10422000A3680CBF25EAE57500259342C4BF9B1A1D
:10423000ED1800261A34B5421AD1002008E00123F7
:10424000524649463846C047013003D14FF0FF304F
:10425000BDE8F0870135C6E7E1185A1C302081F827
:104260004300224494F8451082F843100233C7E714
:104270000123224649463846C0470130E6D0013680
:10428000D9E700002DE9FF470F7E0C9D782F91465E
:1042900080460C469A4601F1430207D8622F0AD89D
:1042A000002F00F0D480582F00F0C08004F14205A8
:1042B00084F842703AE0A7F16303152BF6D801A108
:1042C00051F823F01D43000831430008AD420008B7
:1042D000AD420008AD420008AD420008314300087D
:1042E000AD420008AD420008AD420008AD420008F2
:1042F000354400085D430008EF430008AD42000864
:10430000AD42000857440008AD4200085D43000874
:10431000AD420008AD420008F74300082B681A1DA3
:104320001B682A6004F1420584F8423001239FE0B3
:1043300020682B68070603F10401296001D51E6877
:1043400003E04606FBD5B3F90060002E03DA2D2307
:10435000764284F843305A480A2312E02B682068DA
:10436000191D2960050601D51E6802E04106FBD52E
:104370001E8853486F2F0CBF08230A23002184F89E
:1043800043106568A560002DA2BF216821F00401DB
:1043900021600EB9002D4BD01546B6FBF3F103FB9F
:1043A0001167C75D05F8017D3746BB420E46F4D95B
:1043B000082B0BD12368DE0708D523696168994271
:1043C000DEBF302305F8013C05F1FF35521B2261A9
:1043D000CDF800A04B4603AA21464046FFF7E4FE75
:1043E00001304AD14FF0FF3004B0BDE8F0872368B8
:1043F00043F0200323603348782784F8457023680E
:1044000029681F0651F8046B02D45F0648BFB6B294
:10441000DF0748BF43F02003296048BF23601EB96F
:10442000236823F0200323601023A7E72448E4E750
:104430001546BDE72B6826686169181D286035069A
:104440001B6801D5196002E07006FBD519800023B6
:1044500023611546BCE72B681A1D2A601D68626837
:1044600000212846FBF7B4FE08B1401B606063687A
:104470002361002384F84330AAE723692A4649468A
:104480004046D0470130ADD023689B0713D4E06885
:10449000039B9842B8BF1846A6E701233246494617
:1044A0004046D04701309DD00135E36803995B1A3F
:1044B000AB42F2DCEBE7002504F11906F5E700BF9B
:1044C0006848000879480008F8B50E4614460546C5
:1044D00018B1036A0BB9FFF7EFFAA369A360A389C8
:1044E0001A0725D523691BB323682269981A6369C3
:1044F000F6B28342374604DC21462846FFF7D0FC5B
:10450000E0B9A368013BA36023685A1C22601E70B7
:104510006269431C9A4204D0A389DB0706D50A2EA0
:1045200004D121462846FFF7BBFC38B93846F8BD10
:104530002146284600F006F80028D5D04FF0FF3776
:10454000F4E7000038B52A4B054618680C4618B148
:10455000036A0BB9FFF7B0FAA389B4F90C20180766
:1045600022D4D90607D409232B6042F04003A3814B
:104570004FF0FF3034E0580712D5616B41B104F1C0
:104580004403994202D02846FFF7B8FB0023636337
:10459000A38923F02403A38100236360236923609C
:1045A000A38943F00803A38123694BB9A38903F4CA
:1045B0002073B3F5007F03D02146284600F084F82D
:1045C000A089B4F90C2010F001030AD00023A360E5
:1045D00063695B42A361236943B910F08000C4D1D1
:1045E00038BD810758BF6369A360F4E70020F7E78F
:1045F0006C0000201F2938B504460D4604D9162347
:1046000003604FF0FF3038BDC26B12B152F8213059
:104610004BB9204600F030F82A4601462046BDE856
:10462000384000F017B8012B0AD0591C03D11623CB
:1046300003600120E7E7002442F825402846984718
:104640000020E0E7024B01461868FFF7D3BF00BF28
:104650006C00002038B5074D00230446084611467B
:104660002B60FCF7A1FE431C02D12B6803B1236031
:1046700038BD00BFE4020020FCF78EBE70B50C46CA
:10468000B1F90E10002996B015461E460DDAA38921
:1046900013F0800F4FF000010CBF4FF480634023F4
:1046A000002031602B6016B070BD6A4600F048F8FB
:1046B0000028ECDB019901F47041A1F50053594247
:1046C00059414FF48063EBE78B8973B59D0706462C
:1046D0000C4607D504F1470323602361012363617E
:1046E00002B070BD01AB6A46FFF7C8FF00990546EE
:1046F0003046FFF76FF848B9B4F90C309A05EFD49B
:1047000023F0030343F00203A381E3E7A3892060BE
:1047100043F08003A381009B6361019B20615BB137
:10472000B4F90E10304600F01DF828B1A38923F02B
:10473000030343F00103A381A3891D43A581CFE7B0
:1047400038B5074D00230446084611462B60FCF798
:104750008AFE431C02D12B6803B1236038BD00BF21
:10476000E402002038B5064D0023044608462B60BD
:10477000FCF789FE431C02D12B6803B1236038BDCE
:10478000E4020020F8B500BFF8BC08BC9E467047A4
:0C479000F8B500BFF8BC08BC9E4670479E
:10479C0000000000000000000102030406070809E5
:1047AC005245454E54206D616C6C6F63207375637C
:1047BC00636565646564002F6275696C642F676E50
:1047CC00752D746F6F6C732D666F722D73746D33E2
:1047DC00325F31312E332E72656C312E32303233E2
:1047EC00303531392D313934312F7372632F6E6579
:1047FC00776C69622F6E65776C69622F6C69626386
:10480C002F7374646C69622F72616E642E63002C5A
:10481C002066756E6374696F6E3A20006173736500
:10482C007274696F6E2022257322206661696C6533
:10483C00643A2066696C6520222573222C206C69F1
:10484C006E65202564257325730A00232D302B20DB
:10485C0000686C4C00656667454647003031323362
:10486C0034353637383941424344454600303132CD
:10487C00333435363738396162636465660000005D
:08488C0014BAFF7F01000000D7
:04489400B501000862
:044898009101000882
:10489C0000010203FFFF00000024F40010000000E0
:1048AC00010000000000000003000000A80100202F
:1048BC0000000000A8010020100200207802002057
:1048CC0000000000000000000000000000000000DC
:1048DC0000000000000000000000000000000000CC
:1048EC0000000000000000000000000000000000BC
:1048FC00000000000000000000000000200000206C
:04000005080017498F
:00000001FF
